{
	"mainnet/0x8a90CAb2b38dba80c64b7734e58Ee1dB38B8992e/contracts/RawMaterials.sol": {
		"RawMaterials": {
			"abi": [
				{
					"inputs": [],
					"stateMutability": "nonpayable",
					"type": "constructor"
				},
				{
					"inputs": [
						{
							"internalType": "address",
							"name": "sender",
							"type": "address"
						},
						{
							"internalType": "uint256",
							"name": "tokenId",
							"type": "uint256"
						},
						{
							"internalType": "address",
							"name": "owner",
							"type": "address"
						}
					],
					"name": "ERC721IncorrectOwner",
					"type": "error"
				},
				{
					"inputs": [
						{
							"internalType": "address",
							"name": "operator",
							"type": "address"
						},
						{
							"internalType": "uint256",
							"name": "tokenId",
							"type": "uint256"
						}
					],
					"name": "ERC721InsufficientApproval",
					"type": "error"
				},
				{
					"inputs": [
						{
							"internalType": "address",
							"name": "approver",
							"type": "address"
						}
					],
					"name": "ERC721InvalidApprover",
					"type": "error"
				},
				{
					"inputs": [
						{
							"internalType": "address",
							"name": "operator",
							"type": "address"
						}
					],
					"name": "ERC721InvalidOperator",
					"type": "error"
				},
				{
					"inputs": [
						{
							"internalType": "address",
							"name": "owner",
							"type": "address"
						}
					],
					"name": "ERC721InvalidOwner",
					"type": "error"
				},
				{
					"inputs": [
						{
							"internalType": "address",
							"name": "receiver",
							"type": "address"
						}
					],
					"name": "ERC721InvalidReceiver",
					"type": "error"
				},
				{
					"inputs": [
						{
							"internalType": "address",
							"name": "sender",
							"type": "address"
						}
					],
					"name": "ERC721InvalidSender",
					"type": "error"
				},
				{
					"inputs": [
						{
							"internalType": "uint256",
							"name": "tokenId",
							"type": "uint256"
						}
					],
					"name": "ERC721NonexistentToken",
					"type": "error"
				},
				{
					"inputs": [
						{
							"internalType": "address",
							"name": "owner",
							"type": "address"
						}
					],
					"name": "OwnableInvalidOwner",
					"type": "error"
				},
				{
					"inputs": [
						{
							"internalType": "address",
							"name": "account",
							"type": "address"
						}
					],
					"name": "OwnableUnauthorizedAccount",
					"type": "error"
				},
				{
					"anonymous": false,
					"inputs": [
						{
							"indexed": true,
							"internalType": "address",
							"name": "owner",
							"type": "address"
						},
						{
							"indexed": true,
							"internalType": "address",
							"name": "approved",
							"type": "address"
						},
						{
							"indexed": true,
							"internalType": "uint256",
							"name": "tokenId",
							"type": "uint256"
						}
					],
					"name": "Approval",
					"type": "event"
				},
				{
					"anonymous": false,
					"inputs": [
						{
							"indexed": true,
							"internalType": "address",
							"name": "owner",
							"type": "address"
						},
						{
							"indexed": true,
							"internalType": "address",
							"name": "operator",
							"type": "address"
						},
						{
							"indexed": false,
							"internalType": "bool",
							"name": "approved",
							"type": "bool"
						}
					],
					"name": "ApprovalForAll",
					"type": "event"
				},
				{
					"anonymous": false,
					"inputs": [
						{
							"indexed": false,
							"internalType": "uint256",
							"name": "_fromTokenId",
							"type": "uint256"
						},
						{
							"indexed": false,
							"internalType": "uint256",
							"name": "_toTokenId",
							"type": "uint256"
						}
					],
					"name": "BatchMetadataUpdate",
					"type": "event"
				},
				{
					"anonymous": false,
					"inputs": [
						{
							"indexed": false,
							"internalType": "uint256",
							"name": "_tokenId",
							"type": "uint256"
						}
					],
					"name": "MetadataUpdate",
					"type": "event"
				},
				{
					"anonymous": false,
					"inputs": [
						{
							"indexed": true,
							"internalType": "address",
							"name": "previousOwner",
							"type": "address"
						},
						{
							"indexed": true,
							"internalType": "address",
							"name": "newOwner",
							"type": "address"
						}
					],
					"name": "OwnershipTransferred",
					"type": "event"
				},
				{
					"anonymous": false,
					"inputs": [
						{
							"indexed": true,
							"internalType": "address",
							"name": "from",
							"type": "address"
						},
						{
							"indexed": true,
							"internalType": "address",
							"name": "to",
							"type": "address"
						},
						{
							"indexed": true,
							"internalType": "uint256",
							"name": "tokenId",
							"type": "uint256"
						}
					],
					"name": "Transfer",
					"type": "event"
				},
				{
					"inputs": [
						{
							"internalType": "address",
							"name": "_trademgmtsc",
							"type": "address"
						}
					],
					"name": "SetTradeManagementSC",
					"outputs": [],
					"stateMutability": "nonpayable",
					"type": "function"
				},
				{
					"inputs": [],
					"name": "TradeManagement",
					"outputs": [
						{
							"internalType": "contract ITradeManagementRawMaterials",
							"name": "",
							"type": "address"
						}
					],
					"stateMutability": "view",
					"type": "function"
				},
				{
					"inputs": [
						{
							"internalType": "address",
							"name": "to",
							"type": "address"
						},
						{
							"internalType": "uint256",
							"name": "tokenId",
							"type": "uint256"
						}
					],
					"name": "approve",
					"outputs": [],
					"stateMutability": "nonpayable",
					"type": "function"
				},
				{
					"inputs": [
						{
							"internalType": "address",
							"name": "owner",
							"type": "address"
						}
					],
					"name": "balanceOf",
					"outputs": [
						{
							"internalType": "uint256",
							"name": "",
							"type": "uint256"
						}
					],
					"stateMutability": "view",
					"type": "function"
				},
				{
					"inputs": [
						{
							"internalType": "uint256",
							"name": "tokenId",
							"type": "uint256"
						}
					],
					"name": "getApproved",
					"outputs": [
						{
							"internalType": "address",
							"name": "",
							"type": "address"
						}
					],
					"stateMutability": "view",
					"type": "function"
				},
				{
					"inputs": [
						{
							"internalType": "address",
							"name": "owner",
							"type": "address"
						},
						{
							"internalType": "address",
							"name": "operator",
							"type": "address"
						}
					],
					"name": "isApprovedForAll",
					"outputs": [
						{
							"internalType": "bool",
							"name": "",
							"type": "bool"
						}
					],
					"stateMutability": "view",
					"type": "function"
				},
				{
					"inputs": [
						{
							"internalType": "string",
							"name": "_tokenURI",
							"type": "string"
						}
					],
					"name": "mint",
					"outputs": [
						{
							"internalType": "uint256",
							"name": "",
							"type": "uint256"
						}
					],
					"stateMutability": "nonpayable",
					"type": "function"
				},
				{
					"inputs": [],
					"name": "name",
					"outputs": [
						{
							"internalType": "string",
							"name": "",
							"type": "string"
						}
					],
					"stateMutability": "view",
					"type": "function"
				},
				{
					"inputs": [],
					"name": "owner",
					"outputs": [
						{
							"internalType": "address",
							"name": "",
							"type": "address"
						}
					],
					"stateMutability": "view",
					"type": "function"
				},
				{
					"inputs": [
						{
							"internalType": "uint256",
							"name": "tokenId",
							"type": "uint256"
						}
					],
					"name": "ownerOf",
					"outputs": [
						{
							"internalType": "address",
							"name": "",
							"type": "address"
						}
					],
					"stateMutability": "view",
					"type": "function"
				},
				{
					"inputs": [],
					"name": "renounceOwnership",
					"outputs": [],
					"stateMutability": "nonpayable",
					"type": "function"
				},
				{
					"inputs": [
						{
							"internalType": "address",
							"name": "from",
							"type": "address"
						},
						{
							"internalType": "address",
							"name": "to",
							"type": "address"
						},
						{
							"internalType": "uint256",
							"name": "tokenId",
							"type": "uint256"
						}
					],
					"name": "safeTransferFrom",
					"outputs": [],
					"stateMutability": "nonpayable",
					"type": "function"
				},
				{
					"inputs": [
						{
							"internalType": "address",
							"name": "from",
							"type": "address"
						},
						{
							"internalType": "address",
							"name": "to",
							"type": "address"
						},
						{
							"internalType": "uint256",
							"name": "tokenId",
							"type": "uint256"
						},
						{
							"internalType": "bytes",
							"name": "data",
							"type": "bytes"
						}
					],
					"name": "safeTransferFrom",
					"outputs": [],
					"stateMutability": "nonpayable",
					"type": "function"
				},
				{
					"inputs": [
						{
							"internalType": "address",
							"name": "operator",
							"type": "address"
						},
						{
							"internalType": "bool",
							"name": "approved",
							"type": "bool"
						}
					],
					"name": "setApprovalForAll",
					"outputs": [],
					"stateMutability": "nonpayable",
					"type": "function"
				},
				{
					"inputs": [
						{
							"internalType": "bytes4",
							"name": "interfaceId",
							"type": "bytes4"
						}
					],
					"name": "supportsInterface",
					"outputs": [
						{
							"internalType": "bool",
							"name": "",
							"type": "bool"
						}
					],
					"stateMutability": "view",
					"type": "function"
				},
				{
					"inputs": [],
					"name": "symbol",
					"outputs": [
						{
							"internalType": "string",
							"name": "",
							"type": "string"
						}
					],
					"stateMutability": "view",
					"type": "function"
				},
				{
					"inputs": [],
					"name": "tokenCount",
					"outputs": [
						{
							"internalType": "uint256",
							"name": "",
							"type": "uint256"
						}
					],
					"stateMutability": "view",
					"type": "function"
				},
				{
					"inputs": [
						{
							"internalType": "uint256",
							"name": "tokenId",
							"type": "uint256"
						}
					],
					"name": "tokenURI",
					"outputs": [
						{
							"internalType": "string",
							"name": "",
							"type": "string"
						}
					],
					"stateMutability": "view",
					"type": "function"
				},
				{
					"inputs": [
						{
							"internalType": "address",
							"name": "from",
							"type": "address"
						},
						{
							"internalType": "address",
							"name": "to",
							"type": "address"
						},
						{
							"internalType": "uint256",
							"name": "tokenId",
							"type": "uint256"
						}
					],
					"name": "transferFrom",
					"outputs": [],
					"stateMutability": "nonpayable",
					"type": "function"
				},
				{
					"inputs": [
						{
							"internalType": "address",
							"name": "newOwner",
							"type": "address"
						}
					],
					"name": "transferOwnership",
					"outputs": [],
					"stateMutability": "nonpayable",
					"type": "function"
				}
			],
			"devdoc": {
				"errors": {
					"ERC721IncorrectOwner(address,uint256,address)": [
						{
							"details": "Indicates an error related to the ownership over a particular token. Used in transfers.",
							"params": {
								"owner": "Address of the current owner of a token.",
								"sender": "Address whose tokens are being transferred.",
								"tokenId": "Identifier number of a token."
							}
						}
					],
					"ERC721InsufficientApproval(address,uint256)": [
						{
							"details": "Indicates a failure with the `operator`’s approval. Used in transfers.",
							"params": {
								"operator": "Address that may be allowed to operate on tokens without being their owner.",
								"tokenId": "Identifier number of a token."
							}
						}
					],
					"ERC721InvalidApprover(address)": [
						{
							"details": "Indicates a failure with the `approver` of a token to be approved. Used in approvals.",
							"params": {
								"approver": "Address initiating an approval operation."
							}
						}
					],
					"ERC721InvalidOperator(address)": [
						{
							"details": "Indicates a failure with the `operator` to be approved. Used in approvals.",
							"params": {
								"operator": "Address that may be allowed to operate on tokens without being their owner."
							}
						}
					],
					"ERC721InvalidOwner(address)": [
						{
							"details": "Indicates that an address can't be an owner. For example, `address(0)` is a forbidden owner in ERC-20. Used in balance queries.",
							"params": {
								"owner": "Address of the current owner of a token."
							}
						}
					],
					"ERC721InvalidReceiver(address)": [
						{
							"details": "Indicates a failure with the token `receiver`. Used in transfers.",
							"params": {
								"receiver": "Address to which tokens are being transferred."
							}
						}
					],
					"ERC721InvalidSender(address)": [
						{
							"details": "Indicates a failure with the token `sender`. Used in transfers.",
							"params": {
								"sender": "Address whose tokens are being transferred."
							}
						}
					],
					"ERC721NonexistentToken(uint256)": [
						{
							"details": "Indicates a `tokenId` whose `owner` is the zero address.",
							"params": {
								"tokenId": "Identifier number of a token."
							}
						}
					],
					"OwnableInvalidOwner(address)": [
						{
							"details": "The owner is not a valid owner account. (eg. `address(0)`)"
						}
					],
					"OwnableUnauthorizedAccount(address)": [
						{
							"details": "The caller account is not authorized to perform an operation."
						}
					]
				},
				"events": {
					"Approval(address,address,uint256)": {
						"details": "Emitted when `owner` enables `approved` to manage the `tokenId` token."
					},
					"ApprovalForAll(address,address,bool)": {
						"details": "Emitted when `owner` enables or disables (`approved`) `operator` to manage all of its assets."
					},
					"BatchMetadataUpdate(uint256,uint256)": {
						"details": "This event emits when the metadata of a range of tokens is changed. So that the third-party platforms such as NFT market could timely update the images and related attributes of the NFTs."
					},
					"MetadataUpdate(uint256)": {
						"details": "This event emits when the metadata of a token is changed. So that the third-party platforms such as NFT market could timely update the images and related attributes of the NFT."
					},
					"Transfer(address,address,uint256)": {
						"details": "Emitted when `tokenId` token is transferred from `from` to `to`."
					}
				},
				"kind": "dev",
				"methods": {
					"approve(address,uint256)": {
						"details": "See {IERC721-approve}."
					},
					"balanceOf(address)": {
						"details": "See {IERC721-balanceOf}."
					},
					"getApproved(uint256)": {
						"details": "See {IERC721-getApproved}."
					},
					"isApprovedForAll(address,address)": {
						"details": "See {IERC721-isApprovedForAll}."
					},
					"name()": {
						"details": "See {IERC721Metadata-name}."
					},
					"owner()": {
						"details": "Returns the address of the current owner."
					},
					"ownerOf(uint256)": {
						"details": "See {IERC721-ownerOf}."
					},
					"renounceOwnership()": {
						"details": "Leaves the contract without owner. It will not be possible to call `onlyOwner` functions. Can only be called by the current owner. NOTE: Renouncing ownership will leave the contract without an owner, thereby disabling any functionality that is only available to the owner."
					},
					"safeTransferFrom(address,address,uint256)": {
						"details": "See {IERC721-safeTransferFrom}."
					},
					"safeTransferFrom(address,address,uint256,bytes)": {
						"details": "See {IERC721-safeTransferFrom}."
					},
					"setApprovalForAll(address,bool)": {
						"details": "See {IERC721-setApprovalForAll}."
					},
					"supportsInterface(bytes4)": {
						"details": "See {IERC165-supportsInterface}"
					},
					"symbol()": {
						"details": "See {IERC721Metadata-symbol}."
					},
					"tokenURI(uint256)": {
						"details": "See {IERC721Metadata-tokenURI}."
					},
					"transferFrom(address,address,uint256)": {
						"details": "See {IERC721-transferFrom}."
					},
					"transferOwnership(address)": {
						"details": "Transfers ownership of the contract to a new account (`newOwner`). Can only be called by the current owner."
					}
				},
				"version": 1
			},
			"evm": {
				"assembly": "    /* \"mainnet/0x8a90CAb2b38dba80c64b7734e58Ee1dB38B8992e/contracts/RawMaterials.sol\":439:1485  contract RawMaterials is ERC721URIStorage, Ownable{... */\n  mstore(0x40, 0x80)\n    /* \"mainnet/0x8a90CAb2b38dba80c64b7734e58Ee1dB38B8992e/contracts/RawMaterials.sol\":661:742  constructor () ERC721(\"RawMaterials\", \"RM\") Ownable(msg.sender){... */\n  callvalue\n  dup1\n  iszero\n  tag_1\n  jumpi\n  0x00\n  dup1\n  revert\ntag_1:\n  pop\n    /* \"mainnet/0x8a90CAb2b38dba80c64b7734e58Ee1dB38B8992e/contracts/RawMaterials.sol\":713:723  msg.sender */\n  caller\n    /* \"mainnet/0x8a90CAb2b38dba80c64b7734e58Ee1dB38B8992e/@openzeppelin/contracts/token/ERC721/ERC721.sol\":1382:1495  constructor(string memory name_, string memory symbol_) {... */\n  mload(0x40)\n  dup1\n  0x40\n  add\n  0x40\n  mstore\n  dup1\n  0x0c\n  dup2\n  mstore\n  0x20\n  add\n  0x5261774d6174657269616c730000000000000000000000000000000000000000\n  dup2\n  mstore\n  pop\n  mload(0x40)\n  dup1\n  0x40\n  add\n  0x40\n  mstore\n  dup1\n  0x02\n  dup2\n  mstore\n  0x20\n  add\n  0x524d000000000000000000000000000000000000000000000000000000000000\n  dup2\n  mstore\n  pop\n    /* \"mainnet/0x8a90CAb2b38dba80c64b7734e58Ee1dB38B8992e/@openzeppelin/contracts/token/ERC721/ERC721.sol\":1456:1461  name_ */\n  dup2\n    /* \"mainnet/0x8a90CAb2b38dba80c64b7734e58Ee1dB38B8992e/@openzeppelin/contracts/token/ERC721/ERC721.sol\":1448:1453  _name */\n  0x00\n    /* \"mainnet/0x8a90CAb2b38dba80c64b7734e58Ee1dB38B8992e/@openzeppelin/contracts/token/ERC721/ERC721.sol\":1448:1461  _name = name_ */\n  swap1\n  dup2\n  tag_6\n  swap2\n  swap1\n  tag_7\n  jump\t// in\ntag_6:\n  pop\n    /* \"mainnet/0x8a90CAb2b38dba80c64b7734e58Ee1dB38B8992e/@openzeppelin/contracts/token/ERC721/ERC721.sol\":1481:1488  symbol_ */\n  dup1\n    /* \"mainnet/0x8a90CAb2b38dba80c64b7734e58Ee1dB38B8992e/@openzeppelin/contracts/token/ERC721/ERC721.sol\":1471:1478  _symbol */\n  0x01\n    /* \"mainnet/0x8a90CAb2b38dba80c64b7734e58Ee1dB38B8992e/@openzeppelin/contracts/token/ERC721/ERC721.sol\":1471:1488  _symbol = symbol_ */\n  swap1\n  dup2\n  tag_8\n  swap2\n  swap1\n  tag_7\n  jump\t// in\ntag_8:\n  pop\n    /* \"mainnet/0x8a90CAb2b38dba80c64b7734e58Ee1dB38B8992e/@openzeppelin/contracts/token/ERC721/ERC721.sol\":1382:1495  constructor(string memory name_, string memory symbol_) {... */\n  pop\n  pop\n    /* \"mainnet/0x8a90CAb2b38dba80c64b7734e58Ee1dB38B8992e/@openzeppelin/contracts/access/Ownable.sol\":1297:1298  0 */\n  0x00\n    /* \"mainnet/0x8a90CAb2b38dba80c64b7734e58Ee1dB38B8992e/@openzeppelin/contracts/access/Ownable.sol\":1273:1299  initialOwner == address(0) */\n  0xffffffffffffffffffffffffffffffffffffffff\n  and\n    /* \"mainnet/0x8a90CAb2b38dba80c64b7734e58Ee1dB38B8992e/@openzeppelin/contracts/access/Ownable.sol\":1273:1285  initialOwner */\n  dup2\n    /* \"mainnet/0x8a90CAb2b38dba80c64b7734e58Ee1dB38B8992e/@openzeppelin/contracts/access/Ownable.sol\":1273:1299  initialOwner == address(0) */\n  0xffffffffffffffffffffffffffffffffffffffff\n  and\n  sub\n    /* \"mainnet/0x8a90CAb2b38dba80c64b7734e58Ee1dB38B8992e/@openzeppelin/contracts/access/Ownable.sol\":1269:1364  if (initialOwner == address(0)) {... */\n  tag_10\n  jumpi\n    /* \"mainnet/0x8a90CAb2b38dba80c64b7734e58Ee1dB38B8992e/@openzeppelin/contracts/access/Ownable.sol\":1350:1351  0 */\n  0x00\n    /* \"mainnet/0x8a90CAb2b38dba80c64b7734e58Ee1dB38B8992e/@openzeppelin/contracts/access/Ownable.sol\":1322:1353  OwnableInvalidOwner(address(0)) */\n  mload(0x40)\n  0x1e4fbdf700000000000000000000000000000000000000000000000000000000\n  dup2\n  mstore\n  0x04\n  add\n  tag_11\n  swap2\n  swap1\n  tag_12\n  jump\t// in\ntag_11:\n  mload(0x40)\n  dup1\n  swap2\n  sub\n  swap1\n  revert\n    /* \"mainnet/0x8a90CAb2b38dba80c64b7734e58Ee1dB38B8992e/@openzeppelin/contracts/access/Ownable.sol\":1269:1364  if (initialOwner == address(0)) {... */\ntag_10:\n    /* \"mainnet/0x8a90CAb2b38dba80c64b7734e58Ee1dB38B8992e/@openzeppelin/contracts/access/Ownable.sol\":1373:1405  _transferOwnership(initialOwner) */\n  tag_13\n    /* \"mainnet/0x8a90CAb2b38dba80c64b7734e58Ee1dB38B8992e/@openzeppelin/contracts/access/Ownable.sol\":1392:1404  initialOwner */\n  dup2\n    /* \"mainnet/0x8a90CAb2b38dba80c64b7734e58Ee1dB38B8992e/@openzeppelin/contracts/access/Ownable.sol\":1373:1391  _transferOwnership */\n  shl(0x20, tag_14)\n    /* \"mainnet/0x8a90CAb2b38dba80c64b7734e58Ee1dB38B8992e/@openzeppelin/contracts/access/Ownable.sol\":1373:1405  _transferOwnership(initialOwner) */\n  0x20\n  shr\n  jump\t// in\ntag_13:\n    /* \"mainnet/0x8a90CAb2b38dba80c64b7734e58Ee1dB38B8992e/@openzeppelin/contracts/access/Ownable.sol\":1225:1412  constructor(address initialOwner) {... */\n  pop\n    /* \"mainnet/0x8a90CAb2b38dba80c64b7734e58Ee1dB38B8992e/contracts/RawMaterials.sol\":439:1485  contract RawMaterials is ERC721URIStorage, Ownable{... */\n  jump(tag_16)\n    /* \"mainnet/0x8a90CAb2b38dba80c64b7734e58Ee1dB38B8992e/@openzeppelin/contracts/access/Ownable.sol\":2912:3099  function _transferOwnership(address newOwner) internal virtual {... */\ntag_14:\n    /* \"mainnet/0x8a90CAb2b38dba80c64b7734e58Ee1dB38B8992e/@openzeppelin/contracts/access/Ownable.sol\":2985:3001  address oldOwner */\n  0x00\n    /* \"mainnet/0x8a90CAb2b38dba80c64b7734e58Ee1dB38B8992e/@openzeppelin/contracts/access/Ownable.sol\":3004:3010  _owner */\n  0x07\n  0x00\n  swap1\n  sload\n  swap1\n  0x0100\n  exp\n  swap1\n  div\n  0xffffffffffffffffffffffffffffffffffffffff\n  and\n    /* \"mainnet/0x8a90CAb2b38dba80c64b7734e58Ee1dB38B8992e/@openzeppelin/contracts/access/Ownable.sol\":2985:3010  address oldOwner = _owner */\n  swap1\n  pop\n    /* \"mainnet/0x8a90CAb2b38dba80c64b7734e58Ee1dB38B8992e/@openzeppelin/contracts/access/Ownable.sol\":3029:3037  newOwner */\n  dup2\n    /* \"mainnet/0x8a90CAb2b38dba80c64b7734e58Ee1dB38B8992e/@openzeppelin/contracts/access/Ownable.sol\":3020:3026  _owner */\n  0x07\n  0x00\n    /* \"mainnet/0x8a90CAb2b38dba80c64b7734e58Ee1dB38B8992e/@openzeppelin/contracts/access/Ownable.sol\":3020:3037  _owner = newOwner */\n  0x0100\n  exp\n  dup2\n  sload\n  dup2\n  0xffffffffffffffffffffffffffffffffffffffff\n  mul\n  not\n  and\n  swap1\n  dup4\n  0xffffffffffffffffffffffffffffffffffffffff\n  and\n  mul\n  or\n  swap1\n  sstore\n  pop\n    /* \"mainnet/0x8a90CAb2b38dba80c64b7734e58Ee1dB38B8992e/@openzeppelin/contracts/access/Ownable.sol\":3083:3091  newOwner */\n  dup2\n    /* \"mainnet/0x8a90CAb2b38dba80c64b7734e58Ee1dB38B8992e/@openzeppelin/contracts/access/Ownable.sol\":3052:3092  OwnershipTransferred(oldOwner, newOwner) */\n  0xffffffffffffffffffffffffffffffffffffffff\n  and\n    /* \"mainnet/0x8a90CAb2b38dba80c64b7734e58Ee1dB38B8992e/@openzeppelin/contracts/access/Ownable.sol\":3073:3081  oldOwner */\n  dup2\n    /* \"mainnet/0x8a90CAb2b38dba80c64b7734e58Ee1dB38B8992e/@openzeppelin/contracts/access/Ownable.sol\":3052:3092  OwnershipTransferred(oldOwner, newOwner) */\n  0xffffffffffffffffffffffffffffffffffffffff\n  and\n  0x8be0079c531659141344cd1fd0a4f28419497f9722a3daafe3b4186f6b6457e0\n  mload(0x40)\n  mload(0x40)\n  dup1\n  swap2\n  sub\n  swap1\n  log3\n    /* \"mainnet/0x8a90CAb2b38dba80c64b7734e58Ee1dB38B8992e/@openzeppelin/contracts/access/Ownable.sol\":2975:3099  {... */\n  pop\n    /* \"mainnet/0x8a90CAb2b38dba80c64b7734e58Ee1dB38B8992e/@openzeppelin/contracts/access/Ownable.sol\":2912:3099  function _transferOwnership(address newOwner) internal virtual {... */\n  pop\n  jump\t// out\n    /* \"#utility.yul\":7:106   */\ntag_18:\n    /* \"#utility.yul\":59:65   */\n  0x00\n    /* \"#utility.yul\":93:98   */\n  dup2\n    /* \"#utility.yul\":87:99   */\n  mload\n    /* \"#utility.yul\":77:99   */\n  swap1\n  pop\n    /* \"#utility.yul\":7:106   */\n  swap2\n  swap1\n  pop\n  jump\t// out\n    /* \"#utility.yul\":112:292   */\ntag_19:\n    /* \"#utility.yul\":160:237   */\n  0x4e487b7100000000000000000000000000000000000000000000000000000000\n    /* \"#utility.yul\":157:158   */\n  0x00\n    /* \"#utility.yul\":150:238   */\n  mstore\n    /* \"#utility.yul\":257:261   */\n  0x41\n    /* \"#utility.yul\":254:255   */\n  0x04\n    /* \"#utility.yul\":247:262   */\n  mstore\n    /* \"#utility.yul\":281:285   */\n  0x24\n    /* \"#utility.yul\":278:279   */\n  0x00\n    /* \"#utility.yul\":271:286   */\n  revert\n    /* \"#utility.yul\":298:478   */\ntag_20:\n    /* \"#utility.yul\":346:423   */\n  0x4e487b7100000000000000000000000000000000000000000000000000000000\n    /* \"#utility.yul\":343:344   */\n  0x00\n    /* \"#utility.yul\":336:424   */\n  mstore\n    /* \"#utility.yul\":443:447   */\n  0x22\n    /* \"#utility.yul\":440:441   */\n  0x04\n    /* \"#utility.yul\":433:448   */\n  mstore\n    /* \"#utility.yul\":467:471   */\n  0x24\n    /* \"#utility.yul\":464:465   */\n  0x00\n    /* \"#utility.yul\":457:472   */\n  revert\n    /* \"#utility.yul\":484:804   */\ntag_21:\n    /* \"#utility.yul\":528:534   */\n  0x00\n    /* \"#utility.yul\":565:566   */\n  0x02\n    /* \"#utility.yul\":559:563   */\n  dup3\n    /* \"#utility.yul\":555:567   */\n  div\n    /* \"#utility.yul\":545:567   */\n  swap1\n  pop\n    /* \"#utility.yul\":612:613   */\n  0x01\n    /* \"#utility.yul\":606:610   */\n  dup3\n    /* \"#utility.yul\":602:614   */\n  and\n    /* \"#utility.yul\":633:651   */\n  dup1\n    /* \"#utility.yul\":623:704   */\n  tag_46\n  jumpi\n    /* \"#utility.yul\":689:693   */\n  0x7f\n    /* \"#utility.yul\":681:687   */\n  dup3\n    /* \"#utility.yul\":677:694   */\n  and\n    /* \"#utility.yul\":667:694   */\n  swap2\n  pop\n    /* \"#utility.yul\":623:704   */\ntag_46:\n    /* \"#utility.yul\":751:753   */\n  0x20\n    /* \"#utility.yul\":743:749   */\n  dup3\n    /* \"#utility.yul\":740:754   */\n  lt\n    /* \"#utility.yul\":720:738   */\n  dup2\n    /* \"#utility.yul\":717:755   */\n  sub\n    /* \"#utility.yul\":714:798   */\n  tag_47\n  jumpi\n    /* \"#utility.yul\":770:788   */\n  tag_48\n  tag_20\n  jump\t// in\ntag_48:\n    /* \"#utility.yul\":714:798   */\ntag_47:\n    /* \"#utility.yul\":535:804   */\n  pop\n    /* \"#utility.yul\":484:804   */\n  swap2\n  swap1\n  pop\n  jump\t// out\n    /* \"#utility.yul\":810:951   */\ntag_22:\n    /* \"#utility.yul\":859:863   */\n  0x00\n    /* \"#utility.yul\":882:885   */\n  dup2\n    /* \"#utility.yul\":874:885   */\n  swap1\n  pop\n    /* \"#utility.yul\":905:908   */\n  dup2\n    /* \"#utility.yul\":902:903   */\n  0x00\n    /* \"#utility.yul\":895:909   */\n  mstore\n    /* \"#utility.yul\":939:943   */\n  0x20\n    /* \"#utility.yul\":936:937   */\n  0x00\n    /* \"#utility.yul\":926:944   */\n  keccak256\n    /* \"#utility.yul\":918:944   */\n  swap1\n  pop\n    /* \"#utility.yul\":810:951   */\n  swap2\n  swap1\n  pop\n  jump\t// out\n    /* \"#utility.yul\":957:1050   */\ntag_23:\n    /* \"#utility.yul\":994:1000   */\n  0x00\n    /* \"#utility.yul\":1041:1043   */\n  0x20\n    /* \"#utility.yul\":1036:1038   */\n  0x1f\n    /* \"#utility.yul\":1029:1034   */\n  dup4\n    /* \"#utility.yul\":1025:1039   */\n  add\n    /* \"#utility.yul\":1021:1044   */\n  div\n    /* \"#utility.yul\":1011:1044   */\n  swap1\n  pop\n    /* \"#utility.yul\":957:1050   */\n  swap2\n  swap1\n  pop\n  jump\t// out\n    /* \"#utility.yul\":1056:1163   */\ntag_24:\n    /* \"#utility.yul\":1100:1108   */\n  0x00\n    /* \"#utility.yul\":1150:1155   */\n  dup3\n    /* \"#utility.yul\":1144:1148   */\n  dup3\n    /* \"#utility.yul\":1140:1156   */\n  shl\n    /* \"#utility.yul\":1119:1156   */\n  swap1\n  pop\n    /* \"#utility.yul\":1056:1163   */\n  swap3\n  swap2\n  pop\n  pop\n  jump\t// out\n    /* \"#utility.yul\":1169:1562   */\ntag_25:\n    /* \"#utility.yul\":1238:1244   */\n  0x00\n    /* \"#utility.yul\":1288:1289   */\n  0x08\n    /* \"#utility.yul\":1276:1286   */\n  dup4\n    /* \"#utility.yul\":1272:1290   */\n  mul\n    /* \"#utility.yul\":1311:1408   */\n  tag_53\n    /* \"#utility.yul\":1341:1407   */\n  0xffffffffffffffffffffffffffffffffffffffffffffffffffffffffffffffff\n    /* \"#utility.yul\":1330:1339   */\n  dup3\n    /* \"#utility.yul\":1311:1408   */\n  tag_24\n  jump\t// in\ntag_53:\n    /* \"#utility.yul\":1429:1468   */\n  tag_54\n    /* \"#utility.yul\":1459:1467   */\n  dup7\n    /* \"#utility.yul\":1448:1457   */\n  dup4\n    /* \"#utility.yul\":1429:1468   */\n  tag_24\n  jump\t// in\ntag_54:\n    /* \"#utility.yul\":1417:1468   */\n  swap6\n  pop\n    /* \"#utility.yul\":1501:1505   */\n  dup1\n    /* \"#utility.yul\":1497:1506   */\n  not\n    /* \"#utility.yul\":1490:1495   */\n  dup5\n    /* \"#utility.yul\":1486:1507   */\n  and\n    /* \"#utility.yul\":1477:1507   */\n  swap4\n  pop\n    /* \"#utility.yul\":1550:1554   */\n  dup1\n    /* \"#utility.yul\":1540:1548   */\n  dup7\n    /* \"#utility.yul\":1536:1555   */\n  and\n    /* \"#utility.yul\":1529:1534   */\n  dup5\n    /* \"#utility.yul\":1526:1556   */\n  or\n    /* \"#utility.yul\":1516:1556   */\n  swap3\n  pop\n    /* \"#utility.yul\":1245:1562   */\n  pop\n  pop\n    /* \"#utility.yul\":1169:1562   */\n  swap4\n  swap3\n  pop\n  pop\n  pop\n  jump\t// out\n    /* \"#utility.yul\":1568:1645   */\ntag_26:\n    /* \"#utility.yul\":1605:1612   */\n  0x00\n    /* \"#utility.yul\":1634:1639   */\n  dup2\n    /* \"#utility.yul\":1623:1639   */\n  swap1\n  pop\n    /* \"#utility.yul\":1568:1645   */\n  swap2\n  swap1\n  pop\n  jump\t// out\n    /* \"#utility.yul\":1651:1711   */\ntag_27:\n    /* \"#utility.yul\":1679:1682   */\n  0x00\n    /* \"#utility.yul\":1700:1705   */\n  dup2\n    /* \"#utility.yul\":1693:1705   */\n  swap1\n  pop\n    /* \"#utility.yul\":1651:1711   */\n  swap2\n  swap1\n  pop\n  jump\t// out\n    /* \"#utility.yul\":1717:1859   */\ntag_28:\n    /* \"#utility.yul\":1767:1776   */\n  0x00\n    /* \"#utility.yul\":1800:1853   */\n  tag_58\n    /* \"#utility.yul\":1818:1852   */\n  tag_59\n    /* \"#utility.yul\":1827:1851   */\n  tag_60\n    /* \"#utility.yul\":1845:1850   */\n  dup5\n    /* \"#utility.yul\":1827:1851   */\n  tag_26\n  jump\t// in\ntag_60:\n    /* \"#utility.yul\":1818:1852   */\n  tag_27\n  jump\t// in\ntag_59:\n    /* \"#utility.yul\":1800:1853   */\n  tag_26\n  jump\t// in\ntag_58:\n    /* \"#utility.yul\":1787:1853   */\n  swap1\n  pop\n    /* \"#utility.yul\":1717:1859   */\n  swap2\n  swap1\n  pop\n  jump\t// out\n    /* \"#utility.yul\":1865:1940   */\ntag_29:\n    /* \"#utility.yul\":1908:1911   */\n  0x00\n    /* \"#utility.yul\":1929:1934   */\n  dup2\n    /* \"#utility.yul\":1922:1934   */\n  swap1\n  pop\n    /* \"#utility.yul\":1865:1940   */\n  swap2\n  swap1\n  pop\n  jump\t// out\n    /* \"#utility.yul\":1946:2215   */\ntag_30:\n    /* \"#utility.yul\":2056:2095   */\n  tag_63\n    /* \"#utility.yul\":2087:2094   */\n  dup4\n    /* \"#utility.yul\":2056:2095   */\n  tag_28\n  jump\t// in\ntag_63:\n    /* \"#utility.yul\":2117:2208   */\n  tag_64\n    /* \"#utility.yul\":2166:2207   */\n  tag_65\n    /* \"#utility.yul\":2190:2206   */\n  dup3\n    /* \"#utility.yul\":2166:2207   */\n  tag_29\n  jump\t// in\ntag_65:\n    /* \"#utility.yul\":2158:2164   */\n  dup5\n    /* \"#utility.yul\":2151:2155   */\n  dup5\n    /* \"#utility.yul\":2145:2156   */\n  sload\n    /* \"#utility.yul\":2117:2208   */\n  tag_25\n  jump\t// in\ntag_64:\n    /* \"#utility.yul\":2111:2115   */\n  dup3\n    /* \"#utility.yul\":2104:2209   */\n  sstore\n    /* \"#utility.yul\":2022:2215   */\n  pop\n    /* \"#utility.yul\":1946:2215   */\n  pop\n  pop\n  pop\n  jump\t// out\n    /* \"#utility.yul\":2221:2294   */\ntag_31:\n    /* \"#utility.yul\":2266:2269   */\n  0x00\n    /* \"#utility.yul\":2221:2294   */\n  swap1\n  jump\t// out\n    /* \"#utility.yul\":2300:2489   */\ntag_32:\n    /* \"#utility.yul\":2377:2409   */\n  tag_68\n  tag_31\n  jump\t// in\ntag_68:\n    /* \"#utility.yul\":2418:2483   */\n  tag_69\n    /* \"#utility.yul\":2476:2482   */\n  dup2\n    /* \"#utility.yul\":2468:2474   */\n  dup5\n    /* \"#utility.yul\":2462:2466   */\n  dup5\n    /* \"#utility.yul\":2418:2483   */\n  tag_30\n  jump\t// in\ntag_69:\n    /* \"#utility.yul\":2353:2489   */\n  pop\n    /* \"#utility.yul\":2300:2489   */\n  pop\n  pop\n  jump\t// out\n    /* \"#utility.yul\":2495:2681   */\ntag_33:\n    /* \"#utility.yul\":2555:2675   */\ntag_71:\n    /* \"#utility.yul\":2572:2575   */\n  dup2\n    /* \"#utility.yul\":2565:2570   */\n  dup2\n    /* \"#utility.yul\":2562:2576   */\n  lt\n    /* \"#utility.yul\":2555:2675   */\n  iszero\n  tag_73\n  jumpi\n    /* \"#utility.yul\":2626:2665   */\n  tag_74\n    /* \"#utility.yul\":2663:2664   */\n  0x00\n    /* \"#utility.yul\":2656:2661   */\n  dup3\n    /* \"#utility.yul\":2626:2665   */\n  tag_32\n  jump\t// in\ntag_74:\n    /* \"#utility.yul\":2599:2600   */\n  0x01\n    /* \"#utility.yul\":2592:2597   */\n  dup2\n    /* \"#utility.yul\":2588:2601   */\n  add\n    /* \"#utility.yul\":2579:2601   */\n  swap1\n  pop\n    /* \"#utility.yul\":2555:2675   */\n  jump(tag_71)\ntag_73:\n    /* \"#utility.yul\":2495:2681   */\n  pop\n  pop\n  jump\t// out\n    /* \"#utility.yul\":2687:3230   */\ntag_34:\n    /* \"#utility.yul\":2788:2790   */\n  0x1f\n    /* \"#utility.yul\":2783:2786   */\n  dup3\n    /* \"#utility.yul\":2780:2791   */\n  gt\n    /* \"#utility.yul\":2777:3223   */\n  iszero\n  tag_76\n  jumpi\n    /* \"#utility.yul\":2822:2860   */\n  tag_77\n    /* \"#utility.yul\":2854:2859   */\n  dup2\n    /* \"#utility.yul\":2822:2860   */\n  tag_22\n  jump\t// in\ntag_77:\n    /* \"#utility.yul\":2906:2935   */\n  tag_78\n    /* \"#utility.yul\":2924:2934   */\n  dup5\n    /* \"#utility.yul\":2906:2935   */\n  tag_23\n  jump\t// in\ntag_78:\n    /* \"#utility.yul\":2896:2904   */\n  dup2\n    /* \"#utility.yul\":2892:2936   */\n  add\n    /* \"#utility.yul\":3089:3091   */\n  0x20\n    /* \"#utility.yul\":3077:3087   */\n  dup6\n    /* \"#utility.yul\":3074:3092   */\n  lt\n    /* \"#utility.yul\":3071:3120   */\n  iszero\n  tag_79\n  jumpi\n    /* \"#utility.yul\":3110:3118   */\n  dup2\n    /* \"#utility.yul\":3095:3118   */\n  swap1\n  pop\n    /* \"#utility.yul\":3071:3120   */\ntag_79:\n    /* \"#utility.yul\":3133:3213   */\n  tag_80\n    /* \"#utility.yul\":3189:3211   */\n  tag_81\n    /* \"#utility.yul\":3207:3210   */\n  dup6\n    /* \"#utility.yul\":3189:3211   */\n  tag_23\n  jump\t// in\ntag_81:\n    /* \"#utility.yul\":3179:3187   */\n  dup4\n    /* \"#utility.yul\":3175:3212   */\n  add\n    /* \"#utility.yul\":3162:3173   */\n  dup3\n    /* \"#utility.yul\":3133:3213   */\n  tag_33\n  jump\t// in\ntag_80:\n    /* \"#utility.yul\":2792:3223   */\n  pop\n  pop\n    /* \"#utility.yul\":2777:3223   */\ntag_76:\n    /* \"#utility.yul\":2687:3230   */\n  pop\n  pop\n  pop\n  jump\t// out\n    /* \"#utility.yul\":3236:3353   */\ntag_35:\n    /* \"#utility.yul\":3290:3298   */\n  0x00\n    /* \"#utility.yul\":3340:3345   */\n  dup3\n    /* \"#utility.yul\":3334:3338   */\n  dup3\n    /* \"#utility.yul\":3330:3346   */\n  shr\n    /* \"#utility.yul\":3309:3346   */\n  swap1\n  pop\n    /* \"#utility.yul\":3236:3353   */\n  swap3\n  swap2\n  pop\n  pop\n  jump\t// out\n    /* \"#utility.yul\":3359:3528   */\ntag_36:\n    /* \"#utility.yul\":3403:3409   */\n  0x00\n    /* \"#utility.yul\":3436:3487   */\n  tag_84\n    /* \"#utility.yul\":3484:3485   */\n  0x00\n    /* \"#utility.yul\":3480:3486   */\n  not\n    /* \"#utility.yul\":3472:3477   */\n  dup5\n    /* \"#utility.yul\":3469:3470   */\n  0x08\n    /* \"#utility.yul\":3465:3478   */\n  mul\n    /* \"#utility.yul\":3436:3487   */\n  tag_35\n  jump\t// in\ntag_84:\n    /* \"#utility.yul\":3432:3488   */\n  not\n    /* \"#utility.yul\":3517:3521   */\n  dup1\n    /* \"#utility.yul\":3511:3515   */\n  dup4\n    /* \"#utility.yul\":3507:3522   */\n  and\n    /* \"#utility.yul\":3497:3522   */\n  swap2\n  pop\n    /* \"#utility.yul\":3410:3528   */\n  pop\n    /* \"#utility.yul\":3359:3528   */\n  swap3\n  swap2\n  pop\n  pop\n  jump\t// out\n    /* \"#utility.yul\":3533:3828   */\ntag_37:\n    /* \"#utility.yul\":3609:3613   */\n  0x00\n    /* \"#utility.yul\":3755:3784   */\n  tag_86\n    /* \"#utility.yul\":3780:3783   */\n  dup4\n    /* \"#utility.yul\":3774:3778   */\n  dup4\n    /* \"#utility.yul\":3755:3784   */\n  tag_36\n  jump\t// in\ntag_86:\n    /* \"#utility.yul\":3747:3784   */\n  swap2\n  pop\n    /* \"#utility.yul\":3817:3820   */\n  dup3\n    /* \"#utility.yul\":3814:3815   */\n  0x02\n    /* \"#utility.yul\":3810:3821   */\n  mul\n    /* \"#utility.yul\":3804:3808   */\n  dup3\n    /* \"#utility.yul\":3801:3822   */\n  or\n    /* \"#utility.yul\":3793:3822   */\n  swap1\n  pop\n    /* \"#utility.yul\":3533:3828   */\n  swap3\n  swap2\n  pop\n  pop\n  jump\t// out\n    /* \"#utility.yul\":3833:5228   */\ntag_7:\n    /* \"#utility.yul\":3950:3987   */\n  tag_88\n    /* \"#utility.yul\":3983:3986   */\n  dup3\n    /* \"#utility.yul\":3950:3987   */\n  tag_18\n  jump\t// in\ntag_88:\n    /* \"#utility.yul\":4052:4070   */\n  0xffffffffffffffff\n    /* \"#utility.yul\":4044:4050   */\n  dup2\n    /* \"#utility.yul\":4041:4071   */\n  gt\n    /* \"#utility.yul\":4038:4094   */\n  iszero\n  tag_89\n  jumpi\n    /* \"#utility.yul\":4074:4092   */\n  tag_90\n  tag_19\n  jump\t// in\ntag_90:\n    /* \"#utility.yul\":4038:4094   */\ntag_89:\n    /* \"#utility.yul\":4118:4156   */\n  tag_91\n    /* \"#utility.yul\":4150:4154   */\n  dup3\n    /* \"#utility.yul\":4144:4155   */\n  sload\n    /* \"#utility.yul\":4118:4156   */\n  tag_21\n  jump\t// in\ntag_91:\n    /* \"#utility.yul\":4203:4270   */\n  tag_92\n    /* \"#utility.yul\":4263:4269   */\n  dup3\n    /* \"#utility.yul\":4255:4261   */\n  dup3\n    /* \"#utility.yul\":4249:4253   */\n  dup6\n    /* \"#utility.yul\":4203:4270   */\n  tag_34\n  jump\t// in\ntag_92:\n    /* \"#utility.yul\":4297:4298   */\n  0x00\n    /* \"#utility.yul\":4321:4325   */\n  0x20\n    /* \"#utility.yul\":4308:4325   */\n  swap1\n  pop\n    /* \"#utility.yul\":4353:4355   */\n  0x1f\n    /* \"#utility.yul\":4345:4351   */\n  dup4\n    /* \"#utility.yul\":4342:4356   */\n  gt\n    /* \"#utility.yul\":4370:4371   */\n  0x01\n    /* \"#utility.yul\":4365:4983   */\n  dup2\n  eq\n  tag_94\n  jumpi\n    /* \"#utility.yul\":5027:5028   */\n  0x00\n    /* \"#utility.yul\":5044:5050   */\n  dup5\n    /* \"#utility.yul\":5041:5118   */\n  iszero\n  tag_95\n  jumpi\n    /* \"#utility.yul\":5093:5102   */\n  dup3\n    /* \"#utility.yul\":5088:5091   */\n  dup8\n    /* \"#utility.yul\":5084:5103   */\n  add\n    /* \"#utility.yul\":5078:5104   */\n  mload\n    /* \"#utility.yul\":5069:5104   */\n  swap1\n  pop\n    /* \"#utility.yul\":5041:5118   */\ntag_95:\n    /* \"#utility.yul\":5144:5211   */\n  tag_96\n    /* \"#utility.yul\":5204:5210   */\n  dup6\n    /* \"#utility.yul\":5197:5202   */\n  dup3\n    /* \"#utility.yul\":5144:5211   */\n  tag_37\n  jump\t// in\ntag_96:\n    /* \"#utility.yul\":5138:5142   */\n  dup7\n    /* \"#utility.yul\":5131:5212   */\n  sstore\n    /* \"#utility.yul\":5000:5222   */\n  pop\n    /* \"#utility.yul\":4335:5222   */\n  jump(tag_93)\n    /* \"#utility.yul\":4365:4983   */\ntag_94:\n    /* \"#utility.yul\":4417:4421   */\n  0x1f\n    /* \"#utility.yul\":4413:4422   */\n  not\n    /* \"#utility.yul\":4405:4411   */\n  dup5\n    /* \"#utility.yul\":4401:4423   */\n  and\n    /* \"#utility.yul\":4451:4488   */\n  tag_97\n    /* \"#utility.yul\":4483:4487   */\n  dup7\n    /* \"#utility.yul\":4451:4488   */\n  tag_22\n  jump\t// in\ntag_97:\n    /* \"#utility.yul\":4510:4511   */\n  0x00\n    /* \"#utility.yul\":4524:4732   */\ntag_98:\n    /* \"#utility.yul\":4538:4545   */\n  dup3\n    /* \"#utility.yul\":4535:4536   */\n  dup2\n    /* \"#utility.yul\":4532:4546   */\n  lt\n    /* \"#utility.yul\":4524:4732   */\n  iszero\n  tag_100\n  jumpi\n    /* \"#utility.yul\":4617:4626   */\n  dup5\n    /* \"#utility.yul\":4612:4615   */\n  dup10\n    /* \"#utility.yul\":4608:4627   */\n  add\n    /* \"#utility.yul\":4602:4628   */\n  mload\n    /* \"#utility.yul\":4594:4600   */\n  dup3\n    /* \"#utility.yul\":4587:4629   */\n  sstore\n    /* \"#utility.yul\":4668:4669   */\n  0x01\n    /* \"#utility.yul\":4660:4666   */\n  dup3\n    /* \"#utility.yul\":4656:4670   */\n  add\n    /* \"#utility.yul\":4646:4670   */\n  swap2\n  pop\n    /* \"#utility.yul\":4715:4717   */\n  0x20\n    /* \"#utility.yul\":4704:4713   */\n  dup6\n    /* \"#utility.yul\":4700:4718   */\n  add\n    /* \"#utility.yul\":4687:4718   */\n  swap5\n  pop\n    /* \"#utility.yul\":4561:4565   */\n  0x20\n    /* \"#utility.yul\":4558:4559   */\n  dup2\n    /* \"#utility.yul\":4554:4566   */\n  add\n    /* \"#utility.yul\":4549:4566   */\n  swap1\n  pop\n    /* \"#utility.yul\":4524:4732   */\n  jump(tag_98)\ntag_100:\n    /* \"#utility.yul\":4760:4766   */\n  dup7\n    /* \"#utility.yul\":4751:4758   */\n  dup4\n    /* \"#utility.yul\":4748:4767   */\n  lt\n    /* \"#utility.yul\":4745:4924   */\n  iszero\n  tag_101\n  jumpi\n    /* \"#utility.yul\":4818:4827   */\n  dup5\n    /* \"#utility.yul\":4813:4816   */\n  dup10\n    /* \"#utility.yul\":4809:4828   */\n  add\n    /* \"#utility.yul\":4803:4829   */\n  mload\n    /* \"#utility.yul\":4861:4909   */\n  tag_102\n    /* \"#utility.yul\":4903:4907   */\n  0x1f\n    /* \"#utility.yul\":4895:4901   */\n  dup10\n    /* \"#utility.yul\":4891:4908   */\n  and\n    /* \"#utility.yul\":4880:4889   */\n  dup3\n    /* \"#utility.yul\":4861:4909   */\n  tag_36\n  jump\t// in\ntag_102:\n    /* \"#utility.yul\":4853:4859   */\n  dup4\n    /* \"#utility.yul\":4846:4910   */\n  sstore\n    /* \"#utility.yul\":4768:4924   */\n  pop\n    /* \"#utility.yul\":4745:4924   */\ntag_101:\n    /* \"#utility.yul\":4970:4971   */\n  0x01\n    /* \"#utility.yul\":4966:4967   */\n  0x02\n    /* \"#utility.yul\":4958:4964   */\n  dup9\n    /* \"#utility.yul\":4954:4968   */\n  mul\n    /* \"#utility.yul\":4950:4972   */\n  add\n    /* \"#utility.yul\":4944:4948   */\n  dup9\n    /* \"#utility.yul\":4937:4973   */\n  sstore\n    /* \"#utility.yul\":4372:4983   */\n  pop\n  pop\n  pop\n    /* \"#utility.yul\":4335:5222   */\ntag_93:\n  pop\n    /* \"#utility.yul\":3925:5228   */\n  pop\n  pop\n  pop\n    /* \"#utility.yul\":3833:5228   */\n  pop\n  pop\n  jump\t// out\n    /* \"#utility.yul\":5234:5360   */\ntag_38:\n    /* \"#utility.yul\":5271:5278   */\n  0x00\n    /* \"#utility.yul\":5311:5353   */\n  0xffffffffffffffffffffffffffffffffffffffff\n    /* \"#utility.yul\":5304:5309   */\n  dup3\n    /* \"#utility.yul\":5300:5354   */\n  and\n    /* \"#utility.yul\":5289:5354   */\n  swap1\n  pop\n    /* \"#utility.yul\":5234:5360   */\n  swap2\n  swap1\n  pop\n  jump\t// out\n    /* \"#utility.yul\":5366:5462   */\ntag_39:\n    /* \"#utility.yul\":5403:5410   */\n  0x00\n    /* \"#utility.yul\":5432:5456   */\n  tag_105\n    /* \"#utility.yul\":5450:5455   */\n  dup3\n    /* \"#utility.yul\":5432:5456   */\n  tag_38\n  jump\t// in\ntag_105:\n    /* \"#utility.yul\":5421:5456   */\n  swap1\n  pop\n    /* \"#utility.yul\":5366:5462   */\n  swap2\n  swap1\n  pop\n  jump\t// out\n    /* \"#utility.yul\":5468:5586   */\ntag_40:\n    /* \"#utility.yul\":5555:5579   */\n  tag_107\n    /* \"#utility.yul\":5573:5578   */\n  dup2\n    /* \"#utility.yul\":5555:5579   */\n  tag_39\n  jump\t// in\ntag_107:\n    /* \"#utility.yul\":5550:5553   */\n  dup3\n    /* \"#utility.yul\":5543:5580   */\n  mstore\n    /* \"#utility.yul\":5468:5586   */\n  pop\n  pop\n  jump\t// out\n    /* \"#utility.yul\":5592:5814   */\ntag_12:\n    /* \"#utility.yul\":5685:5689   */\n  0x00\n    /* \"#utility.yul\":5723:5725   */\n  0x20\n    /* \"#utility.yul\":5712:5721   */\n  dup3\n    /* \"#utility.yul\":5708:5726   */\n  add\n    /* \"#utility.yul\":5700:5726   */\n  swap1\n  pop\n    /* \"#utility.yul\":5736:5807   */\n  tag_109\n    /* \"#utility.yul\":5804:5805   */\n  0x00\n    /* \"#utility.yul\":5793:5802   */\n  dup4\n    /* \"#utility.yul\":5789:5806   */\n  add\n    /* \"#utility.yul\":5780:5786   */\n  dup5\n    /* \"#utility.yul\":5736:5807   */\n  tag_40\n  jump\t// in\ntag_109:\n    /* \"#utility.yul\":5592:5814   */\n  swap3\n  swap2\n  pop\n  pop\n  jump\t// out\n    /* \"mainnet/0x8a90CAb2b38dba80c64b7734e58Ee1dB38B8992e/contracts/RawMaterials.sol\":439:1485  contract RawMaterials is ERC721URIStorage, Ownable{... */\ntag_16:\n  dataSize(sub_0)\n  dup1\n  dataOffset(sub_0)\n  0x00\n  codecopy\n  0x00\n  return\nstop\n\nsub_0: assembly {\n        /* \"mainnet/0x8a90CAb2b38dba80c64b7734e58Ee1dB38B8992e/contracts/RawMaterials.sol\":439:1485  contract RawMaterials is ERC721URIStorage, Ownable{... */\n      mstore(0x40, 0x80)\n      callvalue\n      dup1\n      iszero\n      tag_1\n      jumpi\n      0x00\n      dup1\n      revert\n    tag_1:\n      pop\n      jumpi(tag_2, lt(calldatasize, 0x04))\n      shr(0xe0, calldataload(0x00))\n      dup1\n      0x8da5cb5b\n      gt\n      tag_23\n      jumpi\n      dup1\n      0xc87b56dd\n      gt\n      tag_24\n      jumpi\n      dup1\n      0xc87b56dd\n      eq\n      tag_18\n      jumpi\n      dup1\n      0xd85d3d27\n      eq\n      tag_19\n      jumpi\n      dup1\n      0xe985e9c5\n      eq\n      tag_20\n      jumpi\n      dup1\n      0xf0f9ee46\n      eq\n      tag_21\n      jumpi\n      dup1\n      0xf2fde38b\n      eq\n      tag_22\n      jumpi\n      jump(tag_2)\n    tag_24:\n      dup1\n      0x8da5cb5b\n      eq\n      tag_13\n      jumpi\n      dup1\n      0x95d89b41\n      eq\n      tag_14\n      jumpi\n      dup1\n      0x9f181b5e\n      eq\n      tag_15\n      jumpi\n      dup1\n      0xa22cb465\n      eq\n      tag_16\n      jumpi\n      dup1\n      0xb88d4fde\n      eq\n      tag_17\n      jumpi\n      jump(tag_2)\n    tag_23:\n      dup1\n      0x23b872dd\n      gt\n      tag_25\n      jumpi\n      dup1\n      0x23b872dd\n      eq\n      tag_8\n      jumpi\n      dup1\n      0x42842e0e\n      eq\n      tag_9\n      jumpi\n      dup1\n      0x6352211e\n      eq\n      tag_10\n      jumpi\n      dup1\n      0x70a08231\n      eq\n      tag_11\n      jumpi\n      dup1\n      0x715018a6\n      eq\n      tag_12\n      jumpi\n      jump(tag_2)\n    tag_25:\n      dup1\n      0x01ffc9a7\n      eq\n      tag_3\n      jumpi\n      dup1\n      0x06fdde03\n      eq\n      tag_4\n      jumpi\n      dup1\n      0x081812fc\n      eq\n      tag_5\n      jumpi\n      dup1\n      0x095ea7b3\n      eq\n      tag_6\n      jumpi\n      dup1\n      0x0fffc4cf\n      eq\n      tag_7\n      jumpi\n    tag_2:\n      0x00\n      dup1\n      revert\n        /* \"mainnet/0x8a90CAb2b38dba80c64b7734e58Ee1dB38B8992e/@openzeppelin/contracts/token/ERC721/extensions/ERC721URIStorage.sol\":938:1145  function supportsInterface(bytes4 interfaceId) public view virtual override(ERC721, IERC165) returns (bool) {... */\n    tag_3:\n      tag_26\n      0x04\n      dup1\n      calldatasize\n      sub\n      dup2\n      add\n      swap1\n      tag_27\n      swap2\n      swap1\n      tag_28\n      jump\t// in\n    tag_27:\n      tag_29\n      jump\t// in\n    tag_26:\n      mload(0x40)\n      tag_30\n      swap2\n      swap1\n      tag_31\n      jump\t// in\n    tag_30:\n      mload(0x40)\n      dup1\n      swap2\n      sub\n      swap1\n      return\n        /* \"mainnet/0x8a90CAb2b38dba80c64b7734e58Ee1dB38B8992e/@openzeppelin/contracts/token/ERC721/ERC721.sol\":2366:2455  function name() public view virtual returns (string memory) {... */\n    tag_4:\n      tag_32\n      tag_33\n      jump\t// in\n    tag_32:\n      mload(0x40)\n      tag_34\n      swap2\n      swap1\n      tag_35\n      jump\t// in\n    tag_34:\n      mload(0x40)\n      dup1\n      swap2\n      sub\n      swap1\n      return\n        /* \"mainnet/0x8a90CAb2b38dba80c64b7734e58Ee1dB38B8992e/@openzeppelin/contracts/token/ERC721/ERC721.sol\":3498:3652  function getApproved(uint256 tokenId) public view virtual returns (address) {... */\n    tag_5:\n      tag_36\n      0x04\n      dup1\n      calldatasize\n      sub\n      dup2\n      add\n      swap1\n      tag_37\n      swap2\n      swap1\n      tag_38\n      jump\t// in\n    tag_37:\n      tag_39\n      jump\t// in\n    tag_36:\n      mload(0x40)\n      tag_40\n      swap2\n      swap1\n      tag_41\n      jump\t// in\n    tag_40:\n      mload(0x40)\n      dup1\n      swap2\n      sub\n      swap1\n      return\n        /* \"mainnet/0x8a90CAb2b38dba80c64b7734e58Ee1dB38B8992e/@openzeppelin/contracts/token/ERC721/ERC721.sol\":3324:3437  function approve(address to, uint256 tokenId) public virtual {... */\n    tag_6:\n      tag_42\n      0x04\n      dup1\n      calldatasize\n      sub\n      dup2\n      add\n      swap1\n      tag_43\n      swap2\n      swap1\n      tag_44\n      jump\t// in\n    tag_43:\n      tag_45\n      jump\t// in\n    tag_42:\n      stop\n        /* \"mainnet/0x8a90CAb2b38dba80c64b7734e58Ee1dB38B8992e/contracts/RawMaterials.sol\":792:941  function SetTradeManagementSC(address _trademgmtsc) external onlyOwner{... */\n    tag_7:\n      tag_46\n      0x04\n      dup1\n      calldatasize\n      sub\n      dup2\n      add\n      swap1\n      tag_47\n      swap2\n      swap1\n      tag_48\n      jump\t// in\n    tag_47:\n      tag_49\n      jump\t// in\n    tag_46:\n      stop\n        /* \"mainnet/0x8a90CAb2b38dba80c64b7734e58Ee1dB38B8992e/@openzeppelin/contracts/token/ERC721/ERC721.sol\":4144:4722  function transferFrom(address from, address to, uint256 tokenId) public virtual {... */\n    tag_8:\n      tag_50\n      0x04\n      dup1\n      calldatasize\n      sub\n      dup2\n      add\n      swap1\n      tag_51\n      swap2\n      swap1\n      tag_52\n      jump\t// in\n    tag_51:\n      tag_53\n      jump\t// in\n    tag_50:\n      stop\n        /* \"mainnet/0x8a90CAb2b38dba80c64b7734e58Ee1dB38B8992e/@openzeppelin/contracts/token/ERC721/ERC721.sol\":4788:4920  function safeTransferFrom(address from, address to, uint256 tokenId) public {... */\n    tag_9:\n      tag_54\n      0x04\n      dup1\n      calldatasize\n      sub\n      dup2\n      add\n      swap1\n      tag_55\n      swap2\n      swap1\n      tag_52\n      jump\t// in\n    tag_55:\n      tag_56\n      jump\t// in\n    tag_54:\n      stop\n        /* \"mainnet/0x8a90CAb2b38dba80c64b7734e58Ee1dB38B8992e/@openzeppelin/contracts/token/ERC721/ERC721.sol\":2186:2304  function ownerOf(uint256 tokenId) public view virtual returns (address) {... */\n    tag_10:\n      tag_57\n      0x04\n      dup1\n      calldatasize\n      sub\n      dup2\n      add\n      swap1\n      tag_58\n      swap2\n      swap1\n      tag_38\n      jump\t// in\n    tag_58:\n      tag_59\n      jump\t// in\n    tag_57:\n      mload(0x40)\n      tag_60\n      swap2\n      swap1\n      tag_41\n      jump\t// in\n    tag_60:\n      mload(0x40)\n      dup1\n      swap2\n      sub\n      swap1\n      return\n        /* \"mainnet/0x8a90CAb2b38dba80c64b7734e58Ee1dB38B8992e/@openzeppelin/contracts/token/ERC721/ERC721.sol\":1921:2129  function balanceOf(address owner) public view virtual returns (uint256) {... */\n    tag_11:\n      tag_61\n      0x04\n      dup1\n      calldatasize\n      sub\n      dup2\n      add\n      swap1\n      tag_62\n      swap2\n      swap1\n      tag_48\n      jump\t// in\n    tag_62:\n      tag_63\n      jump\t// in\n    tag_61:\n      mload(0x40)\n      tag_64\n      swap2\n      swap1\n      tag_65\n      jump\t// in\n    tag_64:\n      mload(0x40)\n      dup1\n      swap2\n      sub\n      swap1\n      return\n        /* \"mainnet/0x8a90CAb2b38dba80c64b7734e58Ee1dB38B8992e/@openzeppelin/contracts/access/Ownable.sol\":2293:2394  function renounceOwnership() public virtual onlyOwner {... */\n    tag_12:\n      tag_66\n      tag_67\n      jump\t// in\n    tag_66:\n      stop\n        /* \"mainnet/0x8a90CAb2b38dba80c64b7734e58Ee1dB38B8992e/@openzeppelin/contracts/access/Ownable.sol\":1638:1723  function owner() public view virtual returns (address) {... */\n    tag_13:\n      tag_68\n      tag_69\n      jump\t// in\n    tag_68:\n      mload(0x40)\n      tag_70\n      swap2\n      swap1\n      tag_41\n      jump\t// in\n    tag_70:\n      mload(0x40)\n      dup1\n      swap2\n      sub\n      swap1\n      return\n        /* \"mainnet/0x8a90CAb2b38dba80c64b7734e58Ee1dB38B8992e/@openzeppelin/contracts/token/ERC721/ERC721.sol\":2519:2612  function symbol() public view virtual returns (string memory) {... */\n    tag_14:\n      tag_71\n      tag_72\n      jump\t// in\n    tag_71:\n      mload(0x40)\n      tag_73\n      swap2\n      swap1\n      tag_35\n      jump\t// in\n    tag_73:\n      mload(0x40)\n      dup1\n      swap2\n      sub\n      swap1\n      return\n        /* \"mainnet/0x8a90CAb2b38dba80c64b7734e58Ee1dB38B8992e/contracts/RawMaterials.sol\":523:548  uint256 public tokenCount */\n    tag_15:\n      tag_74\n      tag_75\n      jump\t// in\n    tag_74:\n      mload(0x40)\n      tag_76\n      swap2\n      swap1\n      tag_65\n      jump\t// in\n    tag_76:\n      mload(0x40)\n      dup1\n      swap2\n      sub\n      swap1\n      return\n        /* \"mainnet/0x8a90CAb2b38dba80c64b7734e58Ee1dB38B8992e/@openzeppelin/contracts/token/ERC721/ERC721.sol\":3719:3863  function setApprovalForAll(address operator, bool approved) public virtual {... */\n    tag_16:\n      tag_77\n      0x04\n      dup1\n      calldatasize\n      sub\n      dup2\n      add\n      swap1\n      tag_78\n      swap2\n      swap1\n      tag_79\n      jump\t// in\n    tag_78:\n      tag_80\n      jump\t// in\n    tag_77:\n      stop\n        /* \"mainnet/0x8a90CAb2b38dba80c64b7734e58Ee1dB38B8992e/@openzeppelin/contracts/token/ERC721/ERC721.sol\":4986:5194  function safeTransferFrom(address from, address to, uint256 tokenId, bytes memory data) public virtual {... */\n    tag_17:\n      tag_81\n      0x04\n      dup1\n      calldatasize\n      sub\n      dup2\n      add\n      swap1\n      tag_82\n      swap2\n      swap1\n      tag_83\n      jump\t// in\n    tag_82:\n      tag_84\n      jump\t// in\n    tag_81:\n      stop\n        /* \"mainnet/0x8a90CAb2b38dba80c64b7734e58Ee1dB38B8992e/@openzeppelin/contracts/token/ERC721/extensions/ERC721URIStorage.sol\":1211:1804  function tokenURI(uint256 tokenId) public view virtual override returns (string memory) {... */\n    tag_18:\n      tag_85\n      0x04\n      dup1\n      calldatasize\n      sub\n      dup2\n      add\n      swap1\n      tag_86\n      swap2\n      swap1\n      tag_38\n      jump\t// in\n    tag_86:\n      tag_87\n      jump\t// in\n    tag_85:\n      mload(0x40)\n      tag_88\n      swap2\n      swap1\n      tag_35\n      jump\t// in\n    tag_88:\n      mload(0x40)\n      dup1\n      swap2\n      sub\n      swap1\n      return\n        /* \"mainnet/0x8a90CAb2b38dba80c64b7734e58Ee1dB38B8992e/contracts/RawMaterials.sol\":1000:1482  function mint(string memory _tokenURI) external returns(uint256){... */\n    tag_19:\n      tag_89\n      0x04\n      dup1\n      calldatasize\n      sub\n      dup2\n      add\n      swap1\n      tag_90\n      swap2\n      swap1\n      tag_91\n      jump\t// in\n    tag_90:\n      tag_92\n      jump\t// in\n    tag_89:\n      mload(0x40)\n      tag_93\n      swap2\n      swap1\n      tag_65\n      jump\t// in\n    tag_93:\n      mload(0x40)\n      dup1\n      swap2\n      sub\n      swap1\n      return\n        /* \"mainnet/0x8a90CAb2b38dba80c64b7734e58Ee1dB38B8992e/@openzeppelin/contracts/token/ERC721/ERC721.sol\":3929:4082  function isApprovedForAll(address owner, address operator) public view virtual returns (bool) {... */\n    tag_20:\n      tag_94\n      0x04\n      dup1\n      calldatasize\n      sub\n      dup2\n      add\n      swap1\n      tag_95\n      swap2\n      swap1\n      tag_96\n      jump\t// in\n    tag_95:\n      tag_97\n      jump\t// in\n    tag_94:\n      mload(0x40)\n      tag_98\n      swap2\n      swap1\n      tag_31\n      jump\t// in\n    tag_98:\n      mload(0x40)\n      dup1\n      swap2\n      sub\n      swap1\n      return\n        /* \"mainnet/0x8a90CAb2b38dba80c64b7734e58Ee1dB38B8992e/contracts/RawMaterials.sol\":597:648  ITradeManagementRawMaterials public TradeManagement */\n    tag_21:\n      tag_99\n      tag_100\n      jump\t// in\n    tag_99:\n      mload(0x40)\n      tag_101\n      swap2\n      swap1\n      tag_102\n      jump\t// in\n    tag_101:\n      mload(0x40)\n      dup1\n      swap2\n      sub\n      swap1\n      return\n        /* \"mainnet/0x8a90CAb2b38dba80c64b7734e58Ee1dB38B8992e/@openzeppelin/contracts/access/Ownable.sol\":2543:2758  function transferOwnership(address newOwner) public virtual onlyOwner {... */\n    tag_22:\n      tag_103\n      0x04\n      dup1\n      calldatasize\n      sub\n      dup2\n      add\n      swap1\n      tag_104\n      swap2\n      swap1\n      tag_48\n      jump\t// in\n    tag_104:\n      tag_105\n      jump\t// in\n    tag_103:\n      stop\n        /* \"mainnet/0x8a90CAb2b38dba80c64b7734e58Ee1dB38B8992e/@openzeppelin/contracts/token/ERC721/extensions/ERC721URIStorage.sol\":938:1145  function supportsInterface(bytes4 interfaceId) public view virtual override(ERC721, IERC165) returns (bool) {... */\n    tag_29:\n        /* \"mainnet/0x8a90CAb2b38dba80c64b7734e58Ee1dB38B8992e/@openzeppelin/contracts/token/ERC721/extensions/ERC721URIStorage.sol\":1040:1044  bool */\n      0x00\n        /* \"mainnet/0x8a90CAb2b38dba80c64b7734e58Ee1dB38B8992e/@openzeppelin/contracts/token/ERC721/extensions/ERC721URIStorage.sol\":761:771  0x49064906 */\n      0x49064906\n        /* \"mainnet/0x8a90CAb2b38dba80c64b7734e58Ee1dB38B8992e/@openzeppelin/contracts/token/ERC721/extensions/ERC721URIStorage.sol\":754:772  bytes4(0x49064906) */\n      0xe0\n      shl\n        /* \"mainnet/0x8a90CAb2b38dba80c64b7734e58Ee1dB38B8992e/@openzeppelin/contracts/token/ERC721/extensions/ERC721URIStorage.sol\":1063:1098  interfaceId == ERC4906_INTERFACE_ID */\n      not(0xffffffffffffffffffffffffffffffffffffffffffffffffffffffff)\n      and\n        /* \"mainnet/0x8a90CAb2b38dba80c64b7734e58Ee1dB38B8992e/@openzeppelin/contracts/token/ERC721/extensions/ERC721URIStorage.sol\":1063:1074  interfaceId */\n      dup3\n        /* \"mainnet/0x8a90CAb2b38dba80c64b7734e58Ee1dB38B8992e/@openzeppelin/contracts/token/ERC721/extensions/ERC721URIStorage.sol\":1063:1098  interfaceId == ERC4906_INTERFACE_ID */\n      not(0xffffffffffffffffffffffffffffffffffffffffffffffffffffffff)\n      and\n      eq\n        /* \"mainnet/0x8a90CAb2b38dba80c64b7734e58Ee1dB38B8992e/@openzeppelin/contracts/token/ERC721/extensions/ERC721URIStorage.sol\":1063:1138  interfaceId == ERC4906_INTERFACE_ID || super.supportsInterface(interfaceId) */\n      dup1\n      tag_107\n      jumpi\n      pop\n        /* \"mainnet/0x8a90CAb2b38dba80c64b7734e58Ee1dB38B8992e/@openzeppelin/contracts/token/ERC721/extensions/ERC721URIStorage.sol\":1102:1138  super.supportsInterface(interfaceId) */\n      tag_108\n        /* \"mainnet/0x8a90CAb2b38dba80c64b7734e58Ee1dB38B8992e/@openzeppelin/contracts/token/ERC721/extensions/ERC721URIStorage.sol\":1126:1137  interfaceId */\n      dup3\n        /* \"mainnet/0x8a90CAb2b38dba80c64b7734e58Ee1dB38B8992e/@openzeppelin/contracts/token/ERC721/extensions/ERC721URIStorage.sol\":1102:1125  super.supportsInterface */\n      tag_109\n        /* \"mainnet/0x8a90CAb2b38dba80c64b7734e58Ee1dB38B8992e/@openzeppelin/contracts/token/ERC721/extensions/ERC721URIStorage.sol\":1102:1138  super.supportsInterface(interfaceId) */\n      jump\t// in\n    tag_108:\n        /* \"mainnet/0x8a90CAb2b38dba80c64b7734e58Ee1dB38B8992e/@openzeppelin/contracts/token/ERC721/extensions/ERC721URIStorage.sol\":1063:1138  interfaceId == ERC4906_INTERFACE_ID || super.supportsInterface(interfaceId) */\n    tag_107:\n        /* \"mainnet/0x8a90CAb2b38dba80c64b7734e58Ee1dB38B8992e/@openzeppelin/contracts/token/ERC721/extensions/ERC721URIStorage.sol\":1056:1138  return interfaceId == ERC4906_INTERFACE_ID || super.supportsInterface(interfaceId) */\n      swap1\n      pop\n        /* \"mainnet/0x8a90CAb2b38dba80c64b7734e58Ee1dB38B8992e/@openzeppelin/contracts/token/ERC721/extensions/ERC721URIStorage.sol\":938:1145  function supportsInterface(bytes4 interfaceId) public view virtual override(ERC721, IERC165) returns (bool) {... */\n      swap2\n      swap1\n      pop\n      jump\t// out\n        /* \"mainnet/0x8a90CAb2b38dba80c64b7734e58Ee1dB38B8992e/@openzeppelin/contracts/token/ERC721/ERC721.sol\":2366:2455  function name() public view virtual returns (string memory) {... */\n    tag_33:\n        /* \"mainnet/0x8a90CAb2b38dba80c64b7734e58Ee1dB38B8992e/@openzeppelin/contracts/token/ERC721/ERC721.sol\":2411:2424  string memory */\n      0x60\n        /* \"mainnet/0x8a90CAb2b38dba80c64b7734e58Ee1dB38B8992e/@openzeppelin/contracts/token/ERC721/ERC721.sol\":2443:2448  _name */\n      0x00\n        /* \"mainnet/0x8a90CAb2b38dba80c64b7734e58Ee1dB38B8992e/@openzeppelin/contracts/token/ERC721/ERC721.sol\":2436:2448  return _name */\n      dup1\n      sload\n      tag_111\n      swap1\n      tag_112\n      jump\t// in\n    tag_111:\n      dup1\n      0x1f\n      add\n      0x20\n      dup1\n      swap2\n      div\n      mul\n      0x20\n      add\n      mload(0x40)\n      swap1\n      dup2\n      add\n      0x40\n      mstore\n      dup1\n      swap3\n      swap2\n      swap1\n      dup2\n      dup2\n      mstore\n      0x20\n      add\n      dup3\n      dup1\n      sload\n      tag_113\n      swap1\n      tag_112\n      jump\t// in\n    tag_113:\n      dup1\n      iszero\n      tag_114\n      jumpi\n      dup1\n      0x1f\n      lt\n      tag_115\n      jumpi\n      0x0100\n      dup1\n      dup4\n      sload\n      div\n      mul\n      dup4\n      mstore\n      swap2\n      0x20\n      add\n      swap2\n      jump(tag_114)\n    tag_115:\n      dup3\n      add\n      swap2\n      swap1\n      0x00\n      mstore\n      keccak256(0x00, 0x20)\n      swap1\n    tag_116:\n      dup2\n      sload\n      dup2\n      mstore\n      swap1\n      0x01\n      add\n      swap1\n      0x20\n      add\n      dup1\n      dup4\n      gt\n      tag_116\n      jumpi\n      dup3\n      swap1\n      sub\n      0x1f\n      and\n      dup3\n      add\n      swap2\n    tag_114:\n      pop\n      pop\n      pop\n      pop\n      pop\n      swap1\n      pop\n        /* \"mainnet/0x8a90CAb2b38dba80c64b7734e58Ee1dB38B8992e/@openzeppelin/contracts/token/ERC721/ERC721.sol\":2366:2455  function name() public view virtual returns (string memory) {... */\n      swap1\n      jump\t// out\n        /* \"mainnet/0x8a90CAb2b38dba80c64b7734e58Ee1dB38B8992e/@openzeppelin/contracts/token/ERC721/ERC721.sol\":3498:3652  function getApproved(uint256 tokenId) public view virtual returns (address) {... */\n    tag_39:\n        /* \"mainnet/0x8a90CAb2b38dba80c64b7734e58Ee1dB38B8992e/@openzeppelin/contracts/token/ERC721/ERC721.sol\":3565:3572  address */\n      0x00\n        /* \"mainnet/0x8a90CAb2b38dba80c64b7734e58Ee1dB38B8992e/@openzeppelin/contracts/token/ERC721/ERC721.sol\":3584:3606  _requireOwned(tokenId) */\n      tag_118\n        /* \"mainnet/0x8a90CAb2b38dba80c64b7734e58Ee1dB38B8992e/@openzeppelin/contracts/token/ERC721/ERC721.sol\":3598:3605  tokenId */\n      dup3\n        /* \"mainnet/0x8a90CAb2b38dba80c64b7734e58Ee1dB38B8992e/@openzeppelin/contracts/token/ERC721/ERC721.sol\":3584:3597  _requireOwned */\n      tag_119\n        /* \"mainnet/0x8a90CAb2b38dba80c64b7734e58Ee1dB38B8992e/@openzeppelin/contracts/token/ERC721/ERC721.sol\":3584:3606  _requireOwned(tokenId) */\n      jump\t// in\n    tag_118:\n      pop\n        /* \"mainnet/0x8a90CAb2b38dba80c64b7734e58Ee1dB38B8992e/@openzeppelin/contracts/token/ERC721/ERC721.sol\":3624:3645  _getApproved(tokenId) */\n      tag_120\n        /* \"mainnet/0x8a90CAb2b38dba80c64b7734e58Ee1dB38B8992e/@openzeppelin/contracts/token/ERC721/ERC721.sol\":3637:3644  tokenId */\n      dup3\n        /* \"mainnet/0x8a90CAb2b38dba80c64b7734e58Ee1dB38B8992e/@openzeppelin/contracts/token/ERC721/ERC721.sol\":3624:3636  _getApproved */\n      tag_121\n        /* \"mainnet/0x8a90CAb2b38dba80c64b7734e58Ee1dB38B8992e/@openzeppelin/contracts/token/ERC721/ERC721.sol\":3624:3645  _getApproved(tokenId) */\n      jump\t// in\n    tag_120:\n        /* \"mainnet/0x8a90CAb2b38dba80c64b7734e58Ee1dB38B8992e/@openzeppelin/contracts/token/ERC721/ERC721.sol\":3617:3645  return _getApproved(tokenId) */\n      swap1\n      pop\n        /* \"mainnet/0x8a90CAb2b38dba80c64b7734e58Ee1dB38B8992e/@openzeppelin/contracts/token/ERC721/ERC721.sol\":3498:3652  function getApproved(uint256 tokenId) public view virtual returns (address) {... */\n      swap2\n      swap1\n      pop\n      jump\t// out\n        /* \"mainnet/0x8a90CAb2b38dba80c64b7734e58Ee1dB38B8992e/@openzeppelin/contracts/token/ERC721/ERC721.sol\":3324:3437  function approve(address to, uint256 tokenId) public virtual {... */\n    tag_45:\n        /* \"mainnet/0x8a90CAb2b38dba80c64b7734e58Ee1dB38B8992e/@openzeppelin/contracts/token/ERC721/ERC721.sol\":3395:3430  _approve(to, tokenId, _msgSender()) */\n      tag_123\n        /* \"mainnet/0x8a90CAb2b38dba80c64b7734e58Ee1dB38B8992e/@openzeppelin/contracts/token/ERC721/ERC721.sol\":3404:3406  to */\n      dup3\n        /* \"mainnet/0x8a90CAb2b38dba80c64b7734e58Ee1dB38B8992e/@openzeppelin/contracts/token/ERC721/ERC721.sol\":3408:3415  tokenId */\n      dup3\n        /* \"mainnet/0x8a90CAb2b38dba80c64b7734e58Ee1dB38B8992e/@openzeppelin/contracts/token/ERC721/ERC721.sol\":3417:3429  _msgSender() */\n      tag_124\n        /* \"mainnet/0x8a90CAb2b38dba80c64b7734e58Ee1dB38B8992e/@openzeppelin/contracts/token/ERC721/ERC721.sol\":3417:3427  _msgSender */\n      tag_125\n        /* \"mainnet/0x8a90CAb2b38dba80c64b7734e58Ee1dB38B8992e/@openzeppelin/contracts/token/ERC721/ERC721.sol\":3417:3429  _msgSender() */\n      jump\t// in\n    tag_124:\n        /* \"mainnet/0x8a90CAb2b38dba80c64b7734e58Ee1dB38B8992e/@openzeppelin/contracts/token/ERC721/ERC721.sol\":3395:3403  _approve */\n      tag_126\n        /* \"mainnet/0x8a90CAb2b38dba80c64b7734e58Ee1dB38B8992e/@openzeppelin/contracts/token/ERC721/ERC721.sol\":3395:3430  _approve(to, tokenId, _msgSender()) */\n      jump\t// in\n    tag_123:\n        /* \"mainnet/0x8a90CAb2b38dba80c64b7734e58Ee1dB38B8992e/@openzeppelin/contracts/token/ERC721/ERC721.sol\":3324:3437  function approve(address to, uint256 tokenId) public virtual {... */\n      pop\n      pop\n      jump\t// out\n        /* \"mainnet/0x8a90CAb2b38dba80c64b7734e58Ee1dB38B8992e/contracts/RawMaterials.sol\":792:941  function SetTradeManagementSC(address _trademgmtsc) external onlyOwner{... */\n    tag_49:\n        /* \"mainnet/0x8a90CAb2b38dba80c64b7734e58Ee1dB38B8992e/@openzeppelin/contracts/access/Ownable.sol\":1531:1544  _checkOwner() */\n      tag_128\n        /* \"mainnet/0x8a90CAb2b38dba80c64b7734e58Ee1dB38B8992e/@openzeppelin/contracts/access/Ownable.sol\":1531:1542  _checkOwner */\n      tag_129\n        /* \"mainnet/0x8a90CAb2b38dba80c64b7734e58Ee1dB38B8992e/@openzeppelin/contracts/access/Ownable.sol\":1531:1544  _checkOwner() */\n      jump\t// in\n    tag_128:\n        /* \"mainnet/0x8a90CAb2b38dba80c64b7734e58Ee1dB38B8992e/contracts/RawMaterials.sol\":920:932  _trademgmtsc */\n      dup1\n        /* \"mainnet/0x8a90CAb2b38dba80c64b7734e58Ee1dB38B8992e/contracts/RawMaterials.sol\":873:888  TradeManagement */\n      0x09\n      0x00\n        /* \"mainnet/0x8a90CAb2b38dba80c64b7734e58Ee1dB38B8992e/contracts/RawMaterials.sol\":873:933  TradeManagement = ITradeManagementRawMaterials(_trademgmtsc) */\n      0x0100\n      exp\n      dup2\n      sload\n      dup2\n      0xffffffffffffffffffffffffffffffffffffffff\n      mul\n      not\n      and\n      swap1\n      dup4\n      0xffffffffffffffffffffffffffffffffffffffff\n      and\n      mul\n      or\n      swap1\n      sstore\n      pop\n        /* \"mainnet/0x8a90CAb2b38dba80c64b7734e58Ee1dB38B8992e/contracts/RawMaterials.sol\":792:941  function SetTradeManagementSC(address _trademgmtsc) external onlyOwner{... */\n      pop\n      jump\t// out\n        /* \"mainnet/0x8a90CAb2b38dba80c64b7734e58Ee1dB38B8992e/@openzeppelin/contracts/token/ERC721/ERC721.sol\":4144:4722  function transferFrom(address from, address to, uint256 tokenId) public virtual {... */\n    tag_53:\n        /* \"mainnet/0x8a90CAb2b38dba80c64b7734e58Ee1dB38B8992e/@openzeppelin/contracts/token/ERC721/ERC721.sol\":4252:4253  0 */\n      0x00\n        /* \"mainnet/0x8a90CAb2b38dba80c64b7734e58Ee1dB38B8992e/@openzeppelin/contracts/token/ERC721/ERC721.sol\":4238:4254  to == address(0) */\n      0xffffffffffffffffffffffffffffffffffffffff\n      and\n        /* \"mainnet/0x8a90CAb2b38dba80c64b7734e58Ee1dB38B8992e/@openzeppelin/contracts/token/ERC721/ERC721.sol\":4238:4240  to */\n      dup3\n        /* \"mainnet/0x8a90CAb2b38dba80c64b7734e58Ee1dB38B8992e/@openzeppelin/contracts/token/ERC721/ERC721.sol\":4238:4254  to == address(0) */\n      0xffffffffffffffffffffffffffffffffffffffff\n      and\n      sub\n        /* \"mainnet/0x8a90CAb2b38dba80c64b7734e58Ee1dB38B8992e/@openzeppelin/contracts/token/ERC721/ERC721.sol\":4234:4321  if (to == address(0)) {... */\n      tag_132\n      jumpi\n        /* \"mainnet/0x8a90CAb2b38dba80c64b7734e58Ee1dB38B8992e/@openzeppelin/contracts/token/ERC721/ERC721.sol\":4307:4308  0 */\n      0x00\n        /* \"mainnet/0x8a90CAb2b38dba80c64b7734e58Ee1dB38B8992e/@openzeppelin/contracts/token/ERC721/ERC721.sol\":4277:4310  ERC721InvalidReceiver(address(0)) */\n      mload(0x40)\n      0x64a0ae9200000000000000000000000000000000000000000000000000000000\n      dup2\n      mstore\n      0x04\n      add\n      tag_133\n      swap2\n      swap1\n      tag_41\n      jump\t// in\n    tag_133:\n      mload(0x40)\n      dup1\n      swap2\n      sub\n      swap1\n      revert\n        /* \"mainnet/0x8a90CAb2b38dba80c64b7734e58Ee1dB38B8992e/@openzeppelin/contracts/token/ERC721/ERC721.sol\":4234:4321  if (to == address(0)) {... */\n    tag_132:\n        /* \"mainnet/0x8a90CAb2b38dba80c64b7734e58Ee1dB38B8992e/@openzeppelin/contracts/token/ERC721/ERC721.sol\":4539:4560  address previousOwner */\n      0x00\n        /* \"mainnet/0x8a90CAb2b38dba80c64b7734e58Ee1dB38B8992e/@openzeppelin/contracts/token/ERC721/ERC721.sol\":4563:4597  _update(to, tokenId, _msgSender()) */\n      tag_134\n        /* \"mainnet/0x8a90CAb2b38dba80c64b7734e58Ee1dB38B8992e/@openzeppelin/contracts/token/ERC721/ERC721.sol\":4571:4573  to */\n      dup4\n        /* \"mainnet/0x8a90CAb2b38dba80c64b7734e58Ee1dB38B8992e/@openzeppelin/contracts/token/ERC721/ERC721.sol\":4575:4582  tokenId */\n      dup4\n        /* \"mainnet/0x8a90CAb2b38dba80c64b7734e58Ee1dB38B8992e/@openzeppelin/contracts/token/ERC721/ERC721.sol\":4584:4596  _msgSender() */\n      tag_135\n        /* \"mainnet/0x8a90CAb2b38dba80c64b7734e58Ee1dB38B8992e/@openzeppelin/contracts/token/ERC721/ERC721.sol\":4584:4594  _msgSender */\n      tag_125\n        /* \"mainnet/0x8a90CAb2b38dba80c64b7734e58Ee1dB38B8992e/@openzeppelin/contracts/token/ERC721/ERC721.sol\":4584:4596  _msgSender() */\n      jump\t// in\n    tag_135:\n        /* \"mainnet/0x8a90CAb2b38dba80c64b7734e58Ee1dB38B8992e/@openzeppelin/contracts/token/ERC721/ERC721.sol\":4563:4570  _update */\n      tag_136\n        /* \"mainnet/0x8a90CAb2b38dba80c64b7734e58Ee1dB38B8992e/@openzeppelin/contracts/token/ERC721/ERC721.sol\":4563:4597  _update(to, tokenId, _msgSender()) */\n      jump\t// in\n    tag_134:\n        /* \"mainnet/0x8a90CAb2b38dba80c64b7734e58Ee1dB38B8992e/@openzeppelin/contracts/token/ERC721/ERC721.sol\":4539:4597  address previousOwner = _update(to, tokenId, _msgSender()) */\n      swap1\n      pop\n        /* \"mainnet/0x8a90CAb2b38dba80c64b7734e58Ee1dB38B8992e/@openzeppelin/contracts/token/ERC721/ERC721.sol\":4628:4632  from */\n      dup4\n        /* \"mainnet/0x8a90CAb2b38dba80c64b7734e58Ee1dB38B8992e/@openzeppelin/contracts/token/ERC721/ERC721.sol\":4611:4632  previousOwner != from */\n      0xffffffffffffffffffffffffffffffffffffffff\n      and\n        /* \"mainnet/0x8a90CAb2b38dba80c64b7734e58Ee1dB38B8992e/@openzeppelin/contracts/token/ERC721/ERC721.sol\":4611:4624  previousOwner */\n      dup2\n        /* \"mainnet/0x8a90CAb2b38dba80c64b7734e58Ee1dB38B8992e/@openzeppelin/contracts/token/ERC721/ERC721.sol\":4611:4632  previousOwner != from */\n      0xffffffffffffffffffffffffffffffffffffffff\n      and\n      eq\n        /* \"mainnet/0x8a90CAb2b38dba80c64b7734e58Ee1dB38B8992e/@openzeppelin/contracts/token/ERC721/ERC721.sol\":4607:4716  if (previousOwner != from) {... */\n      tag_137\n      jumpi\n        /* \"mainnet/0x8a90CAb2b38dba80c64b7734e58Ee1dB38B8992e/@openzeppelin/contracts/token/ERC721/ERC721.sol\":4676:4680  from */\n      dup4\n        /* \"mainnet/0x8a90CAb2b38dba80c64b7734e58Ee1dB38B8992e/@openzeppelin/contracts/token/ERC721/ERC721.sol\":4682:4689  tokenId */\n      dup3\n        /* \"mainnet/0x8a90CAb2b38dba80c64b7734e58Ee1dB38B8992e/@openzeppelin/contracts/token/ERC721/ERC721.sol\":4691:4704  previousOwner */\n      dup3\n        /* \"mainnet/0x8a90CAb2b38dba80c64b7734e58Ee1dB38B8992e/@openzeppelin/contracts/token/ERC721/ERC721.sol\":4655:4705  ERC721IncorrectOwner(from, tokenId, previousOwner) */\n      mload(0x40)\n      0x64283d7b00000000000000000000000000000000000000000000000000000000\n      dup2\n      mstore\n      0x04\n      add\n      tag_138\n      swap4\n      swap3\n      swap2\n      swap1\n      tag_139\n      jump\t// in\n    tag_138:\n      mload(0x40)\n      dup1\n      swap2\n      sub\n      swap1\n      revert\n        /* \"mainnet/0x8a90CAb2b38dba80c64b7734e58Ee1dB38B8992e/@openzeppelin/contracts/token/ERC721/ERC721.sol\":4607:4716  if (previousOwner != from) {... */\n    tag_137:\n        /* \"mainnet/0x8a90CAb2b38dba80c64b7734e58Ee1dB38B8992e/@openzeppelin/contracts/token/ERC721/ERC721.sol\":4224:4722  {... */\n      pop\n        /* \"mainnet/0x8a90CAb2b38dba80c64b7734e58Ee1dB38B8992e/@openzeppelin/contracts/token/ERC721/ERC721.sol\":4144:4722  function transferFrom(address from, address to, uint256 tokenId) public virtual {... */\n      pop\n      pop\n      pop\n      jump\t// out\n        /* \"mainnet/0x8a90CAb2b38dba80c64b7734e58Ee1dB38B8992e/@openzeppelin/contracts/token/ERC721/ERC721.sol\":4788:4920  function safeTransferFrom(address from, address to, uint256 tokenId) public {... */\n    tag_56:\n        /* \"mainnet/0x8a90CAb2b38dba80c64b7734e58Ee1dB38B8992e/@openzeppelin/contracts/token/ERC721/ERC721.sol\":4874:4913  safeTransferFrom(from, to, tokenId, \"\") */\n      tag_141\n        /* \"mainnet/0x8a90CAb2b38dba80c64b7734e58Ee1dB38B8992e/@openzeppelin/contracts/token/ERC721/ERC721.sol\":4891:4895  from */\n      dup4\n        /* \"mainnet/0x8a90CAb2b38dba80c64b7734e58Ee1dB38B8992e/@openzeppelin/contracts/token/ERC721/ERC721.sol\":4897:4899  to */\n      dup4\n        /* \"mainnet/0x8a90CAb2b38dba80c64b7734e58Ee1dB38B8992e/@openzeppelin/contracts/token/ERC721/ERC721.sol\":4901:4908  tokenId */\n      dup4\n        /* \"mainnet/0x8a90CAb2b38dba80c64b7734e58Ee1dB38B8992e/@openzeppelin/contracts/token/ERC721/ERC721.sol\":4874:4913  safeTransferFrom(from, to, tokenId, \"\") */\n      mload(0x40)\n      dup1\n      0x20\n      add\n      0x40\n      mstore\n      dup1\n      0x00\n      dup2\n      mstore\n      pop\n        /* \"mainnet/0x8a90CAb2b38dba80c64b7734e58Ee1dB38B8992e/@openzeppelin/contracts/token/ERC721/ERC721.sol\":4874:4890  safeTransferFrom */\n      tag_84\n        /* \"mainnet/0x8a90CAb2b38dba80c64b7734e58Ee1dB38B8992e/@openzeppelin/contracts/token/ERC721/ERC721.sol\":4874:4913  safeTransferFrom(from, to, tokenId, \"\") */\n      jump\t// in\n    tag_141:\n        /* \"mainnet/0x8a90CAb2b38dba80c64b7734e58Ee1dB38B8992e/@openzeppelin/contracts/token/ERC721/ERC721.sol\":4788:4920  function safeTransferFrom(address from, address to, uint256 tokenId) public {... */\n      pop\n      pop\n      pop\n      jump\t// out\n        /* \"mainnet/0x8a90CAb2b38dba80c64b7734e58Ee1dB38B8992e/@openzeppelin/contracts/token/ERC721/ERC721.sol\":2186:2304  function ownerOf(uint256 tokenId) public view virtual returns (address) {... */\n    tag_59:\n        /* \"mainnet/0x8a90CAb2b38dba80c64b7734e58Ee1dB38B8992e/@openzeppelin/contracts/token/ERC721/ERC721.sol\":2249:2256  address */\n      0x00\n        /* \"mainnet/0x8a90CAb2b38dba80c64b7734e58Ee1dB38B8992e/@openzeppelin/contracts/token/ERC721/ERC721.sol\":2275:2297  _requireOwned(tokenId) */\n      tag_143\n        /* \"mainnet/0x8a90CAb2b38dba80c64b7734e58Ee1dB38B8992e/@openzeppelin/contracts/token/ERC721/ERC721.sol\":2289:2296  tokenId */\n      dup3\n        /* \"mainnet/0x8a90CAb2b38dba80c64b7734e58Ee1dB38B8992e/@openzeppelin/contracts/token/ERC721/ERC721.sol\":2275:2288  _requireOwned */\n      tag_119\n        /* \"mainnet/0x8a90CAb2b38dba80c64b7734e58Ee1dB38B8992e/@openzeppelin/contracts/token/ERC721/ERC721.sol\":2275:2297  _requireOwned(tokenId) */\n      jump\t// in\n    tag_143:\n        /* \"mainnet/0x8a90CAb2b38dba80c64b7734e58Ee1dB38B8992e/@openzeppelin/contracts/token/ERC721/ERC721.sol\":2268:2297  return _requireOwned(tokenId) */\n      swap1\n      pop\n        /* \"mainnet/0x8a90CAb2b38dba80c64b7734e58Ee1dB38B8992e/@openzeppelin/contracts/token/ERC721/ERC721.sol\":2186:2304  function ownerOf(uint256 tokenId) public view virtual returns (address) {... */\n      swap2\n      swap1\n      pop\n      jump\t// out\n        /* \"mainnet/0x8a90CAb2b38dba80c64b7734e58Ee1dB38B8992e/@openzeppelin/contracts/token/ERC721/ERC721.sol\":1921:2129  function balanceOf(address owner) public view virtual returns (uint256) {... */\n    tag_63:\n        /* \"mainnet/0x8a90CAb2b38dba80c64b7734e58Ee1dB38B8992e/@openzeppelin/contracts/token/ERC721/ERC721.sol\":1984:1991  uint256 */\n      0x00\n        /* \"mainnet/0x8a90CAb2b38dba80c64b7734e58Ee1dB38B8992e/@openzeppelin/contracts/token/ERC721/ERC721.sol\":2024:2025  0 */\n      dup1\n        /* \"mainnet/0x8a90CAb2b38dba80c64b7734e58Ee1dB38B8992e/@openzeppelin/contracts/token/ERC721/ERC721.sol\":2007:2026  owner == address(0) */\n      0xffffffffffffffffffffffffffffffffffffffff\n      and\n        /* \"mainnet/0x8a90CAb2b38dba80c64b7734e58Ee1dB38B8992e/@openzeppelin/contracts/token/ERC721/ERC721.sol\":2007:2012  owner */\n      dup3\n        /* \"mainnet/0x8a90CAb2b38dba80c64b7734e58Ee1dB38B8992e/@openzeppelin/contracts/token/ERC721/ERC721.sol\":2007:2026  owner == address(0) */\n      0xffffffffffffffffffffffffffffffffffffffff\n      and\n      sub\n        /* \"mainnet/0x8a90CAb2b38dba80c64b7734e58Ee1dB38B8992e/@openzeppelin/contracts/token/ERC721/ERC721.sol\":2003:2090  if (owner == address(0)) {... */\n      tag_145\n      jumpi\n        /* \"mainnet/0x8a90CAb2b38dba80c64b7734e58Ee1dB38B8992e/@openzeppelin/contracts/token/ERC721/ERC721.sol\":2076:2077  0 */\n      0x00\n        /* \"mainnet/0x8a90CAb2b38dba80c64b7734e58Ee1dB38B8992e/@openzeppelin/contracts/token/ERC721/ERC721.sol\":2049:2079  ERC721InvalidOwner(address(0)) */\n      mload(0x40)\n      0x89c62b6400000000000000000000000000000000000000000000000000000000\n      dup2\n      mstore\n      0x04\n      add\n      tag_146\n      swap2\n      swap1\n      tag_41\n      jump\t// in\n    tag_146:\n      mload(0x40)\n      dup1\n      swap2\n      sub\n      swap1\n      revert\n        /* \"mainnet/0x8a90CAb2b38dba80c64b7734e58Ee1dB38B8992e/@openzeppelin/contracts/token/ERC721/ERC721.sol\":2003:2090  if (owner == address(0)) {... */\n    tag_145:\n        /* \"mainnet/0x8a90CAb2b38dba80c64b7734e58Ee1dB38B8992e/@openzeppelin/contracts/token/ERC721/ERC721.sol\":2106:2115  _balances */\n      0x03\n        /* \"mainnet/0x8a90CAb2b38dba80c64b7734e58Ee1dB38B8992e/@openzeppelin/contracts/token/ERC721/ERC721.sol\":2106:2122  _balances[owner] */\n      0x00\n        /* \"mainnet/0x8a90CAb2b38dba80c64b7734e58Ee1dB38B8992e/@openzeppelin/contracts/token/ERC721/ERC721.sol\":2116:2121  owner */\n      dup4\n        /* \"mainnet/0x8a90CAb2b38dba80c64b7734e58Ee1dB38B8992e/@openzeppelin/contracts/token/ERC721/ERC721.sol\":2106:2122  _balances[owner] */\n      0xffffffffffffffffffffffffffffffffffffffff\n      and\n      0xffffffffffffffffffffffffffffffffffffffff\n      and\n      dup2\n      mstore\n      0x20\n      add\n      swap1\n      dup2\n      mstore\n      0x20\n      add\n      0x00\n      keccak256\n      sload\n        /* \"mainnet/0x8a90CAb2b38dba80c64b7734e58Ee1dB38B8992e/@openzeppelin/contracts/token/ERC721/ERC721.sol\":2099:2122  return _balances[owner] */\n      swap1\n      pop\n        /* \"mainnet/0x8a90CAb2b38dba80c64b7734e58Ee1dB38B8992e/@openzeppelin/contracts/token/ERC721/ERC721.sol\":1921:2129  function balanceOf(address owner) public view virtual returns (uint256) {... */\n      swap2\n      swap1\n      pop\n      jump\t// out\n        /* \"mainnet/0x8a90CAb2b38dba80c64b7734e58Ee1dB38B8992e/@openzeppelin/contracts/access/Ownable.sol\":2293:2394  function renounceOwnership() public virtual onlyOwner {... */\n    tag_67:\n        /* \"mainnet/0x8a90CAb2b38dba80c64b7734e58Ee1dB38B8992e/@openzeppelin/contracts/access/Ownable.sol\":1531:1544  _checkOwner() */\n      tag_148\n        /* \"mainnet/0x8a90CAb2b38dba80c64b7734e58Ee1dB38B8992e/@openzeppelin/contracts/access/Ownable.sol\":1531:1542  _checkOwner */\n      tag_129\n        /* \"mainnet/0x8a90CAb2b38dba80c64b7734e58Ee1dB38B8992e/@openzeppelin/contracts/access/Ownable.sol\":1531:1544  _checkOwner() */\n      jump\t// in\n    tag_148:\n        /* \"mainnet/0x8a90CAb2b38dba80c64b7734e58Ee1dB38B8992e/@openzeppelin/contracts/access/Ownable.sol\":2357:2387  _transferOwnership(address(0)) */\n      tag_150\n        /* \"mainnet/0x8a90CAb2b38dba80c64b7734e58Ee1dB38B8992e/@openzeppelin/contracts/access/Ownable.sol\":2384:2385  0 */\n      0x00\n        /* \"mainnet/0x8a90CAb2b38dba80c64b7734e58Ee1dB38B8992e/@openzeppelin/contracts/access/Ownable.sol\":2357:2375  _transferOwnership */\n      tag_151\n        /* \"mainnet/0x8a90CAb2b38dba80c64b7734e58Ee1dB38B8992e/@openzeppelin/contracts/access/Ownable.sol\":2357:2387  _transferOwnership(address(0)) */\n      jump\t// in\n    tag_150:\n        /* \"mainnet/0x8a90CAb2b38dba80c64b7734e58Ee1dB38B8992e/@openzeppelin/contracts/access/Ownable.sol\":2293:2394  function renounceOwnership() public virtual onlyOwner {... */\n      jump\t// out\n        /* \"mainnet/0x8a90CAb2b38dba80c64b7734e58Ee1dB38B8992e/@openzeppelin/contracts/access/Ownable.sol\":1638:1723  function owner() public view virtual returns (address) {... */\n    tag_69:\n        /* \"mainnet/0x8a90CAb2b38dba80c64b7734e58Ee1dB38B8992e/@openzeppelin/contracts/access/Ownable.sol\":1684:1691  address */\n      0x00\n        /* \"mainnet/0x8a90CAb2b38dba80c64b7734e58Ee1dB38B8992e/@openzeppelin/contracts/access/Ownable.sol\":1710:1716  _owner */\n      0x07\n      0x00\n      swap1\n      sload\n      swap1\n      0x0100\n      exp\n      swap1\n      div\n      0xffffffffffffffffffffffffffffffffffffffff\n      and\n        /* \"mainnet/0x8a90CAb2b38dba80c64b7734e58Ee1dB38B8992e/@openzeppelin/contracts/access/Ownable.sol\":1703:1716  return _owner */\n      swap1\n      pop\n        /* \"mainnet/0x8a90CAb2b38dba80c64b7734e58Ee1dB38B8992e/@openzeppelin/contracts/access/Ownable.sol\":1638:1723  function owner() public view virtual returns (address) {... */\n      swap1\n      jump\t// out\n        /* \"mainnet/0x8a90CAb2b38dba80c64b7734e58Ee1dB38B8992e/@openzeppelin/contracts/token/ERC721/ERC721.sol\":2519:2612  function symbol() public view virtual returns (string memory) {... */\n    tag_72:\n        /* \"mainnet/0x8a90CAb2b38dba80c64b7734e58Ee1dB38B8992e/@openzeppelin/contracts/token/ERC721/ERC721.sol\":2566:2579  string memory */\n      0x60\n        /* \"mainnet/0x8a90CAb2b38dba80c64b7734e58Ee1dB38B8992e/@openzeppelin/contracts/token/ERC721/ERC721.sol\":2598:2605  _symbol */\n      0x01\n        /* \"mainnet/0x8a90CAb2b38dba80c64b7734e58Ee1dB38B8992e/@openzeppelin/contracts/token/ERC721/ERC721.sol\":2591:2605  return _symbol */\n      dup1\n      sload\n      tag_154\n      swap1\n      tag_112\n      jump\t// in\n    tag_154:\n      dup1\n      0x1f\n      add\n      0x20\n      dup1\n      swap2\n      div\n      mul\n      0x20\n      add\n      mload(0x40)\n      swap1\n      dup2\n      add\n      0x40\n      mstore\n      dup1\n      swap3\n      swap2\n      swap1\n      dup2\n      dup2\n      mstore\n      0x20\n      add\n      dup3\n      dup1\n      sload\n      tag_155\n      swap1\n      tag_112\n      jump\t// in\n    tag_155:\n      dup1\n      iszero\n      tag_156\n      jumpi\n      dup1\n      0x1f\n      lt\n      tag_157\n      jumpi\n      0x0100\n      dup1\n      dup4\n      sload\n      div\n      mul\n      dup4\n      mstore\n      swap2\n      0x20\n      add\n      swap2\n      jump(tag_156)\n    tag_157:\n      dup3\n      add\n      swap2\n      swap1\n      0x00\n      mstore\n      keccak256(0x00, 0x20)\n      swap1\n    tag_158:\n      dup2\n      sload\n      dup2\n      mstore\n      swap1\n      0x01\n      add\n      swap1\n      0x20\n      add\n      dup1\n      dup4\n      gt\n      tag_158\n      jumpi\n      dup3\n      swap1\n      sub\n      0x1f\n      and\n      dup3\n      add\n      swap2\n    tag_156:\n      pop\n      pop\n      pop\n      pop\n      pop\n      swap1\n      pop\n        /* \"mainnet/0x8a90CAb2b38dba80c64b7734e58Ee1dB38B8992e/@openzeppelin/contracts/token/ERC721/ERC721.sol\":2519:2612  function symbol() public view virtual returns (string memory) {... */\n      swap1\n      jump\t// out\n        /* \"mainnet/0x8a90CAb2b38dba80c64b7734e58Ee1dB38B8992e/contracts/RawMaterials.sol\":523:548  uint256 public tokenCount */\n    tag_75:\n      sload(0x08)\n      dup2\n      jump\t// out\n        /* \"mainnet/0x8a90CAb2b38dba80c64b7734e58Ee1dB38B8992e/@openzeppelin/contracts/token/ERC721/ERC721.sol\":3719:3863  function setApprovalForAll(address operator, bool approved) public virtual {... */\n    tag_80:\n        /* \"mainnet/0x8a90CAb2b38dba80c64b7734e58Ee1dB38B8992e/@openzeppelin/contracts/token/ERC721/ERC721.sol\":3804:3856  _setApprovalForAll(_msgSender(), operator, approved) */\n      tag_160\n        /* \"mainnet/0x8a90CAb2b38dba80c64b7734e58Ee1dB38B8992e/@openzeppelin/contracts/token/ERC721/ERC721.sol\":3823:3835  _msgSender() */\n      tag_161\n        /* \"mainnet/0x8a90CAb2b38dba80c64b7734e58Ee1dB38B8992e/@openzeppelin/contracts/token/ERC721/ERC721.sol\":3823:3833  _msgSender */\n      tag_125\n        /* \"mainnet/0x8a90CAb2b38dba80c64b7734e58Ee1dB38B8992e/@openzeppelin/contracts/token/ERC721/ERC721.sol\":3823:3835  _msgSender() */\n      jump\t// in\n    tag_161:\n        /* \"mainnet/0x8a90CAb2b38dba80c64b7734e58Ee1dB38B8992e/@openzeppelin/contracts/token/ERC721/ERC721.sol\":3837:3845  operator */\n      dup4\n        /* \"mainnet/0x8a90CAb2b38dba80c64b7734e58Ee1dB38B8992e/@openzeppelin/contracts/token/ERC721/ERC721.sol\":3847:3855  approved */\n      dup4\n        /* \"mainnet/0x8a90CAb2b38dba80c64b7734e58Ee1dB38B8992e/@openzeppelin/contracts/token/ERC721/ERC721.sol\":3804:3822  _setApprovalForAll */\n      tag_162\n        /* \"mainnet/0x8a90CAb2b38dba80c64b7734e58Ee1dB38B8992e/@openzeppelin/contracts/token/ERC721/ERC721.sol\":3804:3856  _setApprovalForAll(_msgSender(), operator, approved) */\n      jump\t// in\n    tag_160:\n        /* \"mainnet/0x8a90CAb2b38dba80c64b7734e58Ee1dB38B8992e/@openzeppelin/contracts/token/ERC721/ERC721.sol\":3719:3863  function setApprovalForAll(address operator, bool approved) public virtual {... */\n      pop\n      pop\n      jump\t// out\n        /* \"mainnet/0x8a90CAb2b38dba80c64b7734e58Ee1dB38B8992e/@openzeppelin/contracts/token/ERC721/ERC721.sol\":4986:5194  function safeTransferFrom(address from, address to, uint256 tokenId, bytes memory data) public virtual {... */\n    tag_84:\n        /* \"mainnet/0x8a90CAb2b38dba80c64b7734e58Ee1dB38B8992e/@openzeppelin/contracts/token/ERC721/ERC721.sol\":5099:5130  transferFrom(from, to, tokenId) */\n      tag_164\n        /* \"mainnet/0x8a90CAb2b38dba80c64b7734e58Ee1dB38B8992e/@openzeppelin/contracts/token/ERC721/ERC721.sol\":5112:5116  from */\n      dup5\n        /* \"mainnet/0x8a90CAb2b38dba80c64b7734e58Ee1dB38B8992e/@openzeppelin/contracts/token/ERC721/ERC721.sol\":5118:5120  to */\n      dup5\n        /* \"mainnet/0x8a90CAb2b38dba80c64b7734e58Ee1dB38B8992e/@openzeppelin/contracts/token/ERC721/ERC721.sol\":5122:5129  tokenId */\n      dup5\n        /* \"mainnet/0x8a90CAb2b38dba80c64b7734e58Ee1dB38B8992e/@openzeppelin/contracts/token/ERC721/ERC721.sol\":5099:5111  transferFrom */\n      tag_53\n        /* \"mainnet/0x8a90CAb2b38dba80c64b7734e58Ee1dB38B8992e/@openzeppelin/contracts/token/ERC721/ERC721.sol\":5099:5130  transferFrom(from, to, tokenId) */\n      jump\t// in\n    tag_164:\n        /* \"mainnet/0x8a90CAb2b38dba80c64b7734e58Ee1dB38B8992e/@openzeppelin/contracts/token/ERC721/ERC721.sol\":5140:5187  _checkOnERC721Received(from, to, tokenId, data) */\n      tag_165\n        /* \"mainnet/0x8a90CAb2b38dba80c64b7734e58Ee1dB38B8992e/@openzeppelin/contracts/token/ERC721/ERC721.sol\":5163:5167  from */\n      dup5\n        /* \"mainnet/0x8a90CAb2b38dba80c64b7734e58Ee1dB38B8992e/@openzeppelin/contracts/token/ERC721/ERC721.sol\":5169:5171  to */\n      dup5\n        /* \"mainnet/0x8a90CAb2b38dba80c64b7734e58Ee1dB38B8992e/@openzeppelin/contracts/token/ERC721/ERC721.sol\":5173:5180  tokenId */\n      dup5\n        /* \"mainnet/0x8a90CAb2b38dba80c64b7734e58Ee1dB38B8992e/@openzeppelin/contracts/token/ERC721/ERC721.sol\":5182:5186  data */\n      dup5\n        /* \"mainnet/0x8a90CAb2b38dba80c64b7734e58Ee1dB38B8992e/@openzeppelin/contracts/token/ERC721/ERC721.sol\":5140:5162  _checkOnERC721Received */\n      tag_166\n        /* \"mainnet/0x8a90CAb2b38dba80c64b7734e58Ee1dB38B8992e/@openzeppelin/contracts/token/ERC721/ERC721.sol\":5140:5187  _checkOnERC721Received(from, to, tokenId, data) */\n      jump\t// in\n    tag_165:\n        /* \"mainnet/0x8a90CAb2b38dba80c64b7734e58Ee1dB38B8992e/@openzeppelin/contracts/token/ERC721/ERC721.sol\":4986:5194  function safeTransferFrom(address from, address to, uint256 tokenId, bytes memory data) public virtual {... */\n      pop\n      pop\n      pop\n      pop\n      jump\t// out\n        /* \"mainnet/0x8a90CAb2b38dba80c64b7734e58Ee1dB38B8992e/@openzeppelin/contracts/token/ERC721/extensions/ERC721URIStorage.sol\":1211:1804  function tokenURI(uint256 tokenId) public view virtual override returns (string memory) {... */\n    tag_87:\n        /* \"mainnet/0x8a90CAb2b38dba80c64b7734e58Ee1dB38B8992e/@openzeppelin/contracts/token/ERC721/extensions/ERC721URIStorage.sol\":1284:1297  string memory */\n      0x60\n        /* \"mainnet/0x8a90CAb2b38dba80c64b7734e58Ee1dB38B8992e/@openzeppelin/contracts/token/ERC721/extensions/ERC721URIStorage.sol\":1309:1331  _requireOwned(tokenId) */\n      tag_168\n        /* \"mainnet/0x8a90CAb2b38dba80c64b7734e58Ee1dB38B8992e/@openzeppelin/contracts/token/ERC721/extensions/ERC721URIStorage.sol\":1323:1330  tokenId */\n      dup3\n        /* \"mainnet/0x8a90CAb2b38dba80c64b7734e58Ee1dB38B8992e/@openzeppelin/contracts/token/ERC721/extensions/ERC721URIStorage.sol\":1309:1322  _requireOwned */\n      tag_119\n        /* \"mainnet/0x8a90CAb2b38dba80c64b7734e58Ee1dB38B8992e/@openzeppelin/contracts/token/ERC721/extensions/ERC721URIStorage.sol\":1309:1331  _requireOwned(tokenId) */\n      jump\t// in\n    tag_168:\n      pop\n        /* \"mainnet/0x8a90CAb2b38dba80c64b7734e58Ee1dB38B8992e/@openzeppelin/contracts/token/ERC721/extensions/ERC721URIStorage.sol\":1342:1365  string memory _tokenURI */\n      0x00\n        /* \"mainnet/0x8a90CAb2b38dba80c64b7734e58Ee1dB38B8992e/@openzeppelin/contracts/token/ERC721/extensions/ERC721URIStorage.sol\":1368:1378  _tokenURIs */\n      0x06\n        /* \"mainnet/0x8a90CAb2b38dba80c64b7734e58Ee1dB38B8992e/@openzeppelin/contracts/token/ERC721/extensions/ERC721URIStorage.sol\":1368:1387  _tokenURIs[tokenId] */\n      0x00\n        /* \"mainnet/0x8a90CAb2b38dba80c64b7734e58Ee1dB38B8992e/@openzeppelin/contracts/token/ERC721/extensions/ERC721URIStorage.sol\":1379:1386  tokenId */\n      dup5\n        /* \"mainnet/0x8a90CAb2b38dba80c64b7734e58Ee1dB38B8992e/@openzeppelin/contracts/token/ERC721/extensions/ERC721URIStorage.sol\":1368:1387  _tokenURIs[tokenId] */\n      dup2\n      mstore\n      0x20\n      add\n      swap1\n      dup2\n      mstore\n      0x20\n      add\n      0x00\n      keccak256\n        /* \"mainnet/0x8a90CAb2b38dba80c64b7734e58Ee1dB38B8992e/@openzeppelin/contracts/token/ERC721/extensions/ERC721URIStorage.sol\":1342:1387  string memory _tokenURI = _tokenURIs[tokenId] */\n      dup1\n      sload\n      tag_169\n      swap1\n      tag_112\n      jump\t// in\n    tag_169:\n      dup1\n      0x1f\n      add\n      0x20\n      dup1\n      swap2\n      div\n      mul\n      0x20\n      add\n      mload(0x40)\n      swap1\n      dup2\n      add\n      0x40\n      mstore\n      dup1\n      swap3\n      swap2\n      swap1\n      dup2\n      dup2\n      mstore\n      0x20\n      add\n      dup3\n      dup1\n      sload\n      tag_170\n      swap1\n      tag_112\n      jump\t// in\n    tag_170:\n      dup1\n      iszero\n      tag_171\n      jumpi\n      dup1\n      0x1f\n      lt\n      tag_172\n      jumpi\n      0x0100\n      dup1\n      dup4\n      sload\n      div\n      mul\n      dup4\n      mstore\n      swap2\n      0x20\n      add\n      swap2\n      jump(tag_171)\n    tag_172:\n      dup3\n      add\n      swap2\n      swap1\n      0x00\n      mstore\n      keccak256(0x00, 0x20)\n      swap1\n    tag_173:\n      dup2\n      sload\n      dup2\n      mstore\n      swap1\n      0x01\n      add\n      swap1\n      0x20\n      add\n      dup1\n      dup4\n      gt\n      tag_173\n      jumpi\n      dup3\n      swap1\n      sub\n      0x1f\n      and\n      dup3\n      add\n      swap2\n    tag_171:\n      pop\n      pop\n      pop\n      pop\n      pop\n      swap1\n      pop\n        /* \"mainnet/0x8a90CAb2b38dba80c64b7734e58Ee1dB38B8992e/@openzeppelin/contracts/token/ERC721/extensions/ERC721URIStorage.sol\":1397:1415  string memory base */\n      0x00\n        /* \"mainnet/0x8a90CAb2b38dba80c64b7734e58Ee1dB38B8992e/@openzeppelin/contracts/token/ERC721/extensions/ERC721URIStorage.sol\":1418:1428  _baseURI() */\n      tag_174\n        /* \"mainnet/0x8a90CAb2b38dba80c64b7734e58Ee1dB38B8992e/@openzeppelin/contracts/token/ERC721/extensions/ERC721URIStorage.sol\":1418:1426  _baseURI */\n      tag_175\n        /* \"mainnet/0x8a90CAb2b38dba80c64b7734e58Ee1dB38B8992e/@openzeppelin/contracts/token/ERC721/extensions/ERC721URIStorage.sol\":1418:1428  _baseURI() */\n      jump\t// in\n    tag_174:\n        /* \"mainnet/0x8a90CAb2b38dba80c64b7734e58Ee1dB38B8992e/@openzeppelin/contracts/token/ERC721/extensions/ERC721URIStorage.sol\":1397:1428  string memory base = _baseURI() */\n      swap1\n      pop\n        /* \"mainnet/0x8a90CAb2b38dba80c64b7734e58Ee1dB38B8992e/@openzeppelin/contracts/token/ERC721/extensions/ERC721URIStorage.sol\":1523:1524  0 */\n      0x00\n        /* \"mainnet/0x8a90CAb2b38dba80c64b7734e58Ee1dB38B8992e/@openzeppelin/contracts/token/ERC721/extensions/ERC721URIStorage.sol\":1507:1511  base */\n      dup2\n        /* \"mainnet/0x8a90CAb2b38dba80c64b7734e58Ee1dB38B8992e/@openzeppelin/contracts/token/ERC721/extensions/ERC721URIStorage.sol\":1501:1519  bytes(base).length */\n      mload\n        /* \"mainnet/0x8a90CAb2b38dba80c64b7734e58Ee1dB38B8992e/@openzeppelin/contracts/token/ERC721/extensions/ERC721URIStorage.sol\":1501:1524  bytes(base).length == 0 */\n      sub\n        /* \"mainnet/0x8a90CAb2b38dba80c64b7734e58Ee1dB38B8992e/@openzeppelin/contracts/token/ERC721/extensions/ERC721URIStorage.sol\":1497:1567  if (bytes(base).length == 0) {... */\n      tag_176\n      jumpi\n        /* \"mainnet/0x8a90CAb2b38dba80c64b7734e58Ee1dB38B8992e/@openzeppelin/contracts/token/ERC721/extensions/ERC721URIStorage.sol\":1547:1556  _tokenURI */\n      dup2\n        /* \"mainnet/0x8a90CAb2b38dba80c64b7734e58Ee1dB38B8992e/@openzeppelin/contracts/token/ERC721/extensions/ERC721URIStorage.sol\":1540:1556  return _tokenURI */\n      swap3\n      pop\n      pop\n      pop\n      jump(tag_167)\n        /* \"mainnet/0x8a90CAb2b38dba80c64b7734e58Ee1dB38B8992e/@openzeppelin/contracts/token/ERC721/extensions/ERC721URIStorage.sol\":1497:1567  if (bytes(base).length == 0) {... */\n    tag_176:\n        /* \"mainnet/0x8a90CAb2b38dba80c64b7734e58Ee1dB38B8992e/@openzeppelin/contracts/token/ERC721/extensions/ERC721URIStorage.sol\":1692:1693  0 */\n      0x00\n        /* \"mainnet/0x8a90CAb2b38dba80c64b7734e58Ee1dB38B8992e/@openzeppelin/contracts/token/ERC721/extensions/ERC721URIStorage.sol\":1672:1681  _tokenURI */\n      dup3\n        /* \"mainnet/0x8a90CAb2b38dba80c64b7734e58Ee1dB38B8992e/@openzeppelin/contracts/token/ERC721/extensions/ERC721URIStorage.sol\":1666:1689  bytes(_tokenURI).length */\n      mload\n        /* \"mainnet/0x8a90CAb2b38dba80c64b7734e58Ee1dB38B8992e/@openzeppelin/contracts/token/ERC721/extensions/ERC721URIStorage.sol\":1666:1693  bytes(_tokenURI).length > 0 */\n      gt\n        /* \"mainnet/0x8a90CAb2b38dba80c64b7734e58Ee1dB38B8992e/@openzeppelin/contracts/token/ERC721/extensions/ERC721URIStorage.sol\":1662:1757  if (bytes(_tokenURI).length > 0) {... */\n      iszero\n      tag_177\n      jumpi\n        /* \"mainnet/0x8a90CAb2b38dba80c64b7734e58Ee1dB38B8992e/@openzeppelin/contracts/token/ERC721/extensions/ERC721URIStorage.sol\":1730:1734  base */\n      dup1\n        /* \"mainnet/0x8a90CAb2b38dba80c64b7734e58Ee1dB38B8992e/@openzeppelin/contracts/token/ERC721/extensions/ERC721URIStorage.sol\":1736:1745  _tokenURI */\n      dup3\n        /* \"mainnet/0x8a90CAb2b38dba80c64b7734e58Ee1dB38B8992e/@openzeppelin/contracts/token/ERC721/extensions/ERC721URIStorage.sol\":1716:1746  string.concat(base, _tokenURI) */\n      add(0x20, mload(0x40))\n      tag_178\n      swap3\n      swap2\n      swap1\n      tag_179\n      jump\t// in\n    tag_178:\n      mload(0x40)\n      0x20\n      dup2\n      dup4\n      sub\n      sub\n      dup2\n      mstore\n      swap1\n      0x40\n      mstore\n        /* \"mainnet/0x8a90CAb2b38dba80c64b7734e58Ee1dB38B8992e/@openzeppelin/contracts/token/ERC721/extensions/ERC721URIStorage.sol\":1709:1746  return string.concat(base, _tokenURI) */\n      swap3\n      pop\n      pop\n      pop\n      jump(tag_167)\n        /* \"mainnet/0x8a90CAb2b38dba80c64b7734e58Ee1dB38B8992e/@openzeppelin/contracts/token/ERC721/extensions/ERC721URIStorage.sol\":1662:1757  if (bytes(_tokenURI).length > 0) {... */\n    tag_177:\n        /* \"mainnet/0x8a90CAb2b38dba80c64b7734e58Ee1dB38B8992e/@openzeppelin/contracts/token/ERC721/extensions/ERC721URIStorage.sol\":1774:1797  super.tokenURI(tokenId) */\n      tag_180\n        /* \"mainnet/0x8a90CAb2b38dba80c64b7734e58Ee1dB38B8992e/@openzeppelin/contracts/token/ERC721/extensions/ERC721URIStorage.sol\":1789:1796  tokenId */\n      dup5\n        /* \"mainnet/0x8a90CAb2b38dba80c64b7734e58Ee1dB38B8992e/@openzeppelin/contracts/token/ERC721/extensions/ERC721URIStorage.sol\":1774:1788  super.tokenURI */\n      tag_181\n        /* \"mainnet/0x8a90CAb2b38dba80c64b7734e58Ee1dB38B8992e/@openzeppelin/contracts/token/ERC721/extensions/ERC721URIStorage.sol\":1774:1797  super.tokenURI(tokenId) */\n      jump\t// in\n    tag_180:\n        /* \"mainnet/0x8a90CAb2b38dba80c64b7734e58Ee1dB38B8992e/@openzeppelin/contracts/token/ERC721/extensions/ERC721URIStorage.sol\":1767:1797  return super.tokenURI(tokenId) */\n      swap3\n      pop\n      pop\n      pop\n        /* \"mainnet/0x8a90CAb2b38dba80c64b7734e58Ee1dB38B8992e/@openzeppelin/contracts/token/ERC721/extensions/ERC721URIStorage.sol\":1211:1804  function tokenURI(uint256 tokenId) public view virtual override returns (string memory) {... */\n    tag_167:\n      swap2\n      swap1\n      pop\n      jump\t// out\n        /* \"mainnet/0x8a90CAb2b38dba80c64b7734e58Ee1dB38B8992e/contracts/RawMaterials.sol\":1000:1482  function mint(string memory _tokenURI) external returns(uint256){... */\n    tag_92:\n        /* \"mainnet/0x8a90CAb2b38dba80c64b7734e58Ee1dB38B8992e/contracts/RawMaterials.sol\":1056:1063  uint256 */\n      0x00\n        /* \"mainnet/0x8a90CAb2b38dba80c64b7734e58Ee1dB38B8992e/contracts/RawMaterials.sol\":1183:1184  0 */\n      dup1\n        /* \"mainnet/0x8a90CAb2b38dba80c64b7734e58Ee1dB38B8992e/contracts/RawMaterials.sol\":1135:1150  TradeManagement */\n      0x09\n      0x00\n      swap1\n      sload\n      swap1\n      0x0100\n      exp\n      swap1\n      div\n      0xffffffffffffffffffffffffffffffffffffffff\n      and\n        /* \"mainnet/0x8a90CAb2b38dba80c64b7734e58Ee1dB38B8992e/contracts/RawMaterials.sol\":1135:1159  TradeManagement.Supplier */\n      0xffffffffffffffffffffffffffffffffffffffff\n      and\n      0x4b297269\n        /* \"mainnet/0x8a90CAb2b38dba80c64b7734e58Ee1dB38B8992e/contracts/RawMaterials.sol\":1160:1170  msg.sender */\n      caller\n        /* \"mainnet/0x8a90CAb2b38dba80c64b7734e58Ee1dB38B8992e/contracts/RawMaterials.sol\":1135:1171  TradeManagement.Supplier(msg.sender) */\n      mload(0x40)\n      dup3\n      0xffffffff\n      and\n      0xe0\n      shl\n      dup2\n      mstore\n      0x04\n      add\n      tag_183\n      swap2\n      swap1\n      tag_41\n      jump\t// in\n    tag_183:\n      0x00\n      mload(0x40)\n      dup1\n      dup4\n      sub\n      dup2\n      dup7\n      gas\n      staticcall\n      iszero\n      dup1\n      iszero\n      tag_185\n      jumpi\n      returndatasize\n      0x00\n      dup1\n      returndatacopy\n      revert(0x00, returndatasize)\n    tag_185:\n      pop\n      pop\n      pop\n      pop\n      mload(0x40)\n      returndatasize\n      0x00\n      dup3\n      returndatacopy\n      returndatasize\n      not(0x1f)\n      0x1f\n      dup3\n      add\n      and\n      dup3\n      add\n      dup1\n      0x40\n      mstore\n      pop\n      dup2\n      add\n      swap1\n      tag_186\n      swap2\n      swap1\n      tag_187\n      jump\t// in\n    tag_186:\n        /* \"mainnet/0x8a90CAb2b38dba80c64b7734e58Ee1dB38B8992e/contracts/RawMaterials.sol\":1129:1179  bytes(TradeManagement.Supplier(msg.sender)).length */\n      mload\n        /* \"mainnet/0x8a90CAb2b38dba80c64b7734e58Ee1dB38B8992e/contracts/RawMaterials.sol\":1129:1184  bytes(TradeManagement.Supplier(msg.sender)).length != 0 */\n      sub\n        /* \"mainnet/0x8a90CAb2b38dba80c64b7734e58Ee1dB38B8992e/contracts/RawMaterials.sol\":1121:1244  require(bytes(TradeManagement.Supplier(msg.sender)).length != 0, \"Only authorized suppliers can mint packaged product NFT\") */\n      tag_188\n      jumpi\n      mload(0x40)\n      0x08c379a000000000000000000000000000000000000000000000000000000000\n      dup2\n      mstore\n      0x04\n      add\n      tag_189\n      swap1\n      tag_190\n      jump\t// in\n    tag_189:\n      mload(0x40)\n      dup1\n      swap2\n      sub\n      swap1\n      revert\n    tag_188:\n        /* \"mainnet/0x8a90CAb2b38dba80c64b7734e58Ee1dB38B8992e/contracts/RawMaterials.sol\":1278:1288  tokenCount */\n      0x08\n      0x00\n        /* \"mainnet/0x8a90CAb2b38dba80c64b7734e58Ee1dB38B8992e/contracts/RawMaterials.sol\":1278:1290  tokenCount++ */\n      dup2\n      sload\n      dup1\n      swap3\n      swap2\n      swap1\n      tag_191\n      swap1\n      tag_192\n      jump\t// in\n    tag_191:\n      swap2\n      swap1\n      pop\n      sstore\n      pop\n        /* \"mainnet/0x8a90CAb2b38dba80c64b7734e58Ee1dB38B8992e/contracts/RawMaterials.sol\":1338:1371  _safeMint(msg.sender, tokenCount) */\n      tag_193\n        /* \"mainnet/0x8a90CAb2b38dba80c64b7734e58Ee1dB38B8992e/contracts/RawMaterials.sol\":1348:1358  msg.sender */\n      caller\n        /* \"mainnet/0x8a90CAb2b38dba80c64b7734e58Ee1dB38B8992e/contracts/RawMaterials.sol\":1360:1370  tokenCount */\n      sload(0x08)\n        /* \"mainnet/0x8a90CAb2b38dba80c64b7734e58Ee1dB38B8992e/contracts/RawMaterials.sol\":1338:1347  _safeMint */\n      tag_194\n        /* \"mainnet/0x8a90CAb2b38dba80c64b7734e58Ee1dB38B8992e/contracts/RawMaterials.sol\":1338:1371  _safeMint(msg.sender, tokenCount) */\n      jump\t// in\n    tag_193:\n        /* \"mainnet/0x8a90CAb2b38dba80c64b7734e58Ee1dB38B8992e/contracts/RawMaterials.sol\":1383:1418  _setTokenURI(tokenCount, _tokenURI) */\n      tag_195\n        /* \"mainnet/0x8a90CAb2b38dba80c64b7734e58Ee1dB38B8992e/contracts/RawMaterials.sol\":1396:1406  tokenCount */\n      sload(0x08)\n        /* \"mainnet/0x8a90CAb2b38dba80c64b7734e58Ee1dB38B8992e/contracts/RawMaterials.sol\":1408:1417  _tokenURI */\n      dup4\n        /* \"mainnet/0x8a90CAb2b38dba80c64b7734e58Ee1dB38B8992e/contracts/RawMaterials.sol\":1383:1395  _setTokenURI */\n      tag_196\n        /* \"mainnet/0x8a90CAb2b38dba80c64b7734e58Ee1dB38B8992e/contracts/RawMaterials.sol\":1383:1418  _setTokenURI(tokenCount, _tokenURI) */\n      jump\t// in\n    tag_195:\n        /* \"mainnet/0x8a90CAb2b38dba80c64b7734e58Ee1dB38B8992e/contracts/RawMaterials.sol\":1463:1473  tokenCount */\n      sload(0x08)\n        /* \"mainnet/0x8a90CAb2b38dba80c64b7734e58Ee1dB38B8992e/contracts/RawMaterials.sol\":1456:1474  return(tokenCount) */\n      swap1\n      pop\n        /* \"mainnet/0x8a90CAb2b38dba80c64b7734e58Ee1dB38B8992e/contracts/RawMaterials.sol\":1000:1482  function mint(string memory _tokenURI) external returns(uint256){... */\n      swap2\n      swap1\n      pop\n      jump\t// out\n        /* \"mainnet/0x8a90CAb2b38dba80c64b7734e58Ee1dB38B8992e/@openzeppelin/contracts/token/ERC721/ERC721.sol\":3929:4082  function isApprovedForAll(address owner, address operator) public view virtual returns (bool) {... */\n    tag_97:\n        /* \"mainnet/0x8a90CAb2b38dba80c64b7734e58Ee1dB38B8992e/@openzeppelin/contracts/token/ERC721/ERC721.sol\":4017:4021  bool */\n      0x00\n        /* \"mainnet/0x8a90CAb2b38dba80c64b7734e58Ee1dB38B8992e/@openzeppelin/contracts/token/ERC721/ERC721.sol\":4040:4058  _operatorApprovals */\n      0x05\n        /* \"mainnet/0x8a90CAb2b38dba80c64b7734e58Ee1dB38B8992e/@openzeppelin/contracts/token/ERC721/ERC721.sol\":4040:4065  _operatorApprovals[owner] */\n      0x00\n        /* \"mainnet/0x8a90CAb2b38dba80c64b7734e58Ee1dB38B8992e/@openzeppelin/contracts/token/ERC721/ERC721.sol\":4059:4064  owner */\n      dup5\n        /* \"mainnet/0x8a90CAb2b38dba80c64b7734e58Ee1dB38B8992e/@openzeppelin/contracts/token/ERC721/ERC721.sol\":4040:4065  _operatorApprovals[owner] */\n      0xffffffffffffffffffffffffffffffffffffffff\n      and\n      0xffffffffffffffffffffffffffffffffffffffff\n      and\n      dup2\n      mstore\n      0x20\n      add\n      swap1\n      dup2\n      mstore\n      0x20\n      add\n      0x00\n      keccak256\n        /* \"mainnet/0x8a90CAb2b38dba80c64b7734e58Ee1dB38B8992e/@openzeppelin/contracts/token/ERC721/ERC721.sol\":4040:4075  _operatorApprovals[owner][operator] */\n      0x00\n        /* \"mainnet/0x8a90CAb2b38dba80c64b7734e58Ee1dB38B8992e/@openzeppelin/contracts/token/ERC721/ERC721.sol\":4066:4074  operator */\n      dup4\n        /* \"mainnet/0x8a90CAb2b38dba80c64b7734e58Ee1dB38B8992e/@openzeppelin/contracts/token/ERC721/ERC721.sol\":4040:4075  _operatorApprovals[owner][operator] */\n      0xffffffffffffffffffffffffffffffffffffffff\n      and\n      0xffffffffffffffffffffffffffffffffffffffff\n      and\n      dup2\n      mstore\n      0x20\n      add\n      swap1\n      dup2\n      mstore\n      0x20\n      add\n      0x00\n      keccak256\n      0x00\n      swap1\n      sload\n      swap1\n      0x0100\n      exp\n      swap1\n      div\n      0xff\n      and\n        /* \"mainnet/0x8a90CAb2b38dba80c64b7734e58Ee1dB38B8992e/@openzeppelin/contracts/token/ERC721/ERC721.sol\":4033:4075  return _operatorApprovals[owner][operator] */\n      swap1\n      pop\n        /* \"mainnet/0x8a90CAb2b38dba80c64b7734e58Ee1dB38B8992e/@openzeppelin/contracts/token/ERC721/ERC721.sol\":3929:4082  function isApprovedForAll(address owner, address operator) public view virtual returns (bool) {... */\n      swap3\n      swap2\n      pop\n      pop\n      jump\t// out\n        /* \"mainnet/0x8a90CAb2b38dba80c64b7734e58Ee1dB38B8992e/contracts/RawMaterials.sol\":597:648  ITradeManagementRawMaterials public TradeManagement */\n    tag_100:\n      0x09\n      0x00\n      swap1\n      sload\n      swap1\n      0x0100\n      exp\n      swap1\n      div\n      0xffffffffffffffffffffffffffffffffffffffff\n      and\n      dup2\n      jump\t// out\n        /* \"mainnet/0x8a90CAb2b38dba80c64b7734e58Ee1dB38B8992e/@openzeppelin/contracts/access/Ownable.sol\":2543:2758  function transferOwnership(address newOwner) public virtual onlyOwner {... */\n    tag_105:\n        /* \"mainnet/0x8a90CAb2b38dba80c64b7734e58Ee1dB38B8992e/@openzeppelin/contracts/access/Ownable.sol\":1531:1544  _checkOwner() */\n      tag_199\n        /* \"mainnet/0x8a90CAb2b38dba80c64b7734e58Ee1dB38B8992e/@openzeppelin/contracts/access/Ownable.sol\":1531:1542  _checkOwner */\n      tag_129\n        /* \"mainnet/0x8a90CAb2b38dba80c64b7734e58Ee1dB38B8992e/@openzeppelin/contracts/access/Ownable.sol\":1531:1544  _checkOwner() */\n      jump\t// in\n    tag_199:\n        /* \"mainnet/0x8a90CAb2b38dba80c64b7734e58Ee1dB38B8992e/@openzeppelin/contracts/access/Ownable.sol\":2647:2648  0 */\n      0x00\n        /* \"mainnet/0x8a90CAb2b38dba80c64b7734e58Ee1dB38B8992e/@openzeppelin/contracts/access/Ownable.sol\":2627:2649  newOwner == address(0) */\n      0xffffffffffffffffffffffffffffffffffffffff\n      and\n        /* \"mainnet/0x8a90CAb2b38dba80c64b7734e58Ee1dB38B8992e/@openzeppelin/contracts/access/Ownable.sol\":2627:2635  newOwner */\n      dup2\n        /* \"mainnet/0x8a90CAb2b38dba80c64b7734e58Ee1dB38B8992e/@openzeppelin/contracts/access/Ownable.sol\":2627:2649  newOwner == address(0) */\n      0xffffffffffffffffffffffffffffffffffffffff\n      and\n      sub\n        /* \"mainnet/0x8a90CAb2b38dba80c64b7734e58Ee1dB38B8992e/@openzeppelin/contracts/access/Ownable.sol\":2623:2714  if (newOwner == address(0)) {... */\n      tag_201\n      jumpi\n        /* \"mainnet/0x8a90CAb2b38dba80c64b7734e58Ee1dB38B8992e/@openzeppelin/contracts/access/Ownable.sol\":2700:2701  0 */\n      0x00\n        /* \"mainnet/0x8a90CAb2b38dba80c64b7734e58Ee1dB38B8992e/@openzeppelin/contracts/access/Ownable.sol\":2672:2703  OwnableInvalidOwner(address(0)) */\n      mload(0x40)\n      0x1e4fbdf700000000000000000000000000000000000000000000000000000000\n      dup2\n      mstore\n      0x04\n      add\n      tag_202\n      swap2\n      swap1\n      tag_41\n      jump\t// in\n    tag_202:\n      mload(0x40)\n      dup1\n      swap2\n      sub\n      swap1\n      revert\n        /* \"mainnet/0x8a90CAb2b38dba80c64b7734e58Ee1dB38B8992e/@openzeppelin/contracts/access/Ownable.sol\":2623:2714  if (newOwner == address(0)) {... */\n    tag_201:\n        /* \"mainnet/0x8a90CAb2b38dba80c64b7734e58Ee1dB38B8992e/@openzeppelin/contracts/access/Ownable.sol\":2723:2751  _transferOwnership(newOwner) */\n      tag_203\n        /* \"mainnet/0x8a90CAb2b38dba80c64b7734e58Ee1dB38B8992e/@openzeppelin/contracts/access/Ownable.sol\":2742:2750  newOwner */\n      dup2\n        /* \"mainnet/0x8a90CAb2b38dba80c64b7734e58Ee1dB38B8992e/@openzeppelin/contracts/access/Ownable.sol\":2723:2741  _transferOwnership */\n      tag_151\n        /* \"mainnet/0x8a90CAb2b38dba80c64b7734e58Ee1dB38B8992e/@openzeppelin/contracts/access/Ownable.sol\":2723:2751  _transferOwnership(newOwner) */\n      jump\t// in\n    tag_203:\n        /* \"mainnet/0x8a90CAb2b38dba80c64b7734e58Ee1dB38B8992e/@openzeppelin/contracts/access/Ownable.sol\":2543:2758  function transferOwnership(address newOwner) public virtual onlyOwner {... */\n      pop\n      jump\t// out\n        /* \"mainnet/0x8a90CAb2b38dba80c64b7734e58Ee1dB38B8992e/@openzeppelin/contracts/token/ERC721/ERC721.sol\":1562:1862  function supportsInterface(bytes4 interfaceId) public view virtual override(ERC165, IERC165) returns (bool) {... */\n    tag_109:\n        /* \"mainnet/0x8a90CAb2b38dba80c64b7734e58Ee1dB38B8992e/@openzeppelin/contracts/token/ERC721/ERC721.sol\":1664:1668  bool */\n      0x00\n        /* \"mainnet/0x8a90CAb2b38dba80c64b7734e58Ee1dB38B8992e/@openzeppelin/contracts/token/ERC721/ERC721.sol\":1714:1739  type(IERC721).interfaceId */\n      0x80ac58cd00000000000000000000000000000000000000000000000000000000\n        /* \"mainnet/0x8a90CAb2b38dba80c64b7734e58Ee1dB38B8992e/@openzeppelin/contracts/token/ERC721/ERC721.sol\":1699:1739  interfaceId == type(IERC721).interfaceId */\n      not(0xffffffffffffffffffffffffffffffffffffffffffffffffffffffff)\n      and\n        /* \"mainnet/0x8a90CAb2b38dba80c64b7734e58Ee1dB38B8992e/@openzeppelin/contracts/token/ERC721/ERC721.sol\":1699:1710  interfaceId */\n      dup3\n        /* \"mainnet/0x8a90CAb2b38dba80c64b7734e58Ee1dB38B8992e/@openzeppelin/contracts/token/ERC721/ERC721.sol\":1699:1739  interfaceId == type(IERC721).interfaceId */\n      not(0xffffffffffffffffffffffffffffffffffffffffffffffffffffffff)\n      and\n      eq\n        /* \"mainnet/0x8a90CAb2b38dba80c64b7734e58Ee1dB38B8992e/@openzeppelin/contracts/token/ERC721/ERC721.sol\":1699:1803  interfaceId == type(IERC721).interfaceId ||... */\n      dup1\n      tag_205\n      jumpi\n      pop\n        /* \"mainnet/0x8a90CAb2b38dba80c64b7734e58Ee1dB38B8992e/@openzeppelin/contracts/token/ERC721/ERC721.sol\":1770:1803  type(IERC721Metadata).interfaceId */\n      0x5b5e139f00000000000000000000000000000000000000000000000000000000\n        /* \"mainnet/0x8a90CAb2b38dba80c64b7734e58Ee1dB38B8992e/@openzeppelin/contracts/token/ERC721/ERC721.sol\":1755:1803  interfaceId == type(IERC721Metadata).interfaceId */\n      not(0xffffffffffffffffffffffffffffffffffffffffffffffffffffffff)\n      and\n        /* \"mainnet/0x8a90CAb2b38dba80c64b7734e58Ee1dB38B8992e/@openzeppelin/contracts/token/ERC721/ERC721.sol\":1755:1766  interfaceId */\n      dup3\n        /* \"mainnet/0x8a90CAb2b38dba80c64b7734e58Ee1dB38B8992e/@openzeppelin/contracts/token/ERC721/ERC721.sol\":1755:1803  interfaceId == type(IERC721Metadata).interfaceId */\n      not(0xffffffffffffffffffffffffffffffffffffffffffffffffffffffff)\n      and\n      eq\n        /* \"mainnet/0x8a90CAb2b38dba80c64b7734e58Ee1dB38B8992e/@openzeppelin/contracts/token/ERC721/ERC721.sol\":1699:1803  interfaceId == type(IERC721).interfaceId ||... */\n    tag_205:\n        /* \"mainnet/0x8a90CAb2b38dba80c64b7734e58Ee1dB38B8992e/@openzeppelin/contracts/token/ERC721/ERC721.sol\":1699:1855  interfaceId == type(IERC721).interfaceId ||... */\n      dup1\n      tag_206\n      jumpi\n      pop\n        /* \"mainnet/0x8a90CAb2b38dba80c64b7734e58Ee1dB38B8992e/@openzeppelin/contracts/token/ERC721/ERC721.sol\":1819:1855  super.supportsInterface(interfaceId) */\n      tag_207\n        /* \"mainnet/0x8a90CAb2b38dba80c64b7734e58Ee1dB38B8992e/@openzeppelin/contracts/token/ERC721/ERC721.sol\":1843:1854  interfaceId */\n      dup3\n        /* \"mainnet/0x8a90CAb2b38dba80c64b7734e58Ee1dB38B8992e/@openzeppelin/contracts/token/ERC721/ERC721.sol\":1819:1842  super.supportsInterface */\n      tag_208\n        /* \"mainnet/0x8a90CAb2b38dba80c64b7734e58Ee1dB38B8992e/@openzeppelin/contracts/token/ERC721/ERC721.sol\":1819:1855  super.supportsInterface(interfaceId) */\n      jump\t// in\n    tag_207:\n        /* \"mainnet/0x8a90CAb2b38dba80c64b7734e58Ee1dB38B8992e/@openzeppelin/contracts/token/ERC721/ERC721.sol\":1699:1855  interfaceId == type(IERC721).interfaceId ||... */\n    tag_206:\n        /* \"mainnet/0x8a90CAb2b38dba80c64b7734e58Ee1dB38B8992e/@openzeppelin/contracts/token/ERC721/ERC721.sol\":1680:1855  return... */\n      swap1\n      pop\n        /* \"mainnet/0x8a90CAb2b38dba80c64b7734e58Ee1dB38B8992e/@openzeppelin/contracts/token/ERC721/ERC721.sol\":1562:1862  function supportsInterface(bytes4 interfaceId) public view virtual override(ERC165, IERC165) returns (bool) {... */\n      swap2\n      swap1\n      pop\n      jump\t// out\n        /* \"mainnet/0x8a90CAb2b38dba80c64b7734e58Ee1dB38B8992e/@openzeppelin/contracts/token/ERC721/ERC721.sol\":16141:16382  function _requireOwned(uint256 tokenId) internal view returns (address) {... */\n    tag_119:\n        /* \"mainnet/0x8a90CAb2b38dba80c64b7734e58Ee1dB38B8992e/@openzeppelin/contracts/token/ERC721/ERC721.sol\":16204:16211  address */\n      0x00\n        /* \"mainnet/0x8a90CAb2b38dba80c64b7734e58Ee1dB38B8992e/@openzeppelin/contracts/token/ERC721/ERC721.sol\":16223:16236  address owner */\n      dup1\n        /* \"mainnet/0x8a90CAb2b38dba80c64b7734e58Ee1dB38B8992e/@openzeppelin/contracts/token/ERC721/ERC721.sol\":16239:16256  _ownerOf(tokenId) */\n      tag_210\n        /* \"mainnet/0x8a90CAb2b38dba80c64b7734e58Ee1dB38B8992e/@openzeppelin/contracts/token/ERC721/ERC721.sol\":16248:16255  tokenId */\n      dup4\n        /* \"mainnet/0x8a90CAb2b38dba80c64b7734e58Ee1dB38B8992e/@openzeppelin/contracts/token/ERC721/ERC721.sol\":16239:16247  _ownerOf */\n      tag_211\n        /* \"mainnet/0x8a90CAb2b38dba80c64b7734e58Ee1dB38B8992e/@openzeppelin/contracts/token/ERC721/ERC721.sol\":16239:16256  _ownerOf(tokenId) */\n      jump\t// in\n    tag_210:\n        /* \"mainnet/0x8a90CAb2b38dba80c64b7734e58Ee1dB38B8992e/@openzeppelin/contracts/token/ERC721/ERC721.sol\":16223:16256  address owner = _ownerOf(tokenId) */\n      swap1\n      pop\n        /* \"mainnet/0x8a90CAb2b38dba80c64b7734e58Ee1dB38B8992e/@openzeppelin/contracts/token/ERC721/ERC721.sol\":16287:16288  0 */\n      0x00\n        /* \"mainnet/0x8a90CAb2b38dba80c64b7734e58Ee1dB38B8992e/@openzeppelin/contracts/token/ERC721/ERC721.sol\":16270:16289  owner == address(0) */\n      0xffffffffffffffffffffffffffffffffffffffff\n      and\n        /* \"mainnet/0x8a90CAb2b38dba80c64b7734e58Ee1dB38B8992e/@openzeppelin/contracts/token/ERC721/ERC721.sol\":16270:16275  owner */\n      dup2\n        /* \"mainnet/0x8a90CAb2b38dba80c64b7734e58Ee1dB38B8992e/@openzeppelin/contracts/token/ERC721/ERC721.sol\":16270:16289  owner == address(0) */\n      0xffffffffffffffffffffffffffffffffffffffff\n      and\n      sub\n        /* \"mainnet/0x8a90CAb2b38dba80c64b7734e58Ee1dB38B8992e/@openzeppelin/contracts/token/ERC721/ERC721.sol\":16266:16354  if (owner == address(0)) {... */\n      tag_212\n      jumpi\n        /* \"mainnet/0x8a90CAb2b38dba80c64b7734e58Ee1dB38B8992e/@openzeppelin/contracts/token/ERC721/ERC721.sol\":16335:16342  tokenId */\n      dup3\n        /* \"mainnet/0x8a90CAb2b38dba80c64b7734e58Ee1dB38B8992e/@openzeppelin/contracts/token/ERC721/ERC721.sol\":16312:16343  ERC721NonexistentToken(tokenId) */\n      mload(0x40)\n      0x7e27328900000000000000000000000000000000000000000000000000000000\n      dup2\n      mstore\n      0x04\n      add\n      tag_213\n      swap2\n      swap1\n      tag_65\n      jump\t// in\n    tag_213:\n      mload(0x40)\n      dup1\n      swap2\n      sub\n      swap1\n      revert\n        /* \"mainnet/0x8a90CAb2b38dba80c64b7734e58Ee1dB38B8992e/@openzeppelin/contracts/token/ERC721/ERC721.sol\":16266:16354  if (owner == address(0)) {... */\n    tag_212:\n        /* \"mainnet/0x8a90CAb2b38dba80c64b7734e58Ee1dB38B8992e/@openzeppelin/contracts/token/ERC721/ERC721.sol\":16370:16375  owner */\n      dup1\n        /* \"mainnet/0x8a90CAb2b38dba80c64b7734e58Ee1dB38B8992e/@openzeppelin/contracts/token/ERC721/ERC721.sol\":16363:16375  return owner */\n      swap2\n      pop\n      pop\n        /* \"mainnet/0x8a90CAb2b38dba80c64b7734e58Ee1dB38B8992e/@openzeppelin/contracts/token/ERC721/ERC721.sol\":16141:16382  function _requireOwned(uint256 tokenId) internal view returns (address) {... */\n      swap2\n      swap1\n      pop\n      jump\t// out\n        /* \"mainnet/0x8a90CAb2b38dba80c64b7734e58Ee1dB38B8992e/@openzeppelin/contracts/token/ERC721/ERC721.sol\":5940:6067  function _getApproved(uint256 tokenId) internal view virtual returns (address) {... */\n    tag_121:\n        /* \"mainnet/0x8a90CAb2b38dba80c64b7734e58Ee1dB38B8992e/@openzeppelin/contracts/token/ERC721/ERC721.sol\":6010:6017  address */\n      0x00\n        /* \"mainnet/0x8a90CAb2b38dba80c64b7734e58Ee1dB38B8992e/@openzeppelin/contracts/token/ERC721/ERC721.sol\":6036:6051  _tokenApprovals */\n      0x04\n        /* \"mainnet/0x8a90CAb2b38dba80c64b7734e58Ee1dB38B8992e/@openzeppelin/contracts/token/ERC721/ERC721.sol\":6036:6060  _tokenApprovals[tokenId] */\n      0x00\n        /* \"mainnet/0x8a90CAb2b38dba80c64b7734e58Ee1dB38B8992e/@openzeppelin/contracts/token/ERC721/ERC721.sol\":6052:6059  tokenId */\n      dup4\n        /* \"mainnet/0x8a90CAb2b38dba80c64b7734e58Ee1dB38B8992e/@openzeppelin/contracts/token/ERC721/ERC721.sol\":6036:6060  _tokenApprovals[tokenId] */\n      dup2\n      mstore\n      0x20\n      add\n      swap1\n      dup2\n      mstore\n      0x20\n      add\n      0x00\n      keccak256\n      0x00\n      swap1\n      sload\n      swap1\n      0x0100\n      exp\n      swap1\n      div\n      0xffffffffffffffffffffffffffffffffffffffff\n      and\n        /* \"mainnet/0x8a90CAb2b38dba80c64b7734e58Ee1dB38B8992e/@openzeppelin/contracts/token/ERC721/ERC721.sol\":6029:6060  return _tokenApprovals[tokenId] */\n      swap1\n      pop\n        /* \"mainnet/0x8a90CAb2b38dba80c64b7734e58Ee1dB38B8992e/@openzeppelin/contracts/token/ERC721/ERC721.sol\":5940:6067  function _getApproved(uint256 tokenId) internal view virtual returns (address) {... */\n      swap2\n      swap1\n      pop\n      jump\t// out\n        /* \"mainnet/0x8a90CAb2b38dba80c64b7734e58Ee1dB38B8992e/@openzeppelin/contracts/utils/Context.sol\":656:752  function _msgSender() internal view virtual returns (address) {... */\n    tag_125:\n        /* \"mainnet/0x8a90CAb2b38dba80c64b7734e58Ee1dB38B8992e/@openzeppelin/contracts/utils/Context.sol\":709:716  address */\n      0x00\n        /* \"mainnet/0x8a90CAb2b38dba80c64b7734e58Ee1dB38B8992e/@openzeppelin/contracts/utils/Context.sol\":735:745  msg.sender */\n      caller\n        /* \"mainnet/0x8a90CAb2b38dba80c64b7734e58Ee1dB38B8992e/@openzeppelin/contracts/utils/Context.sol\":728:745  return msg.sender */\n      swap1\n      pop\n        /* \"mainnet/0x8a90CAb2b38dba80c64b7734e58Ee1dB38B8992e/@openzeppelin/contracts/utils/Context.sol\":656:752  function _msgSender() internal view virtual returns (address) {... */\n      swap1\n      jump\t// out\n        /* \"mainnet/0x8a90CAb2b38dba80c64b7734e58Ee1dB38B8992e/@openzeppelin/contracts/token/ERC721/ERC721.sol\":14421:14541  function _approve(address to, uint256 tokenId, address auth) internal {... */\n    tag_126:\n        /* \"mainnet/0x8a90CAb2b38dba80c64b7734e58Ee1dB38B8992e/@openzeppelin/contracts/token/ERC721/ERC721.sol\":14501:14534  _approve(to, tokenId, auth, true) */\n      tag_217\n        /* \"mainnet/0x8a90CAb2b38dba80c64b7734e58Ee1dB38B8992e/@openzeppelin/contracts/token/ERC721/ERC721.sol\":14510:14512  to */\n      dup4\n        /* \"mainnet/0x8a90CAb2b38dba80c64b7734e58Ee1dB38B8992e/@openzeppelin/contracts/token/ERC721/ERC721.sol\":14514:14521  tokenId */\n      dup4\n        /* \"mainnet/0x8a90CAb2b38dba80c64b7734e58Ee1dB38B8992e/@openzeppelin/contracts/token/ERC721/ERC721.sol\":14523:14527  auth */\n      dup4\n        /* \"mainnet/0x8a90CAb2b38dba80c64b7734e58Ee1dB38B8992e/@openzeppelin/contracts/token/ERC721/ERC721.sol\":14529:14533  true */\n      0x01\n        /* \"mainnet/0x8a90CAb2b38dba80c64b7734e58Ee1dB38B8992e/@openzeppelin/contracts/token/ERC721/ERC721.sol\":14501:14509  _approve */\n      tag_218\n        /* \"mainnet/0x8a90CAb2b38dba80c64b7734e58Ee1dB38B8992e/@openzeppelin/contracts/token/ERC721/ERC721.sol\":14501:14534  _approve(to, tokenId, auth, true) */\n      jump\t// in\n    tag_217:\n        /* \"mainnet/0x8a90CAb2b38dba80c64b7734e58Ee1dB38B8992e/@openzeppelin/contracts/token/ERC721/ERC721.sol\":14421:14541  function _approve(address to, uint256 tokenId, address auth) internal {... */\n      pop\n      pop\n      pop\n      jump\t// out\n        /* \"mainnet/0x8a90CAb2b38dba80c64b7734e58Ee1dB38B8992e/@openzeppelin/contracts/access/Ownable.sol\":1796:1958  function _checkOwner() internal view virtual {... */\n    tag_129:\n        /* \"mainnet/0x8a90CAb2b38dba80c64b7734e58Ee1dB38B8992e/@openzeppelin/contracts/access/Ownable.sol\":1866:1878  _msgSender() */\n      tag_220\n        /* \"mainnet/0x8a90CAb2b38dba80c64b7734e58Ee1dB38B8992e/@openzeppelin/contracts/access/Ownable.sol\":1866:1876  _msgSender */\n      tag_125\n        /* \"mainnet/0x8a90CAb2b38dba80c64b7734e58Ee1dB38B8992e/@openzeppelin/contracts/access/Ownable.sol\":1866:1878  _msgSender() */\n      jump\t// in\n    tag_220:\n        /* \"mainnet/0x8a90CAb2b38dba80c64b7734e58Ee1dB38B8992e/@openzeppelin/contracts/access/Ownable.sol\":1855:1878  owner() != _msgSender() */\n      0xffffffffffffffffffffffffffffffffffffffff\n      and\n        /* \"mainnet/0x8a90CAb2b38dba80c64b7734e58Ee1dB38B8992e/@openzeppelin/contracts/access/Ownable.sol\":1855:1862  owner() */\n      tag_221\n        /* \"mainnet/0x8a90CAb2b38dba80c64b7734e58Ee1dB38B8992e/@openzeppelin/contracts/access/Ownable.sol\":1855:1860  owner */\n      tag_69\n        /* \"mainnet/0x8a90CAb2b38dba80c64b7734e58Ee1dB38B8992e/@openzeppelin/contracts/access/Ownable.sol\":1855:1862  owner() */\n      jump\t// in\n    tag_221:\n        /* \"mainnet/0x8a90CAb2b38dba80c64b7734e58Ee1dB38B8992e/@openzeppelin/contracts/access/Ownable.sol\":1855:1878  owner() != _msgSender() */\n      0xffffffffffffffffffffffffffffffffffffffff\n      and\n      eq\n        /* \"mainnet/0x8a90CAb2b38dba80c64b7734e58Ee1dB38B8992e/@openzeppelin/contracts/access/Ownable.sol\":1851:1952  if (owner() != _msgSender()) {... */\n      tag_222\n      jumpi\n        /* \"mainnet/0x8a90CAb2b38dba80c64b7734e58Ee1dB38B8992e/@openzeppelin/contracts/access/Ownable.sol\":1928:1940  _msgSender() */\n      tag_223\n        /* \"mainnet/0x8a90CAb2b38dba80c64b7734e58Ee1dB38B8992e/@openzeppelin/contracts/access/Ownable.sol\":1928:1938  _msgSender */\n      tag_125\n        /* \"mainnet/0x8a90CAb2b38dba80c64b7734e58Ee1dB38B8992e/@openzeppelin/contracts/access/Ownable.sol\":1928:1940  _msgSender() */\n      jump\t// in\n    tag_223:\n        /* \"mainnet/0x8a90CAb2b38dba80c64b7734e58Ee1dB38B8992e/@openzeppelin/contracts/access/Ownable.sol\":1901:1941  OwnableUnauthorizedAccount(_msgSender()) */\n      mload(0x40)\n      0x118cdaa700000000000000000000000000000000000000000000000000000000\n      dup2\n      mstore\n      0x04\n      add\n      tag_224\n      swap2\n      swap1\n      tag_41\n      jump\t// in\n    tag_224:\n      mload(0x40)\n      dup1\n      swap2\n      sub\n      swap1\n      revert\n        /* \"mainnet/0x8a90CAb2b38dba80c64b7734e58Ee1dB38B8992e/@openzeppelin/contracts/access/Ownable.sol\":1851:1952  if (owner() != _msgSender()) {... */\n    tag_222:\n        /* \"mainnet/0x8a90CAb2b38dba80c64b7734e58Ee1dB38B8992e/@openzeppelin/contracts/access/Ownable.sol\":1796:1958  function _checkOwner() internal view virtual {... */\n      jump\t// out\n        /* \"mainnet/0x8a90CAb2b38dba80c64b7734e58Ee1dB38B8992e/@openzeppelin/contracts/token/ERC721/ERC721.sol\":8840:9635  function _update(address to, uint256 tokenId, address auth) internal virtual returns (address) {... */\n    tag_136:\n        /* \"mainnet/0x8a90CAb2b38dba80c64b7734e58Ee1dB38B8992e/@openzeppelin/contracts/token/ERC721/ERC721.sol\":8926:8933  address */\n      0x00\n        /* \"mainnet/0x8a90CAb2b38dba80c64b7734e58Ee1dB38B8992e/@openzeppelin/contracts/token/ERC721/ERC721.sol\":8945:8957  address from */\n      dup1\n        /* \"mainnet/0x8a90CAb2b38dba80c64b7734e58Ee1dB38B8992e/@openzeppelin/contracts/token/ERC721/ERC721.sol\":8960:8977  _ownerOf(tokenId) */\n      tag_226\n        /* \"mainnet/0x8a90CAb2b38dba80c64b7734e58Ee1dB38B8992e/@openzeppelin/contracts/token/ERC721/ERC721.sol\":8969:8976  tokenId */\n      dup5\n        /* \"mainnet/0x8a90CAb2b38dba80c64b7734e58Ee1dB38B8992e/@openzeppelin/contracts/token/ERC721/ERC721.sol\":8960:8968  _ownerOf */\n      tag_211\n        /* \"mainnet/0x8a90CAb2b38dba80c64b7734e58Ee1dB38B8992e/@openzeppelin/contracts/token/ERC721/ERC721.sol\":8960:8977  _ownerOf(tokenId) */\n      jump\t// in\n    tag_226:\n        /* \"mainnet/0x8a90CAb2b38dba80c64b7734e58Ee1dB38B8992e/@openzeppelin/contracts/token/ERC721/ERC721.sol\":8945:8977  address from = _ownerOf(tokenId) */\n      swap1\n      pop\n        /* \"mainnet/0x8a90CAb2b38dba80c64b7734e58Ee1dB38B8992e/@openzeppelin/contracts/token/ERC721/ERC721.sol\":9053:9054  0 */\n      0x00\n        /* \"mainnet/0x8a90CAb2b38dba80c64b7734e58Ee1dB38B8992e/@openzeppelin/contracts/token/ERC721/ERC721.sol\":9037:9055  auth != address(0) */\n      0xffffffffffffffffffffffffffffffffffffffff\n      and\n        /* \"mainnet/0x8a90CAb2b38dba80c64b7734e58Ee1dB38B8992e/@openzeppelin/contracts/token/ERC721/ERC721.sol\":9037:9041  auth */\n      dup4\n        /* \"mainnet/0x8a90CAb2b38dba80c64b7734e58Ee1dB38B8992e/@openzeppelin/contracts/token/ERC721/ERC721.sol\":9037:9055  auth != address(0) */\n      0xffffffffffffffffffffffffffffffffffffffff\n      and\n      eq\n        /* \"mainnet/0x8a90CAb2b38dba80c64b7734e58Ee1dB38B8992e/@openzeppelin/contracts/token/ERC721/ERC721.sol\":9033:9119  if (auth != address(0)) {... */\n      tag_227\n      jumpi\n        /* \"mainnet/0x8a90CAb2b38dba80c64b7734e58Ee1dB38B8992e/@openzeppelin/contracts/token/ERC721/ERC721.sol\":9071:9108  _checkAuthorized(from, auth, tokenId) */\n      tag_228\n        /* \"mainnet/0x8a90CAb2b38dba80c64b7734e58Ee1dB38B8992e/@openzeppelin/contracts/token/ERC721/ERC721.sol\":9088:9092  from */\n      dup2\n        /* \"mainnet/0x8a90CAb2b38dba80c64b7734e58Ee1dB38B8992e/@openzeppelin/contracts/token/ERC721/ERC721.sol\":9094:9098  auth */\n      dup5\n        /* \"mainnet/0x8a90CAb2b38dba80c64b7734e58Ee1dB38B8992e/@openzeppelin/contracts/token/ERC721/ERC721.sol\":9100:9107  tokenId */\n      dup7\n        /* \"mainnet/0x8a90CAb2b38dba80c64b7734e58Ee1dB38B8992e/@openzeppelin/contracts/token/ERC721/ERC721.sol\":9071:9087  _checkAuthorized */\n      tag_229\n        /* \"mainnet/0x8a90CAb2b38dba80c64b7734e58Ee1dB38B8992e/@openzeppelin/contracts/token/ERC721/ERC721.sol\":9071:9108  _checkAuthorized(from, auth, tokenId) */\n      jump\t// in\n    tag_228:\n        /* \"mainnet/0x8a90CAb2b38dba80c64b7734e58Ee1dB38B8992e/@openzeppelin/contracts/token/ERC721/ERC721.sol\":9033:9119  if (auth != address(0)) {... */\n    tag_227:\n        /* \"mainnet/0x8a90CAb2b38dba80c64b7734e58Ee1dB38B8992e/@openzeppelin/contracts/token/ERC721/ERC721.sol\":9179:9180  0 */\n      0x00\n        /* \"mainnet/0x8a90CAb2b38dba80c64b7734e58Ee1dB38B8992e/@openzeppelin/contracts/token/ERC721/ERC721.sol\":9163:9181  from != address(0) */\n      0xffffffffffffffffffffffffffffffffffffffff\n      and\n        /* \"mainnet/0x8a90CAb2b38dba80c64b7734e58Ee1dB38B8992e/@openzeppelin/contracts/token/ERC721/ERC721.sol\":9163:9167  from */\n      dup2\n        /* \"mainnet/0x8a90CAb2b38dba80c64b7734e58Ee1dB38B8992e/@openzeppelin/contracts/token/ERC721/ERC721.sol\":9163:9181  from != address(0) */\n      0xffffffffffffffffffffffffffffffffffffffff\n      and\n      eq\n        /* \"mainnet/0x8a90CAb2b38dba80c64b7734e58Ee1dB38B8992e/@openzeppelin/contracts/token/ERC721/ERC721.sol\":9159:9415  if (from != address(0)) {... */\n      tag_230\n      jumpi\n        /* \"mainnet/0x8a90CAb2b38dba80c64b7734e58Ee1dB38B8992e/@openzeppelin/contracts/token/ERC721/ERC721.sol\":9279:9327  _approve(address(0), tokenId, address(0), false) */\n      tag_231\n        /* \"mainnet/0x8a90CAb2b38dba80c64b7734e58Ee1dB38B8992e/@openzeppelin/contracts/token/ERC721/ERC721.sol\":9296:9297  0 */\n      0x00\n        /* \"mainnet/0x8a90CAb2b38dba80c64b7734e58Ee1dB38B8992e/@openzeppelin/contracts/token/ERC721/ERC721.sol\":9300:9307  tokenId */\n      dup6\n        /* \"mainnet/0x8a90CAb2b38dba80c64b7734e58Ee1dB38B8992e/@openzeppelin/contracts/token/ERC721/ERC721.sol\":9317:9318  0 */\n      0x00\n        /* \"mainnet/0x8a90CAb2b38dba80c64b7734e58Ee1dB38B8992e/@openzeppelin/contracts/token/ERC721/ERC721.sol\":9321:9326  false */\n      dup1\n        /* \"mainnet/0x8a90CAb2b38dba80c64b7734e58Ee1dB38B8992e/@openzeppelin/contracts/token/ERC721/ERC721.sol\":9279:9287  _approve */\n      tag_218\n        /* \"mainnet/0x8a90CAb2b38dba80c64b7734e58Ee1dB38B8992e/@openzeppelin/contracts/token/ERC721/ERC721.sol\":9279:9327  _approve(address(0), tokenId, address(0), false) */\n      jump\t// in\n    tag_231:\n        /* \"mainnet/0x8a90CAb2b38dba80c64b7734e58Ee1dB38B8992e/@openzeppelin/contracts/token/ERC721/ERC721.sol\":9389:9390  1 */\n      0x01\n        /* \"mainnet/0x8a90CAb2b38dba80c64b7734e58Ee1dB38B8992e/@openzeppelin/contracts/token/ERC721/ERC721.sol\":9370:9379  _balances */\n      0x03\n        /* \"mainnet/0x8a90CAb2b38dba80c64b7734e58Ee1dB38B8992e/@openzeppelin/contracts/token/ERC721/ERC721.sol\":9370:9385  _balances[from] */\n      0x00\n        /* \"mainnet/0x8a90CAb2b38dba80c64b7734e58Ee1dB38B8992e/@openzeppelin/contracts/token/ERC721/ERC721.sol\":9380:9384  from */\n      dup4\n        /* \"mainnet/0x8a90CAb2b38dba80c64b7734e58Ee1dB38B8992e/@openzeppelin/contracts/token/ERC721/ERC721.sol\":9370:9385  _balances[from] */\n      0xffffffffffffffffffffffffffffffffffffffff\n      and\n      0xffffffffffffffffffffffffffffffffffffffff\n      and\n      dup2\n      mstore\n      0x20\n      add\n      swap1\n      dup2\n      mstore\n      0x20\n      add\n      0x00\n      keccak256\n      0x00\n        /* \"mainnet/0x8a90CAb2b38dba80c64b7734e58Ee1dB38B8992e/@openzeppelin/contracts/token/ERC721/ERC721.sol\":9370:9390  _balances[from] -= 1 */\n      dup3\n      dup3\n      sload\n      sub\n      swap3\n      pop\n      pop\n      dup2\n      swap1\n      sstore\n      pop\n        /* \"mainnet/0x8a90CAb2b38dba80c64b7734e58Ee1dB38B8992e/@openzeppelin/contracts/token/ERC721/ERC721.sol\":9159:9415  if (from != address(0)) {... */\n    tag_230:\n        /* \"mainnet/0x8a90CAb2b38dba80c64b7734e58Ee1dB38B8992e/@openzeppelin/contracts/token/ERC721/ERC721.sol\":9443:9444  0 */\n      0x00\n        /* \"mainnet/0x8a90CAb2b38dba80c64b7734e58Ee1dB38B8992e/@openzeppelin/contracts/token/ERC721/ERC721.sol\":9429:9445  to != address(0) */\n      0xffffffffffffffffffffffffffffffffffffffff\n      and\n        /* \"mainnet/0x8a90CAb2b38dba80c64b7734e58Ee1dB38B8992e/@openzeppelin/contracts/token/ERC721/ERC721.sol\":9429:9431  to */\n      dup6\n        /* \"mainnet/0x8a90CAb2b38dba80c64b7734e58Ee1dB38B8992e/@openzeppelin/contracts/token/ERC721/ERC721.sol\":9429:9445  to != address(0) */\n      0xffffffffffffffffffffffffffffffffffffffff\n      and\n      eq\n        /* \"mainnet/0x8a90CAb2b38dba80c64b7734e58Ee1dB38B8992e/@openzeppelin/contracts/token/ERC721/ERC721.sol\":9425:9532  if (to != address(0)) {... */\n      tag_232\n      jumpi\n        /* \"mainnet/0x8a90CAb2b38dba80c64b7734e58Ee1dB38B8992e/@openzeppelin/contracts/token/ERC721/ERC721.sol\":9506:9507  1 */\n      0x01\n        /* \"mainnet/0x8a90CAb2b38dba80c64b7734e58Ee1dB38B8992e/@openzeppelin/contracts/token/ERC721/ERC721.sol\":9489:9498  _balances */\n      0x03\n        /* \"mainnet/0x8a90CAb2b38dba80c64b7734e58Ee1dB38B8992e/@openzeppelin/contracts/token/ERC721/ERC721.sol\":9489:9502  _balances[to] */\n      0x00\n        /* \"mainnet/0x8a90CAb2b38dba80c64b7734e58Ee1dB38B8992e/@openzeppelin/contracts/token/ERC721/ERC721.sol\":9499:9501  to */\n      dup8\n        /* \"mainnet/0x8a90CAb2b38dba80c64b7734e58Ee1dB38B8992e/@openzeppelin/contracts/token/ERC721/ERC721.sol\":9489:9502  _balances[to] */\n      0xffffffffffffffffffffffffffffffffffffffff\n      and\n      0xffffffffffffffffffffffffffffffffffffffff\n      and\n      dup2\n      mstore\n      0x20\n      add\n      swap1\n      dup2\n      mstore\n      0x20\n      add\n      0x00\n      keccak256\n      0x00\n        /* \"mainnet/0x8a90CAb2b38dba80c64b7734e58Ee1dB38B8992e/@openzeppelin/contracts/token/ERC721/ERC721.sol\":9489:9507  _balances[to] += 1 */\n      dup3\n      dup3\n      sload\n      add\n      swap3\n      pop\n      pop\n      dup2\n      swap1\n      sstore\n      pop\n        /* \"mainnet/0x8a90CAb2b38dba80c64b7734e58Ee1dB38B8992e/@openzeppelin/contracts/token/ERC721/ERC721.sol\":9425:9532  if (to != address(0)) {... */\n    tag_232:\n        /* \"mainnet/0x8a90CAb2b38dba80c64b7734e58Ee1dB38B8992e/@openzeppelin/contracts/token/ERC721/ERC721.sol\":9561:9563  to */\n      dup5\n        /* \"mainnet/0x8a90CAb2b38dba80c64b7734e58Ee1dB38B8992e/@openzeppelin/contracts/token/ERC721/ERC721.sol\":9542:9549  _owners */\n      0x02\n        /* \"mainnet/0x8a90CAb2b38dba80c64b7734e58Ee1dB38B8992e/@openzeppelin/contracts/token/ERC721/ERC721.sol\":9542:9558  _owners[tokenId] */\n      0x00\n        /* \"mainnet/0x8a90CAb2b38dba80c64b7734e58Ee1dB38B8992e/@openzeppelin/contracts/token/ERC721/ERC721.sol\":9550:9557  tokenId */\n      dup7\n        /* \"mainnet/0x8a90CAb2b38dba80c64b7734e58Ee1dB38B8992e/@openzeppelin/contracts/token/ERC721/ERC721.sol\":9542:9558  _owners[tokenId] */\n      dup2\n      mstore\n      0x20\n      add\n      swap1\n      dup2\n      mstore\n      0x20\n      add\n      0x00\n      keccak256\n      0x00\n        /* \"mainnet/0x8a90CAb2b38dba80c64b7734e58Ee1dB38B8992e/@openzeppelin/contracts/token/ERC721/ERC721.sol\":9542:9563  _owners[tokenId] = to */\n      0x0100\n      exp\n      dup2\n      sload\n      dup2\n      0xffffffffffffffffffffffffffffffffffffffff\n      mul\n      not\n      and\n      swap1\n      dup4\n      0xffffffffffffffffffffffffffffffffffffffff\n      and\n      mul\n      or\n      swap1\n      sstore\n      pop\n        /* \"mainnet/0x8a90CAb2b38dba80c64b7734e58Ee1dB38B8992e/@openzeppelin/contracts/token/ERC721/ERC721.sol\":9598:9605  tokenId */\n      dup4\n        /* \"mainnet/0x8a90CAb2b38dba80c64b7734e58Ee1dB38B8992e/@openzeppelin/contracts/token/ERC721/ERC721.sol\":9594:9596  to */\n      dup6\n        /* \"mainnet/0x8a90CAb2b38dba80c64b7734e58Ee1dB38B8992e/@openzeppelin/contracts/token/ERC721/ERC721.sol\":9579:9606  Transfer(from, to, tokenId) */\n      0xffffffffffffffffffffffffffffffffffffffff\n      and\n        /* \"mainnet/0x8a90CAb2b38dba80c64b7734e58Ee1dB38B8992e/@openzeppelin/contracts/token/ERC721/ERC721.sol\":9588:9592  from */\n      dup3\n        /* \"mainnet/0x8a90CAb2b38dba80c64b7734e58Ee1dB38B8992e/@openzeppelin/contracts/token/ERC721/ERC721.sol\":9579:9606  Transfer(from, to, tokenId) */\n      0xffffffffffffffffffffffffffffffffffffffff\n      and\n      0xddf252ad1be2c89b69c2b068fc378daa952ba7f163c4a11628f55a4df523b3ef\n      mload(0x40)\n      mload(0x40)\n      dup1\n      swap2\n      sub\n      swap1\n      log4\n        /* \"mainnet/0x8a90CAb2b38dba80c64b7734e58Ee1dB38B8992e/@openzeppelin/contracts/token/ERC721/ERC721.sol\":9624:9628  from */\n      dup1\n        /* \"mainnet/0x8a90CAb2b38dba80c64b7734e58Ee1dB38B8992e/@openzeppelin/contracts/token/ERC721/ERC721.sol\":9617:9628  return from */\n      swap2\n      pop\n      pop\n        /* \"mainnet/0x8a90CAb2b38dba80c64b7734e58Ee1dB38B8992e/@openzeppelin/contracts/token/ERC721/ERC721.sol\":8840:9635  function _update(address to, uint256 tokenId, address auth) internal virtual returns (address) {... */\n      swap4\n      swap3\n      pop\n      pop\n      pop\n      jump\t// out\n        /* \"mainnet/0x8a90CAb2b38dba80c64b7734e58Ee1dB38B8992e/@openzeppelin/contracts/access/Ownable.sol\":2912:3099  function _transferOwnership(address newOwner) internal virtual {... */\n    tag_151:\n        /* \"mainnet/0x8a90CAb2b38dba80c64b7734e58Ee1dB38B8992e/@openzeppelin/contracts/access/Ownable.sol\":2985:3001  address oldOwner */\n      0x00\n        /* \"mainnet/0x8a90CAb2b38dba80c64b7734e58Ee1dB38B8992e/@openzeppelin/contracts/access/Ownable.sol\":3004:3010  _owner */\n      0x07\n      0x00\n      swap1\n      sload\n      swap1\n      0x0100\n      exp\n      swap1\n      div\n      0xffffffffffffffffffffffffffffffffffffffff\n      and\n        /* \"mainnet/0x8a90CAb2b38dba80c64b7734e58Ee1dB38B8992e/@openzeppelin/contracts/access/Ownable.sol\":2985:3010  address oldOwner = _owner */\n      swap1\n      pop\n        /* \"mainnet/0x8a90CAb2b38dba80c64b7734e58Ee1dB38B8992e/@openzeppelin/contracts/access/Ownable.sol\":3029:3037  newOwner */\n      dup2\n        /* \"mainnet/0x8a90CAb2b38dba80c64b7734e58Ee1dB38B8992e/@openzeppelin/contracts/access/Ownable.sol\":3020:3026  _owner */\n      0x07\n      0x00\n        /* \"mainnet/0x8a90CAb2b38dba80c64b7734e58Ee1dB38B8992e/@openzeppelin/contracts/access/Ownable.sol\":3020:3037  _owner = newOwner */\n      0x0100\n      exp\n      dup2\n      sload\n      dup2\n      0xffffffffffffffffffffffffffffffffffffffff\n      mul\n      not\n      and\n      swap1\n      dup4\n      0xffffffffffffffffffffffffffffffffffffffff\n      and\n      mul\n      or\n      swap1\n      sstore\n      pop\n        /* \"mainnet/0x8a90CAb2b38dba80c64b7734e58Ee1dB38B8992e/@openzeppelin/contracts/access/Ownable.sol\":3083:3091  newOwner */\n      dup2\n        /* \"mainnet/0x8a90CAb2b38dba80c64b7734e58Ee1dB38B8992e/@openzeppelin/contracts/access/Ownable.sol\":3052:3092  OwnershipTransferred(oldOwner, newOwner) */\n      0xffffffffffffffffffffffffffffffffffffffff\n      and\n        /* \"mainnet/0x8a90CAb2b38dba80c64b7734e58Ee1dB38B8992e/@openzeppelin/contracts/access/Ownable.sol\":3073:3081  oldOwner */\n      dup2\n        /* \"mainnet/0x8a90CAb2b38dba80c64b7734e58Ee1dB38B8992e/@openzeppelin/contracts/access/Ownable.sol\":3052:3092  OwnershipTransferred(oldOwner, newOwner) */\n      0xffffffffffffffffffffffffffffffffffffffff\n      and\n      0x8be0079c531659141344cd1fd0a4f28419497f9722a3daafe3b4186f6b6457e0\n      mload(0x40)\n      mload(0x40)\n      dup1\n      swap2\n      sub\n      swap1\n      log3\n        /* \"mainnet/0x8a90CAb2b38dba80c64b7734e58Ee1dB38B8992e/@openzeppelin/contracts/access/Ownable.sol\":2975:3099  {... */\n      pop\n        /* \"mainnet/0x8a90CAb2b38dba80c64b7734e58Ee1dB38B8992e/@openzeppelin/contracts/access/Ownable.sol\":2912:3099  function _transferOwnership(address newOwner) internal virtual {... */\n      pop\n      jump\t// out\n        /* \"mainnet/0x8a90CAb2b38dba80c64b7734e58Ee1dB38B8992e/@openzeppelin/contracts/token/ERC721/ERC721.sol\":15594:15906  function _setApprovalForAll(address owner, address operator, bool approved) internal virtual {... */\n    tag_162:\n        /* \"mainnet/0x8a90CAb2b38dba80c64b7734e58Ee1dB38B8992e/@openzeppelin/contracts/token/ERC721/ERC721.sol\":15721:15722  0 */\n      0x00\n        /* \"mainnet/0x8a90CAb2b38dba80c64b7734e58Ee1dB38B8992e/@openzeppelin/contracts/token/ERC721/ERC721.sol\":15701:15723  operator == address(0) */\n      0xffffffffffffffffffffffffffffffffffffffff\n      and\n        /* \"mainnet/0x8a90CAb2b38dba80c64b7734e58Ee1dB38B8992e/@openzeppelin/contracts/token/ERC721/ERC721.sol\":15701:15709  operator */\n      dup3\n        /* \"mainnet/0x8a90CAb2b38dba80c64b7734e58Ee1dB38B8992e/@openzeppelin/contracts/token/ERC721/ERC721.sol\":15701:15723  operator == address(0) */\n      0xffffffffffffffffffffffffffffffffffffffff\n      and\n      sub\n        /* \"mainnet/0x8a90CAb2b38dba80c64b7734e58Ee1dB38B8992e/@openzeppelin/contracts/token/ERC721/ERC721.sol\":15697:15788  if (operator == address(0)) {... */\n      tag_235\n      jumpi\n        /* \"mainnet/0x8a90CAb2b38dba80c64b7734e58Ee1dB38B8992e/@openzeppelin/contracts/token/ERC721/ERC721.sol\":15768:15776  operator */\n      dup2\n        /* \"mainnet/0x8a90CAb2b38dba80c64b7734e58Ee1dB38B8992e/@openzeppelin/contracts/token/ERC721/ERC721.sol\":15746:15777  ERC721InvalidOperator(operator) */\n      mload(0x40)\n      0x5b08ba1800000000000000000000000000000000000000000000000000000000\n      dup2\n      mstore\n      0x04\n      add\n      tag_236\n      swap2\n      swap1\n      tag_41\n      jump\t// in\n    tag_236:\n      mload(0x40)\n      dup1\n      swap2\n      sub\n      swap1\n      revert\n        /* \"mainnet/0x8a90CAb2b38dba80c64b7734e58Ee1dB38B8992e/@openzeppelin/contracts/token/ERC721/ERC721.sol\":15697:15788  if (operator == address(0)) {... */\n    tag_235:\n        /* \"mainnet/0x8a90CAb2b38dba80c64b7734e58Ee1dB38B8992e/@openzeppelin/contracts/token/ERC721/ERC721.sol\":15835:15843  approved */\n      dup1\n        /* \"mainnet/0x8a90CAb2b38dba80c64b7734e58Ee1dB38B8992e/@openzeppelin/contracts/token/ERC721/ERC721.sol\":15797:15815  _operatorApprovals */\n      0x05\n        /* \"mainnet/0x8a90CAb2b38dba80c64b7734e58Ee1dB38B8992e/@openzeppelin/contracts/token/ERC721/ERC721.sol\":15797:15822  _operatorApprovals[owner] */\n      0x00\n        /* \"mainnet/0x8a90CAb2b38dba80c64b7734e58Ee1dB38B8992e/@openzeppelin/contracts/token/ERC721/ERC721.sol\":15816:15821  owner */\n      dup6\n        /* \"mainnet/0x8a90CAb2b38dba80c64b7734e58Ee1dB38B8992e/@openzeppelin/contracts/token/ERC721/ERC721.sol\":15797:15822  _operatorApprovals[owner] */\n      0xffffffffffffffffffffffffffffffffffffffff\n      and\n      0xffffffffffffffffffffffffffffffffffffffff\n      and\n      dup2\n      mstore\n      0x20\n      add\n      swap1\n      dup2\n      mstore\n      0x20\n      add\n      0x00\n      keccak256\n        /* \"mainnet/0x8a90CAb2b38dba80c64b7734e58Ee1dB38B8992e/@openzeppelin/contracts/token/ERC721/ERC721.sol\":15797:15832  _operatorApprovals[owner][operator] */\n      0x00\n        /* \"mainnet/0x8a90CAb2b38dba80c64b7734e58Ee1dB38B8992e/@openzeppelin/contracts/token/ERC721/ERC721.sol\":15823:15831  operator */\n      dup5\n        /* \"mainnet/0x8a90CAb2b38dba80c64b7734e58Ee1dB38B8992e/@openzeppelin/contracts/token/ERC721/ERC721.sol\":15797:15832  _operatorApprovals[owner][operator] */\n      0xffffffffffffffffffffffffffffffffffffffff\n      and\n      0xffffffffffffffffffffffffffffffffffffffff\n      and\n      dup2\n      mstore\n      0x20\n      add\n      swap1\n      dup2\n      mstore\n      0x20\n      add\n      0x00\n      keccak256\n      0x00\n        /* \"mainnet/0x8a90CAb2b38dba80c64b7734e58Ee1dB38B8992e/@openzeppelin/contracts/token/ERC721/ERC721.sol\":15797:15843  _operatorApprovals[owner][operator] = approved */\n      0x0100\n      exp\n      dup2\n      sload\n      dup2\n      0xff\n      mul\n      not\n      and\n      swap1\n      dup4\n      iszero\n      iszero\n      mul\n      or\n      swap1\n      sstore\n      pop\n        /* \"mainnet/0x8a90CAb2b38dba80c64b7734e58Ee1dB38B8992e/@openzeppelin/contracts/token/ERC721/ERC721.sol\":15880:15888  operator */\n      dup2\n        /* \"mainnet/0x8a90CAb2b38dba80c64b7734e58Ee1dB38B8992e/@openzeppelin/contracts/token/ERC721/ERC721.sol\":15858:15899  ApprovalForAll(owner, operator, approved) */\n      0xffffffffffffffffffffffffffffffffffffffff\n      and\n        /* \"mainnet/0x8a90CAb2b38dba80c64b7734e58Ee1dB38B8992e/@openzeppelin/contracts/token/ERC721/ERC721.sol\":15873:15878  owner */\n      dup4\n        /* \"mainnet/0x8a90CAb2b38dba80c64b7734e58Ee1dB38B8992e/@openzeppelin/contracts/token/ERC721/ERC721.sol\":15858:15899  ApprovalForAll(owner, operator, approved) */\n      0xffffffffffffffffffffffffffffffffffffffff\n      and\n      0x17307eab39ab6107e8899845ad3d59bd9653f200f220920489ca2b5937696c31\n        /* \"mainnet/0x8a90CAb2b38dba80c64b7734e58Ee1dB38B8992e/@openzeppelin/contracts/token/ERC721/ERC721.sol\":15890:15898  approved */\n      dup4\n        /* \"mainnet/0x8a90CAb2b38dba80c64b7734e58Ee1dB38B8992e/@openzeppelin/contracts/token/ERC721/ERC721.sol\":15858:15899  ApprovalForAll(owner, operator, approved) */\n      mload(0x40)\n      tag_237\n      swap2\n      swap1\n      tag_31\n      jump\t// in\n    tag_237:\n      mload(0x40)\n      dup1\n      swap2\n      sub\n      swap1\n      log3\n        /* \"mainnet/0x8a90CAb2b38dba80c64b7734e58Ee1dB38B8992e/@openzeppelin/contracts/token/ERC721/ERC721.sol\":15594:15906  function _setApprovalForAll(address owner, address operator, bool approved) internal virtual {... */\n      pop\n      pop\n      pop\n      jump\t// out\n        /* \"mainnet/0x8a90CAb2b38dba80c64b7734e58Ee1dB38B8992e/@openzeppelin/contracts/token/ERC721/ERC721.sol\":16921:17703  function _checkOnERC721Received(address from, address to, uint256 tokenId, bytes memory data) private {... */\n    tag_166:\n        /* \"mainnet/0x8a90CAb2b38dba80c64b7734e58Ee1dB38B8992e/@openzeppelin/contracts/token/ERC721/ERC721.sol\":17054:17055  0 */\n      0x00\n        /* \"mainnet/0x8a90CAb2b38dba80c64b7734e58Ee1dB38B8992e/@openzeppelin/contracts/token/ERC721/ERC721.sol\":17037:17039  to */\n      dup4\n        /* \"mainnet/0x8a90CAb2b38dba80c64b7734e58Ee1dB38B8992e/@openzeppelin/contracts/token/ERC721/ERC721.sol\":17037:17051  to.code.length */\n      0xffffffffffffffffffffffffffffffffffffffff\n      and\n      extcodesize\n        /* \"mainnet/0x8a90CAb2b38dba80c64b7734e58Ee1dB38B8992e/@openzeppelin/contracts/token/ERC721/ERC721.sol\":17037:17055  to.code.length > 0 */\n      gt\n        /* \"mainnet/0x8a90CAb2b38dba80c64b7734e58Ee1dB38B8992e/@openzeppelin/contracts/token/ERC721/ERC721.sol\":17033:17697  if (to.code.length > 0) {... */\n      iszero\n      tag_239\n      jumpi\n        /* \"mainnet/0x8a90CAb2b38dba80c64b7734e58Ee1dB38B8992e/@openzeppelin/contracts/token/ERC721/ERC721.sol\":17091:17093  to */\n      dup3\n        /* \"mainnet/0x8a90CAb2b38dba80c64b7734e58Ee1dB38B8992e/@openzeppelin/contracts/token/ERC721/ERC721.sol\":17075:17111  IERC721Receiver(to).onERC721Received */\n      0xffffffffffffffffffffffffffffffffffffffff\n      and\n      0x150b7a02\n        /* \"mainnet/0x8a90CAb2b38dba80c64b7734e58Ee1dB38B8992e/@openzeppelin/contracts/token/ERC721/ERC721.sol\":17112:17124  _msgSender() */\n      tag_240\n        /* \"mainnet/0x8a90CAb2b38dba80c64b7734e58Ee1dB38B8992e/@openzeppelin/contracts/token/ERC721/ERC721.sol\":17112:17122  _msgSender */\n      tag_125\n        /* \"mainnet/0x8a90CAb2b38dba80c64b7734e58Ee1dB38B8992e/@openzeppelin/contracts/token/ERC721/ERC721.sol\":17112:17124  _msgSender() */\n      jump\t// in\n    tag_240:\n        /* \"mainnet/0x8a90CAb2b38dba80c64b7734e58Ee1dB38B8992e/@openzeppelin/contracts/token/ERC721/ERC721.sol\":17126:17130  from */\n      dup7\n        /* \"mainnet/0x8a90CAb2b38dba80c64b7734e58Ee1dB38B8992e/@openzeppelin/contracts/token/ERC721/ERC721.sol\":17132:17139  tokenId */\n      dup6\n        /* \"mainnet/0x8a90CAb2b38dba80c64b7734e58Ee1dB38B8992e/@openzeppelin/contracts/token/ERC721/ERC721.sol\":17141:17145  data */\n      dup6\n        /* \"mainnet/0x8a90CAb2b38dba80c64b7734e58Ee1dB38B8992e/@openzeppelin/contracts/token/ERC721/ERC721.sol\":17075:17146  IERC721Receiver(to).onERC721Received(_msgSender(), from, tokenId, data) */\n      mload(0x40)\n      dup6\n      0xffffffff\n      and\n      0xe0\n      shl\n      dup2\n      mstore\n      0x04\n      add\n      tag_241\n      swap5\n      swap4\n      swap3\n      swap2\n      swap1\n      tag_242\n      jump\t// in\n    tag_241:\n      0x20\n      mload(0x40)\n      dup1\n      dup4\n      sub\n      dup2\n      0x00\n      dup8\n      gas\n      call\n      swap3\n      pop\n      pop\n      pop\n      dup1\n      iszero\n      tag_243\n      jumpi\n      pop\n      mload(0x40)\n      returndatasize\n      not(0x1f)\n      0x1f\n      dup3\n      add\n      and\n      dup3\n      add\n      dup1\n      0x40\n      mstore\n      pop\n      dup2\n      add\n      swap1\n      tag_244\n      swap2\n      swap1\n      tag_245\n      jump\t// in\n    tag_244:\n      0x01\n    tag_243:\n        /* \"mainnet/0x8a90CAb2b38dba80c64b7734e58Ee1dB38B8992e/@openzeppelin/contracts/token/ERC721/ERC721.sol\":17071:17687  try IERC721Receiver(to).onERC721Received(_msgSender(), from, tokenId, data) returns (bytes4 retval) {... */\n      tag_246\n      jumpi\n      returndatasize\n      dup1\n      0x00\n      dup2\n      eq\n      tag_251\n      jumpi\n      mload(0x40)\n      swap2\n      pop\n      and(add(returndatasize, 0x3f), not(0x1f))\n      dup3\n      add\n      0x40\n      mstore\n      returndatasize\n      dup3\n      mstore\n      returndatasize\n      0x00\n      0x20\n      dup5\n      add\n      returndatacopy\n      jump(tag_250)\n    tag_251:\n      0x60\n      swap2\n      pop\n    tag_250:\n      pop\n        /* \"mainnet/0x8a90CAb2b38dba80c64b7734e58Ee1dB38B8992e/@openzeppelin/contracts/token/ERC721/ERC721.sol\":17401:17402  0 */\n      0x00\n        /* \"mainnet/0x8a90CAb2b38dba80c64b7734e58Ee1dB38B8992e/@openzeppelin/contracts/token/ERC721/ERC721.sol\":17384:17390  reason */\n      dup2\n        /* \"mainnet/0x8a90CAb2b38dba80c64b7734e58Ee1dB38B8992e/@openzeppelin/contracts/token/ERC721/ERC721.sol\":17384:17397  reason.length */\n      mload\n        /* \"mainnet/0x8a90CAb2b38dba80c64b7734e58Ee1dB38B8992e/@openzeppelin/contracts/token/ERC721/ERC721.sol\":17384:17402  reason.length == 0 */\n      sub\n        /* \"mainnet/0x8a90CAb2b38dba80c64b7734e58Ee1dB38B8992e/@openzeppelin/contracts/token/ERC721/ERC721.sol\":17380:17673  if (reason.length == 0) {... */\n      tag_252\n      jumpi\n        /* \"mainnet/0x8a90CAb2b38dba80c64b7734e58Ee1dB38B8992e/@openzeppelin/contracts/token/ERC721/ERC721.sol\":17455:17457  to */\n      dup4\n        /* \"mainnet/0x8a90CAb2b38dba80c64b7734e58Ee1dB38B8992e/@openzeppelin/contracts/token/ERC721/ERC721.sol\":17433:17458  ERC721InvalidReceiver(to) */\n      mload(0x40)\n      0x64a0ae9200000000000000000000000000000000000000000000000000000000\n      dup2\n      mstore\n      0x04\n      add\n      tag_253\n      swap2\n      swap1\n      tag_41\n      jump\t// in\n    tag_253:\n      mload(0x40)\n      dup1\n      swap2\n      sub\n      swap1\n      revert\n        /* \"mainnet/0x8a90CAb2b38dba80c64b7734e58Ee1dB38B8992e/@openzeppelin/contracts/token/ERC721/ERC721.sol\":17380:17673  if (reason.length == 0) {... */\n    tag_252:\n        /* \"mainnet/0x8a90CAb2b38dba80c64b7734e58Ee1dB38B8992e/@openzeppelin/contracts/token/ERC721/ERC721.sol\":17625:17631  reason */\n      dup1\n        /* \"mainnet/0x8a90CAb2b38dba80c64b7734e58Ee1dB38B8992e/@openzeppelin/contracts/token/ERC721/ERC721.sol\":17619:17632  mload(reason) */\n      mload\n        /* \"mainnet/0x8a90CAb2b38dba80c64b7734e58Ee1dB38B8992e/@openzeppelin/contracts/token/ERC721/ERC721.sol\":17610:17616  reason */\n      dup2\n        /* \"mainnet/0x8a90CAb2b38dba80c64b7734e58Ee1dB38B8992e/@openzeppelin/contracts/token/ERC721/ERC721.sol\":17606:17608  32 */\n      0x20\n        /* \"mainnet/0x8a90CAb2b38dba80c64b7734e58Ee1dB38B8992e/@openzeppelin/contracts/token/ERC721/ERC721.sol\":17602:17617  add(32, reason) */\n      add\n        /* \"mainnet/0x8a90CAb2b38dba80c64b7734e58Ee1dB38B8992e/@openzeppelin/contracts/token/ERC721/ERC721.sol\":17595:17633  revert(add(32, reason), mload(reason)) */\n      revert\n        /* \"mainnet/0x8a90CAb2b38dba80c64b7734e58Ee1dB38B8992e/@openzeppelin/contracts/token/ERC721/ERC721.sol\":17071:17687  try IERC721Receiver(to).onERC721Received(_msgSender(), from, tokenId, data) returns (bytes4 retval) {... */\n    tag_246:\n        /* \"mainnet/0x8a90CAb2b38dba80c64b7734e58Ee1dB38B8992e/@openzeppelin/contracts/token/ERC721/ERC721.sol\":17203:17244  IERC721Receiver.onERC721Received.selector */\n      shl(0xe0, 0x150b7a02)\n        /* \"mainnet/0x8a90CAb2b38dba80c64b7734e58Ee1dB38B8992e/@openzeppelin/contracts/token/ERC721/ERC721.sol\":17193:17244  retval != IERC721Receiver.onERC721Received.selector */\n      not(0xffffffffffffffffffffffffffffffffffffffffffffffffffffffff)\n      and\n        /* \"mainnet/0x8a90CAb2b38dba80c64b7734e58Ee1dB38B8992e/@openzeppelin/contracts/token/ERC721/ERC721.sol\":17193:17199  retval */\n      dup2\n        /* \"mainnet/0x8a90CAb2b38dba80c64b7734e58Ee1dB38B8992e/@openzeppelin/contracts/token/ERC721/ERC721.sol\":17193:17244  retval != IERC721Receiver.onERC721Received.selector */\n      not(0xffffffffffffffffffffffffffffffffffffffffffffffffffffffff)\n      and\n      eq\n        /* \"mainnet/0x8a90CAb2b38dba80c64b7734e58Ee1dB38B8992e/@openzeppelin/contracts/token/ERC721/ERC721.sol\":17189:17319  if (retval != IERC721Receiver.onERC721Received.selector) {... */\n      tag_256\n      jumpi\n        /* \"mainnet/0x8a90CAb2b38dba80c64b7734e58Ee1dB38B8992e/@openzeppelin/contracts/token/ERC721/ERC721.sol\":17297:17299  to */\n      dup4\n        /* \"mainnet/0x8a90CAb2b38dba80c64b7734e58Ee1dB38B8992e/@openzeppelin/contracts/token/ERC721/ERC721.sol\":17275:17300  ERC721InvalidReceiver(to) */\n      mload(0x40)\n      0x64a0ae9200000000000000000000000000000000000000000000000000000000\n      dup2\n      mstore\n      0x04\n      add\n      tag_257\n      swap2\n      swap1\n      tag_41\n      jump\t// in\n    tag_257:\n      mload(0x40)\n      dup1\n      swap2\n      sub\n      swap1\n      revert\n        /* \"mainnet/0x8a90CAb2b38dba80c64b7734e58Ee1dB38B8992e/@openzeppelin/contracts/token/ERC721/ERC721.sol\":17189:17319  if (retval != IERC721Receiver.onERC721Received.selector) {... */\n    tag_256:\n        /* \"mainnet/0x8a90CAb2b38dba80c64b7734e58Ee1dB38B8992e/@openzeppelin/contracts/token/ERC721/ERC721.sol\":17147:17333  returns (bytes4 retval) {... */\n      pop\n        /* \"mainnet/0x8a90CAb2b38dba80c64b7734e58Ee1dB38B8992e/@openzeppelin/contracts/token/ERC721/ERC721.sol\":17033:17697  if (to.code.length > 0) {... */\n    tag_239:\n        /* \"mainnet/0x8a90CAb2b38dba80c64b7734e58Ee1dB38B8992e/@openzeppelin/contracts/token/ERC721/ERC721.sol\":16921:17703  function _checkOnERC721Received(address from, address to, uint256 tokenId, bytes memory data) private {... */\n      pop\n      pop\n      pop\n      pop\n      jump\t// out\n        /* \"mainnet/0x8a90CAb2b38dba80c64b7734e58Ee1dB38B8992e/@openzeppelin/contracts/token/ERC721/ERC721.sol\":3175:3267  function _baseURI() internal view virtual returns (string memory) {... */\n    tag_175:\n        /* \"mainnet/0x8a90CAb2b38dba80c64b7734e58Ee1dB38B8992e/@openzeppelin/contracts/token/ERC721/ERC721.sol\":3226:3239  string memory */\n      0x60\n        /* \"mainnet/0x8a90CAb2b38dba80c64b7734e58Ee1dB38B8992e/@openzeppelin/contracts/token/ERC721/ERC721.sol\":3251:3260  return \"\" */\n      mload(0x40)\n      dup1\n      0x20\n      add\n      0x40\n      mstore\n      dup1\n      0x00\n      dup2\n      mstore\n      pop\n      swap1\n      pop\n        /* \"mainnet/0x8a90CAb2b38dba80c64b7734e58Ee1dB38B8992e/@openzeppelin/contracts/token/ERC721/ERC721.sol\":3175:3267  function _baseURI() internal view virtual returns (string memory) {... */\n      swap1\n      jump\t// out\n        /* \"mainnet/0x8a90CAb2b38dba80c64b7734e58Ee1dB38B8992e/@openzeppelin/contracts/token/ERC721/ERC721.sol\":2678:2933  function tokenURI(uint256 tokenId) public view virtual returns (string memory) {... */\n    tag_181:\n        /* \"mainnet/0x8a90CAb2b38dba80c64b7734e58Ee1dB38B8992e/@openzeppelin/contracts/token/ERC721/ERC721.sol\":2742:2755  string memory */\n      0x60\n        /* \"mainnet/0x8a90CAb2b38dba80c64b7734e58Ee1dB38B8992e/@openzeppelin/contracts/token/ERC721/ERC721.sol\":2767:2789  _requireOwned(tokenId) */\n      tag_260\n        /* \"mainnet/0x8a90CAb2b38dba80c64b7734e58Ee1dB38B8992e/@openzeppelin/contracts/token/ERC721/ERC721.sol\":2781:2788  tokenId */\n      dup3\n        /* \"mainnet/0x8a90CAb2b38dba80c64b7734e58Ee1dB38B8992e/@openzeppelin/contracts/token/ERC721/ERC721.sol\":2767:2780  _requireOwned */\n      tag_119\n        /* \"mainnet/0x8a90CAb2b38dba80c64b7734e58Ee1dB38B8992e/@openzeppelin/contracts/token/ERC721/ERC721.sol\":2767:2789  _requireOwned(tokenId) */\n      jump\t// in\n    tag_260:\n      pop\n        /* \"mainnet/0x8a90CAb2b38dba80c64b7734e58Ee1dB38B8992e/@openzeppelin/contracts/token/ERC721/ERC721.sol\":2800:2821  string memory baseURI */\n      0x00\n        /* \"mainnet/0x8a90CAb2b38dba80c64b7734e58Ee1dB38B8992e/@openzeppelin/contracts/token/ERC721/ERC721.sol\":2824:2834  _baseURI() */\n      tag_261\n        /* \"mainnet/0x8a90CAb2b38dba80c64b7734e58Ee1dB38B8992e/@openzeppelin/contracts/token/ERC721/ERC721.sol\":2824:2832  _baseURI */\n      tag_175\n        /* \"mainnet/0x8a90CAb2b38dba80c64b7734e58Ee1dB38B8992e/@openzeppelin/contracts/token/ERC721/ERC721.sol\":2824:2834  _baseURI() */\n      jump\t// in\n    tag_261:\n        /* \"mainnet/0x8a90CAb2b38dba80c64b7734e58Ee1dB38B8992e/@openzeppelin/contracts/token/ERC721/ERC721.sol\":2800:2834  string memory baseURI = _baseURI() */\n      swap1\n      pop\n        /* \"mainnet/0x8a90CAb2b38dba80c64b7734e58Ee1dB38B8992e/@openzeppelin/contracts/token/ERC721/ERC721.sol\":2875:2876  0 */\n      0x00\n        /* \"mainnet/0x8a90CAb2b38dba80c64b7734e58Ee1dB38B8992e/@openzeppelin/contracts/token/ERC721/ERC721.sol\":2857:2864  baseURI */\n      dup2\n        /* \"mainnet/0x8a90CAb2b38dba80c64b7734e58Ee1dB38B8992e/@openzeppelin/contracts/token/ERC721/ERC721.sol\":2851:2872  bytes(baseURI).length */\n      mload\n        /* \"mainnet/0x8a90CAb2b38dba80c64b7734e58Ee1dB38B8992e/@openzeppelin/contracts/token/ERC721/ERC721.sol\":2851:2876  bytes(baseURI).length > 0 */\n      gt\n        /* \"mainnet/0x8a90CAb2b38dba80c64b7734e58Ee1dB38B8992e/@openzeppelin/contracts/token/ERC721/ERC721.sol\":2851:2926  bytes(baseURI).length > 0 ? string.concat(baseURI, tokenId.toString()) : \"\" */\n      tag_262\n      jumpi\n      mload(0x40)\n      dup1\n      0x20\n      add\n      0x40\n      mstore\n      dup1\n      0x00\n      dup2\n      mstore\n      pop\n      jump(tag_263)\n    tag_262:\n        /* \"mainnet/0x8a90CAb2b38dba80c64b7734e58Ee1dB38B8992e/@openzeppelin/contracts/token/ERC721/ERC721.sol\":2893:2900  baseURI */\n      dup1\n        /* \"mainnet/0x8a90CAb2b38dba80c64b7734e58Ee1dB38B8992e/@openzeppelin/contracts/token/ERC721/ERC721.sol\":2902:2920  tokenId.toString() */\n      tag_264\n        /* \"mainnet/0x8a90CAb2b38dba80c64b7734e58Ee1dB38B8992e/@openzeppelin/contracts/token/ERC721/ERC721.sol\":2902:2909  tokenId */\n      dup5\n        /* \"mainnet/0x8a90CAb2b38dba80c64b7734e58Ee1dB38B8992e/@openzeppelin/contracts/token/ERC721/ERC721.sol\":2902:2918  tokenId.toString */\n      tag_265\n        /* \"mainnet/0x8a90CAb2b38dba80c64b7734e58Ee1dB38B8992e/@openzeppelin/contracts/token/ERC721/ERC721.sol\":2902:2920  tokenId.toString() */\n      jump\t// in\n    tag_264:\n        /* \"mainnet/0x8a90CAb2b38dba80c64b7734e58Ee1dB38B8992e/@openzeppelin/contracts/token/ERC721/ERC721.sol\":2879:2921  string.concat(baseURI, tokenId.toString()) */\n      add(0x20, mload(0x40))\n      tag_266\n      swap3\n      swap2\n      swap1\n      tag_179\n      jump\t// in\n    tag_266:\n      mload(0x40)\n      0x20\n      dup2\n      dup4\n      sub\n      sub\n      dup2\n      mstore\n      swap1\n      0x40\n      mstore\n        /* \"mainnet/0x8a90CAb2b38dba80c64b7734e58Ee1dB38B8992e/@openzeppelin/contracts/token/ERC721/ERC721.sol\":2851:2926  bytes(baseURI).length > 0 ? string.concat(baseURI, tokenId.toString()) : \"\" */\n    tag_263:\n        /* \"mainnet/0x8a90CAb2b38dba80c64b7734e58Ee1dB38B8992e/@openzeppelin/contracts/token/ERC721/ERC721.sol\":2844:2926  return bytes(baseURI).length > 0 ? string.concat(baseURI, tokenId.toString()) : \"\" */\n      swap2\n      pop\n      pop\n        /* \"mainnet/0x8a90CAb2b38dba80c64b7734e58Ee1dB38B8992e/@openzeppelin/contracts/token/ERC721/ERC721.sol\":2678:2933  function tokenURI(uint256 tokenId) public view virtual returns (string memory) {... */\n      swap2\n      swap1\n      pop\n      jump\t// out\n        /* \"mainnet/0x8a90CAb2b38dba80c64b7734e58Ee1dB38B8992e/@openzeppelin/contracts/token/ERC721/ERC721.sol\":10635:10735  function _safeMint(address to, uint256 tokenId) internal {... */\n    tag_194:\n        /* \"mainnet/0x8a90CAb2b38dba80c64b7734e58Ee1dB38B8992e/@openzeppelin/contracts/token/ERC721/ERC721.sol\":10702:10728  _safeMint(to, tokenId, \"\") */\n      tag_268\n        /* \"mainnet/0x8a90CAb2b38dba80c64b7734e58Ee1dB38B8992e/@openzeppelin/contracts/token/ERC721/ERC721.sol\":10712:10714  to */\n      dup3\n        /* \"mainnet/0x8a90CAb2b38dba80c64b7734e58Ee1dB38B8992e/@openzeppelin/contracts/token/ERC721/ERC721.sol\":10716:10723  tokenId */\n      dup3\n        /* \"mainnet/0x8a90CAb2b38dba80c64b7734e58Ee1dB38B8992e/@openzeppelin/contracts/token/ERC721/ERC721.sol\":10702:10728  _safeMint(to, tokenId, \"\") */\n      mload(0x40)\n      dup1\n      0x20\n      add\n      0x40\n      mstore\n      dup1\n      0x00\n      dup2\n      mstore\n      pop\n        /* \"mainnet/0x8a90CAb2b38dba80c64b7734e58Ee1dB38B8992e/@openzeppelin/contracts/token/ERC721/ERC721.sol\":10702:10711  _safeMint */\n      tag_269\n        /* \"mainnet/0x8a90CAb2b38dba80c64b7734e58Ee1dB38B8992e/@openzeppelin/contracts/token/ERC721/ERC721.sol\":10702:10728  _safeMint(to, tokenId, \"\") */\n      jump\t// in\n    tag_268:\n        /* \"mainnet/0x8a90CAb2b38dba80c64b7734e58Ee1dB38B8992e/@openzeppelin/contracts/token/ERC721/ERC721.sol\":10635:10735  function _safeMint(address to, uint256 tokenId) internal {... */\n      pop\n      pop\n      jump\t// out\n        /* \"mainnet/0x8a90CAb2b38dba80c64b7734e58Ee1dB38B8992e/@openzeppelin/contracts/token/ERC721/extensions/ERC721URIStorage.sol\":1923:2090  function _setTokenURI(uint256 tokenId, string memory _tokenURI) internal virtual {... */\n    tag_196:\n        /* \"mainnet/0x8a90CAb2b38dba80c64b7734e58Ee1dB38B8992e/@openzeppelin/contracts/token/ERC721/extensions/ERC721URIStorage.sol\":2036:2045  _tokenURI */\n      dup1\n        /* \"mainnet/0x8a90CAb2b38dba80c64b7734e58Ee1dB38B8992e/@openzeppelin/contracts/token/ERC721/extensions/ERC721URIStorage.sol\":2014:2024  _tokenURIs */\n      0x06\n        /* \"mainnet/0x8a90CAb2b38dba80c64b7734e58Ee1dB38B8992e/@openzeppelin/contracts/token/ERC721/extensions/ERC721URIStorage.sol\":2014:2033  _tokenURIs[tokenId] */\n      0x00\n        /* \"mainnet/0x8a90CAb2b38dba80c64b7734e58Ee1dB38B8992e/@openzeppelin/contracts/token/ERC721/extensions/ERC721URIStorage.sol\":2025:2032  tokenId */\n      dup5\n        /* \"mainnet/0x8a90CAb2b38dba80c64b7734e58Ee1dB38B8992e/@openzeppelin/contracts/token/ERC721/extensions/ERC721URIStorage.sol\":2014:2033  _tokenURIs[tokenId] */\n      dup2\n      mstore\n      0x20\n      add\n      swap1\n      dup2\n      mstore\n      0x20\n      add\n      0x00\n      keccak256\n        /* \"mainnet/0x8a90CAb2b38dba80c64b7734e58Ee1dB38B8992e/@openzeppelin/contracts/token/ERC721/extensions/ERC721URIStorage.sol\":2014:2045  _tokenURIs[tokenId] = _tokenURI */\n      swap1\n      dup2\n      tag_271\n      swap2\n      swap1\n      tag_272\n      jump\t// in\n    tag_271:\n      pop\n        /* \"mainnet/0x8a90CAb2b38dba80c64b7734e58Ee1dB38B8992e/@openzeppelin/contracts/token/ERC721/extensions/ERC721URIStorage.sol\":2060:2083  MetadataUpdate(tokenId) */\n      0xf8e1a15aba9398e019f0b49df1a4fde98ee17ae345cb5f6b5e2c27f5033e8ce7\n        /* \"mainnet/0x8a90CAb2b38dba80c64b7734e58Ee1dB38B8992e/@openzeppelin/contracts/token/ERC721/extensions/ERC721URIStorage.sol\":2075:2082  tokenId */\n      dup3\n        /* \"mainnet/0x8a90CAb2b38dba80c64b7734e58Ee1dB38B8992e/@openzeppelin/contracts/token/ERC721/extensions/ERC721URIStorage.sol\":2060:2083  MetadataUpdate(tokenId) */\n      mload(0x40)\n      tag_273\n      swap2\n      swap1\n      tag_65\n      jump\t// in\n    tag_273:\n      mload(0x40)\n      dup1\n      swap2\n      sub\n      swap1\n      log1\n        /* \"mainnet/0x8a90CAb2b38dba80c64b7734e58Ee1dB38B8992e/@openzeppelin/contracts/token/ERC721/extensions/ERC721URIStorage.sol\":1923:2090  function _setTokenURI(uint256 tokenId, string memory _tokenURI) internal virtual {... */\n      pop\n      pop\n      jump\t// out\n        /* \"mainnet/0x8a90CAb2b38dba80c64b7734e58Ee1dB38B8992e/@openzeppelin/contracts/utils/introspection/ERC165.sol\":763:909  function supportsInterface(bytes4 interfaceId) public view virtual returns (bool) {... */\n    tag_208:\n        /* \"mainnet/0x8a90CAb2b38dba80c64b7734e58Ee1dB38B8992e/@openzeppelin/contracts/utils/introspection/ERC165.sol\":839:843  bool */\n      0x00\n        /* \"mainnet/0x8a90CAb2b38dba80c64b7734e58Ee1dB38B8992e/@openzeppelin/contracts/utils/introspection/ERC165.sol\":877:902  type(IERC165).interfaceId */\n      0x01ffc9a700000000000000000000000000000000000000000000000000000000\n        /* \"mainnet/0x8a90CAb2b38dba80c64b7734e58Ee1dB38B8992e/@openzeppelin/contracts/utils/introspection/ERC165.sol\":862:902  interfaceId == type(IERC165).interfaceId */\n      not(0xffffffffffffffffffffffffffffffffffffffffffffffffffffffff)\n      and\n        /* \"mainnet/0x8a90CAb2b38dba80c64b7734e58Ee1dB38B8992e/@openzeppelin/contracts/utils/introspection/ERC165.sol\":862:873  interfaceId */\n      dup3\n        /* \"mainnet/0x8a90CAb2b38dba80c64b7734e58Ee1dB38B8992e/@openzeppelin/contracts/utils/introspection/ERC165.sol\":862:902  interfaceId == type(IERC165).interfaceId */\n      not(0xffffffffffffffffffffffffffffffffffffffffffffffffffffffff)\n      and\n      eq\n        /* \"mainnet/0x8a90CAb2b38dba80c64b7734e58Ee1dB38B8992e/@openzeppelin/contracts/utils/introspection/ERC165.sol\":855:902  return interfaceId == type(IERC165).interfaceId */\n      swap1\n      pop\n        /* \"mainnet/0x8a90CAb2b38dba80c64b7734e58Ee1dB38B8992e/@openzeppelin/contracts/utils/introspection/ERC165.sol\":763:909  function supportsInterface(bytes4 interfaceId) public view virtual returns (bool) {... */\n      swap2\n      swap1\n      pop\n      jump\t// out\n        /* \"mainnet/0x8a90CAb2b38dba80c64b7734e58Ee1dB38B8992e/@openzeppelin/contracts/token/ERC721/ERC721.sol\":5709:5824  function _ownerOf(uint256 tokenId) internal view virtual returns (address) {... */\n    tag_211:\n        /* \"mainnet/0x8a90CAb2b38dba80c64b7734e58Ee1dB38B8992e/@openzeppelin/contracts/token/ERC721/ERC721.sol\":5775:5782  address */\n      0x00\n        /* \"mainnet/0x8a90CAb2b38dba80c64b7734e58Ee1dB38B8992e/@openzeppelin/contracts/token/ERC721/ERC721.sol\":5801:5808  _owners */\n      0x02\n        /* \"mainnet/0x8a90CAb2b38dba80c64b7734e58Ee1dB38B8992e/@openzeppelin/contracts/token/ERC721/ERC721.sol\":5801:5817  _owners[tokenId] */\n      0x00\n        /* \"mainnet/0x8a90CAb2b38dba80c64b7734e58Ee1dB38B8992e/@openzeppelin/contracts/token/ERC721/ERC721.sol\":5809:5816  tokenId */\n      dup4\n        /* \"mainnet/0x8a90CAb2b38dba80c64b7734e58Ee1dB38B8992e/@openzeppelin/contracts/token/ERC721/ERC721.sol\":5801:5817  _owners[tokenId] */\n      dup2\n      mstore\n      0x20\n      add\n      swap1\n      dup2\n      mstore\n      0x20\n      add\n      0x00\n      keccak256\n      0x00\n      swap1\n      sload\n      swap1\n      0x0100\n      exp\n      swap1\n      div\n      0xffffffffffffffffffffffffffffffffffffffff\n      and\n        /* \"mainnet/0x8a90CAb2b38dba80c64b7734e58Ee1dB38B8992e/@openzeppelin/contracts/token/ERC721/ERC721.sol\":5794:5817  return _owners[tokenId] */\n      swap1\n      pop\n        /* \"mainnet/0x8a90CAb2b38dba80c64b7734e58Ee1dB38B8992e/@openzeppelin/contracts/token/ERC721/ERC721.sol\":5709:5824  function _ownerOf(uint256 tokenId) internal view virtual returns (address) {... */\n      swap2\n      swap1\n      pop\n      jump\t// out\n        /* \"mainnet/0x8a90CAb2b38dba80c64b7734e58Ee1dB38B8992e/@openzeppelin/contracts/token/ERC721/ERC721.sol\":14723:15385  function _approve(address to, uint256 tokenId, address auth, bool emitEvent) internal virtual {... */\n    tag_218:\n        /* \"mainnet/0x8a90CAb2b38dba80c64b7734e58Ee1dB38B8992e/@openzeppelin/contracts/token/ERC721/ERC721.sol\":14883:14892  emitEvent */\n      dup1\n        /* \"mainnet/0x8a90CAb2b38dba80c64b7734e58Ee1dB38B8992e/@openzeppelin/contracts/token/ERC721/ERC721.sol\":14883:14914  emitEvent || auth != address(0) */\n      dup1\n      tag_277\n      jumpi\n      pop\n        /* \"mainnet/0x8a90CAb2b38dba80c64b7734e58Ee1dB38B8992e/@openzeppelin/contracts/token/ERC721/ERC721.sol\":14912:14913  0 */\n      0x00\n        /* \"mainnet/0x8a90CAb2b38dba80c64b7734e58Ee1dB38B8992e/@openzeppelin/contracts/token/ERC721/ERC721.sol\":14896:14914  auth != address(0) */\n      0xffffffffffffffffffffffffffffffffffffffff\n      and\n        /* \"mainnet/0x8a90CAb2b38dba80c64b7734e58Ee1dB38B8992e/@openzeppelin/contracts/token/ERC721/ERC721.sol\":14896:14900  auth */\n      dup3\n        /* \"mainnet/0x8a90CAb2b38dba80c64b7734e58Ee1dB38B8992e/@openzeppelin/contracts/token/ERC721/ERC721.sol\":14896:14914  auth != address(0) */\n      0xffffffffffffffffffffffffffffffffffffffff\n      and\n      eq\n      iszero\n        /* \"mainnet/0x8a90CAb2b38dba80c64b7734e58Ee1dB38B8992e/@openzeppelin/contracts/token/ERC721/ERC721.sol\":14883:14914  emitEvent || auth != address(0) */\n    tag_277:\n        /* \"mainnet/0x8a90CAb2b38dba80c64b7734e58Ee1dB38B8992e/@openzeppelin/contracts/token/ERC721/ERC721.sol\":14879:15339  if (emitEvent || auth != address(0)) {... */\n      iszero\n      tag_278\n      jumpi\n        /* \"mainnet/0x8a90CAb2b38dba80c64b7734e58Ee1dB38B8992e/@openzeppelin/contracts/token/ERC721/ERC721.sol\":14930:14943  address owner */\n      0x00\n        /* \"mainnet/0x8a90CAb2b38dba80c64b7734e58Ee1dB38B8992e/@openzeppelin/contracts/token/ERC721/ERC721.sol\":14946:14968  _requireOwned(tokenId) */\n      tag_279\n        /* \"mainnet/0x8a90CAb2b38dba80c64b7734e58Ee1dB38B8992e/@openzeppelin/contracts/token/ERC721/ERC721.sol\":14960:14967  tokenId */\n      dup5\n        /* \"mainnet/0x8a90CAb2b38dba80c64b7734e58Ee1dB38B8992e/@openzeppelin/contracts/token/ERC721/ERC721.sol\":14946:14959  _requireOwned */\n      tag_119\n        /* \"mainnet/0x8a90CAb2b38dba80c64b7734e58Ee1dB38B8992e/@openzeppelin/contracts/token/ERC721/ERC721.sol\":14946:14968  _requireOwned(tokenId) */\n      jump\t// in\n    tag_279:\n        /* \"mainnet/0x8a90CAb2b38dba80c64b7734e58Ee1dB38B8992e/@openzeppelin/contracts/token/ERC721/ERC721.sol\":14930:14968  address owner = _requireOwned(tokenId) */\n      swap1\n      pop\n        /* \"mainnet/0x8a90CAb2b38dba80c64b7734e58Ee1dB38B8992e/@openzeppelin/contracts/token/ERC721/ERC721.sol\":15112:15113  0 */\n      0x00\n        /* \"mainnet/0x8a90CAb2b38dba80c64b7734e58Ee1dB38B8992e/@openzeppelin/contracts/token/ERC721/ERC721.sol\":15096:15114  auth != address(0) */\n      0xffffffffffffffffffffffffffffffffffffffff\n      and\n        /* \"mainnet/0x8a90CAb2b38dba80c64b7734e58Ee1dB38B8992e/@openzeppelin/contracts/token/ERC721/ERC721.sol\":15096:15100  auth */\n      dup4\n        /* \"mainnet/0x8a90CAb2b38dba80c64b7734e58Ee1dB38B8992e/@openzeppelin/contracts/token/ERC721/ERC721.sol\":15096:15114  auth != address(0) */\n      0xffffffffffffffffffffffffffffffffffffffff\n      and\n      eq\n      iszero\n        /* \"mainnet/0x8a90CAb2b38dba80c64b7734e58Ee1dB38B8992e/@openzeppelin/contracts/token/ERC721/ERC721.sol\":15096:15131  auth != address(0) && owner != auth */\n      dup1\n      iszero\n      tag_280\n      jumpi\n      pop\n        /* \"mainnet/0x8a90CAb2b38dba80c64b7734e58Ee1dB38B8992e/@openzeppelin/contracts/token/ERC721/ERC721.sol\":15127:15131  auth */\n      dup3\n        /* \"mainnet/0x8a90CAb2b38dba80c64b7734e58Ee1dB38B8992e/@openzeppelin/contracts/token/ERC721/ERC721.sol\":15118:15131  owner != auth */\n      0xffffffffffffffffffffffffffffffffffffffff\n      and\n        /* \"mainnet/0x8a90CAb2b38dba80c64b7734e58Ee1dB38B8992e/@openzeppelin/contracts/token/ERC721/ERC721.sol\":15118:15123  owner */\n      dup2\n        /* \"mainnet/0x8a90CAb2b38dba80c64b7734e58Ee1dB38B8992e/@openzeppelin/contracts/token/ERC721/ERC721.sol\":15118:15131  owner != auth */\n      0xffffffffffffffffffffffffffffffffffffffff\n      and\n      eq\n      iszero\n        /* \"mainnet/0x8a90CAb2b38dba80c64b7734e58Ee1dB38B8992e/@openzeppelin/contracts/token/ERC721/ERC721.sol\":15096:15131  auth != address(0) && owner != auth */\n    tag_280:\n        /* \"mainnet/0x8a90CAb2b38dba80c64b7734e58Ee1dB38B8992e/@openzeppelin/contracts/token/ERC721/ERC721.sol\":15096:15165  auth != address(0) && owner != auth && !isApprovedForAll(owner, auth) */\n      dup1\n      iszero\n      tag_281\n      jumpi\n      pop\n        /* \"mainnet/0x8a90CAb2b38dba80c64b7734e58Ee1dB38B8992e/@openzeppelin/contracts/token/ERC721/ERC721.sol\":15136:15165  isApprovedForAll(owner, auth) */\n      tag_282\n        /* \"mainnet/0x8a90CAb2b38dba80c64b7734e58Ee1dB38B8992e/@openzeppelin/contracts/token/ERC721/ERC721.sol\":15153:15158  owner */\n      dup2\n        /* \"mainnet/0x8a90CAb2b38dba80c64b7734e58Ee1dB38B8992e/@openzeppelin/contracts/token/ERC721/ERC721.sol\":15160:15164  auth */\n      dup5\n        /* \"mainnet/0x8a90CAb2b38dba80c64b7734e58Ee1dB38B8992e/@openzeppelin/contracts/token/ERC721/ERC721.sol\":15136:15152  isApprovedForAll */\n      tag_97\n        /* \"mainnet/0x8a90CAb2b38dba80c64b7734e58Ee1dB38B8992e/@openzeppelin/contracts/token/ERC721/ERC721.sol\":15136:15165  isApprovedForAll(owner, auth) */\n      jump\t// in\n    tag_282:\n        /* \"mainnet/0x8a90CAb2b38dba80c64b7734e58Ee1dB38B8992e/@openzeppelin/contracts/token/ERC721/ERC721.sol\":15135:15165  !isApprovedForAll(owner, auth) */\n      iszero\n        /* \"mainnet/0x8a90CAb2b38dba80c64b7734e58Ee1dB38B8992e/@openzeppelin/contracts/token/ERC721/ERC721.sol\":15096:15165  auth != address(0) && owner != auth && !isApprovedForAll(owner, auth) */\n    tag_281:\n        /* \"mainnet/0x8a90CAb2b38dba80c64b7734e58Ee1dB38B8992e/@openzeppelin/contracts/token/ERC721/ERC721.sol\":15092:15234  if (auth != address(0) && owner != auth && !isApprovedForAll(owner, auth)) {... */\n      iszero\n      tag_283\n      jumpi\n        /* \"mainnet/0x8a90CAb2b38dba80c64b7734e58Ee1dB38B8992e/@openzeppelin/contracts/token/ERC721/ERC721.sol\":15214:15218  auth */\n      dup3\n        /* \"mainnet/0x8a90CAb2b38dba80c64b7734e58Ee1dB38B8992e/@openzeppelin/contracts/token/ERC721/ERC721.sol\":15192:15219  ERC721InvalidApprover(auth) */\n      mload(0x40)\n      0xa9fbf51f00000000000000000000000000000000000000000000000000000000\n      dup2\n      mstore\n      0x04\n      add\n      tag_284\n      swap2\n      swap1\n      tag_41\n      jump\t// in\n    tag_284:\n      mload(0x40)\n      dup1\n      swap2\n      sub\n      swap1\n      revert\n        /* \"mainnet/0x8a90CAb2b38dba80c64b7734e58Ee1dB38B8992e/@openzeppelin/contracts/token/ERC721/ERC721.sol\":15092:15234  if (auth != address(0) && owner != auth && !isApprovedForAll(owner, auth)) {... */\n    tag_283:\n        /* \"mainnet/0x8a90CAb2b38dba80c64b7734e58Ee1dB38B8992e/@openzeppelin/contracts/token/ERC721/ERC721.sol\":15252:15261  emitEvent */\n      dup2\n        /* \"mainnet/0x8a90CAb2b38dba80c64b7734e58Ee1dB38B8992e/@openzeppelin/contracts/token/ERC721/ERC721.sol\":15248:15329  if (emitEvent) {... */\n      iszero\n      tag_285\n      jumpi\n        /* \"mainnet/0x8a90CAb2b38dba80c64b7734e58Ee1dB38B8992e/@openzeppelin/contracts/token/ERC721/ERC721.sol\":15306:15313  tokenId */\n      dup4\n        /* \"mainnet/0x8a90CAb2b38dba80c64b7734e58Ee1dB38B8992e/@openzeppelin/contracts/token/ERC721/ERC721.sol\":15302:15304  to */\n      dup6\n        /* \"mainnet/0x8a90CAb2b38dba80c64b7734e58Ee1dB38B8992e/@openzeppelin/contracts/token/ERC721/ERC721.sol\":15286:15314  Approval(owner, to, tokenId) */\n      0xffffffffffffffffffffffffffffffffffffffff\n      and\n        /* \"mainnet/0x8a90CAb2b38dba80c64b7734e58Ee1dB38B8992e/@openzeppelin/contracts/token/ERC721/ERC721.sol\":15295:15300  owner */\n      dup3\n        /* \"mainnet/0x8a90CAb2b38dba80c64b7734e58Ee1dB38B8992e/@openzeppelin/contracts/token/ERC721/ERC721.sol\":15286:15314  Approval(owner, to, tokenId) */\n      0xffffffffffffffffffffffffffffffffffffffff\n      and\n      0x8c5be1e5ebec7d5bd14f71427d1e84f3dd0314c0f7b2291e5b200ac8c7c3b925\n      mload(0x40)\n      mload(0x40)\n      dup1\n      swap2\n      sub\n      swap1\n      log4\n        /* \"mainnet/0x8a90CAb2b38dba80c64b7734e58Ee1dB38B8992e/@openzeppelin/contracts/token/ERC721/ERC721.sol\":15248:15329  if (emitEvent) {... */\n    tag_285:\n        /* \"mainnet/0x8a90CAb2b38dba80c64b7734e58Ee1dB38B8992e/@openzeppelin/contracts/token/ERC721/ERC721.sol\":14916:15339  {... */\n      pop\n        /* \"mainnet/0x8a90CAb2b38dba80c64b7734e58Ee1dB38B8992e/@openzeppelin/contracts/token/ERC721/ERC721.sol\":14879:15339  if (emitEvent || auth != address(0)) {... */\n    tag_278:\n        /* \"mainnet/0x8a90CAb2b38dba80c64b7734e58Ee1dB38B8992e/@openzeppelin/contracts/token/ERC721/ERC721.sol\":15376:15378  to */\n      dup4\n        /* \"mainnet/0x8a90CAb2b38dba80c64b7734e58Ee1dB38B8992e/@openzeppelin/contracts/token/ERC721/ERC721.sol\":15349:15364  _tokenApprovals */\n      0x04\n        /* \"mainnet/0x8a90CAb2b38dba80c64b7734e58Ee1dB38B8992e/@openzeppelin/contracts/token/ERC721/ERC721.sol\":15349:15373  _tokenApprovals[tokenId] */\n      0x00\n        /* \"mainnet/0x8a90CAb2b38dba80c64b7734e58Ee1dB38B8992e/@openzeppelin/contracts/token/ERC721/ERC721.sol\":15365:15372  tokenId */\n      dup6\n        /* \"mainnet/0x8a90CAb2b38dba80c64b7734e58Ee1dB38B8992e/@openzeppelin/contracts/token/ERC721/ERC721.sol\":15349:15373  _tokenApprovals[tokenId] */\n      dup2\n      mstore\n      0x20\n      add\n      swap1\n      dup2\n      mstore\n      0x20\n      add\n      0x00\n      keccak256\n      0x00\n        /* \"mainnet/0x8a90CAb2b38dba80c64b7734e58Ee1dB38B8992e/@openzeppelin/contracts/token/ERC721/ERC721.sol\":15349:15378  _tokenApprovals[tokenId] = to */\n      0x0100\n      exp\n      dup2\n      sload\n      dup2\n      0xffffffffffffffffffffffffffffffffffffffff\n      mul\n      not\n      and\n      swap1\n      dup4\n      0xffffffffffffffffffffffffffffffffffffffff\n      and\n      mul\n      or\n      swap1\n      sstore\n      pop\n        /* \"mainnet/0x8a90CAb2b38dba80c64b7734e58Ee1dB38B8992e/@openzeppelin/contracts/token/ERC721/ERC721.sol\":14723:15385  function _approve(address to, uint256 tokenId, address auth, bool emitEvent) internal virtual {... */\n      pop\n      pop\n      pop\n      pop\n      jump\t// out\n        /* \"mainnet/0x8a90CAb2b38dba80c64b7734e58Ee1dB38B8992e/@openzeppelin/contracts/token/ERC721/ERC721.sol\":7084:7452  function _checkAuthorized(address owner, address spender, uint256 tokenId) internal view virtual {... */\n    tag_229:\n        /* \"mainnet/0x8a90CAb2b38dba80c64b7734e58Ee1dB38B8992e/@openzeppelin/contracts/token/ERC721/ERC721.sol\":7196:7234  _isAuthorized(owner, spender, tokenId) */\n      tag_287\n        /* \"mainnet/0x8a90CAb2b38dba80c64b7734e58Ee1dB38B8992e/@openzeppelin/contracts/token/ERC721/ERC721.sol\":7210:7215  owner */\n      dup4\n        /* \"mainnet/0x8a90CAb2b38dba80c64b7734e58Ee1dB38B8992e/@openzeppelin/contracts/token/ERC721/ERC721.sol\":7217:7224  spender */\n      dup4\n        /* \"mainnet/0x8a90CAb2b38dba80c64b7734e58Ee1dB38B8992e/@openzeppelin/contracts/token/ERC721/ERC721.sol\":7226:7233  tokenId */\n      dup4\n        /* \"mainnet/0x8a90CAb2b38dba80c64b7734e58Ee1dB38B8992e/@openzeppelin/contracts/token/ERC721/ERC721.sol\":7196:7209  _isAuthorized */\n      tag_288\n        /* \"mainnet/0x8a90CAb2b38dba80c64b7734e58Ee1dB38B8992e/@openzeppelin/contracts/token/ERC721/ERC721.sol\":7196:7234  _isAuthorized(owner, spender, tokenId) */\n      jump\t// in\n    tag_287:\n        /* \"mainnet/0x8a90CAb2b38dba80c64b7734e58Ee1dB38B8992e/@openzeppelin/contracts/token/ERC721/ERC721.sol\":7191:7446  if (!_isAuthorized(owner, spender, tokenId)) {... */\n      tag_289\n      jumpi\n        /* \"mainnet/0x8a90CAb2b38dba80c64b7734e58Ee1dB38B8992e/@openzeppelin/contracts/token/ERC721/ERC721.sol\":7271:7272  0 */\n      0x00\n        /* \"mainnet/0x8a90CAb2b38dba80c64b7734e58Ee1dB38B8992e/@openzeppelin/contracts/token/ERC721/ERC721.sol\":7254:7273  owner == address(0) */\n      0xffffffffffffffffffffffffffffffffffffffff\n      and\n        /* \"mainnet/0x8a90CAb2b38dba80c64b7734e58Ee1dB38B8992e/@openzeppelin/contracts/token/ERC721/ERC721.sol\":7254:7259  owner */\n      dup4\n        /* \"mainnet/0x8a90CAb2b38dba80c64b7734e58Ee1dB38B8992e/@openzeppelin/contracts/token/ERC721/ERC721.sol\":7254:7273  owner == address(0) */\n      0xffffffffffffffffffffffffffffffffffffffff\n      and\n      sub\n        /* \"mainnet/0x8a90CAb2b38dba80c64b7734e58Ee1dB38B8992e/@openzeppelin/contracts/token/ERC721/ERC721.sol\":7250:7436  if (owner == address(0)) {... */\n      tag_290\n      jumpi\n        /* \"mainnet/0x8a90CAb2b38dba80c64b7734e58Ee1dB38B8992e/@openzeppelin/contracts/token/ERC721/ERC721.sol\":7323:7330  tokenId */\n      dup1\n        /* \"mainnet/0x8a90CAb2b38dba80c64b7734e58Ee1dB38B8992e/@openzeppelin/contracts/token/ERC721/ERC721.sol\":7300:7331  ERC721NonexistentToken(tokenId) */\n      mload(0x40)\n      0x7e27328900000000000000000000000000000000000000000000000000000000\n      dup2\n      mstore\n      0x04\n      add\n      tag_291\n      swap2\n      swap1\n      tag_65\n      jump\t// in\n    tag_291:\n      mload(0x40)\n      dup1\n      swap2\n      sub\n      swap1\n      revert\n        /* \"mainnet/0x8a90CAb2b38dba80c64b7734e58Ee1dB38B8992e/@openzeppelin/contracts/token/ERC721/ERC721.sol\":7250:7436  if (owner == address(0)) {... */\n    tag_290:\n        /* \"mainnet/0x8a90CAb2b38dba80c64b7734e58Ee1dB38B8992e/@openzeppelin/contracts/token/ERC721/ERC721.sol\":7404:7411  spender */\n      dup2\n        /* \"mainnet/0x8a90CAb2b38dba80c64b7734e58Ee1dB38B8992e/@openzeppelin/contracts/token/ERC721/ERC721.sol\":7413:7420  tokenId */\n      dup2\n        /* \"mainnet/0x8a90CAb2b38dba80c64b7734e58Ee1dB38B8992e/@openzeppelin/contracts/token/ERC721/ERC721.sol\":7377:7421  ERC721InsufficientApproval(spender, tokenId) */\n      mload(0x40)\n      0x177e802f00000000000000000000000000000000000000000000000000000000\n      dup2\n      mstore\n      0x04\n      add\n      tag_293\n      swap3\n      swap2\n      swap1\n      tag_294\n      jump\t// in\n    tag_293:\n      mload(0x40)\n      dup1\n      swap2\n      sub\n      swap1\n      revert\n        /* \"mainnet/0x8a90CAb2b38dba80c64b7734e58Ee1dB38B8992e/@openzeppelin/contracts/token/ERC721/ERC721.sol\":7191:7446  if (!_isAuthorized(owner, spender, tokenId)) {... */\n    tag_289:\n        /* \"mainnet/0x8a90CAb2b38dba80c64b7734e58Ee1dB38B8992e/@openzeppelin/contracts/token/ERC721/ERC721.sol\":7084:7452  function _checkAuthorized(address owner, address spender, uint256 tokenId) internal view virtual {... */\n      pop\n      pop\n      pop\n      jump\t// out\n        /* \"mainnet/0x8a90CAb2b38dba80c64b7734e58Ee1dB38B8992e/@openzeppelin/contracts/utils/Strings.sol\":637:1335  function toString(uint256 value) internal pure returns (string memory) {... */\n    tag_265:\n        /* \"mainnet/0x8a90CAb2b38dba80c64b7734e58Ee1dB38B8992e/@openzeppelin/contracts/utils/Strings.sol\":693:706  string memory */\n      0x60\n        /* \"mainnet/0x8a90CAb2b38dba80c64b7734e58Ee1dB38B8992e/@openzeppelin/contracts/utils/Strings.sol\":742:756  uint256 length */\n      0x00\n        /* \"mainnet/0x8a90CAb2b38dba80c64b7734e58Ee1dB38B8992e/@openzeppelin/contracts/utils/Strings.sol\":779:780  1 */\n      0x01\n        /* \"mainnet/0x8a90CAb2b38dba80c64b7734e58Ee1dB38B8992e/@openzeppelin/contracts/utils/Strings.sol\":759:776  Math.log10(value) */\n      tag_296\n        /* \"mainnet/0x8a90CAb2b38dba80c64b7734e58Ee1dB38B8992e/@openzeppelin/contracts/utils/Strings.sol\":770:775  value */\n      dup5\n        /* \"mainnet/0x8a90CAb2b38dba80c64b7734e58Ee1dB38B8992e/@openzeppelin/contracts/utils/Strings.sol\":759:769  Math.log10 */\n      tag_297\n        /* \"mainnet/0x8a90CAb2b38dba80c64b7734e58Ee1dB38B8992e/@openzeppelin/contracts/utils/Strings.sol\":759:776  Math.log10(value) */\n      jump\t// in\n    tag_296:\n        /* \"mainnet/0x8a90CAb2b38dba80c64b7734e58Ee1dB38B8992e/@openzeppelin/contracts/utils/Strings.sol\":759:780  Math.log10(value) + 1 */\n      add\n        /* \"mainnet/0x8a90CAb2b38dba80c64b7734e58Ee1dB38B8992e/@openzeppelin/contracts/utils/Strings.sol\":742:780  uint256 length = Math.log10(value) + 1 */\n      swap1\n      pop\n        /* \"mainnet/0x8a90CAb2b38dba80c64b7734e58Ee1dB38B8992e/@openzeppelin/contracts/utils/Strings.sol\":794:814  string memory buffer */\n      0x00\n        /* \"mainnet/0x8a90CAb2b38dba80c64b7734e58Ee1dB38B8992e/@openzeppelin/contracts/utils/Strings.sol\":828:834  length */\n      dup2\n        /* \"mainnet/0x8a90CAb2b38dba80c64b7734e58Ee1dB38B8992e/@openzeppelin/contracts/utils/Strings.sol\":817:835  new string(length) */\n      0xffffffffffffffff\n      dup2\n      gt\n      iszero\n      tag_298\n      jumpi\n      tag_299\n      tag_300\n      jump\t// in\n    tag_299:\n    tag_298:\n      mload(0x40)\n      swap1\n      dup1\n      dup3\n      mstore\n      dup1\n      0x1f\n      add\n      not(0x1f)\n      and\n      0x20\n      add\n      dup3\n      add\n      0x40\n      mstore\n      dup1\n      iszero\n      tag_301\n      jumpi\n      dup2\n      0x20\n      add\n      0x01\n      dup3\n      mul\n      dup1\n      calldatasize\n      dup4\n      calldatacopy\n      dup1\n      dup3\n      add\n      swap2\n      pop\n      pop\n      swap1\n      pop\n    tag_301:\n      pop\n        /* \"mainnet/0x8a90CAb2b38dba80c64b7734e58Ee1dB38B8992e/@openzeppelin/contracts/utils/Strings.sol\":794:835  string memory buffer = new string(length) */\n      swap1\n      pop\n        /* \"mainnet/0x8a90CAb2b38dba80c64b7734e58Ee1dB38B8992e/@openzeppelin/contracts/utils/Strings.sol\":849:860  uint256 ptr */\n      0x00\n        /* \"mainnet/0x8a90CAb2b38dba80c64b7734e58Ee1dB38B8992e/@openzeppelin/contracts/utils/Strings.sol\":975:981  length */\n      dup3\n        /* \"mainnet/0x8a90CAb2b38dba80c64b7734e58Ee1dB38B8992e/@openzeppelin/contracts/utils/Strings.sol\":971:973  32 */\n      0x20\n        /* \"mainnet/0x8a90CAb2b38dba80c64b7734e58Ee1dB38B8992e/@openzeppelin/contracts/utils/Strings.sol\":967:982  add(32, length) */\n      add\n        /* \"mainnet/0x8a90CAb2b38dba80c64b7734e58Ee1dB38B8992e/@openzeppelin/contracts/utils/Strings.sol\":959:965  buffer */\n      dup3\n        /* \"mainnet/0x8a90CAb2b38dba80c64b7734e58Ee1dB38B8992e/@openzeppelin/contracts/utils/Strings.sol\":955:983  add(buffer, add(32, length)) */\n      add\n        /* \"mainnet/0x8a90CAb2b38dba80c64b7734e58Ee1dB38B8992e/@openzeppelin/contracts/utils/Strings.sol\":948:983  ptr := add(buffer, add(32, length)) */\n      swap1\n      pop\n        /* \"mainnet/0x8a90CAb2b38dba80c64b7734e58Ee1dB38B8992e/@openzeppelin/contracts/utils/Strings.sol\":1010:1292  while (true) {... */\n    tag_302:\n        /* \"mainnet/0x8a90CAb2b38dba80c64b7734e58Ee1dB38B8992e/@openzeppelin/contracts/utils/Strings.sol\":1017:1021  true */\n      0x01\n        /* \"mainnet/0x8a90CAb2b38dba80c64b7734e58Ee1dB38B8992e/@openzeppelin/contracts/utils/Strings.sol\":1010:1292  while (true) {... */\n      iszero\n      tag_303\n      jumpi\n        /* \"mainnet/0x8a90CAb2b38dba80c64b7734e58Ee1dB38B8992e/@openzeppelin/contracts/utils/Strings.sol\":1041:1046  ptr-- */\n      dup1\n      dup1\n      0x01\n      swap1\n      sub\n      swap2\n      pop\n      pop\n        /* \"mainnet/0x8a90CAb2b38dba80c64b7734e58Ee1dB38B8992e/@openzeppelin/contracts/utils/Strings.sol\":1180:1190  HEX_DIGITS */\n      0x3031323334353637383961626364656600000000000000000000000000000000\n        /* \"mainnet/0x8a90CAb2b38dba80c64b7734e58Ee1dB38B8992e/@openzeppelin/contracts/utils/Strings.sol\":1175:1177  10 */\n      0x0a\n        /* \"mainnet/0x8a90CAb2b38dba80c64b7734e58Ee1dB38B8992e/@openzeppelin/contracts/utils/Strings.sol\":1168:1173  value */\n      dup7\n        /* \"mainnet/0x8a90CAb2b38dba80c64b7734e58Ee1dB38B8992e/@openzeppelin/contracts/utils/Strings.sol\":1164:1178  mod(value, 10) */\n      mod\n        /* \"mainnet/0x8a90CAb2b38dba80c64b7734e58Ee1dB38B8992e/@openzeppelin/contracts/utils/Strings.sol\":1159:1191  byte(mod(value, 10), HEX_DIGITS) */\n      byte\n        /* \"mainnet/0x8a90CAb2b38dba80c64b7734e58Ee1dB38B8992e/@openzeppelin/contracts/utils/Strings.sol\":1154:1157  ptr */\n      dup2\n        /* \"mainnet/0x8a90CAb2b38dba80c64b7734e58Ee1dB38B8992e/@openzeppelin/contracts/utils/Strings.sol\":1146:1192  mstore8(ptr, byte(mod(value, 10), HEX_DIGITS)) */\n      mstore8\n        /* \"mainnet/0x8a90CAb2b38dba80c64b7734e58Ee1dB38B8992e/@openzeppelin/contracts/utils/Strings.sol\":1236:1238  10 */\n      0x0a\n        /* \"mainnet/0x8a90CAb2b38dba80c64b7734e58Ee1dB38B8992e/@openzeppelin/contracts/utils/Strings.sol\":1227:1238  value /= 10 */\n      dup6\n      dup2\n      tag_304\n      jumpi\n      tag_305\n      tag_306\n      jump\t// in\n    tag_305:\n    tag_304:\n      div\n      swap5\n      pop\n        /* \"mainnet/0x8a90CAb2b38dba80c64b7734e58Ee1dB38B8992e/@openzeppelin/contracts/utils/Strings.sol\":1269:1270  0 */\n      0x00\n        /* \"mainnet/0x8a90CAb2b38dba80c64b7734e58Ee1dB38B8992e/@openzeppelin/contracts/utils/Strings.sol\":1260:1265  value */\n      dup6\n        /* \"mainnet/0x8a90CAb2b38dba80c64b7734e58Ee1dB38B8992e/@openzeppelin/contracts/utils/Strings.sol\":1260:1270  value == 0 */\n      sub\n        /* \"mainnet/0x8a90CAb2b38dba80c64b7734e58Ee1dB38B8992e/@openzeppelin/contracts/utils/Strings.sol\":1010:1292  while (true) {... */\n      tag_302\n        /* \"mainnet/0x8a90CAb2b38dba80c64b7734e58Ee1dB38B8992e/@openzeppelin/contracts/utils/Strings.sol\":1256:1277  if (value == 0) break */\n      jumpi\n        /* \"mainnet/0x8a90CAb2b38dba80c64b7734e58Ee1dB38B8992e/@openzeppelin/contracts/utils/Strings.sol\":1010:1292  while (true) {... */\n    tag_303:\n        /* \"mainnet/0x8a90CAb2b38dba80c64b7734e58Ee1dB38B8992e/@openzeppelin/contracts/utils/Strings.sol\":1312:1318  buffer */\n      dup2\n        /* \"mainnet/0x8a90CAb2b38dba80c64b7734e58Ee1dB38B8992e/@openzeppelin/contracts/utils/Strings.sol\":1305:1318  return buffer */\n      swap4\n      pop\n      pop\n      pop\n      pop\n        /* \"mainnet/0x8a90CAb2b38dba80c64b7734e58Ee1dB38B8992e/@openzeppelin/contracts/utils/Strings.sol\":637:1335  function toString(uint256 value) internal pure returns (string memory) {... */\n      swap2\n      swap1\n      pop\n      jump\t// out\n        /* \"mainnet/0x8a90CAb2b38dba80c64b7734e58Ee1dB38B8992e/@openzeppelin/contracts/token/ERC721/ERC721.sol\":10956:11138  function _safeMint(address to, uint256 tokenId, bytes memory data) internal virtual {... */\n    tag_269:\n        /* \"mainnet/0x8a90CAb2b38dba80c64b7734e58Ee1dB38B8992e/@openzeppelin/contracts/token/ERC721/ERC721.sol\":11050:11068  _mint(to, tokenId) */\n      tag_309\n        /* \"mainnet/0x8a90CAb2b38dba80c64b7734e58Ee1dB38B8992e/@openzeppelin/contracts/token/ERC721/ERC721.sol\":11056:11058  to */\n      dup4\n        /* \"mainnet/0x8a90CAb2b38dba80c64b7734e58Ee1dB38B8992e/@openzeppelin/contracts/token/ERC721/ERC721.sol\":11060:11067  tokenId */\n      dup4\n        /* \"mainnet/0x8a90CAb2b38dba80c64b7734e58Ee1dB38B8992e/@openzeppelin/contracts/token/ERC721/ERC721.sol\":11050:11055  _mint */\n      tag_310\n        /* \"mainnet/0x8a90CAb2b38dba80c64b7734e58Ee1dB38B8992e/@openzeppelin/contracts/token/ERC721/ERC721.sol\":11050:11068  _mint(to, tokenId) */\n      jump\t// in\n    tag_309:\n        /* \"mainnet/0x8a90CAb2b38dba80c64b7734e58Ee1dB38B8992e/@openzeppelin/contracts/token/ERC721/ERC721.sol\":11078:11131  _checkOnERC721Received(address(0), to, tokenId, data) */\n      tag_311\n        /* \"mainnet/0x8a90CAb2b38dba80c64b7734e58Ee1dB38B8992e/@openzeppelin/contracts/token/ERC721/ERC721.sol\":11109:11110  0 */\n      0x00\n        /* \"mainnet/0x8a90CAb2b38dba80c64b7734e58Ee1dB38B8992e/@openzeppelin/contracts/token/ERC721/ERC721.sol\":11113:11115  to */\n      dup5\n        /* \"mainnet/0x8a90CAb2b38dba80c64b7734e58Ee1dB38B8992e/@openzeppelin/contracts/token/ERC721/ERC721.sol\":11117:11124  tokenId */\n      dup5\n        /* \"mainnet/0x8a90CAb2b38dba80c64b7734e58Ee1dB38B8992e/@openzeppelin/contracts/token/ERC721/ERC721.sol\":11126:11130  data */\n      dup5\n        /* \"mainnet/0x8a90CAb2b38dba80c64b7734e58Ee1dB38B8992e/@openzeppelin/contracts/token/ERC721/ERC721.sol\":11078:11100  _checkOnERC721Received */\n      tag_166\n        /* \"mainnet/0x8a90CAb2b38dba80c64b7734e58Ee1dB38B8992e/@openzeppelin/contracts/token/ERC721/ERC721.sol\":11078:11131  _checkOnERC721Received(address(0), to, tokenId, data) */\n      jump\t// in\n    tag_311:\n        /* \"mainnet/0x8a90CAb2b38dba80c64b7734e58Ee1dB38B8992e/@openzeppelin/contracts/token/ERC721/ERC721.sol\":10956:11138  function _safeMint(address to, uint256 tokenId, bytes memory data) internal virtual {... */\n      pop\n      pop\n      pop\n      jump\t// out\n        /* \"mainnet/0x8a90CAb2b38dba80c64b7734e58Ee1dB38B8992e/@openzeppelin/contracts/token/ERC721/ERC721.sol\":6378:6650  function _isAuthorized(address owner, address spender, uint256 tokenId) internal view virtual returns (bool) {... */\n    tag_288:\n        /* \"mainnet/0x8a90CAb2b38dba80c64b7734e58Ee1dB38B8992e/@openzeppelin/contracts/token/ERC721/ERC721.sol\":6481:6485  bool */\n      0x00\n        /* \"mainnet/0x8a90CAb2b38dba80c64b7734e58Ee1dB38B8992e/@openzeppelin/contracts/token/ERC721/ERC721.sol\":6535:6536  0 */\n      dup1\n        /* \"mainnet/0x8a90CAb2b38dba80c64b7734e58Ee1dB38B8992e/@openzeppelin/contracts/token/ERC721/ERC721.sol\":6516:6537  spender != address(0) */\n      0xffffffffffffffffffffffffffffffffffffffff\n      and\n        /* \"mainnet/0x8a90CAb2b38dba80c64b7734e58Ee1dB38B8992e/@openzeppelin/contracts/token/ERC721/ERC721.sol\":6516:6523  spender */\n      dup4\n        /* \"mainnet/0x8a90CAb2b38dba80c64b7734e58Ee1dB38B8992e/@openzeppelin/contracts/token/ERC721/ERC721.sol\":6516:6537  spender != address(0) */\n      0xffffffffffffffffffffffffffffffffffffffff\n      and\n      eq\n      iszero\n        /* \"mainnet/0x8a90CAb2b38dba80c64b7734e58Ee1dB38B8992e/@openzeppelin/contracts/token/ERC721/ERC721.sol\":6516:6643  spender != address(0) &&... */\n      dup1\n      iszero\n      tag_313\n      jumpi\n      pop\n        /* \"mainnet/0x8a90CAb2b38dba80c64b7734e58Ee1dB38B8992e/@openzeppelin/contracts/token/ERC721/ERC721.sol\":6563:6570  spender */\n      dup3\n        /* \"mainnet/0x8a90CAb2b38dba80c64b7734e58Ee1dB38B8992e/@openzeppelin/contracts/token/ERC721/ERC721.sol\":6554:6570  owner == spender */\n      0xffffffffffffffffffffffffffffffffffffffff\n      and\n        /* \"mainnet/0x8a90CAb2b38dba80c64b7734e58Ee1dB38B8992e/@openzeppelin/contracts/token/ERC721/ERC721.sol\":6554:6559  owner */\n      dup5\n        /* \"mainnet/0x8a90CAb2b38dba80c64b7734e58Ee1dB38B8992e/@openzeppelin/contracts/token/ERC721/ERC721.sol\":6554:6570  owner == spender */\n      0xffffffffffffffffffffffffffffffffffffffff\n      and\n      eq\n        /* \"mainnet/0x8a90CAb2b38dba80c64b7734e58Ee1dB38B8992e/@openzeppelin/contracts/token/ERC721/ERC721.sol\":6554:6606  owner == spender || isApprovedForAll(owner, spender) */\n      dup1\n      tag_314\n      jumpi\n      pop\n        /* \"mainnet/0x8a90CAb2b38dba80c64b7734e58Ee1dB38B8992e/@openzeppelin/contracts/token/ERC721/ERC721.sol\":6574:6606  isApprovedForAll(owner, spender) */\n      tag_315\n        /* \"mainnet/0x8a90CAb2b38dba80c64b7734e58Ee1dB38B8992e/@openzeppelin/contracts/token/ERC721/ERC721.sol\":6591:6596  owner */\n      dup5\n        /* \"mainnet/0x8a90CAb2b38dba80c64b7734e58Ee1dB38B8992e/@openzeppelin/contracts/token/ERC721/ERC721.sol\":6598:6605  spender */\n      dup5\n        /* \"mainnet/0x8a90CAb2b38dba80c64b7734e58Ee1dB38B8992e/@openzeppelin/contracts/token/ERC721/ERC721.sol\":6574:6590  isApprovedForAll */\n      tag_97\n        /* \"mainnet/0x8a90CAb2b38dba80c64b7734e58Ee1dB38B8992e/@openzeppelin/contracts/token/ERC721/ERC721.sol\":6574:6606  isApprovedForAll(owner, spender) */\n      jump\t// in\n    tag_315:\n        /* \"mainnet/0x8a90CAb2b38dba80c64b7734e58Ee1dB38B8992e/@openzeppelin/contracts/token/ERC721/ERC721.sol\":6554:6606  owner == spender || isApprovedForAll(owner, spender) */\n    tag_314:\n        /* \"mainnet/0x8a90CAb2b38dba80c64b7734e58Ee1dB38B8992e/@openzeppelin/contracts/token/ERC721/ERC721.sol\":6554:6642  owner == spender || isApprovedForAll(owner, spender) || _getApproved(tokenId) == spender */\n      dup1\n      tag_316\n      jumpi\n      pop\n        /* \"mainnet/0x8a90CAb2b38dba80c64b7734e58Ee1dB38B8992e/@openzeppelin/contracts/token/ERC721/ERC721.sol\":6635:6642  spender */\n      dup3\n        /* \"mainnet/0x8a90CAb2b38dba80c64b7734e58Ee1dB38B8992e/@openzeppelin/contracts/token/ERC721/ERC721.sol\":6610:6642  _getApproved(tokenId) == spender */\n      0xffffffffffffffffffffffffffffffffffffffff\n      and\n        /* \"mainnet/0x8a90CAb2b38dba80c64b7734e58Ee1dB38B8992e/@openzeppelin/contracts/token/ERC721/ERC721.sol\":6610:6631  _getApproved(tokenId) */\n      tag_317\n        /* \"mainnet/0x8a90CAb2b38dba80c64b7734e58Ee1dB38B8992e/@openzeppelin/contracts/token/ERC721/ERC721.sol\":6623:6630  tokenId */\n      dup4\n        /* \"mainnet/0x8a90CAb2b38dba80c64b7734e58Ee1dB38B8992e/@openzeppelin/contracts/token/ERC721/ERC721.sol\":6610:6622  _getApproved */\n      tag_121\n        /* \"mainnet/0x8a90CAb2b38dba80c64b7734e58Ee1dB38B8992e/@openzeppelin/contracts/token/ERC721/ERC721.sol\":6610:6631  _getApproved(tokenId) */\n      jump\t// in\n    tag_317:\n        /* \"mainnet/0x8a90CAb2b38dba80c64b7734e58Ee1dB38B8992e/@openzeppelin/contracts/token/ERC721/ERC721.sol\":6610:6642  _getApproved(tokenId) == spender */\n      0xffffffffffffffffffffffffffffffffffffffff\n      and\n      eq\n        /* \"mainnet/0x8a90CAb2b38dba80c64b7734e58Ee1dB38B8992e/@openzeppelin/contracts/token/ERC721/ERC721.sol\":6554:6642  owner == spender || isApprovedForAll(owner, spender) || _getApproved(tokenId) == spender */\n    tag_316:\n        /* \"mainnet/0x8a90CAb2b38dba80c64b7734e58Ee1dB38B8992e/@openzeppelin/contracts/token/ERC721/ERC721.sol\":6516:6643  spender != address(0) &&... */\n    tag_313:\n        /* \"mainnet/0x8a90CAb2b38dba80c64b7734e58Ee1dB38B8992e/@openzeppelin/contracts/token/ERC721/ERC721.sol\":6497:6643  return... */\n      swap1\n      pop\n        /* \"mainnet/0x8a90CAb2b38dba80c64b7734e58Ee1dB38B8992e/@openzeppelin/contracts/token/ERC721/ERC721.sol\":6378:6650  function _isAuthorized(address owner, address spender, uint256 tokenId) internal view virtual returns (bool) {... */\n      swap4\n      swap3\n      pop\n      pop\n      pop\n      jump\t// out\n        /* \"mainnet/0x8a90CAb2b38dba80c64b7734e58Ee1dB38B8992e/@openzeppelin/contracts/utils/math/Math.sol\":12690:13606  function log10(uint256 value) internal pure returns (uint256) {... */\n    tag_297:\n        /* \"mainnet/0x8a90CAb2b38dba80c64b7734e58Ee1dB38B8992e/@openzeppelin/contracts/utils/math/Math.sol\":12743:12750  uint256 */\n      0x00\n        /* \"mainnet/0x8a90CAb2b38dba80c64b7734e58Ee1dB38B8992e/@openzeppelin/contracts/utils/math/Math.sol\":12762:12776  uint256 result */\n      dup1\n        /* \"mainnet/0x8a90CAb2b38dba80c64b7734e58Ee1dB38B8992e/@openzeppelin/contracts/utils/math/Math.sol\":12779:12780  0 */\n      0x00\n        /* \"mainnet/0x8a90CAb2b38dba80c64b7734e58Ee1dB38B8992e/@openzeppelin/contracts/utils/math/Math.sol\":12762:12780  uint256 result = 0 */\n      swap1\n      pop\n        /* \"mainnet/0x8a90CAb2b38dba80c64b7734e58Ee1dB38B8992e/@openzeppelin/contracts/utils/math/Math.sol\":12827:12835  10 ** 64 */\n      0x184f03e93ff9f4daa797ed6e38ed64bf6a1f010000000000000000\n        /* \"mainnet/0x8a90CAb2b38dba80c64b7734e58Ee1dB38B8992e/@openzeppelin/contracts/utils/math/Math.sol\":12818:12823  value */\n      dup4\n        /* \"mainnet/0x8a90CAb2b38dba80c64b7734e58Ee1dB38B8992e/@openzeppelin/contracts/utils/math/Math.sol\":12818:12835  value >= 10 ** 64 */\n      lt\n        /* \"mainnet/0x8a90CAb2b38dba80c64b7734e58Ee1dB38B8992e/@openzeppelin/contracts/utils/math/Math.sol\":12814:12917  if (value >= 10 ** 64) {... */\n      tag_319\n      jumpi\n        /* \"mainnet/0x8a90CAb2b38dba80c64b7734e58Ee1dB38B8992e/@openzeppelin/contracts/utils/math/Math.sol\":12864:12872  10 ** 64 */\n      0x184f03e93ff9f4daa797ed6e38ed64bf6a1f010000000000000000\n        /* \"mainnet/0x8a90CAb2b38dba80c64b7734e58Ee1dB38B8992e/@openzeppelin/contracts/utils/math/Math.sol\":12855:12872  value /= 10 ** 64 */\n      dup4\n      dup2\n      tag_320\n      jumpi\n      tag_321\n      tag_306\n      jump\t// in\n    tag_321:\n    tag_320:\n      div\n      swap3\n      pop\n        /* \"mainnet/0x8a90CAb2b38dba80c64b7734e58Ee1dB38B8992e/@openzeppelin/contracts/utils/math/Math.sol\":12900:12902  64 */\n      0x40\n        /* \"mainnet/0x8a90CAb2b38dba80c64b7734e58Ee1dB38B8992e/@openzeppelin/contracts/utils/math/Math.sol\":12890:12902  result += 64 */\n      dup2\n      add\n      swap1\n      pop\n        /* \"mainnet/0x8a90CAb2b38dba80c64b7734e58Ee1dB38B8992e/@openzeppelin/contracts/utils/math/Math.sol\":12814:12917  if (value >= 10 ** 64) {... */\n    tag_319:\n        /* \"mainnet/0x8a90CAb2b38dba80c64b7734e58Ee1dB38B8992e/@openzeppelin/contracts/utils/math/Math.sol\":12943:12951  10 ** 32 */\n      0x04ee2d6d415b85acef8100000000\n        /* \"mainnet/0x8a90CAb2b38dba80c64b7734e58Ee1dB38B8992e/@openzeppelin/contracts/utils/math/Math.sol\":12934:12939  value */\n      dup4\n        /* \"mainnet/0x8a90CAb2b38dba80c64b7734e58Ee1dB38B8992e/@openzeppelin/contracts/utils/math/Math.sol\":12934:12951  value >= 10 ** 32 */\n      lt\n        /* \"mainnet/0x8a90CAb2b38dba80c64b7734e58Ee1dB38B8992e/@openzeppelin/contracts/utils/math/Math.sol\":12930:13033  if (value >= 10 ** 32) {... */\n      tag_322\n      jumpi\n        /* \"mainnet/0x8a90CAb2b38dba80c64b7734e58Ee1dB38B8992e/@openzeppelin/contracts/utils/math/Math.sol\":12980:12988  10 ** 32 */\n      0x04ee2d6d415b85acef8100000000\n        /* \"mainnet/0x8a90CAb2b38dba80c64b7734e58Ee1dB38B8992e/@openzeppelin/contracts/utils/math/Math.sol\":12971:12988  value /= 10 ** 32 */\n      dup4\n      dup2\n      tag_323\n      jumpi\n      tag_324\n      tag_306\n      jump\t// in\n    tag_324:\n    tag_323:\n      div\n      swap3\n      pop\n        /* \"mainnet/0x8a90CAb2b38dba80c64b7734e58Ee1dB38B8992e/@openzeppelin/contracts/utils/math/Math.sol\":13016:13018  32 */\n      0x20\n        /* \"mainnet/0x8a90CAb2b38dba80c64b7734e58Ee1dB38B8992e/@openzeppelin/contracts/utils/math/Math.sol\":13006:13018  result += 32 */\n      dup2\n      add\n      swap1\n      pop\n        /* \"mainnet/0x8a90CAb2b38dba80c64b7734e58Ee1dB38B8992e/@openzeppelin/contracts/utils/math/Math.sol\":12930:13033  if (value >= 10 ** 32) {... */\n    tag_322:\n        /* \"mainnet/0x8a90CAb2b38dba80c64b7734e58Ee1dB38B8992e/@openzeppelin/contracts/utils/math/Math.sol\":13059:13067  10 ** 16 */\n      0x2386f26fc10000\n        /* \"mainnet/0x8a90CAb2b38dba80c64b7734e58Ee1dB38B8992e/@openzeppelin/contracts/utils/math/Math.sol\":13050:13055  value */\n      dup4\n        /* \"mainnet/0x8a90CAb2b38dba80c64b7734e58Ee1dB38B8992e/@openzeppelin/contracts/utils/math/Math.sol\":13050:13067  value >= 10 ** 16 */\n      lt\n        /* \"mainnet/0x8a90CAb2b38dba80c64b7734e58Ee1dB38B8992e/@openzeppelin/contracts/utils/math/Math.sol\":13046:13149  if (value >= 10 ** 16) {... */\n      tag_325\n      jumpi\n        /* \"mainnet/0x8a90CAb2b38dba80c64b7734e58Ee1dB38B8992e/@openzeppelin/contracts/utils/math/Math.sol\":13096:13104  10 ** 16 */\n      0x2386f26fc10000\n        /* \"mainnet/0x8a90CAb2b38dba80c64b7734e58Ee1dB38B8992e/@openzeppelin/contracts/utils/math/Math.sol\":13087:13104  value /= 10 ** 16 */\n      dup4\n      dup2\n      tag_326\n      jumpi\n      tag_327\n      tag_306\n      jump\t// in\n    tag_327:\n    tag_326:\n      div\n      swap3\n      pop\n        /* \"mainnet/0x8a90CAb2b38dba80c64b7734e58Ee1dB38B8992e/@openzeppelin/contracts/utils/math/Math.sol\":13132:13134  16 */\n      0x10\n        /* \"mainnet/0x8a90CAb2b38dba80c64b7734e58Ee1dB38B8992e/@openzeppelin/contracts/utils/math/Math.sol\":13122:13134  result += 16 */\n      dup2\n      add\n      swap1\n      pop\n        /* \"mainnet/0x8a90CAb2b38dba80c64b7734e58Ee1dB38B8992e/@openzeppelin/contracts/utils/math/Math.sol\":13046:13149  if (value >= 10 ** 16) {... */\n    tag_325:\n        /* \"mainnet/0x8a90CAb2b38dba80c64b7734e58Ee1dB38B8992e/@openzeppelin/contracts/utils/math/Math.sol\":13175:13182  10 ** 8 */\n      0x05f5e100\n        /* \"mainnet/0x8a90CAb2b38dba80c64b7734e58Ee1dB38B8992e/@openzeppelin/contracts/utils/math/Math.sol\":13166:13171  value */\n      dup4\n        /* \"mainnet/0x8a90CAb2b38dba80c64b7734e58Ee1dB38B8992e/@openzeppelin/contracts/utils/math/Math.sol\":13166:13182  value >= 10 ** 8 */\n      lt\n        /* \"mainnet/0x8a90CAb2b38dba80c64b7734e58Ee1dB38B8992e/@openzeppelin/contracts/utils/math/Math.sol\":13162:13262  if (value >= 10 ** 8) {... */\n      tag_328\n      jumpi\n        /* \"mainnet/0x8a90CAb2b38dba80c64b7734e58Ee1dB38B8992e/@openzeppelin/contracts/utils/math/Math.sol\":13211:13218  10 ** 8 */\n      0x05f5e100\n        /* \"mainnet/0x8a90CAb2b38dba80c64b7734e58Ee1dB38B8992e/@openzeppelin/contracts/utils/math/Math.sol\":13202:13218  value /= 10 ** 8 */\n      dup4\n      dup2\n      tag_329\n      jumpi\n      tag_330\n      tag_306\n      jump\t// in\n    tag_330:\n    tag_329:\n      div\n      swap3\n      pop\n        /* \"mainnet/0x8a90CAb2b38dba80c64b7734e58Ee1dB38B8992e/@openzeppelin/contracts/utils/math/Math.sol\":13246:13247  8 */\n      0x08\n        /* \"mainnet/0x8a90CAb2b38dba80c64b7734e58Ee1dB38B8992e/@openzeppelin/contracts/utils/math/Math.sol\":13236:13247  result += 8 */\n      dup2\n      add\n      swap1\n      pop\n        /* \"mainnet/0x8a90CAb2b38dba80c64b7734e58Ee1dB38B8992e/@openzeppelin/contracts/utils/math/Math.sol\":13162:13262  if (value >= 10 ** 8) {... */\n    tag_328:\n        /* \"mainnet/0x8a90CAb2b38dba80c64b7734e58Ee1dB38B8992e/@openzeppelin/contracts/utils/math/Math.sol\":13288:13295  10 ** 4 */\n      0x2710\n        /* \"mainnet/0x8a90CAb2b38dba80c64b7734e58Ee1dB38B8992e/@openzeppelin/contracts/utils/math/Math.sol\":13279:13284  value */\n      dup4\n        /* \"mainnet/0x8a90CAb2b38dba80c64b7734e58Ee1dB38B8992e/@openzeppelin/contracts/utils/math/Math.sol\":13279:13295  value >= 10 ** 4 */\n      lt\n        /* \"mainnet/0x8a90CAb2b38dba80c64b7734e58Ee1dB38B8992e/@openzeppelin/contracts/utils/math/Math.sol\":13275:13375  if (value >= 10 ** 4) {... */\n      tag_331\n      jumpi\n        /* \"mainnet/0x8a90CAb2b38dba80c64b7734e58Ee1dB38B8992e/@openzeppelin/contracts/utils/math/Math.sol\":13324:13331  10 ** 4 */\n      0x2710\n        /* \"mainnet/0x8a90CAb2b38dba80c64b7734e58Ee1dB38B8992e/@openzeppelin/contracts/utils/math/Math.sol\":13315:13331  value /= 10 ** 4 */\n      dup4\n      dup2\n      tag_332\n      jumpi\n      tag_333\n      tag_306\n      jump\t// in\n    tag_333:\n    tag_332:\n      div\n      swap3\n      pop\n        /* \"mainnet/0x8a90CAb2b38dba80c64b7734e58Ee1dB38B8992e/@openzeppelin/contracts/utils/math/Math.sol\":13359:13360  4 */\n      0x04\n        /* \"mainnet/0x8a90CAb2b38dba80c64b7734e58Ee1dB38B8992e/@openzeppelin/contracts/utils/math/Math.sol\":13349:13360  result += 4 */\n      dup2\n      add\n      swap1\n      pop\n        /* \"mainnet/0x8a90CAb2b38dba80c64b7734e58Ee1dB38B8992e/@openzeppelin/contracts/utils/math/Math.sol\":13275:13375  if (value >= 10 ** 4) {... */\n    tag_331:\n        /* \"mainnet/0x8a90CAb2b38dba80c64b7734e58Ee1dB38B8992e/@openzeppelin/contracts/utils/math/Math.sol\":13401:13408  10 ** 2 */\n      0x64\n        /* \"mainnet/0x8a90CAb2b38dba80c64b7734e58Ee1dB38B8992e/@openzeppelin/contracts/utils/math/Math.sol\":13392:13397  value */\n      dup4\n        /* \"mainnet/0x8a90CAb2b38dba80c64b7734e58Ee1dB38B8992e/@openzeppelin/contracts/utils/math/Math.sol\":13392:13408  value >= 10 ** 2 */\n      lt\n        /* \"mainnet/0x8a90CAb2b38dba80c64b7734e58Ee1dB38B8992e/@openzeppelin/contracts/utils/math/Math.sol\":13388:13488  if (value >= 10 ** 2) {... */\n      tag_334\n      jumpi\n        /* \"mainnet/0x8a90CAb2b38dba80c64b7734e58Ee1dB38B8992e/@openzeppelin/contracts/utils/math/Math.sol\":13437:13444  10 ** 2 */\n      0x64\n        /* \"mainnet/0x8a90CAb2b38dba80c64b7734e58Ee1dB38B8992e/@openzeppelin/contracts/utils/math/Math.sol\":13428:13444  value /= 10 ** 2 */\n      dup4\n      dup2\n      tag_335\n      jumpi\n      tag_336\n      tag_306\n      jump\t// in\n    tag_336:\n    tag_335:\n      div\n      swap3\n      pop\n        /* \"mainnet/0x8a90CAb2b38dba80c64b7734e58Ee1dB38B8992e/@openzeppelin/contracts/utils/math/Math.sol\":13472:13473  2 */\n      0x02\n        /* \"mainnet/0x8a90CAb2b38dba80c64b7734e58Ee1dB38B8992e/@openzeppelin/contracts/utils/math/Math.sol\":13462:13473  result += 2 */\n      dup2\n      add\n      swap1\n      pop\n        /* \"mainnet/0x8a90CAb2b38dba80c64b7734e58Ee1dB38B8992e/@openzeppelin/contracts/utils/math/Math.sol\":13388:13488  if (value >= 10 ** 2) {... */\n    tag_334:\n        /* \"mainnet/0x8a90CAb2b38dba80c64b7734e58Ee1dB38B8992e/@openzeppelin/contracts/utils/math/Math.sol\":13514:13521  10 ** 1 */\n      0x0a\n        /* \"mainnet/0x8a90CAb2b38dba80c64b7734e58Ee1dB38B8992e/@openzeppelin/contracts/utils/math/Math.sol\":13505:13510  value */\n      dup4\n        /* \"mainnet/0x8a90CAb2b38dba80c64b7734e58Ee1dB38B8992e/@openzeppelin/contracts/utils/math/Math.sol\":13505:13521  value >= 10 ** 1 */\n      lt\n        /* \"mainnet/0x8a90CAb2b38dba80c64b7734e58Ee1dB38B8992e/@openzeppelin/contracts/utils/math/Math.sol\":13501:13567  if (value >= 10 ** 1) {... */\n      tag_337\n      jumpi\n        /* \"mainnet/0x8a90CAb2b38dba80c64b7734e58Ee1dB38B8992e/@openzeppelin/contracts/utils/math/Math.sol\":13551:13552  1 */\n      0x01\n        /* \"mainnet/0x8a90CAb2b38dba80c64b7734e58Ee1dB38B8992e/@openzeppelin/contracts/utils/math/Math.sol\":13541:13552  result += 1 */\n      dup2\n      add\n      swap1\n      pop\n        /* \"mainnet/0x8a90CAb2b38dba80c64b7734e58Ee1dB38B8992e/@openzeppelin/contracts/utils/math/Math.sol\":13501:13567  if (value >= 10 ** 1) {... */\n    tag_337:\n        /* \"mainnet/0x8a90CAb2b38dba80c64b7734e58Ee1dB38B8992e/@openzeppelin/contracts/utils/math/Math.sol\":13593:13599  result */\n      dup1\n        /* \"mainnet/0x8a90CAb2b38dba80c64b7734e58Ee1dB38B8992e/@openzeppelin/contracts/utils/math/Math.sol\":13586:13599  return result */\n      swap2\n      pop\n      pop\n        /* \"mainnet/0x8a90CAb2b38dba80c64b7734e58Ee1dB38B8992e/@openzeppelin/contracts/utils/math/Math.sol\":12690:13606  function log10(uint256 value) internal pure returns (uint256) {... */\n      swap2\n      swap1\n      pop\n      jump\t// out\n        /* \"mainnet/0x8a90CAb2b38dba80c64b7734e58Ee1dB38B8992e/@openzeppelin/contracts/token/ERC721/ERC721.sol\":9957:10284  function _mint(address to, uint256 tokenId) internal {... */\n    tag_310:\n        /* \"mainnet/0x8a90CAb2b38dba80c64b7734e58Ee1dB38B8992e/@openzeppelin/contracts/token/ERC721/ERC721.sol\":10038:10039  0 */\n      0x00\n        /* \"mainnet/0x8a90CAb2b38dba80c64b7734e58Ee1dB38B8992e/@openzeppelin/contracts/token/ERC721/ERC721.sol\":10024:10040  to == address(0) */\n      0xffffffffffffffffffffffffffffffffffffffff\n      and\n        /* \"mainnet/0x8a90CAb2b38dba80c64b7734e58Ee1dB38B8992e/@openzeppelin/contracts/token/ERC721/ERC721.sol\":10024:10026  to */\n      dup3\n        /* \"mainnet/0x8a90CAb2b38dba80c64b7734e58Ee1dB38B8992e/@openzeppelin/contracts/token/ERC721/ERC721.sol\":10024:10040  to == address(0) */\n      0xffffffffffffffffffffffffffffffffffffffff\n      and\n      sub\n        /* \"mainnet/0x8a90CAb2b38dba80c64b7734e58Ee1dB38B8992e/@openzeppelin/contracts/token/ERC721/ERC721.sol\":10020:10107  if (to == address(0)) {... */\n      tag_339\n      jumpi\n        /* \"mainnet/0x8a90CAb2b38dba80c64b7734e58Ee1dB38B8992e/@openzeppelin/contracts/token/ERC721/ERC721.sol\":10093:10094  0 */\n      0x00\n        /* \"mainnet/0x8a90CAb2b38dba80c64b7734e58Ee1dB38B8992e/@openzeppelin/contracts/token/ERC721/ERC721.sol\":10063:10096  ERC721InvalidReceiver(address(0)) */\n      mload(0x40)\n      0x64a0ae9200000000000000000000000000000000000000000000000000000000\n      dup2\n      mstore\n      0x04\n      add\n      tag_340\n      swap2\n      swap1\n      tag_41\n      jump\t// in\n    tag_340:\n      mload(0x40)\n      dup1\n      swap2\n      sub\n      swap1\n      revert\n        /* \"mainnet/0x8a90CAb2b38dba80c64b7734e58Ee1dB38B8992e/@openzeppelin/contracts/token/ERC721/ERC721.sol\":10020:10107  if (to == address(0)) {... */\n    tag_339:\n        /* \"mainnet/0x8a90CAb2b38dba80c64b7734e58Ee1dB38B8992e/@openzeppelin/contracts/token/ERC721/ERC721.sol\":10116:10137  address previousOwner */\n      0x00\n        /* \"mainnet/0x8a90CAb2b38dba80c64b7734e58Ee1dB38B8992e/@openzeppelin/contracts/token/ERC721/ERC721.sol\":10140:10172  _update(to, tokenId, address(0)) */\n      tag_341\n        /* \"mainnet/0x8a90CAb2b38dba80c64b7734e58Ee1dB38B8992e/@openzeppelin/contracts/token/ERC721/ERC721.sol\":10148:10150  to */\n      dup4\n        /* \"mainnet/0x8a90CAb2b38dba80c64b7734e58Ee1dB38B8992e/@openzeppelin/contracts/token/ERC721/ERC721.sol\":10152:10159  tokenId */\n      dup4\n        /* \"mainnet/0x8a90CAb2b38dba80c64b7734e58Ee1dB38B8992e/@openzeppelin/contracts/token/ERC721/ERC721.sol\":10169:10170  0 */\n      0x00\n        /* \"mainnet/0x8a90CAb2b38dba80c64b7734e58Ee1dB38B8992e/@openzeppelin/contracts/token/ERC721/ERC721.sol\":10140:10147  _update */\n      tag_136\n        /* \"mainnet/0x8a90CAb2b38dba80c64b7734e58Ee1dB38B8992e/@openzeppelin/contracts/token/ERC721/ERC721.sol\":10140:10172  _update(to, tokenId, address(0)) */\n      jump\t// in\n    tag_341:\n        /* \"mainnet/0x8a90CAb2b38dba80c64b7734e58Ee1dB38B8992e/@openzeppelin/contracts/token/ERC721/ERC721.sol\":10116:10172  address previousOwner = _update(to, tokenId, address(0)) */\n      swap1\n      pop\n        /* \"mainnet/0x8a90CAb2b38dba80c64b7734e58Ee1dB38B8992e/@openzeppelin/contracts/token/ERC721/ERC721.sol\":10211:10212  0 */\n      0x00\n        /* \"mainnet/0x8a90CAb2b38dba80c64b7734e58Ee1dB38B8992e/@openzeppelin/contracts/token/ERC721/ERC721.sol\":10186:10213  previousOwner != address(0) */\n      0xffffffffffffffffffffffffffffffffffffffff\n      and\n        /* \"mainnet/0x8a90CAb2b38dba80c64b7734e58Ee1dB38B8992e/@openzeppelin/contracts/token/ERC721/ERC721.sol\":10186:10199  previousOwner */\n      dup2\n        /* \"mainnet/0x8a90CAb2b38dba80c64b7734e58Ee1dB38B8992e/@openzeppelin/contracts/token/ERC721/ERC721.sol\":10186:10213  previousOwner != address(0) */\n      0xffffffffffffffffffffffffffffffffffffffff\n      and\n      eq\n        /* \"mainnet/0x8a90CAb2b38dba80c64b7734e58Ee1dB38B8992e/@openzeppelin/contracts/token/ERC721/ERC721.sol\":10182:10278  if (previousOwner != address(0)) {... */\n      tag_342\n      jumpi\n        /* \"mainnet/0x8a90CAb2b38dba80c64b7734e58Ee1dB38B8992e/@openzeppelin/contracts/token/ERC721/ERC721.sol\":10264:10265  0 */\n      0x00\n        /* \"mainnet/0x8a90CAb2b38dba80c64b7734e58Ee1dB38B8992e/@openzeppelin/contracts/token/ERC721/ERC721.sol\":10236:10267  ERC721InvalidSender(address(0)) */\n      mload(0x40)\n      0x73c6ac6e00000000000000000000000000000000000000000000000000000000\n      dup2\n      mstore\n      0x04\n      add\n      tag_343\n      swap2\n      swap1\n      tag_41\n      jump\t// in\n    tag_343:\n      mload(0x40)\n      dup1\n      swap2\n      sub\n      swap1\n      revert\n        /* \"mainnet/0x8a90CAb2b38dba80c64b7734e58Ee1dB38B8992e/@openzeppelin/contracts/token/ERC721/ERC721.sol\":10182:10278  if (previousOwner != address(0)) {... */\n    tag_342:\n        /* \"mainnet/0x8a90CAb2b38dba80c64b7734e58Ee1dB38B8992e/@openzeppelin/contracts/token/ERC721/ERC721.sol\":10010:10284  {... */\n      pop\n        /* \"mainnet/0x8a90CAb2b38dba80c64b7734e58Ee1dB38B8992e/@openzeppelin/contracts/token/ERC721/ERC721.sol\":9957:10284  function _mint(address to, uint256 tokenId) internal {... */\n      pop\n      pop\n      jump\t// out\n        /* \"#utility.yul\":7:82   */\n    tag_344:\n        /* \"#utility.yul\":40:46   */\n      0x00\n        /* \"#utility.yul\":73:75   */\n      0x40\n        /* \"#utility.yul\":67:76   */\n      mload\n        /* \"#utility.yul\":57:76   */\n      swap1\n      pop\n        /* \"#utility.yul\":7:82   */\n      swap1\n      jump\t// out\n        /* \"#utility.yul\":88:205   */\n    tag_345:\n        /* \"#utility.yul\":197:198   */\n      0x00\n        /* \"#utility.yul\":194:195   */\n      dup1\n        /* \"#utility.yul\":187:199   */\n      revert\n        /* \"#utility.yul\":211:328   */\n    tag_346:\n        /* \"#utility.yul\":320:321   */\n      0x00\n        /* \"#utility.yul\":317:318   */\n      dup1\n        /* \"#utility.yul\":310:322   */\n      revert\n        /* \"#utility.yul\":334:483   */\n    tag_347:\n        /* \"#utility.yul\":370:377   */\n      0x00\n        /* \"#utility.yul\":410:476   */\n      0xffffffff00000000000000000000000000000000000000000000000000000000\n        /* \"#utility.yul\":403:408   */\n      dup3\n        /* \"#utility.yul\":399:477   */\n      and\n        /* \"#utility.yul\":388:477   */\n      swap1\n      pop\n        /* \"#utility.yul\":334:483   */\n      swap2\n      swap1\n      pop\n      jump\t// out\n        /* \"#utility.yul\":489:609   */\n    tag_348:\n        /* \"#utility.yul\":561:584   */\n      tag_416\n        /* \"#utility.yul\":578:583   */\n      dup2\n        /* \"#utility.yul\":561:584   */\n      tag_347\n      jump\t// in\n    tag_416:\n        /* \"#utility.yul\":554:559   */\n      dup2\n        /* \"#utility.yul\":551:585   */\n      eq\n        /* \"#utility.yul\":541:603   */\n      tag_417\n      jumpi\n        /* \"#utility.yul\":599:600   */\n      0x00\n        /* \"#utility.yul\":596:597   */\n      dup1\n        /* \"#utility.yul\":589:601   */\n      revert\n        /* \"#utility.yul\":541:603   */\n    tag_417:\n        /* \"#utility.yul\":489:609   */\n      pop\n      jump\t// out\n        /* \"#utility.yul\":615:752   */\n    tag_349:\n        /* \"#utility.yul\":660:665   */\n      0x00\n        /* \"#utility.yul\":698:704   */\n      dup2\n        /* \"#utility.yul\":685:705   */\n      calldataload\n        /* \"#utility.yul\":676:705   */\n      swap1\n      pop\n        /* \"#utility.yul\":714:746   */\n      tag_419\n        /* \"#utility.yul\":740:745   */\n      dup2\n        /* \"#utility.yul\":714:746   */\n      tag_348\n      jump\t// in\n    tag_419:\n        /* \"#utility.yul\":615:752   */\n      swap3\n      swap2\n      pop\n      pop\n      jump\t// out\n        /* \"#utility.yul\":758:1085   */\n    tag_28:\n        /* \"#utility.yul\":816:822   */\n      0x00\n        /* \"#utility.yul\":865:867   */\n      0x20\n        /* \"#utility.yul\":853:862   */\n      dup3\n        /* \"#utility.yul\":844:851   */\n      dup5\n        /* \"#utility.yul\":840:863   */\n      sub\n        /* \"#utility.yul\":836:868   */\n      slt\n        /* \"#utility.yul\":833:952   */\n      iszero\n      tag_421\n      jumpi\n        /* \"#utility.yul\":871:950   */\n      tag_422\n      tag_345\n      jump\t// in\n    tag_422:\n        /* \"#utility.yul\":833:952   */\n    tag_421:\n        /* \"#utility.yul\":991:992   */\n      0x00\n        /* \"#utility.yul\":1016:1068   */\n      tag_423\n        /* \"#utility.yul\":1060:1067   */\n      dup5\n        /* \"#utility.yul\":1051:1057   */\n      dup3\n        /* \"#utility.yul\":1040:1049   */\n      dup6\n        /* \"#utility.yul\":1036:1058   */\n      add\n        /* \"#utility.yul\":1016:1068   */\n      tag_349\n      jump\t// in\n    tag_423:\n        /* \"#utility.yul\":1006:1068   */\n      swap2\n      pop\n        /* \"#utility.yul\":962:1078   */\n      pop\n        /* \"#utility.yul\":758:1085   */\n      swap3\n      swap2\n      pop\n      pop\n      jump\t// out\n        /* \"#utility.yul\":1091:1181   */\n    tag_350:\n        /* \"#utility.yul\":1125:1132   */\n      0x00\n        /* \"#utility.yul\":1168:1173   */\n      dup2\n        /* \"#utility.yul\":1161:1174   */\n      iszero\n        /* \"#utility.yul\":1154:1175   */\n      iszero\n        /* \"#utility.yul\":1143:1175   */\n      swap1\n      pop\n        /* \"#utility.yul\":1091:1181   */\n      swap2\n      swap1\n      pop\n      jump\t// out\n        /* \"#utility.yul\":1187:1296   */\n    tag_351:\n        /* \"#utility.yul\":1268:1289   */\n      tag_426\n        /* \"#utility.yul\":1283:1288   */\n      dup2\n        /* \"#utility.yul\":1268:1289   */\n      tag_350\n      jump\t// in\n    tag_426:\n        /* \"#utility.yul\":1263:1266   */\n      dup3\n        /* \"#utility.yul\":1256:1290   */\n      mstore\n        /* \"#utility.yul\":1187:1296   */\n      pop\n      pop\n      jump\t// out\n        /* \"#utility.yul\":1302:1512   */\n    tag_31:\n        /* \"#utility.yul\":1389:1393   */\n      0x00\n        /* \"#utility.yul\":1427:1429   */\n      0x20\n        /* \"#utility.yul\":1416:1425   */\n      dup3\n        /* \"#utility.yul\":1412:1430   */\n      add\n        /* \"#utility.yul\":1404:1430   */\n      swap1\n      pop\n        /* \"#utility.yul\":1440:1505   */\n      tag_428\n        /* \"#utility.yul\":1502:1503   */\n      0x00\n        /* \"#utility.yul\":1491:1500   */\n      dup4\n        /* \"#utility.yul\":1487:1504   */\n      add\n        /* \"#utility.yul\":1478:1484   */\n      dup5\n        /* \"#utility.yul\":1440:1505   */\n      tag_351\n      jump\t// in\n    tag_428:\n        /* \"#utility.yul\":1302:1512   */\n      swap3\n      swap2\n      pop\n      pop\n      jump\t// out\n        /* \"#utility.yul\":1518:1617   */\n    tag_352:\n        /* \"#utility.yul\":1570:1576   */\n      0x00\n        /* \"#utility.yul\":1604:1609   */\n      dup2\n        /* \"#utility.yul\":1598:1610   */\n      mload\n        /* \"#utility.yul\":1588:1610   */\n      swap1\n      pop\n        /* \"#utility.yul\":1518:1617   */\n      swap2\n      swap1\n      pop\n      jump\t// out\n        /* \"#utility.yul\":1623:1792   */\n    tag_353:\n        /* \"#utility.yul\":1707:1718   */\n      0x00\n        /* \"#utility.yul\":1741:1747   */\n      dup3\n        /* \"#utility.yul\":1736:1739   */\n      dup3\n        /* \"#utility.yul\":1729:1748   */\n      mstore\n        /* \"#utility.yul\":1781:1785   */\n      0x20\n        /* \"#utility.yul\":1776:1779   */\n      dup3\n        /* \"#utility.yul\":1772:1786   */\n      add\n        /* \"#utility.yul\":1757:1786   */\n      swap1\n      pop\n        /* \"#utility.yul\":1623:1792   */\n      swap3\n      swap2\n      pop\n      pop\n      jump\t// out\n        /* \"#utility.yul\":1798:2044   */\n    tag_354:\n        /* \"#utility.yul\":1879:1880   */\n      0x00\n        /* \"#utility.yul\":1889:2002   */\n    tag_432:\n        /* \"#utility.yul\":1903:1909   */\n      dup4\n        /* \"#utility.yul\":1900:1901   */\n      dup2\n        /* \"#utility.yul\":1897:1910   */\n      lt\n        /* \"#utility.yul\":1889:2002   */\n      iszero\n      tag_434\n      jumpi\n        /* \"#utility.yul\":1988:1989   */\n      dup1\n        /* \"#utility.yul\":1983:1986   */\n      dup3\n        /* \"#utility.yul\":1979:1990   */\n      add\n        /* \"#utility.yul\":1973:1991   */\n      mload\n        /* \"#utility.yul\":1969:1970   */\n      dup2\n        /* \"#utility.yul\":1964:1967   */\n      dup5\n        /* \"#utility.yul\":1960:1971   */\n      add\n        /* \"#utility.yul\":1953:1992   */\n      mstore\n        /* \"#utility.yul\":1925:1927   */\n      0x20\n        /* \"#utility.yul\":1922:1923   */\n      dup2\n        /* \"#utility.yul\":1918:1928   */\n      add\n        /* \"#utility.yul\":1913:1928   */\n      swap1\n      pop\n        /* \"#utility.yul\":1889:2002   */\n      jump(tag_432)\n    tag_434:\n        /* \"#utility.yul\":2036:2037   */\n      0x00\n        /* \"#utility.yul\":2027:2033   */\n      dup5\n        /* \"#utility.yul\":2022:2025   */\n      dup5\n        /* \"#utility.yul\":2018:2034   */\n      add\n        /* \"#utility.yul\":2011:2038   */\n      mstore\n        /* \"#utility.yul\":1860:2044   */\n      pop\n        /* \"#utility.yul\":1798:2044   */\n      pop\n      pop\n      pop\n      jump\t// out\n        /* \"#utility.yul\":2050:2152   */\n    tag_355:\n        /* \"#utility.yul\":2091:2097   */\n      0x00\n        /* \"#utility.yul\":2142:2144   */\n      0x1f\n        /* \"#utility.yul\":2138:2145   */\n      not\n        /* \"#utility.yul\":2133:2135   */\n      0x1f\n        /* \"#utility.yul\":2126:2131   */\n      dup4\n        /* \"#utility.yul\":2122:2136   */\n      add\n        /* \"#utility.yul\":2118:2146   */\n      and\n        /* \"#utility.yul\":2108:2146   */\n      swap1\n      pop\n        /* \"#utility.yul\":2050:2152   */\n      swap2\n      swap1\n      pop\n      jump\t// out\n        /* \"#utility.yul\":2158:2535   */\n    tag_356:\n        /* \"#utility.yul\":2246:2249   */\n      0x00\n        /* \"#utility.yul\":2274:2313   */\n      tag_437\n        /* \"#utility.yul\":2307:2312   */\n      dup3\n        /* \"#utility.yul\":2274:2313   */\n      tag_352\n      jump\t// in\n    tag_437:\n        /* \"#utility.yul\":2329:2400   */\n      tag_438\n        /* \"#utility.yul\":2393:2399   */\n      dup2\n        /* \"#utility.yul\":2388:2391   */\n      dup6\n        /* \"#utility.yul\":2329:2400   */\n      tag_353\n      jump\t// in\n    tag_438:\n        /* \"#utility.yul\":2322:2400   */\n      swap4\n      pop\n        /* \"#utility.yul\":2409:2474   */\n      tag_439\n        /* \"#utility.yul\":2467:2473   */\n      dup2\n        /* \"#utility.yul\":2462:2465   */\n      dup6\n        /* \"#utility.yul\":2455:2459   */\n      0x20\n        /* \"#utility.yul\":2448:2453   */\n      dup7\n        /* \"#utility.yul\":2444:2460   */\n      add\n        /* \"#utility.yul\":2409:2474   */\n      tag_354\n      jump\t// in\n    tag_439:\n        /* \"#utility.yul\":2499:2528   */\n      tag_440\n        /* \"#utility.yul\":2521:2527   */\n      dup2\n        /* \"#utility.yul\":2499:2528   */\n      tag_355\n      jump\t// in\n    tag_440:\n        /* \"#utility.yul\":2494:2497   */\n      dup5\n        /* \"#utility.yul\":2490:2529   */\n      add\n        /* \"#utility.yul\":2483:2529   */\n      swap2\n      pop\n        /* \"#utility.yul\":2250:2535   */\n      pop\n        /* \"#utility.yul\":2158:2535   */\n      swap3\n      swap2\n      pop\n      pop\n      jump\t// out\n        /* \"#utility.yul\":2541:2854   */\n    tag_35:\n        /* \"#utility.yul\":2654:2658   */\n      0x00\n        /* \"#utility.yul\":2692:2694   */\n      0x20\n        /* \"#utility.yul\":2681:2690   */\n      dup3\n        /* \"#utility.yul\":2677:2695   */\n      add\n        /* \"#utility.yul\":2669:2695   */\n      swap1\n      pop\n        /* \"#utility.yul\":2741:2750   */\n      dup2\n        /* \"#utility.yul\":2735:2739   */\n      dup2\n        /* \"#utility.yul\":2731:2751   */\n      sub\n        /* \"#utility.yul\":2727:2728   */\n      0x00\n        /* \"#utility.yul\":2716:2725   */\n      dup4\n        /* \"#utility.yul\":2712:2729   */\n      add\n        /* \"#utility.yul\":2705:2752   */\n      mstore\n        /* \"#utility.yul\":2769:2847   */\n      tag_442\n        /* \"#utility.yul\":2842:2846   */\n      dup2\n        /* \"#utility.yul\":2833:2839   */\n      dup5\n        /* \"#utility.yul\":2769:2847   */\n      tag_356\n      jump\t// in\n    tag_442:\n        /* \"#utility.yul\":2761:2847   */\n      swap1\n      pop\n        /* \"#utility.yul\":2541:2854   */\n      swap3\n      swap2\n      pop\n      pop\n      jump\t// out\n        /* \"#utility.yul\":2860:2937   */\n    tag_357:\n        /* \"#utility.yul\":2897:2904   */\n      0x00\n        /* \"#utility.yul\":2926:2931   */\n      dup2\n        /* \"#utility.yul\":2915:2931   */\n      swap1\n      pop\n        /* \"#utility.yul\":2860:2937   */\n      swap2\n      swap1\n      pop\n      jump\t// out\n        /* \"#utility.yul\":2943:3065   */\n    tag_358:\n        /* \"#utility.yul\":3016:3040   */\n      tag_445\n        /* \"#utility.yul\":3034:3039   */\n      dup2\n        /* \"#utility.yul\":3016:3040   */\n      tag_357\n      jump\t// in\n    tag_445:\n        /* \"#utility.yul\":3009:3014   */\n      dup2\n        /* \"#utility.yul\":3006:3041   */\n      eq\n        /* \"#utility.yul\":2996:3059   */\n      tag_446\n      jumpi\n        /* \"#utility.yul\":3055:3056   */\n      0x00\n        /* \"#utility.yul\":3052:3053   */\n      dup1\n        /* \"#utility.yul\":3045:3057   */\n      revert\n        /* \"#utility.yul\":2996:3059   */\n    tag_446:\n        /* \"#utility.yul\":2943:3065   */\n      pop\n      jump\t// out\n        /* \"#utility.yul\":3071:3210   */\n    tag_359:\n        /* \"#utility.yul\":3117:3122   */\n      0x00\n        /* \"#utility.yul\":3155:3161   */\n      dup2\n        /* \"#utility.yul\":3142:3162   */\n      calldataload\n        /* \"#utility.yul\":3133:3162   */\n      swap1\n      pop\n        /* \"#utility.yul\":3171:3204   */\n      tag_448\n        /* \"#utility.yul\":3198:3203   */\n      dup2\n        /* \"#utility.yul\":3171:3204   */\n      tag_358\n      jump\t// in\n    tag_448:\n        /* \"#utility.yul\":3071:3210   */\n      swap3\n      swap2\n      pop\n      pop\n      jump\t// out\n        /* \"#utility.yul\":3216:3545   */\n    tag_38:\n        /* \"#utility.yul\":3275:3281   */\n      0x00\n        /* \"#utility.yul\":3324:3326   */\n      0x20\n        /* \"#utility.yul\":3312:3321   */\n      dup3\n        /* \"#utility.yul\":3303:3310   */\n      dup5\n        /* \"#utility.yul\":3299:3322   */\n      sub\n        /* \"#utility.yul\":3295:3327   */\n      slt\n        /* \"#utility.yul\":3292:3411   */\n      iszero\n      tag_450\n      jumpi\n        /* \"#utility.yul\":3330:3409   */\n      tag_451\n      tag_345\n      jump\t// in\n    tag_451:\n        /* \"#utility.yul\":3292:3411   */\n    tag_450:\n        /* \"#utility.yul\":3450:3451   */\n      0x00\n        /* \"#utility.yul\":3475:3528   */\n      tag_452\n        /* \"#utility.yul\":3520:3527   */\n      dup5\n        /* \"#utility.yul\":3511:3517   */\n      dup3\n        /* \"#utility.yul\":3500:3509   */\n      dup6\n        /* \"#utility.yul\":3496:3518   */\n      add\n        /* \"#utility.yul\":3475:3528   */\n      tag_359\n      jump\t// in\n    tag_452:\n        /* \"#utility.yul\":3465:3528   */\n      swap2\n      pop\n        /* \"#utility.yul\":3421:3538   */\n      pop\n        /* \"#utility.yul\":3216:3545   */\n      swap3\n      swap2\n      pop\n      pop\n      jump\t// out\n        /* \"#utility.yul\":3551:3677   */\n    tag_360:\n        /* \"#utility.yul\":3588:3595   */\n      0x00\n        /* \"#utility.yul\":3628:3670   */\n      0xffffffffffffffffffffffffffffffffffffffff\n        /* \"#utility.yul\":3621:3626   */\n      dup3\n        /* \"#utility.yul\":3617:3671   */\n      and\n        /* \"#utility.yul\":3606:3671   */\n      swap1\n      pop\n        /* \"#utility.yul\":3551:3677   */\n      swap2\n      swap1\n      pop\n      jump\t// out\n        /* \"#utility.yul\":3683:3779   */\n    tag_361:\n        /* \"#utility.yul\":3720:3727   */\n      0x00\n        /* \"#utility.yul\":3749:3773   */\n      tag_455\n        /* \"#utility.yul\":3767:3772   */\n      dup3\n        /* \"#utility.yul\":3749:3773   */\n      tag_360\n      jump\t// in\n    tag_455:\n        /* \"#utility.yul\":3738:3773   */\n      swap1\n      pop\n        /* \"#utility.yul\":3683:3779   */\n      swap2\n      swap1\n      pop\n      jump\t// out\n        /* \"#utility.yul\":3785:3903   */\n    tag_362:\n        /* \"#utility.yul\":3872:3896   */\n      tag_457\n        /* \"#utility.yul\":3890:3895   */\n      dup2\n        /* \"#utility.yul\":3872:3896   */\n      tag_361\n      jump\t// in\n    tag_457:\n        /* \"#utility.yul\":3867:3870   */\n      dup3\n        /* \"#utility.yul\":3860:3897   */\n      mstore\n        /* \"#utility.yul\":3785:3903   */\n      pop\n      pop\n      jump\t// out\n        /* \"#utility.yul\":3909:4131   */\n    tag_41:\n        /* \"#utility.yul\":4002:4006   */\n      0x00\n        /* \"#utility.yul\":4040:4042   */\n      0x20\n        /* \"#utility.yul\":4029:4038   */\n      dup3\n        /* \"#utility.yul\":4025:4043   */\n      add\n        /* \"#utility.yul\":4017:4043   */\n      swap1\n      pop\n        /* \"#utility.yul\":4053:4124   */\n      tag_459\n        /* \"#utility.yul\":4121:4122   */\n      0x00\n        /* \"#utility.yul\":4110:4119   */\n      dup4\n        /* \"#utility.yul\":4106:4123   */\n      add\n        /* \"#utility.yul\":4097:4103   */\n      dup5\n        /* \"#utility.yul\":4053:4124   */\n      tag_362\n      jump\t// in\n    tag_459:\n        /* \"#utility.yul\":3909:4131   */\n      swap3\n      swap2\n      pop\n      pop\n      jump\t// out\n        /* \"#utility.yul\":4137:4259   */\n    tag_363:\n        /* \"#utility.yul\":4210:4234   */\n      tag_461\n        /* \"#utility.yul\":4228:4233   */\n      dup2\n        /* \"#utility.yul\":4210:4234   */\n      tag_361\n      jump\t// in\n    tag_461:\n        /* \"#utility.yul\":4203:4208   */\n      dup2\n        /* \"#utility.yul\":4200:4235   */\n      eq\n        /* \"#utility.yul\":4190:4253   */\n      tag_462\n      jumpi\n        /* \"#utility.yul\":4249:4250   */\n      0x00\n        /* \"#utility.yul\":4246:4247   */\n      dup1\n        /* \"#utility.yul\":4239:4251   */\n      revert\n        /* \"#utility.yul\":4190:4253   */\n    tag_462:\n        /* \"#utility.yul\":4137:4259   */\n      pop\n      jump\t// out\n        /* \"#utility.yul\":4265:4404   */\n    tag_364:\n        /* \"#utility.yul\":4311:4316   */\n      0x00\n        /* \"#utility.yul\":4349:4355   */\n      dup2\n        /* \"#utility.yul\":4336:4356   */\n      calldataload\n        /* \"#utility.yul\":4327:4356   */\n      swap1\n      pop\n        /* \"#utility.yul\":4365:4398   */\n      tag_464\n        /* \"#utility.yul\":4392:4397   */\n      dup2\n        /* \"#utility.yul\":4365:4398   */\n      tag_363\n      jump\t// in\n    tag_464:\n        /* \"#utility.yul\":4265:4404   */\n      swap3\n      swap2\n      pop\n      pop\n      jump\t// out\n        /* \"#utility.yul\":4410:4884   */\n    tag_44:\n        /* \"#utility.yul\":4478:4484   */\n      0x00\n        /* \"#utility.yul\":4486:4492   */\n      dup1\n        /* \"#utility.yul\":4535:4537   */\n      0x40\n        /* \"#utility.yul\":4523:4532   */\n      dup4\n        /* \"#utility.yul\":4514:4521   */\n      dup6\n        /* \"#utility.yul\":4510:4533   */\n      sub\n        /* \"#utility.yul\":4506:4538   */\n      slt\n        /* \"#utility.yul\":4503:4622   */\n      iszero\n      tag_466\n      jumpi\n        /* \"#utility.yul\":4541:4620   */\n      tag_467\n      tag_345\n      jump\t// in\n    tag_467:\n        /* \"#utility.yul\":4503:4622   */\n    tag_466:\n        /* \"#utility.yul\":4661:4662   */\n      0x00\n        /* \"#utility.yul\":4686:4739   */\n      tag_468\n        /* \"#utility.yul\":4731:4738   */\n      dup6\n        /* \"#utility.yul\":4722:4728   */\n      dup3\n        /* \"#utility.yul\":4711:4720   */\n      dup7\n        /* \"#utility.yul\":4707:4729   */\n      add\n        /* \"#utility.yul\":4686:4739   */\n      tag_364\n      jump\t// in\n    tag_468:\n        /* \"#utility.yul\":4676:4739   */\n      swap3\n      pop\n        /* \"#utility.yul\":4632:4749   */\n      pop\n        /* \"#utility.yul\":4788:4790   */\n      0x20\n        /* \"#utility.yul\":4814:4867   */\n      tag_469\n        /* \"#utility.yul\":4859:4866   */\n      dup6\n        /* \"#utility.yul\":4850:4856   */\n      dup3\n        /* \"#utility.yul\":4839:4848   */\n      dup7\n        /* \"#utility.yul\":4835:4857   */\n      add\n        /* \"#utility.yul\":4814:4867   */\n      tag_359\n      jump\t// in\n    tag_469:\n        /* \"#utility.yul\":4804:4867   */\n      swap2\n      pop\n        /* \"#utility.yul\":4759:4877   */\n      pop\n        /* \"#utility.yul\":4410:4884   */\n      swap3\n      pop\n      swap3\n      swap1\n      pop\n      jump\t// out\n        /* \"#utility.yul\":4890:5219   */\n    tag_48:\n        /* \"#utility.yul\":4949:4955   */\n      0x00\n        /* \"#utility.yul\":4998:5000   */\n      0x20\n        /* \"#utility.yul\":4986:4995   */\n      dup3\n        /* \"#utility.yul\":4977:4984   */\n      dup5\n        /* \"#utility.yul\":4973:4996   */\n      sub\n        /* \"#utility.yul\":4969:5001   */\n      slt\n        /* \"#utility.yul\":4966:5085   */\n      iszero\n      tag_471\n      jumpi\n        /* \"#utility.yul\":5004:5083   */\n      tag_472\n      tag_345\n      jump\t// in\n    tag_472:\n        /* \"#utility.yul\":4966:5085   */\n    tag_471:\n        /* \"#utility.yul\":5124:5125   */\n      0x00\n        /* \"#utility.yul\":5149:5202   */\n      tag_473\n        /* \"#utility.yul\":5194:5201   */\n      dup5\n        /* \"#utility.yul\":5185:5191   */\n      dup3\n        /* \"#utility.yul\":5174:5183   */\n      dup6\n        /* \"#utility.yul\":5170:5192   */\n      add\n        /* \"#utility.yul\":5149:5202   */\n      tag_364\n      jump\t// in\n    tag_473:\n        /* \"#utility.yul\":5139:5202   */\n      swap2\n      pop\n        /* \"#utility.yul\":5095:5212   */\n      pop\n        /* \"#utility.yul\":4890:5219   */\n      swap3\n      swap2\n      pop\n      pop\n      jump\t// out\n        /* \"#utility.yul\":5225:5844   */\n    tag_52:\n        /* \"#utility.yul\":5302:5308   */\n      0x00\n        /* \"#utility.yul\":5310:5316   */\n      dup1\n        /* \"#utility.yul\":5318:5324   */\n      0x00\n        /* \"#utility.yul\":5367:5369   */\n      0x60\n        /* \"#utility.yul\":5355:5364   */\n      dup5\n        /* \"#utility.yul\":5346:5353   */\n      dup7\n        /* \"#utility.yul\":5342:5365   */\n      sub\n        /* \"#utility.yul\":5338:5370   */\n      slt\n        /* \"#utility.yul\":5335:5454   */\n      iszero\n      tag_475\n      jumpi\n        /* \"#utility.yul\":5373:5452   */\n      tag_476\n      tag_345\n      jump\t// in\n    tag_476:\n        /* \"#utility.yul\":5335:5454   */\n    tag_475:\n        /* \"#utility.yul\":5493:5494   */\n      0x00\n        /* \"#utility.yul\":5518:5571   */\n      tag_477\n        /* \"#utility.yul\":5563:5570   */\n      dup7\n        /* \"#utility.yul\":5554:5560   */\n      dup3\n        /* \"#utility.yul\":5543:5552   */\n      dup8\n        /* \"#utility.yul\":5539:5561   */\n      add\n        /* \"#utility.yul\":5518:5571   */\n      tag_364\n      jump\t// in\n    tag_477:\n        /* \"#utility.yul\":5508:5571   */\n      swap4\n      pop\n        /* \"#utility.yul\":5464:5581   */\n      pop\n        /* \"#utility.yul\":5620:5622   */\n      0x20\n        /* \"#utility.yul\":5646:5699   */\n      tag_478\n        /* \"#utility.yul\":5691:5698   */\n      dup7\n        /* \"#utility.yul\":5682:5688   */\n      dup3\n        /* \"#utility.yul\":5671:5680   */\n      dup8\n        /* \"#utility.yul\":5667:5689   */\n      add\n        /* \"#utility.yul\":5646:5699   */\n      tag_364\n      jump\t// in\n    tag_478:\n        /* \"#utility.yul\":5636:5699   */\n      swap3\n      pop\n        /* \"#utility.yul\":5591:5709   */\n      pop\n        /* \"#utility.yul\":5748:5750   */\n      0x40\n        /* \"#utility.yul\":5774:5827   */\n      tag_479\n        /* \"#utility.yul\":5819:5826   */\n      dup7\n        /* \"#utility.yul\":5810:5816   */\n      dup3\n        /* \"#utility.yul\":5799:5808   */\n      dup8\n        /* \"#utility.yul\":5795:5817   */\n      add\n        /* \"#utility.yul\":5774:5827   */\n      tag_359\n      jump\t// in\n    tag_479:\n        /* \"#utility.yul\":5764:5827   */\n      swap2\n      pop\n        /* \"#utility.yul\":5719:5837   */\n      pop\n        /* \"#utility.yul\":5225:5844   */\n      swap3\n      pop\n      swap3\n      pop\n      swap3\n      jump\t// out\n        /* \"#utility.yul\":5850:5968   */\n    tag_365:\n        /* \"#utility.yul\":5937:5961   */\n      tag_481\n        /* \"#utility.yul\":5955:5960   */\n      dup2\n        /* \"#utility.yul\":5937:5961   */\n      tag_357\n      jump\t// in\n    tag_481:\n        /* \"#utility.yul\":5932:5935   */\n      dup3\n        /* \"#utility.yul\":5925:5962   */\n      mstore\n        /* \"#utility.yul\":5850:5968   */\n      pop\n      pop\n      jump\t// out\n        /* \"#utility.yul\":5974:6196   */\n    tag_65:\n        /* \"#utility.yul\":6067:6071   */\n      0x00\n        /* \"#utility.yul\":6105:6107   */\n      0x20\n        /* \"#utility.yul\":6094:6103   */\n      dup3\n        /* \"#utility.yul\":6090:6108   */\n      add\n        /* \"#utility.yul\":6082:6108   */\n      swap1\n      pop\n        /* \"#utility.yul\":6118:6189   */\n      tag_483\n        /* \"#utility.yul\":6186:6187   */\n      0x00\n        /* \"#utility.yul\":6175:6184   */\n      dup4\n        /* \"#utility.yul\":6171:6188   */\n      add\n        /* \"#utility.yul\":6162:6168   */\n      dup5\n        /* \"#utility.yul\":6118:6189   */\n      tag_365\n      jump\t// in\n    tag_483:\n        /* \"#utility.yul\":5974:6196   */\n      swap3\n      swap2\n      pop\n      pop\n      jump\t// out\n        /* \"#utility.yul\":6202:6318   */\n    tag_366:\n        /* \"#utility.yul\":6272:6293   */\n      tag_485\n        /* \"#utility.yul\":6287:6292   */\n      dup2\n        /* \"#utility.yul\":6272:6293   */\n      tag_350\n      jump\t// in\n    tag_485:\n        /* \"#utility.yul\":6265:6270   */\n      dup2\n        /* \"#utility.yul\":6262:6294   */\n      eq\n        /* \"#utility.yul\":6252:6312   */\n      tag_486\n      jumpi\n        /* \"#utility.yul\":6308:6309   */\n      0x00\n        /* \"#utility.yul\":6305:6306   */\n      dup1\n        /* \"#utility.yul\":6298:6310   */\n      revert\n        /* \"#utility.yul\":6252:6312   */\n    tag_486:\n        /* \"#utility.yul\":6202:6318   */\n      pop\n      jump\t// out\n        /* \"#utility.yul\":6324:6457   */\n    tag_367:\n        /* \"#utility.yul\":6367:6372   */\n      0x00\n        /* \"#utility.yul\":6405:6411   */\n      dup2\n        /* \"#utility.yul\":6392:6412   */\n      calldataload\n        /* \"#utility.yul\":6383:6412   */\n      swap1\n      pop\n        /* \"#utility.yul\":6421:6451   */\n      tag_488\n        /* \"#utility.yul\":6445:6450   */\n      dup2\n        /* \"#utility.yul\":6421:6451   */\n      tag_366\n      jump\t// in\n    tag_488:\n        /* \"#utility.yul\":6324:6457   */\n      swap3\n      swap2\n      pop\n      pop\n      jump\t// out\n        /* \"#utility.yul\":6463:6931   */\n    tag_79:\n        /* \"#utility.yul\":6528:6534   */\n      0x00\n        /* \"#utility.yul\":6536:6542   */\n      dup1\n        /* \"#utility.yul\":6585:6587   */\n      0x40\n        /* \"#utility.yul\":6573:6582   */\n      dup4\n        /* \"#utility.yul\":6564:6571   */\n      dup6\n        /* \"#utility.yul\":6560:6583   */\n      sub\n        /* \"#utility.yul\":6556:6588   */\n      slt\n        /* \"#utility.yul\":6553:6672   */\n      iszero\n      tag_490\n      jumpi\n        /* \"#utility.yul\":6591:6670   */\n      tag_491\n      tag_345\n      jump\t// in\n    tag_491:\n        /* \"#utility.yul\":6553:6672   */\n    tag_490:\n        /* \"#utility.yul\":6711:6712   */\n      0x00\n        /* \"#utility.yul\":6736:6789   */\n      tag_492\n        /* \"#utility.yul\":6781:6788   */\n      dup6\n        /* \"#utility.yul\":6772:6778   */\n      dup3\n        /* \"#utility.yul\":6761:6770   */\n      dup7\n        /* \"#utility.yul\":6757:6779   */\n      add\n        /* \"#utility.yul\":6736:6789   */\n      tag_364\n      jump\t// in\n    tag_492:\n        /* \"#utility.yul\":6726:6789   */\n      swap3\n      pop\n        /* \"#utility.yul\":6682:6799   */\n      pop\n        /* \"#utility.yul\":6838:6840   */\n      0x20\n        /* \"#utility.yul\":6864:6914   */\n      tag_493\n        /* \"#utility.yul\":6906:6913   */\n      dup6\n        /* \"#utility.yul\":6897:6903   */\n      dup3\n        /* \"#utility.yul\":6886:6895   */\n      dup7\n        /* \"#utility.yul\":6882:6904   */\n      add\n        /* \"#utility.yul\":6864:6914   */\n      tag_367\n      jump\t// in\n    tag_493:\n        /* \"#utility.yul\":6854:6914   */\n      swap2\n      pop\n        /* \"#utility.yul\":6809:6924   */\n      pop\n        /* \"#utility.yul\":6463:6931   */\n      swap3\n      pop\n      swap3\n      swap1\n      pop\n      jump\t// out\n        /* \"#utility.yul\":6937:7054   */\n    tag_368:\n        /* \"#utility.yul\":7046:7047   */\n      0x00\n        /* \"#utility.yul\":7043:7044   */\n      dup1\n        /* \"#utility.yul\":7036:7048   */\n      revert\n        /* \"#utility.yul\":7060:7177   */\n    tag_369:\n        /* \"#utility.yul\":7169:7170   */\n      0x00\n        /* \"#utility.yul\":7166:7167   */\n      dup1\n        /* \"#utility.yul\":7159:7171   */\n      revert\n        /* \"#utility.yul\":7183:7363   */\n    tag_300:\n        /* \"#utility.yul\":7231:7308   */\n      0x4e487b7100000000000000000000000000000000000000000000000000000000\n        /* \"#utility.yul\":7228:7229   */\n      0x00\n        /* \"#utility.yul\":7221:7309   */\n      mstore\n        /* \"#utility.yul\":7328:7332   */\n      0x41\n        /* \"#utility.yul\":7325:7326   */\n      0x04\n        /* \"#utility.yul\":7318:7333   */\n      mstore\n        /* \"#utility.yul\":7352:7356   */\n      0x24\n        /* \"#utility.yul\":7349:7350   */\n      0x00\n        /* \"#utility.yul\":7342:7357   */\n      revert\n        /* \"#utility.yul\":7369:7650   */\n    tag_370:\n        /* \"#utility.yul\":7452:7479   */\n      tag_498\n        /* \"#utility.yul\":7474:7478   */\n      dup3\n        /* \"#utility.yul\":7452:7479   */\n      tag_355\n      jump\t// in\n    tag_498:\n        /* \"#utility.yul\":7444:7450   */\n      dup2\n        /* \"#utility.yul\":7440:7480   */\n      add\n        /* \"#utility.yul\":7582:7588   */\n      dup2\n        /* \"#utility.yul\":7570:7580   */\n      dup2\n        /* \"#utility.yul\":7567:7589   */\n      lt\n        /* \"#utility.yul\":7546:7564   */\n      0xffffffffffffffff\n        /* \"#utility.yul\":7534:7544   */\n      dup3\n        /* \"#utility.yul\":7531:7565   */\n      gt\n        /* \"#utility.yul\":7528:7590   */\n      or\n        /* \"#utility.yul\":7525:7613   */\n      iszero\n      tag_499\n      jumpi\n        /* \"#utility.yul\":7593:7611   */\n      tag_500\n      tag_300\n      jump\t// in\n    tag_500:\n        /* \"#utility.yul\":7525:7613   */\n    tag_499:\n        /* \"#utility.yul\":7633:7643   */\n      dup1\n        /* \"#utility.yul\":7629:7631   */\n      0x40\n        /* \"#utility.yul\":7622:7644   */\n      mstore\n        /* \"#utility.yul\":7412:7650   */\n      pop\n        /* \"#utility.yul\":7369:7650   */\n      pop\n      pop\n      jump\t// out\n        /* \"#utility.yul\":7656:7785   */\n    tag_371:\n        /* \"#utility.yul\":7690:7696   */\n      0x00\n        /* \"#utility.yul\":7717:7737   */\n      tag_502\n      tag_344\n      jump\t// in\n    tag_502:\n        /* \"#utility.yul\":7707:7737   */\n      swap1\n      pop\n        /* \"#utility.yul\":7746:7779   */\n      tag_503\n        /* \"#utility.yul\":7774:7778   */\n      dup3\n        /* \"#utility.yul\":7766:7772   */\n      dup3\n        /* \"#utility.yul\":7746:7779   */\n      tag_370\n      jump\t// in\n    tag_503:\n        /* \"#utility.yul\":7656:7785   */\n      swap2\n      swap1\n      pop\n      jump\t// out\n        /* \"#utility.yul\":7791:8098   */\n    tag_372:\n        /* \"#utility.yul\":7852:7856   */\n      0x00\n        /* \"#utility.yul\":7942:7960   */\n      0xffffffffffffffff\n        /* \"#utility.yul\":7934:7940   */\n      dup3\n        /* \"#utility.yul\":7931:7961   */\n      gt\n        /* \"#utility.yul\":7928:7984   */\n      iszero\n      tag_505\n      jumpi\n        /* \"#utility.yul\":7964:7982   */\n      tag_506\n      tag_300\n      jump\t// in\n    tag_506:\n        /* \"#utility.yul\":7928:7984   */\n    tag_505:\n        /* \"#utility.yul\":8002:8031   */\n      tag_507\n        /* \"#utility.yul\":8024:8030   */\n      dup3\n        /* \"#utility.yul\":8002:8031   */\n      tag_355\n      jump\t// in\n    tag_507:\n        /* \"#utility.yul\":7994:8031   */\n      swap1\n      pop\n        /* \"#utility.yul\":8086:8090   */\n      0x20\n        /* \"#utility.yul\":8080:8084   */\n      dup2\n        /* \"#utility.yul\":8076:8091   */\n      add\n        /* \"#utility.yul\":8068:8091   */\n      swap1\n      pop\n        /* \"#utility.yul\":7791:8098   */\n      swap2\n      swap1\n      pop\n      jump\t// out\n        /* \"#utility.yul\":8104:8250   */\n    tag_373:\n        /* \"#utility.yul\":8201:8207   */\n      dup3\n        /* \"#utility.yul\":8196:8199   */\n      dup2\n        /* \"#utility.yul\":8191:8194   */\n      dup4\n        /* \"#utility.yul\":8178:8208   */\n      calldatacopy\n        /* \"#utility.yul\":8242:8243   */\n      0x00\n        /* \"#utility.yul\":8233:8239   */\n      dup4\n        /* \"#utility.yul\":8228:8231   */\n      dup4\n        /* \"#utility.yul\":8224:8240   */\n      add\n        /* \"#utility.yul\":8217:8244   */\n      mstore\n        /* \"#utility.yul\":8104:8250   */\n      pop\n      pop\n      pop\n      jump\t// out\n        /* \"#utility.yul\":8256:8679   */\n    tag_374:\n        /* \"#utility.yul\":8333:8338   */\n      0x00\n        /* \"#utility.yul\":8358:8423   */\n      tag_510\n        /* \"#utility.yul\":8374:8422   */\n      tag_511\n        /* \"#utility.yul\":8415:8421   */\n      dup5\n        /* \"#utility.yul\":8374:8422   */\n      tag_372\n      jump\t// in\n    tag_511:\n        /* \"#utility.yul\":8358:8423   */\n      tag_371\n      jump\t// in\n    tag_510:\n        /* \"#utility.yul\":8349:8423   */\n      swap1\n      pop\n        /* \"#utility.yul\":8446:8452   */\n      dup3\n        /* \"#utility.yul\":8439:8444   */\n      dup2\n        /* \"#utility.yul\":8432:8453   */\n      mstore\n        /* \"#utility.yul\":8484:8488   */\n      0x20\n        /* \"#utility.yul\":8477:8482   */\n      dup2\n        /* \"#utility.yul\":8473:8489   */\n      add\n        /* \"#utility.yul\":8522:8525   */\n      dup5\n        /* \"#utility.yul\":8513:8519   */\n      dup5\n        /* \"#utility.yul\":8508:8511   */\n      dup5\n        /* \"#utility.yul\":8504:8520   */\n      add\n        /* \"#utility.yul\":8501:8526   */\n      gt\n        /* \"#utility.yul\":8498:8610   */\n      iszero\n      tag_512\n      jumpi\n        /* \"#utility.yul\":8529:8608   */\n      tag_513\n      tag_369\n      jump\t// in\n    tag_513:\n        /* \"#utility.yul\":8498:8610   */\n    tag_512:\n        /* \"#utility.yul\":8619:8673   */\n      tag_514\n        /* \"#utility.yul\":8666:8672   */\n      dup5\n        /* \"#utility.yul\":8661:8664   */\n      dup3\n        /* \"#utility.yul\":8656:8659   */\n      dup6\n        /* \"#utility.yul\":8619:8673   */\n      tag_373\n      jump\t// in\n    tag_514:\n        /* \"#utility.yul\":8339:8679   */\n      pop\n        /* \"#utility.yul\":8256:8679   */\n      swap4\n      swap3\n      pop\n      pop\n      pop\n      jump\t// out\n        /* \"#utility.yul\":8698:9036   */\n    tag_375:\n        /* \"#utility.yul\":8753:8758   */\n      0x00\n        /* \"#utility.yul\":8802:8805   */\n      dup3\n        /* \"#utility.yul\":8795:8799   */\n      0x1f\n        /* \"#utility.yul\":8787:8793   */\n      dup4\n        /* \"#utility.yul\":8783:8800   */\n      add\n        /* \"#utility.yul\":8779:8806   */\n      slt\n        /* \"#utility.yul\":8769:8891   */\n      tag_516\n      jumpi\n        /* \"#utility.yul\":8810:8889   */\n      tag_517\n      tag_368\n      jump\t// in\n    tag_517:\n        /* \"#utility.yul\":8769:8891   */\n    tag_516:\n        /* \"#utility.yul\":8927:8933   */\n      dup2\n        /* \"#utility.yul\":8914:8934   */\n      calldataload\n        /* \"#utility.yul\":8952:9030   */\n      tag_518\n        /* \"#utility.yul\":9026:9029   */\n      dup5\n        /* \"#utility.yul\":9018:9024   */\n      dup3\n        /* \"#utility.yul\":9011:9015   */\n      0x20\n        /* \"#utility.yul\":9003:9009   */\n      dup7\n        /* \"#utility.yul\":8999:9016   */\n      add\n        /* \"#utility.yul\":8952:9030   */\n      tag_374\n      jump\t// in\n    tag_518:\n        /* \"#utility.yul\":8943:9030   */\n      swap2\n      pop\n        /* \"#utility.yul\":8759:9036   */\n      pop\n        /* \"#utility.yul\":8698:9036   */\n      swap3\n      swap2\n      pop\n      pop\n      jump\t// out\n        /* \"#utility.yul\":9042:9985   */\n    tag_83:\n        /* \"#utility.yul\":9137:9143   */\n      0x00\n        /* \"#utility.yul\":9145:9151   */\n      dup1\n        /* \"#utility.yul\":9153:9159   */\n      0x00\n        /* \"#utility.yul\":9161:9167   */\n      dup1\n        /* \"#utility.yul\":9210:9213   */\n      0x80\n        /* \"#utility.yul\":9198:9207   */\n      dup6\n        /* \"#utility.yul\":9189:9196   */\n      dup8\n        /* \"#utility.yul\":9185:9208   */\n      sub\n        /* \"#utility.yul\":9181:9214   */\n      slt\n        /* \"#utility.yul\":9178:9298   */\n      iszero\n      tag_520\n      jumpi\n        /* \"#utility.yul\":9217:9296   */\n      tag_521\n      tag_345\n      jump\t// in\n    tag_521:\n        /* \"#utility.yul\":9178:9298   */\n    tag_520:\n        /* \"#utility.yul\":9337:9338   */\n      0x00\n        /* \"#utility.yul\":9362:9415   */\n      tag_522\n        /* \"#utility.yul\":9407:9414   */\n      dup8\n        /* \"#utility.yul\":9398:9404   */\n      dup3\n        /* \"#utility.yul\":9387:9396   */\n      dup9\n        /* \"#utility.yul\":9383:9405   */\n      add\n        /* \"#utility.yul\":9362:9415   */\n      tag_364\n      jump\t// in\n    tag_522:\n        /* \"#utility.yul\":9352:9415   */\n      swap5\n      pop\n        /* \"#utility.yul\":9308:9425   */\n      pop\n        /* \"#utility.yul\":9464:9466   */\n      0x20\n        /* \"#utility.yul\":9490:9543   */\n      tag_523\n        /* \"#utility.yul\":9535:9542   */\n      dup8\n        /* \"#utility.yul\":9526:9532   */\n      dup3\n        /* \"#utility.yul\":9515:9524   */\n      dup9\n        /* \"#utility.yul\":9511:9533   */\n      add\n        /* \"#utility.yul\":9490:9543   */\n      tag_364\n      jump\t// in\n    tag_523:\n        /* \"#utility.yul\":9480:9543   */\n      swap4\n      pop\n        /* \"#utility.yul\":9435:9553   */\n      pop\n        /* \"#utility.yul\":9592:9594   */\n      0x40\n        /* \"#utility.yul\":9618:9671   */\n      tag_524\n        /* \"#utility.yul\":9663:9670   */\n      dup8\n        /* \"#utility.yul\":9654:9660   */\n      dup3\n        /* \"#utility.yul\":9643:9652   */\n      dup9\n        /* \"#utility.yul\":9639:9661   */\n      add\n        /* \"#utility.yul\":9618:9671   */\n      tag_359\n      jump\t// in\n    tag_524:\n        /* \"#utility.yul\":9608:9671   */\n      swap3\n      pop\n        /* \"#utility.yul\":9563:9681   */\n      pop\n        /* \"#utility.yul\":9748:9750   */\n      0x60\n        /* \"#utility.yul\":9737:9746   */\n      dup6\n        /* \"#utility.yul\":9733:9751   */\n      add\n        /* \"#utility.yul\":9720:9752   */\n      calldataload\n        /* \"#utility.yul\":9779:9797   */\n      0xffffffffffffffff\n        /* \"#utility.yul\":9771:9777   */\n      dup2\n        /* \"#utility.yul\":9768:9798   */\n      gt\n        /* \"#utility.yul\":9765:9882   */\n      iszero\n      tag_525\n      jumpi\n        /* \"#utility.yul\":9801:9880   */\n      tag_526\n      tag_346\n      jump\t// in\n    tag_526:\n        /* \"#utility.yul\":9765:9882   */\n    tag_525:\n        /* \"#utility.yul\":9906:9968   */\n      tag_527\n        /* \"#utility.yul\":9960:9967   */\n      dup8\n        /* \"#utility.yul\":9951:9957   */\n      dup3\n        /* \"#utility.yul\":9940:9949   */\n      dup9\n        /* \"#utility.yul\":9936:9958   */\n      add\n        /* \"#utility.yul\":9906:9968   */\n      tag_375\n      jump\t// in\n    tag_527:\n        /* \"#utility.yul\":9896:9968   */\n      swap2\n      pop\n        /* \"#utility.yul\":9691:9978   */\n      pop\n        /* \"#utility.yul\":9042:9985   */\n      swap3\n      swap6\n      swap2\n      swap5\n      pop\n      swap3\n      pop\n      jump\t// out\n        /* \"#utility.yul\":9991:10299   */\n    tag_376:\n        /* \"#utility.yul\":10053:10057   */\n      0x00\n        /* \"#utility.yul\":10143:10161   */\n      0xffffffffffffffff\n        /* \"#utility.yul\":10135:10141   */\n      dup3\n        /* \"#utility.yul\":10132:10162   */\n      gt\n        /* \"#utility.yul\":10129:10185   */\n      iszero\n      tag_529\n      jumpi\n        /* \"#utility.yul\":10165:10183   */\n      tag_530\n      tag_300\n      jump\t// in\n    tag_530:\n        /* \"#utility.yul\":10129:10185   */\n    tag_529:\n        /* \"#utility.yul\":10203:10232   */\n      tag_531\n        /* \"#utility.yul\":10225:10231   */\n      dup3\n        /* \"#utility.yul\":10203:10232   */\n      tag_355\n      jump\t// in\n    tag_531:\n        /* \"#utility.yul\":10195:10232   */\n      swap1\n      pop\n        /* \"#utility.yul\":10287:10291   */\n      0x20\n        /* \"#utility.yul\":10281:10285   */\n      dup2\n        /* \"#utility.yul\":10277:10292   */\n      add\n        /* \"#utility.yul\":10269:10292   */\n      swap1\n      pop\n        /* \"#utility.yul\":9991:10299   */\n      swap2\n      swap1\n      pop\n      jump\t// out\n        /* \"#utility.yul\":10305:10730   */\n    tag_377:\n        /* \"#utility.yul\":10383:10388   */\n      0x00\n        /* \"#utility.yul\":10408:10474   */\n      tag_533\n        /* \"#utility.yul\":10424:10473   */\n      tag_534\n        /* \"#utility.yul\":10466:10472   */\n      dup5\n        /* \"#utility.yul\":10424:10473   */\n      tag_376\n      jump\t// in\n    tag_534:\n        /* \"#utility.yul\":10408:10474   */\n      tag_371\n      jump\t// in\n    tag_533:\n        /* \"#utility.yul\":10399:10474   */\n      swap1\n      pop\n        /* \"#utility.yul\":10497:10503   */\n      dup3\n        /* \"#utility.yul\":10490:10495   */\n      dup2\n        /* \"#utility.yul\":10483:10504   */\n      mstore\n        /* \"#utility.yul\":10535:10539   */\n      0x20\n        /* \"#utility.yul\":10528:10533   */\n      dup2\n        /* \"#utility.yul\":10524:10540   */\n      add\n        /* \"#utility.yul\":10573:10576   */\n      dup5\n        /* \"#utility.yul\":10564:10570   */\n      dup5\n        /* \"#utility.yul\":10559:10562   */\n      dup5\n        /* \"#utility.yul\":10555:10571   */\n      add\n        /* \"#utility.yul\":10552:10577   */\n      gt\n        /* \"#utility.yul\":10549:10661   */\n      iszero\n      tag_535\n      jumpi\n        /* \"#utility.yul\":10580:10659   */\n      tag_536\n      tag_369\n      jump\t// in\n    tag_536:\n        /* \"#utility.yul\":10549:10661   */\n    tag_535:\n        /* \"#utility.yul\":10670:10724   */\n      tag_537\n        /* \"#utility.yul\":10717:10723   */\n      dup5\n        /* \"#utility.yul\":10712:10715   */\n      dup3\n        /* \"#utility.yul\":10707:10710   */\n      dup6\n        /* \"#utility.yul\":10670:10724   */\n      tag_373\n      jump\t// in\n    tag_537:\n        /* \"#utility.yul\":10389:10730   */\n      pop\n        /* \"#utility.yul\":10305:10730   */\n      swap4\n      swap3\n      pop\n      pop\n      pop\n      jump\t// out\n        /* \"#utility.yul\":10750:11090   */\n    tag_378:\n        /* \"#utility.yul\":10806:10811   */\n      0x00\n        /* \"#utility.yul\":10855:10858   */\n      dup3\n        /* \"#utility.yul\":10848:10852   */\n      0x1f\n        /* \"#utility.yul\":10840:10846   */\n      dup4\n        /* \"#utility.yul\":10836:10853   */\n      add\n        /* \"#utility.yul\":10832:10859   */\n      slt\n        /* \"#utility.yul\":10822:10944   */\n      tag_539\n      jumpi\n        /* \"#utility.yul\":10863:10942   */\n      tag_540\n      tag_368\n      jump\t// in\n    tag_540:\n        /* \"#utility.yul\":10822:10944   */\n    tag_539:\n        /* \"#utility.yul\":10980:10986   */\n      dup2\n        /* \"#utility.yul\":10967:10987   */\n      calldataload\n        /* \"#utility.yul\":11005:11084   */\n      tag_541\n        /* \"#utility.yul\":11080:11083   */\n      dup5\n        /* \"#utility.yul\":11072:11078   */\n      dup3\n        /* \"#utility.yul\":11065:11069   */\n      0x20\n        /* \"#utility.yul\":11057:11063   */\n      dup7\n        /* \"#utility.yul\":11053:11070   */\n      add\n        /* \"#utility.yul\":11005:11084   */\n      tag_377\n      jump\t// in\n    tag_541:\n        /* \"#utility.yul\":10996:11084   */\n      swap2\n      pop\n        /* \"#utility.yul\":10812:11090   */\n      pop\n        /* \"#utility.yul\":10750:11090   */\n      swap3\n      swap2\n      pop\n      pop\n      jump\t// out\n        /* \"#utility.yul\":11096:11605   */\n    tag_91:\n        /* \"#utility.yul\":11165:11171   */\n      0x00\n        /* \"#utility.yul\":11214:11216   */\n      0x20\n        /* \"#utility.yul\":11202:11211   */\n      dup3\n        /* \"#utility.yul\":11193:11200   */\n      dup5\n        /* \"#utility.yul\":11189:11212   */\n      sub\n        /* \"#utility.yul\":11185:11217   */\n      slt\n        /* \"#utility.yul\":11182:11301   */\n      iszero\n      tag_543\n      jumpi\n        /* \"#utility.yul\":11220:11299   */\n      tag_544\n      tag_345\n      jump\t// in\n    tag_544:\n        /* \"#utility.yul\":11182:11301   */\n    tag_543:\n        /* \"#utility.yul\":11368:11369   */\n      0x00\n        /* \"#utility.yul\":11357:11366   */\n      dup3\n        /* \"#utility.yul\":11353:11370   */\n      add\n        /* \"#utility.yul\":11340:11371   */\n      calldataload\n        /* \"#utility.yul\":11398:11416   */\n      0xffffffffffffffff\n        /* \"#utility.yul\":11390:11396   */\n      dup2\n        /* \"#utility.yul\":11387:11417   */\n      gt\n        /* \"#utility.yul\":11384:11501   */\n      iszero\n      tag_545\n      jumpi\n        /* \"#utility.yul\":11420:11499   */\n      tag_546\n      tag_346\n      jump\t// in\n    tag_546:\n        /* \"#utility.yul\":11384:11501   */\n    tag_545:\n        /* \"#utility.yul\":11525:11588   */\n      tag_547\n        /* \"#utility.yul\":11580:11587   */\n      dup5\n        /* \"#utility.yul\":11571:11577   */\n      dup3\n        /* \"#utility.yul\":11560:11569   */\n      dup6\n        /* \"#utility.yul\":11556:11578   */\n      add\n        /* \"#utility.yul\":11525:11588   */\n      tag_378\n      jump\t// in\n    tag_547:\n        /* \"#utility.yul\":11515:11588   */\n      swap2\n      pop\n        /* \"#utility.yul\":11311:11598   */\n      pop\n        /* \"#utility.yul\":11096:11605   */\n      swap3\n      swap2\n      pop\n      pop\n      jump\t// out\n        /* \"#utility.yul\":11611:12085   */\n    tag_96:\n        /* \"#utility.yul\":11679:11685   */\n      0x00\n        /* \"#utility.yul\":11687:11693   */\n      dup1\n        /* \"#utility.yul\":11736:11738   */\n      0x40\n        /* \"#utility.yul\":11724:11733   */\n      dup4\n        /* \"#utility.yul\":11715:11722   */\n      dup6\n        /* \"#utility.yul\":11711:11734   */\n      sub\n        /* \"#utility.yul\":11707:11739   */\n      slt\n        /* \"#utility.yul\":11704:11823   */\n      iszero\n      tag_549\n      jumpi\n        /* \"#utility.yul\":11742:11821   */\n      tag_550\n      tag_345\n      jump\t// in\n    tag_550:\n        /* \"#utility.yul\":11704:11823   */\n    tag_549:\n        /* \"#utility.yul\":11862:11863   */\n      0x00\n        /* \"#utility.yul\":11887:11940   */\n      tag_551\n        /* \"#utility.yul\":11932:11939   */\n      dup6\n        /* \"#utility.yul\":11923:11929   */\n      dup3\n        /* \"#utility.yul\":11912:11921   */\n      dup7\n        /* \"#utility.yul\":11908:11930   */\n      add\n        /* \"#utility.yul\":11887:11940   */\n      tag_364\n      jump\t// in\n    tag_551:\n        /* \"#utility.yul\":11877:11940   */\n      swap3\n      pop\n        /* \"#utility.yul\":11833:11950   */\n      pop\n        /* \"#utility.yul\":11989:11991   */\n      0x20\n        /* \"#utility.yul\":12015:12068   */\n      tag_552\n        /* \"#utility.yul\":12060:12067   */\n      dup6\n        /* \"#utility.yul\":12051:12057   */\n      dup3\n        /* \"#utility.yul\":12040:12049   */\n      dup7\n        /* \"#utility.yul\":12036:12058   */\n      add\n        /* \"#utility.yul\":12015:12068   */\n      tag_364\n      jump\t// in\n    tag_552:\n        /* \"#utility.yul\":12005:12068   */\n      swap2\n      pop\n        /* \"#utility.yul\":11960:12078   */\n      pop\n        /* \"#utility.yul\":11611:12085   */\n      swap3\n      pop\n      swap3\n      swap1\n      pop\n      jump\t// out\n        /* \"#utility.yul\":12091:12151   */\n    tag_379:\n        /* \"#utility.yul\":12119:12122   */\n      0x00\n        /* \"#utility.yul\":12140:12145   */\n      dup2\n        /* \"#utility.yul\":12133:12145   */\n      swap1\n      pop\n        /* \"#utility.yul\":12091:12151   */\n      swap2\n      swap1\n      pop\n      jump\t// out\n        /* \"#utility.yul\":12157:12299   */\n    tag_380:\n        /* \"#utility.yul\":12207:12216   */\n      0x00\n        /* \"#utility.yul\":12240:12293   */\n      tag_555\n        /* \"#utility.yul\":12258:12292   */\n      tag_556\n        /* \"#utility.yul\":12267:12291   */\n      tag_557\n        /* \"#utility.yul\":12285:12290   */\n      dup5\n        /* \"#utility.yul\":12267:12291   */\n      tag_360\n      jump\t// in\n    tag_557:\n        /* \"#utility.yul\":12258:12292   */\n      tag_379\n      jump\t// in\n    tag_556:\n        /* \"#utility.yul\":12240:12293   */\n      tag_360\n      jump\t// in\n    tag_555:\n        /* \"#utility.yul\":12227:12293   */\n      swap1\n      pop\n        /* \"#utility.yul\":12157:12299   */\n      swap2\n      swap1\n      pop\n      jump\t// out\n        /* \"#utility.yul\":12305:12431   */\n    tag_381:\n        /* \"#utility.yul\":12355:12364   */\n      0x00\n        /* \"#utility.yul\":12388:12425   */\n      tag_559\n        /* \"#utility.yul\":12419:12424   */\n      dup3\n        /* \"#utility.yul\":12388:12425   */\n      tag_380\n      jump\t// in\n    tag_559:\n        /* \"#utility.yul\":12375:12425   */\n      swap1\n      pop\n        /* \"#utility.yul\":12305:12431   */\n      swap2\n      swap1\n      pop\n      jump\t// out\n        /* \"#utility.yul\":12437:12600   */\n    tag_382:\n        /* \"#utility.yul\":12524:12533   */\n      0x00\n        /* \"#utility.yul\":12557:12594   */\n      tag_561\n        /* \"#utility.yul\":12588:12593   */\n      dup3\n        /* \"#utility.yul\":12557:12594   */\n      tag_381\n      jump\t// in\n    tag_561:\n        /* \"#utility.yul\":12544:12594   */\n      swap1\n      pop\n        /* \"#utility.yul\":12437:12600   */\n      swap2\n      swap1\n      pop\n      jump\t// out\n        /* \"#utility.yul\":12606:12811   */\n    tag_383:\n        /* \"#utility.yul\":12730:12804   */\n      tag_563\n        /* \"#utility.yul\":12798:12803   */\n      dup2\n        /* \"#utility.yul\":12730:12804   */\n      tag_382\n      jump\t// in\n    tag_563:\n        /* \"#utility.yul\":12725:12728   */\n      dup3\n        /* \"#utility.yul\":12718:12805   */\n      mstore\n        /* \"#utility.yul\":12606:12811   */\n      pop\n      pop\n      jump\t// out\n        /* \"#utility.yul\":12817:13113   */\n    tag_102:\n        /* \"#utility.yul\":12947:12951   */\n      0x00\n        /* \"#utility.yul\":12985:12987   */\n      0x20\n        /* \"#utility.yul\":12974:12983   */\n      dup3\n        /* \"#utility.yul\":12970:12988   */\n      add\n        /* \"#utility.yul\":12962:12988   */\n      swap1\n      pop\n        /* \"#utility.yul\":12998:13106   */\n      tag_565\n        /* \"#utility.yul\":13103:13104   */\n      0x00\n        /* \"#utility.yul\":13092:13101   */\n      dup4\n        /* \"#utility.yul\":13088:13105   */\n      add\n        /* \"#utility.yul\":13079:13085   */\n      dup5\n        /* \"#utility.yul\":12998:13106   */\n      tag_383\n      jump\t// in\n    tag_565:\n        /* \"#utility.yul\":12817:13113   */\n      swap3\n      swap2\n      pop\n      pop\n      jump\t// out\n        /* \"#utility.yul\":13119:13299   */\n    tag_384:\n        /* \"#utility.yul\":13167:13244   */\n      0x4e487b7100000000000000000000000000000000000000000000000000000000\n        /* \"#utility.yul\":13164:13165   */\n      0x00\n        /* \"#utility.yul\":13157:13245   */\n      mstore\n        /* \"#utility.yul\":13264:13268   */\n      0x22\n        /* \"#utility.yul\":13261:13262   */\n      0x04\n        /* \"#utility.yul\":13254:13269   */\n      mstore\n        /* \"#utility.yul\":13288:13292   */\n      0x24\n        /* \"#utility.yul\":13285:13286   */\n      0x00\n        /* \"#utility.yul\":13278:13293   */\n      revert\n        /* \"#utility.yul\":13305:13625   */\n    tag_112:\n        /* \"#utility.yul\":13349:13355   */\n      0x00\n        /* \"#utility.yul\":13386:13387   */\n      0x02\n        /* \"#utility.yul\":13380:13384   */\n      dup3\n        /* \"#utility.yul\":13376:13388   */\n      div\n        /* \"#utility.yul\":13366:13388   */\n      swap1\n      pop\n        /* \"#utility.yul\":13433:13434   */\n      0x01\n        /* \"#utility.yul\":13427:13431   */\n      dup3\n        /* \"#utility.yul\":13423:13435   */\n      and\n        /* \"#utility.yul\":13454:13472   */\n      dup1\n        /* \"#utility.yul\":13444:13525   */\n      tag_568\n      jumpi\n        /* \"#utility.yul\":13510:13514   */\n      0x7f\n        /* \"#utility.yul\":13502:13508   */\n      dup3\n        /* \"#utility.yul\":13498:13515   */\n      and\n        /* \"#utility.yul\":13488:13515   */\n      swap2\n      pop\n        /* \"#utility.yul\":13444:13525   */\n    tag_568:\n        /* \"#utility.yul\":13572:13574   */\n      0x20\n        /* \"#utility.yul\":13564:13570   */\n      dup3\n        /* \"#utility.yul\":13561:13575   */\n      lt\n        /* \"#utility.yul\":13541:13559   */\n      dup2\n        /* \"#utility.yul\":13538:13576   */\n      sub\n        /* \"#utility.yul\":13535:13619   */\n      tag_569\n      jumpi\n        /* \"#utility.yul\":13591:13609   */\n      tag_570\n      tag_384\n      jump\t// in\n    tag_570:\n        /* \"#utility.yul\":13535:13619   */\n    tag_569:\n        /* \"#utility.yul\":13356:13625   */\n      pop\n        /* \"#utility.yul\":13305:13625   */\n      swap2\n      swap1\n      pop\n      jump\t// out\n        /* \"#utility.yul\":13631:14073   */\n    tag_139:\n        /* \"#utility.yul\":13780:13784   */\n      0x00\n        /* \"#utility.yul\":13818:13820   */\n      0x60\n        /* \"#utility.yul\":13807:13816   */\n      dup3\n        /* \"#utility.yul\":13803:13821   */\n      add\n        /* \"#utility.yul\":13795:13821   */\n      swap1\n      pop\n        /* \"#utility.yul\":13831:13902   */\n      tag_572\n        /* \"#utility.yul\":13899:13900   */\n      0x00\n        /* \"#utility.yul\":13888:13897   */\n      dup4\n        /* \"#utility.yul\":13884:13901   */\n      add\n        /* \"#utility.yul\":13875:13881   */\n      dup7\n        /* \"#utility.yul\":13831:13902   */\n      tag_362\n      jump\t// in\n    tag_572:\n        /* \"#utility.yul\":13912:13984   */\n      tag_573\n        /* \"#utility.yul\":13980:13982   */\n      0x20\n        /* \"#utility.yul\":13969:13978   */\n      dup4\n        /* \"#utility.yul\":13965:13983   */\n      add\n        /* \"#utility.yul\":13956:13962   */\n      dup6\n        /* \"#utility.yul\":13912:13984   */\n      tag_365\n      jump\t// in\n    tag_573:\n        /* \"#utility.yul\":13994:14066   */\n      tag_574\n        /* \"#utility.yul\":14062:14064   */\n      0x40\n        /* \"#utility.yul\":14051:14060   */\n      dup4\n        /* \"#utility.yul\":14047:14065   */\n      add\n        /* \"#utility.yul\":14038:14044   */\n      dup5\n        /* \"#utility.yul\":13994:14066   */\n      tag_362\n      jump\t// in\n    tag_574:\n        /* \"#utility.yul\":13631:14073   */\n      swap5\n      swap4\n      pop\n      pop\n      pop\n      pop\n      jump\t// out\n        /* \"#utility.yul\":14079:14227   */\n    tag_385:\n        /* \"#utility.yul\":14181:14192   */\n      0x00\n        /* \"#utility.yul\":14218:14221   */\n      dup2\n        /* \"#utility.yul\":14203:14221   */\n      swap1\n      pop\n        /* \"#utility.yul\":14079:14227   */\n      swap3\n      swap2\n      pop\n      pop\n      jump\t// out\n        /* \"#utility.yul\":14233:14623   */\n    tag_386:\n        /* \"#utility.yul\":14339:14342   */\n      0x00\n        /* \"#utility.yul\":14367:14406   */\n      tag_577\n        /* \"#utility.yul\":14400:14405   */\n      dup3\n        /* \"#utility.yul\":14367:14406   */\n      tag_352\n      jump\t// in\n    tag_577:\n        /* \"#utility.yul\":14422:14511   */\n      tag_578\n        /* \"#utility.yul\":14504:14510   */\n      dup2\n        /* \"#utility.yul\":14499:14502   */\n      dup6\n        /* \"#utility.yul\":14422:14511   */\n      tag_385\n      jump\t// in\n    tag_578:\n        /* \"#utility.yul\":14415:14511   */\n      swap4\n      pop\n        /* \"#utility.yul\":14520:14585   */\n      tag_579\n        /* \"#utility.yul\":14578:14584   */\n      dup2\n        /* \"#utility.yul\":14573:14576   */\n      dup6\n        /* \"#utility.yul\":14566:14570   */\n      0x20\n        /* \"#utility.yul\":14559:14564   */\n      dup7\n        /* \"#utility.yul\":14555:14571   */\n      add\n        /* \"#utility.yul\":14520:14585   */\n      tag_354\n      jump\t// in\n    tag_579:\n        /* \"#utility.yul\":14610:14616   */\n      dup1\n        /* \"#utility.yul\":14605:14608   */\n      dup5\n        /* \"#utility.yul\":14601:14617   */\n      add\n        /* \"#utility.yul\":14594:14617   */\n      swap2\n      pop\n        /* \"#utility.yul\":14343:14623   */\n      pop\n        /* \"#utility.yul\":14233:14623   */\n      swap3\n      swap2\n      pop\n      pop\n      jump\t// out\n        /* \"#utility.yul\":14629:15064   */\n    tag_179:\n        /* \"#utility.yul\":14809:14812   */\n      0x00\n        /* \"#utility.yul\":14831:14926   */\n      tag_581\n        /* \"#utility.yul\":14922:14925   */\n      dup3\n        /* \"#utility.yul\":14913:14919   */\n      dup6\n        /* \"#utility.yul\":14831:14926   */\n      tag_386\n      jump\t// in\n    tag_581:\n        /* \"#utility.yul\":14824:14926   */\n      swap2\n      pop\n        /* \"#utility.yul\":14943:15038   */\n      tag_582\n        /* \"#utility.yul\":15034:15037   */\n      dup3\n        /* \"#utility.yul\":15025:15031   */\n      dup5\n        /* \"#utility.yul\":14943:15038   */\n      tag_386\n      jump\t// in\n    tag_582:\n        /* \"#utility.yul\":14936:15038   */\n      swap2\n      pop\n        /* \"#utility.yul\":15055:15058   */\n      dup2\n        /* \"#utility.yul\":15048:15058   */\n      swap1\n      pop\n        /* \"#utility.yul\":14629:15064   */\n      swap4\n      swap3\n      pop\n      pop\n      pop\n      jump\t// out\n        /* \"#utility.yul\":15070:15504   */\n    tag_387:\n        /* \"#utility.yul\":15159:15164   */\n      0x00\n        /* \"#utility.yul\":15184:15250   */\n      tag_584\n        /* \"#utility.yul\":15200:15249   */\n      tag_585\n        /* \"#utility.yul\":15242:15248   */\n      dup5\n        /* \"#utility.yul\":15200:15249   */\n      tag_376\n      jump\t// in\n    tag_585:\n        /* \"#utility.yul\":15184:15250   */\n      tag_371\n      jump\t// in\n    tag_584:\n        /* \"#utility.yul\":15175:15250   */\n      swap1\n      pop\n        /* \"#utility.yul\":15273:15279   */\n      dup3\n        /* \"#utility.yul\":15266:15271   */\n      dup2\n        /* \"#utility.yul\":15259:15280   */\n      mstore\n        /* \"#utility.yul\":15311:15315   */\n      0x20\n        /* \"#utility.yul\":15304:15309   */\n      dup2\n        /* \"#utility.yul\":15300:15316   */\n      add\n        /* \"#utility.yul\":15349:15352   */\n      dup5\n        /* \"#utility.yul\":15340:15346   */\n      dup5\n        /* \"#utility.yul\":15335:15338   */\n      dup5\n        /* \"#utility.yul\":15331:15347   */\n      add\n        /* \"#utility.yul\":15328:15353   */\n      gt\n        /* \"#utility.yul\":15325:15437   */\n      iszero\n      tag_586\n      jumpi\n        /* \"#utility.yul\":15356:15435   */\n      tag_587\n      tag_369\n      jump\t// in\n    tag_587:\n        /* \"#utility.yul\":15325:15437   */\n    tag_586:\n        /* \"#utility.yul\":15446:15498   */\n      tag_588\n        /* \"#utility.yul\":15491:15497   */\n      dup5\n        /* \"#utility.yul\":15486:15489   */\n      dup3\n        /* \"#utility.yul\":15481:15484   */\n      dup6\n        /* \"#utility.yul\":15446:15498   */\n      tag_354\n      jump\t// in\n    tag_588:\n        /* \"#utility.yul\":15165:15504   */\n      pop\n        /* \"#utility.yul\":15070:15504   */\n      swap4\n      swap3\n      pop\n      pop\n      pop\n      jump\t// out\n        /* \"#utility.yul\":15524:15879   */\n    tag_388:\n        /* \"#utility.yul\":15591:15596   */\n      0x00\n        /* \"#utility.yul\":15640:15643   */\n      dup3\n        /* \"#utility.yul\":15633:15637   */\n      0x1f\n        /* \"#utility.yul\":15625:15631   */\n      dup4\n        /* \"#utility.yul\":15621:15638   */\n      add\n        /* \"#utility.yul\":15617:15644   */\n      slt\n        /* \"#utility.yul\":15607:15729   */\n      tag_590\n      jumpi\n        /* \"#utility.yul\":15648:15727   */\n      tag_591\n      tag_368\n      jump\t// in\n    tag_591:\n        /* \"#utility.yul\":15607:15729   */\n    tag_590:\n        /* \"#utility.yul\":15758:15764   */\n      dup2\n        /* \"#utility.yul\":15752:15765   */\n      mload\n        /* \"#utility.yul\":15783:15873   */\n      tag_592\n        /* \"#utility.yul\":15869:15872   */\n      dup5\n        /* \"#utility.yul\":15861:15867   */\n      dup3\n        /* \"#utility.yul\":15854:15858   */\n      0x20\n        /* \"#utility.yul\":15846:15852   */\n      dup7\n        /* \"#utility.yul\":15842:15859   */\n      add\n        /* \"#utility.yul\":15783:15873   */\n      tag_387\n      jump\t// in\n    tag_592:\n        /* \"#utility.yul\":15774:15873   */\n      swap2\n      pop\n        /* \"#utility.yul\":15597:15879   */\n      pop\n        /* \"#utility.yul\":15524:15879   */\n      swap3\n      swap2\n      pop\n      pop\n      jump\t// out\n        /* \"#utility.yul\":15885:16409   */\n    tag_187:\n        /* \"#utility.yul\":15965:15971   */\n      0x00\n        /* \"#utility.yul\":16014:16016   */\n      0x20\n        /* \"#utility.yul\":16002:16011   */\n      dup3\n        /* \"#utility.yul\":15993:16000   */\n      dup5\n        /* \"#utility.yul\":15989:16012   */\n      sub\n        /* \"#utility.yul\":15985:16017   */\n      slt\n        /* \"#utility.yul\":15982:16101   */\n      iszero\n      tag_594\n      jumpi\n        /* \"#utility.yul\":16020:16099   */\n      tag_595\n      tag_345\n      jump\t// in\n    tag_595:\n        /* \"#utility.yul\":15982:16101   */\n    tag_594:\n        /* \"#utility.yul\":16161:16162   */\n      0x00\n        /* \"#utility.yul\":16150:16159   */\n      dup3\n        /* \"#utility.yul\":16146:16163   */\n      add\n        /* \"#utility.yul\":16140:16164   */\n      mload\n        /* \"#utility.yul\":16191:16209   */\n      0xffffffffffffffff\n        /* \"#utility.yul\":16183:16189   */\n      dup2\n        /* \"#utility.yul\":16180:16210   */\n      gt\n        /* \"#utility.yul\":16177:16294   */\n      iszero\n      tag_596\n      jumpi\n        /* \"#utility.yul\":16213:16292   */\n      tag_597\n      tag_346\n      jump\t// in\n    tag_597:\n        /* \"#utility.yul\":16177:16294   */\n    tag_596:\n        /* \"#utility.yul\":16318:16392   */\n      tag_598\n        /* \"#utility.yul\":16384:16391   */\n      dup5\n        /* \"#utility.yul\":16375:16381   */\n      dup3\n        /* \"#utility.yul\":16364:16373   */\n      dup6\n        /* \"#utility.yul\":16360:16382   */\n      add\n        /* \"#utility.yul\":16318:16392   */\n      tag_388\n      jump\t// in\n    tag_598:\n        /* \"#utility.yul\":16308:16392   */\n      swap2\n      pop\n        /* \"#utility.yul\":16111:16402   */\n      pop\n        /* \"#utility.yul\":15885:16409   */\n      swap3\n      swap2\n      pop\n      pop\n      jump\t// out\n        /* \"#utility.yul\":16415:16657   */\n    tag_389:\n        /* \"#utility.yul\":16555:16589   */\n      0x4f6e6c7920617574686f72697a656420737570706c696572732063616e206d69\n        /* \"#utility.yul\":16551:16552   */\n      0x00\n        /* \"#utility.yul\":16543:16549   */\n      dup3\n        /* \"#utility.yul\":16539:16553   */\n      add\n        /* \"#utility.yul\":16532:16590   */\n      mstore\n        /* \"#utility.yul\":16624:16649   */\n      0x6e74207061636b616765642070726f64756374204e4654000000000000000000\n        /* \"#utility.yul\":16619:16621   */\n      0x20\n        /* \"#utility.yul\":16611:16617   */\n      dup3\n        /* \"#utility.yul\":16607:16622   */\n      add\n        /* \"#utility.yul\":16600:16650   */\n      mstore\n        /* \"#utility.yul\":16415:16657   */\n      pop\n      jump\t// out\n        /* \"#utility.yul\":16663:17029   */\n    tag_390:\n        /* \"#utility.yul\":16805:16808   */\n      0x00\n        /* \"#utility.yul\":16826:16893   */\n      tag_601\n        /* \"#utility.yul\":16890:16892   */\n      0x37\n        /* \"#utility.yul\":16885:16888   */\n      dup4\n        /* \"#utility.yul\":16826:16893   */\n      tag_353\n      jump\t// in\n    tag_601:\n        /* \"#utility.yul\":16819:16893   */\n      swap2\n      pop\n        /* \"#utility.yul\":16902:16995   */\n      tag_602\n        /* \"#utility.yul\":16991:16994   */\n      dup3\n        /* \"#utility.yul\":16902:16995   */\n      tag_389\n      jump\t// in\n    tag_602:\n        /* \"#utility.yul\":17020:17022   */\n      0x40\n        /* \"#utility.yul\":17015:17018   */\n      dup3\n        /* \"#utility.yul\":17011:17023   */\n      add\n        /* \"#utility.yul\":17004:17023   */\n      swap1\n      pop\n        /* \"#utility.yul\":16663:17029   */\n      swap2\n      swap1\n      pop\n      jump\t// out\n        /* \"#utility.yul\":17035:17454   */\n    tag_190:\n        /* \"#utility.yul\":17201:17205   */\n      0x00\n        /* \"#utility.yul\":17239:17241   */\n      0x20\n        /* \"#utility.yul\":17228:17237   */\n      dup3\n        /* \"#utility.yul\":17224:17242   */\n      add\n        /* \"#utility.yul\":17216:17242   */\n      swap1\n      pop\n        /* \"#utility.yul\":17288:17297   */\n      dup2\n        /* \"#utility.yul\":17282:17286   */\n      dup2\n        /* \"#utility.yul\":17278:17298   */\n      sub\n        /* \"#utility.yul\":17274:17275   */\n      0x00\n        /* \"#utility.yul\":17263:17272   */\n      dup4\n        /* \"#utility.yul\":17259:17276   */\n      add\n        /* \"#utility.yul\":17252:17299   */\n      mstore\n        /* \"#utility.yul\":17316:17447   */\n      tag_604\n        /* \"#utility.yul\":17442:17446   */\n      dup2\n        /* \"#utility.yul\":17316:17447   */\n      tag_390\n      jump\t// in\n    tag_604:\n        /* \"#utility.yul\":17308:17447   */\n      swap1\n      pop\n        /* \"#utility.yul\":17035:17454   */\n      swap2\n      swap1\n      pop\n      jump\t// out\n        /* \"#utility.yul\":17460:17640   */\n    tag_391:\n        /* \"#utility.yul\":17508:17585   */\n      0x4e487b7100000000000000000000000000000000000000000000000000000000\n        /* \"#utility.yul\":17505:17506   */\n      0x00\n        /* \"#utility.yul\":17498:17586   */\n      mstore\n        /* \"#utility.yul\":17605:17609   */\n      0x11\n        /* \"#utility.yul\":17602:17603   */\n      0x04\n        /* \"#utility.yul\":17595:17610   */\n      mstore\n        /* \"#utility.yul\":17629:17633   */\n      0x24\n        /* \"#utility.yul\":17626:17627   */\n      0x00\n        /* \"#utility.yul\":17619:17634   */\n      revert\n        /* \"#utility.yul\":17646:17879   */\n    tag_192:\n        /* \"#utility.yul\":17685:17688   */\n      0x00\n        /* \"#utility.yul\":17708:17732   */\n      tag_607\n        /* \"#utility.yul\":17726:17731   */\n      dup3\n        /* \"#utility.yul\":17708:17732   */\n      tag_357\n      jump\t// in\n    tag_607:\n        /* \"#utility.yul\":17699:17732   */\n      swap2\n      pop\n        /* \"#utility.yul\":17754:17820   */\n      0xffffffffffffffffffffffffffffffffffffffffffffffffffffffffffffffff\n        /* \"#utility.yul\":17747:17752   */\n      dup3\n        /* \"#utility.yul\":17744:17821   */\n      sub\n        /* \"#utility.yul\":17741:17844   */\n      tag_608\n      jumpi\n        /* \"#utility.yul\":17824:17842   */\n      tag_609\n      tag_391\n      jump\t// in\n    tag_609:\n        /* \"#utility.yul\":17741:17844   */\n    tag_608:\n        /* \"#utility.yul\":17871:17872   */\n      0x01\n        /* \"#utility.yul\":17864:17869   */\n      dup3\n        /* \"#utility.yul\":17860:17873   */\n      add\n        /* \"#utility.yul\":17853:17873   */\n      swap1\n      pop\n        /* \"#utility.yul\":17646:17879   */\n      swap2\n      swap1\n      pop\n      jump\t// out\n        /* \"#utility.yul\":17885:17983   */\n    tag_392:\n        /* \"#utility.yul\":17936:17942   */\n      0x00\n        /* \"#utility.yul\":17970:17975   */\n      dup2\n        /* \"#utility.yul\":17964:17976   */\n      mload\n        /* \"#utility.yul\":17954:17976   */\n      swap1\n      pop\n        /* \"#utility.yul\":17885:17983   */\n      swap2\n      swap1\n      pop\n      jump\t// out\n        /* \"#utility.yul\":17989:18157   */\n    tag_393:\n        /* \"#utility.yul\":18072:18083   */\n      0x00\n        /* \"#utility.yul\":18106:18112   */\n      dup3\n        /* \"#utility.yul\":18101:18104   */\n      dup3\n        /* \"#utility.yul\":18094:18113   */\n      mstore\n        /* \"#utility.yul\":18146:18150   */\n      0x20\n        /* \"#utility.yul\":18141:18144   */\n      dup3\n        /* \"#utility.yul\":18137:18151   */\n      add\n        /* \"#utility.yul\":18122:18151   */\n      swap1\n      pop\n        /* \"#utility.yul\":17989:18157   */\n      swap3\n      swap2\n      pop\n      pop\n      jump\t// out\n        /* \"#utility.yul\":18163:18536   */\n    tag_394:\n        /* \"#utility.yul\":18249:18252   */\n      0x00\n        /* \"#utility.yul\":18277:18315   */\n      tag_613\n        /* \"#utility.yul\":18309:18314   */\n      dup3\n        /* \"#utility.yul\":18277:18315   */\n      tag_392\n      jump\t// in\n    tag_613:\n        /* \"#utility.yul\":18331:18401   */\n      tag_614\n        /* \"#utility.yul\":18394:18400   */\n      dup2\n        /* \"#utility.yul\":18389:18392   */\n      dup6\n        /* \"#utility.yul\":18331:18401   */\n      tag_393\n      jump\t// in\n    tag_614:\n        /* \"#utility.yul\":18324:18401   */\n      swap4\n      pop\n        /* \"#utility.yul\":18410:18475   */\n      tag_615\n        /* \"#utility.yul\":18468:18474   */\n      dup2\n        /* \"#utility.yul\":18463:18466   */\n      dup6\n        /* \"#utility.yul\":18456:18460   */\n      0x20\n        /* \"#utility.yul\":18449:18454   */\n      dup7\n        /* \"#utility.yul\":18445:18461   */\n      add\n        /* \"#utility.yul\":18410:18475   */\n      tag_354\n      jump\t// in\n    tag_615:\n        /* \"#utility.yul\":18500:18529   */\n      tag_616\n        /* \"#utility.yul\":18522:18528   */\n      dup2\n        /* \"#utility.yul\":18500:18529   */\n      tag_355\n      jump\t// in\n    tag_616:\n        /* \"#utility.yul\":18495:18498   */\n      dup5\n        /* \"#utility.yul\":18491:18530   */\n      add\n        /* \"#utility.yul\":18484:18530   */\n      swap2\n      pop\n        /* \"#utility.yul\":18253:18536   */\n      pop\n        /* \"#utility.yul\":18163:18536   */\n      swap3\n      swap2\n      pop\n      pop\n      jump\t// out\n        /* \"#utility.yul\":18542:19182   */\n    tag_242:\n        /* \"#utility.yul\":18737:18741   */\n      0x00\n        /* \"#utility.yul\":18775:18778   */\n      0x80\n        /* \"#utility.yul\":18764:18773   */\n      dup3\n        /* \"#utility.yul\":18760:18779   */\n      add\n        /* \"#utility.yul\":18752:18779   */\n      swap1\n      pop\n        /* \"#utility.yul\":18789:18860   */\n      tag_618\n        /* \"#utility.yul\":18857:18858   */\n      0x00\n        /* \"#utility.yul\":18846:18855   */\n      dup4\n        /* \"#utility.yul\":18842:18859   */\n      add\n        /* \"#utility.yul\":18833:18839   */\n      dup8\n        /* \"#utility.yul\":18789:18860   */\n      tag_362\n      jump\t// in\n    tag_618:\n        /* \"#utility.yul\":18870:18942   */\n      tag_619\n        /* \"#utility.yul\":18938:18940   */\n      0x20\n        /* \"#utility.yul\":18927:18936   */\n      dup4\n        /* \"#utility.yul\":18923:18941   */\n      add\n        /* \"#utility.yul\":18914:18920   */\n      dup7\n        /* \"#utility.yul\":18870:18942   */\n      tag_362\n      jump\t// in\n    tag_619:\n        /* \"#utility.yul\":18952:19024   */\n      tag_620\n        /* \"#utility.yul\":19020:19022   */\n      0x40\n        /* \"#utility.yul\":19009:19018   */\n      dup4\n        /* \"#utility.yul\":19005:19023   */\n      add\n        /* \"#utility.yul\":18996:19002   */\n      dup6\n        /* \"#utility.yul\":18952:19024   */\n      tag_365\n      jump\t// in\n    tag_620:\n        /* \"#utility.yul\":19071:19080   */\n      dup2\n        /* \"#utility.yul\":19065:19069   */\n      dup2\n        /* \"#utility.yul\":19061:19081   */\n      sub\n        /* \"#utility.yul\":19056:19058   */\n      0x60\n        /* \"#utility.yul\":19045:19054   */\n      dup4\n        /* \"#utility.yul\":19041:19059   */\n      add\n        /* \"#utility.yul\":19034:19082   */\n      mstore\n        /* \"#utility.yul\":19099:19175   */\n      tag_621\n        /* \"#utility.yul\":19170:19174   */\n      dup2\n        /* \"#utility.yul\":19161:19167   */\n      dup5\n        /* \"#utility.yul\":19099:19175   */\n      tag_394\n      jump\t// in\n    tag_621:\n        /* \"#utility.yul\":19091:19175   */\n      swap1\n      pop\n        /* \"#utility.yul\":18542:19182   */\n      swap6\n      swap5\n      pop\n      pop\n      pop\n      pop\n      pop\n      jump\t// out\n        /* \"#utility.yul\":19188:19329   */\n    tag_395:\n        /* \"#utility.yul\":19244:19249   */\n      0x00\n        /* \"#utility.yul\":19275:19281   */\n      dup2\n        /* \"#utility.yul\":19269:19282   */\n      mload\n        /* \"#utility.yul\":19260:19282   */\n      swap1\n      pop\n        /* \"#utility.yul\":19291:19323   */\n      tag_623\n        /* \"#utility.yul\":19317:19322   */\n      dup2\n        /* \"#utility.yul\":19291:19323   */\n      tag_348\n      jump\t// in\n    tag_623:\n        /* \"#utility.yul\":19188:19329   */\n      swap3\n      swap2\n      pop\n      pop\n      jump\t// out\n        /* \"#utility.yul\":19335:19684   */\n    tag_245:\n        /* \"#utility.yul\":19404:19410   */\n      0x00\n        /* \"#utility.yul\":19453:19455   */\n      0x20\n        /* \"#utility.yul\":19441:19450   */\n      dup3\n        /* \"#utility.yul\":19432:19439   */\n      dup5\n        /* \"#utility.yul\":19428:19451   */\n      sub\n        /* \"#utility.yul\":19424:19456   */\n      slt\n        /* \"#utility.yul\":19421:19540   */\n      iszero\n      tag_625\n      jumpi\n        /* \"#utility.yul\":19459:19538   */\n      tag_626\n      tag_345\n      jump\t// in\n    tag_626:\n        /* \"#utility.yul\":19421:19540   */\n    tag_625:\n        /* \"#utility.yul\":19579:19580   */\n      0x00\n        /* \"#utility.yul\":19604:19667   */\n      tag_627\n        /* \"#utility.yul\":19659:19666   */\n      dup5\n        /* \"#utility.yul\":19650:19656   */\n      dup3\n        /* \"#utility.yul\":19639:19648   */\n      dup6\n        /* \"#utility.yul\":19635:19657   */\n      add\n        /* \"#utility.yul\":19604:19667   */\n      tag_395\n      jump\t// in\n    tag_627:\n        /* \"#utility.yul\":19594:19667   */\n      swap2\n      pop\n        /* \"#utility.yul\":19550:19677   */\n      pop\n        /* \"#utility.yul\":19335:19684   */\n      swap3\n      swap2\n      pop\n      pop\n      jump\t// out\n        /* \"#utility.yul\":19690:19831   */\n    tag_396:\n        /* \"#utility.yul\":19739:19743   */\n      0x00\n        /* \"#utility.yul\":19762:19765   */\n      dup2\n        /* \"#utility.yul\":19754:19765   */\n      swap1\n      pop\n        /* \"#utility.yul\":19785:19788   */\n      dup2\n        /* \"#utility.yul\":19782:19783   */\n      0x00\n        /* \"#utility.yul\":19775:19789   */\n      mstore\n        /* \"#utility.yul\":19819:19823   */\n      0x20\n        /* \"#utility.yul\":19816:19817   */\n      0x00\n        /* \"#utility.yul\":19806:19824   */\n      keccak256\n        /* \"#utility.yul\":19798:19824   */\n      swap1\n      pop\n        /* \"#utility.yul\":19690:19831   */\n      swap2\n      swap1\n      pop\n      jump\t// out\n        /* \"#utility.yul\":19837:19930   */\n    tag_397:\n        /* \"#utility.yul\":19874:19880   */\n      0x00\n        /* \"#utility.yul\":19921:19923   */\n      0x20\n        /* \"#utility.yul\":19916:19918   */\n      0x1f\n        /* \"#utility.yul\":19909:19914   */\n      dup4\n        /* \"#utility.yul\":19905:19919   */\n      add\n        /* \"#utility.yul\":19901:19924   */\n      div\n        /* \"#utility.yul\":19891:19924   */\n      swap1\n      pop\n        /* \"#utility.yul\":19837:19930   */\n      swap2\n      swap1\n      pop\n      jump\t// out\n        /* \"#utility.yul\":19936:20043   */\n    tag_398:\n        /* \"#utility.yul\":19980:19988   */\n      0x00\n        /* \"#utility.yul\":20030:20035   */\n      dup3\n        /* \"#utility.yul\":20024:20028   */\n      dup3\n        /* \"#utility.yul\":20020:20036   */\n      shl\n        /* \"#utility.yul\":19999:20036   */\n      swap1\n      pop\n        /* \"#utility.yul\":19936:20043   */\n      swap3\n      swap2\n      pop\n      pop\n      jump\t// out\n        /* \"#utility.yul\":20049:20442   */\n    tag_399:\n        /* \"#utility.yul\":20118:20124   */\n      0x00\n        /* \"#utility.yul\":20168:20169   */\n      0x08\n        /* \"#utility.yul\":20156:20166   */\n      dup4\n        /* \"#utility.yul\":20152:20170   */\n      mul\n        /* \"#utility.yul\":20191:20288   */\n      tag_632\n        /* \"#utility.yul\":20221:20287   */\n      0xffffffffffffffffffffffffffffffffffffffffffffffffffffffffffffffff\n        /* \"#utility.yul\":20210:20219   */\n      dup3\n        /* \"#utility.yul\":20191:20288   */\n      tag_398\n      jump\t// in\n    tag_632:\n        /* \"#utility.yul\":20309:20348   */\n      tag_633\n        /* \"#utility.yul\":20339:20347   */\n      dup7\n        /* \"#utility.yul\":20328:20337   */\n      dup4\n        /* \"#utility.yul\":20309:20348   */\n      tag_398\n      jump\t// in\n    tag_633:\n        /* \"#utility.yul\":20297:20348   */\n      swap6\n      pop\n        /* \"#utility.yul\":20381:20385   */\n      dup1\n        /* \"#utility.yul\":20377:20386   */\n      not\n        /* \"#utility.yul\":20370:20375   */\n      dup5\n        /* \"#utility.yul\":20366:20387   */\n      and\n        /* \"#utility.yul\":20357:20387   */\n      swap4\n      pop\n        /* \"#utility.yul\":20430:20434   */\n      dup1\n        /* \"#utility.yul\":20420:20428   */\n      dup7\n        /* \"#utility.yul\":20416:20435   */\n      and\n        /* \"#utility.yul\":20409:20414   */\n      dup5\n        /* \"#utility.yul\":20406:20436   */\n      or\n        /* \"#utility.yul\":20396:20436   */\n      swap3\n      pop\n        /* \"#utility.yul\":20125:20442   */\n      pop\n      pop\n        /* \"#utility.yul\":20049:20442   */\n      swap4\n      swap3\n      pop\n      pop\n      pop\n      jump\t// out\n        /* \"#utility.yul\":20448:20590   */\n    tag_400:\n        /* \"#utility.yul\":20498:20507   */\n      0x00\n        /* \"#utility.yul\":20531:20584   */\n      tag_635\n        /* \"#utility.yul\":20549:20583   */\n      tag_636\n        /* \"#utility.yul\":20558:20582   */\n      tag_637\n        /* \"#utility.yul\":20576:20581   */\n      dup5\n        /* \"#utility.yul\":20558:20582   */\n      tag_357\n      jump\t// in\n    tag_637:\n        /* \"#utility.yul\":20549:20583   */\n      tag_379\n      jump\t// in\n    tag_636:\n        /* \"#utility.yul\":20531:20584   */\n      tag_357\n      jump\t// in\n    tag_635:\n        /* \"#utility.yul\":20518:20584   */\n      swap1\n      pop\n        /* \"#utility.yul\":20448:20590   */\n      swap2\n      swap1\n      pop\n      jump\t// out\n        /* \"#utility.yul\":20596:20671   */\n    tag_401:\n        /* \"#utility.yul\":20639:20642   */\n      0x00\n        /* \"#utility.yul\":20660:20665   */\n      dup2\n        /* \"#utility.yul\":20653:20665   */\n      swap1\n      pop\n        /* \"#utility.yul\":20596:20671   */\n      swap2\n      swap1\n      pop\n      jump\t// out\n        /* \"#utility.yul\":20677:20946   */\n    tag_402:\n        /* \"#utility.yul\":20787:20826   */\n      tag_640\n        /* \"#utility.yul\":20818:20825   */\n      dup4\n        /* \"#utility.yul\":20787:20826   */\n      tag_400\n      jump\t// in\n    tag_640:\n        /* \"#utility.yul\":20848:20939   */\n      tag_641\n        /* \"#utility.yul\":20897:20938   */\n      tag_642\n        /* \"#utility.yul\":20921:20937   */\n      dup3\n        /* \"#utility.yul\":20897:20938   */\n      tag_401\n      jump\t// in\n    tag_642:\n        /* \"#utility.yul\":20889:20895   */\n      dup5\n        /* \"#utility.yul\":20882:20886   */\n      dup5\n        /* \"#utility.yul\":20876:20887   */\n      sload\n        /* \"#utility.yul\":20848:20939   */\n      tag_399\n      jump\t// in\n    tag_641:\n        /* \"#utility.yul\":20842:20846   */\n      dup3\n        /* \"#utility.yul\":20835:20940   */\n      sstore\n        /* \"#utility.yul\":20753:20946   */\n      pop\n        /* \"#utility.yul\":20677:20946   */\n      pop\n      pop\n      pop\n      jump\t// out\n        /* \"#utility.yul\":20952:21025   */\n    tag_403:\n        /* \"#utility.yul\":20997:21000   */\n      0x00\n        /* \"#utility.yul\":20952:21025   */\n      swap1\n      jump\t// out\n        /* \"#utility.yul\":21031:21220   */\n    tag_404:\n        /* \"#utility.yul\":21108:21140   */\n      tag_645\n      tag_403\n      jump\t// in\n    tag_645:\n        /* \"#utility.yul\":21149:21214   */\n      tag_646\n        /* \"#utility.yul\":21207:21213   */\n      dup2\n        /* \"#utility.yul\":21199:21205   */\n      dup5\n        /* \"#utility.yul\":21193:21197   */\n      dup5\n        /* \"#utility.yul\":21149:21214   */\n      tag_402\n      jump\t// in\n    tag_646:\n        /* \"#utility.yul\":21084:21220   */\n      pop\n        /* \"#utility.yul\":21031:21220   */\n      pop\n      pop\n      jump\t// out\n        /* \"#utility.yul\":21226:21412   */\n    tag_405:\n        /* \"#utility.yul\":21286:21406   */\n    tag_648:\n        /* \"#utility.yul\":21303:21306   */\n      dup2\n        /* \"#utility.yul\":21296:21301   */\n      dup2\n        /* \"#utility.yul\":21293:21307   */\n      lt\n        /* \"#utility.yul\":21286:21406   */\n      iszero\n      tag_650\n      jumpi\n        /* \"#utility.yul\":21357:21396   */\n      tag_651\n        /* \"#utility.yul\":21394:21395   */\n      0x00\n        /* \"#utility.yul\":21387:21392   */\n      dup3\n        /* \"#utility.yul\":21357:21396   */\n      tag_404\n      jump\t// in\n    tag_651:\n        /* \"#utility.yul\":21330:21331   */\n      0x01\n        /* \"#utility.yul\":21323:21328   */\n      dup2\n        /* \"#utility.yul\":21319:21332   */\n      add\n        /* \"#utility.yul\":21310:21332   */\n      swap1\n      pop\n        /* \"#utility.yul\":21286:21406   */\n      jump(tag_648)\n    tag_650:\n        /* \"#utility.yul\":21226:21412   */\n      pop\n      pop\n      jump\t// out\n        /* \"#utility.yul\":21418:21961   */\n    tag_406:\n        /* \"#utility.yul\":21519:21521   */\n      0x1f\n        /* \"#utility.yul\":21514:21517   */\n      dup3\n        /* \"#utility.yul\":21511:21522   */\n      gt\n        /* \"#utility.yul\":21508:21954   */\n      iszero\n      tag_653\n      jumpi\n        /* \"#utility.yul\":21553:21591   */\n      tag_654\n        /* \"#utility.yul\":21585:21590   */\n      dup2\n        /* \"#utility.yul\":21553:21591   */\n      tag_396\n      jump\t// in\n    tag_654:\n        /* \"#utility.yul\":21637:21666   */\n      tag_655\n        /* \"#utility.yul\":21655:21665   */\n      dup5\n        /* \"#utility.yul\":21637:21666   */\n      tag_397\n      jump\t// in\n    tag_655:\n        /* \"#utility.yul\":21627:21635   */\n      dup2\n        /* \"#utility.yul\":21623:21667   */\n      add\n        /* \"#utility.yul\":21820:21822   */\n      0x20\n        /* \"#utility.yul\":21808:21818   */\n      dup6\n        /* \"#utility.yul\":21805:21823   */\n      lt\n        /* \"#utility.yul\":21802:21851   */\n      iszero\n      tag_656\n      jumpi\n        /* \"#utility.yul\":21841:21849   */\n      dup2\n        /* \"#utility.yul\":21826:21849   */\n      swap1\n      pop\n        /* \"#utility.yul\":21802:21851   */\n    tag_656:\n        /* \"#utility.yul\":21864:21944   */\n      tag_657\n        /* \"#utility.yul\":21920:21942   */\n      tag_658\n        /* \"#utility.yul\":21938:21941   */\n      dup6\n        /* \"#utility.yul\":21920:21942   */\n      tag_397\n      jump\t// in\n    tag_658:\n        /* \"#utility.yul\":21910:21918   */\n      dup4\n        /* \"#utility.yul\":21906:21943   */\n      add\n        /* \"#utility.yul\":21893:21904   */\n      dup3\n        /* \"#utility.yul\":21864:21944   */\n      tag_405\n      jump\t// in\n    tag_657:\n        /* \"#utility.yul\":21523:21954   */\n      pop\n      pop\n        /* \"#utility.yul\":21508:21954   */\n    tag_653:\n        /* \"#utility.yul\":21418:21961   */\n      pop\n      pop\n      pop\n      jump\t// out\n        /* \"#utility.yul\":21967:22084   */\n    tag_407:\n        /* \"#utility.yul\":22021:22029   */\n      0x00\n        /* \"#utility.yul\":22071:22076   */\n      dup3\n        /* \"#utility.yul\":22065:22069   */\n      dup3\n        /* \"#utility.yul\":22061:22077   */\n      shr\n        /* \"#utility.yul\":22040:22077   */\n      swap1\n      pop\n        /* \"#utility.yul\":21967:22084   */\n      swap3\n      swap2\n      pop\n      pop\n      jump\t// out\n        /* \"#utility.yul\":22090:22259   */\n    tag_408:\n        /* \"#utility.yul\":22134:22140   */\n      0x00\n        /* \"#utility.yul\":22167:22218   */\n      tag_661\n        /* \"#utility.yul\":22215:22216   */\n      0x00\n        /* \"#utility.yul\":22211:22217   */\n      not\n        /* \"#utility.yul\":22203:22208   */\n      dup5\n        /* \"#utility.yul\":22200:22201   */\n      0x08\n        /* \"#utility.yul\":22196:22209   */\n      mul\n        /* \"#utility.yul\":22167:22218   */\n      tag_407\n      jump\t// in\n    tag_661:\n        /* \"#utility.yul\":22163:22219   */\n      not\n        /* \"#utility.yul\":22248:22252   */\n      dup1\n        /* \"#utility.yul\":22242:22246   */\n      dup4\n        /* \"#utility.yul\":22238:22253   */\n      and\n        /* \"#utility.yul\":22228:22253   */\n      swap2\n      pop\n        /* \"#utility.yul\":22141:22259   */\n      pop\n        /* \"#utility.yul\":22090:22259   */\n      swap3\n      swap2\n      pop\n      pop\n      jump\t// out\n        /* \"#utility.yul\":22264:22559   */\n    tag_409:\n        /* \"#utility.yul\":22340:22344   */\n      0x00\n        /* \"#utility.yul\":22486:22515   */\n      tag_663\n        /* \"#utility.yul\":22511:22514   */\n      dup4\n        /* \"#utility.yul\":22505:22509   */\n      dup4\n        /* \"#utility.yul\":22486:22515   */\n      tag_408\n      jump\t// in\n    tag_663:\n        /* \"#utility.yul\":22478:22515   */\n      swap2\n      pop\n        /* \"#utility.yul\":22548:22551   */\n      dup3\n        /* \"#utility.yul\":22545:22546   */\n      0x02\n        /* \"#utility.yul\":22541:22552   */\n      mul\n        /* \"#utility.yul\":22535:22539   */\n      dup3\n        /* \"#utility.yul\":22532:22553   */\n      or\n        /* \"#utility.yul\":22524:22553   */\n      swap1\n      pop\n        /* \"#utility.yul\":22264:22559   */\n      swap3\n      swap2\n      pop\n      pop\n      jump\t// out\n        /* \"#utility.yul\":22564:23959   */\n    tag_272:\n        /* \"#utility.yul\":22681:22718   */\n      tag_665\n        /* \"#utility.yul\":22714:22717   */\n      dup3\n        /* \"#utility.yul\":22681:22718   */\n      tag_352\n      jump\t// in\n    tag_665:\n        /* \"#utility.yul\":22783:22801   */\n      0xffffffffffffffff\n        /* \"#utility.yul\":22775:22781   */\n      dup2\n        /* \"#utility.yul\":22772:22802   */\n      gt\n        /* \"#utility.yul\":22769:22825   */\n      iszero\n      tag_666\n      jumpi\n        /* \"#utility.yul\":22805:22823   */\n      tag_667\n      tag_300\n      jump\t// in\n    tag_667:\n        /* \"#utility.yul\":22769:22825   */\n    tag_666:\n        /* \"#utility.yul\":22849:22887   */\n      tag_668\n        /* \"#utility.yul\":22881:22885   */\n      dup3\n        /* \"#utility.yul\":22875:22886   */\n      sload\n        /* \"#utility.yul\":22849:22887   */\n      tag_112\n      jump\t// in\n    tag_668:\n        /* \"#utility.yul\":22934:23001   */\n      tag_669\n        /* \"#utility.yul\":22994:23000   */\n      dup3\n        /* \"#utility.yul\":22986:22992   */\n      dup3\n        /* \"#utility.yul\":22980:22984   */\n      dup6\n        /* \"#utility.yul\":22934:23001   */\n      tag_406\n      jump\t// in\n    tag_669:\n        /* \"#utility.yul\":23028:23029   */\n      0x00\n        /* \"#utility.yul\":23052:23056   */\n      0x20\n        /* \"#utility.yul\":23039:23056   */\n      swap1\n      pop\n        /* \"#utility.yul\":23084:23086   */\n      0x1f\n        /* \"#utility.yul\":23076:23082   */\n      dup4\n        /* \"#utility.yul\":23073:23087   */\n      gt\n        /* \"#utility.yul\":23101:23102   */\n      0x01\n        /* \"#utility.yul\":23096:23714   */\n      dup2\n      eq\n      tag_671\n      jumpi\n        /* \"#utility.yul\":23758:23759   */\n      0x00\n        /* \"#utility.yul\":23775:23781   */\n      dup5\n        /* \"#utility.yul\":23772:23849   */\n      iszero\n      tag_672\n      jumpi\n        /* \"#utility.yul\":23824:23833   */\n      dup3\n        /* \"#utility.yul\":23819:23822   */\n      dup8\n        /* \"#utility.yul\":23815:23834   */\n      add\n        /* \"#utility.yul\":23809:23835   */\n      mload\n        /* \"#utility.yul\":23800:23835   */\n      swap1\n      pop\n        /* \"#utility.yul\":23772:23849   */\n    tag_672:\n        /* \"#utility.yul\":23875:23942   */\n      tag_673\n        /* \"#utility.yul\":23935:23941   */\n      dup6\n        /* \"#utility.yul\":23928:23933   */\n      dup3\n        /* \"#utility.yul\":23875:23942   */\n      tag_409\n      jump\t// in\n    tag_673:\n        /* \"#utility.yul\":23869:23873   */\n      dup7\n        /* \"#utility.yul\":23862:23943   */\n      sstore\n        /* \"#utility.yul\":23731:23953   */\n      pop\n        /* \"#utility.yul\":23066:23953   */\n      jump(tag_670)\n        /* \"#utility.yul\":23096:23714   */\n    tag_671:\n        /* \"#utility.yul\":23148:23152   */\n      0x1f\n        /* \"#utility.yul\":23144:23153   */\n      not\n        /* \"#utility.yul\":23136:23142   */\n      dup5\n        /* \"#utility.yul\":23132:23154   */\n      and\n        /* \"#utility.yul\":23182:23219   */\n      tag_674\n        /* \"#utility.yul\":23214:23218   */\n      dup7\n        /* \"#utility.yul\":23182:23219   */\n      tag_396\n      jump\t// in\n    tag_674:\n        /* \"#utility.yul\":23241:23242   */\n      0x00\n        /* \"#utility.yul\":23255:23463   */\n    tag_675:\n        /* \"#utility.yul\":23269:23276   */\n      dup3\n        /* \"#utility.yul\":23266:23267   */\n      dup2\n        /* \"#utility.yul\":23263:23277   */\n      lt\n        /* \"#utility.yul\":23255:23463   */\n      iszero\n      tag_677\n      jumpi\n        /* \"#utility.yul\":23348:23357   */\n      dup5\n        /* \"#utility.yul\":23343:23346   */\n      dup10\n        /* \"#utility.yul\":23339:23358   */\n      add\n        /* \"#utility.yul\":23333:23359   */\n      mload\n        /* \"#utility.yul\":23325:23331   */\n      dup3\n        /* \"#utility.yul\":23318:23360   */\n      sstore\n        /* \"#utility.yul\":23399:23400   */\n      0x01\n        /* \"#utility.yul\":23391:23397   */\n      dup3\n        /* \"#utility.yul\":23387:23401   */\n      add\n        /* \"#utility.yul\":23377:23401   */\n      swap2\n      pop\n        /* \"#utility.yul\":23446:23448   */\n      0x20\n        /* \"#utility.yul\":23435:23444   */\n      dup6\n        /* \"#utility.yul\":23431:23449   */\n      add\n        /* \"#utility.yul\":23418:23449   */\n      swap5\n      pop\n        /* \"#utility.yul\":23292:23296   */\n      0x20\n        /* \"#utility.yul\":23289:23290   */\n      dup2\n        /* \"#utility.yul\":23285:23297   */\n      add\n        /* \"#utility.yul\":23280:23297   */\n      swap1\n      pop\n        /* \"#utility.yul\":23255:23463   */\n      jump(tag_675)\n    tag_677:\n        /* \"#utility.yul\":23491:23497   */\n      dup7\n        /* \"#utility.yul\":23482:23489   */\n      dup4\n        /* \"#utility.yul\":23479:23498   */\n      lt\n        /* \"#utility.yul\":23476:23655   */\n      iszero\n      tag_678\n      jumpi\n        /* \"#utility.yul\":23549:23558   */\n      dup5\n        /* \"#utility.yul\":23544:23547   */\n      dup10\n        /* \"#utility.yul\":23540:23559   */\n      add\n        /* \"#utility.yul\":23534:23560   */\n      mload\n        /* \"#utility.yul\":23592:23640   */\n      tag_679\n        /* \"#utility.yul\":23634:23638   */\n      0x1f\n        /* \"#utility.yul\":23626:23632   */\n      dup10\n        /* \"#utility.yul\":23622:23639   */\n      and\n        /* \"#utility.yul\":23611:23620   */\n      dup3\n        /* \"#utility.yul\":23592:23640   */\n      tag_408\n      jump\t// in\n    tag_679:\n        /* \"#utility.yul\":23584:23590   */\n      dup4\n        /* \"#utility.yul\":23577:23641   */\n      sstore\n        /* \"#utility.yul\":23499:23655   */\n      pop\n        /* \"#utility.yul\":23476:23655   */\n    tag_678:\n        /* \"#utility.yul\":23701:23702   */\n      0x01\n        /* \"#utility.yul\":23697:23698   */\n      0x02\n        /* \"#utility.yul\":23689:23695   */\n      dup9\n        /* \"#utility.yul\":23685:23699   */\n      mul\n        /* \"#utility.yul\":23681:23703   */\n      add\n        /* \"#utility.yul\":23675:23679   */\n      dup9\n        /* \"#utility.yul\":23668:23704   */\n      sstore\n        /* \"#utility.yul\":23103:23714   */\n      pop\n      pop\n      pop\n        /* \"#utility.yul\":23066:23953   */\n    tag_670:\n      pop\n        /* \"#utility.yul\":22656:23959   */\n      pop\n      pop\n      pop\n        /* \"#utility.yul\":22564:23959   */\n      pop\n      pop\n      jump\t// out\n        /* \"#utility.yul\":23965:24297   */\n    tag_294:\n        /* \"#utility.yul\":24086:24090   */\n      0x00\n        /* \"#utility.yul\":24124:24126   */\n      0x40\n        /* \"#utility.yul\":24113:24122   */\n      dup3\n        /* \"#utility.yul\":24109:24127   */\n      add\n        /* \"#utility.yul\":24101:24127   */\n      swap1\n      pop\n        /* \"#utility.yul\":24137:24208   */\n      tag_681\n        /* \"#utility.yul\":24205:24206   */\n      0x00\n        /* \"#utility.yul\":24194:24203   */\n      dup4\n        /* \"#utility.yul\":24190:24207   */\n      add\n        /* \"#utility.yul\":24181:24187   */\n      dup6\n        /* \"#utility.yul\":24137:24208   */\n      tag_362\n      jump\t// in\n    tag_681:\n        /* \"#utility.yul\":24218:24290   */\n      tag_682\n        /* \"#utility.yul\":24286:24288   */\n      0x20\n        /* \"#utility.yul\":24275:24284   */\n      dup4\n        /* \"#utility.yul\":24271:24289   */\n      add\n        /* \"#utility.yul\":24262:24268   */\n      dup5\n        /* \"#utility.yul\":24218:24290   */\n      tag_365\n      jump\t// in\n    tag_682:\n        /* \"#utility.yul\":23965:24297   */\n      swap4\n      swap3\n      pop\n      pop\n      pop\n      jump\t// out\n        /* \"#utility.yul\":24303:24483   */\n    tag_306:\n        /* \"#utility.yul\":24351:24428   */\n      0x4e487b7100000000000000000000000000000000000000000000000000000000\n        /* \"#utility.yul\":24348:24349   */\n      0x00\n        /* \"#utility.yul\":24341:24429   */\n      mstore\n        /* \"#utility.yul\":24448:24452   */\n      0x12\n        /* \"#utility.yul\":24445:24446   */\n      0x04\n        /* \"#utility.yul\":24438:24453   */\n      mstore\n        /* \"#utility.yul\":24472:24476   */\n      0x24\n        /* \"#utility.yul\":24469:24470   */\n      0x00\n        /* \"#utility.yul\":24462:24477   */\n      revert\n\n    auxdata: 0xa2646970667358221220d6354318d3bd023da9107a00b49d88542ee7e1547771ed2fd2a6c4d5acce439e64736f6c63430008160033\n}\n",
				"bytecode": {
					"linkReferences": {},
					"object": "608060405234801562000010575f80fd5b50336040518060400160405280600c81526020017f5261774d6174657269616c7300000000000000000000000000000000000000008152506040518060400160405280600281526020017f524d000000000000000000000000000000000000000000000000000000000000815250815f90816200008e919062000455565b508060019081620000a0919062000455565b5050505f73ffffffffffffffffffffffffffffffffffffffff168173ffffffffffffffffffffffffffffffffffffffff160362000116575f6040517f1e4fbdf70000000000000000000000000000000000000000000000000000000081526004016200010d91906200057c565b60405180910390fd5b62000127816200012e60201b60201c565b5062000597565b5f60075f9054906101000a900473ffffffffffffffffffffffffffffffffffffffff1690508160075f6101000a81548173ffffffffffffffffffffffffffffffffffffffff021916908373ffffffffffffffffffffffffffffffffffffffff1602179055508173ffffffffffffffffffffffffffffffffffffffff168173ffffffffffffffffffffffffffffffffffffffff167f8be0079c531659141344cd1fd0a4f28419497f9722a3daafe3b4186f6b6457e060405160405180910390a35050565b5f81519050919050565b7f4e487b71000000000000000000000000000000000000000000000000000000005f52604160045260245ffd5b7f4e487b71000000000000000000000000000000000000000000000000000000005f52602260045260245ffd5b5f60028204905060018216806200026d57607f821691505b60208210810362000283576200028262000228565b5b50919050565b5f819050815f5260205f209050919050565b5f6020601f8301049050919050565b5f82821b905092915050565b5f60088302620002e77fffffffffffffffffffffffffffffffffffffffffffffffffffffffffffffffff82620002aa565b620002f38683620002aa565b95508019841693508086168417925050509392505050565b5f819050919050565b5f819050919050565b5f6200033d6200033762000331846200030b565b62000314565b6200030b565b9050919050565b5f819050919050565b62000358836200031d565b62000370620003678262000344565b848454620002b6565b825550505050565b5f90565b6200038662000378565b620003938184846200034d565b505050565b5b81811015620003ba57620003ae5f826200037c565b60018101905062000399565b5050565b601f8211156200040957620003d38162000289565b620003de846200029b565b81016020851015620003ee578190505b62000406620003fd856200029b565b83018262000398565b50505b505050565b5f82821c905092915050565b5f6200042b5f19846008026200040e565b1980831691505092915050565b5f6200044583836200041a565b9150826002028217905092915050565b6200046082620001f1565b67ffffffffffffffff8111156200047c576200047b620001fb565b5b62000488825462000255565b62000495828285620003be565b5f60209050601f831160018114620004cb575f8415620004b6578287015190505b620004c2858262000438565b86555062000531565b601f198416620004db8662000289565b5f5b828110156200050457848901518255600182019150602085019450602081019050620004dd565b8683101562000524578489015162000520601f8916826200041a565b8355505b6001600288020188555050505b505050505050565b5f73ffffffffffffffffffffffffffffffffffffffff82169050919050565b5f620005648262000539565b9050919050565b620005768162000558565b82525050565b5f602082019050620005915f8301846200056b565b92915050565b61290180620005a55f395ff3fe608060405234801561000f575f80fd5b506004361061012a575f3560e01c80638da5cb5b116100ab578063c87b56dd1161006f578063c87b56dd14610318578063d85d3d2714610348578063e985e9c514610378578063f0f9ee46146103a8578063f2fde38b146103c65761012a565b80638da5cb5b1461028657806395d89b41146102a45780639f181b5e146102c2578063a22cb465146102e0578063b88d4fde146102fc5761012a565b806323b872dd116100f257806323b872dd146101e457806342842e0e146102005780636352211e1461021c57806370a082311461024c578063715018a61461027c5761012a565b806301ffc9a71461012e57806306fdde031461015e578063081812fc1461017c578063095ea7b3146101ac5780630fffc4cf146101c8575b5f80fd5b61014860048036038101906101439190611c1f565b6103e2565b6040516101559190611c64565b60405180910390f35b610166610442565b6040516101739190611d07565b60405180910390f35b61019660048036038101906101919190611d5a565b6104d1565b6040516101a39190611dc4565b60405180910390f35b6101c660048036038101906101c19190611e07565b6104ec565b005b6101e260048036038101906101dd9190611e45565b610502565b005b6101fe60048036038101906101f99190611e70565b61054d565b005b61021a60048036038101906102159190611e70565b61064c565b005b61023660048036038101906102319190611d5a565b61066b565b6040516102439190611dc4565b60405180910390f35b61026660048036038101906102619190611e45565b61067c565b6040516102739190611ecf565b60405180910390f35b610284610732565b005b61028e610745565b60405161029b9190611dc4565b60405180910390f35b6102ac61076d565b6040516102b99190611d07565b60405180910390f35b6102ca6107fd565b6040516102d79190611ecf565b60405180910390f35b6102fa60048036038101906102f59190611f12565b610803565b005b6103166004803603810190610311919061207c565b610819565b005b610332600480360381019061032d9190611d5a565b610836565b60405161033f9190611d07565b60405180910390f35b610362600480360381019061035d919061219a565b610941565b60405161036f9190611ecf565b60405180910390f35b610392600480360381019061038d91906121e1565b610a59565b60405161039f9190611c64565b60405180910390f35b6103b0610ae7565b6040516103bd919061227a565b60405180910390f35b6103e060048036038101906103db9190611e45565b610b0c565b005b5f634906490660e01b7bffffffffffffffffffffffffffffffffffffffffffffffffffffffff1916827bffffffffffffffffffffffffffffffffffffffffffffffffffffffff1916148061043b575061043a82610b90565b5b9050919050565b60605f8054610450906122c0565b80601f016020809104026020016040519081016040528092919081815260200182805461047c906122c0565b80156104c75780601f1061049e576101008083540402835291602001916104c7565b820191905f5260205f20905b8154815290600101906020018083116104aa57829003601f168201915b5050505050905090565b5f6104db82610c71565b506104e582610cf7565b9050919050565b6104fe82826104f9610d30565b610d37565b5050565b61050a610d49565b8060095f6101000a81548173ffffffffffffffffffffffffffffffffffffffff021916908373ffffffffffffffffffffffffffffffffffffffff16021790555050565b5f73ffffffffffffffffffffffffffffffffffffffff168273ffffffffffffffffffffffffffffffffffffffff16036105bd575f6040517f64a0ae920000000000000000000000000000000000000000000000000000000081526004016105b49190611dc4565b60405180910390fd5b5f6105d083836105cb610d30565b610dd0565b90508373ffffffffffffffffffffffffffffffffffffffff168173ffffffffffffffffffffffffffffffffffffffff1614610646578382826040517f64283d7b00000000000000000000000000000000000000000000000000000000815260040161063d939291906122f0565b60405180910390fd5b50505050565b61066683838360405180602001604052805f815250610819565b505050565b5f61067582610c71565b9050919050565b5f8073ffffffffffffffffffffffffffffffffffffffff168273ffffffffffffffffffffffffffffffffffffffff16036106ed575f6040517f89c62b640000000000000000000000000000000000000000000000000000000081526004016106e49190611dc4565b60405180910390fd5b60035f8373ffffffffffffffffffffffffffffffffffffffff1673ffffffffffffffffffffffffffffffffffffffff1681526020019081526020015f20549050919050565b61073a610d49565b6107435f610fdb565b565b5f60075f9054906101000a900473ffffffffffffffffffffffffffffffffffffffff16905090565b60606001805461077c906122c0565b80601f01602080910402602001604051908101604052809291908181526020018280546107a8906122c0565b80156107f35780601f106107ca576101008083540402835291602001916107f3565b820191905f5260205f20905b8154815290600101906020018083116107d657829003601f168201915b5050505050905090565b60085481565b61081561080e610d30565b838361109e565b5050565b61082484848461054d565b61083084848484611207565b50505050565b606061084182610c71565b505f60065f8481526020019081526020015f20805461085f906122c0565b80601f016020809104026020016040519081016040528092919081815260200182805461088b906122c0565b80156108d65780601f106108ad576101008083540402835291602001916108d6565b820191905f5260205f20905b8154815290600101906020018083116108b957829003601f168201915b505050505090505f6108e66113b9565b90505f8151036108fa57819250505061093c565b5f8251111561092e57808260405160200161091692919061235f565b6040516020818303038152906040529250505061093c565b610937846113cf565b925050505b919050565b5f8060095f9054906101000a900473ffffffffffffffffffffffffffffffffffffffff1673ffffffffffffffffffffffffffffffffffffffff16634b297269336040518263ffffffff1660e01b815260040161099d9190611dc4565b5f60405180830381865afa1580156109b7573d5f803e3d5ffd5b505050506040513d5f823e3d601f19601f820116820180604052508101906109df91906123f0565b5103610a20576040517f08c379a0000000000000000000000000000000000000000000000000000000008152600401610a17906124a7565b60405180910390fd5b60085f815480929190610a32906124f2565b9190505550610a4333600854611435565b610a4f60085483611452565b6008549050919050565b5f60055f8473ffffffffffffffffffffffffffffffffffffffff1673ffffffffffffffffffffffffffffffffffffffff1681526020019081526020015f205f8373ffffffffffffffffffffffffffffffffffffffff1673ffffffffffffffffffffffffffffffffffffffff1681526020019081526020015f205f9054906101000a900460ff16905092915050565b60095f9054906101000a900473ffffffffffffffffffffffffffffffffffffffff1681565b610b14610d49565b5f73ffffffffffffffffffffffffffffffffffffffff168173ffffffffffffffffffffffffffffffffffffffff1603610b84575f6040517f1e4fbdf7000000000000000000000000000000000000000000000000000000008152600401610b7b9190611dc4565b60405180910390fd5b610b8d81610fdb565b50565b5f7f80ac58cd000000000000000000000000000000000000000000000000000000007bffffffffffffffffffffffffffffffffffffffffffffffffffffffff1916827bffffffffffffffffffffffffffffffffffffffffffffffffffffffff19161480610c5a57507f5b5e139f000000000000000000000000000000000000000000000000000000007bffffffffffffffffffffffffffffffffffffffffffffffffffffffff1916827bffffffffffffffffffffffffffffffffffffffffffffffffffffffff1916145b80610c6a5750610c69826114ac565b5b9050919050565b5f80610c7c83611515565b90505f73ffffffffffffffffffffffffffffffffffffffff168173ffffffffffffffffffffffffffffffffffffffff1603610cee57826040517f7e273289000000000000000000000000000000000000000000000000000000008152600401610ce59190611ecf565b60405180910390fd5b80915050919050565b5f60045f8381526020019081526020015f205f9054906101000a900473ffffffffffffffffffffffffffffffffffffffff169050919050565b5f33905090565b610d44838383600161154e565b505050565b610d51610d30565b73ffffffffffffffffffffffffffffffffffffffff16610d6f610745565b73ffffffffffffffffffffffffffffffffffffffff1614610dce57610d92610d30565b6040517f118cdaa7000000000000000000000000000000000000000000000000000000008152600401610dc59190611dc4565b60405180910390fd5b565b5f80610ddb84611515565b90505f73ffffffffffffffffffffffffffffffffffffffff168373ffffffffffffffffffffffffffffffffffffffff1614610e1c57610e1b81848661170d565b5b5f73ffffffffffffffffffffffffffffffffffffffff168173ffffffffffffffffffffffffffffffffffffffff1614610ea757610e5b5f855f8061154e565b600160035f8373ffffffffffffffffffffffffffffffffffffffff1673ffffffffffffffffffffffffffffffffffffffff1681526020019081526020015f205f82825403925050819055505b5f73ffffffffffffffffffffffffffffffffffffffff168573ffffffffffffffffffffffffffffffffffffffff1614610f2657600160035f8773ffffffffffffffffffffffffffffffffffffffff1673ffffffffffffffffffffffffffffffffffffffff1681526020019081526020015f205f82825401925050819055505b8460025f8681526020019081526020015f205f6101000a81548173ffffffffffffffffffffffffffffffffffffffff021916908373ffffffffffffffffffffffffffffffffffffffff160217905550838573ffffffffffffffffffffffffffffffffffffffff168273ffffffffffffffffffffffffffffffffffffffff167fddf252ad1be2c89b69c2b068fc378daa952ba7f163c4a11628f55a4df523b3ef60405160405180910390a4809150509392505050565b5f60075f9054906101000a900473ffffffffffffffffffffffffffffffffffffffff1690508160075f6101000a81548173ffffffffffffffffffffffffffffffffffffffff021916908373ffffffffffffffffffffffffffffffffffffffff1602179055508173ffffffffffffffffffffffffffffffffffffffff168173ffffffffffffffffffffffffffffffffffffffff167f8be0079c531659141344cd1fd0a4f28419497f9722a3daafe3b4186f6b6457e060405160405180910390a35050565b5f73ffffffffffffffffffffffffffffffffffffffff168273ffffffffffffffffffffffffffffffffffffffff160361110e57816040517f5b08ba180000000000000000000000000000000000000000000000000000000081526004016111059190611dc4565b60405180910390fd5b8060055f8573ffffffffffffffffffffffffffffffffffffffff1673ffffffffffffffffffffffffffffffffffffffff1681526020019081526020015f205f8473ffffffffffffffffffffffffffffffffffffffff1673ffffffffffffffffffffffffffffffffffffffff1681526020019081526020015f205f6101000a81548160ff0219169083151502179055508173ffffffffffffffffffffffffffffffffffffffff168373ffffffffffffffffffffffffffffffffffffffff167f17307eab39ab6107e8899845ad3d59bd9653f200f220920489ca2b5937696c31836040516111fa9190611c64565b60405180910390a3505050565b5f8373ffffffffffffffffffffffffffffffffffffffff163b11156113b3578273ffffffffffffffffffffffffffffffffffffffff1663150b7a0261124a610d30565b8685856040518563ffffffff1660e01b815260040161126c949392919061258b565b6020604051808303815f875af19250505080156112a757506040513d601f19601f820116820180604052508101906112a491906125e9565b60015b611328573d805f81146112d5576040519150601f19603f3d011682016040523d82523d5f602084013e6112da565b606091505b505f81510361132057836040517f64a0ae920000000000000000000000000000000000000000000000000000000081526004016113179190611dc4565b60405180910390fd5b805181602001fd5b63150b7a0260e01b7bffffffffffffffffffffffffffffffffffffffffffffffffffffffff1916817bffffffffffffffffffffffffffffffffffffffffffffffffffffffff1916146113b157836040517f64a0ae920000000000000000000000000000000000000000000000000000000081526004016113a89190611dc4565b60405180910390fd5b505b50505050565b606060405180602001604052805f815250905090565b60606113da82610c71565b505f6113e46113b9565b90505f8151116114025760405180602001604052805f81525061142d565b8061140c846117d0565b60405160200161141d92919061235f565b6040516020818303038152906040525b915050919050565b61144e828260405180602001604052805f81525061189a565b5050565b8060065f8481526020019081526020015f20908161147091906127a8565b507ff8e1a15aba9398e019f0b49df1a4fde98ee17ae345cb5f6b5e2c27f5033e8ce7826040516114a09190611ecf565b60405180910390a15050565b5f7f01ffc9a7000000000000000000000000000000000000000000000000000000007bffffffffffffffffffffffffffffffffffffffffffffffffffffffff1916827bffffffffffffffffffffffffffffffffffffffffffffffffffffffff1916149050919050565b5f60025f8381526020019081526020015f205f9054906101000a900473ffffffffffffffffffffffffffffffffffffffff169050919050565b808061158657505f73ffffffffffffffffffffffffffffffffffffffff168273ffffffffffffffffffffffffffffffffffffffff1614155b156116b8575f61159584610c71565b90505f73ffffffffffffffffffffffffffffffffffffffff168373ffffffffffffffffffffffffffffffffffffffff16141580156115ff57508273ffffffffffffffffffffffffffffffffffffffff168173ffffffffffffffffffffffffffffffffffffffff1614155b801561161257506116108184610a59565b155b1561165457826040517fa9fbf51f00000000000000000000000000000000000000000000000000000000815260040161164b9190611dc4565b60405180910390fd5b81156116b657838573ffffffffffffffffffffffffffffffffffffffff168273ffffffffffffffffffffffffffffffffffffffff167f8c5be1e5ebec7d5bd14f71427d1e84f3dd0314c0f7b2291e5b200ac8c7c3b92560405160405180910390a45b505b8360045f8581526020019081526020015f205f6101000a81548173ffffffffffffffffffffffffffffffffffffffff021916908373ffffffffffffffffffffffffffffffffffffffff16021790555050505050565b6117188383836118b5565b6117cb575f73ffffffffffffffffffffffffffffffffffffffff168373ffffffffffffffffffffffffffffffffffffffff160361178c57806040517f7e2732890000000000000000000000000000000000000000000000000000000081526004016117839190611ecf565b60405180910390fd5b81816040517f177e802f0000000000000000000000000000000000000000000000000000000081526004016117c2929190612877565b60405180910390fd5b505050565b60605f60016117de84611975565b0190505f8167ffffffffffffffff8111156117fc576117fb611f58565b5b6040519080825280601f01601f19166020018201604052801561182e5781602001600182028036833780820191505090505b5090505f82602001820190505b60011561188f578080600190039150507f3031323334353637383961626364656600000000000000000000000000000000600a86061a8153600a85816118845761188361289e565b5b0494505f850361183b575b819350505050919050565b6118a48383611ac6565b6118b05f848484611207565b505050565b5f8073ffffffffffffffffffffffffffffffffffffffff168373ffffffffffffffffffffffffffffffffffffffff161415801561196c57508273ffffffffffffffffffffffffffffffffffffffff168473ffffffffffffffffffffffffffffffffffffffff16148061192d575061192c8484610a59565b5b8061196b57508273ffffffffffffffffffffffffffffffffffffffff1661195383610cf7565b73ffffffffffffffffffffffffffffffffffffffff16145b5b90509392505050565b5f805f90507a184f03e93ff9f4daa797ed6e38ed64bf6a1f01000000000000000083106119d1577a184f03e93ff9f4daa797ed6e38ed64bf6a1f01000000000000000083816119c7576119c661289e565b5b0492506040810190505b6d04ee2d6d415b85acef81000000008310611a0e576d04ee2d6d415b85acef81000000008381611a0457611a0361289e565b5b0492506020810190505b662386f26fc100008310611a3d57662386f26fc100008381611a3357611a3261289e565b5b0492506010810190505b6305f5e1008310611a66576305f5e1008381611a5c57611a5b61289e565b5b0492506008810190505b6127108310611a8b576127108381611a8157611a8061289e565b5b0492506004810190505b60648310611aae5760648381611aa457611aa361289e565b5b0492506002810190505b600a8310611abd576001810190505b80915050919050565b5f73ffffffffffffffffffffffffffffffffffffffff168273ffffffffffffffffffffffffffffffffffffffff1603611b36575f6040517f64a0ae92000000000000000000000000000000000000000000000000000000008152600401611b2d9190611dc4565b60405180910390fd5b5f611b4283835f610dd0565b90505f73ffffffffffffffffffffffffffffffffffffffff168173ffffffffffffffffffffffffffffffffffffffff1614611bb4575f6040517f73c6ac6e000000000000000000000000000000000000000000000000000000008152600401611bab9190611dc4565b60405180910390fd5b505050565b5f604051905090565b5f80fd5b5f80fd5b5f7fffffffff0000000000000000000000000000000000000000000000000000000082169050919050565b611bfe81611bca565b8114611c08575f80fd5b50565b5f81359050611c1981611bf5565b92915050565b5f60208284031215611c3457611c33611bc2565b5b5f611c4184828501611c0b565b91505092915050565b5f8115159050919050565b611c5e81611c4a565b82525050565b5f602082019050611c775f830184611c55565b92915050565b5f81519050919050565b5f82825260208201905092915050565b5f5b83811015611cb4578082015181840152602081019050611c99565b5f8484015250505050565b5f601f19601f8301169050919050565b5f611cd982611c7d565b611ce38185611c87565b9350611cf3818560208601611c97565b611cfc81611cbf565b840191505092915050565b5f6020820190508181035f830152611d1f8184611ccf565b905092915050565b5f819050919050565b611d3981611d27565b8114611d43575f80fd5b50565b5f81359050611d5481611d30565b92915050565b5f60208284031215611d6f57611d6e611bc2565b5b5f611d7c84828501611d46565b91505092915050565b5f73ffffffffffffffffffffffffffffffffffffffff82169050919050565b5f611dae82611d85565b9050919050565b611dbe81611da4565b82525050565b5f602082019050611dd75f830184611db5565b92915050565b611de681611da4565b8114611df0575f80fd5b50565b5f81359050611e0181611ddd565b92915050565b5f8060408385031215611e1d57611e1c611bc2565b5b5f611e2a85828601611df3565b9250506020611e3b85828601611d46565b9150509250929050565b5f60208284031215611e5a57611e59611bc2565b5b5f611e6784828501611df3565b91505092915050565b5f805f60608486031215611e8757611e86611bc2565b5b5f611e9486828701611df3565b9350506020611ea586828701611df3565b9250506040611eb686828701611d46565b9150509250925092565b611ec981611d27565b82525050565b5f602082019050611ee25f830184611ec0565b92915050565b611ef181611c4a565b8114611efb575f80fd5b50565b5f81359050611f0c81611ee8565b92915050565b5f8060408385031215611f2857611f27611bc2565b5b5f611f3585828601611df3565b9250506020611f4685828601611efe565b9150509250929050565b5f80fd5b5f80fd5b7f4e487b71000000000000000000000000000000000000000000000000000000005f52604160045260245ffd5b611f8e82611cbf565b810181811067ffffffffffffffff82111715611fad57611fac611f58565b5b80604052505050565b5f611fbf611bb9565b9050611fcb8282611f85565b919050565b5f67ffffffffffffffff821115611fea57611fe9611f58565b5b611ff382611cbf565b9050602081019050919050565b828183375f83830152505050565b5f61202061201b84611fd0565b611fb6565b90508281526020810184848401111561203c5761203b611f54565b5b612047848285612000565b509392505050565b5f82601f83011261206357612062611f50565b5b813561207384826020860161200e565b91505092915050565b5f805f806080858703121561209457612093611bc2565b5b5f6120a187828801611df3565b94505060206120b287828801611df3565b93505060406120c387828801611d46565b925050606085013567ffffffffffffffff8111156120e4576120e3611bc6565b5b6120f08782880161204f565b91505092959194509250565b5f67ffffffffffffffff82111561211657612115611f58565b5b61211f82611cbf565b9050602081019050919050565b5f61213e612139846120fc565b611fb6565b90508281526020810184848401111561215a57612159611f54565b5b612165848285612000565b509392505050565b5f82601f83011261218157612180611f50565b5b813561219184826020860161212c565b91505092915050565b5f602082840312156121af576121ae611bc2565b5b5f82013567ffffffffffffffff8111156121cc576121cb611bc6565b5b6121d88482850161216d565b91505092915050565b5f80604083850312156121f7576121f6611bc2565b5b5f61220485828601611df3565b925050602061221585828601611df3565b9150509250929050565b5f819050919050565b5f61224261223d61223884611d85565b61221f565b611d85565b9050919050565b5f61225382612228565b9050919050565b5f61226482612249565b9050919050565b6122748161225a565b82525050565b5f60208201905061228d5f83018461226b565b92915050565b7f4e487b71000000000000000000000000000000000000000000000000000000005f52602260045260245ffd5b5f60028204905060018216806122d757607f821691505b6020821081036122ea576122e9612293565b5b50919050565b5f6060820190506123035f830186611db5565b6123106020830185611ec0565b61231d6040830184611db5565b949350505050565b5f81905092915050565b5f61233982611c7d565b6123438185612325565b9350612353818560208601611c97565b80840191505092915050565b5f61236a828561232f565b9150612376828461232f565b91508190509392505050565b5f61239461238f846120fc565b611fb6565b9050828152602081018484840111156123b0576123af611f54565b5b6123bb848285611c97565b509392505050565b5f82601f8301126123d7576123d6611f50565b5b81516123e7848260208601612382565b91505092915050565b5f6020828403121561240557612404611bc2565b5b5f82015167ffffffffffffffff81111561242257612421611bc6565b5b61242e848285016123c3565b91505092915050565b7f4f6e6c7920617574686f72697a656420737570706c696572732063616e206d695f8201527f6e74207061636b616765642070726f64756374204e4654000000000000000000602082015250565b5f612491603783611c87565b915061249c82612437565b604082019050919050565b5f6020820190508181035f8301526124be81612485565b9050919050565b7f4e487b71000000000000000000000000000000000000000000000000000000005f52601160045260245ffd5b5f6124fc82611d27565b91507fffffffffffffffffffffffffffffffffffffffffffffffffffffffffffffffff820361252e5761252d6124c5565b5b600182019050919050565b5f81519050919050565b5f82825260208201905092915050565b5f61255d82612539565b6125678185612543565b9350612577818560208601611c97565b61258081611cbf565b840191505092915050565b5f60808201905061259e5f830187611db5565b6125ab6020830186611db5565b6125b86040830185611ec0565b81810360608301526125ca8184612553565b905095945050505050565b5f815190506125e381611bf5565b92915050565b5f602082840312156125fe576125fd611bc2565b5b5f61260b848285016125d5565b91505092915050565b5f819050815f5260205f209050919050565b5f6020601f8301049050919050565b5f82821b905092915050565b5f600883026126707fffffffffffffffffffffffffffffffffffffffffffffffffffffffffffffffff82612635565b61267a8683612635565b95508019841693508086168417925050509392505050565b5f6126ac6126a76126a284611d27565b61221f565b611d27565b9050919050565b5f819050919050565b6126c583612692565b6126d96126d1826126b3565b848454612641565b825550505050565b5f90565b6126ed6126e1565b6126f88184846126bc565b505050565b5b8181101561271b576127105f826126e5565b6001810190506126fe565b5050565b601f8211156127605761273181612614565b61273a84612626565b81016020851015612749578190505b61275d61275585612626565b8301826126fd565b50505b505050565b5f82821c905092915050565b5f6127805f1984600802612765565b1980831691505092915050565b5f6127988383612771565b9150826002028217905092915050565b6127b182611c7d565b67ffffffffffffffff8111156127ca576127c9611f58565b5b6127d482546122c0565b6127df82828561271f565b5f60209050601f831160018114612810575f84156127fe578287015190505b612808858261278d565b86555061286f565b601f19841661281e86612614565b5f5b8281101561284557848901518255600182019150602085019450602081019050612820565b86831015612862578489015161285e601f891682612771565b8355505b6001600288020188555050505b505050505050565b5f60408201905061288a5f830185611db5565b6128976020830184611ec0565b9392505050565b7f4e487b71000000000000000000000000000000000000000000000000000000005f52601260045260245ffdfea2646970667358221220d6354318d3bd023da9107a00b49d88542ee7e1547771ed2fd2a6c4d5acce439e64736f6c63430008160033",
					"opcodes": "PUSH1 0x80 PUSH1 0x40 MSTORE CALLVALUE DUP1 ISZERO PUSH3 0x10 JUMPI PUSH0 DUP1 REVERT JUMPDEST POP CALLER PUSH1 0x40 MLOAD DUP1 PUSH1 0x40 ADD PUSH1 0x40 MSTORE DUP1 PUSH1 0xC DUP2 MSTORE PUSH1 0x20 ADD PUSH32 0x5261774D6174657269616C730000000000000000000000000000000000000000 DUP2 MSTORE POP PUSH1 0x40 MLOAD DUP1 PUSH1 0x40 ADD PUSH1 0x40 MSTORE DUP1 PUSH1 0x2 DUP2 MSTORE PUSH1 0x20 ADD PUSH32 0x524D000000000000000000000000000000000000000000000000000000000000 DUP2 MSTORE POP DUP2 PUSH0 SWAP1 DUP2 PUSH3 0x8E SWAP2 SWAP1 PUSH3 0x455 JUMP JUMPDEST POP DUP1 PUSH1 0x1 SWAP1 DUP2 PUSH3 0xA0 SWAP2 SWAP1 PUSH3 0x455 JUMP JUMPDEST POP POP POP PUSH0 PUSH20 0xFFFFFFFFFFFFFFFFFFFFFFFFFFFFFFFFFFFFFFFF AND DUP2 PUSH20 0xFFFFFFFFFFFFFFFFFFFFFFFFFFFFFFFFFFFFFFFF AND SUB PUSH3 0x116 JUMPI PUSH0 PUSH1 0x40 MLOAD PUSH32 0x1E4FBDF700000000000000000000000000000000000000000000000000000000 DUP2 MSTORE PUSH1 0x4 ADD PUSH3 0x10D SWAP2 SWAP1 PUSH3 0x57C JUMP JUMPDEST PUSH1 0x40 MLOAD DUP1 SWAP2 SUB SWAP1 REVERT JUMPDEST PUSH3 0x127 DUP2 PUSH3 0x12E PUSH1 0x20 SHL PUSH1 0x20 SHR JUMP JUMPDEST POP PUSH3 0x597 JUMP JUMPDEST PUSH0 PUSH1 0x7 PUSH0 SWAP1 SLOAD SWAP1 PUSH2 0x100 EXP SWAP1 DIV PUSH20 0xFFFFFFFFFFFFFFFFFFFFFFFFFFFFFFFFFFFFFFFF AND SWAP1 POP DUP2 PUSH1 0x7 PUSH0 PUSH2 0x100 EXP DUP2 SLOAD DUP2 PUSH20 0xFFFFFFFFFFFFFFFFFFFFFFFFFFFFFFFFFFFFFFFF MUL NOT AND SWAP1 DUP4 PUSH20 0xFFFFFFFFFFFFFFFFFFFFFFFFFFFFFFFFFFFFFFFF AND MUL OR SWAP1 SSTORE POP DUP2 PUSH20 0xFFFFFFFFFFFFFFFFFFFFFFFFFFFFFFFFFFFFFFFF AND DUP2 PUSH20 0xFFFFFFFFFFFFFFFFFFFFFFFFFFFFFFFFFFFFFFFF AND PUSH32 0x8BE0079C531659141344CD1FD0A4F28419497F9722A3DAAFE3B4186F6B6457E0 PUSH1 0x40 MLOAD PUSH1 0x40 MLOAD DUP1 SWAP2 SUB SWAP1 LOG3 POP POP JUMP JUMPDEST PUSH0 DUP2 MLOAD SWAP1 POP SWAP2 SWAP1 POP JUMP JUMPDEST PUSH32 0x4E487B7100000000000000000000000000000000000000000000000000000000 PUSH0 MSTORE PUSH1 0x41 PUSH1 0x4 MSTORE PUSH1 0x24 PUSH0 REVERT JUMPDEST PUSH32 0x4E487B7100000000000000000000000000000000000000000000000000000000 PUSH0 MSTORE PUSH1 0x22 PUSH1 0x4 MSTORE PUSH1 0x24 PUSH0 REVERT JUMPDEST PUSH0 PUSH1 0x2 DUP3 DIV SWAP1 POP PUSH1 0x1 DUP3 AND DUP1 PUSH3 0x26D JUMPI PUSH1 0x7F DUP3 AND SWAP2 POP JUMPDEST PUSH1 0x20 DUP3 LT DUP2 SUB PUSH3 0x283 JUMPI PUSH3 0x282 PUSH3 0x228 JUMP JUMPDEST JUMPDEST POP SWAP2 SWAP1 POP JUMP JUMPDEST PUSH0 DUP2 SWAP1 POP DUP2 PUSH0 MSTORE PUSH1 0x20 PUSH0 KECCAK256 SWAP1 POP SWAP2 SWAP1 POP JUMP JUMPDEST PUSH0 PUSH1 0x20 PUSH1 0x1F DUP4 ADD DIV SWAP1 POP SWAP2 SWAP1 POP JUMP JUMPDEST PUSH0 DUP3 DUP3 SHL SWAP1 POP SWAP3 SWAP2 POP POP JUMP JUMPDEST PUSH0 PUSH1 0x8 DUP4 MUL PUSH3 0x2E7 PUSH32 0xFFFFFFFFFFFFFFFFFFFFFFFFFFFFFFFFFFFFFFFFFFFFFFFFFFFFFFFFFFFFFFFF DUP3 PUSH3 0x2AA JUMP JUMPDEST PUSH3 0x2F3 DUP7 DUP4 PUSH3 0x2AA JUMP JUMPDEST SWAP6 POP DUP1 NOT DUP5 AND SWAP4 POP DUP1 DUP7 AND DUP5 OR SWAP3 POP POP POP SWAP4 SWAP3 POP POP POP JUMP JUMPDEST PUSH0 DUP2 SWAP1 POP SWAP2 SWAP1 POP JUMP JUMPDEST PUSH0 DUP2 SWAP1 POP SWAP2 SWAP1 POP JUMP JUMPDEST PUSH0 PUSH3 0x33D PUSH3 0x337 PUSH3 0x331 DUP5 PUSH3 0x30B JUMP JUMPDEST PUSH3 0x314 JUMP JUMPDEST PUSH3 0x30B JUMP JUMPDEST SWAP1 POP SWAP2 SWAP1 POP JUMP JUMPDEST PUSH0 DUP2 SWAP1 POP SWAP2 SWAP1 POP JUMP JUMPDEST PUSH3 0x358 DUP4 PUSH3 0x31D JUMP JUMPDEST PUSH3 0x370 PUSH3 0x367 DUP3 PUSH3 0x344 JUMP JUMPDEST DUP5 DUP5 SLOAD PUSH3 0x2B6 JUMP JUMPDEST DUP3 SSTORE POP POP POP POP JUMP JUMPDEST PUSH0 SWAP1 JUMP JUMPDEST PUSH3 0x386 PUSH3 0x378 JUMP JUMPDEST PUSH3 0x393 DUP2 DUP5 DUP5 PUSH3 0x34D JUMP JUMPDEST POP POP POP JUMP JUMPDEST JUMPDEST DUP2 DUP2 LT ISZERO PUSH3 0x3BA JUMPI PUSH3 0x3AE PUSH0 DUP3 PUSH3 0x37C JUMP JUMPDEST PUSH1 0x1 DUP2 ADD SWAP1 POP PUSH3 0x399 JUMP JUMPDEST POP POP JUMP JUMPDEST PUSH1 0x1F DUP3 GT ISZERO PUSH3 0x409 JUMPI PUSH3 0x3D3 DUP2 PUSH3 0x289 JUMP JUMPDEST PUSH3 0x3DE DUP5 PUSH3 0x29B JUMP JUMPDEST DUP2 ADD PUSH1 0x20 DUP6 LT ISZERO PUSH3 0x3EE JUMPI DUP2 SWAP1 POP JUMPDEST PUSH3 0x406 PUSH3 0x3FD DUP6 PUSH3 0x29B JUMP JUMPDEST DUP4 ADD DUP3 PUSH3 0x398 JUMP JUMPDEST POP POP JUMPDEST POP POP POP JUMP JUMPDEST PUSH0 DUP3 DUP3 SHR SWAP1 POP SWAP3 SWAP2 POP POP JUMP JUMPDEST PUSH0 PUSH3 0x42B PUSH0 NOT DUP5 PUSH1 0x8 MUL PUSH3 0x40E JUMP JUMPDEST NOT DUP1 DUP4 AND SWAP2 POP POP SWAP3 SWAP2 POP POP JUMP JUMPDEST PUSH0 PUSH3 0x445 DUP4 DUP4 PUSH3 0x41A JUMP JUMPDEST SWAP2 POP DUP3 PUSH1 0x2 MUL DUP3 OR SWAP1 POP SWAP3 SWAP2 POP POP JUMP JUMPDEST PUSH3 0x460 DUP3 PUSH3 0x1F1 JUMP JUMPDEST PUSH8 0xFFFFFFFFFFFFFFFF DUP2 GT ISZERO PUSH3 0x47C JUMPI PUSH3 0x47B PUSH3 0x1FB JUMP JUMPDEST JUMPDEST PUSH3 0x488 DUP3 SLOAD PUSH3 0x255 JUMP JUMPDEST PUSH3 0x495 DUP3 DUP3 DUP6 PUSH3 0x3BE JUMP JUMPDEST PUSH0 PUSH1 0x20 SWAP1 POP PUSH1 0x1F DUP4 GT PUSH1 0x1 DUP2 EQ PUSH3 0x4CB JUMPI PUSH0 DUP5 ISZERO PUSH3 0x4B6 JUMPI DUP3 DUP8 ADD MLOAD SWAP1 POP JUMPDEST PUSH3 0x4C2 DUP6 DUP3 PUSH3 0x438 JUMP JUMPDEST DUP7 SSTORE POP PUSH3 0x531 JUMP JUMPDEST PUSH1 0x1F NOT DUP5 AND PUSH3 0x4DB DUP7 PUSH3 0x289 JUMP JUMPDEST PUSH0 JUMPDEST DUP3 DUP2 LT ISZERO PUSH3 0x504 JUMPI DUP5 DUP10 ADD MLOAD DUP3 SSTORE PUSH1 0x1 DUP3 ADD SWAP2 POP PUSH1 0x20 DUP6 ADD SWAP5 POP PUSH1 0x20 DUP2 ADD SWAP1 POP PUSH3 0x4DD JUMP JUMPDEST DUP7 DUP4 LT ISZERO PUSH3 0x524 JUMPI DUP5 DUP10 ADD MLOAD PUSH3 0x520 PUSH1 0x1F DUP10 AND DUP3 PUSH3 0x41A JUMP JUMPDEST DUP4 SSTORE POP JUMPDEST PUSH1 0x1 PUSH1 0x2 DUP9 MUL ADD DUP9 SSTORE POP POP POP JUMPDEST POP POP POP POP POP POP JUMP JUMPDEST PUSH0 PUSH20 0xFFFFFFFFFFFFFFFFFFFFFFFFFFFFFFFFFFFFFFFF DUP3 AND SWAP1 POP SWAP2 SWAP1 POP JUMP JUMPDEST PUSH0 PUSH3 0x564 DUP3 PUSH3 0x539 JUMP JUMPDEST SWAP1 POP SWAP2 SWAP1 POP JUMP JUMPDEST PUSH3 0x576 DUP2 PUSH3 0x558 JUMP JUMPDEST DUP3 MSTORE POP POP JUMP JUMPDEST PUSH0 PUSH1 0x20 DUP3 ADD SWAP1 POP PUSH3 0x591 PUSH0 DUP4 ADD DUP5 PUSH3 0x56B JUMP JUMPDEST SWAP3 SWAP2 POP POP JUMP JUMPDEST PUSH2 0x2901 DUP1 PUSH3 0x5A5 PUSH0 CODECOPY PUSH0 RETURN INVALID PUSH1 0x80 PUSH1 0x40 MSTORE CALLVALUE DUP1 ISZERO PUSH2 0xF JUMPI PUSH0 DUP1 REVERT JUMPDEST POP PUSH1 0x4 CALLDATASIZE LT PUSH2 0x12A JUMPI PUSH0 CALLDATALOAD PUSH1 0xE0 SHR DUP1 PUSH4 0x8DA5CB5B GT PUSH2 0xAB JUMPI DUP1 PUSH4 0xC87B56DD GT PUSH2 0x6F JUMPI DUP1 PUSH4 0xC87B56DD EQ PUSH2 0x318 JUMPI DUP1 PUSH4 0xD85D3D27 EQ PUSH2 0x348 JUMPI DUP1 PUSH4 0xE985E9C5 EQ PUSH2 0x378 JUMPI DUP1 PUSH4 0xF0F9EE46 EQ PUSH2 0x3A8 JUMPI DUP1 PUSH4 0xF2FDE38B EQ PUSH2 0x3C6 JUMPI PUSH2 0x12A JUMP JUMPDEST DUP1 PUSH4 0x8DA5CB5B EQ PUSH2 0x286 JUMPI DUP1 PUSH4 0x95D89B41 EQ PUSH2 0x2A4 JUMPI DUP1 PUSH4 0x9F181B5E EQ PUSH2 0x2C2 JUMPI DUP1 PUSH4 0xA22CB465 EQ PUSH2 0x2E0 JUMPI DUP1 PUSH4 0xB88D4FDE EQ PUSH2 0x2FC JUMPI PUSH2 0x12A JUMP JUMPDEST DUP1 PUSH4 0x23B872DD GT PUSH2 0xF2 JUMPI DUP1 PUSH4 0x23B872DD EQ PUSH2 0x1E4 JUMPI DUP1 PUSH4 0x42842E0E EQ PUSH2 0x200 JUMPI DUP1 PUSH4 0x6352211E EQ PUSH2 0x21C JUMPI DUP1 PUSH4 0x70A08231 EQ PUSH2 0x24C JUMPI DUP1 PUSH4 0x715018A6 EQ PUSH2 0x27C JUMPI PUSH2 0x12A JUMP JUMPDEST DUP1 PUSH4 0x1FFC9A7 EQ PUSH2 0x12E JUMPI DUP1 PUSH4 0x6FDDE03 EQ PUSH2 0x15E JUMPI DUP1 PUSH4 0x81812FC EQ PUSH2 0x17C JUMPI DUP1 PUSH4 0x95EA7B3 EQ PUSH2 0x1AC JUMPI DUP1 PUSH4 0xFFFC4CF EQ PUSH2 0x1C8 JUMPI JUMPDEST PUSH0 DUP1 REVERT JUMPDEST PUSH2 0x148 PUSH1 0x4 DUP1 CALLDATASIZE SUB DUP2 ADD SWAP1 PUSH2 0x143 SWAP2 SWAP1 PUSH2 0x1C1F JUMP JUMPDEST PUSH2 0x3E2 JUMP JUMPDEST PUSH1 0x40 MLOAD PUSH2 0x155 SWAP2 SWAP1 PUSH2 0x1C64 JUMP JUMPDEST PUSH1 0x40 MLOAD DUP1 SWAP2 SUB SWAP1 RETURN JUMPDEST PUSH2 0x166 PUSH2 0x442 JUMP JUMPDEST PUSH1 0x40 MLOAD PUSH2 0x173 SWAP2 SWAP1 PUSH2 0x1D07 JUMP JUMPDEST PUSH1 0x40 MLOAD DUP1 SWAP2 SUB SWAP1 RETURN JUMPDEST PUSH2 0x196 PUSH1 0x4 DUP1 CALLDATASIZE SUB DUP2 ADD SWAP1 PUSH2 0x191 SWAP2 SWAP1 PUSH2 0x1D5A JUMP JUMPDEST PUSH2 0x4D1 JUMP JUMPDEST PUSH1 0x40 MLOAD PUSH2 0x1A3 SWAP2 SWAP1 PUSH2 0x1DC4 JUMP JUMPDEST PUSH1 0x40 MLOAD DUP1 SWAP2 SUB SWAP1 RETURN JUMPDEST PUSH2 0x1C6 PUSH1 0x4 DUP1 CALLDATASIZE SUB DUP2 ADD SWAP1 PUSH2 0x1C1 SWAP2 SWAP1 PUSH2 0x1E07 JUMP JUMPDEST PUSH2 0x4EC JUMP JUMPDEST STOP JUMPDEST PUSH2 0x1E2 PUSH1 0x4 DUP1 CALLDATASIZE SUB DUP2 ADD SWAP1 PUSH2 0x1DD SWAP2 SWAP1 PUSH2 0x1E45 JUMP JUMPDEST PUSH2 0x502 JUMP JUMPDEST STOP JUMPDEST PUSH2 0x1FE PUSH1 0x4 DUP1 CALLDATASIZE SUB DUP2 ADD SWAP1 PUSH2 0x1F9 SWAP2 SWAP1 PUSH2 0x1E70 JUMP JUMPDEST PUSH2 0x54D JUMP JUMPDEST STOP JUMPDEST PUSH2 0x21A PUSH1 0x4 DUP1 CALLDATASIZE SUB DUP2 ADD SWAP1 PUSH2 0x215 SWAP2 SWAP1 PUSH2 0x1E70 JUMP JUMPDEST PUSH2 0x64C JUMP JUMPDEST STOP JUMPDEST PUSH2 0x236 PUSH1 0x4 DUP1 CALLDATASIZE SUB DUP2 ADD SWAP1 PUSH2 0x231 SWAP2 SWAP1 PUSH2 0x1D5A JUMP JUMPDEST PUSH2 0x66B JUMP JUMPDEST PUSH1 0x40 MLOAD PUSH2 0x243 SWAP2 SWAP1 PUSH2 0x1DC4 JUMP JUMPDEST PUSH1 0x40 MLOAD DUP1 SWAP2 SUB SWAP1 RETURN JUMPDEST PUSH2 0x266 PUSH1 0x4 DUP1 CALLDATASIZE SUB DUP2 ADD SWAP1 PUSH2 0x261 SWAP2 SWAP1 PUSH2 0x1E45 JUMP JUMPDEST PUSH2 0x67C JUMP JUMPDEST PUSH1 0x40 MLOAD PUSH2 0x273 SWAP2 SWAP1 PUSH2 0x1ECF JUMP JUMPDEST PUSH1 0x40 MLOAD DUP1 SWAP2 SUB SWAP1 RETURN JUMPDEST PUSH2 0x284 PUSH2 0x732 JUMP JUMPDEST STOP JUMPDEST PUSH2 0x28E PUSH2 0x745 JUMP JUMPDEST PUSH1 0x40 MLOAD PUSH2 0x29B SWAP2 SWAP1 PUSH2 0x1DC4 JUMP JUMPDEST PUSH1 0x40 MLOAD DUP1 SWAP2 SUB SWAP1 RETURN JUMPDEST PUSH2 0x2AC PUSH2 0x76D JUMP JUMPDEST PUSH1 0x40 MLOAD PUSH2 0x2B9 SWAP2 SWAP1 PUSH2 0x1D07 JUMP JUMPDEST PUSH1 0x40 MLOAD DUP1 SWAP2 SUB SWAP1 RETURN JUMPDEST PUSH2 0x2CA PUSH2 0x7FD JUMP JUMPDEST PUSH1 0x40 MLOAD PUSH2 0x2D7 SWAP2 SWAP1 PUSH2 0x1ECF JUMP JUMPDEST PUSH1 0x40 MLOAD DUP1 SWAP2 SUB SWAP1 RETURN JUMPDEST PUSH2 0x2FA PUSH1 0x4 DUP1 CALLDATASIZE SUB DUP2 ADD SWAP1 PUSH2 0x2F5 SWAP2 SWAP1 PUSH2 0x1F12 JUMP JUMPDEST PUSH2 0x803 JUMP JUMPDEST STOP JUMPDEST PUSH2 0x316 PUSH1 0x4 DUP1 CALLDATASIZE SUB DUP2 ADD SWAP1 PUSH2 0x311 SWAP2 SWAP1 PUSH2 0x207C JUMP JUMPDEST PUSH2 0x819 JUMP JUMPDEST STOP JUMPDEST PUSH2 0x332 PUSH1 0x4 DUP1 CALLDATASIZE SUB DUP2 ADD SWAP1 PUSH2 0x32D SWAP2 SWAP1 PUSH2 0x1D5A JUMP JUMPDEST PUSH2 0x836 JUMP JUMPDEST PUSH1 0x40 MLOAD PUSH2 0x33F SWAP2 SWAP1 PUSH2 0x1D07 JUMP JUMPDEST PUSH1 0x40 MLOAD DUP1 SWAP2 SUB SWAP1 RETURN JUMPDEST PUSH2 0x362 PUSH1 0x4 DUP1 CALLDATASIZE SUB DUP2 ADD SWAP1 PUSH2 0x35D SWAP2 SWAP1 PUSH2 0x219A JUMP JUMPDEST PUSH2 0x941 JUMP JUMPDEST PUSH1 0x40 MLOAD PUSH2 0x36F SWAP2 SWAP1 PUSH2 0x1ECF JUMP JUMPDEST PUSH1 0x40 MLOAD DUP1 SWAP2 SUB SWAP1 RETURN JUMPDEST PUSH2 0x392 PUSH1 0x4 DUP1 CALLDATASIZE SUB DUP2 ADD SWAP1 PUSH2 0x38D SWAP2 SWAP1 PUSH2 0x21E1 JUMP JUMPDEST PUSH2 0xA59 JUMP JUMPDEST PUSH1 0x40 MLOAD PUSH2 0x39F SWAP2 SWAP1 PUSH2 0x1C64 JUMP JUMPDEST PUSH1 0x40 MLOAD DUP1 SWAP2 SUB SWAP1 RETURN JUMPDEST PUSH2 0x3B0 PUSH2 0xAE7 JUMP JUMPDEST PUSH1 0x40 MLOAD PUSH2 0x3BD SWAP2 SWAP1 PUSH2 0x227A JUMP JUMPDEST PUSH1 0x40 MLOAD DUP1 SWAP2 SUB SWAP1 RETURN JUMPDEST PUSH2 0x3E0 PUSH1 0x4 DUP1 CALLDATASIZE SUB DUP2 ADD SWAP1 PUSH2 0x3DB SWAP2 SWAP1 PUSH2 0x1E45 JUMP JUMPDEST PUSH2 0xB0C JUMP JUMPDEST STOP JUMPDEST PUSH0 PUSH4 0x49064906 PUSH1 0xE0 SHL PUSH28 0xFFFFFFFFFFFFFFFFFFFFFFFFFFFFFFFFFFFFFFFFFFFFFFFFFFFFFFFF NOT AND DUP3 PUSH28 0xFFFFFFFFFFFFFFFFFFFFFFFFFFFFFFFFFFFFFFFFFFFFFFFFFFFFFFFF NOT AND EQ DUP1 PUSH2 0x43B JUMPI POP PUSH2 0x43A DUP3 PUSH2 0xB90 JUMP JUMPDEST JUMPDEST SWAP1 POP SWAP2 SWAP1 POP JUMP JUMPDEST PUSH1 0x60 PUSH0 DUP1 SLOAD PUSH2 0x450 SWAP1 PUSH2 0x22C0 JUMP JUMPDEST DUP1 PUSH1 0x1F ADD PUSH1 0x20 DUP1 SWAP2 DIV MUL PUSH1 0x20 ADD PUSH1 0x40 MLOAD SWAP1 DUP2 ADD PUSH1 0x40 MSTORE DUP1 SWAP3 SWAP2 SWAP1 DUP2 DUP2 MSTORE PUSH1 0x20 ADD DUP3 DUP1 SLOAD PUSH2 0x47C SWAP1 PUSH2 0x22C0 JUMP JUMPDEST DUP1 ISZERO PUSH2 0x4C7 JUMPI DUP1 PUSH1 0x1F LT PUSH2 0x49E JUMPI PUSH2 0x100 DUP1 DUP4 SLOAD DIV MUL DUP4 MSTORE SWAP2 PUSH1 0x20 ADD SWAP2 PUSH2 0x4C7 JUMP JUMPDEST DUP3 ADD SWAP2 SWAP1 PUSH0 MSTORE PUSH1 0x20 PUSH0 KECCAK256 SWAP1 JUMPDEST DUP2 SLOAD DUP2 MSTORE SWAP1 PUSH1 0x1 ADD SWAP1 PUSH1 0x20 ADD DUP1 DUP4 GT PUSH2 0x4AA JUMPI DUP3 SWAP1 SUB PUSH1 0x1F AND DUP3 ADD SWAP2 JUMPDEST POP POP POP POP POP SWAP1 POP SWAP1 JUMP JUMPDEST PUSH0 PUSH2 0x4DB DUP3 PUSH2 0xC71 JUMP JUMPDEST POP PUSH2 0x4E5 DUP3 PUSH2 0xCF7 JUMP JUMPDEST SWAP1 POP SWAP2 SWAP1 POP JUMP JUMPDEST PUSH2 0x4FE DUP3 DUP3 PUSH2 0x4F9 PUSH2 0xD30 JUMP JUMPDEST PUSH2 0xD37 JUMP JUMPDEST POP POP JUMP JUMPDEST PUSH2 0x50A PUSH2 0xD49 JUMP JUMPDEST DUP1 PUSH1 0x9 PUSH0 PUSH2 0x100 EXP DUP2 SLOAD DUP2 PUSH20 0xFFFFFFFFFFFFFFFFFFFFFFFFFFFFFFFFFFFFFFFF MUL NOT AND SWAP1 DUP4 PUSH20 0xFFFFFFFFFFFFFFFFFFFFFFFFFFFFFFFFFFFFFFFF AND MUL OR SWAP1 SSTORE POP POP JUMP JUMPDEST PUSH0 PUSH20 0xFFFFFFFFFFFFFFFFFFFFFFFFFFFFFFFFFFFFFFFF AND DUP3 PUSH20 0xFFFFFFFFFFFFFFFFFFFFFFFFFFFFFFFFFFFFFFFF AND SUB PUSH2 0x5BD JUMPI PUSH0 PUSH1 0x40 MLOAD PUSH32 0x64A0AE9200000000000000000000000000000000000000000000000000000000 DUP2 MSTORE PUSH1 0x4 ADD PUSH2 0x5B4 SWAP2 SWAP1 PUSH2 0x1DC4 JUMP JUMPDEST PUSH1 0x40 MLOAD DUP1 SWAP2 SUB SWAP1 REVERT JUMPDEST PUSH0 PUSH2 0x5D0 DUP4 DUP4 PUSH2 0x5CB PUSH2 0xD30 JUMP JUMPDEST PUSH2 0xDD0 JUMP JUMPDEST SWAP1 POP DUP4 PUSH20 0xFFFFFFFFFFFFFFFFFFFFFFFFFFFFFFFFFFFFFFFF AND DUP2 PUSH20 0xFFFFFFFFFFFFFFFFFFFFFFFFFFFFFFFFFFFFFFFF AND EQ PUSH2 0x646 JUMPI DUP4 DUP3 DUP3 PUSH1 0x40 MLOAD PUSH32 0x64283D7B00000000000000000000000000000000000000000000000000000000 DUP2 MSTORE PUSH1 0x4 ADD PUSH2 0x63D SWAP4 SWAP3 SWAP2 SWAP1 PUSH2 0x22F0 JUMP JUMPDEST PUSH1 0x40 MLOAD DUP1 SWAP2 SUB SWAP1 REVERT JUMPDEST POP POP POP POP JUMP JUMPDEST PUSH2 0x666 DUP4 DUP4 DUP4 PUSH1 0x40 MLOAD DUP1 PUSH1 0x20 ADD PUSH1 0x40 MSTORE DUP1 PUSH0 DUP2 MSTORE POP PUSH2 0x819 JUMP JUMPDEST POP POP POP JUMP JUMPDEST PUSH0 PUSH2 0x675 DUP3 PUSH2 0xC71 JUMP JUMPDEST SWAP1 POP SWAP2 SWAP1 POP JUMP JUMPDEST PUSH0 DUP1 PUSH20 0xFFFFFFFFFFFFFFFFFFFFFFFFFFFFFFFFFFFFFFFF AND DUP3 PUSH20 0xFFFFFFFFFFFFFFFFFFFFFFFFFFFFFFFFFFFFFFFF AND SUB PUSH2 0x6ED JUMPI PUSH0 PUSH1 0x40 MLOAD PUSH32 0x89C62B6400000000000000000000000000000000000000000000000000000000 DUP2 MSTORE PUSH1 0x4 ADD PUSH2 0x6E4 SWAP2 SWAP1 PUSH2 0x1DC4 JUMP JUMPDEST PUSH1 0x40 MLOAD DUP1 SWAP2 SUB SWAP1 REVERT JUMPDEST PUSH1 0x3 PUSH0 DUP4 PUSH20 0xFFFFFFFFFFFFFFFFFFFFFFFFFFFFFFFFFFFFFFFF AND PUSH20 0xFFFFFFFFFFFFFFFFFFFFFFFFFFFFFFFFFFFFFFFF AND DUP2 MSTORE PUSH1 0x20 ADD SWAP1 DUP2 MSTORE PUSH1 0x20 ADD PUSH0 KECCAK256 SLOAD SWAP1 POP SWAP2 SWAP1 POP JUMP JUMPDEST PUSH2 0x73A PUSH2 0xD49 JUMP JUMPDEST PUSH2 0x743 PUSH0 PUSH2 0xFDB JUMP JUMPDEST JUMP JUMPDEST PUSH0 PUSH1 0x7 PUSH0 SWAP1 SLOAD SWAP1 PUSH2 0x100 EXP SWAP1 DIV PUSH20 0xFFFFFFFFFFFFFFFFFFFFFFFFFFFFFFFFFFFFFFFF AND SWAP1 POP SWAP1 JUMP JUMPDEST PUSH1 0x60 PUSH1 0x1 DUP1 SLOAD PUSH2 0x77C SWAP1 PUSH2 0x22C0 JUMP JUMPDEST DUP1 PUSH1 0x1F ADD PUSH1 0x20 DUP1 SWAP2 DIV MUL PUSH1 0x20 ADD PUSH1 0x40 MLOAD SWAP1 DUP2 ADD PUSH1 0x40 MSTORE DUP1 SWAP3 SWAP2 SWAP1 DUP2 DUP2 MSTORE PUSH1 0x20 ADD DUP3 DUP1 SLOAD PUSH2 0x7A8 SWAP1 PUSH2 0x22C0 JUMP JUMPDEST DUP1 ISZERO PUSH2 0x7F3 JUMPI DUP1 PUSH1 0x1F LT PUSH2 0x7CA JUMPI PUSH2 0x100 DUP1 DUP4 SLOAD DIV MUL DUP4 MSTORE SWAP2 PUSH1 0x20 ADD SWAP2 PUSH2 0x7F3 JUMP JUMPDEST DUP3 ADD SWAP2 SWAP1 PUSH0 MSTORE PUSH1 0x20 PUSH0 KECCAK256 SWAP1 JUMPDEST DUP2 SLOAD DUP2 MSTORE SWAP1 PUSH1 0x1 ADD SWAP1 PUSH1 0x20 ADD DUP1 DUP4 GT PUSH2 0x7D6 JUMPI DUP3 SWAP1 SUB PUSH1 0x1F AND DUP3 ADD SWAP2 JUMPDEST POP POP POP POP POP SWAP1 POP SWAP1 JUMP JUMPDEST PUSH1 0x8 SLOAD DUP2 JUMP JUMPDEST PUSH2 0x815 PUSH2 0x80E PUSH2 0xD30 JUMP JUMPDEST DUP4 DUP4 PUSH2 0x109E JUMP JUMPDEST POP POP JUMP JUMPDEST PUSH2 0x824 DUP5 DUP5 DUP5 PUSH2 0x54D JUMP JUMPDEST PUSH2 0x830 DUP5 DUP5 DUP5 DUP5 PUSH2 0x1207 JUMP JUMPDEST POP POP POP POP JUMP JUMPDEST PUSH1 0x60 PUSH2 0x841 DUP3 PUSH2 0xC71 JUMP JUMPDEST POP PUSH0 PUSH1 0x6 PUSH0 DUP5 DUP2 MSTORE PUSH1 0x20 ADD SWAP1 DUP2 MSTORE PUSH1 0x20 ADD PUSH0 KECCAK256 DUP1 SLOAD PUSH2 0x85F SWAP1 PUSH2 0x22C0 JUMP JUMPDEST DUP1 PUSH1 0x1F ADD PUSH1 0x20 DUP1 SWAP2 DIV MUL PUSH1 0x20 ADD PUSH1 0x40 MLOAD SWAP1 DUP2 ADD PUSH1 0x40 MSTORE DUP1 SWAP3 SWAP2 SWAP1 DUP2 DUP2 MSTORE PUSH1 0x20 ADD DUP3 DUP1 SLOAD PUSH2 0x88B SWAP1 PUSH2 0x22C0 JUMP JUMPDEST DUP1 ISZERO PUSH2 0x8D6 JUMPI DUP1 PUSH1 0x1F LT PUSH2 0x8AD JUMPI PUSH2 0x100 DUP1 DUP4 SLOAD DIV MUL DUP4 MSTORE SWAP2 PUSH1 0x20 ADD SWAP2 PUSH2 0x8D6 JUMP JUMPDEST DUP3 ADD SWAP2 SWAP1 PUSH0 MSTORE PUSH1 0x20 PUSH0 KECCAK256 SWAP1 JUMPDEST DUP2 SLOAD DUP2 MSTORE SWAP1 PUSH1 0x1 ADD SWAP1 PUSH1 0x20 ADD DUP1 DUP4 GT PUSH2 0x8B9 JUMPI DUP3 SWAP1 SUB PUSH1 0x1F AND DUP3 ADD SWAP2 JUMPDEST POP POP POP POP POP SWAP1 POP PUSH0 PUSH2 0x8E6 PUSH2 0x13B9 JUMP JUMPDEST SWAP1 POP PUSH0 DUP2 MLOAD SUB PUSH2 0x8FA JUMPI DUP2 SWAP3 POP POP POP PUSH2 0x93C JUMP JUMPDEST PUSH0 DUP3 MLOAD GT ISZERO PUSH2 0x92E JUMPI DUP1 DUP3 PUSH1 0x40 MLOAD PUSH1 0x20 ADD PUSH2 0x916 SWAP3 SWAP2 SWAP1 PUSH2 0x235F JUMP JUMPDEST PUSH1 0x40 MLOAD PUSH1 0x20 DUP2 DUP4 SUB SUB DUP2 MSTORE SWAP1 PUSH1 0x40 MSTORE SWAP3 POP POP POP PUSH2 0x93C JUMP JUMPDEST PUSH2 0x937 DUP5 PUSH2 0x13CF JUMP JUMPDEST SWAP3 POP POP POP JUMPDEST SWAP2 SWAP1 POP JUMP JUMPDEST PUSH0 DUP1 PUSH1 0x9 PUSH0 SWAP1 SLOAD SWAP1 PUSH2 0x100 EXP SWAP1 DIV PUSH20 0xFFFFFFFFFFFFFFFFFFFFFFFFFFFFFFFFFFFFFFFF AND PUSH20 0xFFFFFFFFFFFFFFFFFFFFFFFFFFFFFFFFFFFFFFFF AND PUSH4 0x4B297269 CALLER PUSH1 0x40 MLOAD DUP3 PUSH4 0xFFFFFFFF AND PUSH1 0xE0 SHL DUP2 MSTORE PUSH1 0x4 ADD PUSH2 0x99D SWAP2 SWAP1 PUSH2 0x1DC4 JUMP JUMPDEST PUSH0 PUSH1 0x40 MLOAD DUP1 DUP4 SUB DUP2 DUP7 GAS STATICCALL ISZERO DUP1 ISZERO PUSH2 0x9B7 JUMPI RETURNDATASIZE PUSH0 DUP1 RETURNDATACOPY RETURNDATASIZE PUSH0 REVERT JUMPDEST POP POP POP POP PUSH1 0x40 MLOAD RETURNDATASIZE PUSH0 DUP3 RETURNDATACOPY RETURNDATASIZE PUSH1 0x1F NOT PUSH1 0x1F DUP3 ADD AND DUP3 ADD DUP1 PUSH1 0x40 MSTORE POP DUP2 ADD SWAP1 PUSH2 0x9DF SWAP2 SWAP1 PUSH2 0x23F0 JUMP JUMPDEST MLOAD SUB PUSH2 0xA20 JUMPI PUSH1 0x40 MLOAD PUSH32 0x8C379A000000000000000000000000000000000000000000000000000000000 DUP2 MSTORE PUSH1 0x4 ADD PUSH2 0xA17 SWAP1 PUSH2 0x24A7 JUMP JUMPDEST PUSH1 0x40 MLOAD DUP1 SWAP2 SUB SWAP1 REVERT JUMPDEST PUSH1 0x8 PUSH0 DUP2 SLOAD DUP1 SWAP3 SWAP2 SWAP1 PUSH2 0xA32 SWAP1 PUSH2 0x24F2 JUMP JUMPDEST SWAP2 SWAP1 POP SSTORE POP PUSH2 0xA43 CALLER PUSH1 0x8 SLOAD PUSH2 0x1435 JUMP JUMPDEST PUSH2 0xA4F PUSH1 0x8 SLOAD DUP4 PUSH2 0x1452 JUMP JUMPDEST PUSH1 0x8 SLOAD SWAP1 POP SWAP2 SWAP1 POP JUMP JUMPDEST PUSH0 PUSH1 0x5 PUSH0 DUP5 PUSH20 0xFFFFFFFFFFFFFFFFFFFFFFFFFFFFFFFFFFFFFFFF AND PUSH20 0xFFFFFFFFFFFFFFFFFFFFFFFFFFFFFFFFFFFFFFFF AND DUP2 MSTORE PUSH1 0x20 ADD SWAP1 DUP2 MSTORE PUSH1 0x20 ADD PUSH0 KECCAK256 PUSH0 DUP4 PUSH20 0xFFFFFFFFFFFFFFFFFFFFFFFFFFFFFFFFFFFFFFFF AND PUSH20 0xFFFFFFFFFFFFFFFFFFFFFFFFFFFFFFFFFFFFFFFF AND DUP2 MSTORE PUSH1 0x20 ADD SWAP1 DUP2 MSTORE PUSH1 0x20 ADD PUSH0 KECCAK256 PUSH0 SWAP1 SLOAD SWAP1 PUSH2 0x100 EXP SWAP1 DIV PUSH1 0xFF AND SWAP1 POP SWAP3 SWAP2 POP POP JUMP JUMPDEST PUSH1 0x9 PUSH0 SWAP1 SLOAD SWAP1 PUSH2 0x100 EXP SWAP1 DIV PUSH20 0xFFFFFFFFFFFFFFFFFFFFFFFFFFFFFFFFFFFFFFFF AND DUP2 JUMP JUMPDEST PUSH2 0xB14 PUSH2 0xD49 JUMP JUMPDEST PUSH0 PUSH20 0xFFFFFFFFFFFFFFFFFFFFFFFFFFFFFFFFFFFFFFFF AND DUP2 PUSH20 0xFFFFFFFFFFFFFFFFFFFFFFFFFFFFFFFFFFFFFFFF AND SUB PUSH2 0xB84 JUMPI PUSH0 PUSH1 0x40 MLOAD PUSH32 0x1E4FBDF700000000000000000000000000000000000000000000000000000000 DUP2 MSTORE PUSH1 0x4 ADD PUSH2 0xB7B SWAP2 SWAP1 PUSH2 0x1DC4 JUMP JUMPDEST PUSH1 0x40 MLOAD DUP1 SWAP2 SUB SWAP1 REVERT JUMPDEST PUSH2 0xB8D DUP2 PUSH2 0xFDB JUMP JUMPDEST POP JUMP JUMPDEST PUSH0 PUSH32 0x80AC58CD00000000000000000000000000000000000000000000000000000000 PUSH28 0xFFFFFFFFFFFFFFFFFFFFFFFFFFFFFFFFFFFFFFFFFFFFFFFFFFFFFFFF NOT AND DUP3 PUSH28 0xFFFFFFFFFFFFFFFFFFFFFFFFFFFFFFFFFFFFFFFFFFFFFFFFFFFFFFFF NOT AND EQ DUP1 PUSH2 0xC5A JUMPI POP PUSH32 0x5B5E139F00000000000000000000000000000000000000000000000000000000 PUSH28 0xFFFFFFFFFFFFFFFFFFFFFFFFFFFFFFFFFFFFFFFFFFFFFFFFFFFFFFFF NOT AND DUP3 PUSH28 0xFFFFFFFFFFFFFFFFFFFFFFFFFFFFFFFFFFFFFFFFFFFFFFFFFFFFFFFF NOT AND EQ JUMPDEST DUP1 PUSH2 0xC6A JUMPI POP PUSH2 0xC69 DUP3 PUSH2 0x14AC JUMP JUMPDEST JUMPDEST SWAP1 POP SWAP2 SWAP1 POP JUMP JUMPDEST PUSH0 DUP1 PUSH2 0xC7C DUP4 PUSH2 0x1515 JUMP JUMPDEST SWAP1 POP PUSH0 PUSH20 0xFFFFFFFFFFFFFFFFFFFFFFFFFFFFFFFFFFFFFFFF AND DUP2 PUSH20 0xFFFFFFFFFFFFFFFFFFFFFFFFFFFFFFFFFFFFFFFF AND SUB PUSH2 0xCEE JUMPI DUP3 PUSH1 0x40 MLOAD PUSH32 0x7E27328900000000000000000000000000000000000000000000000000000000 DUP2 MSTORE PUSH1 0x4 ADD PUSH2 0xCE5 SWAP2 SWAP1 PUSH2 0x1ECF JUMP JUMPDEST PUSH1 0x40 MLOAD DUP1 SWAP2 SUB SWAP1 REVERT JUMPDEST DUP1 SWAP2 POP POP SWAP2 SWAP1 POP JUMP JUMPDEST PUSH0 PUSH1 0x4 PUSH0 DUP4 DUP2 MSTORE PUSH1 0x20 ADD SWAP1 DUP2 MSTORE PUSH1 0x20 ADD PUSH0 KECCAK256 PUSH0 SWAP1 SLOAD SWAP1 PUSH2 0x100 EXP SWAP1 DIV PUSH20 0xFFFFFFFFFFFFFFFFFFFFFFFFFFFFFFFFFFFFFFFF AND SWAP1 POP SWAP2 SWAP1 POP JUMP JUMPDEST PUSH0 CALLER SWAP1 POP SWAP1 JUMP JUMPDEST PUSH2 0xD44 DUP4 DUP4 DUP4 PUSH1 0x1 PUSH2 0x154E JUMP JUMPDEST POP POP POP JUMP JUMPDEST PUSH2 0xD51 PUSH2 0xD30 JUMP JUMPDEST PUSH20 0xFFFFFFFFFFFFFFFFFFFFFFFFFFFFFFFFFFFFFFFF AND PUSH2 0xD6F PUSH2 0x745 JUMP JUMPDEST PUSH20 0xFFFFFFFFFFFFFFFFFFFFFFFFFFFFFFFFFFFFFFFF AND EQ PUSH2 0xDCE JUMPI PUSH2 0xD92 PUSH2 0xD30 JUMP JUMPDEST PUSH1 0x40 MLOAD PUSH32 0x118CDAA700000000000000000000000000000000000000000000000000000000 DUP2 MSTORE PUSH1 0x4 ADD PUSH2 0xDC5 SWAP2 SWAP1 PUSH2 0x1DC4 JUMP JUMPDEST PUSH1 0x40 MLOAD DUP1 SWAP2 SUB SWAP1 REVERT JUMPDEST JUMP JUMPDEST PUSH0 DUP1 PUSH2 0xDDB DUP5 PUSH2 0x1515 JUMP JUMPDEST SWAP1 POP PUSH0 PUSH20 0xFFFFFFFFFFFFFFFFFFFFFFFFFFFFFFFFFFFFFFFF AND DUP4 PUSH20 0xFFFFFFFFFFFFFFFFFFFFFFFFFFFFFFFFFFFFFFFF AND EQ PUSH2 0xE1C JUMPI PUSH2 0xE1B DUP2 DUP5 DUP7 PUSH2 0x170D JUMP JUMPDEST JUMPDEST PUSH0 PUSH20 0xFFFFFFFFFFFFFFFFFFFFFFFFFFFFFFFFFFFFFFFF AND DUP2 PUSH20 0xFFFFFFFFFFFFFFFFFFFFFFFFFFFFFFFFFFFFFFFF AND EQ PUSH2 0xEA7 JUMPI PUSH2 0xE5B PUSH0 DUP6 PUSH0 DUP1 PUSH2 0x154E JUMP JUMPDEST PUSH1 0x1 PUSH1 0x3 PUSH0 DUP4 PUSH20 0xFFFFFFFFFFFFFFFFFFFFFFFFFFFFFFFFFFFFFFFF AND PUSH20 0xFFFFFFFFFFFFFFFFFFFFFFFFFFFFFFFFFFFFFFFF AND DUP2 MSTORE PUSH1 0x20 ADD SWAP1 DUP2 MSTORE PUSH1 0x20 ADD PUSH0 KECCAK256 PUSH0 DUP3 DUP3 SLOAD SUB SWAP3 POP POP DUP2 SWAP1 SSTORE POP JUMPDEST PUSH0 PUSH20 0xFFFFFFFFFFFFFFFFFFFFFFFFFFFFFFFFFFFFFFFF AND DUP6 PUSH20 0xFFFFFFFFFFFFFFFFFFFFFFFFFFFFFFFFFFFFFFFF AND EQ PUSH2 0xF26 JUMPI PUSH1 0x1 PUSH1 0x3 PUSH0 DUP8 PUSH20 0xFFFFFFFFFFFFFFFFFFFFFFFFFFFFFFFFFFFFFFFF AND PUSH20 0xFFFFFFFFFFFFFFFFFFFFFFFFFFFFFFFFFFFFFFFF AND DUP2 MSTORE PUSH1 0x20 ADD SWAP1 DUP2 MSTORE PUSH1 0x20 ADD PUSH0 KECCAK256 PUSH0 DUP3 DUP3 SLOAD ADD SWAP3 POP POP DUP2 SWAP1 SSTORE POP JUMPDEST DUP5 PUSH1 0x2 PUSH0 DUP7 DUP2 MSTORE PUSH1 0x20 ADD SWAP1 DUP2 MSTORE PUSH1 0x20 ADD PUSH0 KECCAK256 PUSH0 PUSH2 0x100 EXP DUP2 SLOAD DUP2 PUSH20 0xFFFFFFFFFFFFFFFFFFFFFFFFFFFFFFFFFFFFFFFF MUL NOT AND SWAP1 DUP4 PUSH20 0xFFFFFFFFFFFFFFFFFFFFFFFFFFFFFFFFFFFFFFFF AND MUL OR SWAP1 SSTORE POP DUP4 DUP6 PUSH20 0xFFFFFFFFFFFFFFFFFFFFFFFFFFFFFFFFFFFFFFFF AND DUP3 PUSH20 0xFFFFFFFFFFFFFFFFFFFFFFFFFFFFFFFFFFFFFFFF AND PUSH32 0xDDF252AD1BE2C89B69C2B068FC378DAA952BA7F163C4A11628F55A4DF523B3EF PUSH1 0x40 MLOAD PUSH1 0x40 MLOAD DUP1 SWAP2 SUB SWAP1 LOG4 DUP1 SWAP2 POP POP SWAP4 SWAP3 POP POP POP JUMP JUMPDEST PUSH0 PUSH1 0x7 PUSH0 SWAP1 SLOAD SWAP1 PUSH2 0x100 EXP SWAP1 DIV PUSH20 0xFFFFFFFFFFFFFFFFFFFFFFFFFFFFFFFFFFFFFFFF AND SWAP1 POP DUP2 PUSH1 0x7 PUSH0 PUSH2 0x100 EXP DUP2 SLOAD DUP2 PUSH20 0xFFFFFFFFFFFFFFFFFFFFFFFFFFFFFFFFFFFFFFFF MUL NOT AND SWAP1 DUP4 PUSH20 0xFFFFFFFFFFFFFFFFFFFFFFFFFFFFFFFFFFFFFFFF AND MUL OR SWAP1 SSTORE POP DUP2 PUSH20 0xFFFFFFFFFFFFFFFFFFFFFFFFFFFFFFFFFFFFFFFF AND DUP2 PUSH20 0xFFFFFFFFFFFFFFFFFFFFFFFFFFFFFFFFFFFFFFFF AND PUSH32 0x8BE0079C531659141344CD1FD0A4F28419497F9722A3DAAFE3B4186F6B6457E0 PUSH1 0x40 MLOAD PUSH1 0x40 MLOAD DUP1 SWAP2 SUB SWAP1 LOG3 POP POP JUMP JUMPDEST PUSH0 PUSH20 0xFFFFFFFFFFFFFFFFFFFFFFFFFFFFFFFFFFFFFFFF AND DUP3 PUSH20 0xFFFFFFFFFFFFFFFFFFFFFFFFFFFFFFFFFFFFFFFF AND SUB PUSH2 0x110E JUMPI DUP2 PUSH1 0x40 MLOAD PUSH32 0x5B08BA1800000000000000000000000000000000000000000000000000000000 DUP2 MSTORE PUSH1 0x4 ADD PUSH2 0x1105 SWAP2 SWAP1 PUSH2 0x1DC4 JUMP JUMPDEST PUSH1 0x40 MLOAD DUP1 SWAP2 SUB SWAP1 REVERT JUMPDEST DUP1 PUSH1 0x5 PUSH0 DUP6 PUSH20 0xFFFFFFFFFFFFFFFFFFFFFFFFFFFFFFFFFFFFFFFF AND PUSH20 0xFFFFFFFFFFFFFFFFFFFFFFFFFFFFFFFFFFFFFFFF AND DUP2 MSTORE PUSH1 0x20 ADD SWAP1 DUP2 MSTORE PUSH1 0x20 ADD PUSH0 KECCAK256 PUSH0 DUP5 PUSH20 0xFFFFFFFFFFFFFFFFFFFFFFFFFFFFFFFFFFFFFFFF AND PUSH20 0xFFFFFFFFFFFFFFFFFFFFFFFFFFFFFFFFFFFFFFFF AND DUP2 MSTORE PUSH1 0x20 ADD SWAP1 DUP2 MSTORE PUSH1 0x20 ADD PUSH0 KECCAK256 PUSH0 PUSH2 0x100 EXP DUP2 SLOAD DUP2 PUSH1 0xFF MUL NOT AND SWAP1 DUP4 ISZERO ISZERO MUL OR SWAP1 SSTORE POP DUP2 PUSH20 0xFFFFFFFFFFFFFFFFFFFFFFFFFFFFFFFFFFFFFFFF AND DUP4 PUSH20 0xFFFFFFFFFFFFFFFFFFFFFFFFFFFFFFFFFFFFFFFF AND PUSH32 0x17307EAB39AB6107E8899845AD3D59BD9653F200F220920489CA2B5937696C31 DUP4 PUSH1 0x40 MLOAD PUSH2 0x11FA SWAP2 SWAP1 PUSH2 0x1C64 JUMP JUMPDEST PUSH1 0x40 MLOAD DUP1 SWAP2 SUB SWAP1 LOG3 POP POP POP JUMP JUMPDEST PUSH0 DUP4 PUSH20 0xFFFFFFFFFFFFFFFFFFFFFFFFFFFFFFFFFFFFFFFF AND EXTCODESIZE GT ISZERO PUSH2 0x13B3 JUMPI DUP3 PUSH20 0xFFFFFFFFFFFFFFFFFFFFFFFFFFFFFFFFFFFFFFFF AND PUSH4 0x150B7A02 PUSH2 0x124A PUSH2 0xD30 JUMP JUMPDEST DUP7 DUP6 DUP6 PUSH1 0x40 MLOAD DUP6 PUSH4 0xFFFFFFFF AND PUSH1 0xE0 SHL DUP2 MSTORE PUSH1 0x4 ADD PUSH2 0x126C SWAP5 SWAP4 SWAP3 SWAP2 SWAP1 PUSH2 0x258B JUMP JUMPDEST PUSH1 0x20 PUSH1 0x40 MLOAD DUP1 DUP4 SUB DUP2 PUSH0 DUP8 GAS CALL SWAP3 POP POP POP DUP1 ISZERO PUSH2 0x12A7 JUMPI POP PUSH1 0x40 MLOAD RETURNDATASIZE PUSH1 0x1F NOT PUSH1 0x1F DUP3 ADD AND DUP3 ADD DUP1 PUSH1 0x40 MSTORE POP DUP2 ADD SWAP1 PUSH2 0x12A4 SWAP2 SWAP1 PUSH2 0x25E9 JUMP JUMPDEST PUSH1 0x1 JUMPDEST PUSH2 0x1328 JUMPI RETURNDATASIZE DUP1 PUSH0 DUP2 EQ PUSH2 0x12D5 JUMPI PUSH1 0x40 MLOAD SWAP2 POP PUSH1 0x1F NOT PUSH1 0x3F RETURNDATASIZE ADD AND DUP3 ADD PUSH1 0x40 MSTORE RETURNDATASIZE DUP3 MSTORE RETURNDATASIZE PUSH0 PUSH1 0x20 DUP5 ADD RETURNDATACOPY PUSH2 0x12DA JUMP JUMPDEST PUSH1 0x60 SWAP2 POP JUMPDEST POP PUSH0 DUP2 MLOAD SUB PUSH2 0x1320 JUMPI DUP4 PUSH1 0x40 MLOAD PUSH32 0x64A0AE9200000000000000000000000000000000000000000000000000000000 DUP2 MSTORE PUSH1 0x4 ADD PUSH2 0x1317 SWAP2 SWAP1 PUSH2 0x1DC4 JUMP JUMPDEST PUSH1 0x40 MLOAD DUP1 SWAP2 SUB SWAP1 REVERT JUMPDEST DUP1 MLOAD DUP2 PUSH1 0x20 ADD REVERT JUMPDEST PUSH4 0x150B7A02 PUSH1 0xE0 SHL PUSH28 0xFFFFFFFFFFFFFFFFFFFFFFFFFFFFFFFFFFFFFFFFFFFFFFFFFFFFFFFF NOT AND DUP2 PUSH28 0xFFFFFFFFFFFFFFFFFFFFFFFFFFFFFFFFFFFFFFFFFFFFFFFFFFFFFFFF NOT AND EQ PUSH2 0x13B1 JUMPI DUP4 PUSH1 0x40 MLOAD PUSH32 0x64A0AE9200000000000000000000000000000000000000000000000000000000 DUP2 MSTORE PUSH1 0x4 ADD PUSH2 0x13A8 SWAP2 SWAP1 PUSH2 0x1DC4 JUMP JUMPDEST PUSH1 0x40 MLOAD DUP1 SWAP2 SUB SWAP1 REVERT JUMPDEST POP JUMPDEST POP POP POP POP JUMP JUMPDEST PUSH1 0x60 PUSH1 0x40 MLOAD DUP1 PUSH1 0x20 ADD PUSH1 0x40 MSTORE DUP1 PUSH0 DUP2 MSTORE POP SWAP1 POP SWAP1 JUMP JUMPDEST PUSH1 0x60 PUSH2 0x13DA DUP3 PUSH2 0xC71 JUMP JUMPDEST POP PUSH0 PUSH2 0x13E4 PUSH2 0x13B9 JUMP JUMPDEST SWAP1 POP PUSH0 DUP2 MLOAD GT PUSH2 0x1402 JUMPI PUSH1 0x40 MLOAD DUP1 PUSH1 0x20 ADD PUSH1 0x40 MSTORE DUP1 PUSH0 DUP2 MSTORE POP PUSH2 0x142D JUMP JUMPDEST DUP1 PUSH2 0x140C DUP5 PUSH2 0x17D0 JUMP JUMPDEST PUSH1 0x40 MLOAD PUSH1 0x20 ADD PUSH2 0x141D SWAP3 SWAP2 SWAP1 PUSH2 0x235F JUMP JUMPDEST PUSH1 0x40 MLOAD PUSH1 0x20 DUP2 DUP4 SUB SUB DUP2 MSTORE SWAP1 PUSH1 0x40 MSTORE JUMPDEST SWAP2 POP POP SWAP2 SWAP1 POP JUMP JUMPDEST PUSH2 0x144E DUP3 DUP3 PUSH1 0x40 MLOAD DUP1 PUSH1 0x20 ADD PUSH1 0x40 MSTORE DUP1 PUSH0 DUP2 MSTORE POP PUSH2 0x189A JUMP JUMPDEST POP POP JUMP JUMPDEST DUP1 PUSH1 0x6 PUSH0 DUP5 DUP2 MSTORE PUSH1 0x20 ADD SWAP1 DUP2 MSTORE PUSH1 0x20 ADD PUSH0 KECCAK256 SWAP1 DUP2 PUSH2 0x1470 SWAP2 SWAP1 PUSH2 0x27A8 JUMP JUMPDEST POP PUSH32 0xF8E1A15ABA9398E019F0B49DF1A4FDE98EE17AE345CB5F6B5E2C27F5033E8CE7 DUP3 PUSH1 0x40 MLOAD PUSH2 0x14A0 SWAP2 SWAP1 PUSH2 0x1ECF JUMP JUMPDEST PUSH1 0x40 MLOAD DUP1 SWAP2 SUB SWAP1 LOG1 POP POP JUMP JUMPDEST PUSH0 PUSH32 0x1FFC9A700000000000000000000000000000000000000000000000000000000 PUSH28 0xFFFFFFFFFFFFFFFFFFFFFFFFFFFFFFFFFFFFFFFFFFFFFFFFFFFFFFFF NOT AND DUP3 PUSH28 0xFFFFFFFFFFFFFFFFFFFFFFFFFFFFFFFFFFFFFFFFFFFFFFFFFFFFFFFF NOT AND EQ SWAP1 POP SWAP2 SWAP1 POP JUMP JUMPDEST PUSH0 PUSH1 0x2 PUSH0 DUP4 DUP2 MSTORE PUSH1 0x20 ADD SWAP1 DUP2 MSTORE PUSH1 0x20 ADD PUSH0 KECCAK256 PUSH0 SWAP1 SLOAD SWAP1 PUSH2 0x100 EXP SWAP1 DIV PUSH20 0xFFFFFFFFFFFFFFFFFFFFFFFFFFFFFFFFFFFFFFFF AND SWAP1 POP SWAP2 SWAP1 POP JUMP JUMPDEST DUP1 DUP1 PUSH2 0x1586 JUMPI POP PUSH0 PUSH20 0xFFFFFFFFFFFFFFFFFFFFFFFFFFFFFFFFFFFFFFFF AND DUP3 PUSH20 0xFFFFFFFFFFFFFFFFFFFFFFFFFFFFFFFFFFFFFFFF AND EQ ISZERO JUMPDEST ISZERO PUSH2 0x16B8 JUMPI PUSH0 PUSH2 0x1595 DUP5 PUSH2 0xC71 JUMP JUMPDEST SWAP1 POP PUSH0 PUSH20 0xFFFFFFFFFFFFFFFFFFFFFFFFFFFFFFFFFFFFFFFF AND DUP4 PUSH20 0xFFFFFFFFFFFFFFFFFFFFFFFFFFFFFFFFFFFFFFFF AND EQ ISZERO DUP1 ISZERO PUSH2 0x15FF JUMPI POP DUP3 PUSH20 0xFFFFFFFFFFFFFFFFFFFFFFFFFFFFFFFFFFFFFFFF AND DUP2 PUSH20 0xFFFFFFFFFFFFFFFFFFFFFFFFFFFFFFFFFFFFFFFF AND EQ ISZERO JUMPDEST DUP1 ISZERO PUSH2 0x1612 JUMPI POP PUSH2 0x1610 DUP2 DUP5 PUSH2 0xA59 JUMP JUMPDEST ISZERO JUMPDEST ISZERO PUSH2 0x1654 JUMPI DUP3 PUSH1 0x40 MLOAD PUSH32 0xA9FBF51F00000000000000000000000000000000000000000000000000000000 DUP2 MSTORE PUSH1 0x4 ADD PUSH2 0x164B SWAP2 SWAP1 PUSH2 0x1DC4 JUMP JUMPDEST PUSH1 0x40 MLOAD DUP1 SWAP2 SUB SWAP1 REVERT JUMPDEST DUP2 ISZERO PUSH2 0x16B6 JUMPI DUP4 DUP6 PUSH20 0xFFFFFFFFFFFFFFFFFFFFFFFFFFFFFFFFFFFFFFFF AND DUP3 PUSH20 0xFFFFFFFFFFFFFFFFFFFFFFFFFFFFFFFFFFFFFFFF AND PUSH32 0x8C5BE1E5EBEC7D5BD14F71427D1E84F3DD0314C0F7B2291E5B200AC8C7C3B925 PUSH1 0x40 MLOAD PUSH1 0x40 MLOAD DUP1 SWAP2 SUB SWAP1 LOG4 JUMPDEST POP JUMPDEST DUP4 PUSH1 0x4 PUSH0 DUP6 DUP2 MSTORE PUSH1 0x20 ADD SWAP1 DUP2 MSTORE PUSH1 0x20 ADD PUSH0 KECCAK256 PUSH0 PUSH2 0x100 EXP DUP2 SLOAD DUP2 PUSH20 0xFFFFFFFFFFFFFFFFFFFFFFFFFFFFFFFFFFFFFFFF MUL NOT AND SWAP1 DUP4 PUSH20 0xFFFFFFFFFFFFFFFFFFFFFFFFFFFFFFFFFFFFFFFF AND MUL OR SWAP1 SSTORE POP POP POP POP POP JUMP JUMPDEST PUSH2 0x1718 DUP4 DUP4 DUP4 PUSH2 0x18B5 JUMP JUMPDEST PUSH2 0x17CB JUMPI PUSH0 PUSH20 0xFFFFFFFFFFFFFFFFFFFFFFFFFFFFFFFFFFFFFFFF AND DUP4 PUSH20 0xFFFFFFFFFFFFFFFFFFFFFFFFFFFFFFFFFFFFFFFF AND SUB PUSH2 0x178C JUMPI DUP1 PUSH1 0x40 MLOAD PUSH32 0x7E27328900000000000000000000000000000000000000000000000000000000 DUP2 MSTORE PUSH1 0x4 ADD PUSH2 0x1783 SWAP2 SWAP1 PUSH2 0x1ECF JUMP JUMPDEST PUSH1 0x40 MLOAD DUP1 SWAP2 SUB SWAP1 REVERT JUMPDEST DUP2 DUP2 PUSH1 0x40 MLOAD PUSH32 0x177E802F00000000000000000000000000000000000000000000000000000000 DUP2 MSTORE PUSH1 0x4 ADD PUSH2 0x17C2 SWAP3 SWAP2 SWAP1 PUSH2 0x2877 JUMP JUMPDEST PUSH1 0x40 MLOAD DUP1 SWAP2 SUB SWAP1 REVERT JUMPDEST POP POP POP JUMP JUMPDEST PUSH1 0x60 PUSH0 PUSH1 0x1 PUSH2 0x17DE DUP5 PUSH2 0x1975 JUMP JUMPDEST ADD SWAP1 POP PUSH0 DUP2 PUSH8 0xFFFFFFFFFFFFFFFF DUP2 GT ISZERO PUSH2 0x17FC JUMPI PUSH2 0x17FB PUSH2 0x1F58 JUMP JUMPDEST JUMPDEST PUSH1 0x40 MLOAD SWAP1 DUP1 DUP3 MSTORE DUP1 PUSH1 0x1F ADD PUSH1 0x1F NOT AND PUSH1 0x20 ADD DUP3 ADD PUSH1 0x40 MSTORE DUP1 ISZERO PUSH2 0x182E JUMPI DUP2 PUSH1 0x20 ADD PUSH1 0x1 DUP3 MUL DUP1 CALLDATASIZE DUP4 CALLDATACOPY DUP1 DUP3 ADD SWAP2 POP POP SWAP1 POP JUMPDEST POP SWAP1 POP PUSH0 DUP3 PUSH1 0x20 ADD DUP3 ADD SWAP1 POP JUMPDEST PUSH1 0x1 ISZERO PUSH2 0x188F JUMPI DUP1 DUP1 PUSH1 0x1 SWAP1 SUB SWAP2 POP POP PUSH32 0x3031323334353637383961626364656600000000000000000000000000000000 PUSH1 0xA DUP7 MOD BYTE DUP2 MSTORE8 PUSH1 0xA DUP6 DUP2 PUSH2 0x1884 JUMPI PUSH2 0x1883 PUSH2 0x289E JUMP JUMPDEST JUMPDEST DIV SWAP5 POP PUSH0 DUP6 SUB PUSH2 0x183B JUMPI JUMPDEST DUP2 SWAP4 POP POP POP POP SWAP2 SWAP1 POP JUMP JUMPDEST PUSH2 0x18A4 DUP4 DUP4 PUSH2 0x1AC6 JUMP JUMPDEST PUSH2 0x18B0 PUSH0 DUP5 DUP5 DUP5 PUSH2 0x1207 JUMP JUMPDEST POP POP POP JUMP JUMPDEST PUSH0 DUP1 PUSH20 0xFFFFFFFFFFFFFFFFFFFFFFFFFFFFFFFFFFFFFFFF AND DUP4 PUSH20 0xFFFFFFFFFFFFFFFFFFFFFFFFFFFFFFFFFFFFFFFF AND EQ ISZERO DUP1 ISZERO PUSH2 0x196C JUMPI POP DUP3 PUSH20 0xFFFFFFFFFFFFFFFFFFFFFFFFFFFFFFFFFFFFFFFF AND DUP5 PUSH20 0xFFFFFFFFFFFFFFFFFFFFFFFFFFFFFFFFFFFFFFFF AND EQ DUP1 PUSH2 0x192D JUMPI POP PUSH2 0x192C DUP5 DUP5 PUSH2 0xA59 JUMP JUMPDEST JUMPDEST DUP1 PUSH2 0x196B JUMPI POP DUP3 PUSH20 0xFFFFFFFFFFFFFFFFFFFFFFFFFFFFFFFFFFFFFFFF AND PUSH2 0x1953 DUP4 PUSH2 0xCF7 JUMP JUMPDEST PUSH20 0xFFFFFFFFFFFFFFFFFFFFFFFFFFFFFFFFFFFFFFFF AND EQ JUMPDEST JUMPDEST SWAP1 POP SWAP4 SWAP3 POP POP POP JUMP JUMPDEST PUSH0 DUP1 PUSH0 SWAP1 POP PUSH27 0x184F03E93FF9F4DAA797ED6E38ED64BF6A1F010000000000000000 DUP4 LT PUSH2 0x19D1 JUMPI PUSH27 0x184F03E93FF9F4DAA797ED6E38ED64BF6A1F010000000000000000 DUP4 DUP2 PUSH2 0x19C7 JUMPI PUSH2 0x19C6 PUSH2 0x289E JUMP JUMPDEST JUMPDEST DIV SWAP3 POP PUSH1 0x40 DUP2 ADD SWAP1 POP JUMPDEST PUSH14 0x4EE2D6D415B85ACEF8100000000 DUP4 LT PUSH2 0x1A0E JUMPI PUSH14 0x4EE2D6D415B85ACEF8100000000 DUP4 DUP2 PUSH2 0x1A04 JUMPI PUSH2 0x1A03 PUSH2 0x289E JUMP JUMPDEST JUMPDEST DIV SWAP3 POP PUSH1 0x20 DUP2 ADD SWAP1 POP JUMPDEST PUSH7 0x2386F26FC10000 DUP4 LT PUSH2 0x1A3D JUMPI PUSH7 0x2386F26FC10000 DUP4 DUP2 PUSH2 0x1A33 JUMPI PUSH2 0x1A32 PUSH2 0x289E JUMP JUMPDEST JUMPDEST DIV SWAP3 POP PUSH1 0x10 DUP2 ADD SWAP1 POP JUMPDEST PUSH4 0x5F5E100 DUP4 LT PUSH2 0x1A66 JUMPI PUSH4 0x5F5E100 DUP4 DUP2 PUSH2 0x1A5C JUMPI PUSH2 0x1A5B PUSH2 0x289E JUMP JUMPDEST JUMPDEST DIV SWAP3 POP PUSH1 0x8 DUP2 ADD SWAP1 POP JUMPDEST PUSH2 0x2710 DUP4 LT PUSH2 0x1A8B JUMPI PUSH2 0x2710 DUP4 DUP2 PUSH2 0x1A81 JUMPI PUSH2 0x1A80 PUSH2 0x289E JUMP JUMPDEST JUMPDEST DIV SWAP3 POP PUSH1 0x4 DUP2 ADD SWAP1 POP JUMPDEST PUSH1 0x64 DUP4 LT PUSH2 0x1AAE JUMPI PUSH1 0x64 DUP4 DUP2 PUSH2 0x1AA4 JUMPI PUSH2 0x1AA3 PUSH2 0x289E JUMP JUMPDEST JUMPDEST DIV SWAP3 POP PUSH1 0x2 DUP2 ADD SWAP1 POP JUMPDEST PUSH1 0xA DUP4 LT PUSH2 0x1ABD JUMPI PUSH1 0x1 DUP2 ADD SWAP1 POP JUMPDEST DUP1 SWAP2 POP POP SWAP2 SWAP1 POP JUMP JUMPDEST PUSH0 PUSH20 0xFFFFFFFFFFFFFFFFFFFFFFFFFFFFFFFFFFFFFFFF AND DUP3 PUSH20 0xFFFFFFFFFFFFFFFFFFFFFFFFFFFFFFFFFFFFFFFF AND SUB PUSH2 0x1B36 JUMPI PUSH0 PUSH1 0x40 MLOAD PUSH32 0x64A0AE9200000000000000000000000000000000000000000000000000000000 DUP2 MSTORE PUSH1 0x4 ADD PUSH2 0x1B2D SWAP2 SWAP1 PUSH2 0x1DC4 JUMP JUMPDEST PUSH1 0x40 MLOAD DUP1 SWAP2 SUB SWAP1 REVERT JUMPDEST PUSH0 PUSH2 0x1B42 DUP4 DUP4 PUSH0 PUSH2 0xDD0 JUMP JUMPDEST SWAP1 POP PUSH0 PUSH20 0xFFFFFFFFFFFFFFFFFFFFFFFFFFFFFFFFFFFFFFFF AND DUP2 PUSH20 0xFFFFFFFFFFFFFFFFFFFFFFFFFFFFFFFFFFFFFFFF AND EQ PUSH2 0x1BB4 JUMPI PUSH0 PUSH1 0x40 MLOAD PUSH32 0x73C6AC6E00000000000000000000000000000000000000000000000000000000 DUP2 MSTORE PUSH1 0x4 ADD PUSH2 0x1BAB SWAP2 SWAP1 PUSH2 0x1DC4 JUMP JUMPDEST PUSH1 0x40 MLOAD DUP1 SWAP2 SUB SWAP1 REVERT JUMPDEST POP POP POP JUMP JUMPDEST PUSH0 PUSH1 0x40 MLOAD SWAP1 POP SWAP1 JUMP JUMPDEST PUSH0 DUP1 REVERT JUMPDEST PUSH0 DUP1 REVERT JUMPDEST PUSH0 PUSH32 0xFFFFFFFF00000000000000000000000000000000000000000000000000000000 DUP3 AND SWAP1 POP SWAP2 SWAP1 POP JUMP JUMPDEST PUSH2 0x1BFE DUP2 PUSH2 0x1BCA JUMP JUMPDEST DUP2 EQ PUSH2 0x1C08 JUMPI PUSH0 DUP1 REVERT JUMPDEST POP JUMP JUMPDEST PUSH0 DUP2 CALLDATALOAD SWAP1 POP PUSH2 0x1C19 DUP2 PUSH2 0x1BF5 JUMP JUMPDEST SWAP3 SWAP2 POP POP JUMP JUMPDEST PUSH0 PUSH1 0x20 DUP3 DUP5 SUB SLT ISZERO PUSH2 0x1C34 JUMPI PUSH2 0x1C33 PUSH2 0x1BC2 JUMP JUMPDEST JUMPDEST PUSH0 PUSH2 0x1C41 DUP5 DUP3 DUP6 ADD PUSH2 0x1C0B JUMP JUMPDEST SWAP2 POP POP SWAP3 SWAP2 POP POP JUMP JUMPDEST PUSH0 DUP2 ISZERO ISZERO SWAP1 POP SWAP2 SWAP1 POP JUMP JUMPDEST PUSH2 0x1C5E DUP2 PUSH2 0x1C4A JUMP JUMPDEST DUP3 MSTORE POP POP JUMP JUMPDEST PUSH0 PUSH1 0x20 DUP3 ADD SWAP1 POP PUSH2 0x1C77 PUSH0 DUP4 ADD DUP5 PUSH2 0x1C55 JUMP JUMPDEST SWAP3 SWAP2 POP POP JUMP JUMPDEST PUSH0 DUP2 MLOAD SWAP1 POP SWAP2 SWAP1 POP JUMP JUMPDEST PUSH0 DUP3 DUP3 MSTORE PUSH1 0x20 DUP3 ADD SWAP1 POP SWAP3 SWAP2 POP POP JUMP JUMPDEST PUSH0 JUMPDEST DUP4 DUP2 LT ISZERO PUSH2 0x1CB4 JUMPI DUP1 DUP3 ADD MLOAD DUP2 DUP5 ADD MSTORE PUSH1 0x20 DUP2 ADD SWAP1 POP PUSH2 0x1C99 JUMP JUMPDEST PUSH0 DUP5 DUP5 ADD MSTORE POP POP POP POP JUMP JUMPDEST PUSH0 PUSH1 0x1F NOT PUSH1 0x1F DUP4 ADD AND SWAP1 POP SWAP2 SWAP1 POP JUMP JUMPDEST PUSH0 PUSH2 0x1CD9 DUP3 PUSH2 0x1C7D JUMP JUMPDEST PUSH2 0x1CE3 DUP2 DUP6 PUSH2 0x1C87 JUMP JUMPDEST SWAP4 POP PUSH2 0x1CF3 DUP2 DUP6 PUSH1 0x20 DUP7 ADD PUSH2 0x1C97 JUMP JUMPDEST PUSH2 0x1CFC DUP2 PUSH2 0x1CBF JUMP JUMPDEST DUP5 ADD SWAP2 POP POP SWAP3 SWAP2 POP POP JUMP JUMPDEST PUSH0 PUSH1 0x20 DUP3 ADD SWAP1 POP DUP2 DUP2 SUB PUSH0 DUP4 ADD MSTORE PUSH2 0x1D1F DUP2 DUP5 PUSH2 0x1CCF JUMP JUMPDEST SWAP1 POP SWAP3 SWAP2 POP POP JUMP JUMPDEST PUSH0 DUP2 SWAP1 POP SWAP2 SWAP1 POP JUMP JUMPDEST PUSH2 0x1D39 DUP2 PUSH2 0x1D27 JUMP JUMPDEST DUP2 EQ PUSH2 0x1D43 JUMPI PUSH0 DUP1 REVERT JUMPDEST POP JUMP JUMPDEST PUSH0 DUP2 CALLDATALOAD SWAP1 POP PUSH2 0x1D54 DUP2 PUSH2 0x1D30 JUMP JUMPDEST SWAP3 SWAP2 POP POP JUMP JUMPDEST PUSH0 PUSH1 0x20 DUP3 DUP5 SUB SLT ISZERO PUSH2 0x1D6F JUMPI PUSH2 0x1D6E PUSH2 0x1BC2 JUMP JUMPDEST JUMPDEST PUSH0 PUSH2 0x1D7C DUP5 DUP3 DUP6 ADD PUSH2 0x1D46 JUMP JUMPDEST SWAP2 POP POP SWAP3 SWAP2 POP POP JUMP JUMPDEST PUSH0 PUSH20 0xFFFFFFFFFFFFFFFFFFFFFFFFFFFFFFFFFFFFFFFF DUP3 AND SWAP1 POP SWAP2 SWAP1 POP JUMP JUMPDEST PUSH0 PUSH2 0x1DAE DUP3 PUSH2 0x1D85 JUMP JUMPDEST SWAP1 POP SWAP2 SWAP1 POP JUMP JUMPDEST PUSH2 0x1DBE DUP2 PUSH2 0x1DA4 JUMP JUMPDEST DUP3 MSTORE POP POP JUMP JUMPDEST PUSH0 PUSH1 0x20 DUP3 ADD SWAP1 POP PUSH2 0x1DD7 PUSH0 DUP4 ADD DUP5 PUSH2 0x1DB5 JUMP JUMPDEST SWAP3 SWAP2 POP POP JUMP JUMPDEST PUSH2 0x1DE6 DUP2 PUSH2 0x1DA4 JUMP JUMPDEST DUP2 EQ PUSH2 0x1DF0 JUMPI PUSH0 DUP1 REVERT JUMPDEST POP JUMP JUMPDEST PUSH0 DUP2 CALLDATALOAD SWAP1 POP PUSH2 0x1E01 DUP2 PUSH2 0x1DDD JUMP JUMPDEST SWAP3 SWAP2 POP POP JUMP JUMPDEST PUSH0 DUP1 PUSH1 0x40 DUP4 DUP6 SUB SLT ISZERO PUSH2 0x1E1D JUMPI PUSH2 0x1E1C PUSH2 0x1BC2 JUMP JUMPDEST JUMPDEST PUSH0 PUSH2 0x1E2A DUP6 DUP3 DUP7 ADD PUSH2 0x1DF3 JUMP JUMPDEST SWAP3 POP POP PUSH1 0x20 PUSH2 0x1E3B DUP6 DUP3 DUP7 ADD PUSH2 0x1D46 JUMP JUMPDEST SWAP2 POP POP SWAP3 POP SWAP3 SWAP1 POP JUMP JUMPDEST PUSH0 PUSH1 0x20 DUP3 DUP5 SUB SLT ISZERO PUSH2 0x1E5A JUMPI PUSH2 0x1E59 PUSH2 0x1BC2 JUMP JUMPDEST JUMPDEST PUSH0 PUSH2 0x1E67 DUP5 DUP3 DUP6 ADD PUSH2 0x1DF3 JUMP JUMPDEST SWAP2 POP POP SWAP3 SWAP2 POP POP JUMP JUMPDEST PUSH0 DUP1 PUSH0 PUSH1 0x60 DUP5 DUP7 SUB SLT ISZERO PUSH2 0x1E87 JUMPI PUSH2 0x1E86 PUSH2 0x1BC2 JUMP JUMPDEST JUMPDEST PUSH0 PUSH2 0x1E94 DUP7 DUP3 DUP8 ADD PUSH2 0x1DF3 JUMP JUMPDEST SWAP4 POP POP PUSH1 0x20 PUSH2 0x1EA5 DUP7 DUP3 DUP8 ADD PUSH2 0x1DF3 JUMP JUMPDEST SWAP3 POP POP PUSH1 0x40 PUSH2 0x1EB6 DUP7 DUP3 DUP8 ADD PUSH2 0x1D46 JUMP JUMPDEST SWAP2 POP POP SWAP3 POP SWAP3 POP SWAP3 JUMP JUMPDEST PUSH2 0x1EC9 DUP2 PUSH2 0x1D27 JUMP JUMPDEST DUP3 MSTORE POP POP JUMP JUMPDEST PUSH0 PUSH1 0x20 DUP3 ADD SWAP1 POP PUSH2 0x1EE2 PUSH0 DUP4 ADD DUP5 PUSH2 0x1EC0 JUMP JUMPDEST SWAP3 SWAP2 POP POP JUMP JUMPDEST PUSH2 0x1EF1 DUP2 PUSH2 0x1C4A JUMP JUMPDEST DUP2 EQ PUSH2 0x1EFB JUMPI PUSH0 DUP1 REVERT JUMPDEST POP JUMP JUMPDEST PUSH0 DUP2 CALLDATALOAD SWAP1 POP PUSH2 0x1F0C DUP2 PUSH2 0x1EE8 JUMP JUMPDEST SWAP3 SWAP2 POP POP JUMP JUMPDEST PUSH0 DUP1 PUSH1 0x40 DUP4 DUP6 SUB SLT ISZERO PUSH2 0x1F28 JUMPI PUSH2 0x1F27 PUSH2 0x1BC2 JUMP JUMPDEST JUMPDEST PUSH0 PUSH2 0x1F35 DUP6 DUP3 DUP7 ADD PUSH2 0x1DF3 JUMP JUMPDEST SWAP3 POP POP PUSH1 0x20 PUSH2 0x1F46 DUP6 DUP3 DUP7 ADD PUSH2 0x1EFE JUMP JUMPDEST SWAP2 POP POP SWAP3 POP SWAP3 SWAP1 POP JUMP JUMPDEST PUSH0 DUP1 REVERT JUMPDEST PUSH0 DUP1 REVERT JUMPDEST PUSH32 0x4E487B7100000000000000000000000000000000000000000000000000000000 PUSH0 MSTORE PUSH1 0x41 PUSH1 0x4 MSTORE PUSH1 0x24 PUSH0 REVERT JUMPDEST PUSH2 0x1F8E DUP3 PUSH2 0x1CBF JUMP JUMPDEST DUP2 ADD DUP2 DUP2 LT PUSH8 0xFFFFFFFFFFFFFFFF DUP3 GT OR ISZERO PUSH2 0x1FAD JUMPI PUSH2 0x1FAC PUSH2 0x1F58 JUMP JUMPDEST JUMPDEST DUP1 PUSH1 0x40 MSTORE POP POP POP JUMP JUMPDEST PUSH0 PUSH2 0x1FBF PUSH2 0x1BB9 JUMP JUMPDEST SWAP1 POP PUSH2 0x1FCB DUP3 DUP3 PUSH2 0x1F85 JUMP JUMPDEST SWAP2 SWAP1 POP JUMP JUMPDEST PUSH0 PUSH8 0xFFFFFFFFFFFFFFFF DUP3 GT ISZERO PUSH2 0x1FEA JUMPI PUSH2 0x1FE9 PUSH2 0x1F58 JUMP JUMPDEST JUMPDEST PUSH2 0x1FF3 DUP3 PUSH2 0x1CBF JUMP JUMPDEST SWAP1 POP PUSH1 0x20 DUP2 ADD SWAP1 POP SWAP2 SWAP1 POP JUMP JUMPDEST DUP3 DUP2 DUP4 CALLDATACOPY PUSH0 DUP4 DUP4 ADD MSTORE POP POP POP JUMP JUMPDEST PUSH0 PUSH2 0x2020 PUSH2 0x201B DUP5 PUSH2 0x1FD0 JUMP JUMPDEST PUSH2 0x1FB6 JUMP JUMPDEST SWAP1 POP DUP3 DUP2 MSTORE PUSH1 0x20 DUP2 ADD DUP5 DUP5 DUP5 ADD GT ISZERO PUSH2 0x203C JUMPI PUSH2 0x203B PUSH2 0x1F54 JUMP JUMPDEST JUMPDEST PUSH2 0x2047 DUP5 DUP3 DUP6 PUSH2 0x2000 JUMP JUMPDEST POP SWAP4 SWAP3 POP POP POP JUMP JUMPDEST PUSH0 DUP3 PUSH1 0x1F DUP4 ADD SLT PUSH2 0x2063 JUMPI PUSH2 0x2062 PUSH2 0x1F50 JUMP JUMPDEST JUMPDEST DUP2 CALLDATALOAD PUSH2 0x2073 DUP5 DUP3 PUSH1 0x20 DUP7 ADD PUSH2 0x200E JUMP JUMPDEST SWAP2 POP POP SWAP3 SWAP2 POP POP JUMP JUMPDEST PUSH0 DUP1 PUSH0 DUP1 PUSH1 0x80 DUP6 DUP8 SUB SLT ISZERO PUSH2 0x2094 JUMPI PUSH2 0x2093 PUSH2 0x1BC2 JUMP JUMPDEST JUMPDEST PUSH0 PUSH2 0x20A1 DUP8 DUP3 DUP9 ADD PUSH2 0x1DF3 JUMP JUMPDEST SWAP5 POP POP PUSH1 0x20 PUSH2 0x20B2 DUP8 DUP3 DUP9 ADD PUSH2 0x1DF3 JUMP JUMPDEST SWAP4 POP POP PUSH1 0x40 PUSH2 0x20C3 DUP8 DUP3 DUP9 ADD PUSH2 0x1D46 JUMP JUMPDEST SWAP3 POP POP PUSH1 0x60 DUP6 ADD CALLDATALOAD PUSH8 0xFFFFFFFFFFFFFFFF DUP2 GT ISZERO PUSH2 0x20E4 JUMPI PUSH2 0x20E3 PUSH2 0x1BC6 JUMP JUMPDEST JUMPDEST PUSH2 0x20F0 DUP8 DUP3 DUP9 ADD PUSH2 0x204F JUMP JUMPDEST SWAP2 POP POP SWAP3 SWAP6 SWAP2 SWAP5 POP SWAP3 POP JUMP JUMPDEST PUSH0 PUSH8 0xFFFFFFFFFFFFFFFF DUP3 GT ISZERO PUSH2 0x2116 JUMPI PUSH2 0x2115 PUSH2 0x1F58 JUMP JUMPDEST JUMPDEST PUSH2 0x211F DUP3 PUSH2 0x1CBF JUMP JUMPDEST SWAP1 POP PUSH1 0x20 DUP2 ADD SWAP1 POP SWAP2 SWAP1 POP JUMP JUMPDEST PUSH0 PUSH2 0x213E PUSH2 0x2139 DUP5 PUSH2 0x20FC JUMP JUMPDEST PUSH2 0x1FB6 JUMP JUMPDEST SWAP1 POP DUP3 DUP2 MSTORE PUSH1 0x20 DUP2 ADD DUP5 DUP5 DUP5 ADD GT ISZERO PUSH2 0x215A JUMPI PUSH2 0x2159 PUSH2 0x1F54 JUMP JUMPDEST JUMPDEST PUSH2 0x2165 DUP5 DUP3 DUP6 PUSH2 0x2000 JUMP JUMPDEST POP SWAP4 SWAP3 POP POP POP JUMP JUMPDEST PUSH0 DUP3 PUSH1 0x1F DUP4 ADD SLT PUSH2 0x2181 JUMPI PUSH2 0x2180 PUSH2 0x1F50 JUMP JUMPDEST JUMPDEST DUP2 CALLDATALOAD PUSH2 0x2191 DUP5 DUP3 PUSH1 0x20 DUP7 ADD PUSH2 0x212C JUMP JUMPDEST SWAP2 POP POP SWAP3 SWAP2 POP POP JUMP JUMPDEST PUSH0 PUSH1 0x20 DUP3 DUP5 SUB SLT ISZERO PUSH2 0x21AF JUMPI PUSH2 0x21AE PUSH2 0x1BC2 JUMP JUMPDEST JUMPDEST PUSH0 DUP3 ADD CALLDATALOAD PUSH8 0xFFFFFFFFFFFFFFFF DUP2 GT ISZERO PUSH2 0x21CC JUMPI PUSH2 0x21CB PUSH2 0x1BC6 JUMP JUMPDEST JUMPDEST PUSH2 0x21D8 DUP5 DUP3 DUP6 ADD PUSH2 0x216D JUMP JUMPDEST SWAP2 POP POP SWAP3 SWAP2 POP POP JUMP JUMPDEST PUSH0 DUP1 PUSH1 0x40 DUP4 DUP6 SUB SLT ISZERO PUSH2 0x21F7 JUMPI PUSH2 0x21F6 PUSH2 0x1BC2 JUMP JUMPDEST JUMPDEST PUSH0 PUSH2 0x2204 DUP6 DUP3 DUP7 ADD PUSH2 0x1DF3 JUMP JUMPDEST SWAP3 POP POP PUSH1 0x20 PUSH2 0x2215 DUP6 DUP3 DUP7 ADD PUSH2 0x1DF3 JUMP JUMPDEST SWAP2 POP POP SWAP3 POP SWAP3 SWAP1 POP JUMP JUMPDEST PUSH0 DUP2 SWAP1 POP SWAP2 SWAP1 POP JUMP JUMPDEST PUSH0 PUSH2 0x2242 PUSH2 0x223D PUSH2 0x2238 DUP5 PUSH2 0x1D85 JUMP JUMPDEST PUSH2 0x221F JUMP JUMPDEST PUSH2 0x1D85 JUMP JUMPDEST SWAP1 POP SWAP2 SWAP1 POP JUMP JUMPDEST PUSH0 PUSH2 0x2253 DUP3 PUSH2 0x2228 JUMP JUMPDEST SWAP1 POP SWAP2 SWAP1 POP JUMP JUMPDEST PUSH0 PUSH2 0x2264 DUP3 PUSH2 0x2249 JUMP JUMPDEST SWAP1 POP SWAP2 SWAP1 POP JUMP JUMPDEST PUSH2 0x2274 DUP2 PUSH2 0x225A JUMP JUMPDEST DUP3 MSTORE POP POP JUMP JUMPDEST PUSH0 PUSH1 0x20 DUP3 ADD SWAP1 POP PUSH2 0x228D PUSH0 DUP4 ADD DUP5 PUSH2 0x226B JUMP JUMPDEST SWAP3 SWAP2 POP POP JUMP JUMPDEST PUSH32 0x4E487B7100000000000000000000000000000000000000000000000000000000 PUSH0 MSTORE PUSH1 0x22 PUSH1 0x4 MSTORE PUSH1 0x24 PUSH0 REVERT JUMPDEST PUSH0 PUSH1 0x2 DUP3 DIV SWAP1 POP PUSH1 0x1 DUP3 AND DUP1 PUSH2 0x22D7 JUMPI PUSH1 0x7F DUP3 AND SWAP2 POP JUMPDEST PUSH1 0x20 DUP3 LT DUP2 SUB PUSH2 0x22EA JUMPI PUSH2 0x22E9 PUSH2 0x2293 JUMP JUMPDEST JUMPDEST POP SWAP2 SWAP1 POP JUMP JUMPDEST PUSH0 PUSH1 0x60 DUP3 ADD SWAP1 POP PUSH2 0x2303 PUSH0 DUP4 ADD DUP7 PUSH2 0x1DB5 JUMP JUMPDEST PUSH2 0x2310 PUSH1 0x20 DUP4 ADD DUP6 PUSH2 0x1EC0 JUMP JUMPDEST PUSH2 0x231D PUSH1 0x40 DUP4 ADD DUP5 PUSH2 0x1DB5 JUMP JUMPDEST SWAP5 SWAP4 POP POP POP POP JUMP JUMPDEST PUSH0 DUP2 SWAP1 POP SWAP3 SWAP2 POP POP JUMP JUMPDEST PUSH0 PUSH2 0x2339 DUP3 PUSH2 0x1C7D JUMP JUMPDEST PUSH2 0x2343 DUP2 DUP6 PUSH2 0x2325 JUMP JUMPDEST SWAP4 POP PUSH2 0x2353 DUP2 DUP6 PUSH1 0x20 DUP7 ADD PUSH2 0x1C97 JUMP JUMPDEST DUP1 DUP5 ADD SWAP2 POP POP SWAP3 SWAP2 POP POP JUMP JUMPDEST PUSH0 PUSH2 0x236A DUP3 DUP6 PUSH2 0x232F JUMP JUMPDEST SWAP2 POP PUSH2 0x2376 DUP3 DUP5 PUSH2 0x232F JUMP JUMPDEST SWAP2 POP DUP2 SWAP1 POP SWAP4 SWAP3 POP POP POP JUMP JUMPDEST PUSH0 PUSH2 0x2394 PUSH2 0x238F DUP5 PUSH2 0x20FC JUMP JUMPDEST PUSH2 0x1FB6 JUMP JUMPDEST SWAP1 POP DUP3 DUP2 MSTORE PUSH1 0x20 DUP2 ADD DUP5 DUP5 DUP5 ADD GT ISZERO PUSH2 0x23B0 JUMPI PUSH2 0x23AF PUSH2 0x1F54 JUMP JUMPDEST JUMPDEST PUSH2 0x23BB DUP5 DUP3 DUP6 PUSH2 0x1C97 JUMP JUMPDEST POP SWAP4 SWAP3 POP POP POP JUMP JUMPDEST PUSH0 DUP3 PUSH1 0x1F DUP4 ADD SLT PUSH2 0x23D7 JUMPI PUSH2 0x23D6 PUSH2 0x1F50 JUMP JUMPDEST JUMPDEST DUP2 MLOAD PUSH2 0x23E7 DUP5 DUP3 PUSH1 0x20 DUP7 ADD PUSH2 0x2382 JUMP JUMPDEST SWAP2 POP POP SWAP3 SWAP2 POP POP JUMP JUMPDEST PUSH0 PUSH1 0x20 DUP3 DUP5 SUB SLT ISZERO PUSH2 0x2405 JUMPI PUSH2 0x2404 PUSH2 0x1BC2 JUMP JUMPDEST JUMPDEST PUSH0 DUP3 ADD MLOAD PUSH8 0xFFFFFFFFFFFFFFFF DUP2 GT ISZERO PUSH2 0x2422 JUMPI PUSH2 0x2421 PUSH2 0x1BC6 JUMP JUMPDEST JUMPDEST PUSH2 0x242E DUP5 DUP3 DUP6 ADD PUSH2 0x23C3 JUMP JUMPDEST SWAP2 POP POP SWAP3 SWAP2 POP POP JUMP JUMPDEST PUSH32 0x4F6E6C7920617574686F72697A656420737570706C696572732063616E206D69 PUSH0 DUP3 ADD MSTORE PUSH32 0x6E74207061636B616765642070726F64756374204E4654000000000000000000 PUSH1 0x20 DUP3 ADD MSTORE POP JUMP JUMPDEST PUSH0 PUSH2 0x2491 PUSH1 0x37 DUP4 PUSH2 0x1C87 JUMP JUMPDEST SWAP2 POP PUSH2 0x249C DUP3 PUSH2 0x2437 JUMP JUMPDEST PUSH1 0x40 DUP3 ADD SWAP1 POP SWAP2 SWAP1 POP JUMP JUMPDEST PUSH0 PUSH1 0x20 DUP3 ADD SWAP1 POP DUP2 DUP2 SUB PUSH0 DUP4 ADD MSTORE PUSH2 0x24BE DUP2 PUSH2 0x2485 JUMP JUMPDEST SWAP1 POP SWAP2 SWAP1 POP JUMP JUMPDEST PUSH32 0x4E487B7100000000000000000000000000000000000000000000000000000000 PUSH0 MSTORE PUSH1 0x11 PUSH1 0x4 MSTORE PUSH1 0x24 PUSH0 REVERT JUMPDEST PUSH0 PUSH2 0x24FC DUP3 PUSH2 0x1D27 JUMP JUMPDEST SWAP2 POP PUSH32 0xFFFFFFFFFFFFFFFFFFFFFFFFFFFFFFFFFFFFFFFFFFFFFFFFFFFFFFFFFFFFFFFF DUP3 SUB PUSH2 0x252E JUMPI PUSH2 0x252D PUSH2 0x24C5 JUMP JUMPDEST JUMPDEST PUSH1 0x1 DUP3 ADD SWAP1 POP SWAP2 SWAP1 POP JUMP JUMPDEST PUSH0 DUP2 MLOAD SWAP1 POP SWAP2 SWAP1 POP JUMP JUMPDEST PUSH0 DUP3 DUP3 MSTORE PUSH1 0x20 DUP3 ADD SWAP1 POP SWAP3 SWAP2 POP POP JUMP JUMPDEST PUSH0 PUSH2 0x255D DUP3 PUSH2 0x2539 JUMP JUMPDEST PUSH2 0x2567 DUP2 DUP6 PUSH2 0x2543 JUMP JUMPDEST SWAP4 POP PUSH2 0x2577 DUP2 DUP6 PUSH1 0x20 DUP7 ADD PUSH2 0x1C97 JUMP JUMPDEST PUSH2 0x2580 DUP2 PUSH2 0x1CBF JUMP JUMPDEST DUP5 ADD SWAP2 POP POP SWAP3 SWAP2 POP POP JUMP JUMPDEST PUSH0 PUSH1 0x80 DUP3 ADD SWAP1 POP PUSH2 0x259E PUSH0 DUP4 ADD DUP8 PUSH2 0x1DB5 JUMP JUMPDEST PUSH2 0x25AB PUSH1 0x20 DUP4 ADD DUP7 PUSH2 0x1DB5 JUMP JUMPDEST PUSH2 0x25B8 PUSH1 0x40 DUP4 ADD DUP6 PUSH2 0x1EC0 JUMP JUMPDEST DUP2 DUP2 SUB PUSH1 0x60 DUP4 ADD MSTORE PUSH2 0x25CA DUP2 DUP5 PUSH2 0x2553 JUMP JUMPDEST SWAP1 POP SWAP6 SWAP5 POP POP POP POP POP JUMP JUMPDEST PUSH0 DUP2 MLOAD SWAP1 POP PUSH2 0x25E3 DUP2 PUSH2 0x1BF5 JUMP JUMPDEST SWAP3 SWAP2 POP POP JUMP JUMPDEST PUSH0 PUSH1 0x20 DUP3 DUP5 SUB SLT ISZERO PUSH2 0x25FE JUMPI PUSH2 0x25FD PUSH2 0x1BC2 JUMP JUMPDEST JUMPDEST PUSH0 PUSH2 0x260B DUP5 DUP3 DUP6 ADD PUSH2 0x25D5 JUMP JUMPDEST SWAP2 POP POP SWAP3 SWAP2 POP POP JUMP JUMPDEST PUSH0 DUP2 SWAP1 POP DUP2 PUSH0 MSTORE PUSH1 0x20 PUSH0 KECCAK256 SWAP1 POP SWAP2 SWAP1 POP JUMP JUMPDEST PUSH0 PUSH1 0x20 PUSH1 0x1F DUP4 ADD DIV SWAP1 POP SWAP2 SWAP1 POP JUMP JUMPDEST PUSH0 DUP3 DUP3 SHL SWAP1 POP SWAP3 SWAP2 POP POP JUMP JUMPDEST PUSH0 PUSH1 0x8 DUP4 MUL PUSH2 0x2670 PUSH32 0xFFFFFFFFFFFFFFFFFFFFFFFFFFFFFFFFFFFFFFFFFFFFFFFFFFFFFFFFFFFFFFFF DUP3 PUSH2 0x2635 JUMP JUMPDEST PUSH2 0x267A DUP7 DUP4 PUSH2 0x2635 JUMP JUMPDEST SWAP6 POP DUP1 NOT DUP5 AND SWAP4 POP DUP1 DUP7 AND DUP5 OR SWAP3 POP POP POP SWAP4 SWAP3 POP POP POP JUMP JUMPDEST PUSH0 PUSH2 0x26AC PUSH2 0x26A7 PUSH2 0x26A2 DUP5 PUSH2 0x1D27 JUMP JUMPDEST PUSH2 0x221F JUMP JUMPDEST PUSH2 0x1D27 JUMP JUMPDEST SWAP1 POP SWAP2 SWAP1 POP JUMP JUMPDEST PUSH0 DUP2 SWAP1 POP SWAP2 SWAP1 POP JUMP JUMPDEST PUSH2 0x26C5 DUP4 PUSH2 0x2692 JUMP JUMPDEST PUSH2 0x26D9 PUSH2 0x26D1 DUP3 PUSH2 0x26B3 JUMP JUMPDEST DUP5 DUP5 SLOAD PUSH2 0x2641 JUMP JUMPDEST DUP3 SSTORE POP POP POP POP JUMP JUMPDEST PUSH0 SWAP1 JUMP JUMPDEST PUSH2 0x26ED PUSH2 0x26E1 JUMP JUMPDEST PUSH2 0x26F8 DUP2 DUP5 DUP5 PUSH2 0x26BC JUMP JUMPDEST POP POP POP JUMP JUMPDEST JUMPDEST DUP2 DUP2 LT ISZERO PUSH2 0x271B JUMPI PUSH2 0x2710 PUSH0 DUP3 PUSH2 0x26E5 JUMP JUMPDEST PUSH1 0x1 DUP2 ADD SWAP1 POP PUSH2 0x26FE JUMP JUMPDEST POP POP JUMP JUMPDEST PUSH1 0x1F DUP3 GT ISZERO PUSH2 0x2760 JUMPI PUSH2 0x2731 DUP2 PUSH2 0x2614 JUMP JUMPDEST PUSH2 0x273A DUP5 PUSH2 0x2626 JUMP JUMPDEST DUP2 ADD PUSH1 0x20 DUP6 LT ISZERO PUSH2 0x2749 JUMPI DUP2 SWAP1 POP JUMPDEST PUSH2 0x275D PUSH2 0x2755 DUP6 PUSH2 0x2626 JUMP JUMPDEST DUP4 ADD DUP3 PUSH2 0x26FD JUMP JUMPDEST POP POP JUMPDEST POP POP POP JUMP JUMPDEST PUSH0 DUP3 DUP3 SHR SWAP1 POP SWAP3 SWAP2 POP POP JUMP JUMPDEST PUSH0 PUSH2 0x2780 PUSH0 NOT DUP5 PUSH1 0x8 MUL PUSH2 0x2765 JUMP JUMPDEST NOT DUP1 DUP4 AND SWAP2 POP POP SWAP3 SWAP2 POP POP JUMP JUMPDEST PUSH0 PUSH2 0x2798 DUP4 DUP4 PUSH2 0x2771 JUMP JUMPDEST SWAP2 POP DUP3 PUSH1 0x2 MUL DUP3 OR SWAP1 POP SWAP3 SWAP2 POP POP JUMP JUMPDEST PUSH2 0x27B1 DUP3 PUSH2 0x1C7D JUMP JUMPDEST PUSH8 0xFFFFFFFFFFFFFFFF DUP2 GT ISZERO PUSH2 0x27CA JUMPI PUSH2 0x27C9 PUSH2 0x1F58 JUMP JUMPDEST JUMPDEST PUSH2 0x27D4 DUP3 SLOAD PUSH2 0x22C0 JUMP JUMPDEST PUSH2 0x27DF DUP3 DUP3 DUP6 PUSH2 0x271F JUMP JUMPDEST PUSH0 PUSH1 0x20 SWAP1 POP PUSH1 0x1F DUP4 GT PUSH1 0x1 DUP2 EQ PUSH2 0x2810 JUMPI PUSH0 DUP5 ISZERO PUSH2 0x27FE JUMPI DUP3 DUP8 ADD MLOAD SWAP1 POP JUMPDEST PUSH2 0x2808 DUP6 DUP3 PUSH2 0x278D JUMP JUMPDEST DUP7 SSTORE POP PUSH2 0x286F JUMP JUMPDEST PUSH1 0x1F NOT DUP5 AND PUSH2 0x281E DUP7 PUSH2 0x2614 JUMP JUMPDEST PUSH0 JUMPDEST DUP3 DUP2 LT ISZERO PUSH2 0x2845 JUMPI DUP5 DUP10 ADD MLOAD DUP3 SSTORE PUSH1 0x1 DUP3 ADD SWAP2 POP PUSH1 0x20 DUP6 ADD SWAP5 POP PUSH1 0x20 DUP2 ADD SWAP1 POP PUSH2 0x2820 JUMP JUMPDEST DUP7 DUP4 LT ISZERO PUSH2 0x2862 JUMPI DUP5 DUP10 ADD MLOAD PUSH2 0x285E PUSH1 0x1F DUP10 AND DUP3 PUSH2 0x2771 JUMP JUMPDEST DUP4 SSTORE POP JUMPDEST PUSH1 0x1 PUSH1 0x2 DUP9 MUL ADD DUP9 SSTORE POP POP POP JUMPDEST POP POP POP POP POP POP JUMP JUMPDEST PUSH0 PUSH1 0x40 DUP3 ADD SWAP1 POP PUSH2 0x288A PUSH0 DUP4 ADD DUP6 PUSH2 0x1DB5 JUMP JUMPDEST PUSH2 0x2897 PUSH1 0x20 DUP4 ADD DUP5 PUSH2 0x1EC0 JUMP JUMPDEST SWAP4 SWAP3 POP POP POP JUMP JUMPDEST PUSH32 0x4E487B7100000000000000000000000000000000000000000000000000000000 PUSH0 MSTORE PUSH1 0x12 PUSH1 0x4 MSTORE PUSH1 0x24 PUSH0 REVERT INVALID LOG2 PUSH5 0x6970667358 0x22 SLT KECCAK256 0xD6 CALLDATALOAD NUMBER XOR 0xD3 0xBD MUL RETURNDATASIZE 0xA9 LT PUSH27 0xB49D88542EE7E1547771ED2FD2A6C4D5ACCE439E64736F6C6343 STOP ADDMOD AND STOP CALLER "
				},
				"gasEstimates": {
					"creation": {
						"codeDepositCost": "2099400",
						"executionCost": "infinite",
						"totalCost": "infinite"
					},
					"external": {
						"SetTradeManagementSC(address)": "infinite",
						"TradeManagement()": "infinite",
						"approve(address,uint256)": "infinite",
						"balanceOf(address)": "infinite",
						"getApproved(uint256)": "infinite",
						"isApprovedForAll(address,address)": "infinite",
						"mint(string)": "infinite",
						"name()": "infinite",
						"owner()": "2538",
						"ownerOf(uint256)": "infinite",
						"renounceOwnership()": "infinite",
						"safeTransferFrom(address,address,uint256)": "infinite",
						"safeTransferFrom(address,address,uint256,bytes)": "infinite",
						"setApprovalForAll(address,bool)": "infinite",
						"supportsInterface(bytes4)": "881",
						"symbol()": "infinite",
						"tokenCount()": "2492",
						"tokenURI(uint256)": "infinite",
						"transferFrom(address,address,uint256)": "infinite",
						"transferOwnership(address)": "infinite"
					}
				},
				"methodIdentifiers": {
					"SetTradeManagementSC(address)": "0fffc4cf",
					"TradeManagement()": "f0f9ee46",
					"approve(address,uint256)": "095ea7b3",
					"balanceOf(address)": "70a08231",
					"getApproved(uint256)": "081812fc",
					"isApprovedForAll(address,address)": "e985e9c5",
					"mint(string)": "d85d3d27",
					"name()": "06fdde03",
					"owner()": "8da5cb5b",
					"ownerOf(uint256)": "6352211e",
					"renounceOwnership()": "715018a6",
					"safeTransferFrom(address,address,uint256)": "42842e0e",
					"safeTransferFrom(address,address,uint256,bytes)": "b88d4fde",
					"setApprovalForAll(address,bool)": "a22cb465",
					"supportsInterface(bytes4)": "01ffc9a7",
					"symbol()": "95d89b41",
					"tokenCount()": "9f181b5e",
					"tokenURI(uint256)": "c87b56dd",
					"transferFrom(address,address,uint256)": "23b872dd",
					"transferOwnership(address)": "f2fde38b"
				}
			},
			"storageLayout": {
				"storage": [
					{
						"astId": 349,
						"contract": "mainnet/0x8a90CAb2b38dba80c64b7734e58Ee1dB38B8992e/contracts/RawMaterials.sol:RawMaterials",
						"label": "_name",
						"offset": 0,
						"slot": "0",
						"type": "t_string_storage"
					},
					{
						"astId": 351,
						"contract": "mainnet/0x8a90CAb2b38dba80c64b7734e58Ee1dB38B8992e/contracts/RawMaterials.sol:RawMaterials",
						"label": "_symbol",
						"offset": 0,
						"slot": "1",
						"type": "t_string_storage"
					},
					{
						"astId": 355,
						"contract": "mainnet/0x8a90CAb2b38dba80c64b7734e58Ee1dB38B8992e/contracts/RawMaterials.sol:RawMaterials",
						"label": "_owners",
						"offset": 0,
						"slot": "2",
						"type": "t_mapping(t_uint256,t_address)"
					},
					{
						"astId": 359,
						"contract": "mainnet/0x8a90CAb2b38dba80c64b7734e58Ee1dB38B8992e/contracts/RawMaterials.sol:RawMaterials",
						"label": "_balances",
						"offset": 0,
						"slot": "3",
						"type": "t_mapping(t_address,t_uint256)"
					},
					{
						"astId": 363,
						"contract": "mainnet/0x8a90CAb2b38dba80c64b7734e58Ee1dB38B8992e/contracts/RawMaterials.sol:RawMaterials",
						"label": "_tokenApprovals",
						"offset": 0,
						"slot": "4",
						"type": "t_mapping(t_uint256,t_address)"
					},
					{
						"astId": 369,
						"contract": "mainnet/0x8a90CAb2b38dba80c64b7734e58Ee1dB38B8992e/contracts/RawMaterials.sol:RawMaterials",
						"label": "_operatorApprovals",
						"offset": 0,
						"slot": "5",
						"type": "t_mapping(t_address,t_mapping(t_address,t_bool))"
					},
					{
						"astId": 1517,
						"contract": "mainnet/0x8a90CAb2b38dba80c64b7734e58Ee1dB38B8992e/contracts/RawMaterials.sol:RawMaterials",
						"label": "_tokenURIs",
						"offset": 0,
						"slot": "6",
						"type": "t_mapping(t_uint256,t_string_storage)"
					},
					{
						"astId": 8,
						"contract": "mainnet/0x8a90CAb2b38dba80c64b7734e58Ee1dB38B8992e/contracts/RawMaterials.sol:RawMaterials",
						"label": "_owner",
						"offset": 0,
						"slot": "7",
						"type": "t_address"
					},
					{
						"astId": 3143,
						"contract": "mainnet/0x8a90CAb2b38dba80c64b7734e58Ee1dB38B8992e/contracts/RawMaterials.sol:RawMaterials",
						"label": "tokenCount",
						"offset": 0,
						"slot": "8",
						"type": "t_uint256"
					},
					{
						"astId": 3146,
						"contract": "mainnet/0x8a90CAb2b38dba80c64b7734e58Ee1dB38B8992e/contracts/RawMaterials.sol:RawMaterials",
						"label": "TradeManagement",
						"offset": 0,
						"slot": "9",
						"type": "t_contract(ITradeManagementRawMaterials)3137"
					}
				],
				"types": {
					"t_address": {
						"encoding": "inplace",
						"label": "address",
						"numberOfBytes": "20"
					},
					"t_bool": {
						"encoding": "inplace",
						"label": "bool",
						"numberOfBytes": "1"
					},
					"t_contract(ITradeManagementRawMaterials)3137": {
						"encoding": "inplace",
						"label": "contract ITradeManagementRawMaterials",
						"numberOfBytes": "20"
					},
					"t_mapping(t_address,t_bool)": {
						"encoding": "mapping",
						"key": "t_address",
						"label": "mapping(address => bool)",
						"numberOfBytes": "32",
						"value": "t_bool"
					},
					"t_mapping(t_address,t_mapping(t_address,t_bool))": {
						"encoding": "mapping",
						"key": "t_address",
						"label": "mapping(address => mapping(address => bool))",
						"numberOfBytes": "32",
						"value": "t_mapping(t_address,t_bool)"
					},
					"t_mapping(t_address,t_uint256)": {
						"encoding": "mapping",
						"key": "t_address",
						"label": "mapping(address => uint256)",
						"numberOfBytes": "32",
						"value": "t_uint256"
					},
					"t_mapping(t_uint256,t_address)": {
						"encoding": "mapping",
						"key": "t_uint256",
						"label": "mapping(uint256 => address)",
						"numberOfBytes": "32",
						"value": "t_address"
					},
					"t_mapping(t_uint256,t_string_storage)": {
						"encoding": "mapping",
						"key": "t_uint256",
						"label": "mapping(uint256 => string)",
						"numberOfBytes": "32",
						"value": "t_string_storage"
					},
					"t_string_storage": {
						"encoding": "bytes",
						"label": "string",
						"numberOfBytes": "32"
					},
					"t_uint256": {
						"encoding": "inplace",
						"label": "uint256",
						"numberOfBytes": "32"
					}
				}
			},
			"userdoc": {
				"kind": "user",
				"methods": {},
				"version": 1
			}
		}
	}
}