{
	"data": {
		"bytecode": {
			"linkReferences": {},
			"object": "608060405234801562000010575f80fd5b50336040518060400160405280601081526020017f5061636b6167656450726f6475637473000000000000000000000000000000008152506040518060400160405280600281526020017f5050000000000000000000000000000000000000000000000000000000000000815250815f90816200008e919062000455565b508060019081620000a0919062000455565b5050505f73ffffffffffffffffffffffffffffffffffffffff168173ffffffffffffffffffffffffffffffffffffffff160362000116575f6040517f1e4fbdf70000000000000000000000000000000000000000000000000000000081526004016200010d91906200057c565b60405180910390fd5b62000127816200012e60201b60201c565b5062000597565b5f600b5f9054906101000a900473ffffffffffffffffffffffffffffffffffffffff16905081600b5f6101000a81548173ffffffffffffffffffffffffffffffffffffffff021916908373ffffffffffffffffffffffffffffffffffffffff1602179055508173ffffffffffffffffffffffffffffffffffffffff168173ffffffffffffffffffffffffffffffffffffffff167f8be0079c531659141344cd1fd0a4f28419497f9722a3daafe3b4186f6b6457e060405160405180910390a35050565b5f81519050919050565b7f4e487b71000000000000000000000000000000000000000000000000000000005f52604160045260245ffd5b7f4e487b71000000000000000000000000000000000000000000000000000000005f52602260045260245ffd5b5f60028204905060018216806200026d57607f821691505b60208210810362000283576200028262000228565b5b50919050565b5f819050815f5260205f209050919050565b5f6020601f8301049050919050565b5f82821b905092915050565b5f60088302620002e77fffffffffffffffffffffffffffffffffffffffffffffffffffffffffffffffff82620002aa565b620002f38683620002aa565b95508019841693508086168417925050509392505050565b5f819050919050565b5f819050919050565b5f6200033d6200033762000331846200030b565b62000314565b6200030b565b9050919050565b5f819050919050565b62000358836200031d565b62000370620003678262000344565b848454620002b6565b825550505050565b5f90565b6200038662000378565b620003938184846200034d565b505050565b5b81811015620003ba57620003ae5f826200037c565b60018101905062000399565b5050565b601f8211156200040957620003d38162000289565b620003de846200029b565b81016020851015620003ee578190505b62000406620003fd856200029b565b83018262000398565b50505b505050565b5f82821c905092915050565b5f6200042b5f19846008026200040e565b1980831691505092915050565b5f6200044583836200041a565b9150826002028217905092915050565b6200046082620001f1565b67ffffffffffffffff8111156200047c576200047b620001fb565b5b62000488825462000255565b62000495828285620003be565b5f60209050601f831160018114620004cb575f8415620004b6578287015190505b620004c2858262000438565b86555062000531565b601f198416620004db8662000289565b5f5b828110156200050457848901518255600182019150602085019450602081019050620004dd565b8683101562000524578489015162000520601f8916826200041a565b8355505b6001600288020188555050505b505050505050565b5f73ffffffffffffffffffffffffffffffffffffffff82169050919050565b5f620005648262000539565b9050919050565b620005768162000558565b82525050565b5f602082019050620005915f8301846200056b565b92915050565b6137b280620005a55f395ff3fe60806040526004361061014a575f3560e01c80636352211e116100b5578063a22cb4651161006e578063a22cb46514610490578063b88d4fde146104b8578063c87b56dd146104e0578063e6a139401461051c578063e985e9c51461054c578063f2fde38b146105885761014a565b80636352211e1461038457806370a08231146103c0578063715018a6146103fc5780638da5cb5b1461041257806395d89b411461043c5780639909c507146104665761014a565b80631af716ba116101075780631af716ba1461026a57806323b872dd146102925780632f745c59146102ba57806338cc4831146102f657806342842e0e146103205780634f6ccce7146103485761014a565b806301ffc9a71461014e57806306fdde031461018a578063081812fc146101b4578063095ea7b3146101f05780630fffc4cf1461021857806318160ddd14610240575b5f80fd5b348015610159575f80fd5b50610174600480360381019061016f9190612701565b6105b0565b6040516101819190612746565b60405180910390f35b348015610195575f80fd5b5061019e6105c1565b6040516101ab91906127e9565b60405180910390f35b3480156101bf575f80fd5b506101da60048036038101906101d5919061283c565b610650565b6040516101e791906128a6565b60405180910390f35b3480156101fb575f80fd5b50610216600480360381019061021191906128e9565b61066b565b005b348015610223575f80fd5b5061023e60048036038101906102399190612927565b610681565b005b34801561024b575f80fd5b506102546106c4565b6040516102619190612961565b60405180910390f35b348015610275575f80fd5b50610290600480360381019061028b9190612aa6565b6106d0565b005b34801561029d575f80fd5b506102b860048036038101906102b39190612b26565b610764565b005b3480156102c5575f80fd5b506102e060048036038101906102db91906128e9565b610863565b6040516102ed9190612961565b60405180910390f35b348015610301575f80fd5b5061030a610907565b60405161031791906128a6565b60405180910390f35b34801561032b575f80fd5b5061034660048036038101906103419190612b26565b61090e565b005b348015610353575f80fd5b5061036e6004803603810190610369919061283c565b61092d565b60405161037b9190612961565b60405180910390f35b34801561038f575f80fd5b506103aa60048036038101906103a5919061283c565b61099f565b6040516103b791906128a6565b60405180910390f35b3480156103cb575f80fd5b506103e660048036038101906103e19190612927565b6109b0565b6040516103f39190612961565b60405180910390f35b348015610407575f80fd5b50610410610a66565b005b34801561041d575f80fd5b50610426610a79565b60405161043391906128a6565b60405180910390f35b348015610447575f80fd5b50610450610aa1565b60405161045d91906127e9565b60405180910390f35b348015610471575f80fd5b5061047a610b31565b6040516104879190612bd1565b60405180910390f35b34801561049b575f80fd5b506104b660048036038101906104b19190612c14565b610b56565b005b3480156104c3575f80fd5b506104de60048036038101906104d99190612cf0565b610b6c565b005b3480156104eb575f80fd5b506105066004803603810190610501919061283c565b610b89565b60405161051391906127e9565b60405180910390f35b61053660048036038101906105319190612e34565b610b9b565b6040516105439190612fa3565b60405180910390f35b348015610557575f80fd5b50610572600480360381019061056d9190612fc3565b610e99565b60405161057f9190612746565b60405180910390f35b348015610593575f80fd5b506105ae60048036038101906105a99190612927565b610f27565b005b5f6105ba82610fab565b9050919050565b60605f80546105cf9061302e565b80601f01602080910402602001604051908101604052809291908181526020018280546105fb9061302e565b80156106465780601f1061061d57610100808354040283529160200191610646565b820191905f5260205f20905b81548152906001019060200180831161062957829003601f168201915b5050505050905090565b5f61065a82611024565b50610664826110aa565b9050919050565b61067d82826106786110e3565b6110ea565b5050565b80600c5f6101000a81548173ffffffffffffffffffffffffffffffffffffffff021916908373ffffffffffffffffffffffffffffffffffffffff16021790555050565b5f600980549050905090565b816106da8161099f565b73ffffffffffffffffffffffffffffffffffffffff163373ffffffffffffffffffffffffffffffffffffffff1614610747576040517f08c379a000000000000000000000000000000000000000000000000000000000815260040161073e906130a8565b60405180910390fd5b6107528484846110fc565b61075d858585610764565b5050505050565b5f73ffffffffffffffffffffffffffffffffffffffff168273ffffffffffffffffffffffffffffffffffffffff16036107d4575f6040517f64a0ae920000000000000000000000000000000000000000000000000000000081526004016107cb91906128a6565b60405180910390fd5b5f6107e783836107e26110e3565b6111de565b90508373ffffffffffffffffffffffffffffffffffffffff168173ffffffffffffffffffffffffffffffffffffffff161461085d578382826040517f64283d7b000000000000000000000000000000000000000000000000000000008152600401610854939291906130c6565b60405180910390fd5b50505050565b5f61086d836109b0565b82106108b25782826040517fa57d13dc0000000000000000000000000000000000000000000000000000000081526004016108a99291906130fb565b60405180910390fd5b60075f8473ffffffffffffffffffffffffffffffffffffffff1673ffffffffffffffffffffffffffffffffffffffff1681526020019081526020015f205f8381526020019081526020015f2054905092915050565b5f30905090565b61092883838360405180602001604052805f815250610b6c565b505050565b5f6109366106c4565b821061097b575f826040517fa57d13dc0000000000000000000000000000000000000000000000000000000081526004016109729291906130fb565b60405180910390fd5b6009828154811061098f5761098e613122565b5b905f5260205f2001549050919050565b5f6109a982611024565b9050919050565b5f8073ffffffffffffffffffffffffffffffffffffffff168273ffffffffffffffffffffffffffffffffffffffff1603610a21575f6040517f89c62b64000000000000000000000000000000000000000000000000000000008152600401610a1891906128a6565b60405180910390fd5b60035f8373ffffffffffffffffffffffffffffffffffffffff1673ffffffffffffffffffffffffffffffffffffffff1681526020019081526020015f20549050919050565b610a6e6111f3565b610a775f61127a565b565b5f600b5f9054906101000a900473ffffffffffffffffffffffffffffffffffffffff16905090565b606060018054610ab09061302e565b80601f0160208091040260200160405190810160405280929190818152602001828054610adc9061302e565b8015610b275780601f10610afe57610100808354040283529160200191610b27565b820191905f5260205f20905b815481529060010190602001808311610b0a57829003601f168201915b5050505050905090565b600c5f9054906101000a900473ffffffffffffffffffffffffffffffffffffffff1681565b610b68610b616110e3565b838361133d565b5050565b610b77848484610764565b610b83848484846114a6565b50505050565b6060610b9482611658565b9050919050565b6060600c5f9054906101000a900473ffffffffffffffffffffffffffffffffffffffff1673ffffffffffffffffffffffffffffffffffffffff16632df10a68336040518263ffffffff1660e01b8152600401610bf791906128a6565b5f6040518083038186803b158015610c0d575f80fd5b505afa158015610c1f573d5f803e3d5ffd5b505050505f610c2c6106c4565b9050600c5f9054906101000a900473ffffffffffffffffffffffffffffffffffffffff1673ffffffffffffffffffffffffffffffffffffffff166312646a4233866040518363ffffffff1660e01b8152600401610c8a92919061314f565b5f6040518083038186803b158015610ca0575f80fd5b505afa158015610cb2573d5f803e3d5ffd5b50505050600c5f9054906101000a900473ffffffffffffffffffffffffffffffffffffffff1673ffffffffffffffffffffffffffffffffffffffff16630b2ed7378786866040518463ffffffff1660e01b8152600401610d149392919061317d565b5f6040518083038186803b158015610d2a575f80fd5b505afa158015610d3c573d5f803e3d5ffd5b505050508567ffffffffffffffff811115610d5a57610d59612982565b5b604051908082528060200260200182016040528015610d885781602001602082028036833780820191505090505b5091505f5b86811015610e8f57610daa8183610da491906131ed565b87611763565b610dbf338284610dba91906131ed565b6117bd565b600c5f9054906101000a900473ffffffffffffffffffffffffffffffffffffffff1673ffffffffffffffffffffffffffffffffffffffff166327f206fb338385610e0991906131ed565b88886040518563ffffffff1660e01b8152600401610e2a9493929190613220565b5f604051808303815f87803b158015610e41575f80fd5b505af1158015610e53573d5f803e3d5ffd5b505050508082610e6391906131ed565b838281518110610e7657610e75613122565b5b6020026020010181815250508080600101915050610d8d565b5050949350505050565b5f60055f8473ffffffffffffffffffffffffffffffffffffffff1673ffffffffffffffffffffffffffffffffffffffff1681526020019081526020015f205f8373ffffffffffffffffffffffffffffffffffffffff1673ffffffffffffffffffffffffffffffffffffffff1681526020019081526020015f205f9054906101000a900460ff16905092915050565b610f2f6111f3565b5f73ffffffffffffffffffffffffffffffffffffffff168173ffffffffffffffffffffffffffffffffffffffff1603610f9f575f6040517f1e4fbdf7000000000000000000000000000000000000000000000000000000008152600401610f9691906128a6565b60405180910390fd5b610fa88161127a565b50565b5f7f780e9d63000000000000000000000000000000000000000000000000000000007bffffffffffffffffffffffffffffffffffffffffffffffffffffffff1916827bffffffffffffffffffffffffffffffffffffffffffffffffffffffff1916148061101d575061101c826117da565b5b9050919050565b5f8061102f8361183a565b90505f73ffffffffffffffffffffffffffffffffffffffff168173ffffffffffffffffffffffffffffffffffffffff16036110a157826040517f7e2732890000000000000000000000000000000000000000000000000000000081526004016110989190612961565b60405180910390fd5b80915050919050565b5f60045f8381526020019081526020015f205f9054906101000a900473ffffffffffffffffffffffffffffffffffffffff169050919050565b5f33905090565b6110f78383836001611873565b505050565b600c5f9054906101000a900473ffffffffffffffffffffffffffffffffffffffff1673ffffffffffffffffffffffffffffffffffffffff16635fca5b208484846040518463ffffffff1660e01b815260040161115a93929190613271565b6020604051808303815f875af1158015611176573d5f803e3d5ffd5b505050506040513d601f19601f8201168201806040525081019061119a91906132c1565b6111d9576040517f08c379a00000000000000000000000000000000000000000000000000000000081526004016111d090613336565b60405180910390fd5b505050565b5f6111ea848484611a32565b90509392505050565b6111fb6110e3565b73ffffffffffffffffffffffffffffffffffffffff16611219610a79565b73ffffffffffffffffffffffffffffffffffffffff16146112785761123c6110e3565b6040517f118cdaa700000000000000000000000000000000000000000000000000000000815260040161126f91906128a6565b60405180910390fd5b565b5f600b5f9054906101000a900473ffffffffffffffffffffffffffffffffffffffff16905081600b5f6101000a81548173ffffffffffffffffffffffffffffffffffffffff021916908373ffffffffffffffffffffffffffffffffffffffff1602179055508173ffffffffffffffffffffffffffffffffffffffff168173ffffffffffffffffffffffffffffffffffffffff167f8be0079c531659141344cd1fd0a4f28419497f9722a3daafe3b4186f6b6457e060405160405180910390a35050565b5f73ffffffffffffffffffffffffffffffffffffffff168273ffffffffffffffffffffffffffffffffffffffff16036113ad57816040517f5b08ba180000000000000000000000000000000000000000000000000000000081526004016113a491906128a6565b60405180910390fd5b8060055f8573ffffffffffffffffffffffffffffffffffffffff1673ffffffffffffffffffffffffffffffffffffffff1681526020019081526020015f205f8473ffffffffffffffffffffffffffffffffffffffff1673ffffffffffffffffffffffffffffffffffffffff1681526020019081526020015f205f6101000a81548160ff0219169083151502179055508173ffffffffffffffffffffffffffffffffffffffff168373ffffffffffffffffffffffffffffffffffffffff167f17307eab39ab6107e8899845ad3d59bd9653f200f220920489ca2b5937696c31836040516114999190612746565b60405180910390a3505050565b5f8373ffffffffffffffffffffffffffffffffffffffff163b1115611652578273ffffffffffffffffffffffffffffffffffffffff1663150b7a026114e96110e3565b8685856040518563ffffffff1660e01b815260040161150b94939291906133a6565b6020604051808303815f875af192505050801561154657506040513d601f19601f820116820180604052508101906115439190613404565b60015b6115c7573d805f8114611574576040519150601f19603f3d011682016040523d82523d5f602084013e611579565b606091505b505f8151036115bf57836040517f64a0ae920000000000000000000000000000000000000000000000000000000081526004016115b691906128a6565b60405180910390fd5b805181602001fd5b63150b7a0260e01b7bffffffffffffffffffffffffffffffffffffffffffffffffffffffff1916817bffffffffffffffffffffffffffffffffffffffffffffffffffffffff19161461165057836040517f64a0ae9200000000000000000000000000000000000000000000000000000000815260040161164791906128a6565b60405180910390fd5b505b50505050565b606061166382611024565b505f60065f8481526020019081526020015f2080546116819061302e565b80601f01602080910402602001604051908101604052809291908181526020018280546116ad9061302e565b80156116f85780601f106116cf576101008083540402835291602001916116f8565b820191905f5260205f20905b8154815290600101906020018083116116db57829003601f168201915b505050505090505f611708611b4c565b90505f81510361171c57819250505061175e565b5f82511115611750578082604051602001611738929190613469565b6040516020818303038152906040529250505061175e565b61175984611b62565b925050505b919050565b8060065f8481526020019081526020015f2090816117819190613620565b507ff8e1a15aba9398e019f0b49df1a4fde98ee17ae345cb5f6b5e2c27f5033e8ce7826040516117b19190612961565b60405180910390a15050565b6117d6828260405180602001604052805f815250611bc8565b5050565b5f634906490660e01b7bffffffffffffffffffffffffffffffffffffffffffffffffffffffff1916827bffffffffffffffffffffffffffffffffffffffffffffffffffffffff19161480611833575061183282611be3565b5b9050919050565b5f60025f8381526020019081526020015f205f9054906101000a900473ffffffffffffffffffffffffffffffffffffffff169050919050565b80806118ab57505f73ffffffffffffffffffffffffffffffffffffffff168273ffffffffffffffffffffffffffffffffffffffff1614155b156119dd575f6118ba84611024565b90505f73ffffffffffffffffffffffffffffffffffffffff168373ffffffffffffffffffffffffffffffffffffffff161415801561192457508273ffffffffffffffffffffffffffffffffffffffff168173ffffffffffffffffffffffffffffffffffffffff1614155b801561193757506119358184610e99565b155b1561197957826040517fa9fbf51f00000000000000000000000000000000000000000000000000000000815260040161197091906128a6565b60405180910390fd5b81156119db57838573ffffffffffffffffffffffffffffffffffffffff168273ffffffffffffffffffffffffffffffffffffffff167f8c5be1e5ebec7d5bd14f71427d1e84f3dd0314c0f7b2291e5b200ac8c7c3b92560405160405180910390a45b505b8360045f8581526020019081526020015f205f6101000a81548173ffffffffffffffffffffffffffffffffffffffff021916908373ffffffffffffffffffffffffffffffffffffffff16021790555050505050565b5f80611a3f858585611cc4565b90505f73ffffffffffffffffffffffffffffffffffffffff168173ffffffffffffffffffffffffffffffffffffffff1603611a8257611a7d84611ecf565b611ac1565b8473ffffffffffffffffffffffffffffffffffffffff168173ffffffffffffffffffffffffffffffffffffffff1614611ac057611abf8185611f13565b5b5b5f73ffffffffffffffffffffffffffffffffffffffff168573ffffffffffffffffffffffffffffffffffffffff1603611b0257611afd8461205d565b611b41565b8473ffffffffffffffffffffffffffffffffffffffff168173ffffffffffffffffffffffffffffffffffffffff1614611b4057611b3f858561211d565b5b5b809150509392505050565b606060405180602001604052805f815250905090565b6060611b6d82611024565b505f611b77611b4c565b90505f815111611b955760405180602001604052805f815250611bc0565b80611b9f846121a1565b604051602001611bb0929190613469565b6040516020818303038152906040525b915050919050565b611bd2838361226b565b611bde5f8484846114a6565b505050565b5f7f80ac58cd000000000000000000000000000000000000000000000000000000007bffffffffffffffffffffffffffffffffffffffffffffffffffffffff1916827bffffffffffffffffffffffffffffffffffffffffffffffffffffffff19161480611cad57507f5b5e139f000000000000000000000000000000000000000000000000000000007bffffffffffffffffffffffffffffffffffffffffffffffffffffffff1916827bffffffffffffffffffffffffffffffffffffffffffffffffffffffff1916145b80611cbd5750611cbc8261235e565b5b9050919050565b5f80611ccf8461183a565b90505f73ffffffffffffffffffffffffffffffffffffffff168373ffffffffffffffffffffffffffffffffffffffff1614611d1057611d0f8184866123c7565b5b5f73ffffffffffffffffffffffffffffffffffffffff168173ffffffffffffffffffffffffffffffffffffffff1614611d9b57611d4f5f855f80611873565b600160035f8373ffffffffffffffffffffffffffffffffffffffff1673ffffffffffffffffffffffffffffffffffffffff1681526020019081526020015f205f82825403925050819055505b5f73ffffffffffffffffffffffffffffffffffffffff168573ffffffffffffffffffffffffffffffffffffffff1614611e1a57600160035f8773ffffffffffffffffffffffffffffffffffffffff1673ffffffffffffffffffffffffffffffffffffffff1681526020019081526020015f205f82825401925050819055505b8460025f8681526020019081526020015f205f6101000a81548173ffffffffffffffffffffffffffffffffffffffff021916908373ffffffffffffffffffffffffffffffffffffffff160217905550838573ffffffffffffffffffffffffffffffffffffffff168273ffffffffffffffffffffffffffffffffffffffff167fddf252ad1be2c89b69c2b068fc378daa952ba7f163c4a11628f55a4df523b3ef60405160405180910390a4809150509392505050565b600980549050600a5f8381526020019081526020015f2081905550600981908060018154018082558091505060019003905f5260205f20015f909190919091505550565b5f611f1d836109b0565b90505f60085f8481526020019081526020015f20549050818114611ff4575f60075f8673ffffffffffffffffffffffffffffffffffffffff1673ffffffffffffffffffffffffffffffffffffffff1681526020019081526020015f205f8481526020019081526020015f205490508060075f8773ffffffffffffffffffffffffffffffffffffffff1673ffffffffffffffffffffffffffffffffffffffff1681526020019081526020015f205f8481526020019081526020015f20819055508160085f8381526020019081526020015f2081905550505b60085f8481526020019081526020015f205f905560075f8573ffffffffffffffffffffffffffffffffffffffff1673ffffffffffffffffffffffffffffffffffffffff1681526020019081526020015f205f8381526020019081526020015f205f905550505050565b5f600160098054905061207091906136ef565b90505f600a5f8481526020019081526020015f205490505f6009838154811061209c5761209b613122565b5b905f5260205f200154905080600983815481106120bc576120bb613122565b5b905f5260205f20018190555081600a5f8381526020019081526020015f2081905550600a5f8581526020019081526020015f205f9055600980548061210457612103613722565b5b600190038181905f5260205f20015f9055905550505050565b5f6001612129846109b0565b61213391906136ef565b90508160075f8573ffffffffffffffffffffffffffffffffffffffff1673ffffffffffffffffffffffffffffffffffffffff1681526020019081526020015f205f8381526020019081526020015f20819055508060085f8481526020019081526020015f2081905550505050565b60605f60016121af8461248a565b0190505f8167ffffffffffffffff8111156121cd576121cc612982565b5b6040519080825280601f01601f1916602001820160405280156121ff5781602001600182028036833780820191505090505b5090505f82602001820190505b600115612260578080600190039150507f3031323334353637383961626364656600000000000000000000000000000000600a86061a8153600a85816122555761225461374f565b5b0494505f850361220c575b819350505050919050565b5f73ffffffffffffffffffffffffffffffffffffffff168273ffffffffffffffffffffffffffffffffffffffff16036122db575f6040517f64a0ae920000000000000000000000000000000000000000000000000000000081526004016122d291906128a6565b60405180910390fd5b5f6122e783835f6111de565b90505f73ffffffffffffffffffffffffffffffffffffffff168173ffffffffffffffffffffffffffffffffffffffff1614612359575f6040517f73c6ac6e00000000000000000000000000000000000000000000000000000000815260040161235091906128a6565b60405180910390fd5b505050565b5f7f01ffc9a7000000000000000000000000000000000000000000000000000000007bffffffffffffffffffffffffffffffffffffffffffffffffffffffff1916827bffffffffffffffffffffffffffffffffffffffffffffffffffffffff1916149050919050565b6123d28383836125db565b612485575f73ffffffffffffffffffffffffffffffffffffffff168373ffffffffffffffffffffffffffffffffffffffff160361244657806040517f7e27328900000000000000000000000000000000000000000000000000000000815260040161243d9190612961565b60405180910390fd5b81816040517f177e802f00000000000000000000000000000000000000000000000000000000815260040161247c9291906130fb565b60405180910390fd5b505050565b5f805f90507a184f03e93ff9f4daa797ed6e38ed64bf6a1f01000000000000000083106124e6577a184f03e93ff9f4daa797ed6e38ed64bf6a1f01000000000000000083816124dc576124db61374f565b5b0492506040810190505b6d04ee2d6d415b85acef81000000008310612523576d04ee2d6d415b85acef810000000083816125195761251861374f565b5b0492506020810190505b662386f26fc10000831061255257662386f26fc1000083816125485761254761374f565b5b0492506010810190505b6305f5e100831061257b576305f5e10083816125715761257061374f565b5b0492506008810190505b61271083106125a05761271083816125965761259561374f565b5b0492506004810190505b606483106125c357606483816125b9576125b861374f565b5b0492506002810190505b600a83106125d2576001810190505b80915050919050565b5f8073ffffffffffffffffffffffffffffffffffffffff168373ffffffffffffffffffffffffffffffffffffffff161415801561269257508273ffffffffffffffffffffffffffffffffffffffff168473ffffffffffffffffffffffffffffffffffffffff16148061265357506126528484610e99565b5b8061269157508273ffffffffffffffffffffffffffffffffffffffff16612679836110aa565b73ffffffffffffffffffffffffffffffffffffffff16145b5b90509392505050565b5f604051905090565b5f80fd5b5f80fd5b5f7fffffffff0000000000000000000000000000000000000000000000000000000082169050919050565b6126e0816126ac565b81146126ea575f80fd5b50565b5f813590506126fb816126d7565b92915050565b5f60208284031215612716576127156126a4565b5b5f612723848285016126ed565b91505092915050565b5f8115159050919050565b6127408161272c565b82525050565b5f6020820190506127595f830184612737565b92915050565b5f81519050919050565b5f82825260208201905092915050565b5f5b8381101561279657808201518184015260208101905061277b565b5f8484015250505050565b5f601f19601f8301169050919050565b5f6127bb8261275f565b6127c58185612769565b93506127d5818560208601612779565b6127de816127a1565b840191505092915050565b5f6020820190508181035f83015261280181846127b1565b905092915050565b5f819050919050565b61281b81612809565b8114612825575f80fd5b50565b5f8135905061283681612812565b92915050565b5f60208284031215612851576128506126a4565b5b5f61285e84828501612828565b91505092915050565b5f73ffffffffffffffffffffffffffffffffffffffff82169050919050565b5f61289082612867565b9050919050565b6128a081612886565b82525050565b5f6020820190506128b95f830184612897565b92915050565b6128c881612886565b81146128d2575f80fd5b50565b5f813590506128e3816128bf565b92915050565b5f80604083850312156128ff576128fe6126a4565b5b5f61290c858286016128d5565b925050602061291d85828601612828565b9150509250929050565b5f6020828403121561293c5761293b6126a4565b5b5f612949848285016128d5565b91505092915050565b61295b81612809565b82525050565b5f6020820190506129745f830184612952565b92915050565b5f80fd5b5f80fd5b7f4e487b71000000000000000000000000000000000000000000000000000000005f52604160045260245ffd5b6129b8826127a1565b810181811067ffffffffffffffff821117156129d7576129d6612982565b5b80604052505050565b5f6129e961269b565b90506129f582826129af565b919050565b5f67ffffffffffffffff821115612a1457612a13612982565b5b612a1d826127a1565b9050602081019050919050565b828183375f83830152505050565b5f612a4a612a45846129fa565b6129e0565b905082815260208101848484011115612a6657612a6561297e565b5b612a71848285612a2a565b509392505050565b5f82601f830112612a8d57612a8c61297a565b5b8135612a9d848260208601612a38565b91505092915050565b5f805f8060808587031215612abe57612abd6126a4565b5b5f612acb878288016128d5565b9450506020612adc878288016128d5565b9350506040612aed87828801612828565b925050606085013567ffffffffffffffff811115612b0e57612b0d6126a8565b5b612b1a87828801612a79565b91505092959194509250565b5f805f60608486031215612b3d57612b3c6126a4565b5b5f612b4a868287016128d5565b9350506020612b5b868287016128d5565b9250506040612b6c86828701612828565b9150509250925092565b5f819050919050565b5f612b99612b94612b8f84612867565b612b76565b612867565b9050919050565b5f612baa82612b7f565b9050919050565b5f612bbb82612ba0565b9050919050565b612bcb81612bb1565b82525050565b5f602082019050612be45f830184612bc2565b92915050565b612bf38161272c565b8114612bfd575f80fd5b50565b5f81359050612c0e81612bea565b92915050565b5f8060408385031215612c2a57612c296126a4565b5b5f612c37858286016128d5565b9250506020612c4885828601612c00565b9150509250929050565b5f67ffffffffffffffff821115612c6c57612c6b612982565b5b612c75826127a1565b9050602081019050919050565b5f612c94612c8f84612c52565b6129e0565b905082815260208101848484011115612cb057612caf61297e565b5b612cbb848285612a2a565b509392505050565b5f82601f830112612cd757612cd661297a565b5b8135612ce7848260208601612c82565b91505092915050565b5f805f8060808587031215612d0857612d076126a4565b5b5f612d15878288016128d5565b9450506020612d26878288016128d5565b9350506040612d3787828801612828565b925050606085013567ffffffffffffffff811115612d5857612d576126a8565b5b612d6487828801612cc3565b91505092959194509250565b5f67ffffffffffffffff821115612d8a57612d89612982565b5b602082029050602081019050919050565b5f80fd5b5f612db1612dac84612d70565b6129e0565b90508083825260208201905060208402830185811115612dd457612dd3612d9b565b5b835b81811015612dfd5780612de98882612828565b845260208401935050602081019050612dd6565b5050509392505050565b5f82601f830112612e1b57612e1a61297a565b5b8135612e2b848260208601612d9f565b91505092915050565b5f805f8060808587031215612e4c57612e4b6126a4565b5b5f612e5987828801612828565b945050602085013567ffffffffffffffff811115612e7a57612e796126a8565b5b612e8687828801612a79565b935050604085013567ffffffffffffffff811115612ea757612ea66126a8565b5b612eb387828801612e07565b925050606085013567ffffffffffffffff811115612ed457612ed36126a8565b5b612ee087828801612e07565b91505092959194509250565b5f81519050919050565b5f82825260208201905092915050565b5f819050602082019050919050565b612f1e81612809565b82525050565b5f612f2f8383612f15565b60208301905092915050565b5f602082019050919050565b5f612f5182612eec565b612f5b8185612ef6565b9350612f6683612f06565b805f5b83811015612f96578151612f7d8882612f24565b9750612f8883612f3b565b925050600181019050612f69565b5085935050505092915050565b5f6020820190508181035f830152612fbb8184612f47565b905092915050565b5f8060408385031215612fd957612fd86126a4565b5b5f612fe6858286016128d5565b9250506020612ff7858286016128d5565b9150509250929050565b7f4e487b71000000000000000000000000000000000000000000000000000000005f52602260045260245ffd5b5f600282049050600182168061304557607f821691505b60208210810361305857613057613001565b5b50919050565b7f4e6f74206f776e6572206f66207468697320746f6b656e0000000000000000005f82015250565b5f613092601783612769565b915061309d8261305e565b602082019050919050565b5f6020820190508181035f8301526130bf81613086565b9050919050565b5f6060820190506130d95f830186612897565b6130e66020830185612952565b6130f36040830184612897565b949350505050565b5f60408201905061310e5f830185612897565b61311b6020830184612952565b9392505050565b7f4e487b71000000000000000000000000000000000000000000000000000000005f52603260045260245ffd5b5f6040820190506131625f830185612897565b81810360208301526131748184612f47565b90509392505050565b5f6060820190506131905f830186612952565b81810360208301526131a28185612f47565b905081810360408301526131b68184612f47565b9050949350505050565b7f4e487b71000000000000000000000000000000000000000000000000000000005f52601160045260245ffd5b5f6131f782612809565b915061320283612809565b925082820190508082111561321a576132196131c0565b5b92915050565b5f6080820190506132335f830187612897565b6132406020830186612952565b81810360408301526132528185612f47565b905081810360608301526132668184612f47565b905095945050505050565b5f6060820190506132845f830186612897565b6132916020830185612952565b81810360408301526132a381846127b1565b9050949350505050565b5f815190506132bb81612bea565b92915050565b5f602082840312156132d6576132d56126a4565b5b5f6132e3848285016132ad565b91505092915050565b7f544f444f000000000000000000000000000000000000000000000000000000005f82015250565b5f613320600483612769565b915061332b826132ec565b602082019050919050565b5f6020820190508181035f83015261334d81613314565b9050919050565b5f81519050919050565b5f82825260208201905092915050565b5f61337882613354565b613382818561335e565b9350613392818560208601612779565b61339b816127a1565b840191505092915050565b5f6080820190506133b95f830187612897565b6133c66020830186612897565b6133d36040830185612952565b81810360608301526133e5818461336e565b905095945050505050565b5f815190506133fe816126d7565b92915050565b5f60208284031215613419576134186126a4565b5b5f613426848285016133f0565b91505092915050565b5f81905092915050565b5f6134438261275f565b61344d818561342f565b935061345d818560208601612779565b80840191505092915050565b5f6134748285613439565b91506134808284613439565b91508190509392505050565b5f819050815f5260205f209050919050565b5f6020601f8301049050919050565b5f82821b905092915050565b5f600883026134e87fffffffffffffffffffffffffffffffffffffffffffffffffffffffffffffffff826134ad565b6134f286836134ad565b95508019841693508086168417925050509392505050565b5f61352461351f61351a84612809565b612b76565b612809565b9050919050565b5f819050919050565b61353d8361350a565b6135516135498261352b565b8484546134b9565b825550505050565b5f90565b613565613559565b613570818484613534565b505050565b5b81811015613593576135885f8261355d565b600181019050613576565b5050565b601f8211156135d8576135a98161348c565b6135b28461349e565b810160208510156135c1578190505b6135d56135cd8561349e565b830182613575565b50505b505050565b5f82821c905092915050565b5f6135f85f19846008026135dd565b1980831691505092915050565b5f61361083836135e9565b9150826002028217905092915050565b6136298261275f565b67ffffffffffffffff81111561364257613641612982565b5b61364c825461302e565b613657828285613597565b5f60209050601f831160018114613688575f8415613676578287015190505b6136808582613605565b8655506136e7565b601f1984166136968661348c565b5f5b828110156136bd57848901518255600182019150602085019450602081019050613698565b868310156136da57848901516136d6601f8916826135e9565b8355505b6001600288020188555050505b505050505050565b5f6136f982612809565b915061370483612809565b925082820390508181111561371c5761371b6131c0565b5b92915050565b7f4e487b71000000000000000000000000000000000000000000000000000000005f52603160045260245ffd5b7f4e487b71000000000000000000000000000000000000000000000000000000005f52601260045260245ffdfea26469706673582212202808b3edac8dd45befdbf6ab58ff199080f519fc8d32b6c85733c639b0b1bd5c64736f6c63430008160033",
			"opcodes": "PUSH1 0x80 PUSH1 0x40 MSTORE CALLVALUE DUP1 ISZERO PUSH3 0x10 JUMPI PUSH0 DUP1 REVERT JUMPDEST POP CALLER PUSH1 0x40 MLOAD DUP1 PUSH1 0x40 ADD PUSH1 0x40 MSTORE DUP1 PUSH1 0x10 DUP2 MSTORE PUSH1 0x20 ADD PUSH32 0x5061636B6167656450726F647563747300000000000000000000000000000000 DUP2 MSTORE POP PUSH1 0x40 MLOAD DUP1 PUSH1 0x40 ADD PUSH1 0x40 MSTORE DUP1 PUSH1 0x2 DUP2 MSTORE PUSH1 0x20 ADD PUSH32 0x5050000000000000000000000000000000000000000000000000000000000000 DUP2 MSTORE POP DUP2 PUSH0 SWAP1 DUP2 PUSH3 0x8E SWAP2 SWAP1 PUSH3 0x455 JUMP JUMPDEST POP DUP1 PUSH1 0x1 SWAP1 DUP2 PUSH3 0xA0 SWAP2 SWAP1 PUSH3 0x455 JUMP JUMPDEST POP POP POP PUSH0 PUSH20 0xFFFFFFFFFFFFFFFFFFFFFFFFFFFFFFFFFFFFFFFF AND DUP2 PUSH20 0xFFFFFFFFFFFFFFFFFFFFFFFFFFFFFFFFFFFFFFFF AND SUB PUSH3 0x116 JUMPI PUSH0 PUSH1 0x40 MLOAD PUSH32 0x1E4FBDF700000000000000000000000000000000000000000000000000000000 DUP2 MSTORE PUSH1 0x4 ADD PUSH3 0x10D SWAP2 SWAP1 PUSH3 0x57C JUMP JUMPDEST PUSH1 0x40 MLOAD DUP1 SWAP2 SUB SWAP1 REVERT JUMPDEST PUSH3 0x127 DUP2 PUSH3 0x12E PUSH1 0x20 SHL PUSH1 0x20 SHR JUMP JUMPDEST POP PUSH3 0x597 JUMP JUMPDEST PUSH0 PUSH1 0xB PUSH0 SWAP1 SLOAD SWAP1 PUSH2 0x100 EXP SWAP1 DIV PUSH20 0xFFFFFFFFFFFFFFFFFFFFFFFFFFFFFFFFFFFFFFFF AND SWAP1 POP DUP2 PUSH1 0xB PUSH0 PUSH2 0x100 EXP DUP2 SLOAD DUP2 PUSH20 0xFFFFFFFFFFFFFFFFFFFFFFFFFFFFFFFFFFFFFFFF MUL NOT AND SWAP1 DUP4 PUSH20 0xFFFFFFFFFFFFFFFFFFFFFFFFFFFFFFFFFFFFFFFF AND MUL OR SWAP1 SSTORE POP DUP2 PUSH20 0xFFFFFFFFFFFFFFFFFFFFFFFFFFFFFFFFFFFFFFFF AND DUP2 PUSH20 0xFFFFFFFFFFFFFFFFFFFFFFFFFFFFFFFFFFFFFFFF AND PUSH32 0x8BE0079C531659141344CD1FD0A4F28419497F9722A3DAAFE3B4186F6B6457E0 PUSH1 0x40 MLOAD PUSH1 0x40 MLOAD DUP1 SWAP2 SUB SWAP1 LOG3 POP POP JUMP JUMPDEST PUSH0 DUP2 MLOAD SWAP1 POP SWAP2 SWAP1 POP JUMP JUMPDEST PUSH32 0x4E487B7100000000000000000000000000000000000000000000000000000000 PUSH0 MSTORE PUSH1 0x41 PUSH1 0x4 MSTORE PUSH1 0x24 PUSH0 REVERT JUMPDEST PUSH32 0x4E487B7100000000000000000000000000000000000000000000000000000000 PUSH0 MSTORE PUSH1 0x22 PUSH1 0x4 MSTORE PUSH1 0x24 PUSH0 REVERT JUMPDEST PUSH0 PUSH1 0x2 DUP3 DIV SWAP1 POP PUSH1 0x1 DUP3 AND DUP1 PUSH3 0x26D JUMPI PUSH1 0x7F DUP3 AND SWAP2 POP JUMPDEST PUSH1 0x20 DUP3 LT DUP2 SUB PUSH3 0x283 JUMPI PUSH3 0x282 PUSH3 0x228 JUMP JUMPDEST JUMPDEST POP SWAP2 SWAP1 POP JUMP JUMPDEST PUSH0 DUP2 SWAP1 POP DUP2 PUSH0 MSTORE PUSH1 0x20 PUSH0 KECCAK256 SWAP1 POP SWAP2 SWAP1 POP JUMP JUMPDEST PUSH0 PUSH1 0x20 PUSH1 0x1F DUP4 ADD DIV SWAP1 POP SWAP2 SWAP1 POP JUMP JUMPDEST PUSH0 DUP3 DUP3 SHL SWAP1 POP SWAP3 SWAP2 POP POP JUMP JUMPDEST PUSH0 PUSH1 0x8 DUP4 MUL PUSH3 0x2E7 PUSH32 0xFFFFFFFFFFFFFFFFFFFFFFFFFFFFFFFFFFFFFFFFFFFFFFFFFFFFFFFFFFFFFFFF DUP3 PUSH3 0x2AA JUMP JUMPDEST PUSH3 0x2F3 DUP7 DUP4 PUSH3 0x2AA JUMP JUMPDEST SWAP6 POP DUP1 NOT DUP5 AND SWAP4 POP DUP1 DUP7 AND DUP5 OR SWAP3 POP POP POP SWAP4 SWAP3 POP POP POP JUMP JUMPDEST PUSH0 DUP2 SWAP1 POP SWAP2 SWAP1 POP JUMP JUMPDEST PUSH0 DUP2 SWAP1 POP SWAP2 SWAP1 POP JUMP JUMPDEST PUSH0 PUSH3 0x33D PUSH3 0x337 PUSH3 0x331 DUP5 PUSH3 0x30B JUMP JUMPDEST PUSH3 0x314 JUMP JUMPDEST PUSH3 0x30B JUMP JUMPDEST SWAP1 POP SWAP2 SWAP1 POP JUMP JUMPDEST PUSH0 DUP2 SWAP1 POP SWAP2 SWAP1 POP JUMP JUMPDEST PUSH3 0x358 DUP4 PUSH3 0x31D JUMP JUMPDEST PUSH3 0x370 PUSH3 0x367 DUP3 PUSH3 0x344 JUMP JUMPDEST DUP5 DUP5 SLOAD PUSH3 0x2B6 JUMP JUMPDEST DUP3 SSTORE POP POP POP POP JUMP JUMPDEST PUSH0 SWAP1 JUMP JUMPDEST PUSH3 0x386 PUSH3 0x378 JUMP JUMPDEST PUSH3 0x393 DUP2 DUP5 DUP5 PUSH3 0x34D JUMP JUMPDEST POP POP POP JUMP JUMPDEST JUMPDEST DUP2 DUP2 LT ISZERO PUSH3 0x3BA JUMPI PUSH3 0x3AE PUSH0 DUP3 PUSH3 0x37C JUMP JUMPDEST PUSH1 0x1 DUP2 ADD SWAP1 POP PUSH3 0x399 JUMP JUMPDEST POP POP JUMP JUMPDEST PUSH1 0x1F DUP3 GT ISZERO PUSH3 0x409 JUMPI PUSH3 0x3D3 DUP2 PUSH3 0x289 JUMP JUMPDEST PUSH3 0x3DE DUP5 PUSH3 0x29B JUMP JUMPDEST DUP2 ADD PUSH1 0x20 DUP6 LT ISZERO PUSH3 0x3EE JUMPI DUP2 SWAP1 POP JUMPDEST PUSH3 0x406 PUSH3 0x3FD DUP6 PUSH3 0x29B JUMP JUMPDEST DUP4 ADD DUP3 PUSH3 0x398 JUMP JUMPDEST POP POP JUMPDEST POP POP POP JUMP JUMPDEST PUSH0 DUP3 DUP3 SHR SWAP1 POP SWAP3 SWAP2 POP POP JUMP JUMPDEST PUSH0 PUSH3 0x42B PUSH0 NOT DUP5 PUSH1 0x8 MUL PUSH3 0x40E JUMP JUMPDEST NOT DUP1 DUP4 AND SWAP2 POP POP SWAP3 SWAP2 POP POP JUMP JUMPDEST PUSH0 PUSH3 0x445 DUP4 DUP4 PUSH3 0x41A JUMP JUMPDEST SWAP2 POP DUP3 PUSH1 0x2 MUL DUP3 OR SWAP1 POP SWAP3 SWAP2 POP POP JUMP JUMPDEST PUSH3 0x460 DUP3 PUSH3 0x1F1 JUMP JUMPDEST PUSH8 0xFFFFFFFFFFFFFFFF DUP2 GT ISZERO PUSH3 0x47C JUMPI PUSH3 0x47B PUSH3 0x1FB JUMP JUMPDEST JUMPDEST PUSH3 0x488 DUP3 SLOAD PUSH3 0x255 JUMP JUMPDEST PUSH3 0x495 DUP3 DUP3 DUP6 PUSH3 0x3BE JUMP JUMPDEST PUSH0 PUSH1 0x20 SWAP1 POP PUSH1 0x1F DUP4 GT PUSH1 0x1 DUP2 EQ PUSH3 0x4CB JUMPI PUSH0 DUP5 ISZERO PUSH3 0x4B6 JUMPI DUP3 DUP8 ADD MLOAD SWAP1 POP JUMPDEST PUSH3 0x4C2 DUP6 DUP3 PUSH3 0x438 JUMP JUMPDEST DUP7 SSTORE POP PUSH3 0x531 JUMP JUMPDEST PUSH1 0x1F NOT DUP5 AND PUSH3 0x4DB DUP7 PUSH3 0x289 JUMP JUMPDEST PUSH0 JUMPDEST DUP3 DUP2 LT ISZERO PUSH3 0x504 JUMPI DUP5 DUP10 ADD MLOAD DUP3 SSTORE PUSH1 0x1 DUP3 ADD SWAP2 POP PUSH1 0x20 DUP6 ADD SWAP5 POP PUSH1 0x20 DUP2 ADD SWAP1 POP PUSH3 0x4DD JUMP JUMPDEST DUP7 DUP4 LT ISZERO PUSH3 0x524 JUMPI DUP5 DUP10 ADD MLOAD PUSH3 0x520 PUSH1 0x1F DUP10 AND DUP3 PUSH3 0x41A JUMP JUMPDEST DUP4 SSTORE POP JUMPDEST PUSH1 0x1 PUSH1 0x2 DUP9 MUL ADD DUP9 SSTORE POP POP POP JUMPDEST POP POP POP POP POP POP JUMP JUMPDEST PUSH0 PUSH20 0xFFFFFFFFFFFFFFFFFFFFFFFFFFFFFFFFFFFFFFFF DUP3 AND SWAP1 POP SWAP2 SWAP1 POP JUMP JUMPDEST PUSH0 PUSH3 0x564 DUP3 PUSH3 0x539 JUMP JUMPDEST SWAP1 POP SWAP2 SWAP1 POP JUMP JUMPDEST PUSH3 0x576 DUP2 PUSH3 0x558 JUMP JUMPDEST DUP3 MSTORE POP POP JUMP JUMPDEST PUSH0 PUSH1 0x20 DUP3 ADD SWAP1 POP PUSH3 0x591 PUSH0 DUP4 ADD DUP5 PUSH3 0x56B JUMP JUMPDEST SWAP3 SWAP2 POP POP JUMP JUMPDEST PUSH2 0x37B2 DUP1 PUSH3 0x5A5 PUSH0 CODECOPY PUSH0 RETURN INVALID PUSH1 0x80 PUSH1 0x40 MSTORE PUSH1 0x4 CALLDATASIZE LT PUSH2 0x14A JUMPI PUSH0 CALLDATALOAD PUSH1 0xE0 SHR DUP1 PUSH4 0x6352211E GT PUSH2 0xB5 JUMPI DUP1 PUSH4 0xA22CB465 GT PUSH2 0x6E JUMPI DUP1 PUSH4 0xA22CB465 EQ PUSH2 0x490 JUMPI DUP1 PUSH4 0xB88D4FDE EQ PUSH2 0x4B8 JUMPI DUP1 PUSH4 0xC87B56DD EQ PUSH2 0x4E0 JUMPI DUP1 PUSH4 0xE6A13940 EQ PUSH2 0x51C JUMPI DUP1 PUSH4 0xE985E9C5 EQ PUSH2 0x54C JUMPI DUP1 PUSH4 0xF2FDE38B EQ PUSH2 0x588 JUMPI PUSH2 0x14A JUMP JUMPDEST DUP1 PUSH4 0x6352211E EQ PUSH2 0x384 JUMPI DUP1 PUSH4 0x70A08231 EQ PUSH2 0x3C0 JUMPI DUP1 PUSH4 0x715018A6 EQ PUSH2 0x3FC JUMPI DUP1 PUSH4 0x8DA5CB5B EQ PUSH2 0x412 JUMPI DUP1 PUSH4 0x95D89B41 EQ PUSH2 0x43C JUMPI DUP1 PUSH4 0x9909C507 EQ PUSH2 0x466 JUMPI PUSH2 0x14A JUMP JUMPDEST DUP1 PUSH4 0x1AF716BA GT PUSH2 0x107 JUMPI DUP1 PUSH4 0x1AF716BA EQ PUSH2 0x26A JUMPI DUP1 PUSH4 0x23B872DD EQ PUSH2 0x292 JUMPI DUP1 PUSH4 0x2F745C59 EQ PUSH2 0x2BA JUMPI DUP1 PUSH4 0x38CC4831 EQ PUSH2 0x2F6 JUMPI DUP1 PUSH4 0x42842E0E EQ PUSH2 0x320 JUMPI DUP1 PUSH4 0x4F6CCCE7 EQ PUSH2 0x348 JUMPI PUSH2 0x14A JUMP JUMPDEST DUP1 PUSH4 0x1FFC9A7 EQ PUSH2 0x14E JUMPI DUP1 PUSH4 0x6FDDE03 EQ PUSH2 0x18A JUMPI DUP1 PUSH4 0x81812FC EQ PUSH2 0x1B4 JUMPI DUP1 PUSH4 0x95EA7B3 EQ PUSH2 0x1F0 JUMPI DUP1 PUSH4 0xFFFC4CF EQ PUSH2 0x218 JUMPI DUP1 PUSH4 0x18160DDD EQ PUSH2 0x240 JUMPI JUMPDEST PUSH0 DUP1 REVERT JUMPDEST CALLVALUE DUP1 ISZERO PUSH2 0x159 JUMPI PUSH0 DUP1 REVERT JUMPDEST POP PUSH2 0x174 PUSH1 0x4 DUP1 CALLDATASIZE SUB DUP2 ADD SWAP1 PUSH2 0x16F SWAP2 SWAP1 PUSH2 0x2701 JUMP JUMPDEST PUSH2 0x5B0 JUMP JUMPDEST PUSH1 0x40 MLOAD PUSH2 0x181 SWAP2 SWAP1 PUSH2 0x2746 JUMP JUMPDEST PUSH1 0x40 MLOAD DUP1 SWAP2 SUB SWAP1 RETURN JUMPDEST CALLVALUE DUP1 ISZERO PUSH2 0x195 JUMPI PUSH0 DUP1 REVERT JUMPDEST POP PUSH2 0x19E PUSH2 0x5C1 JUMP JUMPDEST PUSH1 0x40 MLOAD PUSH2 0x1AB SWAP2 SWAP1 PUSH2 0x27E9 JUMP JUMPDEST PUSH1 0x40 MLOAD DUP1 SWAP2 SUB SWAP1 RETURN JUMPDEST CALLVALUE DUP1 ISZERO PUSH2 0x1BF JUMPI PUSH0 DUP1 REVERT JUMPDEST POP PUSH2 0x1DA PUSH1 0x4 DUP1 CALLDATASIZE SUB DUP2 ADD SWAP1 PUSH2 0x1D5 SWAP2 SWAP1 PUSH2 0x283C JUMP JUMPDEST PUSH2 0x650 JUMP JUMPDEST PUSH1 0x40 MLOAD PUSH2 0x1E7 SWAP2 SWAP1 PUSH2 0x28A6 JUMP JUMPDEST PUSH1 0x40 MLOAD DUP1 SWAP2 SUB SWAP1 RETURN JUMPDEST CALLVALUE DUP1 ISZERO PUSH2 0x1FB JUMPI PUSH0 DUP1 REVERT JUMPDEST POP PUSH2 0x216 PUSH1 0x4 DUP1 CALLDATASIZE SUB DUP2 ADD SWAP1 PUSH2 0x211 SWAP2 SWAP1 PUSH2 0x28E9 JUMP JUMPDEST PUSH2 0x66B JUMP JUMPDEST STOP JUMPDEST CALLVALUE DUP1 ISZERO PUSH2 0x223 JUMPI PUSH0 DUP1 REVERT JUMPDEST POP PUSH2 0x23E PUSH1 0x4 DUP1 CALLDATASIZE SUB DUP2 ADD SWAP1 PUSH2 0x239 SWAP2 SWAP1 PUSH2 0x2927 JUMP JUMPDEST PUSH2 0x681 JUMP JUMPDEST STOP JUMPDEST CALLVALUE DUP1 ISZERO PUSH2 0x24B JUMPI PUSH0 DUP1 REVERT JUMPDEST POP PUSH2 0x254 PUSH2 0x6C4 JUMP JUMPDEST PUSH1 0x40 MLOAD PUSH2 0x261 SWAP2 SWAP1 PUSH2 0x2961 JUMP JUMPDEST PUSH1 0x40 MLOAD DUP1 SWAP2 SUB SWAP1 RETURN JUMPDEST CALLVALUE DUP1 ISZERO PUSH2 0x275 JUMPI PUSH0 DUP1 REVERT JUMPDEST POP PUSH2 0x290 PUSH1 0x4 DUP1 CALLDATASIZE SUB DUP2 ADD SWAP1 PUSH2 0x28B SWAP2 SWAP1 PUSH2 0x2AA6 JUMP JUMPDEST PUSH2 0x6D0 JUMP JUMPDEST STOP JUMPDEST CALLVALUE DUP1 ISZERO PUSH2 0x29D JUMPI PUSH0 DUP1 REVERT JUMPDEST POP PUSH2 0x2B8 PUSH1 0x4 DUP1 CALLDATASIZE SUB DUP2 ADD SWAP1 PUSH2 0x2B3 SWAP2 SWAP1 PUSH2 0x2B26 JUMP JUMPDEST PUSH2 0x764 JUMP JUMPDEST STOP JUMPDEST CALLVALUE DUP1 ISZERO PUSH2 0x2C5 JUMPI PUSH0 DUP1 REVERT JUMPDEST POP PUSH2 0x2E0 PUSH1 0x4 DUP1 CALLDATASIZE SUB DUP2 ADD SWAP1 PUSH2 0x2DB SWAP2 SWAP1 PUSH2 0x28E9 JUMP JUMPDEST PUSH2 0x863 JUMP JUMPDEST PUSH1 0x40 MLOAD PUSH2 0x2ED SWAP2 SWAP1 PUSH2 0x2961 JUMP JUMPDEST PUSH1 0x40 MLOAD DUP1 SWAP2 SUB SWAP1 RETURN JUMPDEST CALLVALUE DUP1 ISZERO PUSH2 0x301 JUMPI PUSH0 DUP1 REVERT JUMPDEST POP PUSH2 0x30A PUSH2 0x907 JUMP JUMPDEST PUSH1 0x40 MLOAD PUSH2 0x317 SWAP2 SWAP1 PUSH2 0x28A6 JUMP JUMPDEST PUSH1 0x40 MLOAD DUP1 SWAP2 SUB SWAP1 RETURN JUMPDEST CALLVALUE DUP1 ISZERO PUSH2 0x32B JUMPI PUSH0 DUP1 REVERT JUMPDEST POP PUSH2 0x346 PUSH1 0x4 DUP1 CALLDATASIZE SUB DUP2 ADD SWAP1 PUSH2 0x341 SWAP2 SWAP1 PUSH2 0x2B26 JUMP JUMPDEST PUSH2 0x90E JUMP JUMPDEST STOP JUMPDEST CALLVALUE DUP1 ISZERO PUSH2 0x353 JUMPI PUSH0 DUP1 REVERT JUMPDEST POP PUSH2 0x36E PUSH1 0x4 DUP1 CALLDATASIZE SUB DUP2 ADD SWAP1 PUSH2 0x369 SWAP2 SWAP1 PUSH2 0x283C JUMP JUMPDEST PUSH2 0x92D JUMP JUMPDEST PUSH1 0x40 MLOAD PUSH2 0x37B SWAP2 SWAP1 PUSH2 0x2961 JUMP JUMPDEST PUSH1 0x40 MLOAD DUP1 SWAP2 SUB SWAP1 RETURN JUMPDEST CALLVALUE DUP1 ISZERO PUSH2 0x38F JUMPI PUSH0 DUP1 REVERT JUMPDEST POP PUSH2 0x3AA PUSH1 0x4 DUP1 CALLDATASIZE SUB DUP2 ADD SWAP1 PUSH2 0x3A5 SWAP2 SWAP1 PUSH2 0x283C JUMP JUMPDEST PUSH2 0x99F JUMP JUMPDEST PUSH1 0x40 MLOAD PUSH2 0x3B7 SWAP2 SWAP1 PUSH2 0x28A6 JUMP JUMPDEST PUSH1 0x40 MLOAD DUP1 SWAP2 SUB SWAP1 RETURN JUMPDEST CALLVALUE DUP1 ISZERO PUSH2 0x3CB JUMPI PUSH0 DUP1 REVERT JUMPDEST POP PUSH2 0x3E6 PUSH1 0x4 DUP1 CALLDATASIZE SUB DUP2 ADD SWAP1 PUSH2 0x3E1 SWAP2 SWAP1 PUSH2 0x2927 JUMP JUMPDEST PUSH2 0x9B0 JUMP JUMPDEST PUSH1 0x40 MLOAD PUSH2 0x3F3 SWAP2 SWAP1 PUSH2 0x2961 JUMP JUMPDEST PUSH1 0x40 MLOAD DUP1 SWAP2 SUB SWAP1 RETURN JUMPDEST CALLVALUE DUP1 ISZERO PUSH2 0x407 JUMPI PUSH0 DUP1 REVERT JUMPDEST POP PUSH2 0x410 PUSH2 0xA66 JUMP JUMPDEST STOP JUMPDEST CALLVALUE DUP1 ISZERO PUSH2 0x41D JUMPI PUSH0 DUP1 REVERT JUMPDEST POP PUSH2 0x426 PUSH2 0xA79 JUMP JUMPDEST PUSH1 0x40 MLOAD PUSH2 0x433 SWAP2 SWAP1 PUSH2 0x28A6 JUMP JUMPDEST PUSH1 0x40 MLOAD DUP1 SWAP2 SUB SWAP1 RETURN JUMPDEST CALLVALUE DUP1 ISZERO PUSH2 0x447 JUMPI PUSH0 DUP1 REVERT JUMPDEST POP PUSH2 0x450 PUSH2 0xAA1 JUMP JUMPDEST PUSH1 0x40 MLOAD PUSH2 0x45D SWAP2 SWAP1 PUSH2 0x27E9 JUMP JUMPDEST PUSH1 0x40 MLOAD DUP1 SWAP2 SUB SWAP1 RETURN JUMPDEST CALLVALUE DUP1 ISZERO PUSH2 0x471 JUMPI PUSH0 DUP1 REVERT JUMPDEST POP PUSH2 0x47A PUSH2 0xB31 JUMP JUMPDEST PUSH1 0x40 MLOAD PUSH2 0x487 SWAP2 SWAP1 PUSH2 0x2BD1 JUMP JUMPDEST PUSH1 0x40 MLOAD DUP1 SWAP2 SUB SWAP1 RETURN JUMPDEST CALLVALUE DUP1 ISZERO PUSH2 0x49B JUMPI PUSH0 DUP1 REVERT JUMPDEST POP PUSH2 0x4B6 PUSH1 0x4 DUP1 CALLDATASIZE SUB DUP2 ADD SWAP1 PUSH2 0x4B1 SWAP2 SWAP1 PUSH2 0x2C14 JUMP JUMPDEST PUSH2 0xB56 JUMP JUMPDEST STOP JUMPDEST CALLVALUE DUP1 ISZERO PUSH2 0x4C3 JUMPI PUSH0 DUP1 REVERT JUMPDEST POP PUSH2 0x4DE PUSH1 0x4 DUP1 CALLDATASIZE SUB DUP2 ADD SWAP1 PUSH2 0x4D9 SWAP2 SWAP1 PUSH2 0x2CF0 JUMP JUMPDEST PUSH2 0xB6C JUMP JUMPDEST STOP JUMPDEST CALLVALUE DUP1 ISZERO PUSH2 0x4EB JUMPI PUSH0 DUP1 REVERT JUMPDEST POP PUSH2 0x506 PUSH1 0x4 DUP1 CALLDATASIZE SUB DUP2 ADD SWAP1 PUSH2 0x501 SWAP2 SWAP1 PUSH2 0x283C JUMP JUMPDEST PUSH2 0xB89 JUMP JUMPDEST PUSH1 0x40 MLOAD PUSH2 0x513 SWAP2 SWAP1 PUSH2 0x27E9 JUMP JUMPDEST PUSH1 0x40 MLOAD DUP1 SWAP2 SUB SWAP1 RETURN JUMPDEST PUSH2 0x536 PUSH1 0x4 DUP1 CALLDATASIZE SUB DUP2 ADD SWAP1 PUSH2 0x531 SWAP2 SWAP1 PUSH2 0x2E34 JUMP JUMPDEST PUSH2 0xB9B JUMP JUMPDEST PUSH1 0x40 MLOAD PUSH2 0x543 SWAP2 SWAP1 PUSH2 0x2FA3 JUMP JUMPDEST PUSH1 0x40 MLOAD DUP1 SWAP2 SUB SWAP1 RETURN JUMPDEST CALLVALUE DUP1 ISZERO PUSH2 0x557 JUMPI PUSH0 DUP1 REVERT JUMPDEST POP PUSH2 0x572 PUSH1 0x4 DUP1 CALLDATASIZE SUB DUP2 ADD SWAP1 PUSH2 0x56D SWAP2 SWAP1 PUSH2 0x2FC3 JUMP JUMPDEST PUSH2 0xE99 JUMP JUMPDEST PUSH1 0x40 MLOAD PUSH2 0x57F SWAP2 SWAP1 PUSH2 0x2746 JUMP JUMPDEST PUSH1 0x40 MLOAD DUP1 SWAP2 SUB SWAP1 RETURN JUMPDEST CALLVALUE DUP1 ISZERO PUSH2 0x593 JUMPI PUSH0 DUP1 REVERT JUMPDEST POP PUSH2 0x5AE PUSH1 0x4 DUP1 CALLDATASIZE SUB DUP2 ADD SWAP1 PUSH2 0x5A9 SWAP2 SWAP1 PUSH2 0x2927 JUMP JUMPDEST PUSH2 0xF27 JUMP JUMPDEST STOP JUMPDEST PUSH0 PUSH2 0x5BA DUP3 PUSH2 0xFAB JUMP JUMPDEST SWAP1 POP SWAP2 SWAP1 POP JUMP JUMPDEST PUSH1 0x60 PUSH0 DUP1 SLOAD PUSH2 0x5CF SWAP1 PUSH2 0x302E JUMP JUMPDEST DUP1 PUSH1 0x1F ADD PUSH1 0x20 DUP1 SWAP2 DIV MUL PUSH1 0x20 ADD PUSH1 0x40 MLOAD SWAP1 DUP2 ADD PUSH1 0x40 MSTORE DUP1 SWAP3 SWAP2 SWAP1 DUP2 DUP2 MSTORE PUSH1 0x20 ADD DUP3 DUP1 SLOAD PUSH2 0x5FB SWAP1 PUSH2 0x302E JUMP JUMPDEST DUP1 ISZERO PUSH2 0x646 JUMPI DUP1 PUSH1 0x1F LT PUSH2 0x61D JUMPI PUSH2 0x100 DUP1 DUP4 SLOAD DIV MUL DUP4 MSTORE SWAP2 PUSH1 0x20 ADD SWAP2 PUSH2 0x646 JUMP JUMPDEST DUP3 ADD SWAP2 SWAP1 PUSH0 MSTORE PUSH1 0x20 PUSH0 KECCAK256 SWAP1 JUMPDEST DUP2 SLOAD DUP2 MSTORE SWAP1 PUSH1 0x1 ADD SWAP1 PUSH1 0x20 ADD DUP1 DUP4 GT PUSH2 0x629 JUMPI DUP3 SWAP1 SUB PUSH1 0x1F AND DUP3 ADD SWAP2 JUMPDEST POP POP POP POP POP SWAP1 POP SWAP1 JUMP JUMPDEST PUSH0 PUSH2 0x65A DUP3 PUSH2 0x1024 JUMP JUMPDEST POP PUSH2 0x664 DUP3 PUSH2 0x10AA JUMP JUMPDEST SWAP1 POP SWAP2 SWAP1 POP JUMP JUMPDEST PUSH2 0x67D DUP3 DUP3 PUSH2 0x678 PUSH2 0x10E3 JUMP JUMPDEST PUSH2 0x10EA JUMP JUMPDEST POP POP JUMP JUMPDEST DUP1 PUSH1 0xC PUSH0 PUSH2 0x100 EXP DUP2 SLOAD DUP2 PUSH20 0xFFFFFFFFFFFFFFFFFFFFFFFFFFFFFFFFFFFFFFFF MUL NOT AND SWAP1 DUP4 PUSH20 0xFFFFFFFFFFFFFFFFFFFFFFFFFFFFFFFFFFFFFFFF AND MUL OR SWAP1 SSTORE POP POP JUMP JUMPDEST PUSH0 PUSH1 0x9 DUP1 SLOAD SWAP1 POP SWAP1 POP SWAP1 JUMP JUMPDEST DUP2 PUSH2 0x6DA DUP2 PUSH2 0x99F JUMP JUMPDEST PUSH20 0xFFFFFFFFFFFFFFFFFFFFFFFFFFFFFFFFFFFFFFFF AND CALLER PUSH20 0xFFFFFFFFFFFFFFFFFFFFFFFFFFFFFFFFFFFFFFFF AND EQ PUSH2 0x747 JUMPI PUSH1 0x40 MLOAD PUSH32 0x8C379A000000000000000000000000000000000000000000000000000000000 DUP2 MSTORE PUSH1 0x4 ADD PUSH2 0x73E SWAP1 PUSH2 0x30A8 JUMP JUMPDEST PUSH1 0x40 MLOAD DUP1 SWAP2 SUB SWAP1 REVERT JUMPDEST PUSH2 0x752 DUP5 DUP5 DUP5 PUSH2 0x10FC JUMP JUMPDEST PUSH2 0x75D DUP6 DUP6 DUP6 PUSH2 0x764 JUMP JUMPDEST POP POP POP POP POP JUMP JUMPDEST PUSH0 PUSH20 0xFFFFFFFFFFFFFFFFFFFFFFFFFFFFFFFFFFFFFFFF AND DUP3 PUSH20 0xFFFFFFFFFFFFFFFFFFFFFFFFFFFFFFFFFFFFFFFF AND SUB PUSH2 0x7D4 JUMPI PUSH0 PUSH1 0x40 MLOAD PUSH32 0x64A0AE9200000000000000000000000000000000000000000000000000000000 DUP2 MSTORE PUSH1 0x4 ADD PUSH2 0x7CB SWAP2 SWAP1 PUSH2 0x28A6 JUMP JUMPDEST PUSH1 0x40 MLOAD DUP1 SWAP2 SUB SWAP1 REVERT JUMPDEST PUSH0 PUSH2 0x7E7 DUP4 DUP4 PUSH2 0x7E2 PUSH2 0x10E3 JUMP JUMPDEST PUSH2 0x11DE JUMP JUMPDEST SWAP1 POP DUP4 PUSH20 0xFFFFFFFFFFFFFFFFFFFFFFFFFFFFFFFFFFFFFFFF AND DUP2 PUSH20 0xFFFFFFFFFFFFFFFFFFFFFFFFFFFFFFFFFFFFFFFF AND EQ PUSH2 0x85D JUMPI DUP4 DUP3 DUP3 PUSH1 0x40 MLOAD PUSH32 0x64283D7B00000000000000000000000000000000000000000000000000000000 DUP2 MSTORE PUSH1 0x4 ADD PUSH2 0x854 SWAP4 SWAP3 SWAP2 SWAP1 PUSH2 0x30C6 JUMP JUMPDEST PUSH1 0x40 MLOAD DUP1 SWAP2 SUB SWAP1 REVERT JUMPDEST POP POP POP POP JUMP JUMPDEST PUSH0 PUSH2 0x86D DUP4 PUSH2 0x9B0 JUMP JUMPDEST DUP3 LT PUSH2 0x8B2 JUMPI DUP3 DUP3 PUSH1 0x40 MLOAD PUSH32 0xA57D13DC00000000000000000000000000000000000000000000000000000000 DUP2 MSTORE PUSH1 0x4 ADD PUSH2 0x8A9 SWAP3 SWAP2 SWAP1 PUSH2 0x30FB JUMP JUMPDEST PUSH1 0x40 MLOAD DUP1 SWAP2 SUB SWAP1 REVERT JUMPDEST PUSH1 0x7 PUSH0 DUP5 PUSH20 0xFFFFFFFFFFFFFFFFFFFFFFFFFFFFFFFFFFFFFFFF AND PUSH20 0xFFFFFFFFFFFFFFFFFFFFFFFFFFFFFFFFFFFFFFFF AND DUP2 MSTORE PUSH1 0x20 ADD SWAP1 DUP2 MSTORE PUSH1 0x20 ADD PUSH0 KECCAK256 PUSH0 DUP4 DUP2 MSTORE PUSH1 0x20 ADD SWAP1 DUP2 MSTORE PUSH1 0x20 ADD PUSH0 KECCAK256 SLOAD SWAP1 POP SWAP3 SWAP2 POP POP JUMP JUMPDEST PUSH0 ADDRESS SWAP1 POP SWAP1 JUMP JUMPDEST PUSH2 0x928 DUP4 DUP4 DUP4 PUSH1 0x40 MLOAD DUP1 PUSH1 0x20 ADD PUSH1 0x40 MSTORE DUP1 PUSH0 DUP2 MSTORE POP PUSH2 0xB6C JUMP JUMPDEST POP POP POP JUMP JUMPDEST PUSH0 PUSH2 0x936 PUSH2 0x6C4 JUMP JUMPDEST DUP3 LT PUSH2 0x97B JUMPI PUSH0 DUP3 PUSH1 0x40 MLOAD PUSH32 0xA57D13DC00000000000000000000000000000000000000000000000000000000 DUP2 MSTORE PUSH1 0x4 ADD PUSH2 0x972 SWAP3 SWAP2 SWAP1 PUSH2 0x30FB JUMP JUMPDEST PUSH1 0x40 MLOAD DUP1 SWAP2 SUB SWAP1 REVERT JUMPDEST PUSH1 0x9 DUP3 DUP2 SLOAD DUP2 LT PUSH2 0x98F JUMPI PUSH2 0x98E PUSH2 0x3122 JUMP JUMPDEST JUMPDEST SWAP1 PUSH0 MSTORE PUSH1 0x20 PUSH0 KECCAK256 ADD SLOAD SWAP1 POP SWAP2 SWAP1 POP JUMP JUMPDEST PUSH0 PUSH2 0x9A9 DUP3 PUSH2 0x1024 JUMP JUMPDEST SWAP1 POP SWAP2 SWAP1 POP JUMP JUMPDEST PUSH0 DUP1 PUSH20 0xFFFFFFFFFFFFFFFFFFFFFFFFFFFFFFFFFFFFFFFF AND DUP3 PUSH20 0xFFFFFFFFFFFFFFFFFFFFFFFFFFFFFFFFFFFFFFFF AND SUB PUSH2 0xA21 JUMPI PUSH0 PUSH1 0x40 MLOAD PUSH32 0x89C62B6400000000000000000000000000000000000000000000000000000000 DUP2 MSTORE PUSH1 0x4 ADD PUSH2 0xA18 SWAP2 SWAP1 PUSH2 0x28A6 JUMP JUMPDEST PUSH1 0x40 MLOAD DUP1 SWAP2 SUB SWAP1 REVERT JUMPDEST PUSH1 0x3 PUSH0 DUP4 PUSH20 0xFFFFFFFFFFFFFFFFFFFFFFFFFFFFFFFFFFFFFFFF AND PUSH20 0xFFFFFFFFFFFFFFFFFFFFFFFFFFFFFFFFFFFFFFFF AND DUP2 MSTORE PUSH1 0x20 ADD SWAP1 DUP2 MSTORE PUSH1 0x20 ADD PUSH0 KECCAK256 SLOAD SWAP1 POP SWAP2 SWAP1 POP JUMP JUMPDEST PUSH2 0xA6E PUSH2 0x11F3 JUMP JUMPDEST PUSH2 0xA77 PUSH0 PUSH2 0x127A JUMP JUMPDEST JUMP JUMPDEST PUSH0 PUSH1 0xB PUSH0 SWAP1 SLOAD SWAP1 PUSH2 0x100 EXP SWAP1 DIV PUSH20 0xFFFFFFFFFFFFFFFFFFFFFFFFFFFFFFFFFFFFFFFF AND SWAP1 POP SWAP1 JUMP JUMPDEST PUSH1 0x60 PUSH1 0x1 DUP1 SLOAD PUSH2 0xAB0 SWAP1 PUSH2 0x302E JUMP JUMPDEST DUP1 PUSH1 0x1F ADD PUSH1 0x20 DUP1 SWAP2 DIV MUL PUSH1 0x20 ADD PUSH1 0x40 MLOAD SWAP1 DUP2 ADD PUSH1 0x40 MSTORE DUP1 SWAP3 SWAP2 SWAP1 DUP2 DUP2 MSTORE PUSH1 0x20 ADD DUP3 DUP1 SLOAD PUSH2 0xADC SWAP1 PUSH2 0x302E JUMP JUMPDEST DUP1 ISZERO PUSH2 0xB27 JUMPI DUP1 PUSH1 0x1F LT PUSH2 0xAFE JUMPI PUSH2 0x100 DUP1 DUP4 SLOAD DIV MUL DUP4 MSTORE SWAP2 PUSH1 0x20 ADD SWAP2 PUSH2 0xB27 JUMP JUMPDEST DUP3 ADD SWAP2 SWAP1 PUSH0 MSTORE PUSH1 0x20 PUSH0 KECCAK256 SWAP1 JUMPDEST DUP2 SLOAD DUP2 MSTORE SWAP1 PUSH1 0x1 ADD SWAP1 PUSH1 0x20 ADD DUP1 DUP4 GT PUSH2 0xB0A JUMPI DUP3 SWAP1 SUB PUSH1 0x1F AND DUP3 ADD SWAP2 JUMPDEST POP POP POP POP POP SWAP1 POP SWAP1 JUMP JUMPDEST PUSH1 0xC PUSH0 SWAP1 SLOAD SWAP1 PUSH2 0x100 EXP SWAP1 DIV PUSH20 0xFFFFFFFFFFFFFFFFFFFFFFFFFFFFFFFFFFFFFFFF AND DUP2 JUMP JUMPDEST PUSH2 0xB68 PUSH2 0xB61 PUSH2 0x10E3 JUMP JUMPDEST DUP4 DUP4 PUSH2 0x133D JUMP JUMPDEST POP POP JUMP JUMPDEST PUSH2 0xB77 DUP5 DUP5 DUP5 PUSH2 0x764 JUMP JUMPDEST PUSH2 0xB83 DUP5 DUP5 DUP5 DUP5 PUSH2 0x14A6 JUMP JUMPDEST POP POP POP POP JUMP JUMPDEST PUSH1 0x60 PUSH2 0xB94 DUP3 PUSH2 0x1658 JUMP JUMPDEST SWAP1 POP SWAP2 SWAP1 POP JUMP JUMPDEST PUSH1 0x60 PUSH1 0xC PUSH0 SWAP1 SLOAD SWAP1 PUSH2 0x100 EXP SWAP1 DIV PUSH20 0xFFFFFFFFFFFFFFFFFFFFFFFFFFFFFFFFFFFFFFFF AND PUSH20 0xFFFFFFFFFFFFFFFFFFFFFFFFFFFFFFFFFFFFFFFF AND PUSH4 0x2DF10A68 CALLER PUSH1 0x40 MLOAD DUP3 PUSH4 0xFFFFFFFF AND PUSH1 0xE0 SHL DUP2 MSTORE PUSH1 0x4 ADD PUSH2 0xBF7 SWAP2 SWAP1 PUSH2 0x28A6 JUMP JUMPDEST PUSH0 PUSH1 0x40 MLOAD DUP1 DUP4 SUB DUP2 DUP7 DUP1 EXTCODESIZE ISZERO DUP1 ISZERO PUSH2 0xC0D JUMPI PUSH0 DUP1 REVERT JUMPDEST POP GAS STATICCALL ISZERO DUP1 ISZERO PUSH2 0xC1F JUMPI RETURNDATASIZE PUSH0 DUP1 RETURNDATACOPY RETURNDATASIZE PUSH0 REVERT JUMPDEST POP POP POP POP PUSH0 PUSH2 0xC2C PUSH2 0x6C4 JUMP JUMPDEST SWAP1 POP PUSH1 0xC PUSH0 SWAP1 SLOAD SWAP1 PUSH2 0x100 EXP SWAP1 DIV PUSH20 0xFFFFFFFFFFFFFFFFFFFFFFFFFFFFFFFFFFFFFFFF AND PUSH20 0xFFFFFFFFFFFFFFFFFFFFFFFFFFFFFFFFFFFFFFFF AND PUSH4 0x12646A42 CALLER DUP7 PUSH1 0x40 MLOAD DUP4 PUSH4 0xFFFFFFFF AND PUSH1 0xE0 SHL DUP2 MSTORE PUSH1 0x4 ADD PUSH2 0xC8A SWAP3 SWAP2 SWAP1 PUSH2 0x314F JUMP JUMPDEST PUSH0 PUSH1 0x40 MLOAD DUP1 DUP4 SUB DUP2 DUP7 DUP1 EXTCODESIZE ISZERO DUP1 ISZERO PUSH2 0xCA0 JUMPI PUSH0 DUP1 REVERT JUMPDEST POP GAS STATICCALL ISZERO DUP1 ISZERO PUSH2 0xCB2 JUMPI RETURNDATASIZE PUSH0 DUP1 RETURNDATACOPY RETURNDATASIZE PUSH0 REVERT JUMPDEST POP POP POP POP PUSH1 0xC PUSH0 SWAP1 SLOAD SWAP1 PUSH2 0x100 EXP SWAP1 DIV PUSH20 0xFFFFFFFFFFFFFFFFFFFFFFFFFFFFFFFFFFFFFFFF AND PUSH20 0xFFFFFFFFFFFFFFFFFFFFFFFFFFFFFFFFFFFFFFFF AND PUSH4 0xB2ED737 DUP8 DUP7 DUP7 PUSH1 0x40 MLOAD DUP5 PUSH4 0xFFFFFFFF AND PUSH1 0xE0 SHL DUP2 MSTORE PUSH1 0x4 ADD PUSH2 0xD14 SWAP4 SWAP3 SWAP2 SWAP1 PUSH2 0x317D JUMP JUMPDEST PUSH0 PUSH1 0x40 MLOAD DUP1 DUP4 SUB DUP2 DUP7 DUP1 EXTCODESIZE ISZERO DUP1 ISZERO PUSH2 0xD2A JUMPI PUSH0 DUP1 REVERT JUMPDEST POP GAS STATICCALL ISZERO DUP1 ISZERO PUSH2 0xD3C JUMPI RETURNDATASIZE PUSH0 DUP1 RETURNDATACOPY RETURNDATASIZE PUSH0 REVERT JUMPDEST POP POP POP POP DUP6 PUSH8 0xFFFFFFFFFFFFFFFF DUP2 GT ISZERO PUSH2 0xD5A JUMPI PUSH2 0xD59 PUSH2 0x2982 JUMP JUMPDEST JUMPDEST PUSH1 0x40 MLOAD SWAP1 DUP1 DUP3 MSTORE DUP1 PUSH1 0x20 MUL PUSH1 0x20 ADD DUP3 ADD PUSH1 0x40 MSTORE DUP1 ISZERO PUSH2 0xD88 JUMPI DUP2 PUSH1 0x20 ADD PUSH1 0x20 DUP3 MUL DUP1 CALLDATASIZE DUP4 CALLDATACOPY DUP1 DUP3 ADD SWAP2 POP POP SWAP1 POP JUMPDEST POP SWAP2 POP PUSH0 JUMPDEST DUP7 DUP2 LT ISZERO PUSH2 0xE8F JUMPI PUSH2 0xDAA DUP2 DUP4 PUSH2 0xDA4 SWAP2 SWAP1 PUSH2 0x31ED JUMP JUMPDEST DUP8 PUSH2 0x1763 JUMP JUMPDEST PUSH2 0xDBF CALLER DUP3 DUP5 PUSH2 0xDBA SWAP2 SWAP1 PUSH2 0x31ED JUMP JUMPDEST PUSH2 0x17BD JUMP JUMPDEST PUSH1 0xC PUSH0 SWAP1 SLOAD SWAP1 PUSH2 0x100 EXP SWAP1 DIV PUSH20 0xFFFFFFFFFFFFFFFFFFFFFFFFFFFFFFFFFFFFFFFF AND PUSH20 0xFFFFFFFFFFFFFFFFFFFFFFFFFFFFFFFFFFFFFFFF AND PUSH4 0x27F206FB CALLER DUP4 DUP6 PUSH2 0xE09 SWAP2 SWAP1 PUSH2 0x31ED JUMP JUMPDEST DUP9 DUP9 PUSH1 0x40 MLOAD DUP6 PUSH4 0xFFFFFFFF AND PUSH1 0xE0 SHL DUP2 MSTORE PUSH1 0x4 ADD PUSH2 0xE2A SWAP5 SWAP4 SWAP3 SWAP2 SWAP1 PUSH2 0x3220 JUMP JUMPDEST PUSH0 PUSH1 0x40 MLOAD DUP1 DUP4 SUB DUP2 PUSH0 DUP8 DUP1 EXTCODESIZE ISZERO DUP1 ISZERO PUSH2 0xE41 JUMPI PUSH0 DUP1 REVERT JUMPDEST POP GAS CALL ISZERO DUP1 ISZERO PUSH2 0xE53 JUMPI RETURNDATASIZE PUSH0 DUP1 RETURNDATACOPY RETURNDATASIZE PUSH0 REVERT JUMPDEST POP POP POP POP DUP1 DUP3 PUSH2 0xE63 SWAP2 SWAP1 PUSH2 0x31ED JUMP JUMPDEST DUP4 DUP3 DUP2 MLOAD DUP2 LT PUSH2 0xE76 JUMPI PUSH2 0xE75 PUSH2 0x3122 JUMP JUMPDEST JUMPDEST PUSH1 0x20 MUL PUSH1 0x20 ADD ADD DUP2 DUP2 MSTORE POP POP DUP1 DUP1 PUSH1 0x1 ADD SWAP2 POP POP PUSH2 0xD8D JUMP JUMPDEST POP POP SWAP5 SWAP4 POP POP POP POP JUMP JUMPDEST PUSH0 PUSH1 0x5 PUSH0 DUP5 PUSH20 0xFFFFFFFFFFFFFFFFFFFFFFFFFFFFFFFFFFFFFFFF AND PUSH20 0xFFFFFFFFFFFFFFFFFFFFFFFFFFFFFFFFFFFFFFFF AND DUP2 MSTORE PUSH1 0x20 ADD SWAP1 DUP2 MSTORE PUSH1 0x20 ADD PUSH0 KECCAK256 PUSH0 DUP4 PUSH20 0xFFFFFFFFFFFFFFFFFFFFFFFFFFFFFFFFFFFFFFFF AND PUSH20 0xFFFFFFFFFFFFFFFFFFFFFFFFFFFFFFFFFFFFFFFF AND DUP2 MSTORE PUSH1 0x20 ADD SWAP1 DUP2 MSTORE PUSH1 0x20 ADD PUSH0 KECCAK256 PUSH0 SWAP1 SLOAD SWAP1 PUSH2 0x100 EXP SWAP1 DIV PUSH1 0xFF AND SWAP1 POP SWAP3 SWAP2 POP POP JUMP JUMPDEST PUSH2 0xF2F PUSH2 0x11F3 JUMP JUMPDEST PUSH0 PUSH20 0xFFFFFFFFFFFFFFFFFFFFFFFFFFFFFFFFFFFFFFFF AND DUP2 PUSH20 0xFFFFFFFFFFFFFFFFFFFFFFFFFFFFFFFFFFFFFFFF AND SUB PUSH2 0xF9F JUMPI PUSH0 PUSH1 0x40 MLOAD PUSH32 0x1E4FBDF700000000000000000000000000000000000000000000000000000000 DUP2 MSTORE PUSH1 0x4 ADD PUSH2 0xF96 SWAP2 SWAP1 PUSH2 0x28A6 JUMP JUMPDEST PUSH1 0x40 MLOAD DUP1 SWAP2 SUB SWAP1 REVERT JUMPDEST PUSH2 0xFA8 DUP2 PUSH2 0x127A JUMP JUMPDEST POP JUMP JUMPDEST PUSH0 PUSH32 0x780E9D6300000000000000000000000000000000000000000000000000000000 PUSH28 0xFFFFFFFFFFFFFFFFFFFFFFFFFFFFFFFFFFFFFFFFFFFFFFFFFFFFFFFF NOT AND DUP3 PUSH28 0xFFFFFFFFFFFFFFFFFFFFFFFFFFFFFFFFFFFFFFFFFFFFFFFFFFFFFFFF NOT AND EQ DUP1 PUSH2 0x101D JUMPI POP PUSH2 0x101C DUP3 PUSH2 0x17DA JUMP JUMPDEST JUMPDEST SWAP1 POP SWAP2 SWAP1 POP JUMP JUMPDEST PUSH0 DUP1 PUSH2 0x102F DUP4 PUSH2 0x183A JUMP JUMPDEST SWAP1 POP PUSH0 PUSH20 0xFFFFFFFFFFFFFFFFFFFFFFFFFFFFFFFFFFFFFFFF AND DUP2 PUSH20 0xFFFFFFFFFFFFFFFFFFFFFFFFFFFFFFFFFFFFFFFF AND SUB PUSH2 0x10A1 JUMPI DUP3 PUSH1 0x40 MLOAD PUSH32 0x7E27328900000000000000000000000000000000000000000000000000000000 DUP2 MSTORE PUSH1 0x4 ADD PUSH2 0x1098 SWAP2 SWAP1 PUSH2 0x2961 JUMP JUMPDEST PUSH1 0x40 MLOAD DUP1 SWAP2 SUB SWAP1 REVERT JUMPDEST DUP1 SWAP2 POP POP SWAP2 SWAP1 POP JUMP JUMPDEST PUSH0 PUSH1 0x4 PUSH0 DUP4 DUP2 MSTORE PUSH1 0x20 ADD SWAP1 DUP2 MSTORE PUSH1 0x20 ADD PUSH0 KECCAK256 PUSH0 SWAP1 SLOAD SWAP1 PUSH2 0x100 EXP SWAP1 DIV PUSH20 0xFFFFFFFFFFFFFFFFFFFFFFFFFFFFFFFFFFFFFFFF AND SWAP1 POP SWAP2 SWAP1 POP JUMP JUMPDEST PUSH0 CALLER SWAP1 POP SWAP1 JUMP JUMPDEST PUSH2 0x10F7 DUP4 DUP4 DUP4 PUSH1 0x1 PUSH2 0x1873 JUMP JUMPDEST POP POP POP JUMP JUMPDEST PUSH1 0xC PUSH0 SWAP1 SLOAD SWAP1 PUSH2 0x100 EXP SWAP1 DIV PUSH20 0xFFFFFFFFFFFFFFFFFFFFFFFFFFFFFFFFFFFFFFFF AND PUSH20 0xFFFFFFFFFFFFFFFFFFFFFFFFFFFFFFFFFFFFFFFF AND PUSH4 0x5FCA5B20 DUP5 DUP5 DUP5 PUSH1 0x40 MLOAD DUP5 PUSH4 0xFFFFFFFF AND PUSH1 0xE0 SHL DUP2 MSTORE PUSH1 0x4 ADD PUSH2 0x115A SWAP4 SWAP3 SWAP2 SWAP1 PUSH2 0x3271 JUMP JUMPDEST PUSH1 0x20 PUSH1 0x40 MLOAD DUP1 DUP4 SUB DUP2 PUSH0 DUP8 GAS CALL ISZERO DUP1 ISZERO PUSH2 0x1176 JUMPI RETURNDATASIZE PUSH0 DUP1 RETURNDATACOPY RETURNDATASIZE PUSH0 REVERT JUMPDEST POP POP POP POP PUSH1 0x40 MLOAD RETURNDATASIZE PUSH1 0x1F NOT PUSH1 0x1F DUP3 ADD AND DUP3 ADD DUP1 PUSH1 0x40 MSTORE POP DUP2 ADD SWAP1 PUSH2 0x119A SWAP2 SWAP1 PUSH2 0x32C1 JUMP JUMPDEST PUSH2 0x11D9 JUMPI PUSH1 0x40 MLOAD PUSH32 0x8C379A000000000000000000000000000000000000000000000000000000000 DUP2 MSTORE PUSH1 0x4 ADD PUSH2 0x11D0 SWAP1 PUSH2 0x3336 JUMP JUMPDEST PUSH1 0x40 MLOAD DUP1 SWAP2 SUB SWAP1 REVERT JUMPDEST POP POP POP JUMP JUMPDEST PUSH0 PUSH2 0x11EA DUP5 DUP5 DUP5 PUSH2 0x1A32 JUMP JUMPDEST SWAP1 POP SWAP4 SWAP3 POP POP POP JUMP JUMPDEST PUSH2 0x11FB PUSH2 0x10E3 JUMP JUMPDEST PUSH20 0xFFFFFFFFFFFFFFFFFFFFFFFFFFFFFFFFFFFFFFFF AND PUSH2 0x1219 PUSH2 0xA79 JUMP JUMPDEST PUSH20 0xFFFFFFFFFFFFFFFFFFFFFFFFFFFFFFFFFFFFFFFF AND EQ PUSH2 0x1278 JUMPI PUSH2 0x123C PUSH2 0x10E3 JUMP JUMPDEST PUSH1 0x40 MLOAD PUSH32 0x118CDAA700000000000000000000000000000000000000000000000000000000 DUP2 MSTORE PUSH1 0x4 ADD PUSH2 0x126F SWAP2 SWAP1 PUSH2 0x28A6 JUMP JUMPDEST PUSH1 0x40 MLOAD DUP1 SWAP2 SUB SWAP1 REVERT JUMPDEST JUMP JUMPDEST PUSH0 PUSH1 0xB PUSH0 SWAP1 SLOAD SWAP1 PUSH2 0x100 EXP SWAP1 DIV PUSH20 0xFFFFFFFFFFFFFFFFFFFFFFFFFFFFFFFFFFFFFFFF AND SWAP1 POP DUP2 PUSH1 0xB PUSH0 PUSH2 0x100 EXP DUP2 SLOAD DUP2 PUSH20 0xFFFFFFFFFFFFFFFFFFFFFFFFFFFFFFFFFFFFFFFF MUL NOT AND SWAP1 DUP4 PUSH20 0xFFFFFFFFFFFFFFFFFFFFFFFFFFFFFFFFFFFFFFFF AND MUL OR SWAP1 SSTORE POP DUP2 PUSH20 0xFFFFFFFFFFFFFFFFFFFFFFFFFFFFFFFFFFFFFFFF AND DUP2 PUSH20 0xFFFFFFFFFFFFFFFFFFFFFFFFFFFFFFFFFFFFFFFF AND PUSH32 0x8BE0079C531659141344CD1FD0A4F28419497F9722A3DAAFE3B4186F6B6457E0 PUSH1 0x40 MLOAD PUSH1 0x40 MLOAD DUP1 SWAP2 SUB SWAP1 LOG3 POP POP JUMP JUMPDEST PUSH0 PUSH20 0xFFFFFFFFFFFFFFFFFFFFFFFFFFFFFFFFFFFFFFFF AND DUP3 PUSH20 0xFFFFFFFFFFFFFFFFFFFFFFFFFFFFFFFFFFFFFFFF AND SUB PUSH2 0x13AD JUMPI DUP2 PUSH1 0x40 MLOAD PUSH32 0x5B08BA1800000000000000000000000000000000000000000000000000000000 DUP2 MSTORE PUSH1 0x4 ADD PUSH2 0x13A4 SWAP2 SWAP1 PUSH2 0x28A6 JUMP JUMPDEST PUSH1 0x40 MLOAD DUP1 SWAP2 SUB SWAP1 REVERT JUMPDEST DUP1 PUSH1 0x5 PUSH0 DUP6 PUSH20 0xFFFFFFFFFFFFFFFFFFFFFFFFFFFFFFFFFFFFFFFF AND PUSH20 0xFFFFFFFFFFFFFFFFFFFFFFFFFFFFFFFFFFFFFFFF AND DUP2 MSTORE PUSH1 0x20 ADD SWAP1 DUP2 MSTORE PUSH1 0x20 ADD PUSH0 KECCAK256 PUSH0 DUP5 PUSH20 0xFFFFFFFFFFFFFFFFFFFFFFFFFFFFFFFFFFFFFFFF AND PUSH20 0xFFFFFFFFFFFFFFFFFFFFFFFFFFFFFFFFFFFFFFFF AND DUP2 MSTORE PUSH1 0x20 ADD SWAP1 DUP2 MSTORE PUSH1 0x20 ADD PUSH0 KECCAK256 PUSH0 PUSH2 0x100 EXP DUP2 SLOAD DUP2 PUSH1 0xFF MUL NOT AND SWAP1 DUP4 ISZERO ISZERO MUL OR SWAP1 SSTORE POP DUP2 PUSH20 0xFFFFFFFFFFFFFFFFFFFFFFFFFFFFFFFFFFFFFFFF AND DUP4 PUSH20 0xFFFFFFFFFFFFFFFFFFFFFFFFFFFFFFFFFFFFFFFF AND PUSH32 0x17307EAB39AB6107E8899845AD3D59BD9653F200F220920489CA2B5937696C31 DUP4 PUSH1 0x40 MLOAD PUSH2 0x1499 SWAP2 SWAP1 PUSH2 0x2746 JUMP JUMPDEST PUSH1 0x40 MLOAD DUP1 SWAP2 SUB SWAP1 LOG3 POP POP POP JUMP JUMPDEST PUSH0 DUP4 PUSH20 0xFFFFFFFFFFFFFFFFFFFFFFFFFFFFFFFFFFFFFFFF AND EXTCODESIZE GT ISZERO PUSH2 0x1652 JUMPI DUP3 PUSH20 0xFFFFFFFFFFFFFFFFFFFFFFFFFFFFFFFFFFFFFFFF AND PUSH4 0x150B7A02 PUSH2 0x14E9 PUSH2 0x10E3 JUMP JUMPDEST DUP7 DUP6 DUP6 PUSH1 0x40 MLOAD DUP6 PUSH4 0xFFFFFFFF AND PUSH1 0xE0 SHL DUP2 MSTORE PUSH1 0x4 ADD PUSH2 0x150B SWAP5 SWAP4 SWAP3 SWAP2 SWAP1 PUSH2 0x33A6 JUMP JUMPDEST PUSH1 0x20 PUSH1 0x40 MLOAD DUP1 DUP4 SUB DUP2 PUSH0 DUP8 GAS CALL SWAP3 POP POP POP DUP1 ISZERO PUSH2 0x1546 JUMPI POP PUSH1 0x40 MLOAD RETURNDATASIZE PUSH1 0x1F NOT PUSH1 0x1F DUP3 ADD AND DUP3 ADD DUP1 PUSH1 0x40 MSTORE POP DUP2 ADD SWAP1 PUSH2 0x1543 SWAP2 SWAP1 PUSH2 0x3404 JUMP JUMPDEST PUSH1 0x1 JUMPDEST PUSH2 0x15C7 JUMPI RETURNDATASIZE DUP1 PUSH0 DUP2 EQ PUSH2 0x1574 JUMPI PUSH1 0x40 MLOAD SWAP2 POP PUSH1 0x1F NOT PUSH1 0x3F RETURNDATASIZE ADD AND DUP3 ADD PUSH1 0x40 MSTORE RETURNDATASIZE DUP3 MSTORE RETURNDATASIZE PUSH0 PUSH1 0x20 DUP5 ADD RETURNDATACOPY PUSH2 0x1579 JUMP JUMPDEST PUSH1 0x60 SWAP2 POP JUMPDEST POP PUSH0 DUP2 MLOAD SUB PUSH2 0x15BF JUMPI DUP4 PUSH1 0x40 MLOAD PUSH32 0x64A0AE9200000000000000000000000000000000000000000000000000000000 DUP2 MSTORE PUSH1 0x4 ADD PUSH2 0x15B6 SWAP2 SWAP1 PUSH2 0x28A6 JUMP JUMPDEST PUSH1 0x40 MLOAD DUP1 SWAP2 SUB SWAP1 REVERT JUMPDEST DUP1 MLOAD DUP2 PUSH1 0x20 ADD REVERT JUMPDEST PUSH4 0x150B7A02 PUSH1 0xE0 SHL PUSH28 0xFFFFFFFFFFFFFFFFFFFFFFFFFFFFFFFFFFFFFFFFFFFFFFFFFFFFFFFF NOT AND DUP2 PUSH28 0xFFFFFFFFFFFFFFFFFFFFFFFFFFFFFFFFFFFFFFFFFFFFFFFFFFFFFFFF NOT AND EQ PUSH2 0x1650 JUMPI DUP4 PUSH1 0x40 MLOAD PUSH32 0x64A0AE9200000000000000000000000000000000000000000000000000000000 DUP2 MSTORE PUSH1 0x4 ADD PUSH2 0x1647 SWAP2 SWAP1 PUSH2 0x28A6 JUMP JUMPDEST PUSH1 0x40 MLOAD DUP1 SWAP2 SUB SWAP1 REVERT JUMPDEST POP JUMPDEST POP POP POP POP JUMP JUMPDEST PUSH1 0x60 PUSH2 0x1663 DUP3 PUSH2 0x1024 JUMP JUMPDEST POP PUSH0 PUSH1 0x6 PUSH0 DUP5 DUP2 MSTORE PUSH1 0x20 ADD SWAP1 DUP2 MSTORE PUSH1 0x20 ADD PUSH0 KECCAK256 DUP1 SLOAD PUSH2 0x1681 SWAP1 PUSH2 0x302E JUMP JUMPDEST DUP1 PUSH1 0x1F ADD PUSH1 0x20 DUP1 SWAP2 DIV MUL PUSH1 0x20 ADD PUSH1 0x40 MLOAD SWAP1 DUP2 ADD PUSH1 0x40 MSTORE DUP1 SWAP3 SWAP2 SWAP1 DUP2 DUP2 MSTORE PUSH1 0x20 ADD DUP3 DUP1 SLOAD PUSH2 0x16AD SWAP1 PUSH2 0x302E JUMP JUMPDEST DUP1 ISZERO PUSH2 0x16F8 JUMPI DUP1 PUSH1 0x1F LT PUSH2 0x16CF JUMPI PUSH2 0x100 DUP1 DUP4 SLOAD DIV MUL DUP4 MSTORE SWAP2 PUSH1 0x20 ADD SWAP2 PUSH2 0x16F8 JUMP JUMPDEST DUP3 ADD SWAP2 SWAP1 PUSH0 MSTORE PUSH1 0x20 PUSH0 KECCAK256 SWAP1 JUMPDEST DUP2 SLOAD DUP2 MSTORE SWAP1 PUSH1 0x1 ADD SWAP1 PUSH1 0x20 ADD DUP1 DUP4 GT PUSH2 0x16DB JUMPI DUP3 SWAP1 SUB PUSH1 0x1F AND DUP3 ADD SWAP2 JUMPDEST POP POP POP POP POP SWAP1 POP PUSH0 PUSH2 0x1708 PUSH2 0x1B4C JUMP JUMPDEST SWAP1 POP PUSH0 DUP2 MLOAD SUB PUSH2 0x171C JUMPI DUP2 SWAP3 POP POP POP PUSH2 0x175E JUMP JUMPDEST PUSH0 DUP3 MLOAD GT ISZERO PUSH2 0x1750 JUMPI DUP1 DUP3 PUSH1 0x40 MLOAD PUSH1 0x20 ADD PUSH2 0x1738 SWAP3 SWAP2 SWAP1 PUSH2 0x3469 JUMP JUMPDEST PUSH1 0x40 MLOAD PUSH1 0x20 DUP2 DUP4 SUB SUB DUP2 MSTORE SWAP1 PUSH1 0x40 MSTORE SWAP3 POP POP POP PUSH2 0x175E JUMP JUMPDEST PUSH2 0x1759 DUP5 PUSH2 0x1B62 JUMP JUMPDEST SWAP3 POP POP POP JUMPDEST SWAP2 SWAP1 POP JUMP JUMPDEST DUP1 PUSH1 0x6 PUSH0 DUP5 DUP2 MSTORE PUSH1 0x20 ADD SWAP1 DUP2 MSTORE PUSH1 0x20 ADD PUSH0 KECCAK256 SWAP1 DUP2 PUSH2 0x1781 SWAP2 SWAP1 PUSH2 0x3620 JUMP JUMPDEST POP PUSH32 0xF8E1A15ABA9398E019F0B49DF1A4FDE98EE17AE345CB5F6B5E2C27F5033E8CE7 DUP3 PUSH1 0x40 MLOAD PUSH2 0x17B1 SWAP2 SWAP1 PUSH2 0x2961 JUMP JUMPDEST PUSH1 0x40 MLOAD DUP1 SWAP2 SUB SWAP1 LOG1 POP POP JUMP JUMPDEST PUSH2 0x17D6 DUP3 DUP3 PUSH1 0x40 MLOAD DUP1 PUSH1 0x20 ADD PUSH1 0x40 MSTORE DUP1 PUSH0 DUP2 MSTORE POP PUSH2 0x1BC8 JUMP JUMPDEST POP POP JUMP JUMPDEST PUSH0 PUSH4 0x49064906 PUSH1 0xE0 SHL PUSH28 0xFFFFFFFFFFFFFFFFFFFFFFFFFFFFFFFFFFFFFFFFFFFFFFFFFFFFFFFF NOT AND DUP3 PUSH28 0xFFFFFFFFFFFFFFFFFFFFFFFFFFFFFFFFFFFFFFFFFFFFFFFFFFFFFFFF NOT AND EQ DUP1 PUSH2 0x1833 JUMPI POP PUSH2 0x1832 DUP3 PUSH2 0x1BE3 JUMP JUMPDEST JUMPDEST SWAP1 POP SWAP2 SWAP1 POP JUMP JUMPDEST PUSH0 PUSH1 0x2 PUSH0 DUP4 DUP2 MSTORE PUSH1 0x20 ADD SWAP1 DUP2 MSTORE PUSH1 0x20 ADD PUSH0 KECCAK256 PUSH0 SWAP1 SLOAD SWAP1 PUSH2 0x100 EXP SWAP1 DIV PUSH20 0xFFFFFFFFFFFFFFFFFFFFFFFFFFFFFFFFFFFFFFFF AND SWAP1 POP SWAP2 SWAP1 POP JUMP JUMPDEST DUP1 DUP1 PUSH2 0x18AB JUMPI POP PUSH0 PUSH20 0xFFFFFFFFFFFFFFFFFFFFFFFFFFFFFFFFFFFFFFFF AND DUP3 PUSH20 0xFFFFFFFFFFFFFFFFFFFFFFFFFFFFFFFFFFFFFFFF AND EQ ISZERO JUMPDEST ISZERO PUSH2 0x19DD JUMPI PUSH0 PUSH2 0x18BA DUP5 PUSH2 0x1024 JUMP JUMPDEST SWAP1 POP PUSH0 PUSH20 0xFFFFFFFFFFFFFFFFFFFFFFFFFFFFFFFFFFFFFFFF AND DUP4 PUSH20 0xFFFFFFFFFFFFFFFFFFFFFFFFFFFFFFFFFFFFFFFF AND EQ ISZERO DUP1 ISZERO PUSH2 0x1924 JUMPI POP DUP3 PUSH20 0xFFFFFFFFFFFFFFFFFFFFFFFFFFFFFFFFFFFFFFFF AND DUP2 PUSH20 0xFFFFFFFFFFFFFFFFFFFFFFFFFFFFFFFFFFFFFFFF AND EQ ISZERO JUMPDEST DUP1 ISZERO PUSH2 0x1937 JUMPI POP PUSH2 0x1935 DUP2 DUP5 PUSH2 0xE99 JUMP JUMPDEST ISZERO JUMPDEST ISZERO PUSH2 0x1979 JUMPI DUP3 PUSH1 0x40 MLOAD PUSH32 0xA9FBF51F00000000000000000000000000000000000000000000000000000000 DUP2 MSTORE PUSH1 0x4 ADD PUSH2 0x1970 SWAP2 SWAP1 PUSH2 0x28A6 JUMP JUMPDEST PUSH1 0x40 MLOAD DUP1 SWAP2 SUB SWAP1 REVERT JUMPDEST DUP2 ISZERO PUSH2 0x19DB JUMPI DUP4 DUP6 PUSH20 0xFFFFFFFFFFFFFFFFFFFFFFFFFFFFFFFFFFFFFFFF AND DUP3 PUSH20 0xFFFFFFFFFFFFFFFFFFFFFFFFFFFFFFFFFFFFFFFF AND PUSH32 0x8C5BE1E5EBEC7D5BD14F71427D1E84F3DD0314C0F7B2291E5B200AC8C7C3B925 PUSH1 0x40 MLOAD PUSH1 0x40 MLOAD DUP1 SWAP2 SUB SWAP1 LOG4 JUMPDEST POP JUMPDEST DUP4 PUSH1 0x4 PUSH0 DUP6 DUP2 MSTORE PUSH1 0x20 ADD SWAP1 DUP2 MSTORE PUSH1 0x20 ADD PUSH0 KECCAK256 PUSH0 PUSH2 0x100 EXP DUP2 SLOAD DUP2 PUSH20 0xFFFFFFFFFFFFFFFFFFFFFFFFFFFFFFFFFFFFFFFF MUL NOT AND SWAP1 DUP4 PUSH20 0xFFFFFFFFFFFFFFFFFFFFFFFFFFFFFFFFFFFFFFFF AND MUL OR SWAP1 SSTORE POP POP POP POP POP JUMP JUMPDEST PUSH0 DUP1 PUSH2 0x1A3F DUP6 DUP6 DUP6 PUSH2 0x1CC4 JUMP JUMPDEST SWAP1 POP PUSH0 PUSH20 0xFFFFFFFFFFFFFFFFFFFFFFFFFFFFFFFFFFFFFFFF AND DUP2 PUSH20 0xFFFFFFFFFFFFFFFFFFFFFFFFFFFFFFFFFFFFFFFF AND SUB PUSH2 0x1A82 JUMPI PUSH2 0x1A7D DUP5 PUSH2 0x1ECF JUMP JUMPDEST PUSH2 0x1AC1 JUMP JUMPDEST DUP5 PUSH20 0xFFFFFFFFFFFFFFFFFFFFFFFFFFFFFFFFFFFFFFFF AND DUP2 PUSH20 0xFFFFFFFFFFFFFFFFFFFFFFFFFFFFFFFFFFFFFFFF AND EQ PUSH2 0x1AC0 JUMPI PUSH2 0x1ABF DUP2 DUP6 PUSH2 0x1F13 JUMP JUMPDEST JUMPDEST JUMPDEST PUSH0 PUSH20 0xFFFFFFFFFFFFFFFFFFFFFFFFFFFFFFFFFFFFFFFF AND DUP6 PUSH20 0xFFFFFFFFFFFFFFFFFFFFFFFFFFFFFFFFFFFFFFFF AND SUB PUSH2 0x1B02 JUMPI PUSH2 0x1AFD DUP5 PUSH2 0x205D JUMP JUMPDEST PUSH2 0x1B41 JUMP JUMPDEST DUP5 PUSH20 0xFFFFFFFFFFFFFFFFFFFFFFFFFFFFFFFFFFFFFFFF AND DUP2 PUSH20 0xFFFFFFFFFFFFFFFFFFFFFFFFFFFFFFFFFFFFFFFF AND EQ PUSH2 0x1B40 JUMPI PUSH2 0x1B3F DUP6 DUP6 PUSH2 0x211D JUMP JUMPDEST JUMPDEST JUMPDEST DUP1 SWAP2 POP POP SWAP4 SWAP3 POP POP POP JUMP JUMPDEST PUSH1 0x60 PUSH1 0x40 MLOAD DUP1 PUSH1 0x20 ADD PUSH1 0x40 MSTORE DUP1 PUSH0 DUP2 MSTORE POP SWAP1 POP SWAP1 JUMP JUMPDEST PUSH1 0x60 PUSH2 0x1B6D DUP3 PUSH2 0x1024 JUMP JUMPDEST POP PUSH0 PUSH2 0x1B77 PUSH2 0x1B4C JUMP JUMPDEST SWAP1 POP PUSH0 DUP2 MLOAD GT PUSH2 0x1B95 JUMPI PUSH1 0x40 MLOAD DUP1 PUSH1 0x20 ADD PUSH1 0x40 MSTORE DUP1 PUSH0 DUP2 MSTORE POP PUSH2 0x1BC0 JUMP JUMPDEST DUP1 PUSH2 0x1B9F DUP5 PUSH2 0x21A1 JUMP JUMPDEST PUSH1 0x40 MLOAD PUSH1 0x20 ADD PUSH2 0x1BB0 SWAP3 SWAP2 SWAP1 PUSH2 0x3469 JUMP JUMPDEST PUSH1 0x40 MLOAD PUSH1 0x20 DUP2 DUP4 SUB SUB DUP2 MSTORE SWAP1 PUSH1 0x40 MSTORE JUMPDEST SWAP2 POP POP SWAP2 SWAP1 POP JUMP JUMPDEST PUSH2 0x1BD2 DUP4 DUP4 PUSH2 0x226B JUMP JUMPDEST PUSH2 0x1BDE PUSH0 DUP5 DUP5 DUP5 PUSH2 0x14A6 JUMP JUMPDEST POP POP POP JUMP JUMPDEST PUSH0 PUSH32 0x80AC58CD00000000000000000000000000000000000000000000000000000000 PUSH28 0xFFFFFFFFFFFFFFFFFFFFFFFFFFFFFFFFFFFFFFFFFFFFFFFFFFFFFFFF NOT AND DUP3 PUSH28 0xFFFFFFFFFFFFFFFFFFFFFFFFFFFFFFFFFFFFFFFFFFFFFFFFFFFFFFFF NOT AND EQ DUP1 PUSH2 0x1CAD JUMPI POP PUSH32 0x5B5E139F00000000000000000000000000000000000000000000000000000000 PUSH28 0xFFFFFFFFFFFFFFFFFFFFFFFFFFFFFFFFFFFFFFFFFFFFFFFFFFFFFFFF NOT AND DUP3 PUSH28 0xFFFFFFFFFFFFFFFFFFFFFFFFFFFFFFFFFFFFFFFFFFFFFFFFFFFFFFFF NOT AND EQ JUMPDEST DUP1 PUSH2 0x1CBD JUMPI POP PUSH2 0x1CBC DUP3 PUSH2 0x235E JUMP JUMPDEST JUMPDEST SWAP1 POP SWAP2 SWAP1 POP JUMP JUMPDEST PUSH0 DUP1 PUSH2 0x1CCF DUP5 PUSH2 0x183A JUMP JUMPDEST SWAP1 POP PUSH0 PUSH20 0xFFFFFFFFFFFFFFFFFFFFFFFFFFFFFFFFFFFFFFFF AND DUP4 PUSH20 0xFFFFFFFFFFFFFFFFFFFFFFFFFFFFFFFFFFFFFFFF AND EQ PUSH2 0x1D10 JUMPI PUSH2 0x1D0F DUP2 DUP5 DUP7 PUSH2 0x23C7 JUMP JUMPDEST JUMPDEST PUSH0 PUSH20 0xFFFFFFFFFFFFFFFFFFFFFFFFFFFFFFFFFFFFFFFF AND DUP2 PUSH20 0xFFFFFFFFFFFFFFFFFFFFFFFFFFFFFFFFFFFFFFFF AND EQ PUSH2 0x1D9B JUMPI PUSH2 0x1D4F PUSH0 DUP6 PUSH0 DUP1 PUSH2 0x1873 JUMP JUMPDEST PUSH1 0x1 PUSH1 0x3 PUSH0 DUP4 PUSH20 0xFFFFFFFFFFFFFFFFFFFFFFFFFFFFFFFFFFFFFFFF AND PUSH20 0xFFFFFFFFFFFFFFFFFFFFFFFFFFFFFFFFFFFFFFFF AND DUP2 MSTORE PUSH1 0x20 ADD SWAP1 DUP2 MSTORE PUSH1 0x20 ADD PUSH0 KECCAK256 PUSH0 DUP3 DUP3 SLOAD SUB SWAP3 POP POP DUP2 SWAP1 SSTORE POP JUMPDEST PUSH0 PUSH20 0xFFFFFFFFFFFFFFFFFFFFFFFFFFFFFFFFFFFFFFFF AND DUP6 PUSH20 0xFFFFFFFFFFFFFFFFFFFFFFFFFFFFFFFFFFFFFFFF AND EQ PUSH2 0x1E1A JUMPI PUSH1 0x1 PUSH1 0x3 PUSH0 DUP8 PUSH20 0xFFFFFFFFFFFFFFFFFFFFFFFFFFFFFFFFFFFFFFFF AND PUSH20 0xFFFFFFFFFFFFFFFFFFFFFFFFFFFFFFFFFFFFFFFF AND DUP2 MSTORE PUSH1 0x20 ADD SWAP1 DUP2 MSTORE PUSH1 0x20 ADD PUSH0 KECCAK256 PUSH0 DUP3 DUP3 SLOAD ADD SWAP3 POP POP DUP2 SWAP1 SSTORE POP JUMPDEST DUP5 PUSH1 0x2 PUSH0 DUP7 DUP2 MSTORE PUSH1 0x20 ADD SWAP1 DUP2 MSTORE PUSH1 0x20 ADD PUSH0 KECCAK256 PUSH0 PUSH2 0x100 EXP DUP2 SLOAD DUP2 PUSH20 0xFFFFFFFFFFFFFFFFFFFFFFFFFFFFFFFFFFFFFFFF MUL NOT AND SWAP1 DUP4 PUSH20 0xFFFFFFFFFFFFFFFFFFFFFFFFFFFFFFFFFFFFFFFF AND MUL OR SWAP1 SSTORE POP DUP4 DUP6 PUSH20 0xFFFFFFFFFFFFFFFFFFFFFFFFFFFFFFFFFFFFFFFF AND DUP3 PUSH20 0xFFFFFFFFFFFFFFFFFFFFFFFFFFFFFFFFFFFFFFFF AND PUSH32 0xDDF252AD1BE2C89B69C2B068FC378DAA952BA7F163C4A11628F55A4DF523B3EF PUSH1 0x40 MLOAD PUSH1 0x40 MLOAD DUP1 SWAP2 SUB SWAP1 LOG4 DUP1 SWAP2 POP POP SWAP4 SWAP3 POP POP POP JUMP JUMPDEST PUSH1 0x9 DUP1 SLOAD SWAP1 POP PUSH1 0xA PUSH0 DUP4 DUP2 MSTORE PUSH1 0x20 ADD SWAP1 DUP2 MSTORE PUSH1 0x20 ADD PUSH0 KECCAK256 DUP2 SWAP1 SSTORE POP PUSH1 0x9 DUP2 SWAP1 DUP1 PUSH1 0x1 DUP2 SLOAD ADD DUP1 DUP3 SSTORE DUP1 SWAP2 POP POP PUSH1 0x1 SWAP1 SUB SWAP1 PUSH0 MSTORE PUSH1 0x20 PUSH0 KECCAK256 ADD PUSH0 SWAP1 SWAP2 SWAP1 SWAP2 SWAP1 SWAP2 POP SSTORE POP JUMP JUMPDEST PUSH0 PUSH2 0x1F1D DUP4 PUSH2 0x9B0 JUMP JUMPDEST SWAP1 POP PUSH0 PUSH1 0x8 PUSH0 DUP5 DUP2 MSTORE PUSH1 0x20 ADD SWAP1 DUP2 MSTORE PUSH1 0x20 ADD PUSH0 KECCAK256 SLOAD SWAP1 POP DUP2 DUP2 EQ PUSH2 0x1FF4 JUMPI PUSH0 PUSH1 0x7 PUSH0 DUP7 PUSH20 0xFFFFFFFFFFFFFFFFFFFFFFFFFFFFFFFFFFFFFFFF AND PUSH20 0xFFFFFFFFFFFFFFFFFFFFFFFFFFFFFFFFFFFFFFFF AND DUP2 MSTORE PUSH1 0x20 ADD SWAP1 DUP2 MSTORE PUSH1 0x20 ADD PUSH0 KECCAK256 PUSH0 DUP5 DUP2 MSTORE PUSH1 0x20 ADD SWAP1 DUP2 MSTORE PUSH1 0x20 ADD PUSH0 KECCAK256 SLOAD SWAP1 POP DUP1 PUSH1 0x7 PUSH0 DUP8 PUSH20 0xFFFFFFFFFFFFFFFFFFFFFFFFFFFFFFFFFFFFFFFF AND PUSH20 0xFFFFFFFFFFFFFFFFFFFFFFFFFFFFFFFFFFFFFFFF AND DUP2 MSTORE PUSH1 0x20 ADD SWAP1 DUP2 MSTORE PUSH1 0x20 ADD PUSH0 KECCAK256 PUSH0 DUP5 DUP2 MSTORE PUSH1 0x20 ADD SWAP1 DUP2 MSTORE PUSH1 0x20 ADD PUSH0 KECCAK256 DUP2 SWAP1 SSTORE POP DUP2 PUSH1 0x8 PUSH0 DUP4 DUP2 MSTORE PUSH1 0x20 ADD SWAP1 DUP2 MSTORE PUSH1 0x20 ADD PUSH0 KECCAK256 DUP2 SWAP1 SSTORE POP POP JUMPDEST PUSH1 0x8 PUSH0 DUP5 DUP2 MSTORE PUSH1 0x20 ADD SWAP1 DUP2 MSTORE PUSH1 0x20 ADD PUSH0 KECCAK256 PUSH0 SWAP1 SSTORE PUSH1 0x7 PUSH0 DUP6 PUSH20 0xFFFFFFFFFFFFFFFFFFFFFFFFFFFFFFFFFFFFFFFF AND PUSH20 0xFFFFFFFFFFFFFFFFFFFFFFFFFFFFFFFFFFFFFFFF AND DUP2 MSTORE PUSH1 0x20 ADD SWAP1 DUP2 MSTORE PUSH1 0x20 ADD PUSH0 KECCAK256 PUSH0 DUP4 DUP2 MSTORE PUSH1 0x20 ADD SWAP1 DUP2 MSTORE PUSH1 0x20 ADD PUSH0 KECCAK256 PUSH0 SWAP1 SSTORE POP POP POP POP JUMP JUMPDEST PUSH0 PUSH1 0x1 PUSH1 0x9 DUP1 SLOAD SWAP1 POP PUSH2 0x2070 SWAP2 SWAP1 PUSH2 0x36EF JUMP JUMPDEST SWAP1 POP PUSH0 PUSH1 0xA PUSH0 DUP5 DUP2 MSTORE PUSH1 0x20 ADD SWAP1 DUP2 MSTORE PUSH1 0x20 ADD PUSH0 KECCAK256 SLOAD SWAP1 POP PUSH0 PUSH1 0x9 DUP4 DUP2 SLOAD DUP2 LT PUSH2 0x209C JUMPI PUSH2 0x209B PUSH2 0x3122 JUMP JUMPDEST JUMPDEST SWAP1 PUSH0 MSTORE PUSH1 0x20 PUSH0 KECCAK256 ADD SLOAD SWAP1 POP DUP1 PUSH1 0x9 DUP4 DUP2 SLOAD DUP2 LT PUSH2 0x20BC JUMPI PUSH2 0x20BB PUSH2 0x3122 JUMP JUMPDEST JUMPDEST SWAP1 PUSH0 MSTORE PUSH1 0x20 PUSH0 KECCAK256 ADD DUP2 SWAP1 SSTORE POP DUP2 PUSH1 0xA PUSH0 DUP4 DUP2 MSTORE PUSH1 0x20 ADD SWAP1 DUP2 MSTORE PUSH1 0x20 ADD PUSH0 KECCAK256 DUP2 SWAP1 SSTORE POP PUSH1 0xA PUSH0 DUP6 DUP2 MSTORE PUSH1 0x20 ADD SWAP1 DUP2 MSTORE PUSH1 0x20 ADD PUSH0 KECCAK256 PUSH0 SWAP1 SSTORE PUSH1 0x9 DUP1 SLOAD DUP1 PUSH2 0x2104 JUMPI PUSH2 0x2103 PUSH2 0x3722 JUMP JUMPDEST JUMPDEST PUSH1 0x1 SWAP1 SUB DUP2 DUP2 SWAP1 PUSH0 MSTORE PUSH1 0x20 PUSH0 KECCAK256 ADD PUSH0 SWAP1 SSTORE SWAP1 SSTORE POP POP POP POP JUMP JUMPDEST PUSH0 PUSH1 0x1 PUSH2 0x2129 DUP5 PUSH2 0x9B0 JUMP JUMPDEST PUSH2 0x2133 SWAP2 SWAP1 PUSH2 0x36EF JUMP JUMPDEST SWAP1 POP DUP2 PUSH1 0x7 PUSH0 DUP6 PUSH20 0xFFFFFFFFFFFFFFFFFFFFFFFFFFFFFFFFFFFFFFFF AND PUSH20 0xFFFFFFFFFFFFFFFFFFFFFFFFFFFFFFFFFFFFFFFF AND DUP2 MSTORE PUSH1 0x20 ADD SWAP1 DUP2 MSTORE PUSH1 0x20 ADD PUSH0 KECCAK256 PUSH0 DUP4 DUP2 MSTORE PUSH1 0x20 ADD SWAP1 DUP2 MSTORE PUSH1 0x20 ADD PUSH0 KECCAK256 DUP2 SWAP1 SSTORE POP DUP1 PUSH1 0x8 PUSH0 DUP5 DUP2 MSTORE PUSH1 0x20 ADD SWAP1 DUP2 MSTORE PUSH1 0x20 ADD PUSH0 KECCAK256 DUP2 SWAP1 SSTORE POP POP POP POP JUMP JUMPDEST PUSH1 0x60 PUSH0 PUSH1 0x1 PUSH2 0x21AF DUP5 PUSH2 0x248A JUMP JUMPDEST ADD SWAP1 POP PUSH0 DUP2 PUSH8 0xFFFFFFFFFFFFFFFF DUP2 GT ISZERO PUSH2 0x21CD JUMPI PUSH2 0x21CC PUSH2 0x2982 JUMP JUMPDEST JUMPDEST PUSH1 0x40 MLOAD SWAP1 DUP1 DUP3 MSTORE DUP1 PUSH1 0x1F ADD PUSH1 0x1F NOT AND PUSH1 0x20 ADD DUP3 ADD PUSH1 0x40 MSTORE DUP1 ISZERO PUSH2 0x21FF JUMPI DUP2 PUSH1 0x20 ADD PUSH1 0x1 DUP3 MUL DUP1 CALLDATASIZE DUP4 CALLDATACOPY DUP1 DUP3 ADD SWAP2 POP POP SWAP1 POP JUMPDEST POP SWAP1 POP PUSH0 DUP3 PUSH1 0x20 ADD DUP3 ADD SWAP1 POP JUMPDEST PUSH1 0x1 ISZERO PUSH2 0x2260 JUMPI DUP1 DUP1 PUSH1 0x1 SWAP1 SUB SWAP2 POP POP PUSH32 0x3031323334353637383961626364656600000000000000000000000000000000 PUSH1 0xA DUP7 MOD BYTE DUP2 MSTORE8 PUSH1 0xA DUP6 DUP2 PUSH2 0x2255 JUMPI PUSH2 0x2254 PUSH2 0x374F JUMP JUMPDEST JUMPDEST DIV SWAP5 POP PUSH0 DUP6 SUB PUSH2 0x220C JUMPI JUMPDEST DUP2 SWAP4 POP POP POP POP SWAP2 SWAP1 POP JUMP JUMPDEST PUSH0 PUSH20 0xFFFFFFFFFFFFFFFFFFFFFFFFFFFFFFFFFFFFFFFF AND DUP3 PUSH20 0xFFFFFFFFFFFFFFFFFFFFFFFFFFFFFFFFFFFFFFFF AND SUB PUSH2 0x22DB JUMPI PUSH0 PUSH1 0x40 MLOAD PUSH32 0x64A0AE9200000000000000000000000000000000000000000000000000000000 DUP2 MSTORE PUSH1 0x4 ADD PUSH2 0x22D2 SWAP2 SWAP1 PUSH2 0x28A6 JUMP JUMPDEST PUSH1 0x40 MLOAD DUP1 SWAP2 SUB SWAP1 REVERT JUMPDEST PUSH0 PUSH2 0x22E7 DUP4 DUP4 PUSH0 PUSH2 0x11DE JUMP JUMPDEST SWAP1 POP PUSH0 PUSH20 0xFFFFFFFFFFFFFFFFFFFFFFFFFFFFFFFFFFFFFFFF AND DUP2 PUSH20 0xFFFFFFFFFFFFFFFFFFFFFFFFFFFFFFFFFFFFFFFF AND EQ PUSH2 0x2359 JUMPI PUSH0 PUSH1 0x40 MLOAD PUSH32 0x73C6AC6E00000000000000000000000000000000000000000000000000000000 DUP2 MSTORE PUSH1 0x4 ADD PUSH2 0x2350 SWAP2 SWAP1 PUSH2 0x28A6 JUMP JUMPDEST PUSH1 0x40 MLOAD DUP1 SWAP2 SUB SWAP1 REVERT JUMPDEST POP POP POP JUMP JUMPDEST PUSH0 PUSH32 0x1FFC9A700000000000000000000000000000000000000000000000000000000 PUSH28 0xFFFFFFFFFFFFFFFFFFFFFFFFFFFFFFFFFFFFFFFFFFFFFFFFFFFFFFFF NOT AND DUP3 PUSH28 0xFFFFFFFFFFFFFFFFFFFFFFFFFFFFFFFFFFFFFFFFFFFFFFFFFFFFFFFF NOT AND EQ SWAP1 POP SWAP2 SWAP1 POP JUMP JUMPDEST PUSH2 0x23D2 DUP4 DUP4 DUP4 PUSH2 0x25DB JUMP JUMPDEST PUSH2 0x2485 JUMPI PUSH0 PUSH20 0xFFFFFFFFFFFFFFFFFFFFFFFFFFFFFFFFFFFFFFFF AND DUP4 PUSH20 0xFFFFFFFFFFFFFFFFFFFFFFFFFFFFFFFFFFFFFFFF AND SUB PUSH2 0x2446 JUMPI DUP1 PUSH1 0x40 MLOAD PUSH32 0x7E27328900000000000000000000000000000000000000000000000000000000 DUP2 MSTORE PUSH1 0x4 ADD PUSH2 0x243D SWAP2 SWAP1 PUSH2 0x2961 JUMP JUMPDEST PUSH1 0x40 MLOAD DUP1 SWAP2 SUB SWAP1 REVERT JUMPDEST DUP2 DUP2 PUSH1 0x40 MLOAD PUSH32 0x177E802F00000000000000000000000000000000000000000000000000000000 DUP2 MSTORE PUSH1 0x4 ADD PUSH2 0x247C SWAP3 SWAP2 SWAP1 PUSH2 0x30FB JUMP JUMPDEST PUSH1 0x40 MLOAD DUP1 SWAP2 SUB SWAP1 REVERT JUMPDEST POP POP POP JUMP JUMPDEST PUSH0 DUP1 PUSH0 SWAP1 POP PUSH27 0x184F03E93FF9F4DAA797ED6E38ED64BF6A1F010000000000000000 DUP4 LT PUSH2 0x24E6 JUMPI PUSH27 0x184F03E93FF9F4DAA797ED6E38ED64BF6A1F010000000000000000 DUP4 DUP2 PUSH2 0x24DC JUMPI PUSH2 0x24DB PUSH2 0x374F JUMP JUMPDEST JUMPDEST DIV SWAP3 POP PUSH1 0x40 DUP2 ADD SWAP1 POP JUMPDEST PUSH14 0x4EE2D6D415B85ACEF8100000000 DUP4 LT PUSH2 0x2523 JUMPI PUSH14 0x4EE2D6D415B85ACEF8100000000 DUP4 DUP2 PUSH2 0x2519 JUMPI PUSH2 0x2518 PUSH2 0x374F JUMP JUMPDEST JUMPDEST DIV SWAP3 POP PUSH1 0x20 DUP2 ADD SWAP1 POP JUMPDEST PUSH7 0x2386F26FC10000 DUP4 LT PUSH2 0x2552 JUMPI PUSH7 0x2386F26FC10000 DUP4 DUP2 PUSH2 0x2548 JUMPI PUSH2 0x2547 PUSH2 0x374F JUMP JUMPDEST JUMPDEST DIV SWAP3 POP PUSH1 0x10 DUP2 ADD SWAP1 POP JUMPDEST PUSH4 0x5F5E100 DUP4 LT PUSH2 0x257B JUMPI PUSH4 0x5F5E100 DUP4 DUP2 PUSH2 0x2571 JUMPI PUSH2 0x2570 PUSH2 0x374F JUMP JUMPDEST JUMPDEST DIV SWAP3 POP PUSH1 0x8 DUP2 ADD SWAP1 POP JUMPDEST PUSH2 0x2710 DUP4 LT PUSH2 0x25A0 JUMPI PUSH2 0x2710 DUP4 DUP2 PUSH2 0x2596 JUMPI PUSH2 0x2595 PUSH2 0x374F JUMP JUMPDEST JUMPDEST DIV SWAP3 POP PUSH1 0x4 DUP2 ADD SWAP1 POP JUMPDEST PUSH1 0x64 DUP4 LT PUSH2 0x25C3 JUMPI PUSH1 0x64 DUP4 DUP2 PUSH2 0x25B9 JUMPI PUSH2 0x25B8 PUSH2 0x374F JUMP JUMPDEST JUMPDEST DIV SWAP3 POP PUSH1 0x2 DUP2 ADD SWAP1 POP JUMPDEST PUSH1 0xA DUP4 LT PUSH2 0x25D2 JUMPI PUSH1 0x1 DUP2 ADD SWAP1 POP JUMPDEST DUP1 SWAP2 POP POP SWAP2 SWAP1 POP JUMP JUMPDEST PUSH0 DUP1 PUSH20 0xFFFFFFFFFFFFFFFFFFFFFFFFFFFFFFFFFFFFFFFF AND DUP4 PUSH20 0xFFFFFFFFFFFFFFFFFFFFFFFFFFFFFFFFFFFFFFFF AND EQ ISZERO DUP1 ISZERO PUSH2 0x2692 JUMPI POP DUP3 PUSH20 0xFFFFFFFFFFFFFFFFFFFFFFFFFFFFFFFFFFFFFFFF AND DUP5 PUSH20 0xFFFFFFFFFFFFFFFFFFFFFFFFFFFFFFFFFFFFFFFF AND EQ DUP1 PUSH2 0x2653 JUMPI POP PUSH2 0x2652 DUP5 DUP5 PUSH2 0xE99 JUMP JUMPDEST JUMPDEST DUP1 PUSH2 0x2691 JUMPI POP DUP3 PUSH20 0xFFFFFFFFFFFFFFFFFFFFFFFFFFFFFFFFFFFFFFFF AND PUSH2 0x2679 DUP4 PUSH2 0x10AA JUMP JUMPDEST PUSH20 0xFFFFFFFFFFFFFFFFFFFFFFFFFFFFFFFFFFFFFFFF AND EQ JUMPDEST JUMPDEST SWAP1 POP SWAP4 SWAP3 POP POP POP JUMP JUMPDEST PUSH0 PUSH1 0x40 MLOAD SWAP1 POP SWAP1 JUMP JUMPDEST PUSH0 DUP1 REVERT JUMPDEST PUSH0 DUP1 REVERT JUMPDEST PUSH0 PUSH32 0xFFFFFFFF00000000000000000000000000000000000000000000000000000000 DUP3 AND SWAP1 POP SWAP2 SWAP1 POP JUMP JUMPDEST PUSH2 0x26E0 DUP2 PUSH2 0x26AC JUMP JUMPDEST DUP2 EQ PUSH2 0x26EA JUMPI PUSH0 DUP1 REVERT JUMPDEST POP JUMP JUMPDEST PUSH0 DUP2 CALLDATALOAD SWAP1 POP PUSH2 0x26FB DUP2 PUSH2 0x26D7 JUMP JUMPDEST SWAP3 SWAP2 POP POP JUMP JUMPDEST PUSH0 PUSH1 0x20 DUP3 DUP5 SUB SLT ISZERO PUSH2 0x2716 JUMPI PUSH2 0x2715 PUSH2 0x26A4 JUMP JUMPDEST JUMPDEST PUSH0 PUSH2 0x2723 DUP5 DUP3 DUP6 ADD PUSH2 0x26ED JUMP JUMPDEST SWAP2 POP POP SWAP3 SWAP2 POP POP JUMP JUMPDEST PUSH0 DUP2 ISZERO ISZERO SWAP1 POP SWAP2 SWAP1 POP JUMP JUMPDEST PUSH2 0x2740 DUP2 PUSH2 0x272C JUMP JUMPDEST DUP3 MSTORE POP POP JUMP JUMPDEST PUSH0 PUSH1 0x20 DUP3 ADD SWAP1 POP PUSH2 0x2759 PUSH0 DUP4 ADD DUP5 PUSH2 0x2737 JUMP JUMPDEST SWAP3 SWAP2 POP POP JUMP JUMPDEST PUSH0 DUP2 MLOAD SWAP1 POP SWAP2 SWAP1 POP JUMP JUMPDEST PUSH0 DUP3 DUP3 MSTORE PUSH1 0x20 DUP3 ADD SWAP1 POP SWAP3 SWAP2 POP POP JUMP JUMPDEST PUSH0 JUMPDEST DUP4 DUP2 LT ISZERO PUSH2 0x2796 JUMPI DUP1 DUP3 ADD MLOAD DUP2 DUP5 ADD MSTORE PUSH1 0x20 DUP2 ADD SWAP1 POP PUSH2 0x277B JUMP JUMPDEST PUSH0 DUP5 DUP5 ADD MSTORE POP POP POP POP JUMP JUMPDEST PUSH0 PUSH1 0x1F NOT PUSH1 0x1F DUP4 ADD AND SWAP1 POP SWAP2 SWAP1 POP JUMP JUMPDEST PUSH0 PUSH2 0x27BB DUP3 PUSH2 0x275F JUMP JUMPDEST PUSH2 0x27C5 DUP2 DUP6 PUSH2 0x2769 JUMP JUMPDEST SWAP4 POP PUSH2 0x27D5 DUP2 DUP6 PUSH1 0x20 DUP7 ADD PUSH2 0x2779 JUMP JUMPDEST PUSH2 0x27DE DUP2 PUSH2 0x27A1 JUMP JUMPDEST DUP5 ADD SWAP2 POP POP SWAP3 SWAP2 POP POP JUMP JUMPDEST PUSH0 PUSH1 0x20 DUP3 ADD SWAP1 POP DUP2 DUP2 SUB PUSH0 DUP4 ADD MSTORE PUSH2 0x2801 DUP2 DUP5 PUSH2 0x27B1 JUMP JUMPDEST SWAP1 POP SWAP3 SWAP2 POP POP JUMP JUMPDEST PUSH0 DUP2 SWAP1 POP SWAP2 SWAP1 POP JUMP JUMPDEST PUSH2 0x281B DUP2 PUSH2 0x2809 JUMP JUMPDEST DUP2 EQ PUSH2 0x2825 JUMPI PUSH0 DUP1 REVERT JUMPDEST POP JUMP JUMPDEST PUSH0 DUP2 CALLDATALOAD SWAP1 POP PUSH2 0x2836 DUP2 PUSH2 0x2812 JUMP JUMPDEST SWAP3 SWAP2 POP POP JUMP JUMPDEST PUSH0 PUSH1 0x20 DUP3 DUP5 SUB SLT ISZERO PUSH2 0x2851 JUMPI PUSH2 0x2850 PUSH2 0x26A4 JUMP JUMPDEST JUMPDEST PUSH0 PUSH2 0x285E DUP5 DUP3 DUP6 ADD PUSH2 0x2828 JUMP JUMPDEST SWAP2 POP POP SWAP3 SWAP2 POP POP JUMP JUMPDEST PUSH0 PUSH20 0xFFFFFFFFFFFFFFFFFFFFFFFFFFFFFFFFFFFFFFFF DUP3 AND SWAP1 POP SWAP2 SWAP1 POP JUMP JUMPDEST PUSH0 PUSH2 0x2890 DUP3 PUSH2 0x2867 JUMP JUMPDEST SWAP1 POP SWAP2 SWAP1 POP JUMP JUMPDEST PUSH2 0x28A0 DUP2 PUSH2 0x2886 JUMP JUMPDEST DUP3 MSTORE POP POP JUMP JUMPDEST PUSH0 PUSH1 0x20 DUP3 ADD SWAP1 POP PUSH2 0x28B9 PUSH0 DUP4 ADD DUP5 PUSH2 0x2897 JUMP JUMPDEST SWAP3 SWAP2 POP POP JUMP JUMPDEST PUSH2 0x28C8 DUP2 PUSH2 0x2886 JUMP JUMPDEST DUP2 EQ PUSH2 0x28D2 JUMPI PUSH0 DUP1 REVERT JUMPDEST POP JUMP JUMPDEST PUSH0 DUP2 CALLDATALOAD SWAP1 POP PUSH2 0x28E3 DUP2 PUSH2 0x28BF JUMP JUMPDEST SWAP3 SWAP2 POP POP JUMP JUMPDEST PUSH0 DUP1 PUSH1 0x40 DUP4 DUP6 SUB SLT ISZERO PUSH2 0x28FF JUMPI PUSH2 0x28FE PUSH2 0x26A4 JUMP JUMPDEST JUMPDEST PUSH0 PUSH2 0x290C DUP6 DUP3 DUP7 ADD PUSH2 0x28D5 JUMP JUMPDEST SWAP3 POP POP PUSH1 0x20 PUSH2 0x291D DUP6 DUP3 DUP7 ADD PUSH2 0x2828 JUMP JUMPDEST SWAP2 POP POP SWAP3 POP SWAP3 SWAP1 POP JUMP JUMPDEST PUSH0 PUSH1 0x20 DUP3 DUP5 SUB SLT ISZERO PUSH2 0x293C JUMPI PUSH2 0x293B PUSH2 0x26A4 JUMP JUMPDEST JUMPDEST PUSH0 PUSH2 0x2949 DUP5 DUP3 DUP6 ADD PUSH2 0x28D5 JUMP JUMPDEST SWAP2 POP POP SWAP3 SWAP2 POP POP JUMP JUMPDEST PUSH2 0x295B DUP2 PUSH2 0x2809 JUMP JUMPDEST DUP3 MSTORE POP POP JUMP JUMPDEST PUSH0 PUSH1 0x20 DUP3 ADD SWAP1 POP PUSH2 0x2974 PUSH0 DUP4 ADD DUP5 PUSH2 0x2952 JUMP JUMPDEST SWAP3 SWAP2 POP POP JUMP JUMPDEST PUSH0 DUP1 REVERT JUMPDEST PUSH0 DUP1 REVERT JUMPDEST PUSH32 0x4E487B7100000000000000000000000000000000000000000000000000000000 PUSH0 MSTORE PUSH1 0x41 PUSH1 0x4 MSTORE PUSH1 0x24 PUSH0 REVERT JUMPDEST PUSH2 0x29B8 DUP3 PUSH2 0x27A1 JUMP JUMPDEST DUP2 ADD DUP2 DUP2 LT PUSH8 0xFFFFFFFFFFFFFFFF DUP3 GT OR ISZERO PUSH2 0x29D7 JUMPI PUSH2 0x29D6 PUSH2 0x2982 JUMP JUMPDEST JUMPDEST DUP1 PUSH1 0x40 MSTORE POP POP POP JUMP JUMPDEST PUSH0 PUSH2 0x29E9 PUSH2 0x269B JUMP JUMPDEST SWAP1 POP PUSH2 0x29F5 DUP3 DUP3 PUSH2 0x29AF JUMP JUMPDEST SWAP2 SWAP1 POP JUMP JUMPDEST PUSH0 PUSH8 0xFFFFFFFFFFFFFFFF DUP3 GT ISZERO PUSH2 0x2A14 JUMPI PUSH2 0x2A13 PUSH2 0x2982 JUMP JUMPDEST JUMPDEST PUSH2 0x2A1D DUP3 PUSH2 0x27A1 JUMP JUMPDEST SWAP1 POP PUSH1 0x20 DUP2 ADD SWAP1 POP SWAP2 SWAP1 POP JUMP JUMPDEST DUP3 DUP2 DUP4 CALLDATACOPY PUSH0 DUP4 DUP4 ADD MSTORE POP POP POP JUMP JUMPDEST PUSH0 PUSH2 0x2A4A PUSH2 0x2A45 DUP5 PUSH2 0x29FA JUMP JUMPDEST PUSH2 0x29E0 JUMP JUMPDEST SWAP1 POP DUP3 DUP2 MSTORE PUSH1 0x20 DUP2 ADD DUP5 DUP5 DUP5 ADD GT ISZERO PUSH2 0x2A66 JUMPI PUSH2 0x2A65 PUSH2 0x297E JUMP JUMPDEST JUMPDEST PUSH2 0x2A71 DUP5 DUP3 DUP6 PUSH2 0x2A2A JUMP JUMPDEST POP SWAP4 SWAP3 POP POP POP JUMP JUMPDEST PUSH0 DUP3 PUSH1 0x1F DUP4 ADD SLT PUSH2 0x2A8D JUMPI PUSH2 0x2A8C PUSH2 0x297A JUMP JUMPDEST JUMPDEST DUP2 CALLDATALOAD PUSH2 0x2A9D DUP5 DUP3 PUSH1 0x20 DUP7 ADD PUSH2 0x2A38 JUMP JUMPDEST SWAP2 POP POP SWAP3 SWAP2 POP POP JUMP JUMPDEST PUSH0 DUP1 PUSH0 DUP1 PUSH1 0x80 DUP6 DUP8 SUB SLT ISZERO PUSH2 0x2ABE JUMPI PUSH2 0x2ABD PUSH2 0x26A4 JUMP JUMPDEST JUMPDEST PUSH0 PUSH2 0x2ACB DUP8 DUP3 DUP9 ADD PUSH2 0x28D5 JUMP JUMPDEST SWAP5 POP POP PUSH1 0x20 PUSH2 0x2ADC DUP8 DUP3 DUP9 ADD PUSH2 0x28D5 JUMP JUMPDEST SWAP4 POP POP PUSH1 0x40 PUSH2 0x2AED DUP8 DUP3 DUP9 ADD PUSH2 0x2828 JUMP JUMPDEST SWAP3 POP POP PUSH1 0x60 DUP6 ADD CALLDATALOAD PUSH8 0xFFFFFFFFFFFFFFFF DUP2 GT ISZERO PUSH2 0x2B0E JUMPI PUSH2 0x2B0D PUSH2 0x26A8 JUMP JUMPDEST JUMPDEST PUSH2 0x2B1A DUP8 DUP3 DUP9 ADD PUSH2 0x2A79 JUMP JUMPDEST SWAP2 POP POP SWAP3 SWAP6 SWAP2 SWAP5 POP SWAP3 POP JUMP JUMPDEST PUSH0 DUP1 PUSH0 PUSH1 0x60 DUP5 DUP7 SUB SLT ISZERO PUSH2 0x2B3D JUMPI PUSH2 0x2B3C PUSH2 0x26A4 JUMP JUMPDEST JUMPDEST PUSH0 PUSH2 0x2B4A DUP7 DUP3 DUP8 ADD PUSH2 0x28D5 JUMP JUMPDEST SWAP4 POP POP PUSH1 0x20 PUSH2 0x2B5B DUP7 DUP3 DUP8 ADD PUSH2 0x28D5 JUMP JUMPDEST SWAP3 POP POP PUSH1 0x40 PUSH2 0x2B6C DUP7 DUP3 DUP8 ADD PUSH2 0x2828 JUMP JUMPDEST SWAP2 POP POP SWAP3 POP SWAP3 POP SWAP3 JUMP JUMPDEST PUSH0 DUP2 SWAP1 POP SWAP2 SWAP1 POP JUMP JUMPDEST PUSH0 PUSH2 0x2B99 PUSH2 0x2B94 PUSH2 0x2B8F DUP5 PUSH2 0x2867 JUMP JUMPDEST PUSH2 0x2B76 JUMP JUMPDEST PUSH2 0x2867 JUMP JUMPDEST SWAP1 POP SWAP2 SWAP1 POP JUMP JUMPDEST PUSH0 PUSH2 0x2BAA DUP3 PUSH2 0x2B7F JUMP JUMPDEST SWAP1 POP SWAP2 SWAP1 POP JUMP JUMPDEST PUSH0 PUSH2 0x2BBB DUP3 PUSH2 0x2BA0 JUMP JUMPDEST SWAP1 POP SWAP2 SWAP1 POP JUMP JUMPDEST PUSH2 0x2BCB DUP2 PUSH2 0x2BB1 JUMP JUMPDEST DUP3 MSTORE POP POP JUMP JUMPDEST PUSH0 PUSH1 0x20 DUP3 ADD SWAP1 POP PUSH2 0x2BE4 PUSH0 DUP4 ADD DUP5 PUSH2 0x2BC2 JUMP JUMPDEST SWAP3 SWAP2 POP POP JUMP JUMPDEST PUSH2 0x2BF3 DUP2 PUSH2 0x272C JUMP JUMPDEST DUP2 EQ PUSH2 0x2BFD JUMPI PUSH0 DUP1 REVERT JUMPDEST POP JUMP JUMPDEST PUSH0 DUP2 CALLDATALOAD SWAP1 POP PUSH2 0x2C0E DUP2 PUSH2 0x2BEA JUMP JUMPDEST SWAP3 SWAP2 POP POP JUMP JUMPDEST PUSH0 DUP1 PUSH1 0x40 DUP4 DUP6 SUB SLT ISZERO PUSH2 0x2C2A JUMPI PUSH2 0x2C29 PUSH2 0x26A4 JUMP JUMPDEST JUMPDEST PUSH0 PUSH2 0x2C37 DUP6 DUP3 DUP7 ADD PUSH2 0x28D5 JUMP JUMPDEST SWAP3 POP POP PUSH1 0x20 PUSH2 0x2C48 DUP6 DUP3 DUP7 ADD PUSH2 0x2C00 JUMP JUMPDEST SWAP2 POP POP SWAP3 POP SWAP3 SWAP1 POP JUMP JUMPDEST PUSH0 PUSH8 0xFFFFFFFFFFFFFFFF DUP3 GT ISZERO PUSH2 0x2C6C JUMPI PUSH2 0x2C6B PUSH2 0x2982 JUMP JUMPDEST JUMPDEST PUSH2 0x2C75 DUP3 PUSH2 0x27A1 JUMP JUMPDEST SWAP1 POP PUSH1 0x20 DUP2 ADD SWAP1 POP SWAP2 SWAP1 POP JUMP JUMPDEST PUSH0 PUSH2 0x2C94 PUSH2 0x2C8F DUP5 PUSH2 0x2C52 JUMP JUMPDEST PUSH2 0x29E0 JUMP JUMPDEST SWAP1 POP DUP3 DUP2 MSTORE PUSH1 0x20 DUP2 ADD DUP5 DUP5 DUP5 ADD GT ISZERO PUSH2 0x2CB0 JUMPI PUSH2 0x2CAF PUSH2 0x297E JUMP JUMPDEST JUMPDEST PUSH2 0x2CBB DUP5 DUP3 DUP6 PUSH2 0x2A2A JUMP JUMPDEST POP SWAP4 SWAP3 POP POP POP JUMP JUMPDEST PUSH0 DUP3 PUSH1 0x1F DUP4 ADD SLT PUSH2 0x2CD7 JUMPI PUSH2 0x2CD6 PUSH2 0x297A JUMP JUMPDEST JUMPDEST DUP2 CALLDATALOAD PUSH2 0x2CE7 DUP5 DUP3 PUSH1 0x20 DUP7 ADD PUSH2 0x2C82 JUMP JUMPDEST SWAP2 POP POP SWAP3 SWAP2 POP POP JUMP JUMPDEST PUSH0 DUP1 PUSH0 DUP1 PUSH1 0x80 DUP6 DUP8 SUB SLT ISZERO PUSH2 0x2D08 JUMPI PUSH2 0x2D07 PUSH2 0x26A4 JUMP JUMPDEST JUMPDEST PUSH0 PUSH2 0x2D15 DUP8 DUP3 DUP9 ADD PUSH2 0x28D5 JUMP JUMPDEST SWAP5 POP POP PUSH1 0x20 PUSH2 0x2D26 DUP8 DUP3 DUP9 ADD PUSH2 0x28D5 JUMP JUMPDEST SWAP4 POP POP PUSH1 0x40 PUSH2 0x2D37 DUP8 DUP3 DUP9 ADD PUSH2 0x2828 JUMP JUMPDEST SWAP3 POP POP PUSH1 0x60 DUP6 ADD CALLDATALOAD PUSH8 0xFFFFFFFFFFFFFFFF DUP2 GT ISZERO PUSH2 0x2D58 JUMPI PUSH2 0x2D57 PUSH2 0x26A8 JUMP JUMPDEST JUMPDEST PUSH2 0x2D64 DUP8 DUP3 DUP9 ADD PUSH2 0x2CC3 JUMP JUMPDEST SWAP2 POP POP SWAP3 SWAP6 SWAP2 SWAP5 POP SWAP3 POP JUMP JUMPDEST PUSH0 PUSH8 0xFFFFFFFFFFFFFFFF DUP3 GT ISZERO PUSH2 0x2D8A JUMPI PUSH2 0x2D89 PUSH2 0x2982 JUMP JUMPDEST JUMPDEST PUSH1 0x20 DUP3 MUL SWAP1 POP PUSH1 0x20 DUP2 ADD SWAP1 POP SWAP2 SWAP1 POP JUMP JUMPDEST PUSH0 DUP1 REVERT JUMPDEST PUSH0 PUSH2 0x2DB1 PUSH2 0x2DAC DUP5 PUSH2 0x2D70 JUMP JUMPDEST PUSH2 0x29E0 JUMP JUMPDEST SWAP1 POP DUP1 DUP4 DUP3 MSTORE PUSH1 0x20 DUP3 ADD SWAP1 POP PUSH1 0x20 DUP5 MUL DUP4 ADD DUP6 DUP2 GT ISZERO PUSH2 0x2DD4 JUMPI PUSH2 0x2DD3 PUSH2 0x2D9B JUMP JUMPDEST JUMPDEST DUP4 JUMPDEST DUP2 DUP2 LT ISZERO PUSH2 0x2DFD JUMPI DUP1 PUSH2 0x2DE9 DUP9 DUP3 PUSH2 0x2828 JUMP JUMPDEST DUP5 MSTORE PUSH1 0x20 DUP5 ADD SWAP4 POP POP PUSH1 0x20 DUP2 ADD SWAP1 POP PUSH2 0x2DD6 JUMP JUMPDEST POP POP POP SWAP4 SWAP3 POP POP POP JUMP JUMPDEST PUSH0 DUP3 PUSH1 0x1F DUP4 ADD SLT PUSH2 0x2E1B JUMPI PUSH2 0x2E1A PUSH2 0x297A JUMP JUMPDEST JUMPDEST DUP2 CALLDATALOAD PUSH2 0x2E2B DUP5 DUP3 PUSH1 0x20 DUP7 ADD PUSH2 0x2D9F JUMP JUMPDEST SWAP2 POP POP SWAP3 SWAP2 POP POP JUMP JUMPDEST PUSH0 DUP1 PUSH0 DUP1 PUSH1 0x80 DUP6 DUP8 SUB SLT ISZERO PUSH2 0x2E4C JUMPI PUSH2 0x2E4B PUSH2 0x26A4 JUMP JUMPDEST JUMPDEST PUSH0 PUSH2 0x2E59 DUP8 DUP3 DUP9 ADD PUSH2 0x2828 JUMP JUMPDEST SWAP5 POP POP PUSH1 0x20 DUP6 ADD CALLDATALOAD PUSH8 0xFFFFFFFFFFFFFFFF DUP2 GT ISZERO PUSH2 0x2E7A JUMPI PUSH2 0x2E79 PUSH2 0x26A8 JUMP JUMPDEST JUMPDEST PUSH2 0x2E86 DUP8 DUP3 DUP9 ADD PUSH2 0x2A79 JUMP JUMPDEST SWAP4 POP POP PUSH1 0x40 DUP6 ADD CALLDATALOAD PUSH8 0xFFFFFFFFFFFFFFFF DUP2 GT ISZERO PUSH2 0x2EA7 JUMPI PUSH2 0x2EA6 PUSH2 0x26A8 JUMP JUMPDEST JUMPDEST PUSH2 0x2EB3 DUP8 DUP3 DUP9 ADD PUSH2 0x2E07 JUMP JUMPDEST SWAP3 POP POP PUSH1 0x60 DUP6 ADD CALLDATALOAD PUSH8 0xFFFFFFFFFFFFFFFF DUP2 GT ISZERO PUSH2 0x2ED4 JUMPI PUSH2 0x2ED3 PUSH2 0x26A8 JUMP JUMPDEST JUMPDEST PUSH2 0x2EE0 DUP8 DUP3 DUP9 ADD PUSH2 0x2E07 JUMP JUMPDEST SWAP2 POP POP SWAP3 SWAP6 SWAP2 SWAP5 POP SWAP3 POP JUMP JUMPDEST PUSH0 DUP2 MLOAD SWAP1 POP SWAP2 SWAP1 POP JUMP JUMPDEST PUSH0 DUP3 DUP3 MSTORE PUSH1 0x20 DUP3 ADD SWAP1 POP SWAP3 SWAP2 POP POP JUMP JUMPDEST PUSH0 DUP2 SWAP1 POP PUSH1 0x20 DUP3 ADD SWAP1 POP SWAP2 SWAP1 POP JUMP JUMPDEST PUSH2 0x2F1E DUP2 PUSH2 0x2809 JUMP JUMPDEST DUP3 MSTORE POP POP JUMP JUMPDEST PUSH0 PUSH2 0x2F2F DUP4 DUP4 PUSH2 0x2F15 JUMP JUMPDEST PUSH1 0x20 DUP4 ADD SWAP1 POP SWAP3 SWAP2 POP POP JUMP JUMPDEST PUSH0 PUSH1 0x20 DUP3 ADD SWAP1 POP SWAP2 SWAP1 POP JUMP JUMPDEST PUSH0 PUSH2 0x2F51 DUP3 PUSH2 0x2EEC JUMP JUMPDEST PUSH2 0x2F5B DUP2 DUP6 PUSH2 0x2EF6 JUMP JUMPDEST SWAP4 POP PUSH2 0x2F66 DUP4 PUSH2 0x2F06 JUMP JUMPDEST DUP1 PUSH0 JUMPDEST DUP4 DUP2 LT ISZERO PUSH2 0x2F96 JUMPI DUP2 MLOAD PUSH2 0x2F7D DUP9 DUP3 PUSH2 0x2F24 JUMP JUMPDEST SWAP8 POP PUSH2 0x2F88 DUP4 PUSH2 0x2F3B JUMP JUMPDEST SWAP3 POP POP PUSH1 0x1 DUP2 ADD SWAP1 POP PUSH2 0x2F69 JUMP JUMPDEST POP DUP6 SWAP4 POP POP POP POP SWAP3 SWAP2 POP POP JUMP JUMPDEST PUSH0 PUSH1 0x20 DUP3 ADD SWAP1 POP DUP2 DUP2 SUB PUSH0 DUP4 ADD MSTORE PUSH2 0x2FBB DUP2 DUP5 PUSH2 0x2F47 JUMP JUMPDEST SWAP1 POP SWAP3 SWAP2 POP POP JUMP JUMPDEST PUSH0 DUP1 PUSH1 0x40 DUP4 DUP6 SUB SLT ISZERO PUSH2 0x2FD9 JUMPI PUSH2 0x2FD8 PUSH2 0x26A4 JUMP JUMPDEST JUMPDEST PUSH0 PUSH2 0x2FE6 DUP6 DUP3 DUP7 ADD PUSH2 0x28D5 JUMP JUMPDEST SWAP3 POP POP PUSH1 0x20 PUSH2 0x2FF7 DUP6 DUP3 DUP7 ADD PUSH2 0x28D5 JUMP JUMPDEST SWAP2 POP POP SWAP3 POP SWAP3 SWAP1 POP JUMP JUMPDEST PUSH32 0x4E487B7100000000000000000000000000000000000000000000000000000000 PUSH0 MSTORE PUSH1 0x22 PUSH1 0x4 MSTORE PUSH1 0x24 PUSH0 REVERT JUMPDEST PUSH0 PUSH1 0x2 DUP3 DIV SWAP1 POP PUSH1 0x1 DUP3 AND DUP1 PUSH2 0x3045 JUMPI PUSH1 0x7F DUP3 AND SWAP2 POP JUMPDEST PUSH1 0x20 DUP3 LT DUP2 SUB PUSH2 0x3058 JUMPI PUSH2 0x3057 PUSH2 0x3001 JUMP JUMPDEST JUMPDEST POP SWAP2 SWAP1 POP JUMP JUMPDEST PUSH32 0x4E6F74206F776E6572206F66207468697320746F6B656E000000000000000000 PUSH0 DUP3 ADD MSTORE POP JUMP JUMPDEST PUSH0 PUSH2 0x3092 PUSH1 0x17 DUP4 PUSH2 0x2769 JUMP JUMPDEST SWAP2 POP PUSH2 0x309D DUP3 PUSH2 0x305E JUMP JUMPDEST PUSH1 0x20 DUP3 ADD SWAP1 POP SWAP2 SWAP1 POP JUMP JUMPDEST PUSH0 PUSH1 0x20 DUP3 ADD SWAP1 POP DUP2 DUP2 SUB PUSH0 DUP4 ADD MSTORE PUSH2 0x30BF DUP2 PUSH2 0x3086 JUMP JUMPDEST SWAP1 POP SWAP2 SWAP1 POP JUMP JUMPDEST PUSH0 PUSH1 0x60 DUP3 ADD SWAP1 POP PUSH2 0x30D9 PUSH0 DUP4 ADD DUP7 PUSH2 0x2897 JUMP JUMPDEST PUSH2 0x30E6 PUSH1 0x20 DUP4 ADD DUP6 PUSH2 0x2952 JUMP JUMPDEST PUSH2 0x30F3 PUSH1 0x40 DUP4 ADD DUP5 PUSH2 0x2897 JUMP JUMPDEST SWAP5 SWAP4 POP POP POP POP JUMP JUMPDEST PUSH0 PUSH1 0x40 DUP3 ADD SWAP1 POP PUSH2 0x310E PUSH0 DUP4 ADD DUP6 PUSH2 0x2897 JUMP JUMPDEST PUSH2 0x311B PUSH1 0x20 DUP4 ADD DUP5 PUSH2 0x2952 JUMP JUMPDEST SWAP4 SWAP3 POP POP POP JUMP JUMPDEST PUSH32 0x4E487B7100000000000000000000000000000000000000000000000000000000 PUSH0 MSTORE PUSH1 0x32 PUSH1 0x4 MSTORE PUSH1 0x24 PUSH0 REVERT JUMPDEST PUSH0 PUSH1 0x40 DUP3 ADD SWAP1 POP PUSH2 0x3162 PUSH0 DUP4 ADD DUP6 PUSH2 0x2897 JUMP JUMPDEST DUP2 DUP2 SUB PUSH1 0x20 DUP4 ADD MSTORE PUSH2 0x3174 DUP2 DUP5 PUSH2 0x2F47 JUMP JUMPDEST SWAP1 POP SWAP4 SWAP3 POP POP POP JUMP JUMPDEST PUSH0 PUSH1 0x60 DUP3 ADD SWAP1 POP PUSH2 0x3190 PUSH0 DUP4 ADD DUP7 PUSH2 0x2952 JUMP JUMPDEST DUP2 DUP2 SUB PUSH1 0x20 DUP4 ADD MSTORE PUSH2 0x31A2 DUP2 DUP6 PUSH2 0x2F47 JUMP JUMPDEST SWAP1 POP DUP2 DUP2 SUB PUSH1 0x40 DUP4 ADD MSTORE PUSH2 0x31B6 DUP2 DUP5 PUSH2 0x2F47 JUMP JUMPDEST SWAP1 POP SWAP5 SWAP4 POP POP POP POP JUMP JUMPDEST PUSH32 0x4E487B7100000000000000000000000000000000000000000000000000000000 PUSH0 MSTORE PUSH1 0x11 PUSH1 0x4 MSTORE PUSH1 0x24 PUSH0 REVERT JUMPDEST PUSH0 PUSH2 0x31F7 DUP3 PUSH2 0x2809 JUMP JUMPDEST SWAP2 POP PUSH2 0x3202 DUP4 PUSH2 0x2809 JUMP JUMPDEST SWAP3 POP DUP3 DUP3 ADD SWAP1 POP DUP1 DUP3 GT ISZERO PUSH2 0x321A JUMPI PUSH2 0x3219 PUSH2 0x31C0 JUMP JUMPDEST JUMPDEST SWAP3 SWAP2 POP POP JUMP JUMPDEST PUSH0 PUSH1 0x80 DUP3 ADD SWAP1 POP PUSH2 0x3233 PUSH0 DUP4 ADD DUP8 PUSH2 0x2897 JUMP JUMPDEST PUSH2 0x3240 PUSH1 0x20 DUP4 ADD DUP7 PUSH2 0x2952 JUMP JUMPDEST DUP2 DUP2 SUB PUSH1 0x40 DUP4 ADD MSTORE PUSH2 0x3252 DUP2 DUP6 PUSH2 0x2F47 JUMP JUMPDEST SWAP1 POP DUP2 DUP2 SUB PUSH1 0x60 DUP4 ADD MSTORE PUSH2 0x3266 DUP2 DUP5 PUSH2 0x2F47 JUMP JUMPDEST SWAP1 POP SWAP6 SWAP5 POP POP POP POP POP JUMP JUMPDEST PUSH0 PUSH1 0x60 DUP3 ADD SWAP1 POP PUSH2 0x3284 PUSH0 DUP4 ADD DUP7 PUSH2 0x2897 JUMP JUMPDEST PUSH2 0x3291 PUSH1 0x20 DUP4 ADD DUP6 PUSH2 0x2952 JUMP JUMPDEST DUP2 DUP2 SUB PUSH1 0x40 DUP4 ADD MSTORE PUSH2 0x32A3 DUP2 DUP5 PUSH2 0x27B1 JUMP JUMPDEST SWAP1 POP SWAP5 SWAP4 POP POP POP POP JUMP JUMPDEST PUSH0 DUP2 MLOAD SWAP1 POP PUSH2 0x32BB DUP2 PUSH2 0x2BEA JUMP JUMPDEST SWAP3 SWAP2 POP POP JUMP JUMPDEST PUSH0 PUSH1 0x20 DUP3 DUP5 SUB SLT ISZERO PUSH2 0x32D6 JUMPI PUSH2 0x32D5 PUSH2 0x26A4 JUMP JUMPDEST JUMPDEST PUSH0 PUSH2 0x32E3 DUP5 DUP3 DUP6 ADD PUSH2 0x32AD JUMP JUMPDEST SWAP2 POP POP SWAP3 SWAP2 POP POP JUMP JUMPDEST PUSH32 0x544F444F00000000000000000000000000000000000000000000000000000000 PUSH0 DUP3 ADD MSTORE POP JUMP JUMPDEST PUSH0 PUSH2 0x3320 PUSH1 0x4 DUP4 PUSH2 0x2769 JUMP JUMPDEST SWAP2 POP PUSH2 0x332B DUP3 PUSH2 0x32EC JUMP JUMPDEST PUSH1 0x20 DUP3 ADD SWAP1 POP SWAP2 SWAP1 POP JUMP JUMPDEST PUSH0 PUSH1 0x20 DUP3 ADD SWAP1 POP DUP2 DUP2 SUB PUSH0 DUP4 ADD MSTORE PUSH2 0x334D DUP2 PUSH2 0x3314 JUMP JUMPDEST SWAP1 POP SWAP2 SWAP1 POP JUMP JUMPDEST PUSH0 DUP2 MLOAD SWAP1 POP SWAP2 SWAP1 POP JUMP JUMPDEST PUSH0 DUP3 DUP3 MSTORE PUSH1 0x20 DUP3 ADD SWAP1 POP SWAP3 SWAP2 POP POP JUMP JUMPDEST PUSH0 PUSH2 0x3378 DUP3 PUSH2 0x3354 JUMP JUMPDEST PUSH2 0x3382 DUP2 DUP6 PUSH2 0x335E JUMP JUMPDEST SWAP4 POP PUSH2 0x3392 DUP2 DUP6 PUSH1 0x20 DUP7 ADD PUSH2 0x2779 JUMP JUMPDEST PUSH2 0x339B DUP2 PUSH2 0x27A1 JUMP JUMPDEST DUP5 ADD SWAP2 POP POP SWAP3 SWAP2 POP POP JUMP JUMPDEST PUSH0 PUSH1 0x80 DUP3 ADD SWAP1 POP PUSH2 0x33B9 PUSH0 DUP4 ADD DUP8 PUSH2 0x2897 JUMP JUMPDEST PUSH2 0x33C6 PUSH1 0x20 DUP4 ADD DUP7 PUSH2 0x2897 JUMP JUMPDEST PUSH2 0x33D3 PUSH1 0x40 DUP4 ADD DUP6 PUSH2 0x2952 JUMP JUMPDEST DUP2 DUP2 SUB PUSH1 0x60 DUP4 ADD MSTORE PUSH2 0x33E5 DUP2 DUP5 PUSH2 0x336E JUMP JUMPDEST SWAP1 POP SWAP6 SWAP5 POP POP POP POP POP JUMP JUMPDEST PUSH0 DUP2 MLOAD SWAP1 POP PUSH2 0x33FE DUP2 PUSH2 0x26D7 JUMP JUMPDEST SWAP3 SWAP2 POP POP JUMP JUMPDEST PUSH0 PUSH1 0x20 DUP3 DUP5 SUB SLT ISZERO PUSH2 0x3419 JUMPI PUSH2 0x3418 PUSH2 0x26A4 JUMP JUMPDEST JUMPDEST PUSH0 PUSH2 0x3426 DUP5 DUP3 DUP6 ADD PUSH2 0x33F0 JUMP JUMPDEST SWAP2 POP POP SWAP3 SWAP2 POP POP JUMP JUMPDEST PUSH0 DUP2 SWAP1 POP SWAP3 SWAP2 POP POP JUMP JUMPDEST PUSH0 PUSH2 0x3443 DUP3 PUSH2 0x275F JUMP JUMPDEST PUSH2 0x344D DUP2 DUP6 PUSH2 0x342F JUMP JUMPDEST SWAP4 POP PUSH2 0x345D DUP2 DUP6 PUSH1 0x20 DUP7 ADD PUSH2 0x2779 JUMP JUMPDEST DUP1 DUP5 ADD SWAP2 POP POP SWAP3 SWAP2 POP POP JUMP JUMPDEST PUSH0 PUSH2 0x3474 DUP3 DUP6 PUSH2 0x3439 JUMP JUMPDEST SWAP2 POP PUSH2 0x3480 DUP3 DUP5 PUSH2 0x3439 JUMP JUMPDEST SWAP2 POP DUP2 SWAP1 POP SWAP4 SWAP3 POP POP POP JUMP JUMPDEST PUSH0 DUP2 SWAP1 POP DUP2 PUSH0 MSTORE PUSH1 0x20 PUSH0 KECCAK256 SWAP1 POP SWAP2 SWAP1 POP JUMP JUMPDEST PUSH0 PUSH1 0x20 PUSH1 0x1F DUP4 ADD DIV SWAP1 POP SWAP2 SWAP1 POP JUMP JUMPDEST PUSH0 DUP3 DUP3 SHL SWAP1 POP SWAP3 SWAP2 POP POP JUMP JUMPDEST PUSH0 PUSH1 0x8 DUP4 MUL PUSH2 0x34E8 PUSH32 0xFFFFFFFFFFFFFFFFFFFFFFFFFFFFFFFFFFFFFFFFFFFFFFFFFFFFFFFFFFFFFFFF DUP3 PUSH2 0x34AD JUMP JUMPDEST PUSH2 0x34F2 DUP7 DUP4 PUSH2 0x34AD JUMP JUMPDEST SWAP6 POP DUP1 NOT DUP5 AND SWAP4 POP DUP1 DUP7 AND DUP5 OR SWAP3 POP POP POP SWAP4 SWAP3 POP POP POP JUMP JUMPDEST PUSH0 PUSH2 0x3524 PUSH2 0x351F PUSH2 0x351A DUP5 PUSH2 0x2809 JUMP JUMPDEST PUSH2 0x2B76 JUMP JUMPDEST PUSH2 0x2809 JUMP JUMPDEST SWAP1 POP SWAP2 SWAP1 POP JUMP JUMPDEST PUSH0 DUP2 SWAP1 POP SWAP2 SWAP1 POP JUMP JUMPDEST PUSH2 0x353D DUP4 PUSH2 0x350A JUMP JUMPDEST PUSH2 0x3551 PUSH2 0x3549 DUP3 PUSH2 0x352B JUMP JUMPDEST DUP5 DUP5 SLOAD PUSH2 0x34B9 JUMP JUMPDEST DUP3 SSTORE POP POP POP POP JUMP JUMPDEST PUSH0 SWAP1 JUMP JUMPDEST PUSH2 0x3565 PUSH2 0x3559 JUMP JUMPDEST PUSH2 0x3570 DUP2 DUP5 DUP5 PUSH2 0x3534 JUMP JUMPDEST POP POP POP JUMP JUMPDEST JUMPDEST DUP2 DUP2 LT ISZERO PUSH2 0x3593 JUMPI PUSH2 0x3588 PUSH0 DUP3 PUSH2 0x355D JUMP JUMPDEST PUSH1 0x1 DUP2 ADD SWAP1 POP PUSH2 0x3576 JUMP JUMPDEST POP POP JUMP JUMPDEST PUSH1 0x1F DUP3 GT ISZERO PUSH2 0x35D8 JUMPI PUSH2 0x35A9 DUP2 PUSH2 0x348C JUMP JUMPDEST PUSH2 0x35B2 DUP5 PUSH2 0x349E JUMP JUMPDEST DUP2 ADD PUSH1 0x20 DUP6 LT ISZERO PUSH2 0x35C1 JUMPI DUP2 SWAP1 POP JUMPDEST PUSH2 0x35D5 PUSH2 0x35CD DUP6 PUSH2 0x349E JUMP JUMPDEST DUP4 ADD DUP3 PUSH2 0x3575 JUMP JUMPDEST POP POP JUMPDEST POP POP POP JUMP JUMPDEST PUSH0 DUP3 DUP3 SHR SWAP1 POP SWAP3 SWAP2 POP POP JUMP JUMPDEST PUSH0 PUSH2 0x35F8 PUSH0 NOT DUP5 PUSH1 0x8 MUL PUSH2 0x35DD JUMP JUMPDEST NOT DUP1 DUP4 AND SWAP2 POP POP SWAP3 SWAP2 POP POP JUMP JUMPDEST PUSH0 PUSH2 0x3610 DUP4 DUP4 PUSH2 0x35E9 JUMP JUMPDEST SWAP2 POP DUP3 PUSH1 0x2 MUL DUP3 OR SWAP1 POP SWAP3 SWAP2 POP POP JUMP JUMPDEST PUSH2 0x3629 DUP3 PUSH2 0x275F JUMP JUMPDEST PUSH8 0xFFFFFFFFFFFFFFFF DUP2 GT ISZERO PUSH2 0x3642 JUMPI PUSH2 0x3641 PUSH2 0x2982 JUMP JUMPDEST JUMPDEST PUSH2 0x364C DUP3 SLOAD PUSH2 0x302E JUMP JUMPDEST PUSH2 0x3657 DUP3 DUP3 DUP6 PUSH2 0x3597 JUMP JUMPDEST PUSH0 PUSH1 0x20 SWAP1 POP PUSH1 0x1F DUP4 GT PUSH1 0x1 DUP2 EQ PUSH2 0x3688 JUMPI PUSH0 DUP5 ISZERO PUSH2 0x3676 JUMPI DUP3 DUP8 ADD MLOAD SWAP1 POP JUMPDEST PUSH2 0x3680 DUP6 DUP3 PUSH2 0x3605 JUMP JUMPDEST DUP7 SSTORE POP PUSH2 0x36E7 JUMP JUMPDEST PUSH1 0x1F NOT DUP5 AND PUSH2 0x3696 DUP7 PUSH2 0x348C JUMP JUMPDEST PUSH0 JUMPDEST DUP3 DUP2 LT ISZERO PUSH2 0x36BD JUMPI DUP5 DUP10 ADD MLOAD DUP3 SSTORE PUSH1 0x1 DUP3 ADD SWAP2 POP PUSH1 0x20 DUP6 ADD SWAP5 POP PUSH1 0x20 DUP2 ADD SWAP1 POP PUSH2 0x3698 JUMP JUMPDEST DUP7 DUP4 LT ISZERO PUSH2 0x36DA JUMPI DUP5 DUP10 ADD MLOAD PUSH2 0x36D6 PUSH1 0x1F DUP10 AND DUP3 PUSH2 0x35E9 JUMP JUMPDEST DUP4 SSTORE POP JUMPDEST PUSH1 0x1 PUSH1 0x2 DUP9 MUL ADD DUP9 SSTORE POP POP POP JUMPDEST POP POP POP POP POP POP JUMP JUMPDEST PUSH0 PUSH2 0x36F9 DUP3 PUSH2 0x2809 JUMP JUMPDEST SWAP2 POP PUSH2 0x3704 DUP4 PUSH2 0x2809 JUMP JUMPDEST SWAP3 POP DUP3 DUP3 SUB SWAP1 POP DUP2 DUP2 GT ISZERO PUSH2 0x371C JUMPI PUSH2 0x371B PUSH2 0x31C0 JUMP JUMPDEST JUMPDEST SWAP3 SWAP2 POP POP JUMP JUMPDEST PUSH32 0x4E487B7100000000000000000000000000000000000000000000000000000000 PUSH0 MSTORE PUSH1 0x31 PUSH1 0x4 MSTORE PUSH1 0x24 PUSH0 REVERT JUMPDEST PUSH32 0x4E487B7100000000000000000000000000000000000000000000000000000000 PUSH0 MSTORE PUSH1 0x12 PUSH1 0x4 MSTORE PUSH1 0x24 PUSH0 REVERT INVALID LOG2 PUSH5 0x6970667358 0x22 SLT KECCAK256 0x28 ADDMOD 0xB3 0xED 0xAC DUP14 0xD4 JUMPDEST 0xEF 0xDB 0xF6 0xAB PC SELFDESTRUCT NOT SWAP1 DUP1 CREATE2 NOT 0xFC DUP14 ORIGIN 0xB6 0xC8 JUMPI CALLER 0xC6 CODECOPY 0xB0 0xB1 0xBD 0x5C PUSH5 0x736F6C6343 STOP ADDMOD AND STOP CALLER "
		},
		"gasEstimates": {
			"creation": {
				"codeDepositCost": "2851600",
				"executionCost": "infinite",
				"totalCost": "infinite"
			},
			"external": {
				"SetTradeManagementSC(address)": "24827",
				"approve(address,uint256)": "infinite",
				"balanceOf(address)": "infinite",
				"getAddress()": "468",
				"getApproved(uint256)": "infinite",
				"isApprovedForAll(address,address)": "infinite",
				"mint(uint256,string,uint256[],uint256[])": "infinite",
				"name()": "infinite",
				"owner()": "2604",
				"ownerOf(uint256)": "infinite",
				"renounceOwnership()": "infinite",
				"safeTransferFrom(address,address,uint256)": "infinite",
				"safeTransferFrom(address,address,uint256,bytes)": "infinite",
				"setApprovalForAll(address,bool)": "infinite",
				"supportsInterface(bytes4)": "1011",
				"symbol()": "infinite",
				"tokenByIndex(uint256)": "infinite",
				"tokenOfOwnerByIndex(address,uint256)": "infinite",
				"tokenURI(uint256)": "infinite",
				"totalSupply()": "2574",
				"tradeManagement()": "infinite",
				"transferFrom(address,address,uint256)": "infinite",
				"transferFrom(address,address,uint256,string)": "infinite",
				"transferOwnership(address)": "infinite"
			},
			"internal": {
				"_beforeTokenTransfer(address,uint256,string memory)": "infinite",
				"_increaseBalance(address,uint128)": "infinite",
				"_update(address,uint256,address)": "infinite"
			}
		},
		"methodIdentifiers": {
			"SetTradeManagementSC(address)": "0fffc4cf",
			"approve(address,uint256)": "095ea7b3",
			"balanceOf(address)": "70a08231",
			"getAddress()": "38cc4831",
			"getApproved(uint256)": "081812fc",
			"isApprovedForAll(address,address)": "e985e9c5",
			"mint(uint256,string,uint256[],uint256[])": "e6a13940",
			"name()": "06fdde03",
			"owner()": "8da5cb5b",
			"ownerOf(uint256)": "6352211e",
			"renounceOwnership()": "715018a6",
			"safeTransferFrom(address,address,uint256)": "42842e0e",
			"safeTransferFrom(address,address,uint256,bytes)": "b88d4fde",
			"setApprovalForAll(address,bool)": "a22cb465",
			"supportsInterface(bytes4)": "01ffc9a7",
			"symbol()": "95d89b41",
			"tokenByIndex(uint256)": "4f6ccce7",
			"tokenOfOwnerByIndex(address,uint256)": "2f745c59",
			"tokenURI(uint256)": "c87b56dd",
			"totalSupply()": "18160ddd",
			"tradeManagement()": "9909c507",
			"transferFrom(address,address,uint256)": "23b872dd",
			"transferFrom(address,address,uint256,string)": "1af716ba",
			"transferOwnership(address)": "f2fde38b"
		}
	},
	"abi": [
		{
			"inputs": [],
			"stateMutability": "nonpayable",
			"type": "constructor"
		},
		{
			"inputs": [],
			"name": "ERC721EnumerableForbiddenBatchMint",
			"type": "error"
		},
		{
			"inputs": [
				{
					"internalType": "address",
					"name": "sender",
					"type": "address"
				},
				{
					"internalType": "uint256",
					"name": "tokenId",
					"type": "uint256"
				},
				{
					"internalType": "address",
					"name": "owner",
					"type": "address"
				}
			],
			"name": "ERC721IncorrectOwner",
			"type": "error"
		},
		{
			"inputs": [
				{
					"internalType": "address",
					"name": "operator",
					"type": "address"
				},
				{
					"internalType": "uint256",
					"name": "tokenId",
					"type": "uint256"
				}
			],
			"name": "ERC721InsufficientApproval",
			"type": "error"
		},
		{
			"inputs": [
				{
					"internalType": "address",
					"name": "approver",
					"type": "address"
				}
			],
			"name": "ERC721InvalidApprover",
			"type": "error"
		},
		{
			"inputs": [
				{
					"internalType": "address",
					"name": "operator",
					"type": "address"
				}
			],
			"name": "ERC721InvalidOperator",
			"type": "error"
		},
		{
			"inputs": [
				{
					"internalType": "address",
					"name": "owner",
					"type": "address"
				}
			],
			"name": "ERC721InvalidOwner",
			"type": "error"
		},
		{
			"inputs": [
				{
					"internalType": "address",
					"name": "receiver",
					"type": "address"
				}
			],
			"name": "ERC721InvalidReceiver",
			"type": "error"
		},
		{
			"inputs": [
				{
					"internalType": "address",
					"name": "sender",
					"type": "address"
				}
			],
			"name": "ERC721InvalidSender",
			"type": "error"
		},
		{
			"inputs": [
				{
					"internalType": "uint256",
					"name": "tokenId",
					"type": "uint256"
				}
			],
			"name": "ERC721NonexistentToken",
			"type": "error"
		},
		{
			"inputs": [
				{
					"internalType": "address",
					"name": "owner",
					"type": "address"
				},
				{
					"internalType": "uint256",
					"name": "index",
					"type": "uint256"
				}
			],
			"name": "ERC721OutOfBoundsIndex",
			"type": "error"
		},
		{
			"inputs": [
				{
					"internalType": "address",
					"name": "owner",
					"type": "address"
				}
			],
			"name": "OwnableInvalidOwner",
			"type": "error"
		},
		{
			"inputs": [
				{
					"internalType": "address",
					"name": "account",
					"type": "address"
				}
			],
			"name": "OwnableUnauthorizedAccount",
			"type": "error"
		},
		{
			"anonymous": false,
			"inputs": [
				{
					"indexed": true,
					"internalType": "address",
					"name": "owner",
					"type": "address"
				},
				{
					"indexed": true,
					"internalType": "address",
					"name": "approved",
					"type": "address"
				},
				{
					"indexed": true,
					"internalType": "uint256",
					"name": "tokenId",
					"type": "uint256"
				}
			],
			"name": "Approval",
			"type": "event"
		},
		{
			"anonymous": false,
			"inputs": [
				{
					"indexed": true,
					"internalType": "address",
					"name": "owner",
					"type": "address"
				},
				{
					"indexed": true,
					"internalType": "address",
					"name": "operator",
					"type": "address"
				},
				{
					"indexed": false,
					"internalType": "bool",
					"name": "approved",
					"type": "bool"
				}
			],
			"name": "ApprovalForAll",
			"type": "event"
		},
		{
			"anonymous": false,
			"inputs": [
				{
					"indexed": false,
					"internalType": "uint256",
					"name": "_fromTokenId",
					"type": "uint256"
				},
				{
					"indexed": false,
					"internalType": "uint256",
					"name": "_toTokenId",
					"type": "uint256"
				}
			],
			"name": "BatchMetadataUpdate",
			"type": "event"
		},
		{
			"anonymous": false,
			"inputs": [
				{
					"indexed": false,
					"internalType": "uint256",
					"name": "_tokenId",
					"type": "uint256"
				}
			],
			"name": "MetadataUpdate",
			"type": "event"
		},
		{
			"anonymous": false,
			"inputs": [
				{
					"indexed": true,
					"internalType": "address",
					"name": "previousOwner",
					"type": "address"
				},
				{
					"indexed": true,
					"internalType": "address",
					"name": "newOwner",
					"type": "address"
				}
			],
			"name": "OwnershipTransferred",
			"type": "event"
		},
		{
			"anonymous": false,
			"inputs": [
				{
					"indexed": true,
					"internalType": "address",
					"name": "from",
					"type": "address"
				},
				{
					"indexed": true,
					"internalType": "address",
					"name": "to",
					"type": "address"
				},
				{
					"indexed": true,
					"internalType": "uint256",
					"name": "tokenId",
					"type": "uint256"
				}
			],
			"name": "Transfer",
			"type": "event"
		},
		{
			"inputs": [
				{
					"internalType": "address",
					"name": "_trademgmtsc",
					"type": "address"
				}
			],
			"name": "SetTradeManagementSC",
			"outputs": [],
			"stateMutability": "nonpayable",
			"type": "function"
		},
		{
			"inputs": [
				{
					"internalType": "address",
					"name": "to",
					"type": "address"
				},
				{
					"internalType": "uint256",
					"name": "tokenId",
					"type": "uint256"
				}
			],
			"name": "approve",
			"outputs": [],
			"stateMutability": "nonpayable",
			"type": "function"
		},
		{
			"inputs": [
				{
					"internalType": "address",
					"name": "owner",
					"type": "address"
				}
			],
			"name": "balanceOf",
			"outputs": [
				{
					"internalType": "uint256",
					"name": "",
					"type": "uint256"
				}
			],
			"stateMutability": "view",
			"type": "function"
		},
		{
			"inputs": [],
			"name": "getAddress",
			"outputs": [
				{
					"internalType": "address",
					"name": "",
					"type": "address"
				}
			],
			"stateMutability": "view",
			"type": "function"
		},
		{
			"inputs": [
				{
					"internalType": "uint256",
					"name": "tokenId",
					"type": "uint256"
				}
			],
			"name": "getApproved",
			"outputs": [
				{
					"internalType": "address",
					"name": "",
					"type": "address"
				}
			],
			"stateMutability": "view",
			"type": "function"
		},
		{
			"inputs": [
				{
					"internalType": "address",
					"name": "owner",
					"type": "address"
				},
				{
					"internalType": "address",
					"name": "operator",
					"type": "address"
				}
			],
			"name": "isApprovedForAll",
			"outputs": [
				{
					"internalType": "bool",
					"name": "",
					"type": "bool"
				}
			],
			"stateMutability": "view",
			"type": "function"
		},
		{
			"inputs": [
				{
					"internalType": "uint256",
					"name": "numberOfTokens",
					"type": "uint256"
				},
				{
					"internalType": "string",
					"name": "_tokenURI",
					"type": "string"
				},
				{
					"internalType": "uint256[]",
					"name": "_childIDs",
					"type": "uint256[]"
				},
				{
					"internalType": "uint256[]",
					"name": "resumes",
					"type": "uint256[]"
				}
			],
			"name": "mint",
			"outputs": [
				{
					"internalType": "uint256[]",
					"name": "tokens",
					"type": "uint256[]"
				}
			],
			"stateMutability": "payable",
			"type": "function"
		},
		{
			"inputs": [],
			"name": "name",
			"outputs": [
				{
					"internalType": "string",
					"name": "",
					"type": "string"
				}
			],
			"stateMutability": "view",
			"type": "function"
		},
		{
			"inputs": [],
			"name": "owner",
			"outputs": [
				{
					"internalType": "address",
					"name": "",
					"type": "address"
				}
			],
			"stateMutability": "view",
			"type": "function"
		},
		{
			"inputs": [
				{
					"internalType": "uint256",
					"name": "tokenId",
					"type": "uint256"
				}
			],
			"name": "ownerOf",
			"outputs": [
				{
					"internalType": "address",
					"name": "",
					"type": "address"
				}
			],
			"stateMutability": "view",
			"type": "function"
		},
		{
			"inputs": [],
			"name": "renounceOwnership",
			"outputs": [],
			"stateMutability": "nonpayable",
			"type": "function"
		},
		{
			"inputs": [
				{
					"internalType": "address",
					"name": "from",
					"type": "address"
				},
				{
					"internalType": "address",
					"name": "to",
					"type": "address"
				},
				{
					"internalType": "uint256",
					"name": "tokenId",
					"type": "uint256"
				}
			],
			"name": "safeTransferFrom",
			"outputs": [],
			"stateMutability": "nonpayable",
			"type": "function"
		},
		{
			"inputs": [
				{
					"internalType": "address",
					"name": "from",
					"type": "address"
				},
				{
					"internalType": "address",
					"name": "to",
					"type": "address"
				},
				{
					"internalType": "uint256",
					"name": "tokenId",
					"type": "uint256"
				},
				{
					"internalType": "bytes",
					"name": "data",
					"type": "bytes"
				}
			],
			"name": "safeTransferFrom",
			"outputs": [],
			"stateMutability": "nonpayable",
			"type": "function"
		},
		{
			"inputs": [
				{
					"internalType": "address",
					"name": "operator",
					"type": "address"
				},
				{
					"internalType": "bool",
					"name": "approved",
					"type": "bool"
				}
			],
			"name": "setApprovalForAll",
			"outputs": [],
			"stateMutability": "nonpayable",
			"type": "function"
		},
		{
			"inputs": [
				{
					"internalType": "bytes4",
					"name": "interfaceId",
					"type": "bytes4"
				}
			],
			"name": "supportsInterface",
			"outputs": [
				{
					"internalType": "bool",
					"name": "",
					"type": "bool"
				}
			],
			"stateMutability": "view",
			"type": "function"
		},
		{
			"inputs": [],
			"name": "symbol",
			"outputs": [
				{
					"internalType": "string",
					"name": "",
					"type": "string"
				}
			],
			"stateMutability": "view",
			"type": "function"
		},
		{
			"inputs": [
				{
					"internalType": "uint256",
					"name": "index",
					"type": "uint256"
				}
			],
			"name": "tokenByIndex",
			"outputs": [
				{
					"internalType": "uint256",
					"name": "",
					"type": "uint256"
				}
			],
			"stateMutability": "view",
			"type": "function"
		},
		{
			"inputs": [
				{
					"internalType": "address",
					"name": "owner",
					"type": "address"
				},
				{
					"internalType": "uint256",
					"name": "index",
					"type": "uint256"
				}
			],
			"name": "tokenOfOwnerByIndex",
			"outputs": [
				{
					"internalType": "uint256",
					"name": "",
					"type": "uint256"
				}
			],
			"stateMutability": "view",
			"type": "function"
		},
		{
			"inputs": [
				{
					"internalType": "uint256",
					"name": "tokenID",
					"type": "uint256"
				}
			],
			"name": "tokenURI",
			"outputs": [
				{
					"internalType": "string",
					"name": "",
					"type": "string"
				}
			],
			"stateMutability": "view",
			"type": "function"
		},
		{
			"inputs": [],
			"name": "totalSupply",
			"outputs": [
				{
					"internalType": "uint256",
					"name": "",
					"type": "uint256"
				}
			],
			"stateMutability": "view",
			"type": "function"
		},
		{
			"inputs": [],
			"name": "tradeManagement",
			"outputs": [
				{
					"internalType": "contract TradeManagement",
					"name": "",
					"type": "address"
				}
			],
			"stateMutability": "view",
			"type": "function"
		},
		{
			"inputs": [
				{
					"internalType": "address",
					"name": "from",
					"type": "address"
				},
				{
					"internalType": "address",
					"name": "to",
					"type": "address"
				},
				{
					"internalType": "uint256",
					"name": "tokenID",
					"type": "uint256"
				},
				{
					"internalType": "string",
					"name": "actor",
					"type": "string"
				}
			],
			"name": "transferFrom",
			"outputs": [],
			"stateMutability": "nonpayable",
			"type": "function"
		},
		{
			"inputs": [
				{
					"internalType": "address",
					"name": "from",
					"type": "address"
				},
				{
					"internalType": "address",
					"name": "to",
					"type": "address"
				},
				{
					"internalType": "uint256",
					"name": "tokenId",
					"type": "uint256"
				}
			],
			"name": "transferFrom",
			"outputs": [],
			"stateMutability": "nonpayable",
			"type": "function"
		},
		{
			"inputs": [
				{
					"internalType": "address",
					"name": "newOwner",
					"type": "address"
				}
			],
			"name": "transferOwnership",
			"outputs": [],
			"stateMutability": "nonpayable",
			"type": "function"
		}
	]
}