{
	"data": {
		"bytecode": {
			"linkReferences": {},
			"object": "608060405234801561000f575f80fd5b503360035f6101000a81548173ffffffffffffffffffffffffffffffffffffffff021916908373ffffffffffffffffffffffffffffffffffffffff160217905550600160115f3373ffffffffffffffffffffffffffffffffffffffff1673ffffffffffffffffffffffffffffffffffffffff1681526020019081526020015f205f6101000a81548160ff02191690831515021790555061545a806100b25f395ff3fe608060405234801561000f575f80fd5b5060043610610246575f3560e01c806362fed11f11610139578063d8f68b7c116100b6578063e7875f6a1161007a578063e7875f6a146106e5578063eb667ae814610703578063ed57719514610733578063f8d5f40914610763578063ff7601b91461077f57610246565b8063d8f68b7c1461062b578063dfdedce114610649578063e01215eb14610665578063e16f2da514610681578063e1a6faba146106b557610246565b80639e0cf098116100fd5780639e0cf09814610570578063aed84d1f1461058e578063b121a001146105be578063b70b84c6146105f3578063bfa8eff01461060f57610246565b806362fed11f146104e25780637505c046146104fe57806389ab1f9d1461051a5780638b778fc6146105365780639ce31ba91461055257610246565b80633379a256116101c7578063466494a71161018b578063466494a71461042a57806347fb64871461045a5780634b297269146104785780634c33f142146104a8578063519a7b35146104c457610246565b80633379a2561461037657806335d9c56a14610392578063374ccc41146103c25780633894d0b3146103de5780633943167c1461040e57610246565b80631e17ee051161020e5780631e17ee05146102ea57806327f206fb146103065780632801ab581461032257806329c320a41461033e5780632df10a681461035a57610246565b806303945a4b1461024a5780630488e486146102665780630b2ed7371461029657806312646a42146102b25780631473eec7146102ce575b5f80fd5b610264600480360381019061025f9190613bb0565b61079d565b005b610280600480360381019061027b9190613c0a565b61087b565b60405161028d9190613caf565b60405180910390f35b6102b060048036038101906102ab9190613dc6565b610916565b005b6102cc60048036038101906102c79190613e4e565b610bd8565b005b6102e860048036038101906102e39190613ea8565b610d13565b005b61030460048036038101906102ff9190613c0a565b610e88565b005b610320600480360381019061031b9190613ef8565b610f6e565b005b61033c60048036038101906103379190613f94565b61115f565b005b61035860048036038101906103539190613f94565b6111da565b005b610374600480360381019061036f9190613c0a565b611255565b005b610390600480360381019061038b9190613c0a565b6112e3565b005b6103ac60048036038101906103a79190613c0a565b61143c565b6040516103b99190613caf565b60405180910390f35b6103dc60048036038101906103d79190613c0a565b6114d7565b005b6103f860048036038101906103f39190613c0a565b611630565b6040516104059190613caf565b60405180910390f35b61042860048036038101906104239190613fee565b6116cb565b005b610444600480360381019061043f919061403e565b61174d565b6040516104519190614120565b60405180910390f35b6104626117b4565b60405161046f919061414f565b60405180910390f35b610492600480360381019061048d9190613c0a565b6117d9565b60405161049f9190613caf565b60405180910390f35b6104c260048036038101906104bd9190613e4e565b611874565b005b6104cc611a79565b6040516104d99190614177565b60405180910390f35b6104fc60048036038101906104f79190613bb0565b611a7f565b005b61051860048036038101906105139190613bb0565b611b5d565b005b610534600480360381019061052f9190613c0a565b611c3b565b005b610550600480360381019061054b9190613bb0565b611d91565b005b61055a611e6f565b6040516105679190614177565b60405180910390f35b610578611e75565b60405161058591906141eb565b60405180910390f35b6105a860048036038101906105a39190613c0a565b611e98565b6040516105b59190613caf565b60405180910390f35b6105d860048036038101906105d3919061403e565b611f33565b6040516105ea969594939291906143a9565b60405180910390f35b61060d60048036038101906106089190613bb0565b6122b1565b005b61062960048036038101906106249190613c0a565b61238f565b005b61063361241d565b6040516106409190614177565b60405180910390f35b610663600480360381019061065e9190613e4e565b612423565b005b61067f600480360381019061067a9190613bb0565b61262a565b005b61069b6004803603810190610696919061403e565b612708565b6040516106ac959493929190614701565b60405180910390f35b6106cf60048036038101906106ca919061403e565b612f37565b6040516106dc9190614120565b60405180910390f35b6106ed612f9e565b6040516106fa919061478e565b60405180910390f35b61071d60048036038101906107189190613c0a565b612fc3565b60405161072a9190613caf565b60405180910390f35b61074d600480360381019061074891906147a7565b61305e565b60405161075a9190614827565b60405180910390f35b61077d60048036038101906107789190613c0a565b6135d9565b005b6107876136c0565b6040516107949190614860565b60405180910390f35b60035f9054906101000a900473ffffffffffffffffffffffffffffffffffffffff1673ffffffffffffffffffffffffffffffffffffffff163373ffffffffffffffffffffffffffffffffffffffff161461082c576040517f08c379a0000000000000000000000000000000000000000000000000000000008152600401610823906148e9565b60405180910390fd5b80600c5f8473ffffffffffffffffffffffffffffffffffffffff1673ffffffffffffffffffffffffffffffffffffffff1681526020019081526020015f2090816108769190614af8565b505050565b6008602052805f5260405f205f91509050805461089790614934565b80601f01602080910402602001604051908101604052809291908181526020018280546108c390614934565b801561090e5780601f106108e55761010080835404028352916020019161090e565b820191905f5260205f20905b8154815290600101906020018083116108f157829003601f168201915b505050505081565b5f5b8251811015610bd2575f60105f85848151811061093857610937614bc7565b5b602002602001015181526020019081526020015f20604051806101200160405290815f8201548152602001600182015481526020016002820154815260200160038201805461098690614934565b80601f01602080910402602001604051908101604052809291908181526020018280546109b290614934565b80156109fd5780601f106109d4576101008083540402835291602001916109fd565b820191905f5260205f20905b8154815290600101906020018083116109e057829003601f168201915b5050505050815260200160048201548152602001600582018054610a2090614934565b80601f0160208091040260200160405190810160405280929190818152602001828054610a4c90614934565b8015610a975780601f10610a6e57610100808354040283529160200191610a97565b820191905f5260205f20905b815481529060010190602001808311610a7a57829003601f168201915b505050505081526020016006820154815260200160078201805480602002602001604051908101604052809291908181526020018280548015610af757602002820191905f5260205f20905b815481526020019060010190808311610ae3575b5050505050815260200160088201805480602002602001604051908101604052809291908181526020018280548015610b4d57602002820191905f5260205f20905b815481526020019060010190808311610b39575b5050505050815250509050828281518110610b6b57610b6a614bc7565b5b602002602001015185610b7e9190614c21565b8160c001511015610bc4576040517f08c379a0000000000000000000000000000000000000000000000000000000008152600401610bbb90614cf8565b60405180910390fd5b508080600101915050610918565b50505050565b5f5b8151811015610d0e578273ffffffffffffffffffffffffffffffffffffffff165f8054906101000a900473ffffffffffffffffffffffffffffffffffffffff1673ffffffffffffffffffffffffffffffffffffffff16636352211e848481518110610c4857610c47614bc7565b5b60200260200101516040518263ffffffff1660e01b8152600401610c6c9190614177565b602060405180830381865afa158015610c87573d5f803e3d5ffd5b505050506040513d601f19601f82011682018060405250810190610cab9190614d2a565b73ffffffffffffffffffffffffffffffffffffffff1614610d01576040517f08c379a0000000000000000000000000000000000000000000000000000000008152600401610cf890614dc5565b60405180910390fd5b8080600101915050610bda565b505050565b5f8054906101000a900473ffffffffffffffffffffffffffffffffffffffff1673ffffffffffffffffffffffffffffffffffffffff16636352211e826040518263ffffffff1660e01b8152600401610d6b9190614177565b602060405180830381865afa158015610d86573d5f803e3d5ffd5b505050506040513d601f19601f82011682018060405250810190610daa9190614d2a565b73ffffffffffffffffffffffffffffffffffffffff168373ffffffffffffffffffffffffffffffffffffffff1614610e17576040517f08c379a0000000000000000000000000000000000000000000000000000000008152600401610e0e90614e53565b60405180910390fd5b5f60105f8381526020019081526020015f20905042816004018190555060085f8473ffffffffffffffffffffffffffffffffffffffff1673ffffffffffffffffffffffffffffffffffffffff1681526020019081526020015f20816005019081610e819190614e98565b5050505050565b60035f9054906101000a900473ffffffffffffffffffffffffffffffffffffffff1673ffffffffffffffffffffffffffffffffffffffff163373ffffffffffffffffffffffffffffffffffffffff1614610f17576040517f08c379a0000000000000000000000000000000000000000000000000000000008152600401610f0e906148e9565b60405180910390fd5b5f60115f8373ffffffffffffffffffffffffffffffffffffffff1673ffffffffffffffffffffffffffffffffffffffff1681526020019081526020015f205f6101000a81548160ff02191690831515021790555050565b5f600f5f8581526020019081526020015f20905083815f018190555060085f8673ffffffffffffffffffffffffffffffffffffffff1673ffffffffffffffffffffffffffffffffffffffff1681526020019081526020015f20816003019081610fd79190614e98565b504281600201819055505f5b8351811015611157578160060184828151811061100357611002614bc7565b5b6020026020010151908060018154018082558091505060019003905f5260205f20015f909190919091505560105f85838151811061104457611043614bc7565b5b602002602001015181526020019081526020015f2060070185908060018154018082558091505060019003905f5260205f20015f909190919091505560105f85838151811061109657611095614bc7565b5b602002602001015181526020019081526020015f206008018382815181106110c1576110c0614bc7565b5b6020026020010151908060018154018082558091505060019003905f5260205f20015f90919091909150558281815181106110ff576110fe614bc7565b5b602002602001015160105f86848151811061111d5761111c614bc7565b5b602002602001015181526020019081526020015f206006015f8282546111439190614f7d565b925050819055508080600101915050610fe3565b505050505050565b80600e5f8481526020019081526020015f2090805190602001906111849291906138d4565b505f5b81518110156111d5575f60105f8484815181106111a7576111a6614bc7565b5b602002602001015181526020019081526020015f209050838160010181905550508080600101915050611187565b505050565b80600d5f8481526020019081526020015f2090805190602001906111ff9291906138d4565b505f5b8151811015611250575f600f5f84848151811061122257611221614bc7565b5b602002602001015181526020019081526020015f209050838160010181905550508080600101915050611202565b505050565b5f60085f8373ffffffffffffffffffffffffffffffffffffffff1673ffffffffffffffffffffffffffffffffffffffff1681526020019081526020015f20805461129e90614934565b9050036112e0576040517f08c379a00000000000000000000000000000000000000000000000000000000081526004016112d790615020565b60405180910390fd5b50565b60035f9054906101000a900473ffffffffffffffffffffffffffffffffffffffff1673ffffffffffffffffffffffffffffffffffffffff163373ffffffffffffffffffffffffffffffffffffffff1614611372576040517f08c379a0000000000000000000000000000000000000000000000000000000008152600401611369906148e9565b60405180910390fd5b8060025f6101000a81548173ffffffffffffffffffffffffffffffffffffffff021916908373ffffffffffffffffffffffffffffffffffffffff16021790555060025f9054906101000a900473ffffffffffffffffffffffffffffffffffffffff1673ffffffffffffffffffffffffffffffffffffffff16630fffc4cf306040518263ffffffff1660e01b815260040161140c919061414f565b5f604051808303815f87803b158015611423575f80fd5b505af1158015611435573d5f803e3d5ffd5b5050505050565b6009602052805f5260405f205f91509050805461145890614934565b80601f016020809104026020016040519081016040528092919081815260200182805461148490614934565b80156114cf5780601f106114a6576101008083540402835291602001916114cf565b820191905f5260205f20905b8154815290600101906020018083116114b257829003601f168201915b505050505081565b60035f9054906101000a900473ffffffffffffffffffffffffffffffffffffffff1673ffffffffffffffffffffffffffffffffffffffff163373ffffffffffffffffffffffffffffffffffffffff1614611566576040517f08c379a000000000000000000000000000000000000000000000000000000000815260040161155d906148e9565b60405180910390fd5b8060015f6101000a81548173ffffffffffffffffffffffffffffffffffffffff021916908373ffffffffffffffffffffffffffffffffffffffff16021790555060015f9054906101000a900473ffffffffffffffffffffffffffffffffffffffff1673ffffffffffffffffffffffffffffffffffffffff16630fffc4cf306040518263ffffffff1660e01b8152600401611600919061414f565b5f604051808303815f87803b158015611617575f80fd5b505af1158015611629573d5f803e3d5ffd5b5050505050565b600c602052805f5260405f205f91509050805461164c90614934565b80601f016020809104026020016040519081016040528092919081815260200182805461167890614934565b80156116c35780601f1061169a576101008083540402835291602001916116c3565b820191905f5260205f20905b8154815290600101906020018083116116a657829003601f168201915b505050505081565b5f60105f8481526020019081526020015f20905082815f018190555060075f8573ffffffffffffffffffffffffffffffffffffffff1673ffffffffffffffffffffffffffffffffffffffff1681526020019081526020015f208160030190816117349190614e98565b5042816002018190555081816006018190555050505050565b6060600d5f8381526020019081526020015f208054806020026020016040519081016040528092919081815260200182805480156117a857602002820191905f5260205f20905b815481526020019060010190808311611794575b50505050509050919050565b60035f9054906101000a900473ffffffffffffffffffffffffffffffffffffffff1681565b6007602052805f5260405f205f9150905080546117f590614934565b80601f016020809104026020016040519081016040528092919081815260200182805461182190614934565b801561186c5780601f106118435761010080835404028352916020019161186c565b820191905f5260205f20905b81548152906001019060200180831161184f57829003601f168201915b505050505081565b5f5b8151811015611a74575f60105f84848151811061189657611895614bc7565b5b602002602001015181526020019081526020015f205f015490505f81036118f2576040517f08c379a00000000000000000000000000000000000000000000000000000000081526004016118e990615088565b60405180910390fd5b8373ffffffffffffffffffffffffffffffffffffffff165f8054906101000a900473ffffffffffffffffffffffffffffffffffffffff1673ffffffffffffffffffffffffffffffffffffffff16636352211e836040518263ffffffff1660e01b81526004016119619190614177565b602060405180830381865afa15801561197c573d5f803e3d5ffd5b505050506040513d601f19601f820116820180604052508101906119a09190614d2a565b73ffffffffffffffffffffffffffffffffffffffff16146119f6576040517f08c379a00000000000000000000000000000000000000000000000000000000081526004016119ed906150f0565b60405180910390fd5b5f60105f858581518110611a0d57611a0c614bc7565b5b602002602001015181526020019081526020015f206001015414611a66576040517f08c379a0000000000000000000000000000000000000000000000000000000008152600401611a5d90615158565b60405180910390fd5b508080600101915050611876565b505050565b60055481565b60035f9054906101000a900473ffffffffffffffffffffffffffffffffffffffff1673ffffffffffffffffffffffffffffffffffffffff163373ffffffffffffffffffffffffffffffffffffffff1614611b0e576040517f08c379a0000000000000000000000000000000000000000000000000000000008152600401611b05906148e9565b60405180910390fd5b8060085f8473ffffffffffffffffffffffffffffffffffffffff1673ffffffffffffffffffffffffffffffffffffffff1681526020019081526020015f209081611b589190614af8565b505050565b60035f9054906101000a900473ffffffffffffffffffffffffffffffffffffffff1673ffffffffffffffffffffffffffffffffffffffff163373ffffffffffffffffffffffffffffffffffffffff1614611bec576040517f08c379a0000000000000000000000000000000000000000000000000000000008152600401611be3906148e9565b60405180910390fd5b80600a5f8473ffffffffffffffffffffffffffffffffffffffff1673ffffffffffffffffffffffffffffffffffffffff1681526020019081526020015f209081611c369190614af8565b505050565b60035f9054906101000a900473ffffffffffffffffffffffffffffffffffffffff1673ffffffffffffffffffffffffffffffffffffffff163373ffffffffffffffffffffffffffffffffffffffff1614611cca576040517f08c379a0000000000000000000000000000000000000000000000000000000008152600401611cc1906148e9565b60405180910390fd5b805f806101000a81548173ffffffffffffffffffffffffffffffffffffffff021916908373ffffffffffffffffffffffffffffffffffffffff1602179055505f8054906101000a900473ffffffffffffffffffffffffffffffffffffffff1673ffffffffffffffffffffffffffffffffffffffff16630fffc4cf306040518263ffffffff1660e01b8152600401611d61919061414f565b5f604051808303815f87803b158015611d78575f80fd5b505af1158015611d8a573d5f803e3d5ffd5b5050505050565b60035f9054906101000a900473ffffffffffffffffffffffffffffffffffffffff1673ffffffffffffffffffffffffffffffffffffffff163373ffffffffffffffffffffffffffffffffffffffff1614611e20576040517f08c379a0000000000000000000000000000000000000000000000000000000008152600401611e17906148e9565b60405180910390fd5b8060095f8473ffffffffffffffffffffffffffffffffffffffff1673ffffffffffffffffffffffffffffffffffffffff1681526020019081526020015f209081611e6a9190614af8565b505050565b60065481565b5f8054906101000a900473ffffffffffffffffffffffffffffffffffffffff1681565b600a602052805f5260405f205f915090508054611eb490614934565b80601f0160208091040260200160405190810160405280929190818152602001828054611ee090614934565b8015611f2b5780601f10611f0257610100808354040283529160200191611f2b565b820191905f5260205f20905b815481529060010190602001808311611f0e57829003601f168201915b505050505081565b5f6060611f3e61391f565b606080606060105f8881526020019081526020015f20604051806101200160405290815f82015481526020016001820154815260200160028201548152602001600382018054611f8d90614934565b80601f0160208091040260200160405190810160405280929190818152602001828054611fb990614934565b80156120045780601f10611fdb57610100808354040283529160200191612004565b820191905f5260205f20905b815481529060010190602001808311611fe757829003601f168201915b505050505081526020016004820154815260200160058201805461202790614934565b80601f016020809104026020016040519081016040528092919081815260200182805461205390614934565b801561209e5780601f106120755761010080835404028352916020019161209e565b820191905f5260205f20905b81548152906001019060200180831161208157829003601f168201915b5050505050815260200160068201548152602001600782018054806020026020016040519081016040528092919081815260200182805480156120fe57602002820191905f5260205f20905b8154815260200190600101908083116120ea575b505050505081526020016008820180548060200260200160405190810160405280929190818152602001828054801561215457602002820191905f5260205f20905b815481526020019060010190808311612140575b50505050508152505093505f845f0151036121b9575f848484846040518060400160405280601881526020017f54686520746f6b656e4944206973206e6f742065786973740000000000000000815250939291909550955095509550955095506122a8565b6001848560e001518661010001515f8054906101000a900473ffffffffffffffffffffffffffffffffffffffff1673ffffffffffffffffffffffffffffffffffffffff1663c87b56dd8c6040518263ffffffff1660e01b815260040161221f9190614177565b5f60405180830381865afa158015612239573d5f803e3d5ffd5b505050506040513d5f823e3d601f19601f8201168201806040525081019061226191906151e4565b6040518060400160405280600781526020017f5375636365737300000000000000000000000000000000000000000000000000815250939291909550955095509550955095505b91939550919395565b60035f9054906101000a900473ffffffffffffffffffffffffffffffffffffffff1673ffffffffffffffffffffffffffffffffffffffff163373ffffffffffffffffffffffffffffffffffffffff1614612340576040517f08c379a0000000000000000000000000000000000000000000000000000000008152600401612337906148e9565b60405180910390fd5b80600b5f8473ffffffffffffffffffffffffffffffffffffffff1673ffffffffffffffffffffffffffffffffffffffff1681526020019081526020015f20908161238a9190614af8565b505050565b5f60075f8373ffffffffffffffffffffffffffffffffffffffff1673ffffffffffffffffffffffffffffffffffffffff1681526020019081526020015f2080546123d890614934565b90500361241a576040517f08c379a00000000000000000000000000000000000000000000000000000000081526004016124119061529b565b60405180910390fd5b50565b60045481565b5f5b8151811015612625575f600f5f84848151811061244557612444614bc7565b5b602002602001015181526020019081526020015f205f015490505f81036124a1576040517f08c379a000000000000000000000000000000000000000000000000000000000815260040161249890615303565b60405180910390fd5b8373ffffffffffffffffffffffffffffffffffffffff1660015f9054906101000a900473ffffffffffffffffffffffffffffffffffffffff1673ffffffffffffffffffffffffffffffffffffffff16636352211e836040518263ffffffff1660e01b81526004016125129190614177565b602060405180830381865afa15801561252d573d5f803e3d5ffd5b505050506040513d601f19601f820116820180604052508101906125519190614d2a565b73ffffffffffffffffffffffffffffffffffffffff16146125a7576040517f08c379a000000000000000000000000000000000000000000000000000000000815260040161259e906150f0565b60405180910390fd5b5f600f5f8585815181106125be576125bd614bc7565b5b602002602001015181526020019081526020015f206001015414612617576040517f08c379a000000000000000000000000000000000000000000000000000000000815260040161260e90615391565b60405180910390fd5b508080600101915050612425565b505050565b60035f9054906101000a900473ffffffffffffffffffffffffffffffffffffffff1673ffffffffffffffffffffffffffffffffffffffff163373ffffffffffffffffffffffffffffffffffffffff16146126b9576040517f08c379a00000000000000000000000000000000000000000000000000000000081526004016126b0906148e9565b60405180910390fd5b8060075f8473ffffffffffffffffffffffffffffffffffffffff1673ffffffffffffffffffffffffffffffffffffffff1681526020019081526020015f2090816127039190614af8565b505050565b5f6060612713613966565b606080600f5f8781526020019081526020015f206040518060e00160405290815f8201548152602001600182015481526020016002820154815260200160038201805461275f90614934565b80601f016020809104026020016040519081016040528092919081815260200182805461278b90614934565b80156127d65780601f106127ad576101008083540402835291602001916127d6565b820191905f5260205f20905b8154815290600101906020018083116127b957829003601f168201915b5050505050815260200160048201805480602002602001604051908101604052809291908181526020015f905b8282101561295b578382905f5260205f2090600402016040518060800160405290815f82015f9054906101000a900473ffffffffffffffffffffffffffffffffffffffff1673ffffffffffffffffffffffffffffffffffffffff1673ffffffffffffffffffffffffffffffffffffffff1681526020016001820154815260200160028201805461289290614934565b80601f01602080910402602001604051908101604052809291908181526020018280546128be90614934565b80156129095780601f106128e057610100808354040283529160200191612909565b820191905f5260205f20905b8154815290600101906020018083116128ec57829003601f168201915b50505050508152602001600382015f9054906101000a900460ff16600581111561293657612935614463565b5b600581111561294857612947614463565b5b8152505081526020019060010190612803565b505050508152602001600582015f9054906101000a900460ff16151515158152602001600682018054806020026020016040519081016040528092919081815260200182805480156129ca57602002820191905f5260205f20905b8154815260200190600101908083116129b6575b50505050508152505092505f835f015103612a2b575f8383836040518060400160405280601881526020017f54686520746f6b656e4944206973206e6f74206578697374000000000000000081525092919094509450945094509450612f2e565b60115f3373ffffffffffffffffffffffffffffffffffffffff1673ffffffffffffffffffffffffffffffffffffffff1681526020019081526020015f205f9054906101000a900460ff16158015612a8357508260a001515b8015612b5357503373ffffffffffffffffffffffffffffffffffffffff1660015f9054906101000a900473ffffffffffffffffffffffffffffffffffffffff1673ffffffffffffffffffffffffffffffffffffffff16636352211e886040518263ffffffff1660e01b8152600401612afb9190614177565b602060405180830381865afa158015612b16573d5f803e3d5ffd5b505050506040513d601f19601f82011682018060405250810190612b3a9190614d2a565b73ffffffffffffffffffffffffffffffffffffffff1614155b15612e46575f600f5f8081526020019081526020015f20838360405180606001604052806025815260200161540060259139929190826040518060e00160405290815f82015481526020016001820154815260200160028201548152602001600382018054612bc190614934565b80601f0160208091040260200160405190810160405280929190818152602001828054612bed90614934565b8015612c385780601f10612c0f57610100808354040283529160200191612c38565b820191905f5260205f20905b815481529060010190602001808311612c1b57829003601f168201915b5050505050815260200160048201805480602002602001604051908101604052809291908181526020015f905b82821015612dbd578382905f5260205f2090600402016040518060800160405290815f82015f9054906101000a900473ffffffffffffffffffffffffffffffffffffffff1673ffffffffffffffffffffffffffffffffffffffff1673ffffffffffffffffffffffffffffffffffffffff16815260200160018201548152602001600282018054612cf490614934565b80601f0160208091040260200160405190810160405280929190818152602001828054612d2090614934565b8015612d6b5780601f10612d4257610100808354040283529160200191612d6b565b820191905f5260205f20905b815481529060010190602001808311612d4e57829003601f168201915b50505050508152602001600382015f9054906101000a900460ff166005811115612d9857612d97614463565b5b6005811115612daa57612da9614463565b5b8152505081526020019060010190612c65565b505050508152602001600582015f9054906101000a900460ff1615151515815260200160068201805480602002602001604051908101604052809291908181526020018280548015612e2c57602002820191905f5260205f20905b815481526020019060010190808311612e18575b505050505081525050925094509450945094509450612f2e565b600183846080015160015f9054906101000a900473ffffffffffffffffffffffffffffffffffffffff1673ffffffffffffffffffffffffffffffffffffffff1663c87b56dd8a6040518263ffffffff1660e01b8152600401612ea89190614177565b5f60405180830381865afa158015612ec2573d5f803e3d5ffd5b505050506040513d5f823e3d601f19601f82011682018060405250810190612eea91906151e4565b6040518060400160405280600781526020017f5375636365737300000000000000000000000000000000000000000000000000815250929190945094509450945094505b91939590929450565b6060600e5f8381526020019081526020015f20805480602002602001604051908101604052809291908181526020018280548015612f9257602002820191905f5260205f20905b815481526020019060010190808311612f7e575b50505050509050919050565b60015f9054906101000a900473ffffffffffffffffffffffffffffffffffffffff1681565b600b602052805f5260405f205f915090508054612fdf90614934565b80601f016020809104026020016040519081016040528092919081815260200182805461300b90614934565b80156130565780601f1061302d57610100808354040283529160200191613056565b820191905f5260205f20905b81548152906001019060200180831161303957829003601f168201915b505050505081565b5f80600f5f8581526020019081526020015f2090505f61307d846136e5565b90506130876139a1565b5f6002600581111561309c5761309b614463565b5b8360058111156130af576130ae614463565b5b036131855760095f8973ffffffffffffffffffffffffffffffffffffffff1673ffffffffffffffffffffffffffffffffffffffff1681526020019081526020015f2080546130fc90614934565b80601f016020809104026020016040519081016040528092919081815260200182805461312890614934565b80156131735780601f1061314a57610100808354040283529160200191613173565b820191905f5260205f20905b81548152906001019060200180831161315657829003601f168201915b5050505050826040018190525061347a565b6003600581111561319957613198614463565b5b8360058111156131ac576131ab614463565b5b0361328257600a5f8973ffffffffffffffffffffffffffffffffffffffff1673ffffffffffffffffffffffffffffffffffffffff1681526020019081526020015f2080546131f990614934565b80601f016020809104026020016040519081016040528092919081815260200182805461322590614934565b80156132705780601f1061324757610100808354040283529160200191613270565b820191905f5260205f20905b81548152906001019060200180831161325357829003601f168201915b50505050508260400181905250613479565b6004600581111561329657613295614463565b5b8360058111156132a9576132a8614463565b5b0361337f57600b5f8973ffffffffffffffffffffffffffffffffffffffff1673ffffffffffffffffffffffffffffffffffffffff1681526020019081526020015f2080546132f690614934565b80601f016020809104026020016040519081016040528092919081815260200182805461332290614934565b801561336d5780601f106133445761010080835404028352916020019161336d565b820191905f5260205f20905b81548152906001019060200180831161335057829003601f168201915b50505050508260400181905250613478565b60058081111561339257613391614463565b5b8360058111156133a5576133a4614463565b5b0361347757600c5f8973ffffffffffffffffffffffffffffffffffffffff1673ffffffffffffffffffffffffffffffffffffffff1681526020019081526020015f2080546133f290614934565b80601f016020809104026020016040519081016040528092919081815260200182805461341e90614934565b80156134695780601f1061344057610100808354040283529160200191613469565b820191905f5260205f20905b81548152906001019060200180831161344c57829003601f168201915b505050505082604001819052505b5b5b5b6134878260400151613870565b6135c95787825f019073ffffffffffffffffffffffffffffffffffffffff16908173ffffffffffffffffffffffffffffffffffffffff16815250504282602001818152505082826060019060058111156134e4576134e3614463565b5b908160058111156134f8576134f7614463565b5b815250508360040182908060018154018082558091505060019003905f5260205f2090600402015f909190919091505f820151815f015f6101000a81548173ffffffffffffffffffffffffffffffffffffffff021916908373ffffffffffffffffffffffffffffffffffffffff16021790555060208201518160010155604082015181600201908161358a9190614af8565b506060820151816003015f6101000a81548160ff021916908360058111156135b5576135b4614463565b5b0217905550505060019450505050506135d1565b5f9450505050505b949350505050565b60035f9054906101000a900473ffffffffffffffffffffffffffffffffffffffff1673ffffffffffffffffffffffffffffffffffffffff163373ffffffffffffffffffffffffffffffffffffffff1614613668576040517f08c379a000000000000000000000000000000000000000000000000000000000815260040161365f906148e9565b60405180910390fd5b600160115f8373ffffffffffffffffffffffffffffffffffffffff1673ffffffffffffffffffffffffffffffffffffffff1681526020019081526020015f205f6101000a81548160ff02191690831515021790555050565b60025f9054906101000a900473ffffffffffffffffffffffffffffffffffffffff1681565b5f613725826040518060400160405280600881526020017f50726f647563657200000000000000000000000000000000000000000000000081525061387c565b15613733576001905061386b565b613772826040518060400160405280600881526020017f52657461696c657200000000000000000000000000000000000000000000000081525061387c565b15613780576004905061386b565b6137bf826040518060400160405280600881526020017f437573746f6d657200000000000000000000000000000000000000000000000081525061387c565b156137cd576005905061386b565b61380c826040518060400160405280600a81526020017f57686f6c6573616c65720000000000000000000000000000000000000000000081525061387c565b1561381a576003905061386b565b613859826040518060400160405280600681526020017f4465616c6572000000000000000000000000000000000000000000000000000081525061387c565b15613867576002905061386b565b5f90505b919050565b5f808251149050919050565b5f8160405160200161388e91906153e9565b60405160208183030381529060405280519060200120836040516020016138b591906153e9565b6040516020818303038152906040528051906020012014905092915050565b828054828255905f5260205f2090810192821561390e579160200282015b8281111561390d5782518255916020019190600101906138f2565b5b50905061391b91906139ee565b5090565b6040518061012001604052805f81526020015f81526020015f8152602001606081526020015f8152602001606081526020015f815260200160608152602001606081525090565b6040518060e001604052805f81526020015f81526020015f815260200160608152602001606081526020015f15158152602001606081525090565b60405180608001604052805f73ffffffffffffffffffffffffffffffffffffffff1681526020015f8152602001606081526020015f60058111156139e8576139e7614463565b5b81525090565b5b80821115613a05575f815f9055506001016139ef565b5090565b5f604051905090565b5f80fd5b5f80fd5b5f73ffffffffffffffffffffffffffffffffffffffff82169050919050565b5f613a4382613a1a565b9050919050565b613a5381613a39565b8114613a5d575f80fd5b50565b5f81359050613a6e81613a4a565b92915050565b5f80fd5b5f80fd5b5f601f19601f8301169050919050565b7f4e487b71000000000000000000000000000000000000000000000000000000005f52604160045260245ffd5b613ac282613a7c565b810181811067ffffffffffffffff82111715613ae157613ae0613a8c565b5b80604052505050565b5f613af3613a09565b9050613aff8282613ab9565b919050565b5f67ffffffffffffffff821115613b1e57613b1d613a8c565b5b613b2782613a7c565b9050602081019050919050565b828183375f83830152505050565b5f613b54613b4f84613b04565b613aea565b905082815260208101848484011115613b7057613b6f613a78565b5b613b7b848285613b34565b509392505050565b5f82601f830112613b9757613b96613a74565b5b8135613ba7848260208601613b42565b91505092915050565b5f8060408385031215613bc657613bc5613a12565b5b5f613bd385828601613a60565b925050602083013567ffffffffffffffff811115613bf457613bf3613a16565b5b613c0085828601613b83565b9150509250929050565b5f60208284031215613c1f57613c1e613a12565b5b5f613c2c84828501613a60565b91505092915050565b5f81519050919050565b5f82825260208201905092915050565b5f5b83811015613c6c578082015181840152602081019050613c51565b5f8484015250505050565b5f613c8182613c35565b613c8b8185613c3f565b9350613c9b818560208601613c4f565b613ca481613a7c565b840191505092915050565b5f6020820190508181035f830152613cc78184613c77565b905092915050565b5f819050919050565b613ce181613ccf565b8114613ceb575f80fd5b50565b5f81359050613cfc81613cd8565b92915050565b5f67ffffffffffffffff821115613d1c57613d1b613a8c565b5b602082029050602081019050919050565b5f80fd5b5f613d43613d3e84613d02565b613aea565b90508083825260208201905060208402830185811115613d6657613d65613d2d565b5b835b81811015613d8f5780613d7b8882613cee565b845260208401935050602081019050613d68565b5050509392505050565b5f82601f830112613dad57613dac613a74565b5b8135613dbd848260208601613d31565b91505092915050565b5f805f60608486031215613ddd57613ddc613a12565b5b5f613dea86828701613cee565b935050602084013567ffffffffffffffff811115613e0b57613e0a613a16565b5b613e1786828701613d99565b925050604084013567ffffffffffffffff811115613e3857613e37613a16565b5b613e4486828701613d99565b9150509250925092565b5f8060408385031215613e6457613e63613a12565b5b5f613e7185828601613a60565b925050602083013567ffffffffffffffff811115613e9257613e91613a16565b5b613e9e85828601613d99565b9150509250929050565b5f805f60608486031215613ebf57613ebe613a12565b5b5f613ecc86828701613a60565b9350506020613edd86828701613a60565b9250506040613eee86828701613cee565b9150509250925092565b5f805f8060808587031215613f1057613f0f613a12565b5b5f613f1d87828801613a60565b9450506020613f2e87828801613cee565b935050604085013567ffffffffffffffff811115613f4f57613f4e613a16565b5b613f5b87828801613d99565b925050606085013567ffffffffffffffff811115613f7c57613f7b613a16565b5b613f8887828801613d99565b91505092959194509250565b5f8060408385031215613faa57613fa9613a12565b5b5f613fb785828601613cee565b925050602083013567ffffffffffffffff811115613fd857613fd7613a16565b5b613fe485828601613d99565b9150509250929050565b5f805f6060848603121561400557614004613a12565b5b5f61401286828701613a60565b935050602061402386828701613cee565b925050604061403486828701613cee565b9150509250925092565b5f6020828403121561405357614052613a12565b5b5f61406084828501613cee565b91505092915050565b5f81519050919050565b5f82825260208201905092915050565b5f819050602082019050919050565b61409b81613ccf565b82525050565b5f6140ac8383614092565b60208301905092915050565b5f602082019050919050565b5f6140ce82614069565b6140d88185614073565b93506140e383614083565b805f5b838110156141135781516140fa88826140a1565b9750614105836140b8565b9250506001810190506140e6565b5085935050505092915050565b5f6020820190508181035f83015261413881846140c4565b905092915050565b61414981613a39565b82525050565b5f6020820190506141625f830184614140565b92915050565b61417181613ccf565b82525050565b5f60208201905061418a5f830184614168565b92915050565b5f819050919050565b5f6141b36141ae6141a984613a1a565b614190565b613a1a565b9050919050565b5f6141c482614199565b9050919050565b5f6141d5826141ba565b9050919050565b6141e5816141cb565b82525050565b5f6020820190506141fe5f8301846141dc565b92915050565b5f8115159050919050565b61421881614204565b82525050565b5f82825260208201905092915050565b5f61423882613c35565b614242818561421e565b9350614252818560208601613c4f565b61425b81613a7c565b840191505092915050565b5f82825260208201905092915050565b5f61428082614069565b61428a8185614266565b935061429583614083565b805f5b838110156142c55781516142ac88826140a1565b97506142b7836140b8565b925050600181019050614298565b5085935050505092915050565b5f61012083015f8301516142e85f860182614092565b5060208301516142fb6020860182614092565b50604083015161430e6040860182614092565b5060608301518482036060860152614326828261422e565b915050608083015161433b6080860182614092565b5060a083015184820360a0860152614353828261422e565b91505060c083015161436860c0860182614092565b5060e083015184820360e08601526143808282614276565b91505061010083015184820361010086015261439c8282614276565b9150508091505092915050565b5f60c0820190506143bc5f83018961420f565b81810360208301526143ce8188613c77565b905081810360408301526143e281876142d2565b905081810360608301526143f681866140c4565b9050818103608083015261440a81856140c4565b905081810360a083015261441e8184613c77565b9050979650505050505050565b5f81519050919050565b5f82825260208201905092915050565b5f819050602082019050919050565b61445d81613a39565b82525050565b7f4e487b71000000000000000000000000000000000000000000000000000000005f52602160045260245ffd5b600681106144a1576144a0614463565b5b50565b5f8190506144b182614490565b919050565b5f6144c0826144a4565b9050919050565b6144d0816144b6565b82525050565b5f608083015f8301516144eb5f860182614454565b5060208301516144fe6020860182614092565b5060408301518482036040860152614516828261422e565b915050606083015161452b60608601826144c7565b508091505092915050565b5f61454183836144d6565b905092915050565b5f602082019050919050565b5f61455f8261442b565b6145698185614435565b93508360208202850161457b85614445565b805f5b858110156145b657848403895281516145978582614536565b94506145a283614549565b925060208a0199505060018101905061457e565b50829750879550505050505092915050565b6145d181614204565b82525050565b5f60e083015f8301516145ec5f860182614092565b5060208301516145ff6020860182614092565b5060408301516146126040860182614092565b506060830151848203606086015261462a828261422e565b915050608083015184820360808601526146448282614555565b91505060a083015161465960a08601826145c8565b5060c083015184820360c08601526146718282614276565b9150508091505092915050565b5f82825260208201905092915050565b5f6146988261442b565b6146a2818561467e565b9350836020820285016146b485614445565b805f5b858110156146ef57848403895281516146d08582614536565b94506146db83614549565b925060208a019950506001810190506146b7565b50829750879550505050505092915050565b5f60a0820190506147145f83018861420f565b81810360208301526147268187613c77565b9050818103604083015261473a81866145d7565b9050818103606083015261474e818561468e565b905081810360808301526147628184613c77565b90509695505050505050565b5f614778826141ba565b9050919050565b6147888161476e565b82525050565b5f6020820190506147a15f83018461477f565b92915050565b5f805f80608085870312156147bf576147be613a12565b5b5f6147cc87828801613a60565b94505060206147dd87828801613a60565b93505060406147ee87828801613cee565b925050606085013567ffffffffffffffff81111561480f5761480e613a16565b5b61481b87828801613b83565b91505092959194509250565b5f60208201905061483a5f83018461420f565b92915050565b5f61484a826141ba565b9050919050565b61485a81614840565b82525050565b5f6020820190506148735f830184614851565b92915050565b7f4f6e6c792074686520666f6f6420617574686f726974792063616e2072756e205f8201527f746869732066756e6374696f6e00000000000000000000000000000000000000602082015250565b5f6148d3602d83613c3f565b91506148de82614879565b604082019050919050565b5f6020820190508181035f830152614900816148c7565b9050919050565b7f4e487b71000000000000000000000000000000000000000000000000000000005f52602260045260245ffd5b5f600282049050600182168061494b57607f821691505b60208210810361495e5761495d614907565b5b50919050565b5f819050815f5260205f209050919050565b5f6020601f8301049050919050565b5f82821b905092915050565b5f600883026149c07fffffffffffffffffffffffffffffffffffffffffffffffffffffffffffffffff82614985565b6149ca8683614985565b95508019841693508086168417925050509392505050565b5f6149fc6149f76149f284613ccf565b614190565b613ccf565b9050919050565b5f819050919050565b614a15836149e2565b614a29614a2182614a03565b848454614991565b825550505050565b5f90565b614a3d614a31565b614a48818484614a0c565b505050565b5b81811015614a6b57614a605f82614a35565b600181019050614a4e565b5050565b601f821115614ab057614a8181614964565b614a8a84614976565b81016020851015614a99578190505b614aad614aa585614976565b830182614a4d565b50505b505050565b5f82821c905092915050565b5f614ad05f1984600802614ab5565b1980831691505092915050565b5f614ae88383614ac1565b9150826002028217905092915050565b614b0182613c35565b67ffffffffffffffff811115614b1a57614b19613a8c565b5b614b248254614934565b614b2f828285614a6f565b5f60209050601f831160018114614b60575f8415614b4e578287015190505b614b588582614add565b865550614bbf565b601f198416614b6e86614964565b5f5b82811015614b9557848901518255600182019150602085019450602081019050614b70565b86831015614bb25784890151614bae601f891682614ac1565b8355505b6001600288020188555050505b505050505050565b7f4e487b71000000000000000000000000000000000000000000000000000000005f52603260045260245ffd5b7f4e487b71000000000000000000000000000000000000000000000000000000005f52601160045260245ffd5b5f614c2b82613ccf565b9150614c3683613ccf565b9250828202614c4481613ccf565b91508282048414831517614c5b57614c5a614bf4565b5b5092915050565b7f54686520746f74616c20737572706c7573206f6620726177206d6174657269615f8201527f6c7320697320696e73756666696369656e7420666f7220636f6e73756d70746960208201527f6f6e000000000000000000000000000000000000000000000000000000000000604082015250565b5f614ce2604283613c3f565b9150614ced82614c62565b606082019050919050565b5f6020820190508181035f830152614d0f81614cd6565b9050919050565b5f81519050614d2481613a4a565b92915050565b5f60208284031215614d3f57614d3e613a12565b5b5f614d4c84828501614d16565b91505092915050565b7f546865207573657220646f6573206e6f74206f776e2074686520726177206d615f8201527f74657269616c0000000000000000000000000000000000000000000000000000602082015250565b5f614daf602683613c3f565b9150614dba82614d55565b604082019050919050565b5f6020820190508181035f830152614ddc81614da3565b9050919050565b7f7468697320746f6b656e206973206e6f742062656c6f6e6720746869732075735f8201527f6572000000000000000000000000000000000000000000000000000000000000602082015250565b5f614e3d602283613c3f565b9150614e4882614de3565b604082019050919050565b5f6020820190508181035f830152614e6a81614e31565b9050919050565b5f81549050614e7f81614934565b9050919050565b5f819050815f5260205f209050919050565b818103614ea6575050614f7b565b614eaf82614e71565b67ffffffffffffffff811115614ec857614ec7613a8c565b5b614ed28254614934565b614edd828285614a6f565b5f601f831160018114614f0a575f8415614ef8578287015490505b614f028582614add565b865550614f74565b601f198416614f1887614e86565b9650614f2386614964565b5f5b82811015614f4a57848901548255600182019150600185019450602081019050614f25565b86831015614f675784890154614f63601f891682614ac1565b8355505b6001600288020188555050505b5050505050505b565b5f614f8782613ccf565b9150614f9283613ccf565b9250828203905081811115614faa57614fa9614bf4565b5b92915050565b7f4f6e6c7920617574686f72697a65642070726f6475636572732061726520616c5f8201527f6c6f77656420746f2072756e20746869732066756e6374696f6e000000000000602082015250565b5f61500a603a83613c3f565b915061501582614fb0565b604082019050919050565b5f6020820190508181035f83015261503781614ffe565b9050919050565b7f5261774d6174657269616c73206e6f74206578697374000000000000000000005f82015250565b5f615072601683613c3f565b915061507d8261503e565b602082019050919050565b5f6020820190508181035f83015261509f81615066565b9050919050565b7f75736572206973206e6f74206f776e65720000000000000000000000000000005f82015250565b5f6150da601183613c3f565b91506150e5826150a6565b602082019050919050565b5f6020820190508181035f830152615107816150ce565b9050919050565b7f5261774d6174657269616c73206861732062656c6f6e672061206c6f740000005f82015250565b5f615142601d83613c3f565b915061514d8261510e565b602082019050919050565b5f6020820190508181035f83015261516f81615136565b9050919050565b5f61518861518384613b04565b613aea565b9050828152602081018484840111156151a4576151a3613a78565b5b6151af848285613c4f565b509392505050565b5f82601f8301126151cb576151ca613a74565b5b81516151db848260208601615176565b91505092915050565b5f602082840312156151f9576151f8613a12565b5b5f82015167ffffffffffffffff81111561521657615215613a16565b5b615222848285016151b7565b91505092915050565b7f4f6e6c7920617574686f72697a656420737570706c696572732061726520616c5f8201527f6c6f77656420746f2072756e20746869732066756e6374696f6e000000000000602082015250565b5f615285603a83613c3f565b91506152908261522b565b604082019050919050565b5f6020820190508181035f8301526152b281615279565b9050919050565b7f5061636b6167656450726f6475637473206e6f742065786973740000000000005f82015250565b5f6152ed601a83613c3f565b91506152f8826152b9565b602082019050919050565b5f6020820190508181035f83015261531a816152e1565b9050919050565b7f5061636b6167656450726f6475637473206861732062656c6f6e672061206c6f5f8201527f7400000000000000000000000000000000000000000000000000000000000000602082015250565b5f61537b602183613c3f565b915061538682615321565b604082019050919050565b5f6020820190508181035f8301526153a88161536f565b9050919050565b5f81905092915050565b5f6153c382613c35565b6153cd81856153af565b93506153dd818560208601613c4f565b80840191505092915050565b5f6153f482846153b9565b91508190509291505056fe7761726e696e672c7468697320636f6d6d6f6469747920686173206265656e20626f756e64a264697066735822122068787daf1890c9ecead58174f28b4feb765241c9932e45346271291db2cbd12564736f6c63430008160033",
			"opcodes": "PUSH1 0x80 PUSH1 0x40 MSTORE CALLVALUE DUP1 ISZERO PUSH2 0xF JUMPI PUSH0 DUP1 REVERT JUMPDEST POP CALLER PUSH1 0x3 PUSH0 PUSH2 0x100 EXP DUP2 SLOAD DUP2 PUSH20 0xFFFFFFFFFFFFFFFFFFFFFFFFFFFFFFFFFFFFFFFF MUL NOT AND SWAP1 DUP4 PUSH20 0xFFFFFFFFFFFFFFFFFFFFFFFFFFFFFFFFFFFFFFFF AND MUL OR SWAP1 SSTORE POP PUSH1 0x1 PUSH1 0x11 PUSH0 CALLER PUSH20 0xFFFFFFFFFFFFFFFFFFFFFFFFFFFFFFFFFFFFFFFF AND PUSH20 0xFFFFFFFFFFFFFFFFFFFFFFFFFFFFFFFFFFFFFFFF AND DUP2 MSTORE PUSH1 0x20 ADD SWAP1 DUP2 MSTORE PUSH1 0x20 ADD PUSH0 KECCAK256 PUSH0 PUSH2 0x100 EXP DUP2 SLOAD DUP2 PUSH1 0xFF MUL NOT AND SWAP1 DUP4 ISZERO ISZERO MUL OR SWAP1 SSTORE POP PUSH2 0x545A DUP1 PUSH2 0xB2 PUSH0 CODECOPY PUSH0 RETURN INVALID PUSH1 0x80 PUSH1 0x40 MSTORE CALLVALUE DUP1 ISZERO PUSH2 0xF JUMPI PUSH0 DUP1 REVERT JUMPDEST POP PUSH1 0x4 CALLDATASIZE LT PUSH2 0x246 JUMPI PUSH0 CALLDATALOAD PUSH1 0xE0 SHR DUP1 PUSH4 0x62FED11F GT PUSH2 0x139 JUMPI DUP1 PUSH4 0xD8F68B7C GT PUSH2 0xB6 JUMPI DUP1 PUSH4 0xE7875F6A GT PUSH2 0x7A JUMPI DUP1 PUSH4 0xE7875F6A EQ PUSH2 0x6E5 JUMPI DUP1 PUSH4 0xEB667AE8 EQ PUSH2 0x703 JUMPI DUP1 PUSH4 0xED577195 EQ PUSH2 0x733 JUMPI DUP1 PUSH4 0xF8D5F409 EQ PUSH2 0x763 JUMPI DUP1 PUSH4 0xFF7601B9 EQ PUSH2 0x77F JUMPI PUSH2 0x246 JUMP JUMPDEST DUP1 PUSH4 0xD8F68B7C EQ PUSH2 0x62B JUMPI DUP1 PUSH4 0xDFDEDCE1 EQ PUSH2 0x649 JUMPI DUP1 PUSH4 0xE01215EB EQ PUSH2 0x665 JUMPI DUP1 PUSH4 0xE16F2DA5 EQ PUSH2 0x681 JUMPI DUP1 PUSH4 0xE1A6FABA EQ PUSH2 0x6B5 JUMPI PUSH2 0x246 JUMP JUMPDEST DUP1 PUSH4 0x9E0CF098 GT PUSH2 0xFD JUMPI DUP1 PUSH4 0x9E0CF098 EQ PUSH2 0x570 JUMPI DUP1 PUSH4 0xAED84D1F EQ PUSH2 0x58E JUMPI DUP1 PUSH4 0xB121A001 EQ PUSH2 0x5BE JUMPI DUP1 PUSH4 0xB70B84C6 EQ PUSH2 0x5F3 JUMPI DUP1 PUSH4 0xBFA8EFF0 EQ PUSH2 0x60F JUMPI PUSH2 0x246 JUMP JUMPDEST DUP1 PUSH4 0x62FED11F EQ PUSH2 0x4E2 JUMPI DUP1 PUSH4 0x7505C046 EQ PUSH2 0x4FE JUMPI DUP1 PUSH4 0x89AB1F9D EQ PUSH2 0x51A JUMPI DUP1 PUSH4 0x8B778FC6 EQ PUSH2 0x536 JUMPI DUP1 PUSH4 0x9CE31BA9 EQ PUSH2 0x552 JUMPI PUSH2 0x246 JUMP JUMPDEST DUP1 PUSH4 0x3379A256 GT PUSH2 0x1C7 JUMPI DUP1 PUSH4 0x466494A7 GT PUSH2 0x18B JUMPI DUP1 PUSH4 0x466494A7 EQ PUSH2 0x42A JUMPI DUP1 PUSH4 0x47FB6487 EQ PUSH2 0x45A JUMPI DUP1 PUSH4 0x4B297269 EQ PUSH2 0x478 JUMPI DUP1 PUSH4 0x4C33F142 EQ PUSH2 0x4A8 JUMPI DUP1 PUSH4 0x519A7B35 EQ PUSH2 0x4C4 JUMPI PUSH2 0x246 JUMP JUMPDEST DUP1 PUSH4 0x3379A256 EQ PUSH2 0x376 JUMPI DUP1 PUSH4 0x35D9C56A EQ PUSH2 0x392 JUMPI DUP1 PUSH4 0x374CCC41 EQ PUSH2 0x3C2 JUMPI DUP1 PUSH4 0x3894D0B3 EQ PUSH2 0x3DE JUMPI DUP1 PUSH4 0x3943167C EQ PUSH2 0x40E JUMPI PUSH2 0x246 JUMP JUMPDEST DUP1 PUSH4 0x1E17EE05 GT PUSH2 0x20E JUMPI DUP1 PUSH4 0x1E17EE05 EQ PUSH2 0x2EA JUMPI DUP1 PUSH4 0x27F206FB EQ PUSH2 0x306 JUMPI DUP1 PUSH4 0x2801AB58 EQ PUSH2 0x322 JUMPI DUP1 PUSH4 0x29C320A4 EQ PUSH2 0x33E JUMPI DUP1 PUSH4 0x2DF10A68 EQ PUSH2 0x35A JUMPI PUSH2 0x246 JUMP JUMPDEST DUP1 PUSH4 0x3945A4B EQ PUSH2 0x24A JUMPI DUP1 PUSH4 0x488E486 EQ PUSH2 0x266 JUMPI DUP1 PUSH4 0xB2ED737 EQ PUSH2 0x296 JUMPI DUP1 PUSH4 0x12646A42 EQ PUSH2 0x2B2 JUMPI DUP1 PUSH4 0x1473EEC7 EQ PUSH2 0x2CE JUMPI JUMPDEST PUSH0 DUP1 REVERT JUMPDEST PUSH2 0x264 PUSH1 0x4 DUP1 CALLDATASIZE SUB DUP2 ADD SWAP1 PUSH2 0x25F SWAP2 SWAP1 PUSH2 0x3BB0 JUMP JUMPDEST PUSH2 0x79D JUMP JUMPDEST STOP JUMPDEST PUSH2 0x280 PUSH1 0x4 DUP1 CALLDATASIZE SUB DUP2 ADD SWAP1 PUSH2 0x27B SWAP2 SWAP1 PUSH2 0x3C0A JUMP JUMPDEST PUSH2 0x87B JUMP JUMPDEST PUSH1 0x40 MLOAD PUSH2 0x28D SWAP2 SWAP1 PUSH2 0x3CAF JUMP JUMPDEST PUSH1 0x40 MLOAD DUP1 SWAP2 SUB SWAP1 RETURN JUMPDEST PUSH2 0x2B0 PUSH1 0x4 DUP1 CALLDATASIZE SUB DUP2 ADD SWAP1 PUSH2 0x2AB SWAP2 SWAP1 PUSH2 0x3DC6 JUMP JUMPDEST PUSH2 0x916 JUMP JUMPDEST STOP JUMPDEST PUSH2 0x2CC PUSH1 0x4 DUP1 CALLDATASIZE SUB DUP2 ADD SWAP1 PUSH2 0x2C7 SWAP2 SWAP1 PUSH2 0x3E4E JUMP JUMPDEST PUSH2 0xBD8 JUMP JUMPDEST STOP JUMPDEST PUSH2 0x2E8 PUSH1 0x4 DUP1 CALLDATASIZE SUB DUP2 ADD SWAP1 PUSH2 0x2E3 SWAP2 SWAP1 PUSH2 0x3EA8 JUMP JUMPDEST PUSH2 0xD13 JUMP JUMPDEST STOP JUMPDEST PUSH2 0x304 PUSH1 0x4 DUP1 CALLDATASIZE SUB DUP2 ADD SWAP1 PUSH2 0x2FF SWAP2 SWAP1 PUSH2 0x3C0A JUMP JUMPDEST PUSH2 0xE88 JUMP JUMPDEST STOP JUMPDEST PUSH2 0x320 PUSH1 0x4 DUP1 CALLDATASIZE SUB DUP2 ADD SWAP1 PUSH2 0x31B SWAP2 SWAP1 PUSH2 0x3EF8 JUMP JUMPDEST PUSH2 0xF6E JUMP JUMPDEST STOP JUMPDEST PUSH2 0x33C PUSH1 0x4 DUP1 CALLDATASIZE SUB DUP2 ADD SWAP1 PUSH2 0x337 SWAP2 SWAP1 PUSH2 0x3F94 JUMP JUMPDEST PUSH2 0x115F JUMP JUMPDEST STOP JUMPDEST PUSH2 0x358 PUSH1 0x4 DUP1 CALLDATASIZE SUB DUP2 ADD SWAP1 PUSH2 0x353 SWAP2 SWAP1 PUSH2 0x3F94 JUMP JUMPDEST PUSH2 0x11DA JUMP JUMPDEST STOP JUMPDEST PUSH2 0x374 PUSH1 0x4 DUP1 CALLDATASIZE SUB DUP2 ADD SWAP1 PUSH2 0x36F SWAP2 SWAP1 PUSH2 0x3C0A JUMP JUMPDEST PUSH2 0x1255 JUMP JUMPDEST STOP JUMPDEST PUSH2 0x390 PUSH1 0x4 DUP1 CALLDATASIZE SUB DUP2 ADD SWAP1 PUSH2 0x38B SWAP2 SWAP1 PUSH2 0x3C0A JUMP JUMPDEST PUSH2 0x12E3 JUMP JUMPDEST STOP JUMPDEST PUSH2 0x3AC PUSH1 0x4 DUP1 CALLDATASIZE SUB DUP2 ADD SWAP1 PUSH2 0x3A7 SWAP2 SWAP1 PUSH2 0x3C0A JUMP JUMPDEST PUSH2 0x143C JUMP JUMPDEST PUSH1 0x40 MLOAD PUSH2 0x3B9 SWAP2 SWAP1 PUSH2 0x3CAF JUMP JUMPDEST PUSH1 0x40 MLOAD DUP1 SWAP2 SUB SWAP1 RETURN JUMPDEST PUSH2 0x3DC PUSH1 0x4 DUP1 CALLDATASIZE SUB DUP2 ADD SWAP1 PUSH2 0x3D7 SWAP2 SWAP1 PUSH2 0x3C0A JUMP JUMPDEST PUSH2 0x14D7 JUMP JUMPDEST STOP JUMPDEST PUSH2 0x3F8 PUSH1 0x4 DUP1 CALLDATASIZE SUB DUP2 ADD SWAP1 PUSH2 0x3F3 SWAP2 SWAP1 PUSH2 0x3C0A JUMP JUMPDEST PUSH2 0x1630 JUMP JUMPDEST PUSH1 0x40 MLOAD PUSH2 0x405 SWAP2 SWAP1 PUSH2 0x3CAF JUMP JUMPDEST PUSH1 0x40 MLOAD DUP1 SWAP2 SUB SWAP1 RETURN JUMPDEST PUSH2 0x428 PUSH1 0x4 DUP1 CALLDATASIZE SUB DUP2 ADD SWAP1 PUSH2 0x423 SWAP2 SWAP1 PUSH2 0x3FEE JUMP JUMPDEST PUSH2 0x16CB JUMP JUMPDEST STOP JUMPDEST PUSH2 0x444 PUSH1 0x4 DUP1 CALLDATASIZE SUB DUP2 ADD SWAP1 PUSH2 0x43F SWAP2 SWAP1 PUSH2 0x403E JUMP JUMPDEST PUSH2 0x174D JUMP JUMPDEST PUSH1 0x40 MLOAD PUSH2 0x451 SWAP2 SWAP1 PUSH2 0x4120 JUMP JUMPDEST PUSH1 0x40 MLOAD DUP1 SWAP2 SUB SWAP1 RETURN JUMPDEST PUSH2 0x462 PUSH2 0x17B4 JUMP JUMPDEST PUSH1 0x40 MLOAD PUSH2 0x46F SWAP2 SWAP1 PUSH2 0x414F JUMP JUMPDEST PUSH1 0x40 MLOAD DUP1 SWAP2 SUB SWAP1 RETURN JUMPDEST PUSH2 0x492 PUSH1 0x4 DUP1 CALLDATASIZE SUB DUP2 ADD SWAP1 PUSH2 0x48D SWAP2 SWAP1 PUSH2 0x3C0A JUMP JUMPDEST PUSH2 0x17D9 JUMP JUMPDEST PUSH1 0x40 MLOAD PUSH2 0x49F SWAP2 SWAP1 PUSH2 0x3CAF JUMP JUMPDEST PUSH1 0x40 MLOAD DUP1 SWAP2 SUB SWAP1 RETURN JUMPDEST PUSH2 0x4C2 PUSH1 0x4 DUP1 CALLDATASIZE SUB DUP2 ADD SWAP1 PUSH2 0x4BD SWAP2 SWAP1 PUSH2 0x3E4E JUMP JUMPDEST PUSH2 0x1874 JUMP JUMPDEST STOP JUMPDEST PUSH2 0x4CC PUSH2 0x1A79 JUMP JUMPDEST PUSH1 0x40 MLOAD PUSH2 0x4D9 SWAP2 SWAP1 PUSH2 0x4177 JUMP JUMPDEST PUSH1 0x40 MLOAD DUP1 SWAP2 SUB SWAP1 RETURN JUMPDEST PUSH2 0x4FC PUSH1 0x4 DUP1 CALLDATASIZE SUB DUP2 ADD SWAP1 PUSH2 0x4F7 SWAP2 SWAP1 PUSH2 0x3BB0 JUMP JUMPDEST PUSH2 0x1A7F JUMP JUMPDEST STOP JUMPDEST PUSH2 0x518 PUSH1 0x4 DUP1 CALLDATASIZE SUB DUP2 ADD SWAP1 PUSH2 0x513 SWAP2 SWAP1 PUSH2 0x3BB0 JUMP JUMPDEST PUSH2 0x1B5D JUMP JUMPDEST STOP JUMPDEST PUSH2 0x534 PUSH1 0x4 DUP1 CALLDATASIZE SUB DUP2 ADD SWAP1 PUSH2 0x52F SWAP2 SWAP1 PUSH2 0x3C0A JUMP JUMPDEST PUSH2 0x1C3B JUMP JUMPDEST STOP JUMPDEST PUSH2 0x550 PUSH1 0x4 DUP1 CALLDATASIZE SUB DUP2 ADD SWAP1 PUSH2 0x54B SWAP2 SWAP1 PUSH2 0x3BB0 JUMP JUMPDEST PUSH2 0x1D91 JUMP JUMPDEST STOP JUMPDEST PUSH2 0x55A PUSH2 0x1E6F JUMP JUMPDEST PUSH1 0x40 MLOAD PUSH2 0x567 SWAP2 SWAP1 PUSH2 0x4177 JUMP JUMPDEST PUSH1 0x40 MLOAD DUP1 SWAP2 SUB SWAP1 RETURN JUMPDEST PUSH2 0x578 PUSH2 0x1E75 JUMP JUMPDEST PUSH1 0x40 MLOAD PUSH2 0x585 SWAP2 SWAP1 PUSH2 0x41EB JUMP JUMPDEST PUSH1 0x40 MLOAD DUP1 SWAP2 SUB SWAP1 RETURN JUMPDEST PUSH2 0x5A8 PUSH1 0x4 DUP1 CALLDATASIZE SUB DUP2 ADD SWAP1 PUSH2 0x5A3 SWAP2 SWAP1 PUSH2 0x3C0A JUMP JUMPDEST PUSH2 0x1E98 JUMP JUMPDEST PUSH1 0x40 MLOAD PUSH2 0x5B5 SWAP2 SWAP1 PUSH2 0x3CAF JUMP JUMPDEST PUSH1 0x40 MLOAD DUP1 SWAP2 SUB SWAP1 RETURN JUMPDEST PUSH2 0x5D8 PUSH1 0x4 DUP1 CALLDATASIZE SUB DUP2 ADD SWAP1 PUSH2 0x5D3 SWAP2 SWAP1 PUSH2 0x403E JUMP JUMPDEST PUSH2 0x1F33 JUMP JUMPDEST PUSH1 0x40 MLOAD PUSH2 0x5EA SWAP7 SWAP6 SWAP5 SWAP4 SWAP3 SWAP2 SWAP1 PUSH2 0x43A9 JUMP JUMPDEST PUSH1 0x40 MLOAD DUP1 SWAP2 SUB SWAP1 RETURN JUMPDEST PUSH2 0x60D PUSH1 0x4 DUP1 CALLDATASIZE SUB DUP2 ADD SWAP1 PUSH2 0x608 SWAP2 SWAP1 PUSH2 0x3BB0 JUMP JUMPDEST PUSH2 0x22B1 JUMP JUMPDEST STOP JUMPDEST PUSH2 0x629 PUSH1 0x4 DUP1 CALLDATASIZE SUB DUP2 ADD SWAP1 PUSH2 0x624 SWAP2 SWAP1 PUSH2 0x3C0A JUMP JUMPDEST PUSH2 0x238F JUMP JUMPDEST STOP JUMPDEST PUSH2 0x633 PUSH2 0x241D JUMP JUMPDEST PUSH1 0x40 MLOAD PUSH2 0x640 SWAP2 SWAP1 PUSH2 0x4177 JUMP JUMPDEST PUSH1 0x40 MLOAD DUP1 SWAP2 SUB SWAP1 RETURN JUMPDEST PUSH2 0x663 PUSH1 0x4 DUP1 CALLDATASIZE SUB DUP2 ADD SWAP1 PUSH2 0x65E SWAP2 SWAP1 PUSH2 0x3E4E JUMP JUMPDEST PUSH2 0x2423 JUMP JUMPDEST STOP JUMPDEST PUSH2 0x67F PUSH1 0x4 DUP1 CALLDATASIZE SUB DUP2 ADD SWAP1 PUSH2 0x67A SWAP2 SWAP1 PUSH2 0x3BB0 JUMP JUMPDEST PUSH2 0x262A JUMP JUMPDEST STOP JUMPDEST PUSH2 0x69B PUSH1 0x4 DUP1 CALLDATASIZE SUB DUP2 ADD SWAP1 PUSH2 0x696 SWAP2 SWAP1 PUSH2 0x403E JUMP JUMPDEST PUSH2 0x2708 JUMP JUMPDEST PUSH1 0x40 MLOAD PUSH2 0x6AC SWAP6 SWAP5 SWAP4 SWAP3 SWAP2 SWAP1 PUSH2 0x4701 JUMP JUMPDEST PUSH1 0x40 MLOAD DUP1 SWAP2 SUB SWAP1 RETURN JUMPDEST PUSH2 0x6CF PUSH1 0x4 DUP1 CALLDATASIZE SUB DUP2 ADD SWAP1 PUSH2 0x6CA SWAP2 SWAP1 PUSH2 0x403E JUMP JUMPDEST PUSH2 0x2F37 JUMP JUMPDEST PUSH1 0x40 MLOAD PUSH2 0x6DC SWAP2 SWAP1 PUSH2 0x4120 JUMP JUMPDEST PUSH1 0x40 MLOAD DUP1 SWAP2 SUB SWAP1 RETURN JUMPDEST PUSH2 0x6ED PUSH2 0x2F9E JUMP JUMPDEST PUSH1 0x40 MLOAD PUSH2 0x6FA SWAP2 SWAP1 PUSH2 0x478E JUMP JUMPDEST PUSH1 0x40 MLOAD DUP1 SWAP2 SUB SWAP1 RETURN JUMPDEST PUSH2 0x71D PUSH1 0x4 DUP1 CALLDATASIZE SUB DUP2 ADD SWAP1 PUSH2 0x718 SWAP2 SWAP1 PUSH2 0x3C0A JUMP JUMPDEST PUSH2 0x2FC3 JUMP JUMPDEST PUSH1 0x40 MLOAD PUSH2 0x72A SWAP2 SWAP1 PUSH2 0x3CAF JUMP JUMPDEST PUSH1 0x40 MLOAD DUP1 SWAP2 SUB SWAP1 RETURN JUMPDEST PUSH2 0x74D PUSH1 0x4 DUP1 CALLDATASIZE SUB DUP2 ADD SWAP1 PUSH2 0x748 SWAP2 SWAP1 PUSH2 0x47A7 JUMP JUMPDEST PUSH2 0x305E JUMP JUMPDEST PUSH1 0x40 MLOAD PUSH2 0x75A SWAP2 SWAP1 PUSH2 0x4827 JUMP JUMPDEST PUSH1 0x40 MLOAD DUP1 SWAP2 SUB SWAP1 RETURN JUMPDEST PUSH2 0x77D PUSH1 0x4 DUP1 CALLDATASIZE SUB DUP2 ADD SWAP1 PUSH2 0x778 SWAP2 SWAP1 PUSH2 0x3C0A JUMP JUMPDEST PUSH2 0x35D9 JUMP JUMPDEST STOP JUMPDEST PUSH2 0x787 PUSH2 0x36C0 JUMP JUMPDEST PUSH1 0x40 MLOAD PUSH2 0x794 SWAP2 SWAP1 PUSH2 0x4860 JUMP JUMPDEST PUSH1 0x40 MLOAD DUP1 SWAP2 SUB SWAP1 RETURN JUMPDEST PUSH1 0x3 PUSH0 SWAP1 SLOAD SWAP1 PUSH2 0x100 EXP SWAP1 DIV PUSH20 0xFFFFFFFFFFFFFFFFFFFFFFFFFFFFFFFFFFFFFFFF AND PUSH20 0xFFFFFFFFFFFFFFFFFFFFFFFFFFFFFFFFFFFFFFFF AND CALLER PUSH20 0xFFFFFFFFFFFFFFFFFFFFFFFFFFFFFFFFFFFFFFFF AND EQ PUSH2 0x82C JUMPI PUSH1 0x40 MLOAD PUSH32 0x8C379A000000000000000000000000000000000000000000000000000000000 DUP2 MSTORE PUSH1 0x4 ADD PUSH2 0x823 SWAP1 PUSH2 0x48E9 JUMP JUMPDEST PUSH1 0x40 MLOAD DUP1 SWAP2 SUB SWAP1 REVERT JUMPDEST DUP1 PUSH1 0xC PUSH0 DUP5 PUSH20 0xFFFFFFFFFFFFFFFFFFFFFFFFFFFFFFFFFFFFFFFF AND PUSH20 0xFFFFFFFFFFFFFFFFFFFFFFFFFFFFFFFFFFFFFFFF AND DUP2 MSTORE PUSH1 0x20 ADD SWAP1 DUP2 MSTORE PUSH1 0x20 ADD PUSH0 KECCAK256 SWAP1 DUP2 PUSH2 0x876 SWAP2 SWAP1 PUSH2 0x4AF8 JUMP JUMPDEST POP POP POP JUMP JUMPDEST PUSH1 0x8 PUSH1 0x20 MSTORE DUP1 PUSH0 MSTORE PUSH1 0x40 PUSH0 KECCAK256 PUSH0 SWAP2 POP SWAP1 POP DUP1 SLOAD PUSH2 0x897 SWAP1 PUSH2 0x4934 JUMP JUMPDEST DUP1 PUSH1 0x1F ADD PUSH1 0x20 DUP1 SWAP2 DIV MUL PUSH1 0x20 ADD PUSH1 0x40 MLOAD SWAP1 DUP2 ADD PUSH1 0x40 MSTORE DUP1 SWAP3 SWAP2 SWAP1 DUP2 DUP2 MSTORE PUSH1 0x20 ADD DUP3 DUP1 SLOAD PUSH2 0x8C3 SWAP1 PUSH2 0x4934 JUMP JUMPDEST DUP1 ISZERO PUSH2 0x90E JUMPI DUP1 PUSH1 0x1F LT PUSH2 0x8E5 JUMPI PUSH2 0x100 DUP1 DUP4 SLOAD DIV MUL DUP4 MSTORE SWAP2 PUSH1 0x20 ADD SWAP2 PUSH2 0x90E JUMP JUMPDEST DUP3 ADD SWAP2 SWAP1 PUSH0 MSTORE PUSH1 0x20 PUSH0 KECCAK256 SWAP1 JUMPDEST DUP2 SLOAD DUP2 MSTORE SWAP1 PUSH1 0x1 ADD SWAP1 PUSH1 0x20 ADD DUP1 DUP4 GT PUSH2 0x8F1 JUMPI DUP3 SWAP1 SUB PUSH1 0x1F AND DUP3 ADD SWAP2 JUMPDEST POP POP POP POP POP DUP2 JUMP JUMPDEST PUSH0 JUMPDEST DUP3 MLOAD DUP2 LT ISZERO PUSH2 0xBD2 JUMPI PUSH0 PUSH1 0x10 PUSH0 DUP6 DUP5 DUP2 MLOAD DUP2 LT PUSH2 0x938 JUMPI PUSH2 0x937 PUSH2 0x4BC7 JUMP JUMPDEST JUMPDEST PUSH1 0x20 MUL PUSH1 0x20 ADD ADD MLOAD DUP2 MSTORE PUSH1 0x20 ADD SWAP1 DUP2 MSTORE PUSH1 0x20 ADD PUSH0 KECCAK256 PUSH1 0x40 MLOAD DUP1 PUSH2 0x120 ADD PUSH1 0x40 MSTORE SWAP1 DUP2 PUSH0 DUP3 ADD SLOAD DUP2 MSTORE PUSH1 0x20 ADD PUSH1 0x1 DUP3 ADD SLOAD DUP2 MSTORE PUSH1 0x20 ADD PUSH1 0x2 DUP3 ADD SLOAD DUP2 MSTORE PUSH1 0x20 ADD PUSH1 0x3 DUP3 ADD DUP1 SLOAD PUSH2 0x986 SWAP1 PUSH2 0x4934 JUMP JUMPDEST DUP1 PUSH1 0x1F ADD PUSH1 0x20 DUP1 SWAP2 DIV MUL PUSH1 0x20 ADD PUSH1 0x40 MLOAD SWAP1 DUP2 ADD PUSH1 0x40 MSTORE DUP1 SWAP3 SWAP2 SWAP1 DUP2 DUP2 MSTORE PUSH1 0x20 ADD DUP3 DUP1 SLOAD PUSH2 0x9B2 SWAP1 PUSH2 0x4934 JUMP JUMPDEST DUP1 ISZERO PUSH2 0x9FD JUMPI DUP1 PUSH1 0x1F LT PUSH2 0x9D4 JUMPI PUSH2 0x100 DUP1 DUP4 SLOAD DIV MUL DUP4 MSTORE SWAP2 PUSH1 0x20 ADD SWAP2 PUSH2 0x9FD JUMP JUMPDEST DUP3 ADD SWAP2 SWAP1 PUSH0 MSTORE PUSH1 0x20 PUSH0 KECCAK256 SWAP1 JUMPDEST DUP2 SLOAD DUP2 MSTORE SWAP1 PUSH1 0x1 ADD SWAP1 PUSH1 0x20 ADD DUP1 DUP4 GT PUSH2 0x9E0 JUMPI DUP3 SWAP1 SUB PUSH1 0x1F AND DUP3 ADD SWAP2 JUMPDEST POP POP POP POP POP DUP2 MSTORE PUSH1 0x20 ADD PUSH1 0x4 DUP3 ADD SLOAD DUP2 MSTORE PUSH1 0x20 ADD PUSH1 0x5 DUP3 ADD DUP1 SLOAD PUSH2 0xA20 SWAP1 PUSH2 0x4934 JUMP JUMPDEST DUP1 PUSH1 0x1F ADD PUSH1 0x20 DUP1 SWAP2 DIV MUL PUSH1 0x20 ADD PUSH1 0x40 MLOAD SWAP1 DUP2 ADD PUSH1 0x40 MSTORE DUP1 SWAP3 SWAP2 SWAP1 DUP2 DUP2 MSTORE PUSH1 0x20 ADD DUP3 DUP1 SLOAD PUSH2 0xA4C SWAP1 PUSH2 0x4934 JUMP JUMPDEST DUP1 ISZERO PUSH2 0xA97 JUMPI DUP1 PUSH1 0x1F LT PUSH2 0xA6E JUMPI PUSH2 0x100 DUP1 DUP4 SLOAD DIV MUL DUP4 MSTORE SWAP2 PUSH1 0x20 ADD SWAP2 PUSH2 0xA97 JUMP JUMPDEST DUP3 ADD SWAP2 SWAP1 PUSH0 MSTORE PUSH1 0x20 PUSH0 KECCAK256 SWAP1 JUMPDEST DUP2 SLOAD DUP2 MSTORE SWAP1 PUSH1 0x1 ADD SWAP1 PUSH1 0x20 ADD DUP1 DUP4 GT PUSH2 0xA7A JUMPI DUP3 SWAP1 SUB PUSH1 0x1F AND DUP3 ADD SWAP2 JUMPDEST POP POP POP POP POP DUP2 MSTORE PUSH1 0x20 ADD PUSH1 0x6 DUP3 ADD SLOAD DUP2 MSTORE PUSH1 0x20 ADD PUSH1 0x7 DUP3 ADD DUP1 SLOAD DUP1 PUSH1 0x20 MUL PUSH1 0x20 ADD PUSH1 0x40 MLOAD SWAP1 DUP2 ADD PUSH1 0x40 MSTORE DUP1 SWAP3 SWAP2 SWAP1 DUP2 DUP2 MSTORE PUSH1 0x20 ADD DUP3 DUP1 SLOAD DUP1 ISZERO PUSH2 0xAF7 JUMPI PUSH1 0x20 MUL DUP3 ADD SWAP2 SWAP1 PUSH0 MSTORE PUSH1 0x20 PUSH0 KECCAK256 SWAP1 JUMPDEST DUP2 SLOAD DUP2 MSTORE PUSH1 0x20 ADD SWAP1 PUSH1 0x1 ADD SWAP1 DUP1 DUP4 GT PUSH2 0xAE3 JUMPI JUMPDEST POP POP POP POP POP DUP2 MSTORE PUSH1 0x20 ADD PUSH1 0x8 DUP3 ADD DUP1 SLOAD DUP1 PUSH1 0x20 MUL PUSH1 0x20 ADD PUSH1 0x40 MLOAD SWAP1 DUP2 ADD PUSH1 0x40 MSTORE DUP1 SWAP3 SWAP2 SWAP1 DUP2 DUP2 MSTORE PUSH1 0x20 ADD DUP3 DUP1 SLOAD DUP1 ISZERO PUSH2 0xB4D JUMPI PUSH1 0x20 MUL DUP3 ADD SWAP2 SWAP1 PUSH0 MSTORE PUSH1 0x20 PUSH0 KECCAK256 SWAP1 JUMPDEST DUP2 SLOAD DUP2 MSTORE PUSH1 0x20 ADD SWAP1 PUSH1 0x1 ADD SWAP1 DUP1 DUP4 GT PUSH2 0xB39 JUMPI JUMPDEST POP POP POP POP POP DUP2 MSTORE POP POP SWAP1 POP DUP3 DUP3 DUP2 MLOAD DUP2 LT PUSH2 0xB6B JUMPI PUSH2 0xB6A PUSH2 0x4BC7 JUMP JUMPDEST JUMPDEST PUSH1 0x20 MUL PUSH1 0x20 ADD ADD MLOAD DUP6 PUSH2 0xB7E SWAP2 SWAP1 PUSH2 0x4C21 JUMP JUMPDEST DUP2 PUSH1 0xC0 ADD MLOAD LT ISZERO PUSH2 0xBC4 JUMPI PUSH1 0x40 MLOAD PUSH32 0x8C379A000000000000000000000000000000000000000000000000000000000 DUP2 MSTORE PUSH1 0x4 ADD PUSH2 0xBBB SWAP1 PUSH2 0x4CF8 JUMP JUMPDEST PUSH1 0x40 MLOAD DUP1 SWAP2 SUB SWAP1 REVERT JUMPDEST POP DUP1 DUP1 PUSH1 0x1 ADD SWAP2 POP POP PUSH2 0x918 JUMP JUMPDEST POP POP POP POP JUMP JUMPDEST PUSH0 JUMPDEST DUP2 MLOAD DUP2 LT ISZERO PUSH2 0xD0E JUMPI DUP3 PUSH20 0xFFFFFFFFFFFFFFFFFFFFFFFFFFFFFFFFFFFFFFFF AND PUSH0 DUP1 SLOAD SWAP1 PUSH2 0x100 EXP SWAP1 DIV PUSH20 0xFFFFFFFFFFFFFFFFFFFFFFFFFFFFFFFFFFFFFFFF AND PUSH20 0xFFFFFFFFFFFFFFFFFFFFFFFFFFFFFFFFFFFFFFFF AND PUSH4 0x6352211E DUP5 DUP5 DUP2 MLOAD DUP2 LT PUSH2 0xC48 JUMPI PUSH2 0xC47 PUSH2 0x4BC7 JUMP JUMPDEST JUMPDEST PUSH1 0x20 MUL PUSH1 0x20 ADD ADD MLOAD PUSH1 0x40 MLOAD DUP3 PUSH4 0xFFFFFFFF AND PUSH1 0xE0 SHL DUP2 MSTORE PUSH1 0x4 ADD PUSH2 0xC6C SWAP2 SWAP1 PUSH2 0x4177 JUMP JUMPDEST PUSH1 0x20 PUSH1 0x40 MLOAD DUP1 DUP4 SUB DUP2 DUP7 GAS STATICCALL ISZERO DUP1 ISZERO PUSH2 0xC87 JUMPI RETURNDATASIZE PUSH0 DUP1 RETURNDATACOPY RETURNDATASIZE PUSH0 REVERT JUMPDEST POP POP POP POP PUSH1 0x40 MLOAD RETURNDATASIZE PUSH1 0x1F NOT PUSH1 0x1F DUP3 ADD AND DUP3 ADD DUP1 PUSH1 0x40 MSTORE POP DUP2 ADD SWAP1 PUSH2 0xCAB SWAP2 SWAP1 PUSH2 0x4D2A JUMP JUMPDEST PUSH20 0xFFFFFFFFFFFFFFFFFFFFFFFFFFFFFFFFFFFFFFFF AND EQ PUSH2 0xD01 JUMPI PUSH1 0x40 MLOAD PUSH32 0x8C379A000000000000000000000000000000000000000000000000000000000 DUP2 MSTORE PUSH1 0x4 ADD PUSH2 0xCF8 SWAP1 PUSH2 0x4DC5 JUMP JUMPDEST PUSH1 0x40 MLOAD DUP1 SWAP2 SUB SWAP1 REVERT JUMPDEST DUP1 DUP1 PUSH1 0x1 ADD SWAP2 POP POP PUSH2 0xBDA JUMP JUMPDEST POP POP POP JUMP JUMPDEST PUSH0 DUP1 SLOAD SWAP1 PUSH2 0x100 EXP SWAP1 DIV PUSH20 0xFFFFFFFFFFFFFFFFFFFFFFFFFFFFFFFFFFFFFFFF AND PUSH20 0xFFFFFFFFFFFFFFFFFFFFFFFFFFFFFFFFFFFFFFFF AND PUSH4 0x6352211E DUP3 PUSH1 0x40 MLOAD DUP3 PUSH4 0xFFFFFFFF AND PUSH1 0xE0 SHL DUP2 MSTORE PUSH1 0x4 ADD PUSH2 0xD6B SWAP2 SWAP1 PUSH2 0x4177 JUMP JUMPDEST PUSH1 0x20 PUSH1 0x40 MLOAD DUP1 DUP4 SUB DUP2 DUP7 GAS STATICCALL ISZERO DUP1 ISZERO PUSH2 0xD86 JUMPI RETURNDATASIZE PUSH0 DUP1 RETURNDATACOPY RETURNDATASIZE PUSH0 REVERT JUMPDEST POP POP POP POP PUSH1 0x40 MLOAD RETURNDATASIZE PUSH1 0x1F NOT PUSH1 0x1F DUP3 ADD AND DUP3 ADD DUP1 PUSH1 0x40 MSTORE POP DUP2 ADD SWAP1 PUSH2 0xDAA SWAP2 SWAP1 PUSH2 0x4D2A JUMP JUMPDEST PUSH20 0xFFFFFFFFFFFFFFFFFFFFFFFFFFFFFFFFFFFFFFFF AND DUP4 PUSH20 0xFFFFFFFFFFFFFFFFFFFFFFFFFFFFFFFFFFFFFFFF AND EQ PUSH2 0xE17 JUMPI PUSH1 0x40 MLOAD PUSH32 0x8C379A000000000000000000000000000000000000000000000000000000000 DUP2 MSTORE PUSH1 0x4 ADD PUSH2 0xE0E SWAP1 PUSH2 0x4E53 JUMP JUMPDEST PUSH1 0x40 MLOAD DUP1 SWAP2 SUB SWAP1 REVERT JUMPDEST PUSH0 PUSH1 0x10 PUSH0 DUP4 DUP2 MSTORE PUSH1 0x20 ADD SWAP1 DUP2 MSTORE PUSH1 0x20 ADD PUSH0 KECCAK256 SWAP1 POP TIMESTAMP DUP2 PUSH1 0x4 ADD DUP2 SWAP1 SSTORE POP PUSH1 0x8 PUSH0 DUP5 PUSH20 0xFFFFFFFFFFFFFFFFFFFFFFFFFFFFFFFFFFFFFFFF AND PUSH20 0xFFFFFFFFFFFFFFFFFFFFFFFFFFFFFFFFFFFFFFFF AND DUP2 MSTORE PUSH1 0x20 ADD SWAP1 DUP2 MSTORE PUSH1 0x20 ADD PUSH0 KECCAK256 DUP2 PUSH1 0x5 ADD SWAP1 DUP2 PUSH2 0xE81 SWAP2 SWAP1 PUSH2 0x4E98 JUMP JUMPDEST POP POP POP POP POP JUMP JUMPDEST PUSH1 0x3 PUSH0 SWAP1 SLOAD SWAP1 PUSH2 0x100 EXP SWAP1 DIV PUSH20 0xFFFFFFFFFFFFFFFFFFFFFFFFFFFFFFFFFFFFFFFF AND PUSH20 0xFFFFFFFFFFFFFFFFFFFFFFFFFFFFFFFFFFFFFFFF AND CALLER PUSH20 0xFFFFFFFFFFFFFFFFFFFFFFFFFFFFFFFFFFFFFFFF AND EQ PUSH2 0xF17 JUMPI PUSH1 0x40 MLOAD PUSH32 0x8C379A000000000000000000000000000000000000000000000000000000000 DUP2 MSTORE PUSH1 0x4 ADD PUSH2 0xF0E SWAP1 PUSH2 0x48E9 JUMP JUMPDEST PUSH1 0x40 MLOAD DUP1 SWAP2 SUB SWAP1 REVERT JUMPDEST PUSH0 PUSH1 0x11 PUSH0 DUP4 PUSH20 0xFFFFFFFFFFFFFFFFFFFFFFFFFFFFFFFFFFFFFFFF AND PUSH20 0xFFFFFFFFFFFFFFFFFFFFFFFFFFFFFFFFFFFFFFFF AND DUP2 MSTORE PUSH1 0x20 ADD SWAP1 DUP2 MSTORE PUSH1 0x20 ADD PUSH0 KECCAK256 PUSH0 PUSH2 0x100 EXP DUP2 SLOAD DUP2 PUSH1 0xFF MUL NOT AND SWAP1 DUP4 ISZERO ISZERO MUL OR SWAP1 SSTORE POP POP JUMP JUMPDEST PUSH0 PUSH1 0xF PUSH0 DUP6 DUP2 MSTORE PUSH1 0x20 ADD SWAP1 DUP2 MSTORE PUSH1 0x20 ADD PUSH0 KECCAK256 SWAP1 POP DUP4 DUP2 PUSH0 ADD DUP2 SWAP1 SSTORE POP PUSH1 0x8 PUSH0 DUP7 PUSH20 0xFFFFFFFFFFFFFFFFFFFFFFFFFFFFFFFFFFFFFFFF AND PUSH20 0xFFFFFFFFFFFFFFFFFFFFFFFFFFFFFFFFFFFFFFFF AND DUP2 MSTORE PUSH1 0x20 ADD SWAP1 DUP2 MSTORE PUSH1 0x20 ADD PUSH0 KECCAK256 DUP2 PUSH1 0x3 ADD SWAP1 DUP2 PUSH2 0xFD7 SWAP2 SWAP1 PUSH2 0x4E98 JUMP JUMPDEST POP TIMESTAMP DUP2 PUSH1 0x2 ADD DUP2 SWAP1 SSTORE POP PUSH0 JUMPDEST DUP4 MLOAD DUP2 LT ISZERO PUSH2 0x1157 JUMPI DUP2 PUSH1 0x6 ADD DUP5 DUP3 DUP2 MLOAD DUP2 LT PUSH2 0x1003 JUMPI PUSH2 0x1002 PUSH2 0x4BC7 JUMP JUMPDEST JUMPDEST PUSH1 0x20 MUL PUSH1 0x20 ADD ADD MLOAD SWAP1 DUP1 PUSH1 0x1 DUP2 SLOAD ADD DUP1 DUP3 SSTORE DUP1 SWAP2 POP POP PUSH1 0x1 SWAP1 SUB SWAP1 PUSH0 MSTORE PUSH1 0x20 PUSH0 KECCAK256 ADD PUSH0 SWAP1 SWAP2 SWAP1 SWAP2 SWAP1 SWAP2 POP SSTORE PUSH1 0x10 PUSH0 DUP6 DUP4 DUP2 MLOAD DUP2 LT PUSH2 0x1044 JUMPI PUSH2 0x1043 PUSH2 0x4BC7 JUMP JUMPDEST JUMPDEST PUSH1 0x20 MUL PUSH1 0x20 ADD ADD MLOAD DUP2 MSTORE PUSH1 0x20 ADD SWAP1 DUP2 MSTORE PUSH1 0x20 ADD PUSH0 KECCAK256 PUSH1 0x7 ADD DUP6 SWAP1 DUP1 PUSH1 0x1 DUP2 SLOAD ADD DUP1 DUP3 SSTORE DUP1 SWAP2 POP POP PUSH1 0x1 SWAP1 SUB SWAP1 PUSH0 MSTORE PUSH1 0x20 PUSH0 KECCAK256 ADD PUSH0 SWAP1 SWAP2 SWAP1 SWAP2 SWAP1 SWAP2 POP SSTORE PUSH1 0x10 PUSH0 DUP6 DUP4 DUP2 MLOAD DUP2 LT PUSH2 0x1096 JUMPI PUSH2 0x1095 PUSH2 0x4BC7 JUMP JUMPDEST JUMPDEST PUSH1 0x20 MUL PUSH1 0x20 ADD ADD MLOAD DUP2 MSTORE PUSH1 0x20 ADD SWAP1 DUP2 MSTORE PUSH1 0x20 ADD PUSH0 KECCAK256 PUSH1 0x8 ADD DUP4 DUP3 DUP2 MLOAD DUP2 LT PUSH2 0x10C1 JUMPI PUSH2 0x10C0 PUSH2 0x4BC7 JUMP JUMPDEST JUMPDEST PUSH1 0x20 MUL PUSH1 0x20 ADD ADD MLOAD SWAP1 DUP1 PUSH1 0x1 DUP2 SLOAD ADD DUP1 DUP3 SSTORE DUP1 SWAP2 POP POP PUSH1 0x1 SWAP1 SUB SWAP1 PUSH0 MSTORE PUSH1 0x20 PUSH0 KECCAK256 ADD PUSH0 SWAP1 SWAP2 SWAP1 SWAP2 SWAP1 SWAP2 POP SSTORE DUP3 DUP2 DUP2 MLOAD DUP2 LT PUSH2 0x10FF JUMPI PUSH2 0x10FE PUSH2 0x4BC7 JUMP JUMPDEST JUMPDEST PUSH1 0x20 MUL PUSH1 0x20 ADD ADD MLOAD PUSH1 0x10 PUSH0 DUP7 DUP5 DUP2 MLOAD DUP2 LT PUSH2 0x111D JUMPI PUSH2 0x111C PUSH2 0x4BC7 JUMP JUMPDEST JUMPDEST PUSH1 0x20 MUL PUSH1 0x20 ADD ADD MLOAD DUP2 MSTORE PUSH1 0x20 ADD SWAP1 DUP2 MSTORE PUSH1 0x20 ADD PUSH0 KECCAK256 PUSH1 0x6 ADD PUSH0 DUP3 DUP3 SLOAD PUSH2 0x1143 SWAP2 SWAP1 PUSH2 0x4F7D JUMP JUMPDEST SWAP3 POP POP DUP2 SWAP1 SSTORE POP DUP1 DUP1 PUSH1 0x1 ADD SWAP2 POP POP PUSH2 0xFE3 JUMP JUMPDEST POP POP POP POP POP POP JUMP JUMPDEST DUP1 PUSH1 0xE PUSH0 DUP5 DUP2 MSTORE PUSH1 0x20 ADD SWAP1 DUP2 MSTORE PUSH1 0x20 ADD PUSH0 KECCAK256 SWAP1 DUP1 MLOAD SWAP1 PUSH1 0x20 ADD SWAP1 PUSH2 0x1184 SWAP3 SWAP2 SWAP1 PUSH2 0x38D4 JUMP JUMPDEST POP PUSH0 JUMPDEST DUP2 MLOAD DUP2 LT ISZERO PUSH2 0x11D5 JUMPI PUSH0 PUSH1 0x10 PUSH0 DUP5 DUP5 DUP2 MLOAD DUP2 LT PUSH2 0x11A7 JUMPI PUSH2 0x11A6 PUSH2 0x4BC7 JUMP JUMPDEST JUMPDEST PUSH1 0x20 MUL PUSH1 0x20 ADD ADD MLOAD DUP2 MSTORE PUSH1 0x20 ADD SWAP1 DUP2 MSTORE PUSH1 0x20 ADD PUSH0 KECCAK256 SWAP1 POP DUP4 DUP2 PUSH1 0x1 ADD DUP2 SWAP1 SSTORE POP POP DUP1 DUP1 PUSH1 0x1 ADD SWAP2 POP POP PUSH2 0x1187 JUMP JUMPDEST POP POP POP JUMP JUMPDEST DUP1 PUSH1 0xD PUSH0 DUP5 DUP2 MSTORE PUSH1 0x20 ADD SWAP1 DUP2 MSTORE PUSH1 0x20 ADD PUSH0 KECCAK256 SWAP1 DUP1 MLOAD SWAP1 PUSH1 0x20 ADD SWAP1 PUSH2 0x11FF SWAP3 SWAP2 SWAP1 PUSH2 0x38D4 JUMP JUMPDEST POP PUSH0 JUMPDEST DUP2 MLOAD DUP2 LT ISZERO PUSH2 0x1250 JUMPI PUSH0 PUSH1 0xF PUSH0 DUP5 DUP5 DUP2 MLOAD DUP2 LT PUSH2 0x1222 JUMPI PUSH2 0x1221 PUSH2 0x4BC7 JUMP JUMPDEST JUMPDEST PUSH1 0x20 MUL PUSH1 0x20 ADD ADD MLOAD DUP2 MSTORE PUSH1 0x20 ADD SWAP1 DUP2 MSTORE PUSH1 0x20 ADD PUSH0 KECCAK256 SWAP1 POP DUP4 DUP2 PUSH1 0x1 ADD DUP2 SWAP1 SSTORE POP POP DUP1 DUP1 PUSH1 0x1 ADD SWAP2 POP POP PUSH2 0x1202 JUMP JUMPDEST POP POP POP JUMP JUMPDEST PUSH0 PUSH1 0x8 PUSH0 DUP4 PUSH20 0xFFFFFFFFFFFFFFFFFFFFFFFFFFFFFFFFFFFFFFFF AND PUSH20 0xFFFFFFFFFFFFFFFFFFFFFFFFFFFFFFFFFFFFFFFF AND DUP2 MSTORE PUSH1 0x20 ADD SWAP1 DUP2 MSTORE PUSH1 0x20 ADD PUSH0 KECCAK256 DUP1 SLOAD PUSH2 0x129E SWAP1 PUSH2 0x4934 JUMP JUMPDEST SWAP1 POP SUB PUSH2 0x12E0 JUMPI PUSH1 0x40 MLOAD PUSH32 0x8C379A000000000000000000000000000000000000000000000000000000000 DUP2 MSTORE PUSH1 0x4 ADD PUSH2 0x12D7 SWAP1 PUSH2 0x5020 JUMP JUMPDEST PUSH1 0x40 MLOAD DUP1 SWAP2 SUB SWAP1 REVERT JUMPDEST POP JUMP JUMPDEST PUSH1 0x3 PUSH0 SWAP1 SLOAD SWAP1 PUSH2 0x100 EXP SWAP1 DIV PUSH20 0xFFFFFFFFFFFFFFFFFFFFFFFFFFFFFFFFFFFFFFFF AND PUSH20 0xFFFFFFFFFFFFFFFFFFFFFFFFFFFFFFFFFFFFFFFF AND CALLER PUSH20 0xFFFFFFFFFFFFFFFFFFFFFFFFFFFFFFFFFFFFFFFF AND EQ PUSH2 0x1372 JUMPI PUSH1 0x40 MLOAD PUSH32 0x8C379A000000000000000000000000000000000000000000000000000000000 DUP2 MSTORE PUSH1 0x4 ADD PUSH2 0x1369 SWAP1 PUSH2 0x48E9 JUMP JUMPDEST PUSH1 0x40 MLOAD DUP1 SWAP2 SUB SWAP1 REVERT JUMPDEST DUP1 PUSH1 0x2 PUSH0 PUSH2 0x100 EXP DUP2 SLOAD DUP2 PUSH20 0xFFFFFFFFFFFFFFFFFFFFFFFFFFFFFFFFFFFFFFFF MUL NOT AND SWAP1 DUP4 PUSH20 0xFFFFFFFFFFFFFFFFFFFFFFFFFFFFFFFFFFFFFFFF AND MUL OR SWAP1 SSTORE POP PUSH1 0x2 PUSH0 SWAP1 SLOAD SWAP1 PUSH2 0x100 EXP SWAP1 DIV PUSH20 0xFFFFFFFFFFFFFFFFFFFFFFFFFFFFFFFFFFFFFFFF AND PUSH20 0xFFFFFFFFFFFFFFFFFFFFFFFFFFFFFFFFFFFFFFFF AND PUSH4 0xFFFC4CF ADDRESS PUSH1 0x40 MLOAD DUP3 PUSH4 0xFFFFFFFF AND PUSH1 0xE0 SHL DUP2 MSTORE PUSH1 0x4 ADD PUSH2 0x140C SWAP2 SWAP1 PUSH2 0x414F JUMP JUMPDEST PUSH0 PUSH1 0x40 MLOAD DUP1 DUP4 SUB DUP2 PUSH0 DUP8 DUP1 EXTCODESIZE ISZERO DUP1 ISZERO PUSH2 0x1423 JUMPI PUSH0 DUP1 REVERT JUMPDEST POP GAS CALL ISZERO DUP1 ISZERO PUSH2 0x1435 JUMPI RETURNDATASIZE PUSH0 DUP1 RETURNDATACOPY RETURNDATASIZE PUSH0 REVERT JUMPDEST POP POP POP POP POP JUMP JUMPDEST PUSH1 0x9 PUSH1 0x20 MSTORE DUP1 PUSH0 MSTORE PUSH1 0x40 PUSH0 KECCAK256 PUSH0 SWAP2 POP SWAP1 POP DUP1 SLOAD PUSH2 0x1458 SWAP1 PUSH2 0x4934 JUMP JUMPDEST DUP1 PUSH1 0x1F ADD PUSH1 0x20 DUP1 SWAP2 DIV MUL PUSH1 0x20 ADD PUSH1 0x40 MLOAD SWAP1 DUP2 ADD PUSH1 0x40 MSTORE DUP1 SWAP3 SWAP2 SWAP1 DUP2 DUP2 MSTORE PUSH1 0x20 ADD DUP3 DUP1 SLOAD PUSH2 0x1484 SWAP1 PUSH2 0x4934 JUMP JUMPDEST DUP1 ISZERO PUSH2 0x14CF JUMPI DUP1 PUSH1 0x1F LT PUSH2 0x14A6 JUMPI PUSH2 0x100 DUP1 DUP4 SLOAD DIV MUL DUP4 MSTORE SWAP2 PUSH1 0x20 ADD SWAP2 PUSH2 0x14CF JUMP JUMPDEST DUP3 ADD SWAP2 SWAP1 PUSH0 MSTORE PUSH1 0x20 PUSH0 KECCAK256 SWAP1 JUMPDEST DUP2 SLOAD DUP2 MSTORE SWAP1 PUSH1 0x1 ADD SWAP1 PUSH1 0x20 ADD DUP1 DUP4 GT PUSH2 0x14B2 JUMPI DUP3 SWAP1 SUB PUSH1 0x1F AND DUP3 ADD SWAP2 JUMPDEST POP POP POP POP POP DUP2 JUMP JUMPDEST PUSH1 0x3 PUSH0 SWAP1 SLOAD SWAP1 PUSH2 0x100 EXP SWAP1 DIV PUSH20 0xFFFFFFFFFFFFFFFFFFFFFFFFFFFFFFFFFFFFFFFF AND PUSH20 0xFFFFFFFFFFFFFFFFFFFFFFFFFFFFFFFFFFFFFFFF AND CALLER PUSH20 0xFFFFFFFFFFFFFFFFFFFFFFFFFFFFFFFFFFFFFFFF AND EQ PUSH2 0x1566 JUMPI PUSH1 0x40 MLOAD PUSH32 0x8C379A000000000000000000000000000000000000000000000000000000000 DUP2 MSTORE PUSH1 0x4 ADD PUSH2 0x155D SWAP1 PUSH2 0x48E9 JUMP JUMPDEST PUSH1 0x40 MLOAD DUP1 SWAP2 SUB SWAP1 REVERT JUMPDEST DUP1 PUSH1 0x1 PUSH0 PUSH2 0x100 EXP DUP2 SLOAD DUP2 PUSH20 0xFFFFFFFFFFFFFFFFFFFFFFFFFFFFFFFFFFFFFFFF MUL NOT AND SWAP1 DUP4 PUSH20 0xFFFFFFFFFFFFFFFFFFFFFFFFFFFFFFFFFFFFFFFF AND MUL OR SWAP1 SSTORE POP PUSH1 0x1 PUSH0 SWAP1 SLOAD SWAP1 PUSH2 0x100 EXP SWAP1 DIV PUSH20 0xFFFFFFFFFFFFFFFFFFFFFFFFFFFFFFFFFFFFFFFF AND PUSH20 0xFFFFFFFFFFFFFFFFFFFFFFFFFFFFFFFFFFFFFFFF AND PUSH4 0xFFFC4CF ADDRESS PUSH1 0x40 MLOAD DUP3 PUSH4 0xFFFFFFFF AND PUSH1 0xE0 SHL DUP2 MSTORE PUSH1 0x4 ADD PUSH2 0x1600 SWAP2 SWAP1 PUSH2 0x414F JUMP JUMPDEST PUSH0 PUSH1 0x40 MLOAD DUP1 DUP4 SUB DUP2 PUSH0 DUP8 DUP1 EXTCODESIZE ISZERO DUP1 ISZERO PUSH2 0x1617 JUMPI PUSH0 DUP1 REVERT JUMPDEST POP GAS CALL ISZERO DUP1 ISZERO PUSH2 0x1629 JUMPI RETURNDATASIZE PUSH0 DUP1 RETURNDATACOPY RETURNDATASIZE PUSH0 REVERT JUMPDEST POP POP POP POP POP JUMP JUMPDEST PUSH1 0xC PUSH1 0x20 MSTORE DUP1 PUSH0 MSTORE PUSH1 0x40 PUSH0 KECCAK256 PUSH0 SWAP2 POP SWAP1 POP DUP1 SLOAD PUSH2 0x164C SWAP1 PUSH2 0x4934 JUMP JUMPDEST DUP1 PUSH1 0x1F ADD PUSH1 0x20 DUP1 SWAP2 DIV MUL PUSH1 0x20 ADD PUSH1 0x40 MLOAD SWAP1 DUP2 ADD PUSH1 0x40 MSTORE DUP1 SWAP3 SWAP2 SWAP1 DUP2 DUP2 MSTORE PUSH1 0x20 ADD DUP3 DUP1 SLOAD PUSH2 0x1678 SWAP1 PUSH2 0x4934 JUMP JUMPDEST DUP1 ISZERO PUSH2 0x16C3 JUMPI DUP1 PUSH1 0x1F LT PUSH2 0x169A JUMPI PUSH2 0x100 DUP1 DUP4 SLOAD DIV MUL DUP4 MSTORE SWAP2 PUSH1 0x20 ADD SWAP2 PUSH2 0x16C3 JUMP JUMPDEST DUP3 ADD SWAP2 SWAP1 PUSH0 MSTORE PUSH1 0x20 PUSH0 KECCAK256 SWAP1 JUMPDEST DUP2 SLOAD DUP2 MSTORE SWAP1 PUSH1 0x1 ADD SWAP1 PUSH1 0x20 ADD DUP1 DUP4 GT PUSH2 0x16A6 JUMPI DUP3 SWAP1 SUB PUSH1 0x1F AND DUP3 ADD SWAP2 JUMPDEST POP POP POP POP POP DUP2 JUMP JUMPDEST PUSH0 PUSH1 0x10 PUSH0 DUP5 DUP2 MSTORE PUSH1 0x20 ADD SWAP1 DUP2 MSTORE PUSH1 0x20 ADD PUSH0 KECCAK256 SWAP1 POP DUP3 DUP2 PUSH0 ADD DUP2 SWAP1 SSTORE POP PUSH1 0x7 PUSH0 DUP6 PUSH20 0xFFFFFFFFFFFFFFFFFFFFFFFFFFFFFFFFFFFFFFFF AND PUSH20 0xFFFFFFFFFFFFFFFFFFFFFFFFFFFFFFFFFFFFFFFF AND DUP2 MSTORE PUSH1 0x20 ADD SWAP1 DUP2 MSTORE PUSH1 0x20 ADD PUSH0 KECCAK256 DUP2 PUSH1 0x3 ADD SWAP1 DUP2 PUSH2 0x1734 SWAP2 SWAP1 PUSH2 0x4E98 JUMP JUMPDEST POP TIMESTAMP DUP2 PUSH1 0x2 ADD DUP2 SWAP1 SSTORE POP DUP2 DUP2 PUSH1 0x6 ADD DUP2 SWAP1 SSTORE POP POP POP POP POP JUMP JUMPDEST PUSH1 0x60 PUSH1 0xD PUSH0 DUP4 DUP2 MSTORE PUSH1 0x20 ADD SWAP1 DUP2 MSTORE PUSH1 0x20 ADD PUSH0 KECCAK256 DUP1 SLOAD DUP1 PUSH1 0x20 MUL PUSH1 0x20 ADD PUSH1 0x40 MLOAD SWAP1 DUP2 ADD PUSH1 0x40 MSTORE DUP1 SWAP3 SWAP2 SWAP1 DUP2 DUP2 MSTORE PUSH1 0x20 ADD DUP3 DUP1 SLOAD DUP1 ISZERO PUSH2 0x17A8 JUMPI PUSH1 0x20 MUL DUP3 ADD SWAP2 SWAP1 PUSH0 MSTORE PUSH1 0x20 PUSH0 KECCAK256 SWAP1 JUMPDEST DUP2 SLOAD DUP2 MSTORE PUSH1 0x20 ADD SWAP1 PUSH1 0x1 ADD SWAP1 DUP1 DUP4 GT PUSH2 0x1794 JUMPI JUMPDEST POP POP POP POP POP SWAP1 POP SWAP2 SWAP1 POP JUMP JUMPDEST PUSH1 0x3 PUSH0 SWAP1 SLOAD SWAP1 PUSH2 0x100 EXP SWAP1 DIV PUSH20 0xFFFFFFFFFFFFFFFFFFFFFFFFFFFFFFFFFFFFFFFF AND DUP2 JUMP JUMPDEST PUSH1 0x7 PUSH1 0x20 MSTORE DUP1 PUSH0 MSTORE PUSH1 0x40 PUSH0 KECCAK256 PUSH0 SWAP2 POP SWAP1 POP DUP1 SLOAD PUSH2 0x17F5 SWAP1 PUSH2 0x4934 JUMP JUMPDEST DUP1 PUSH1 0x1F ADD PUSH1 0x20 DUP1 SWAP2 DIV MUL PUSH1 0x20 ADD PUSH1 0x40 MLOAD SWAP1 DUP2 ADD PUSH1 0x40 MSTORE DUP1 SWAP3 SWAP2 SWAP1 DUP2 DUP2 MSTORE PUSH1 0x20 ADD DUP3 DUP1 SLOAD PUSH2 0x1821 SWAP1 PUSH2 0x4934 JUMP JUMPDEST DUP1 ISZERO PUSH2 0x186C JUMPI DUP1 PUSH1 0x1F LT PUSH2 0x1843 JUMPI PUSH2 0x100 DUP1 DUP4 SLOAD DIV MUL DUP4 MSTORE SWAP2 PUSH1 0x20 ADD SWAP2 PUSH2 0x186C JUMP JUMPDEST DUP3 ADD SWAP2 SWAP1 PUSH0 MSTORE PUSH1 0x20 PUSH0 KECCAK256 SWAP1 JUMPDEST DUP2 SLOAD DUP2 MSTORE SWAP1 PUSH1 0x1 ADD SWAP1 PUSH1 0x20 ADD DUP1 DUP4 GT PUSH2 0x184F JUMPI DUP3 SWAP1 SUB PUSH1 0x1F AND DUP3 ADD SWAP2 JUMPDEST POP POP POP POP POP DUP2 JUMP JUMPDEST PUSH0 JUMPDEST DUP2 MLOAD DUP2 LT ISZERO PUSH2 0x1A74 JUMPI PUSH0 PUSH1 0x10 PUSH0 DUP5 DUP5 DUP2 MLOAD DUP2 LT PUSH2 0x1896 JUMPI PUSH2 0x1895 PUSH2 0x4BC7 JUMP JUMPDEST JUMPDEST PUSH1 0x20 MUL PUSH1 0x20 ADD ADD MLOAD DUP2 MSTORE PUSH1 0x20 ADD SWAP1 DUP2 MSTORE PUSH1 0x20 ADD PUSH0 KECCAK256 PUSH0 ADD SLOAD SWAP1 POP PUSH0 DUP2 SUB PUSH2 0x18F2 JUMPI PUSH1 0x40 MLOAD PUSH32 0x8C379A000000000000000000000000000000000000000000000000000000000 DUP2 MSTORE PUSH1 0x4 ADD PUSH2 0x18E9 SWAP1 PUSH2 0x5088 JUMP JUMPDEST PUSH1 0x40 MLOAD DUP1 SWAP2 SUB SWAP1 REVERT JUMPDEST DUP4 PUSH20 0xFFFFFFFFFFFFFFFFFFFFFFFFFFFFFFFFFFFFFFFF AND PUSH0 DUP1 SLOAD SWAP1 PUSH2 0x100 EXP SWAP1 DIV PUSH20 0xFFFFFFFFFFFFFFFFFFFFFFFFFFFFFFFFFFFFFFFF AND PUSH20 0xFFFFFFFFFFFFFFFFFFFFFFFFFFFFFFFFFFFFFFFF AND PUSH4 0x6352211E DUP4 PUSH1 0x40 MLOAD DUP3 PUSH4 0xFFFFFFFF AND PUSH1 0xE0 SHL DUP2 MSTORE PUSH1 0x4 ADD PUSH2 0x1961 SWAP2 SWAP1 PUSH2 0x4177 JUMP JUMPDEST PUSH1 0x20 PUSH1 0x40 MLOAD DUP1 DUP4 SUB DUP2 DUP7 GAS STATICCALL ISZERO DUP1 ISZERO PUSH2 0x197C JUMPI RETURNDATASIZE PUSH0 DUP1 RETURNDATACOPY RETURNDATASIZE PUSH0 REVERT JUMPDEST POP POP POP POP PUSH1 0x40 MLOAD RETURNDATASIZE PUSH1 0x1F NOT PUSH1 0x1F DUP3 ADD AND DUP3 ADD DUP1 PUSH1 0x40 MSTORE POP DUP2 ADD SWAP1 PUSH2 0x19A0 SWAP2 SWAP1 PUSH2 0x4D2A JUMP JUMPDEST PUSH20 0xFFFFFFFFFFFFFFFFFFFFFFFFFFFFFFFFFFFFFFFF AND EQ PUSH2 0x19F6 JUMPI PUSH1 0x40 MLOAD PUSH32 0x8C379A000000000000000000000000000000000000000000000000000000000 DUP2 MSTORE PUSH1 0x4 ADD PUSH2 0x19ED SWAP1 PUSH2 0x50F0 JUMP JUMPDEST PUSH1 0x40 MLOAD DUP1 SWAP2 SUB SWAP1 REVERT JUMPDEST PUSH0 PUSH1 0x10 PUSH0 DUP6 DUP6 DUP2 MLOAD DUP2 LT PUSH2 0x1A0D JUMPI PUSH2 0x1A0C PUSH2 0x4BC7 JUMP JUMPDEST JUMPDEST PUSH1 0x20 MUL PUSH1 0x20 ADD ADD MLOAD DUP2 MSTORE PUSH1 0x20 ADD SWAP1 DUP2 MSTORE PUSH1 0x20 ADD PUSH0 KECCAK256 PUSH1 0x1 ADD SLOAD EQ PUSH2 0x1A66 JUMPI PUSH1 0x40 MLOAD PUSH32 0x8C379A000000000000000000000000000000000000000000000000000000000 DUP2 MSTORE PUSH1 0x4 ADD PUSH2 0x1A5D SWAP1 PUSH2 0x5158 JUMP JUMPDEST PUSH1 0x40 MLOAD DUP1 SWAP2 SUB SWAP1 REVERT JUMPDEST POP DUP1 DUP1 PUSH1 0x1 ADD SWAP2 POP POP PUSH2 0x1876 JUMP JUMPDEST POP POP POP JUMP JUMPDEST PUSH1 0x5 SLOAD DUP2 JUMP JUMPDEST PUSH1 0x3 PUSH0 SWAP1 SLOAD SWAP1 PUSH2 0x100 EXP SWAP1 DIV PUSH20 0xFFFFFFFFFFFFFFFFFFFFFFFFFFFFFFFFFFFFFFFF AND PUSH20 0xFFFFFFFFFFFFFFFFFFFFFFFFFFFFFFFFFFFFFFFF AND CALLER PUSH20 0xFFFFFFFFFFFFFFFFFFFFFFFFFFFFFFFFFFFFFFFF AND EQ PUSH2 0x1B0E JUMPI PUSH1 0x40 MLOAD PUSH32 0x8C379A000000000000000000000000000000000000000000000000000000000 DUP2 MSTORE PUSH1 0x4 ADD PUSH2 0x1B05 SWAP1 PUSH2 0x48E9 JUMP JUMPDEST PUSH1 0x40 MLOAD DUP1 SWAP2 SUB SWAP1 REVERT JUMPDEST DUP1 PUSH1 0x8 PUSH0 DUP5 PUSH20 0xFFFFFFFFFFFFFFFFFFFFFFFFFFFFFFFFFFFFFFFF AND PUSH20 0xFFFFFFFFFFFFFFFFFFFFFFFFFFFFFFFFFFFFFFFF AND DUP2 MSTORE PUSH1 0x20 ADD SWAP1 DUP2 MSTORE PUSH1 0x20 ADD PUSH0 KECCAK256 SWAP1 DUP2 PUSH2 0x1B58 SWAP2 SWAP1 PUSH2 0x4AF8 JUMP JUMPDEST POP POP POP JUMP JUMPDEST PUSH1 0x3 PUSH0 SWAP1 SLOAD SWAP1 PUSH2 0x100 EXP SWAP1 DIV PUSH20 0xFFFFFFFFFFFFFFFFFFFFFFFFFFFFFFFFFFFFFFFF AND PUSH20 0xFFFFFFFFFFFFFFFFFFFFFFFFFFFFFFFFFFFFFFFF AND CALLER PUSH20 0xFFFFFFFFFFFFFFFFFFFFFFFFFFFFFFFFFFFFFFFF AND EQ PUSH2 0x1BEC JUMPI PUSH1 0x40 MLOAD PUSH32 0x8C379A000000000000000000000000000000000000000000000000000000000 DUP2 MSTORE PUSH1 0x4 ADD PUSH2 0x1BE3 SWAP1 PUSH2 0x48E9 JUMP JUMPDEST PUSH1 0x40 MLOAD DUP1 SWAP2 SUB SWAP1 REVERT JUMPDEST DUP1 PUSH1 0xA PUSH0 DUP5 PUSH20 0xFFFFFFFFFFFFFFFFFFFFFFFFFFFFFFFFFFFFFFFF AND PUSH20 0xFFFFFFFFFFFFFFFFFFFFFFFFFFFFFFFFFFFFFFFF AND DUP2 MSTORE PUSH1 0x20 ADD SWAP1 DUP2 MSTORE PUSH1 0x20 ADD PUSH0 KECCAK256 SWAP1 DUP2 PUSH2 0x1C36 SWAP2 SWAP1 PUSH2 0x4AF8 JUMP JUMPDEST POP POP POP JUMP JUMPDEST PUSH1 0x3 PUSH0 SWAP1 SLOAD SWAP1 PUSH2 0x100 EXP SWAP1 DIV PUSH20 0xFFFFFFFFFFFFFFFFFFFFFFFFFFFFFFFFFFFFFFFF AND PUSH20 0xFFFFFFFFFFFFFFFFFFFFFFFFFFFFFFFFFFFFFFFF AND CALLER PUSH20 0xFFFFFFFFFFFFFFFFFFFFFFFFFFFFFFFFFFFFFFFF AND EQ PUSH2 0x1CCA JUMPI PUSH1 0x40 MLOAD PUSH32 0x8C379A000000000000000000000000000000000000000000000000000000000 DUP2 MSTORE PUSH1 0x4 ADD PUSH2 0x1CC1 SWAP1 PUSH2 0x48E9 JUMP JUMPDEST PUSH1 0x40 MLOAD DUP1 SWAP2 SUB SWAP1 REVERT JUMPDEST DUP1 PUSH0 DUP1 PUSH2 0x100 EXP DUP2 SLOAD DUP2 PUSH20 0xFFFFFFFFFFFFFFFFFFFFFFFFFFFFFFFFFFFFFFFF MUL NOT AND SWAP1 DUP4 PUSH20 0xFFFFFFFFFFFFFFFFFFFFFFFFFFFFFFFFFFFFFFFF AND MUL OR SWAP1 SSTORE POP PUSH0 DUP1 SLOAD SWAP1 PUSH2 0x100 EXP SWAP1 DIV PUSH20 0xFFFFFFFFFFFFFFFFFFFFFFFFFFFFFFFFFFFFFFFF AND PUSH20 0xFFFFFFFFFFFFFFFFFFFFFFFFFFFFFFFFFFFFFFFF AND PUSH4 0xFFFC4CF ADDRESS PUSH1 0x40 MLOAD DUP3 PUSH4 0xFFFFFFFF AND PUSH1 0xE0 SHL DUP2 MSTORE PUSH1 0x4 ADD PUSH2 0x1D61 SWAP2 SWAP1 PUSH2 0x414F JUMP JUMPDEST PUSH0 PUSH1 0x40 MLOAD DUP1 DUP4 SUB DUP2 PUSH0 DUP8 DUP1 EXTCODESIZE ISZERO DUP1 ISZERO PUSH2 0x1D78 JUMPI PUSH0 DUP1 REVERT JUMPDEST POP GAS CALL ISZERO DUP1 ISZERO PUSH2 0x1D8A JUMPI RETURNDATASIZE PUSH0 DUP1 RETURNDATACOPY RETURNDATASIZE PUSH0 REVERT JUMPDEST POP POP POP POP POP JUMP JUMPDEST PUSH1 0x3 PUSH0 SWAP1 SLOAD SWAP1 PUSH2 0x100 EXP SWAP1 DIV PUSH20 0xFFFFFFFFFFFFFFFFFFFFFFFFFFFFFFFFFFFFFFFF AND PUSH20 0xFFFFFFFFFFFFFFFFFFFFFFFFFFFFFFFFFFFFFFFF AND CALLER PUSH20 0xFFFFFFFFFFFFFFFFFFFFFFFFFFFFFFFFFFFFFFFF AND EQ PUSH2 0x1E20 JUMPI PUSH1 0x40 MLOAD PUSH32 0x8C379A000000000000000000000000000000000000000000000000000000000 DUP2 MSTORE PUSH1 0x4 ADD PUSH2 0x1E17 SWAP1 PUSH2 0x48E9 JUMP JUMPDEST PUSH1 0x40 MLOAD DUP1 SWAP2 SUB SWAP1 REVERT JUMPDEST DUP1 PUSH1 0x9 PUSH0 DUP5 PUSH20 0xFFFFFFFFFFFFFFFFFFFFFFFFFFFFFFFFFFFFFFFF AND PUSH20 0xFFFFFFFFFFFFFFFFFFFFFFFFFFFFFFFFFFFFFFFF AND DUP2 MSTORE PUSH1 0x20 ADD SWAP1 DUP2 MSTORE PUSH1 0x20 ADD PUSH0 KECCAK256 SWAP1 DUP2 PUSH2 0x1E6A SWAP2 SWAP1 PUSH2 0x4AF8 JUMP JUMPDEST POP POP POP JUMP JUMPDEST PUSH1 0x6 SLOAD DUP2 JUMP JUMPDEST PUSH0 DUP1 SLOAD SWAP1 PUSH2 0x100 EXP SWAP1 DIV PUSH20 0xFFFFFFFFFFFFFFFFFFFFFFFFFFFFFFFFFFFFFFFF AND DUP2 JUMP JUMPDEST PUSH1 0xA PUSH1 0x20 MSTORE DUP1 PUSH0 MSTORE PUSH1 0x40 PUSH0 KECCAK256 PUSH0 SWAP2 POP SWAP1 POP DUP1 SLOAD PUSH2 0x1EB4 SWAP1 PUSH2 0x4934 JUMP JUMPDEST DUP1 PUSH1 0x1F ADD PUSH1 0x20 DUP1 SWAP2 DIV MUL PUSH1 0x20 ADD PUSH1 0x40 MLOAD SWAP1 DUP2 ADD PUSH1 0x40 MSTORE DUP1 SWAP3 SWAP2 SWAP1 DUP2 DUP2 MSTORE PUSH1 0x20 ADD DUP3 DUP1 SLOAD PUSH2 0x1EE0 SWAP1 PUSH2 0x4934 JUMP JUMPDEST DUP1 ISZERO PUSH2 0x1F2B JUMPI DUP1 PUSH1 0x1F LT PUSH2 0x1F02 JUMPI PUSH2 0x100 DUP1 DUP4 SLOAD DIV MUL DUP4 MSTORE SWAP2 PUSH1 0x20 ADD SWAP2 PUSH2 0x1F2B JUMP JUMPDEST DUP3 ADD SWAP2 SWAP1 PUSH0 MSTORE PUSH1 0x20 PUSH0 KECCAK256 SWAP1 JUMPDEST DUP2 SLOAD DUP2 MSTORE SWAP1 PUSH1 0x1 ADD SWAP1 PUSH1 0x20 ADD DUP1 DUP4 GT PUSH2 0x1F0E JUMPI DUP3 SWAP1 SUB PUSH1 0x1F AND DUP3 ADD SWAP2 JUMPDEST POP POP POP POP POP DUP2 JUMP JUMPDEST PUSH0 PUSH1 0x60 PUSH2 0x1F3E PUSH2 0x391F JUMP JUMPDEST PUSH1 0x60 DUP1 PUSH1 0x60 PUSH1 0x10 PUSH0 DUP9 DUP2 MSTORE PUSH1 0x20 ADD SWAP1 DUP2 MSTORE PUSH1 0x20 ADD PUSH0 KECCAK256 PUSH1 0x40 MLOAD DUP1 PUSH2 0x120 ADD PUSH1 0x40 MSTORE SWAP1 DUP2 PUSH0 DUP3 ADD SLOAD DUP2 MSTORE PUSH1 0x20 ADD PUSH1 0x1 DUP3 ADD SLOAD DUP2 MSTORE PUSH1 0x20 ADD PUSH1 0x2 DUP3 ADD SLOAD DUP2 MSTORE PUSH1 0x20 ADD PUSH1 0x3 DUP3 ADD DUP1 SLOAD PUSH2 0x1F8D SWAP1 PUSH2 0x4934 JUMP JUMPDEST DUP1 PUSH1 0x1F ADD PUSH1 0x20 DUP1 SWAP2 DIV MUL PUSH1 0x20 ADD PUSH1 0x40 MLOAD SWAP1 DUP2 ADD PUSH1 0x40 MSTORE DUP1 SWAP3 SWAP2 SWAP1 DUP2 DUP2 MSTORE PUSH1 0x20 ADD DUP3 DUP1 SLOAD PUSH2 0x1FB9 SWAP1 PUSH2 0x4934 JUMP JUMPDEST DUP1 ISZERO PUSH2 0x2004 JUMPI DUP1 PUSH1 0x1F LT PUSH2 0x1FDB JUMPI PUSH2 0x100 DUP1 DUP4 SLOAD DIV MUL DUP4 MSTORE SWAP2 PUSH1 0x20 ADD SWAP2 PUSH2 0x2004 JUMP JUMPDEST DUP3 ADD SWAP2 SWAP1 PUSH0 MSTORE PUSH1 0x20 PUSH0 KECCAK256 SWAP1 JUMPDEST DUP2 SLOAD DUP2 MSTORE SWAP1 PUSH1 0x1 ADD SWAP1 PUSH1 0x20 ADD DUP1 DUP4 GT PUSH2 0x1FE7 JUMPI DUP3 SWAP1 SUB PUSH1 0x1F AND DUP3 ADD SWAP2 JUMPDEST POP POP POP POP POP DUP2 MSTORE PUSH1 0x20 ADD PUSH1 0x4 DUP3 ADD SLOAD DUP2 MSTORE PUSH1 0x20 ADD PUSH1 0x5 DUP3 ADD DUP1 SLOAD PUSH2 0x2027 SWAP1 PUSH2 0x4934 JUMP JUMPDEST DUP1 PUSH1 0x1F ADD PUSH1 0x20 DUP1 SWAP2 DIV MUL PUSH1 0x20 ADD PUSH1 0x40 MLOAD SWAP1 DUP2 ADD PUSH1 0x40 MSTORE DUP1 SWAP3 SWAP2 SWAP1 DUP2 DUP2 MSTORE PUSH1 0x20 ADD DUP3 DUP1 SLOAD PUSH2 0x2053 SWAP1 PUSH2 0x4934 JUMP JUMPDEST DUP1 ISZERO PUSH2 0x209E JUMPI DUP1 PUSH1 0x1F LT PUSH2 0x2075 JUMPI PUSH2 0x100 DUP1 DUP4 SLOAD DIV MUL DUP4 MSTORE SWAP2 PUSH1 0x20 ADD SWAP2 PUSH2 0x209E JUMP JUMPDEST DUP3 ADD SWAP2 SWAP1 PUSH0 MSTORE PUSH1 0x20 PUSH0 KECCAK256 SWAP1 JUMPDEST DUP2 SLOAD DUP2 MSTORE SWAP1 PUSH1 0x1 ADD SWAP1 PUSH1 0x20 ADD DUP1 DUP4 GT PUSH2 0x2081 JUMPI DUP3 SWAP1 SUB PUSH1 0x1F AND DUP3 ADD SWAP2 JUMPDEST POP POP POP POP POP DUP2 MSTORE PUSH1 0x20 ADD PUSH1 0x6 DUP3 ADD SLOAD DUP2 MSTORE PUSH1 0x20 ADD PUSH1 0x7 DUP3 ADD DUP1 SLOAD DUP1 PUSH1 0x20 MUL PUSH1 0x20 ADD PUSH1 0x40 MLOAD SWAP1 DUP2 ADD PUSH1 0x40 MSTORE DUP1 SWAP3 SWAP2 SWAP1 DUP2 DUP2 MSTORE PUSH1 0x20 ADD DUP3 DUP1 SLOAD DUP1 ISZERO PUSH2 0x20FE JUMPI PUSH1 0x20 MUL DUP3 ADD SWAP2 SWAP1 PUSH0 MSTORE PUSH1 0x20 PUSH0 KECCAK256 SWAP1 JUMPDEST DUP2 SLOAD DUP2 MSTORE PUSH1 0x20 ADD SWAP1 PUSH1 0x1 ADD SWAP1 DUP1 DUP4 GT PUSH2 0x20EA JUMPI JUMPDEST POP POP POP POP POP DUP2 MSTORE PUSH1 0x20 ADD PUSH1 0x8 DUP3 ADD DUP1 SLOAD DUP1 PUSH1 0x20 MUL PUSH1 0x20 ADD PUSH1 0x40 MLOAD SWAP1 DUP2 ADD PUSH1 0x40 MSTORE DUP1 SWAP3 SWAP2 SWAP1 DUP2 DUP2 MSTORE PUSH1 0x20 ADD DUP3 DUP1 SLOAD DUP1 ISZERO PUSH2 0x2154 JUMPI PUSH1 0x20 MUL DUP3 ADD SWAP2 SWAP1 PUSH0 MSTORE PUSH1 0x20 PUSH0 KECCAK256 SWAP1 JUMPDEST DUP2 SLOAD DUP2 MSTORE PUSH1 0x20 ADD SWAP1 PUSH1 0x1 ADD SWAP1 DUP1 DUP4 GT PUSH2 0x2140 JUMPI JUMPDEST POP POP POP POP POP DUP2 MSTORE POP POP SWAP4 POP PUSH0 DUP5 PUSH0 ADD MLOAD SUB PUSH2 0x21B9 JUMPI PUSH0 DUP5 DUP5 DUP5 DUP5 PUSH1 0x40 MLOAD DUP1 PUSH1 0x40 ADD PUSH1 0x40 MSTORE DUP1 PUSH1 0x18 DUP2 MSTORE PUSH1 0x20 ADD PUSH32 0x54686520746F6B656E4944206973206E6F742065786973740000000000000000 DUP2 MSTORE POP SWAP4 SWAP3 SWAP2 SWAP1 SWAP6 POP SWAP6 POP SWAP6 POP SWAP6 POP SWAP6 POP SWAP6 POP PUSH2 0x22A8 JUMP JUMPDEST PUSH1 0x1 DUP5 DUP6 PUSH1 0xE0 ADD MLOAD DUP7 PUSH2 0x100 ADD MLOAD PUSH0 DUP1 SLOAD SWAP1 PUSH2 0x100 EXP SWAP1 DIV PUSH20 0xFFFFFFFFFFFFFFFFFFFFFFFFFFFFFFFFFFFFFFFF AND PUSH20 0xFFFFFFFFFFFFFFFFFFFFFFFFFFFFFFFFFFFFFFFF AND PUSH4 0xC87B56DD DUP13 PUSH1 0x40 MLOAD DUP3 PUSH4 0xFFFFFFFF AND PUSH1 0xE0 SHL DUP2 MSTORE PUSH1 0x4 ADD PUSH2 0x221F SWAP2 SWAP1 PUSH2 0x4177 JUMP JUMPDEST PUSH0 PUSH1 0x40 MLOAD DUP1 DUP4 SUB DUP2 DUP7 GAS STATICCALL ISZERO DUP1 ISZERO PUSH2 0x2239 JUMPI RETURNDATASIZE PUSH0 DUP1 RETURNDATACOPY RETURNDATASIZE PUSH0 REVERT JUMPDEST POP POP POP POP PUSH1 0x40 MLOAD RETURNDATASIZE PUSH0 DUP3 RETURNDATACOPY RETURNDATASIZE PUSH1 0x1F NOT PUSH1 0x1F DUP3 ADD AND DUP3 ADD DUP1 PUSH1 0x40 MSTORE POP DUP2 ADD SWAP1 PUSH2 0x2261 SWAP2 SWAP1 PUSH2 0x51E4 JUMP JUMPDEST PUSH1 0x40 MLOAD DUP1 PUSH1 0x40 ADD PUSH1 0x40 MSTORE DUP1 PUSH1 0x7 DUP2 MSTORE PUSH1 0x20 ADD PUSH32 0x5375636365737300000000000000000000000000000000000000000000000000 DUP2 MSTORE POP SWAP4 SWAP3 SWAP2 SWAP1 SWAP6 POP SWAP6 POP SWAP6 POP SWAP6 POP SWAP6 POP SWAP6 POP JUMPDEST SWAP2 SWAP4 SWAP6 POP SWAP2 SWAP4 SWAP6 JUMP JUMPDEST PUSH1 0x3 PUSH0 SWAP1 SLOAD SWAP1 PUSH2 0x100 EXP SWAP1 DIV PUSH20 0xFFFFFFFFFFFFFFFFFFFFFFFFFFFFFFFFFFFFFFFF AND PUSH20 0xFFFFFFFFFFFFFFFFFFFFFFFFFFFFFFFFFFFFFFFF AND CALLER PUSH20 0xFFFFFFFFFFFFFFFFFFFFFFFFFFFFFFFFFFFFFFFF AND EQ PUSH2 0x2340 JUMPI PUSH1 0x40 MLOAD PUSH32 0x8C379A000000000000000000000000000000000000000000000000000000000 DUP2 MSTORE PUSH1 0x4 ADD PUSH2 0x2337 SWAP1 PUSH2 0x48E9 JUMP JUMPDEST PUSH1 0x40 MLOAD DUP1 SWAP2 SUB SWAP1 REVERT JUMPDEST DUP1 PUSH1 0xB PUSH0 DUP5 PUSH20 0xFFFFFFFFFFFFFFFFFFFFFFFFFFFFFFFFFFFFFFFF AND PUSH20 0xFFFFFFFFFFFFFFFFFFFFFFFFFFFFFFFFFFFFFFFF AND DUP2 MSTORE PUSH1 0x20 ADD SWAP1 DUP2 MSTORE PUSH1 0x20 ADD PUSH0 KECCAK256 SWAP1 DUP2 PUSH2 0x238A SWAP2 SWAP1 PUSH2 0x4AF8 JUMP JUMPDEST POP POP POP JUMP JUMPDEST PUSH0 PUSH1 0x7 PUSH0 DUP4 PUSH20 0xFFFFFFFFFFFFFFFFFFFFFFFFFFFFFFFFFFFFFFFF AND PUSH20 0xFFFFFFFFFFFFFFFFFFFFFFFFFFFFFFFFFFFFFFFF AND DUP2 MSTORE PUSH1 0x20 ADD SWAP1 DUP2 MSTORE PUSH1 0x20 ADD PUSH0 KECCAK256 DUP1 SLOAD PUSH2 0x23D8 SWAP1 PUSH2 0x4934 JUMP JUMPDEST SWAP1 POP SUB PUSH2 0x241A JUMPI PUSH1 0x40 MLOAD PUSH32 0x8C379A000000000000000000000000000000000000000000000000000000000 DUP2 MSTORE PUSH1 0x4 ADD PUSH2 0x2411 SWAP1 PUSH2 0x529B JUMP JUMPDEST PUSH1 0x40 MLOAD DUP1 SWAP2 SUB SWAP1 REVERT JUMPDEST POP JUMP JUMPDEST PUSH1 0x4 SLOAD DUP2 JUMP JUMPDEST PUSH0 JUMPDEST DUP2 MLOAD DUP2 LT ISZERO PUSH2 0x2625 JUMPI PUSH0 PUSH1 0xF PUSH0 DUP5 DUP5 DUP2 MLOAD DUP2 LT PUSH2 0x2445 JUMPI PUSH2 0x2444 PUSH2 0x4BC7 JUMP JUMPDEST JUMPDEST PUSH1 0x20 MUL PUSH1 0x20 ADD ADD MLOAD DUP2 MSTORE PUSH1 0x20 ADD SWAP1 DUP2 MSTORE PUSH1 0x20 ADD PUSH0 KECCAK256 PUSH0 ADD SLOAD SWAP1 POP PUSH0 DUP2 SUB PUSH2 0x24A1 JUMPI PUSH1 0x40 MLOAD PUSH32 0x8C379A000000000000000000000000000000000000000000000000000000000 DUP2 MSTORE PUSH1 0x4 ADD PUSH2 0x2498 SWAP1 PUSH2 0x5303 JUMP JUMPDEST PUSH1 0x40 MLOAD DUP1 SWAP2 SUB SWAP1 REVERT JUMPDEST DUP4 PUSH20 0xFFFFFFFFFFFFFFFFFFFFFFFFFFFFFFFFFFFFFFFF AND PUSH1 0x1 PUSH0 SWAP1 SLOAD SWAP1 PUSH2 0x100 EXP SWAP1 DIV PUSH20 0xFFFFFFFFFFFFFFFFFFFFFFFFFFFFFFFFFFFFFFFF AND PUSH20 0xFFFFFFFFFFFFFFFFFFFFFFFFFFFFFFFFFFFFFFFF AND PUSH4 0x6352211E DUP4 PUSH1 0x40 MLOAD DUP3 PUSH4 0xFFFFFFFF AND PUSH1 0xE0 SHL DUP2 MSTORE PUSH1 0x4 ADD PUSH2 0x2512 SWAP2 SWAP1 PUSH2 0x4177 JUMP JUMPDEST PUSH1 0x20 PUSH1 0x40 MLOAD DUP1 DUP4 SUB DUP2 DUP7 GAS STATICCALL ISZERO DUP1 ISZERO PUSH2 0x252D JUMPI RETURNDATASIZE PUSH0 DUP1 RETURNDATACOPY RETURNDATASIZE PUSH0 REVERT JUMPDEST POP POP POP POP PUSH1 0x40 MLOAD RETURNDATASIZE PUSH1 0x1F NOT PUSH1 0x1F DUP3 ADD AND DUP3 ADD DUP1 PUSH1 0x40 MSTORE POP DUP2 ADD SWAP1 PUSH2 0x2551 SWAP2 SWAP1 PUSH2 0x4D2A JUMP JUMPDEST PUSH20 0xFFFFFFFFFFFFFFFFFFFFFFFFFFFFFFFFFFFFFFFF AND EQ PUSH2 0x25A7 JUMPI PUSH1 0x40 MLOAD PUSH32 0x8C379A000000000000000000000000000000000000000000000000000000000 DUP2 MSTORE PUSH1 0x4 ADD PUSH2 0x259E SWAP1 PUSH2 0x50F0 JUMP JUMPDEST PUSH1 0x40 MLOAD DUP1 SWAP2 SUB SWAP1 REVERT JUMPDEST PUSH0 PUSH1 0xF PUSH0 DUP6 DUP6 DUP2 MLOAD DUP2 LT PUSH2 0x25BE JUMPI PUSH2 0x25BD PUSH2 0x4BC7 JUMP JUMPDEST JUMPDEST PUSH1 0x20 MUL PUSH1 0x20 ADD ADD MLOAD DUP2 MSTORE PUSH1 0x20 ADD SWAP1 DUP2 MSTORE PUSH1 0x20 ADD PUSH0 KECCAK256 PUSH1 0x1 ADD SLOAD EQ PUSH2 0x2617 JUMPI PUSH1 0x40 MLOAD PUSH32 0x8C379A000000000000000000000000000000000000000000000000000000000 DUP2 MSTORE PUSH1 0x4 ADD PUSH2 0x260E SWAP1 PUSH2 0x5391 JUMP JUMPDEST PUSH1 0x40 MLOAD DUP1 SWAP2 SUB SWAP1 REVERT JUMPDEST POP DUP1 DUP1 PUSH1 0x1 ADD SWAP2 POP POP PUSH2 0x2425 JUMP JUMPDEST POP POP POP JUMP JUMPDEST PUSH1 0x3 PUSH0 SWAP1 SLOAD SWAP1 PUSH2 0x100 EXP SWAP1 DIV PUSH20 0xFFFFFFFFFFFFFFFFFFFFFFFFFFFFFFFFFFFFFFFF AND PUSH20 0xFFFFFFFFFFFFFFFFFFFFFFFFFFFFFFFFFFFFFFFF AND CALLER PUSH20 0xFFFFFFFFFFFFFFFFFFFFFFFFFFFFFFFFFFFFFFFF AND EQ PUSH2 0x26B9 JUMPI PUSH1 0x40 MLOAD PUSH32 0x8C379A000000000000000000000000000000000000000000000000000000000 DUP2 MSTORE PUSH1 0x4 ADD PUSH2 0x26B0 SWAP1 PUSH2 0x48E9 JUMP JUMPDEST PUSH1 0x40 MLOAD DUP1 SWAP2 SUB SWAP1 REVERT JUMPDEST DUP1 PUSH1 0x7 PUSH0 DUP5 PUSH20 0xFFFFFFFFFFFFFFFFFFFFFFFFFFFFFFFFFFFFFFFF AND PUSH20 0xFFFFFFFFFFFFFFFFFFFFFFFFFFFFFFFFFFFFFFFF AND DUP2 MSTORE PUSH1 0x20 ADD SWAP1 DUP2 MSTORE PUSH1 0x20 ADD PUSH0 KECCAK256 SWAP1 DUP2 PUSH2 0x2703 SWAP2 SWAP1 PUSH2 0x4AF8 JUMP JUMPDEST POP POP POP JUMP JUMPDEST PUSH0 PUSH1 0x60 PUSH2 0x2713 PUSH2 0x3966 JUMP JUMPDEST PUSH1 0x60 DUP1 PUSH1 0xF PUSH0 DUP8 DUP2 MSTORE PUSH1 0x20 ADD SWAP1 DUP2 MSTORE PUSH1 0x20 ADD PUSH0 KECCAK256 PUSH1 0x40 MLOAD DUP1 PUSH1 0xE0 ADD PUSH1 0x40 MSTORE SWAP1 DUP2 PUSH0 DUP3 ADD SLOAD DUP2 MSTORE PUSH1 0x20 ADD PUSH1 0x1 DUP3 ADD SLOAD DUP2 MSTORE PUSH1 0x20 ADD PUSH1 0x2 DUP3 ADD SLOAD DUP2 MSTORE PUSH1 0x20 ADD PUSH1 0x3 DUP3 ADD DUP1 SLOAD PUSH2 0x275F SWAP1 PUSH2 0x4934 JUMP JUMPDEST DUP1 PUSH1 0x1F ADD PUSH1 0x20 DUP1 SWAP2 DIV MUL PUSH1 0x20 ADD PUSH1 0x40 MLOAD SWAP1 DUP2 ADD PUSH1 0x40 MSTORE DUP1 SWAP3 SWAP2 SWAP1 DUP2 DUP2 MSTORE PUSH1 0x20 ADD DUP3 DUP1 SLOAD PUSH2 0x278B SWAP1 PUSH2 0x4934 JUMP JUMPDEST DUP1 ISZERO PUSH2 0x27D6 JUMPI DUP1 PUSH1 0x1F LT PUSH2 0x27AD JUMPI PUSH2 0x100 DUP1 DUP4 SLOAD DIV MUL DUP4 MSTORE SWAP2 PUSH1 0x20 ADD SWAP2 PUSH2 0x27D6 JUMP JUMPDEST DUP3 ADD SWAP2 SWAP1 PUSH0 MSTORE PUSH1 0x20 PUSH0 KECCAK256 SWAP1 JUMPDEST DUP2 SLOAD DUP2 MSTORE SWAP1 PUSH1 0x1 ADD SWAP1 PUSH1 0x20 ADD DUP1 DUP4 GT PUSH2 0x27B9 JUMPI DUP3 SWAP1 SUB PUSH1 0x1F AND DUP3 ADD SWAP2 JUMPDEST POP POP POP POP POP DUP2 MSTORE PUSH1 0x20 ADD PUSH1 0x4 DUP3 ADD DUP1 SLOAD DUP1 PUSH1 0x20 MUL PUSH1 0x20 ADD PUSH1 0x40 MLOAD SWAP1 DUP2 ADD PUSH1 0x40 MSTORE DUP1 SWAP3 SWAP2 SWAP1 DUP2 DUP2 MSTORE PUSH1 0x20 ADD PUSH0 SWAP1 JUMPDEST DUP3 DUP3 LT ISZERO PUSH2 0x295B JUMPI DUP4 DUP3 SWAP1 PUSH0 MSTORE PUSH1 0x20 PUSH0 KECCAK256 SWAP1 PUSH1 0x4 MUL ADD PUSH1 0x40 MLOAD DUP1 PUSH1 0x80 ADD PUSH1 0x40 MSTORE SWAP1 DUP2 PUSH0 DUP3 ADD PUSH0 SWAP1 SLOAD SWAP1 PUSH2 0x100 EXP SWAP1 DIV PUSH20 0xFFFFFFFFFFFFFFFFFFFFFFFFFFFFFFFFFFFFFFFF AND PUSH20 0xFFFFFFFFFFFFFFFFFFFFFFFFFFFFFFFFFFFFFFFF AND PUSH20 0xFFFFFFFFFFFFFFFFFFFFFFFFFFFFFFFFFFFFFFFF AND DUP2 MSTORE PUSH1 0x20 ADD PUSH1 0x1 DUP3 ADD SLOAD DUP2 MSTORE PUSH1 0x20 ADD PUSH1 0x2 DUP3 ADD DUP1 SLOAD PUSH2 0x2892 SWAP1 PUSH2 0x4934 JUMP JUMPDEST DUP1 PUSH1 0x1F ADD PUSH1 0x20 DUP1 SWAP2 DIV MUL PUSH1 0x20 ADD PUSH1 0x40 MLOAD SWAP1 DUP2 ADD PUSH1 0x40 MSTORE DUP1 SWAP3 SWAP2 SWAP1 DUP2 DUP2 MSTORE PUSH1 0x20 ADD DUP3 DUP1 SLOAD PUSH2 0x28BE SWAP1 PUSH2 0x4934 JUMP JUMPDEST DUP1 ISZERO PUSH2 0x2909 JUMPI DUP1 PUSH1 0x1F LT PUSH2 0x28E0 JUMPI PUSH2 0x100 DUP1 DUP4 SLOAD DIV MUL DUP4 MSTORE SWAP2 PUSH1 0x20 ADD SWAP2 PUSH2 0x2909 JUMP JUMPDEST DUP3 ADD SWAP2 SWAP1 PUSH0 MSTORE PUSH1 0x20 PUSH0 KECCAK256 SWAP1 JUMPDEST DUP2 SLOAD DUP2 MSTORE SWAP1 PUSH1 0x1 ADD SWAP1 PUSH1 0x20 ADD DUP1 DUP4 GT PUSH2 0x28EC JUMPI DUP3 SWAP1 SUB PUSH1 0x1F AND DUP3 ADD SWAP2 JUMPDEST POP POP POP POP POP DUP2 MSTORE PUSH1 0x20 ADD PUSH1 0x3 DUP3 ADD PUSH0 SWAP1 SLOAD SWAP1 PUSH2 0x100 EXP SWAP1 DIV PUSH1 0xFF AND PUSH1 0x5 DUP2 GT ISZERO PUSH2 0x2936 JUMPI PUSH2 0x2935 PUSH2 0x4463 JUMP JUMPDEST JUMPDEST PUSH1 0x5 DUP2 GT ISZERO PUSH2 0x2948 JUMPI PUSH2 0x2947 PUSH2 0x4463 JUMP JUMPDEST JUMPDEST DUP2 MSTORE POP POP DUP2 MSTORE PUSH1 0x20 ADD SWAP1 PUSH1 0x1 ADD SWAP1 PUSH2 0x2803 JUMP JUMPDEST POP POP POP POP DUP2 MSTORE PUSH1 0x20 ADD PUSH1 0x5 DUP3 ADD PUSH0 SWAP1 SLOAD SWAP1 PUSH2 0x100 EXP SWAP1 DIV PUSH1 0xFF AND ISZERO ISZERO ISZERO ISZERO DUP2 MSTORE PUSH1 0x20 ADD PUSH1 0x6 DUP3 ADD DUP1 SLOAD DUP1 PUSH1 0x20 MUL PUSH1 0x20 ADD PUSH1 0x40 MLOAD SWAP1 DUP2 ADD PUSH1 0x40 MSTORE DUP1 SWAP3 SWAP2 SWAP1 DUP2 DUP2 MSTORE PUSH1 0x20 ADD DUP3 DUP1 SLOAD DUP1 ISZERO PUSH2 0x29CA JUMPI PUSH1 0x20 MUL DUP3 ADD SWAP2 SWAP1 PUSH0 MSTORE PUSH1 0x20 PUSH0 KECCAK256 SWAP1 JUMPDEST DUP2 SLOAD DUP2 MSTORE PUSH1 0x20 ADD SWAP1 PUSH1 0x1 ADD SWAP1 DUP1 DUP4 GT PUSH2 0x29B6 JUMPI JUMPDEST POP POP POP POP POP DUP2 MSTORE POP POP SWAP3 POP PUSH0 DUP4 PUSH0 ADD MLOAD SUB PUSH2 0x2A2B JUMPI PUSH0 DUP4 DUP4 DUP4 PUSH1 0x40 MLOAD DUP1 PUSH1 0x40 ADD PUSH1 0x40 MSTORE DUP1 PUSH1 0x18 DUP2 MSTORE PUSH1 0x20 ADD PUSH32 0x54686520746F6B656E4944206973206E6F742065786973740000000000000000 DUP2 MSTORE POP SWAP3 SWAP2 SWAP1 SWAP5 POP SWAP5 POP SWAP5 POP SWAP5 POP SWAP5 POP PUSH2 0x2F2E JUMP JUMPDEST PUSH1 0x11 PUSH0 CALLER PUSH20 0xFFFFFFFFFFFFFFFFFFFFFFFFFFFFFFFFFFFFFFFF AND PUSH20 0xFFFFFFFFFFFFFFFFFFFFFFFFFFFFFFFFFFFFFFFF AND DUP2 MSTORE PUSH1 0x20 ADD SWAP1 DUP2 MSTORE PUSH1 0x20 ADD PUSH0 KECCAK256 PUSH0 SWAP1 SLOAD SWAP1 PUSH2 0x100 EXP SWAP1 DIV PUSH1 0xFF AND ISZERO DUP1 ISZERO PUSH2 0x2A83 JUMPI POP DUP3 PUSH1 0xA0 ADD MLOAD JUMPDEST DUP1 ISZERO PUSH2 0x2B53 JUMPI POP CALLER PUSH20 0xFFFFFFFFFFFFFFFFFFFFFFFFFFFFFFFFFFFFFFFF AND PUSH1 0x1 PUSH0 SWAP1 SLOAD SWAP1 PUSH2 0x100 EXP SWAP1 DIV PUSH20 0xFFFFFFFFFFFFFFFFFFFFFFFFFFFFFFFFFFFFFFFF AND PUSH20 0xFFFFFFFFFFFFFFFFFFFFFFFFFFFFFFFFFFFFFFFF AND PUSH4 0x6352211E DUP9 PUSH1 0x40 MLOAD DUP3 PUSH4 0xFFFFFFFF AND PUSH1 0xE0 SHL DUP2 MSTORE PUSH1 0x4 ADD PUSH2 0x2AFB SWAP2 SWAP1 PUSH2 0x4177 JUMP JUMPDEST PUSH1 0x20 PUSH1 0x40 MLOAD DUP1 DUP4 SUB DUP2 DUP7 GAS STATICCALL ISZERO DUP1 ISZERO PUSH2 0x2B16 JUMPI RETURNDATASIZE PUSH0 DUP1 RETURNDATACOPY RETURNDATASIZE PUSH0 REVERT JUMPDEST POP POP POP POP PUSH1 0x40 MLOAD RETURNDATASIZE PUSH1 0x1F NOT PUSH1 0x1F DUP3 ADD AND DUP3 ADD DUP1 PUSH1 0x40 MSTORE POP DUP2 ADD SWAP1 PUSH2 0x2B3A SWAP2 SWAP1 PUSH2 0x4D2A JUMP JUMPDEST PUSH20 0xFFFFFFFFFFFFFFFFFFFFFFFFFFFFFFFFFFFFFFFF AND EQ ISZERO JUMPDEST ISZERO PUSH2 0x2E46 JUMPI PUSH0 PUSH1 0xF PUSH0 DUP1 DUP2 MSTORE PUSH1 0x20 ADD SWAP1 DUP2 MSTORE PUSH1 0x20 ADD PUSH0 KECCAK256 DUP4 DUP4 PUSH1 0x40 MLOAD DUP1 PUSH1 0x60 ADD PUSH1 0x40 MSTORE DUP1 PUSH1 0x25 DUP2 MSTORE PUSH1 0x20 ADD PUSH2 0x5400 PUSH1 0x25 SWAP2 CODECOPY SWAP3 SWAP2 SWAP1 DUP3 PUSH1 0x40 MLOAD DUP1 PUSH1 0xE0 ADD PUSH1 0x40 MSTORE SWAP1 DUP2 PUSH0 DUP3 ADD SLOAD DUP2 MSTORE PUSH1 0x20 ADD PUSH1 0x1 DUP3 ADD SLOAD DUP2 MSTORE PUSH1 0x20 ADD PUSH1 0x2 DUP3 ADD SLOAD DUP2 MSTORE PUSH1 0x20 ADD PUSH1 0x3 DUP3 ADD DUP1 SLOAD PUSH2 0x2BC1 SWAP1 PUSH2 0x4934 JUMP JUMPDEST DUP1 PUSH1 0x1F ADD PUSH1 0x20 DUP1 SWAP2 DIV MUL PUSH1 0x20 ADD PUSH1 0x40 MLOAD SWAP1 DUP2 ADD PUSH1 0x40 MSTORE DUP1 SWAP3 SWAP2 SWAP1 DUP2 DUP2 MSTORE PUSH1 0x20 ADD DUP3 DUP1 SLOAD PUSH2 0x2BED SWAP1 PUSH2 0x4934 JUMP JUMPDEST DUP1 ISZERO PUSH2 0x2C38 JUMPI DUP1 PUSH1 0x1F LT PUSH2 0x2C0F JUMPI PUSH2 0x100 DUP1 DUP4 SLOAD DIV MUL DUP4 MSTORE SWAP2 PUSH1 0x20 ADD SWAP2 PUSH2 0x2C38 JUMP JUMPDEST DUP3 ADD SWAP2 SWAP1 PUSH0 MSTORE PUSH1 0x20 PUSH0 KECCAK256 SWAP1 JUMPDEST DUP2 SLOAD DUP2 MSTORE SWAP1 PUSH1 0x1 ADD SWAP1 PUSH1 0x20 ADD DUP1 DUP4 GT PUSH2 0x2C1B JUMPI DUP3 SWAP1 SUB PUSH1 0x1F AND DUP3 ADD SWAP2 JUMPDEST POP POP POP POP POP DUP2 MSTORE PUSH1 0x20 ADD PUSH1 0x4 DUP3 ADD DUP1 SLOAD DUP1 PUSH1 0x20 MUL PUSH1 0x20 ADD PUSH1 0x40 MLOAD SWAP1 DUP2 ADD PUSH1 0x40 MSTORE DUP1 SWAP3 SWAP2 SWAP1 DUP2 DUP2 MSTORE PUSH1 0x20 ADD PUSH0 SWAP1 JUMPDEST DUP3 DUP3 LT ISZERO PUSH2 0x2DBD JUMPI DUP4 DUP3 SWAP1 PUSH0 MSTORE PUSH1 0x20 PUSH0 KECCAK256 SWAP1 PUSH1 0x4 MUL ADD PUSH1 0x40 MLOAD DUP1 PUSH1 0x80 ADD PUSH1 0x40 MSTORE SWAP1 DUP2 PUSH0 DUP3 ADD PUSH0 SWAP1 SLOAD SWAP1 PUSH2 0x100 EXP SWAP1 DIV PUSH20 0xFFFFFFFFFFFFFFFFFFFFFFFFFFFFFFFFFFFFFFFF AND PUSH20 0xFFFFFFFFFFFFFFFFFFFFFFFFFFFFFFFFFFFFFFFF AND PUSH20 0xFFFFFFFFFFFFFFFFFFFFFFFFFFFFFFFFFFFFFFFF AND DUP2 MSTORE PUSH1 0x20 ADD PUSH1 0x1 DUP3 ADD SLOAD DUP2 MSTORE PUSH1 0x20 ADD PUSH1 0x2 DUP3 ADD DUP1 SLOAD PUSH2 0x2CF4 SWAP1 PUSH2 0x4934 JUMP JUMPDEST DUP1 PUSH1 0x1F ADD PUSH1 0x20 DUP1 SWAP2 DIV MUL PUSH1 0x20 ADD PUSH1 0x40 MLOAD SWAP1 DUP2 ADD PUSH1 0x40 MSTORE DUP1 SWAP3 SWAP2 SWAP1 DUP2 DUP2 MSTORE PUSH1 0x20 ADD DUP3 DUP1 SLOAD PUSH2 0x2D20 SWAP1 PUSH2 0x4934 JUMP JUMPDEST DUP1 ISZERO PUSH2 0x2D6B JUMPI DUP1 PUSH1 0x1F LT PUSH2 0x2D42 JUMPI PUSH2 0x100 DUP1 DUP4 SLOAD DIV MUL DUP4 MSTORE SWAP2 PUSH1 0x20 ADD SWAP2 PUSH2 0x2D6B JUMP JUMPDEST DUP3 ADD SWAP2 SWAP1 PUSH0 MSTORE PUSH1 0x20 PUSH0 KECCAK256 SWAP1 JUMPDEST DUP2 SLOAD DUP2 MSTORE SWAP1 PUSH1 0x1 ADD SWAP1 PUSH1 0x20 ADD DUP1 DUP4 GT PUSH2 0x2D4E JUMPI DUP3 SWAP1 SUB PUSH1 0x1F AND DUP3 ADD SWAP2 JUMPDEST POP POP POP POP POP DUP2 MSTORE PUSH1 0x20 ADD PUSH1 0x3 DUP3 ADD PUSH0 SWAP1 SLOAD SWAP1 PUSH2 0x100 EXP SWAP1 DIV PUSH1 0xFF AND PUSH1 0x5 DUP2 GT ISZERO PUSH2 0x2D98 JUMPI PUSH2 0x2D97 PUSH2 0x4463 JUMP JUMPDEST JUMPDEST PUSH1 0x5 DUP2 GT ISZERO PUSH2 0x2DAA JUMPI PUSH2 0x2DA9 PUSH2 0x4463 JUMP JUMPDEST JUMPDEST DUP2 MSTORE POP POP DUP2 MSTORE PUSH1 0x20 ADD SWAP1 PUSH1 0x1 ADD SWAP1 PUSH2 0x2C65 JUMP JUMPDEST POP POP POP POP DUP2 MSTORE PUSH1 0x20 ADD PUSH1 0x5 DUP3 ADD PUSH0 SWAP1 SLOAD SWAP1 PUSH2 0x100 EXP SWAP1 DIV PUSH1 0xFF AND ISZERO ISZERO ISZERO ISZERO DUP2 MSTORE PUSH1 0x20 ADD PUSH1 0x6 DUP3 ADD DUP1 SLOAD DUP1 PUSH1 0x20 MUL PUSH1 0x20 ADD PUSH1 0x40 MLOAD SWAP1 DUP2 ADD PUSH1 0x40 MSTORE DUP1 SWAP3 SWAP2 SWAP1 DUP2 DUP2 MSTORE PUSH1 0x20 ADD DUP3 DUP1 SLOAD DUP1 ISZERO PUSH2 0x2E2C JUMPI PUSH1 0x20 MUL DUP3 ADD SWAP2 SWAP1 PUSH0 MSTORE PUSH1 0x20 PUSH0 KECCAK256 SWAP1 JUMPDEST DUP2 SLOAD DUP2 MSTORE PUSH1 0x20 ADD SWAP1 PUSH1 0x1 ADD SWAP1 DUP1 DUP4 GT PUSH2 0x2E18 JUMPI JUMPDEST POP POP POP POP POP DUP2 MSTORE POP POP SWAP3 POP SWAP5 POP SWAP5 POP SWAP5 POP SWAP5 POP SWAP5 POP PUSH2 0x2F2E JUMP JUMPDEST PUSH1 0x1 DUP4 DUP5 PUSH1 0x80 ADD MLOAD PUSH1 0x1 PUSH0 SWAP1 SLOAD SWAP1 PUSH2 0x100 EXP SWAP1 DIV PUSH20 0xFFFFFFFFFFFFFFFFFFFFFFFFFFFFFFFFFFFFFFFF AND PUSH20 0xFFFFFFFFFFFFFFFFFFFFFFFFFFFFFFFFFFFFFFFF AND PUSH4 0xC87B56DD DUP11 PUSH1 0x40 MLOAD DUP3 PUSH4 0xFFFFFFFF AND PUSH1 0xE0 SHL DUP2 MSTORE PUSH1 0x4 ADD PUSH2 0x2EA8 SWAP2 SWAP1 PUSH2 0x4177 JUMP JUMPDEST PUSH0 PUSH1 0x40 MLOAD DUP1 DUP4 SUB DUP2 DUP7 GAS STATICCALL ISZERO DUP1 ISZERO PUSH2 0x2EC2 JUMPI RETURNDATASIZE PUSH0 DUP1 RETURNDATACOPY RETURNDATASIZE PUSH0 REVERT JUMPDEST POP POP POP POP PUSH1 0x40 MLOAD RETURNDATASIZE PUSH0 DUP3 RETURNDATACOPY RETURNDATASIZE PUSH1 0x1F NOT PUSH1 0x1F DUP3 ADD AND DUP3 ADD DUP1 PUSH1 0x40 MSTORE POP DUP2 ADD SWAP1 PUSH2 0x2EEA SWAP2 SWAP1 PUSH2 0x51E4 JUMP JUMPDEST PUSH1 0x40 MLOAD DUP1 PUSH1 0x40 ADD PUSH1 0x40 MSTORE DUP1 PUSH1 0x7 DUP2 MSTORE PUSH1 0x20 ADD PUSH32 0x5375636365737300000000000000000000000000000000000000000000000000 DUP2 MSTORE POP SWAP3 SWAP2 SWAP1 SWAP5 POP SWAP5 POP SWAP5 POP SWAP5 POP SWAP5 POP JUMPDEST SWAP2 SWAP4 SWAP6 SWAP1 SWAP3 SWAP5 POP JUMP JUMPDEST PUSH1 0x60 PUSH1 0xE PUSH0 DUP4 DUP2 MSTORE PUSH1 0x20 ADD SWAP1 DUP2 MSTORE PUSH1 0x20 ADD PUSH0 KECCAK256 DUP1 SLOAD DUP1 PUSH1 0x20 MUL PUSH1 0x20 ADD PUSH1 0x40 MLOAD SWAP1 DUP2 ADD PUSH1 0x40 MSTORE DUP1 SWAP3 SWAP2 SWAP1 DUP2 DUP2 MSTORE PUSH1 0x20 ADD DUP3 DUP1 SLOAD DUP1 ISZERO PUSH2 0x2F92 JUMPI PUSH1 0x20 MUL DUP3 ADD SWAP2 SWAP1 PUSH0 MSTORE PUSH1 0x20 PUSH0 KECCAK256 SWAP1 JUMPDEST DUP2 SLOAD DUP2 MSTORE PUSH1 0x20 ADD SWAP1 PUSH1 0x1 ADD SWAP1 DUP1 DUP4 GT PUSH2 0x2F7E JUMPI JUMPDEST POP POP POP POP POP SWAP1 POP SWAP2 SWAP1 POP JUMP JUMPDEST PUSH1 0x1 PUSH0 SWAP1 SLOAD SWAP1 PUSH2 0x100 EXP SWAP1 DIV PUSH20 0xFFFFFFFFFFFFFFFFFFFFFFFFFFFFFFFFFFFFFFFF AND DUP2 JUMP JUMPDEST PUSH1 0xB PUSH1 0x20 MSTORE DUP1 PUSH0 MSTORE PUSH1 0x40 PUSH0 KECCAK256 PUSH0 SWAP2 POP SWAP1 POP DUP1 SLOAD PUSH2 0x2FDF SWAP1 PUSH2 0x4934 JUMP JUMPDEST DUP1 PUSH1 0x1F ADD PUSH1 0x20 DUP1 SWAP2 DIV MUL PUSH1 0x20 ADD PUSH1 0x40 MLOAD SWAP1 DUP2 ADD PUSH1 0x40 MSTORE DUP1 SWAP3 SWAP2 SWAP1 DUP2 DUP2 MSTORE PUSH1 0x20 ADD DUP3 DUP1 SLOAD PUSH2 0x300B SWAP1 PUSH2 0x4934 JUMP JUMPDEST DUP1 ISZERO PUSH2 0x3056 JUMPI DUP1 PUSH1 0x1F LT PUSH2 0x302D JUMPI PUSH2 0x100 DUP1 DUP4 SLOAD DIV MUL DUP4 MSTORE SWAP2 PUSH1 0x20 ADD SWAP2 PUSH2 0x3056 JUMP JUMPDEST DUP3 ADD SWAP2 SWAP1 PUSH0 MSTORE PUSH1 0x20 PUSH0 KECCAK256 SWAP1 JUMPDEST DUP2 SLOAD DUP2 MSTORE SWAP1 PUSH1 0x1 ADD SWAP1 PUSH1 0x20 ADD DUP1 DUP4 GT PUSH2 0x3039 JUMPI DUP3 SWAP1 SUB PUSH1 0x1F AND DUP3 ADD SWAP2 JUMPDEST POP POP POP POP POP DUP2 JUMP JUMPDEST PUSH0 DUP1 PUSH1 0xF PUSH0 DUP6 DUP2 MSTORE PUSH1 0x20 ADD SWAP1 DUP2 MSTORE PUSH1 0x20 ADD PUSH0 KECCAK256 SWAP1 POP PUSH0 PUSH2 0x307D DUP5 PUSH2 0x36E5 JUMP JUMPDEST SWAP1 POP PUSH2 0x3087 PUSH2 0x39A1 JUMP JUMPDEST PUSH0 PUSH1 0x2 PUSH1 0x5 DUP2 GT ISZERO PUSH2 0x309C JUMPI PUSH2 0x309B PUSH2 0x4463 JUMP JUMPDEST JUMPDEST DUP4 PUSH1 0x5 DUP2 GT ISZERO PUSH2 0x30AF JUMPI PUSH2 0x30AE PUSH2 0x4463 JUMP JUMPDEST JUMPDEST SUB PUSH2 0x3185 JUMPI PUSH1 0x9 PUSH0 DUP10 PUSH20 0xFFFFFFFFFFFFFFFFFFFFFFFFFFFFFFFFFFFFFFFF AND PUSH20 0xFFFFFFFFFFFFFFFFFFFFFFFFFFFFFFFFFFFFFFFF AND DUP2 MSTORE PUSH1 0x20 ADD SWAP1 DUP2 MSTORE PUSH1 0x20 ADD PUSH0 KECCAK256 DUP1 SLOAD PUSH2 0x30FC SWAP1 PUSH2 0x4934 JUMP JUMPDEST DUP1 PUSH1 0x1F ADD PUSH1 0x20 DUP1 SWAP2 DIV MUL PUSH1 0x20 ADD PUSH1 0x40 MLOAD SWAP1 DUP2 ADD PUSH1 0x40 MSTORE DUP1 SWAP3 SWAP2 SWAP1 DUP2 DUP2 MSTORE PUSH1 0x20 ADD DUP3 DUP1 SLOAD PUSH2 0x3128 SWAP1 PUSH2 0x4934 JUMP JUMPDEST DUP1 ISZERO PUSH2 0x3173 JUMPI DUP1 PUSH1 0x1F LT PUSH2 0x314A JUMPI PUSH2 0x100 DUP1 DUP4 SLOAD DIV MUL DUP4 MSTORE SWAP2 PUSH1 0x20 ADD SWAP2 PUSH2 0x3173 JUMP JUMPDEST DUP3 ADD SWAP2 SWAP1 PUSH0 MSTORE PUSH1 0x20 PUSH0 KECCAK256 SWAP1 JUMPDEST DUP2 SLOAD DUP2 MSTORE SWAP1 PUSH1 0x1 ADD SWAP1 PUSH1 0x20 ADD DUP1 DUP4 GT PUSH2 0x3156 JUMPI DUP3 SWAP1 SUB PUSH1 0x1F AND DUP3 ADD SWAP2 JUMPDEST POP POP POP POP POP DUP3 PUSH1 0x40 ADD DUP2 SWAP1 MSTORE POP PUSH2 0x347A JUMP JUMPDEST PUSH1 0x3 PUSH1 0x5 DUP2 GT ISZERO PUSH2 0x3199 JUMPI PUSH2 0x3198 PUSH2 0x4463 JUMP JUMPDEST JUMPDEST DUP4 PUSH1 0x5 DUP2 GT ISZERO PUSH2 0x31AC JUMPI PUSH2 0x31AB PUSH2 0x4463 JUMP JUMPDEST JUMPDEST SUB PUSH2 0x3282 JUMPI PUSH1 0xA PUSH0 DUP10 PUSH20 0xFFFFFFFFFFFFFFFFFFFFFFFFFFFFFFFFFFFFFFFF AND PUSH20 0xFFFFFFFFFFFFFFFFFFFFFFFFFFFFFFFFFFFFFFFF AND DUP2 MSTORE PUSH1 0x20 ADD SWAP1 DUP2 MSTORE PUSH1 0x20 ADD PUSH0 KECCAK256 DUP1 SLOAD PUSH2 0x31F9 SWAP1 PUSH2 0x4934 JUMP JUMPDEST DUP1 PUSH1 0x1F ADD PUSH1 0x20 DUP1 SWAP2 DIV MUL PUSH1 0x20 ADD PUSH1 0x40 MLOAD SWAP1 DUP2 ADD PUSH1 0x40 MSTORE DUP1 SWAP3 SWAP2 SWAP1 DUP2 DUP2 MSTORE PUSH1 0x20 ADD DUP3 DUP1 SLOAD PUSH2 0x3225 SWAP1 PUSH2 0x4934 JUMP JUMPDEST DUP1 ISZERO PUSH2 0x3270 JUMPI DUP1 PUSH1 0x1F LT PUSH2 0x3247 JUMPI PUSH2 0x100 DUP1 DUP4 SLOAD DIV MUL DUP4 MSTORE SWAP2 PUSH1 0x20 ADD SWAP2 PUSH2 0x3270 JUMP JUMPDEST DUP3 ADD SWAP2 SWAP1 PUSH0 MSTORE PUSH1 0x20 PUSH0 KECCAK256 SWAP1 JUMPDEST DUP2 SLOAD DUP2 MSTORE SWAP1 PUSH1 0x1 ADD SWAP1 PUSH1 0x20 ADD DUP1 DUP4 GT PUSH2 0x3253 JUMPI DUP3 SWAP1 SUB PUSH1 0x1F AND DUP3 ADD SWAP2 JUMPDEST POP POP POP POP POP DUP3 PUSH1 0x40 ADD DUP2 SWAP1 MSTORE POP PUSH2 0x3479 JUMP JUMPDEST PUSH1 0x4 PUSH1 0x5 DUP2 GT ISZERO PUSH2 0x3296 JUMPI PUSH2 0x3295 PUSH2 0x4463 JUMP JUMPDEST JUMPDEST DUP4 PUSH1 0x5 DUP2 GT ISZERO PUSH2 0x32A9 JUMPI PUSH2 0x32A8 PUSH2 0x4463 JUMP JUMPDEST JUMPDEST SUB PUSH2 0x337F JUMPI PUSH1 0xB PUSH0 DUP10 PUSH20 0xFFFFFFFFFFFFFFFFFFFFFFFFFFFFFFFFFFFFFFFF AND PUSH20 0xFFFFFFFFFFFFFFFFFFFFFFFFFFFFFFFFFFFFFFFF AND DUP2 MSTORE PUSH1 0x20 ADD SWAP1 DUP2 MSTORE PUSH1 0x20 ADD PUSH0 KECCAK256 DUP1 SLOAD PUSH2 0x32F6 SWAP1 PUSH2 0x4934 JUMP JUMPDEST DUP1 PUSH1 0x1F ADD PUSH1 0x20 DUP1 SWAP2 DIV MUL PUSH1 0x20 ADD PUSH1 0x40 MLOAD SWAP1 DUP2 ADD PUSH1 0x40 MSTORE DUP1 SWAP3 SWAP2 SWAP1 DUP2 DUP2 MSTORE PUSH1 0x20 ADD DUP3 DUP1 SLOAD PUSH2 0x3322 SWAP1 PUSH2 0x4934 JUMP JUMPDEST DUP1 ISZERO PUSH2 0x336D JUMPI DUP1 PUSH1 0x1F LT PUSH2 0x3344 JUMPI PUSH2 0x100 DUP1 DUP4 SLOAD DIV MUL DUP4 MSTORE SWAP2 PUSH1 0x20 ADD SWAP2 PUSH2 0x336D JUMP JUMPDEST DUP3 ADD SWAP2 SWAP1 PUSH0 MSTORE PUSH1 0x20 PUSH0 KECCAK256 SWAP1 JUMPDEST DUP2 SLOAD DUP2 MSTORE SWAP1 PUSH1 0x1 ADD SWAP1 PUSH1 0x20 ADD DUP1 DUP4 GT PUSH2 0x3350 JUMPI DUP3 SWAP1 SUB PUSH1 0x1F AND DUP3 ADD SWAP2 JUMPDEST POP POP POP POP POP DUP3 PUSH1 0x40 ADD DUP2 SWAP1 MSTORE POP PUSH2 0x3478 JUMP JUMPDEST PUSH1 0x5 DUP1 DUP2 GT ISZERO PUSH2 0x3392 JUMPI PUSH2 0x3391 PUSH2 0x4463 JUMP JUMPDEST JUMPDEST DUP4 PUSH1 0x5 DUP2 GT ISZERO PUSH2 0x33A5 JUMPI PUSH2 0x33A4 PUSH2 0x4463 JUMP JUMPDEST JUMPDEST SUB PUSH2 0x3477 JUMPI PUSH1 0xC PUSH0 DUP10 PUSH20 0xFFFFFFFFFFFFFFFFFFFFFFFFFFFFFFFFFFFFFFFF AND PUSH20 0xFFFFFFFFFFFFFFFFFFFFFFFFFFFFFFFFFFFFFFFF AND DUP2 MSTORE PUSH1 0x20 ADD SWAP1 DUP2 MSTORE PUSH1 0x20 ADD PUSH0 KECCAK256 DUP1 SLOAD PUSH2 0x33F2 SWAP1 PUSH2 0x4934 JUMP JUMPDEST DUP1 PUSH1 0x1F ADD PUSH1 0x20 DUP1 SWAP2 DIV MUL PUSH1 0x20 ADD PUSH1 0x40 MLOAD SWAP1 DUP2 ADD PUSH1 0x40 MSTORE DUP1 SWAP3 SWAP2 SWAP1 DUP2 DUP2 MSTORE PUSH1 0x20 ADD DUP3 DUP1 SLOAD PUSH2 0x341E SWAP1 PUSH2 0x4934 JUMP JUMPDEST DUP1 ISZERO PUSH2 0x3469 JUMPI DUP1 PUSH1 0x1F LT PUSH2 0x3440 JUMPI PUSH2 0x100 DUP1 DUP4 SLOAD DIV MUL DUP4 MSTORE SWAP2 PUSH1 0x20 ADD SWAP2 PUSH2 0x3469 JUMP JUMPDEST DUP3 ADD SWAP2 SWAP1 PUSH0 MSTORE PUSH1 0x20 PUSH0 KECCAK256 SWAP1 JUMPDEST DUP2 SLOAD DUP2 MSTORE SWAP1 PUSH1 0x1 ADD SWAP1 PUSH1 0x20 ADD DUP1 DUP4 GT PUSH2 0x344C JUMPI DUP3 SWAP1 SUB PUSH1 0x1F AND DUP3 ADD SWAP2 JUMPDEST POP POP POP POP POP DUP3 PUSH1 0x40 ADD DUP2 SWAP1 MSTORE POP JUMPDEST JUMPDEST JUMPDEST JUMPDEST PUSH2 0x3487 DUP3 PUSH1 0x40 ADD MLOAD PUSH2 0x3870 JUMP JUMPDEST PUSH2 0x35C9 JUMPI DUP8 DUP3 PUSH0 ADD SWAP1 PUSH20 0xFFFFFFFFFFFFFFFFFFFFFFFFFFFFFFFFFFFFFFFF AND SWAP1 DUP2 PUSH20 0xFFFFFFFFFFFFFFFFFFFFFFFFFFFFFFFFFFFFFFFF AND DUP2 MSTORE POP POP TIMESTAMP DUP3 PUSH1 0x20 ADD DUP2 DUP2 MSTORE POP POP DUP3 DUP3 PUSH1 0x60 ADD SWAP1 PUSH1 0x5 DUP2 GT ISZERO PUSH2 0x34E4 JUMPI PUSH2 0x34E3 PUSH2 0x4463 JUMP JUMPDEST JUMPDEST SWAP1 DUP2 PUSH1 0x5 DUP2 GT ISZERO PUSH2 0x34F8 JUMPI PUSH2 0x34F7 PUSH2 0x4463 JUMP JUMPDEST JUMPDEST DUP2 MSTORE POP POP DUP4 PUSH1 0x4 ADD DUP3 SWAP1 DUP1 PUSH1 0x1 DUP2 SLOAD ADD DUP1 DUP3 SSTORE DUP1 SWAP2 POP POP PUSH1 0x1 SWAP1 SUB SWAP1 PUSH0 MSTORE PUSH1 0x20 PUSH0 KECCAK256 SWAP1 PUSH1 0x4 MUL ADD PUSH0 SWAP1 SWAP2 SWAP1 SWAP2 SWAP1 SWAP2 POP PUSH0 DUP3 ADD MLOAD DUP2 PUSH0 ADD PUSH0 PUSH2 0x100 EXP DUP2 SLOAD DUP2 PUSH20 0xFFFFFFFFFFFFFFFFFFFFFFFFFFFFFFFFFFFFFFFF MUL NOT AND SWAP1 DUP4 PUSH20 0xFFFFFFFFFFFFFFFFFFFFFFFFFFFFFFFFFFFFFFFF AND MUL OR SWAP1 SSTORE POP PUSH1 0x20 DUP3 ADD MLOAD DUP2 PUSH1 0x1 ADD SSTORE PUSH1 0x40 DUP3 ADD MLOAD DUP2 PUSH1 0x2 ADD SWAP1 DUP2 PUSH2 0x358A SWAP2 SWAP1 PUSH2 0x4AF8 JUMP JUMPDEST POP PUSH1 0x60 DUP3 ADD MLOAD DUP2 PUSH1 0x3 ADD PUSH0 PUSH2 0x100 EXP DUP2 SLOAD DUP2 PUSH1 0xFF MUL NOT AND SWAP1 DUP4 PUSH1 0x5 DUP2 GT ISZERO PUSH2 0x35B5 JUMPI PUSH2 0x35B4 PUSH2 0x4463 JUMP JUMPDEST JUMPDEST MUL OR SWAP1 SSTORE POP POP POP PUSH1 0x1 SWAP5 POP POP POP POP POP PUSH2 0x35D1 JUMP JUMPDEST PUSH0 SWAP5 POP POP POP POP POP JUMPDEST SWAP5 SWAP4 POP POP POP POP JUMP JUMPDEST PUSH1 0x3 PUSH0 SWAP1 SLOAD SWAP1 PUSH2 0x100 EXP SWAP1 DIV PUSH20 0xFFFFFFFFFFFFFFFFFFFFFFFFFFFFFFFFFFFFFFFF AND PUSH20 0xFFFFFFFFFFFFFFFFFFFFFFFFFFFFFFFFFFFFFFFF AND CALLER PUSH20 0xFFFFFFFFFFFFFFFFFFFFFFFFFFFFFFFFFFFFFFFF AND EQ PUSH2 0x3668 JUMPI PUSH1 0x40 MLOAD PUSH32 0x8C379A000000000000000000000000000000000000000000000000000000000 DUP2 MSTORE PUSH1 0x4 ADD PUSH2 0x365F SWAP1 PUSH2 0x48E9 JUMP JUMPDEST PUSH1 0x40 MLOAD DUP1 SWAP2 SUB SWAP1 REVERT JUMPDEST PUSH1 0x1 PUSH1 0x11 PUSH0 DUP4 PUSH20 0xFFFFFFFFFFFFFFFFFFFFFFFFFFFFFFFFFFFFFFFF AND PUSH20 0xFFFFFFFFFFFFFFFFFFFFFFFFFFFFFFFFFFFFFFFF AND DUP2 MSTORE PUSH1 0x20 ADD SWAP1 DUP2 MSTORE PUSH1 0x20 ADD PUSH0 KECCAK256 PUSH0 PUSH2 0x100 EXP DUP2 SLOAD DUP2 PUSH1 0xFF MUL NOT AND SWAP1 DUP4 ISZERO ISZERO MUL OR SWAP1 SSTORE POP POP JUMP JUMPDEST PUSH1 0x2 PUSH0 SWAP1 SLOAD SWAP1 PUSH2 0x100 EXP SWAP1 DIV PUSH20 0xFFFFFFFFFFFFFFFFFFFFFFFFFFFFFFFFFFFFFFFF AND DUP2 JUMP JUMPDEST PUSH0 PUSH2 0x3725 DUP3 PUSH1 0x40 MLOAD DUP1 PUSH1 0x40 ADD PUSH1 0x40 MSTORE DUP1 PUSH1 0x8 DUP2 MSTORE PUSH1 0x20 ADD PUSH32 0x50726F6475636572000000000000000000000000000000000000000000000000 DUP2 MSTORE POP PUSH2 0x387C JUMP JUMPDEST ISZERO PUSH2 0x3733 JUMPI PUSH1 0x1 SWAP1 POP PUSH2 0x386B JUMP JUMPDEST PUSH2 0x3772 DUP3 PUSH1 0x40 MLOAD DUP1 PUSH1 0x40 ADD PUSH1 0x40 MSTORE DUP1 PUSH1 0x8 DUP2 MSTORE PUSH1 0x20 ADD PUSH32 0x52657461696C6572000000000000000000000000000000000000000000000000 DUP2 MSTORE POP PUSH2 0x387C JUMP JUMPDEST ISZERO PUSH2 0x3780 JUMPI PUSH1 0x4 SWAP1 POP PUSH2 0x386B JUMP JUMPDEST PUSH2 0x37BF DUP3 PUSH1 0x40 MLOAD DUP1 PUSH1 0x40 ADD PUSH1 0x40 MSTORE DUP1 PUSH1 0x8 DUP2 MSTORE PUSH1 0x20 ADD PUSH32 0x437573746F6D6572000000000000000000000000000000000000000000000000 DUP2 MSTORE POP PUSH2 0x387C JUMP JUMPDEST ISZERO PUSH2 0x37CD JUMPI PUSH1 0x5 SWAP1 POP PUSH2 0x386B JUMP JUMPDEST PUSH2 0x380C DUP3 PUSH1 0x40 MLOAD DUP1 PUSH1 0x40 ADD PUSH1 0x40 MSTORE DUP1 PUSH1 0xA DUP2 MSTORE PUSH1 0x20 ADD PUSH32 0x57686F6C6573616C657200000000000000000000000000000000000000000000 DUP2 MSTORE POP PUSH2 0x387C JUMP JUMPDEST ISZERO PUSH2 0x381A JUMPI PUSH1 0x3 SWAP1 POP PUSH2 0x386B JUMP JUMPDEST PUSH2 0x3859 DUP3 PUSH1 0x40 MLOAD DUP1 PUSH1 0x40 ADD PUSH1 0x40 MSTORE DUP1 PUSH1 0x6 DUP2 MSTORE PUSH1 0x20 ADD PUSH32 0x4465616C65720000000000000000000000000000000000000000000000000000 DUP2 MSTORE POP PUSH2 0x387C JUMP JUMPDEST ISZERO PUSH2 0x3867 JUMPI PUSH1 0x2 SWAP1 POP PUSH2 0x386B JUMP JUMPDEST PUSH0 SWAP1 POP JUMPDEST SWAP2 SWAP1 POP JUMP JUMPDEST PUSH0 DUP1 DUP3 MLOAD EQ SWAP1 POP SWAP2 SWAP1 POP JUMP JUMPDEST PUSH0 DUP2 PUSH1 0x40 MLOAD PUSH1 0x20 ADD PUSH2 0x388E SWAP2 SWAP1 PUSH2 0x53E9 JUMP JUMPDEST PUSH1 0x40 MLOAD PUSH1 0x20 DUP2 DUP4 SUB SUB DUP2 MSTORE SWAP1 PUSH1 0x40 MSTORE DUP1 MLOAD SWAP1 PUSH1 0x20 ADD KECCAK256 DUP4 PUSH1 0x40 MLOAD PUSH1 0x20 ADD PUSH2 0x38B5 SWAP2 SWAP1 PUSH2 0x53E9 JUMP JUMPDEST PUSH1 0x40 MLOAD PUSH1 0x20 DUP2 DUP4 SUB SUB DUP2 MSTORE SWAP1 PUSH1 0x40 MSTORE DUP1 MLOAD SWAP1 PUSH1 0x20 ADD KECCAK256 EQ SWAP1 POP SWAP3 SWAP2 POP POP JUMP JUMPDEST DUP3 DUP1 SLOAD DUP3 DUP3 SSTORE SWAP1 PUSH0 MSTORE PUSH1 0x20 PUSH0 KECCAK256 SWAP1 DUP2 ADD SWAP3 DUP3 ISZERO PUSH2 0x390E JUMPI SWAP2 PUSH1 0x20 MUL DUP3 ADD JUMPDEST DUP3 DUP2 GT ISZERO PUSH2 0x390D JUMPI DUP3 MLOAD DUP3 SSTORE SWAP2 PUSH1 0x20 ADD SWAP2 SWAP1 PUSH1 0x1 ADD SWAP1 PUSH2 0x38F2 JUMP JUMPDEST JUMPDEST POP SWAP1 POP PUSH2 0x391B SWAP2 SWAP1 PUSH2 0x39EE JUMP JUMPDEST POP SWAP1 JUMP JUMPDEST PUSH1 0x40 MLOAD DUP1 PUSH2 0x120 ADD PUSH1 0x40 MSTORE DUP1 PUSH0 DUP2 MSTORE PUSH1 0x20 ADD PUSH0 DUP2 MSTORE PUSH1 0x20 ADD PUSH0 DUP2 MSTORE PUSH1 0x20 ADD PUSH1 0x60 DUP2 MSTORE PUSH1 0x20 ADD PUSH0 DUP2 MSTORE PUSH1 0x20 ADD PUSH1 0x60 DUP2 MSTORE PUSH1 0x20 ADD PUSH0 DUP2 MSTORE PUSH1 0x20 ADD PUSH1 0x60 DUP2 MSTORE PUSH1 0x20 ADD PUSH1 0x60 DUP2 MSTORE POP SWAP1 JUMP JUMPDEST PUSH1 0x40 MLOAD DUP1 PUSH1 0xE0 ADD PUSH1 0x40 MSTORE DUP1 PUSH0 DUP2 MSTORE PUSH1 0x20 ADD PUSH0 DUP2 MSTORE PUSH1 0x20 ADD PUSH0 DUP2 MSTORE PUSH1 0x20 ADD PUSH1 0x60 DUP2 MSTORE PUSH1 0x20 ADD PUSH1 0x60 DUP2 MSTORE PUSH1 0x20 ADD PUSH0 ISZERO ISZERO DUP2 MSTORE PUSH1 0x20 ADD PUSH1 0x60 DUP2 MSTORE POP SWAP1 JUMP JUMPDEST PUSH1 0x40 MLOAD DUP1 PUSH1 0x80 ADD PUSH1 0x40 MSTORE DUP1 PUSH0 PUSH20 0xFFFFFFFFFFFFFFFFFFFFFFFFFFFFFFFFFFFFFFFF AND DUP2 MSTORE PUSH1 0x20 ADD PUSH0 DUP2 MSTORE PUSH1 0x20 ADD PUSH1 0x60 DUP2 MSTORE PUSH1 0x20 ADD PUSH0 PUSH1 0x5 DUP2 GT ISZERO PUSH2 0x39E8 JUMPI PUSH2 0x39E7 PUSH2 0x4463 JUMP JUMPDEST JUMPDEST DUP2 MSTORE POP SWAP1 JUMP JUMPDEST JUMPDEST DUP1 DUP3 GT ISZERO PUSH2 0x3A05 JUMPI PUSH0 DUP2 PUSH0 SWAP1 SSTORE POP PUSH1 0x1 ADD PUSH2 0x39EF JUMP JUMPDEST POP SWAP1 JUMP JUMPDEST PUSH0 PUSH1 0x40 MLOAD SWAP1 POP SWAP1 JUMP JUMPDEST PUSH0 DUP1 REVERT JUMPDEST PUSH0 DUP1 REVERT JUMPDEST PUSH0 PUSH20 0xFFFFFFFFFFFFFFFFFFFFFFFFFFFFFFFFFFFFFFFF DUP3 AND SWAP1 POP SWAP2 SWAP1 POP JUMP JUMPDEST PUSH0 PUSH2 0x3A43 DUP3 PUSH2 0x3A1A JUMP JUMPDEST SWAP1 POP SWAP2 SWAP1 POP JUMP JUMPDEST PUSH2 0x3A53 DUP2 PUSH2 0x3A39 JUMP JUMPDEST DUP2 EQ PUSH2 0x3A5D JUMPI PUSH0 DUP1 REVERT JUMPDEST POP JUMP JUMPDEST PUSH0 DUP2 CALLDATALOAD SWAP1 POP PUSH2 0x3A6E DUP2 PUSH2 0x3A4A JUMP JUMPDEST SWAP3 SWAP2 POP POP JUMP JUMPDEST PUSH0 DUP1 REVERT JUMPDEST PUSH0 DUP1 REVERT JUMPDEST PUSH0 PUSH1 0x1F NOT PUSH1 0x1F DUP4 ADD AND SWAP1 POP SWAP2 SWAP1 POP JUMP JUMPDEST PUSH32 0x4E487B7100000000000000000000000000000000000000000000000000000000 PUSH0 MSTORE PUSH1 0x41 PUSH1 0x4 MSTORE PUSH1 0x24 PUSH0 REVERT JUMPDEST PUSH2 0x3AC2 DUP3 PUSH2 0x3A7C JUMP JUMPDEST DUP2 ADD DUP2 DUP2 LT PUSH8 0xFFFFFFFFFFFFFFFF DUP3 GT OR ISZERO PUSH2 0x3AE1 JUMPI PUSH2 0x3AE0 PUSH2 0x3A8C JUMP JUMPDEST JUMPDEST DUP1 PUSH1 0x40 MSTORE POP POP POP JUMP JUMPDEST PUSH0 PUSH2 0x3AF3 PUSH2 0x3A09 JUMP JUMPDEST SWAP1 POP PUSH2 0x3AFF DUP3 DUP3 PUSH2 0x3AB9 JUMP JUMPDEST SWAP2 SWAP1 POP JUMP JUMPDEST PUSH0 PUSH8 0xFFFFFFFFFFFFFFFF DUP3 GT ISZERO PUSH2 0x3B1E JUMPI PUSH2 0x3B1D PUSH2 0x3A8C JUMP JUMPDEST JUMPDEST PUSH2 0x3B27 DUP3 PUSH2 0x3A7C JUMP JUMPDEST SWAP1 POP PUSH1 0x20 DUP2 ADD SWAP1 POP SWAP2 SWAP1 POP JUMP JUMPDEST DUP3 DUP2 DUP4 CALLDATACOPY PUSH0 DUP4 DUP4 ADD MSTORE POP POP POP JUMP JUMPDEST PUSH0 PUSH2 0x3B54 PUSH2 0x3B4F DUP5 PUSH2 0x3B04 JUMP JUMPDEST PUSH2 0x3AEA JUMP JUMPDEST SWAP1 POP DUP3 DUP2 MSTORE PUSH1 0x20 DUP2 ADD DUP5 DUP5 DUP5 ADD GT ISZERO PUSH2 0x3B70 JUMPI PUSH2 0x3B6F PUSH2 0x3A78 JUMP JUMPDEST JUMPDEST PUSH2 0x3B7B DUP5 DUP3 DUP6 PUSH2 0x3B34 JUMP JUMPDEST POP SWAP4 SWAP3 POP POP POP JUMP JUMPDEST PUSH0 DUP3 PUSH1 0x1F DUP4 ADD SLT PUSH2 0x3B97 JUMPI PUSH2 0x3B96 PUSH2 0x3A74 JUMP JUMPDEST JUMPDEST DUP2 CALLDATALOAD PUSH2 0x3BA7 DUP5 DUP3 PUSH1 0x20 DUP7 ADD PUSH2 0x3B42 JUMP JUMPDEST SWAP2 POP POP SWAP3 SWAP2 POP POP JUMP JUMPDEST PUSH0 DUP1 PUSH1 0x40 DUP4 DUP6 SUB SLT ISZERO PUSH2 0x3BC6 JUMPI PUSH2 0x3BC5 PUSH2 0x3A12 JUMP JUMPDEST JUMPDEST PUSH0 PUSH2 0x3BD3 DUP6 DUP3 DUP7 ADD PUSH2 0x3A60 JUMP JUMPDEST SWAP3 POP POP PUSH1 0x20 DUP4 ADD CALLDATALOAD PUSH8 0xFFFFFFFFFFFFFFFF DUP2 GT ISZERO PUSH2 0x3BF4 JUMPI PUSH2 0x3BF3 PUSH2 0x3A16 JUMP JUMPDEST JUMPDEST PUSH2 0x3C00 DUP6 DUP3 DUP7 ADD PUSH2 0x3B83 JUMP JUMPDEST SWAP2 POP POP SWAP3 POP SWAP3 SWAP1 POP JUMP JUMPDEST PUSH0 PUSH1 0x20 DUP3 DUP5 SUB SLT ISZERO PUSH2 0x3C1F JUMPI PUSH2 0x3C1E PUSH2 0x3A12 JUMP JUMPDEST JUMPDEST PUSH0 PUSH2 0x3C2C DUP5 DUP3 DUP6 ADD PUSH2 0x3A60 JUMP JUMPDEST SWAP2 POP POP SWAP3 SWAP2 POP POP JUMP JUMPDEST PUSH0 DUP2 MLOAD SWAP1 POP SWAP2 SWAP1 POP JUMP JUMPDEST PUSH0 DUP3 DUP3 MSTORE PUSH1 0x20 DUP3 ADD SWAP1 POP SWAP3 SWAP2 POP POP JUMP JUMPDEST PUSH0 JUMPDEST DUP4 DUP2 LT ISZERO PUSH2 0x3C6C JUMPI DUP1 DUP3 ADD MLOAD DUP2 DUP5 ADD MSTORE PUSH1 0x20 DUP2 ADD SWAP1 POP PUSH2 0x3C51 JUMP JUMPDEST PUSH0 DUP5 DUP5 ADD MSTORE POP POP POP POP JUMP JUMPDEST PUSH0 PUSH2 0x3C81 DUP3 PUSH2 0x3C35 JUMP JUMPDEST PUSH2 0x3C8B DUP2 DUP6 PUSH2 0x3C3F JUMP JUMPDEST SWAP4 POP PUSH2 0x3C9B DUP2 DUP6 PUSH1 0x20 DUP7 ADD PUSH2 0x3C4F JUMP JUMPDEST PUSH2 0x3CA4 DUP2 PUSH2 0x3A7C JUMP JUMPDEST DUP5 ADD SWAP2 POP POP SWAP3 SWAP2 POP POP JUMP JUMPDEST PUSH0 PUSH1 0x20 DUP3 ADD SWAP1 POP DUP2 DUP2 SUB PUSH0 DUP4 ADD MSTORE PUSH2 0x3CC7 DUP2 DUP5 PUSH2 0x3C77 JUMP JUMPDEST SWAP1 POP SWAP3 SWAP2 POP POP JUMP JUMPDEST PUSH0 DUP2 SWAP1 POP SWAP2 SWAP1 POP JUMP JUMPDEST PUSH2 0x3CE1 DUP2 PUSH2 0x3CCF JUMP JUMPDEST DUP2 EQ PUSH2 0x3CEB JUMPI PUSH0 DUP1 REVERT JUMPDEST POP JUMP JUMPDEST PUSH0 DUP2 CALLDATALOAD SWAP1 POP PUSH2 0x3CFC DUP2 PUSH2 0x3CD8 JUMP JUMPDEST SWAP3 SWAP2 POP POP JUMP JUMPDEST PUSH0 PUSH8 0xFFFFFFFFFFFFFFFF DUP3 GT ISZERO PUSH2 0x3D1C JUMPI PUSH2 0x3D1B PUSH2 0x3A8C JUMP JUMPDEST JUMPDEST PUSH1 0x20 DUP3 MUL SWAP1 POP PUSH1 0x20 DUP2 ADD SWAP1 POP SWAP2 SWAP1 POP JUMP JUMPDEST PUSH0 DUP1 REVERT JUMPDEST PUSH0 PUSH2 0x3D43 PUSH2 0x3D3E DUP5 PUSH2 0x3D02 JUMP JUMPDEST PUSH2 0x3AEA JUMP JUMPDEST SWAP1 POP DUP1 DUP4 DUP3 MSTORE PUSH1 0x20 DUP3 ADD SWAP1 POP PUSH1 0x20 DUP5 MUL DUP4 ADD DUP6 DUP2 GT ISZERO PUSH2 0x3D66 JUMPI PUSH2 0x3D65 PUSH2 0x3D2D JUMP JUMPDEST JUMPDEST DUP4 JUMPDEST DUP2 DUP2 LT ISZERO PUSH2 0x3D8F JUMPI DUP1 PUSH2 0x3D7B DUP9 DUP3 PUSH2 0x3CEE JUMP JUMPDEST DUP5 MSTORE PUSH1 0x20 DUP5 ADD SWAP4 POP POP PUSH1 0x20 DUP2 ADD SWAP1 POP PUSH2 0x3D68 JUMP JUMPDEST POP POP POP SWAP4 SWAP3 POP POP POP JUMP JUMPDEST PUSH0 DUP3 PUSH1 0x1F DUP4 ADD SLT PUSH2 0x3DAD JUMPI PUSH2 0x3DAC PUSH2 0x3A74 JUMP JUMPDEST JUMPDEST DUP2 CALLDATALOAD PUSH2 0x3DBD DUP5 DUP3 PUSH1 0x20 DUP7 ADD PUSH2 0x3D31 JUMP JUMPDEST SWAP2 POP POP SWAP3 SWAP2 POP POP JUMP JUMPDEST PUSH0 DUP1 PUSH0 PUSH1 0x60 DUP5 DUP7 SUB SLT ISZERO PUSH2 0x3DDD JUMPI PUSH2 0x3DDC PUSH2 0x3A12 JUMP JUMPDEST JUMPDEST PUSH0 PUSH2 0x3DEA DUP7 DUP3 DUP8 ADD PUSH2 0x3CEE JUMP JUMPDEST SWAP4 POP POP PUSH1 0x20 DUP5 ADD CALLDATALOAD PUSH8 0xFFFFFFFFFFFFFFFF DUP2 GT ISZERO PUSH2 0x3E0B JUMPI PUSH2 0x3E0A PUSH2 0x3A16 JUMP JUMPDEST JUMPDEST PUSH2 0x3E17 DUP7 DUP3 DUP8 ADD PUSH2 0x3D99 JUMP JUMPDEST SWAP3 POP POP PUSH1 0x40 DUP5 ADD CALLDATALOAD PUSH8 0xFFFFFFFFFFFFFFFF DUP2 GT ISZERO PUSH2 0x3E38 JUMPI PUSH2 0x3E37 PUSH2 0x3A16 JUMP JUMPDEST JUMPDEST PUSH2 0x3E44 DUP7 DUP3 DUP8 ADD PUSH2 0x3D99 JUMP JUMPDEST SWAP2 POP POP SWAP3 POP SWAP3 POP SWAP3 JUMP JUMPDEST PUSH0 DUP1 PUSH1 0x40 DUP4 DUP6 SUB SLT ISZERO PUSH2 0x3E64 JUMPI PUSH2 0x3E63 PUSH2 0x3A12 JUMP JUMPDEST JUMPDEST PUSH0 PUSH2 0x3E71 DUP6 DUP3 DUP7 ADD PUSH2 0x3A60 JUMP JUMPDEST SWAP3 POP POP PUSH1 0x20 DUP4 ADD CALLDATALOAD PUSH8 0xFFFFFFFFFFFFFFFF DUP2 GT ISZERO PUSH2 0x3E92 JUMPI PUSH2 0x3E91 PUSH2 0x3A16 JUMP JUMPDEST JUMPDEST PUSH2 0x3E9E DUP6 DUP3 DUP7 ADD PUSH2 0x3D99 JUMP JUMPDEST SWAP2 POP POP SWAP3 POP SWAP3 SWAP1 POP JUMP JUMPDEST PUSH0 DUP1 PUSH0 PUSH1 0x60 DUP5 DUP7 SUB SLT ISZERO PUSH2 0x3EBF JUMPI PUSH2 0x3EBE PUSH2 0x3A12 JUMP JUMPDEST JUMPDEST PUSH0 PUSH2 0x3ECC DUP7 DUP3 DUP8 ADD PUSH2 0x3A60 JUMP JUMPDEST SWAP4 POP POP PUSH1 0x20 PUSH2 0x3EDD DUP7 DUP3 DUP8 ADD PUSH2 0x3A60 JUMP JUMPDEST SWAP3 POP POP PUSH1 0x40 PUSH2 0x3EEE DUP7 DUP3 DUP8 ADD PUSH2 0x3CEE JUMP JUMPDEST SWAP2 POP POP SWAP3 POP SWAP3 POP SWAP3 JUMP JUMPDEST PUSH0 DUP1 PUSH0 DUP1 PUSH1 0x80 DUP6 DUP8 SUB SLT ISZERO PUSH2 0x3F10 JUMPI PUSH2 0x3F0F PUSH2 0x3A12 JUMP JUMPDEST JUMPDEST PUSH0 PUSH2 0x3F1D DUP8 DUP3 DUP9 ADD PUSH2 0x3A60 JUMP JUMPDEST SWAP5 POP POP PUSH1 0x20 PUSH2 0x3F2E DUP8 DUP3 DUP9 ADD PUSH2 0x3CEE JUMP JUMPDEST SWAP4 POP POP PUSH1 0x40 DUP6 ADD CALLDATALOAD PUSH8 0xFFFFFFFFFFFFFFFF DUP2 GT ISZERO PUSH2 0x3F4F JUMPI PUSH2 0x3F4E PUSH2 0x3A16 JUMP JUMPDEST JUMPDEST PUSH2 0x3F5B DUP8 DUP3 DUP9 ADD PUSH2 0x3D99 JUMP JUMPDEST SWAP3 POP POP PUSH1 0x60 DUP6 ADD CALLDATALOAD PUSH8 0xFFFFFFFFFFFFFFFF DUP2 GT ISZERO PUSH2 0x3F7C JUMPI PUSH2 0x3F7B PUSH2 0x3A16 JUMP JUMPDEST JUMPDEST PUSH2 0x3F88 DUP8 DUP3 DUP9 ADD PUSH2 0x3D99 JUMP JUMPDEST SWAP2 POP POP SWAP3 SWAP6 SWAP2 SWAP5 POP SWAP3 POP JUMP JUMPDEST PUSH0 DUP1 PUSH1 0x40 DUP4 DUP6 SUB SLT ISZERO PUSH2 0x3FAA JUMPI PUSH2 0x3FA9 PUSH2 0x3A12 JUMP JUMPDEST JUMPDEST PUSH0 PUSH2 0x3FB7 DUP6 DUP3 DUP7 ADD PUSH2 0x3CEE JUMP JUMPDEST SWAP3 POP POP PUSH1 0x20 DUP4 ADD CALLDATALOAD PUSH8 0xFFFFFFFFFFFFFFFF DUP2 GT ISZERO PUSH2 0x3FD8 JUMPI PUSH2 0x3FD7 PUSH2 0x3A16 JUMP JUMPDEST JUMPDEST PUSH2 0x3FE4 DUP6 DUP3 DUP7 ADD PUSH2 0x3D99 JUMP JUMPDEST SWAP2 POP POP SWAP3 POP SWAP3 SWAP1 POP JUMP JUMPDEST PUSH0 DUP1 PUSH0 PUSH1 0x60 DUP5 DUP7 SUB SLT ISZERO PUSH2 0x4005 JUMPI PUSH2 0x4004 PUSH2 0x3A12 JUMP JUMPDEST JUMPDEST PUSH0 PUSH2 0x4012 DUP7 DUP3 DUP8 ADD PUSH2 0x3A60 JUMP JUMPDEST SWAP4 POP POP PUSH1 0x20 PUSH2 0x4023 DUP7 DUP3 DUP8 ADD PUSH2 0x3CEE JUMP JUMPDEST SWAP3 POP POP PUSH1 0x40 PUSH2 0x4034 DUP7 DUP3 DUP8 ADD PUSH2 0x3CEE JUMP JUMPDEST SWAP2 POP POP SWAP3 POP SWAP3 POP SWAP3 JUMP JUMPDEST PUSH0 PUSH1 0x20 DUP3 DUP5 SUB SLT ISZERO PUSH2 0x4053 JUMPI PUSH2 0x4052 PUSH2 0x3A12 JUMP JUMPDEST JUMPDEST PUSH0 PUSH2 0x4060 DUP5 DUP3 DUP6 ADD PUSH2 0x3CEE JUMP JUMPDEST SWAP2 POP POP SWAP3 SWAP2 POP POP JUMP JUMPDEST PUSH0 DUP2 MLOAD SWAP1 POP SWAP2 SWAP1 POP JUMP JUMPDEST PUSH0 DUP3 DUP3 MSTORE PUSH1 0x20 DUP3 ADD SWAP1 POP SWAP3 SWAP2 POP POP JUMP JUMPDEST PUSH0 DUP2 SWAP1 POP PUSH1 0x20 DUP3 ADD SWAP1 POP SWAP2 SWAP1 POP JUMP JUMPDEST PUSH2 0x409B DUP2 PUSH2 0x3CCF JUMP JUMPDEST DUP3 MSTORE POP POP JUMP JUMPDEST PUSH0 PUSH2 0x40AC DUP4 DUP4 PUSH2 0x4092 JUMP JUMPDEST PUSH1 0x20 DUP4 ADD SWAP1 POP SWAP3 SWAP2 POP POP JUMP JUMPDEST PUSH0 PUSH1 0x20 DUP3 ADD SWAP1 POP SWAP2 SWAP1 POP JUMP JUMPDEST PUSH0 PUSH2 0x40CE DUP3 PUSH2 0x4069 JUMP JUMPDEST PUSH2 0x40D8 DUP2 DUP6 PUSH2 0x4073 JUMP JUMPDEST SWAP4 POP PUSH2 0x40E3 DUP4 PUSH2 0x4083 JUMP JUMPDEST DUP1 PUSH0 JUMPDEST DUP4 DUP2 LT ISZERO PUSH2 0x4113 JUMPI DUP2 MLOAD PUSH2 0x40FA DUP9 DUP3 PUSH2 0x40A1 JUMP JUMPDEST SWAP8 POP PUSH2 0x4105 DUP4 PUSH2 0x40B8 JUMP JUMPDEST SWAP3 POP POP PUSH1 0x1 DUP2 ADD SWAP1 POP PUSH2 0x40E6 JUMP JUMPDEST POP DUP6 SWAP4 POP POP POP POP SWAP3 SWAP2 POP POP JUMP JUMPDEST PUSH0 PUSH1 0x20 DUP3 ADD SWAP1 POP DUP2 DUP2 SUB PUSH0 DUP4 ADD MSTORE PUSH2 0x4138 DUP2 DUP5 PUSH2 0x40C4 JUMP JUMPDEST SWAP1 POP SWAP3 SWAP2 POP POP JUMP JUMPDEST PUSH2 0x4149 DUP2 PUSH2 0x3A39 JUMP JUMPDEST DUP3 MSTORE POP POP JUMP JUMPDEST PUSH0 PUSH1 0x20 DUP3 ADD SWAP1 POP PUSH2 0x4162 PUSH0 DUP4 ADD DUP5 PUSH2 0x4140 JUMP JUMPDEST SWAP3 SWAP2 POP POP JUMP JUMPDEST PUSH2 0x4171 DUP2 PUSH2 0x3CCF JUMP JUMPDEST DUP3 MSTORE POP POP JUMP JUMPDEST PUSH0 PUSH1 0x20 DUP3 ADD SWAP1 POP PUSH2 0x418A PUSH0 DUP4 ADD DUP5 PUSH2 0x4168 JUMP JUMPDEST SWAP3 SWAP2 POP POP JUMP JUMPDEST PUSH0 DUP2 SWAP1 POP SWAP2 SWAP1 POP JUMP JUMPDEST PUSH0 PUSH2 0x41B3 PUSH2 0x41AE PUSH2 0x41A9 DUP5 PUSH2 0x3A1A JUMP JUMPDEST PUSH2 0x4190 JUMP JUMPDEST PUSH2 0x3A1A JUMP JUMPDEST SWAP1 POP SWAP2 SWAP1 POP JUMP JUMPDEST PUSH0 PUSH2 0x41C4 DUP3 PUSH2 0x4199 JUMP JUMPDEST SWAP1 POP SWAP2 SWAP1 POP JUMP JUMPDEST PUSH0 PUSH2 0x41D5 DUP3 PUSH2 0x41BA JUMP JUMPDEST SWAP1 POP SWAP2 SWAP1 POP JUMP JUMPDEST PUSH2 0x41E5 DUP2 PUSH2 0x41CB JUMP JUMPDEST DUP3 MSTORE POP POP JUMP JUMPDEST PUSH0 PUSH1 0x20 DUP3 ADD SWAP1 POP PUSH2 0x41FE PUSH0 DUP4 ADD DUP5 PUSH2 0x41DC JUMP JUMPDEST SWAP3 SWAP2 POP POP JUMP JUMPDEST PUSH0 DUP2 ISZERO ISZERO SWAP1 POP SWAP2 SWAP1 POP JUMP JUMPDEST PUSH2 0x4218 DUP2 PUSH2 0x4204 JUMP JUMPDEST DUP3 MSTORE POP POP JUMP JUMPDEST PUSH0 DUP3 DUP3 MSTORE PUSH1 0x20 DUP3 ADD SWAP1 POP SWAP3 SWAP2 POP POP JUMP JUMPDEST PUSH0 PUSH2 0x4238 DUP3 PUSH2 0x3C35 JUMP JUMPDEST PUSH2 0x4242 DUP2 DUP6 PUSH2 0x421E JUMP JUMPDEST SWAP4 POP PUSH2 0x4252 DUP2 DUP6 PUSH1 0x20 DUP7 ADD PUSH2 0x3C4F JUMP JUMPDEST PUSH2 0x425B DUP2 PUSH2 0x3A7C JUMP JUMPDEST DUP5 ADD SWAP2 POP POP SWAP3 SWAP2 POP POP JUMP JUMPDEST PUSH0 DUP3 DUP3 MSTORE PUSH1 0x20 DUP3 ADD SWAP1 POP SWAP3 SWAP2 POP POP JUMP JUMPDEST PUSH0 PUSH2 0x4280 DUP3 PUSH2 0x4069 JUMP JUMPDEST PUSH2 0x428A DUP2 DUP6 PUSH2 0x4266 JUMP JUMPDEST SWAP4 POP PUSH2 0x4295 DUP4 PUSH2 0x4083 JUMP JUMPDEST DUP1 PUSH0 JUMPDEST DUP4 DUP2 LT ISZERO PUSH2 0x42C5 JUMPI DUP2 MLOAD PUSH2 0x42AC DUP9 DUP3 PUSH2 0x40A1 JUMP JUMPDEST SWAP8 POP PUSH2 0x42B7 DUP4 PUSH2 0x40B8 JUMP JUMPDEST SWAP3 POP POP PUSH1 0x1 DUP2 ADD SWAP1 POP PUSH2 0x4298 JUMP JUMPDEST POP DUP6 SWAP4 POP POP POP POP SWAP3 SWAP2 POP POP JUMP JUMPDEST PUSH0 PUSH2 0x120 DUP4 ADD PUSH0 DUP4 ADD MLOAD PUSH2 0x42E8 PUSH0 DUP7 ADD DUP3 PUSH2 0x4092 JUMP JUMPDEST POP PUSH1 0x20 DUP4 ADD MLOAD PUSH2 0x42FB PUSH1 0x20 DUP7 ADD DUP3 PUSH2 0x4092 JUMP JUMPDEST POP PUSH1 0x40 DUP4 ADD MLOAD PUSH2 0x430E PUSH1 0x40 DUP7 ADD DUP3 PUSH2 0x4092 JUMP JUMPDEST POP PUSH1 0x60 DUP4 ADD MLOAD DUP5 DUP3 SUB PUSH1 0x60 DUP7 ADD MSTORE PUSH2 0x4326 DUP3 DUP3 PUSH2 0x422E JUMP JUMPDEST SWAP2 POP POP PUSH1 0x80 DUP4 ADD MLOAD PUSH2 0x433B PUSH1 0x80 DUP7 ADD DUP3 PUSH2 0x4092 JUMP JUMPDEST POP PUSH1 0xA0 DUP4 ADD MLOAD DUP5 DUP3 SUB PUSH1 0xA0 DUP7 ADD MSTORE PUSH2 0x4353 DUP3 DUP3 PUSH2 0x422E JUMP JUMPDEST SWAP2 POP POP PUSH1 0xC0 DUP4 ADD MLOAD PUSH2 0x4368 PUSH1 0xC0 DUP7 ADD DUP3 PUSH2 0x4092 JUMP JUMPDEST POP PUSH1 0xE0 DUP4 ADD MLOAD DUP5 DUP3 SUB PUSH1 0xE0 DUP7 ADD MSTORE PUSH2 0x4380 DUP3 DUP3 PUSH2 0x4276 JUMP JUMPDEST SWAP2 POP POP PUSH2 0x100 DUP4 ADD MLOAD DUP5 DUP3 SUB PUSH2 0x100 DUP7 ADD MSTORE PUSH2 0x439C DUP3 DUP3 PUSH2 0x4276 JUMP JUMPDEST SWAP2 POP POP DUP1 SWAP2 POP POP SWAP3 SWAP2 POP POP JUMP JUMPDEST PUSH0 PUSH1 0xC0 DUP3 ADD SWAP1 POP PUSH2 0x43BC PUSH0 DUP4 ADD DUP10 PUSH2 0x420F JUMP JUMPDEST DUP2 DUP2 SUB PUSH1 0x20 DUP4 ADD MSTORE PUSH2 0x43CE DUP2 DUP9 PUSH2 0x3C77 JUMP JUMPDEST SWAP1 POP DUP2 DUP2 SUB PUSH1 0x40 DUP4 ADD MSTORE PUSH2 0x43E2 DUP2 DUP8 PUSH2 0x42D2 JUMP JUMPDEST SWAP1 POP DUP2 DUP2 SUB PUSH1 0x60 DUP4 ADD MSTORE PUSH2 0x43F6 DUP2 DUP7 PUSH2 0x40C4 JUMP JUMPDEST SWAP1 POP DUP2 DUP2 SUB PUSH1 0x80 DUP4 ADD MSTORE PUSH2 0x440A DUP2 DUP6 PUSH2 0x40C4 JUMP JUMPDEST SWAP1 POP DUP2 DUP2 SUB PUSH1 0xA0 DUP4 ADD MSTORE PUSH2 0x441E DUP2 DUP5 PUSH2 0x3C77 JUMP JUMPDEST SWAP1 POP SWAP8 SWAP7 POP POP POP POP POP POP POP JUMP JUMPDEST PUSH0 DUP2 MLOAD SWAP1 POP SWAP2 SWAP1 POP JUMP JUMPDEST PUSH0 DUP3 DUP3 MSTORE PUSH1 0x20 DUP3 ADD SWAP1 POP SWAP3 SWAP2 POP POP JUMP JUMPDEST PUSH0 DUP2 SWAP1 POP PUSH1 0x20 DUP3 ADD SWAP1 POP SWAP2 SWAP1 POP JUMP JUMPDEST PUSH2 0x445D DUP2 PUSH2 0x3A39 JUMP JUMPDEST DUP3 MSTORE POP POP JUMP JUMPDEST PUSH32 0x4E487B7100000000000000000000000000000000000000000000000000000000 PUSH0 MSTORE PUSH1 0x21 PUSH1 0x4 MSTORE PUSH1 0x24 PUSH0 REVERT JUMPDEST PUSH1 0x6 DUP2 LT PUSH2 0x44A1 JUMPI PUSH2 0x44A0 PUSH2 0x4463 JUMP JUMPDEST JUMPDEST POP JUMP JUMPDEST PUSH0 DUP2 SWAP1 POP PUSH2 0x44B1 DUP3 PUSH2 0x4490 JUMP JUMPDEST SWAP2 SWAP1 POP JUMP JUMPDEST PUSH0 PUSH2 0x44C0 DUP3 PUSH2 0x44A4 JUMP JUMPDEST SWAP1 POP SWAP2 SWAP1 POP JUMP JUMPDEST PUSH2 0x44D0 DUP2 PUSH2 0x44B6 JUMP JUMPDEST DUP3 MSTORE POP POP JUMP JUMPDEST PUSH0 PUSH1 0x80 DUP4 ADD PUSH0 DUP4 ADD MLOAD PUSH2 0x44EB PUSH0 DUP7 ADD DUP3 PUSH2 0x4454 JUMP JUMPDEST POP PUSH1 0x20 DUP4 ADD MLOAD PUSH2 0x44FE PUSH1 0x20 DUP7 ADD DUP3 PUSH2 0x4092 JUMP JUMPDEST POP PUSH1 0x40 DUP4 ADD MLOAD DUP5 DUP3 SUB PUSH1 0x40 DUP7 ADD MSTORE PUSH2 0x4516 DUP3 DUP3 PUSH2 0x422E JUMP JUMPDEST SWAP2 POP POP PUSH1 0x60 DUP4 ADD MLOAD PUSH2 0x452B PUSH1 0x60 DUP7 ADD DUP3 PUSH2 0x44C7 JUMP JUMPDEST POP DUP1 SWAP2 POP POP SWAP3 SWAP2 POP POP JUMP JUMPDEST PUSH0 PUSH2 0x4541 DUP4 DUP4 PUSH2 0x44D6 JUMP JUMPDEST SWAP1 POP SWAP3 SWAP2 POP POP JUMP JUMPDEST PUSH0 PUSH1 0x20 DUP3 ADD SWAP1 POP SWAP2 SWAP1 POP JUMP JUMPDEST PUSH0 PUSH2 0x455F DUP3 PUSH2 0x442B JUMP JUMPDEST PUSH2 0x4569 DUP2 DUP6 PUSH2 0x4435 JUMP JUMPDEST SWAP4 POP DUP4 PUSH1 0x20 DUP3 MUL DUP6 ADD PUSH2 0x457B DUP6 PUSH2 0x4445 JUMP JUMPDEST DUP1 PUSH0 JUMPDEST DUP6 DUP2 LT ISZERO PUSH2 0x45B6 JUMPI DUP5 DUP5 SUB DUP10 MSTORE DUP2 MLOAD PUSH2 0x4597 DUP6 DUP3 PUSH2 0x4536 JUMP JUMPDEST SWAP5 POP PUSH2 0x45A2 DUP4 PUSH2 0x4549 JUMP JUMPDEST SWAP3 POP PUSH1 0x20 DUP11 ADD SWAP10 POP POP PUSH1 0x1 DUP2 ADD SWAP1 POP PUSH2 0x457E JUMP JUMPDEST POP DUP3 SWAP8 POP DUP8 SWAP6 POP POP POP POP POP POP SWAP3 SWAP2 POP POP JUMP JUMPDEST PUSH2 0x45D1 DUP2 PUSH2 0x4204 JUMP JUMPDEST DUP3 MSTORE POP POP JUMP JUMPDEST PUSH0 PUSH1 0xE0 DUP4 ADD PUSH0 DUP4 ADD MLOAD PUSH2 0x45EC PUSH0 DUP7 ADD DUP3 PUSH2 0x4092 JUMP JUMPDEST POP PUSH1 0x20 DUP4 ADD MLOAD PUSH2 0x45FF PUSH1 0x20 DUP7 ADD DUP3 PUSH2 0x4092 JUMP JUMPDEST POP PUSH1 0x40 DUP4 ADD MLOAD PUSH2 0x4612 PUSH1 0x40 DUP7 ADD DUP3 PUSH2 0x4092 JUMP JUMPDEST POP PUSH1 0x60 DUP4 ADD MLOAD DUP5 DUP3 SUB PUSH1 0x60 DUP7 ADD MSTORE PUSH2 0x462A DUP3 DUP3 PUSH2 0x422E JUMP JUMPDEST SWAP2 POP POP PUSH1 0x80 DUP4 ADD MLOAD DUP5 DUP3 SUB PUSH1 0x80 DUP7 ADD MSTORE PUSH2 0x4644 DUP3 DUP3 PUSH2 0x4555 JUMP JUMPDEST SWAP2 POP POP PUSH1 0xA0 DUP4 ADD MLOAD PUSH2 0x4659 PUSH1 0xA0 DUP7 ADD DUP3 PUSH2 0x45C8 JUMP JUMPDEST POP PUSH1 0xC0 DUP4 ADD MLOAD DUP5 DUP3 SUB PUSH1 0xC0 DUP7 ADD MSTORE PUSH2 0x4671 DUP3 DUP3 PUSH2 0x4276 JUMP JUMPDEST SWAP2 POP POP DUP1 SWAP2 POP POP SWAP3 SWAP2 POP POP JUMP JUMPDEST PUSH0 DUP3 DUP3 MSTORE PUSH1 0x20 DUP3 ADD SWAP1 POP SWAP3 SWAP2 POP POP JUMP JUMPDEST PUSH0 PUSH2 0x4698 DUP3 PUSH2 0x442B JUMP JUMPDEST PUSH2 0x46A2 DUP2 DUP6 PUSH2 0x467E JUMP JUMPDEST SWAP4 POP DUP4 PUSH1 0x20 DUP3 MUL DUP6 ADD PUSH2 0x46B4 DUP6 PUSH2 0x4445 JUMP JUMPDEST DUP1 PUSH0 JUMPDEST DUP6 DUP2 LT ISZERO PUSH2 0x46EF JUMPI DUP5 DUP5 SUB DUP10 MSTORE DUP2 MLOAD PUSH2 0x46D0 DUP6 DUP3 PUSH2 0x4536 JUMP JUMPDEST SWAP5 POP PUSH2 0x46DB DUP4 PUSH2 0x4549 JUMP JUMPDEST SWAP3 POP PUSH1 0x20 DUP11 ADD SWAP10 POP POP PUSH1 0x1 DUP2 ADD SWAP1 POP PUSH2 0x46B7 JUMP JUMPDEST POP DUP3 SWAP8 POP DUP8 SWAP6 POP POP POP POP POP POP SWAP3 SWAP2 POP POP JUMP JUMPDEST PUSH0 PUSH1 0xA0 DUP3 ADD SWAP1 POP PUSH2 0x4714 PUSH0 DUP4 ADD DUP9 PUSH2 0x420F JUMP JUMPDEST DUP2 DUP2 SUB PUSH1 0x20 DUP4 ADD MSTORE PUSH2 0x4726 DUP2 DUP8 PUSH2 0x3C77 JUMP JUMPDEST SWAP1 POP DUP2 DUP2 SUB PUSH1 0x40 DUP4 ADD MSTORE PUSH2 0x473A DUP2 DUP7 PUSH2 0x45D7 JUMP JUMPDEST SWAP1 POP DUP2 DUP2 SUB PUSH1 0x60 DUP4 ADD MSTORE PUSH2 0x474E DUP2 DUP6 PUSH2 0x468E JUMP JUMPDEST SWAP1 POP DUP2 DUP2 SUB PUSH1 0x80 DUP4 ADD MSTORE PUSH2 0x4762 DUP2 DUP5 PUSH2 0x3C77 JUMP JUMPDEST SWAP1 POP SWAP7 SWAP6 POP POP POP POP POP POP JUMP JUMPDEST PUSH0 PUSH2 0x4778 DUP3 PUSH2 0x41BA JUMP JUMPDEST SWAP1 POP SWAP2 SWAP1 POP JUMP JUMPDEST PUSH2 0x4788 DUP2 PUSH2 0x476E JUMP JUMPDEST DUP3 MSTORE POP POP JUMP JUMPDEST PUSH0 PUSH1 0x20 DUP3 ADD SWAP1 POP PUSH2 0x47A1 PUSH0 DUP4 ADD DUP5 PUSH2 0x477F JUMP JUMPDEST SWAP3 SWAP2 POP POP JUMP JUMPDEST PUSH0 DUP1 PUSH0 DUP1 PUSH1 0x80 DUP6 DUP8 SUB SLT ISZERO PUSH2 0x47BF JUMPI PUSH2 0x47BE PUSH2 0x3A12 JUMP JUMPDEST JUMPDEST PUSH0 PUSH2 0x47CC DUP8 DUP3 DUP9 ADD PUSH2 0x3A60 JUMP JUMPDEST SWAP5 POP POP PUSH1 0x20 PUSH2 0x47DD DUP8 DUP3 DUP9 ADD PUSH2 0x3A60 JUMP JUMPDEST SWAP4 POP POP PUSH1 0x40 PUSH2 0x47EE DUP8 DUP3 DUP9 ADD PUSH2 0x3CEE JUMP JUMPDEST SWAP3 POP POP PUSH1 0x60 DUP6 ADD CALLDATALOAD PUSH8 0xFFFFFFFFFFFFFFFF DUP2 GT ISZERO PUSH2 0x480F JUMPI PUSH2 0x480E PUSH2 0x3A16 JUMP JUMPDEST JUMPDEST PUSH2 0x481B DUP8 DUP3 DUP9 ADD PUSH2 0x3B83 JUMP JUMPDEST SWAP2 POP POP SWAP3 SWAP6 SWAP2 SWAP5 POP SWAP3 POP JUMP JUMPDEST PUSH0 PUSH1 0x20 DUP3 ADD SWAP1 POP PUSH2 0x483A PUSH0 DUP4 ADD DUP5 PUSH2 0x420F JUMP JUMPDEST SWAP3 SWAP2 POP POP JUMP JUMPDEST PUSH0 PUSH2 0x484A DUP3 PUSH2 0x41BA JUMP JUMPDEST SWAP1 POP SWAP2 SWAP1 POP JUMP JUMPDEST PUSH2 0x485A DUP2 PUSH2 0x4840 JUMP JUMPDEST DUP3 MSTORE POP POP JUMP JUMPDEST PUSH0 PUSH1 0x20 DUP3 ADD SWAP1 POP PUSH2 0x4873 PUSH0 DUP4 ADD DUP5 PUSH2 0x4851 JUMP JUMPDEST SWAP3 SWAP2 POP POP JUMP JUMPDEST PUSH32 0x4F6E6C792074686520666F6F6420617574686F726974792063616E2072756E20 PUSH0 DUP3 ADD MSTORE PUSH32 0x746869732066756E6374696F6E00000000000000000000000000000000000000 PUSH1 0x20 DUP3 ADD MSTORE POP JUMP JUMPDEST PUSH0 PUSH2 0x48D3 PUSH1 0x2D DUP4 PUSH2 0x3C3F JUMP JUMPDEST SWAP2 POP PUSH2 0x48DE DUP3 PUSH2 0x4879 JUMP JUMPDEST PUSH1 0x40 DUP3 ADD SWAP1 POP SWAP2 SWAP1 POP JUMP JUMPDEST PUSH0 PUSH1 0x20 DUP3 ADD SWAP1 POP DUP2 DUP2 SUB PUSH0 DUP4 ADD MSTORE PUSH2 0x4900 DUP2 PUSH2 0x48C7 JUMP JUMPDEST SWAP1 POP SWAP2 SWAP1 POP JUMP JUMPDEST PUSH32 0x4E487B7100000000000000000000000000000000000000000000000000000000 PUSH0 MSTORE PUSH1 0x22 PUSH1 0x4 MSTORE PUSH1 0x24 PUSH0 REVERT JUMPDEST PUSH0 PUSH1 0x2 DUP3 DIV SWAP1 POP PUSH1 0x1 DUP3 AND DUP1 PUSH2 0x494B JUMPI PUSH1 0x7F DUP3 AND SWAP2 POP JUMPDEST PUSH1 0x20 DUP3 LT DUP2 SUB PUSH2 0x495E JUMPI PUSH2 0x495D PUSH2 0x4907 JUMP JUMPDEST JUMPDEST POP SWAP2 SWAP1 POP JUMP JUMPDEST PUSH0 DUP2 SWAP1 POP DUP2 PUSH0 MSTORE PUSH1 0x20 PUSH0 KECCAK256 SWAP1 POP SWAP2 SWAP1 POP JUMP JUMPDEST PUSH0 PUSH1 0x20 PUSH1 0x1F DUP4 ADD DIV SWAP1 POP SWAP2 SWAP1 POP JUMP JUMPDEST PUSH0 DUP3 DUP3 SHL SWAP1 POP SWAP3 SWAP2 POP POP JUMP JUMPDEST PUSH0 PUSH1 0x8 DUP4 MUL PUSH2 0x49C0 PUSH32 0xFFFFFFFFFFFFFFFFFFFFFFFFFFFFFFFFFFFFFFFFFFFFFFFFFFFFFFFFFFFFFFFF DUP3 PUSH2 0x4985 JUMP JUMPDEST PUSH2 0x49CA DUP7 DUP4 PUSH2 0x4985 JUMP JUMPDEST SWAP6 POP DUP1 NOT DUP5 AND SWAP4 POP DUP1 DUP7 AND DUP5 OR SWAP3 POP POP POP SWAP4 SWAP3 POP POP POP JUMP JUMPDEST PUSH0 PUSH2 0x49FC PUSH2 0x49F7 PUSH2 0x49F2 DUP5 PUSH2 0x3CCF JUMP JUMPDEST PUSH2 0x4190 JUMP JUMPDEST PUSH2 0x3CCF JUMP JUMPDEST SWAP1 POP SWAP2 SWAP1 POP JUMP JUMPDEST PUSH0 DUP2 SWAP1 POP SWAP2 SWAP1 POP JUMP JUMPDEST PUSH2 0x4A15 DUP4 PUSH2 0x49E2 JUMP JUMPDEST PUSH2 0x4A29 PUSH2 0x4A21 DUP3 PUSH2 0x4A03 JUMP JUMPDEST DUP5 DUP5 SLOAD PUSH2 0x4991 JUMP JUMPDEST DUP3 SSTORE POP POP POP POP JUMP JUMPDEST PUSH0 SWAP1 JUMP JUMPDEST PUSH2 0x4A3D PUSH2 0x4A31 JUMP JUMPDEST PUSH2 0x4A48 DUP2 DUP5 DUP5 PUSH2 0x4A0C JUMP JUMPDEST POP POP POP JUMP JUMPDEST JUMPDEST DUP2 DUP2 LT ISZERO PUSH2 0x4A6B JUMPI PUSH2 0x4A60 PUSH0 DUP3 PUSH2 0x4A35 JUMP JUMPDEST PUSH1 0x1 DUP2 ADD SWAP1 POP PUSH2 0x4A4E JUMP JUMPDEST POP POP JUMP JUMPDEST PUSH1 0x1F DUP3 GT ISZERO PUSH2 0x4AB0 JUMPI PUSH2 0x4A81 DUP2 PUSH2 0x4964 JUMP JUMPDEST PUSH2 0x4A8A DUP5 PUSH2 0x4976 JUMP JUMPDEST DUP2 ADD PUSH1 0x20 DUP6 LT ISZERO PUSH2 0x4A99 JUMPI DUP2 SWAP1 POP JUMPDEST PUSH2 0x4AAD PUSH2 0x4AA5 DUP6 PUSH2 0x4976 JUMP JUMPDEST DUP4 ADD DUP3 PUSH2 0x4A4D JUMP JUMPDEST POP POP JUMPDEST POP POP POP JUMP JUMPDEST PUSH0 DUP3 DUP3 SHR SWAP1 POP SWAP3 SWAP2 POP POP JUMP JUMPDEST PUSH0 PUSH2 0x4AD0 PUSH0 NOT DUP5 PUSH1 0x8 MUL PUSH2 0x4AB5 JUMP JUMPDEST NOT DUP1 DUP4 AND SWAP2 POP POP SWAP3 SWAP2 POP POP JUMP JUMPDEST PUSH0 PUSH2 0x4AE8 DUP4 DUP4 PUSH2 0x4AC1 JUMP JUMPDEST SWAP2 POP DUP3 PUSH1 0x2 MUL DUP3 OR SWAP1 POP SWAP3 SWAP2 POP POP JUMP JUMPDEST PUSH2 0x4B01 DUP3 PUSH2 0x3C35 JUMP JUMPDEST PUSH8 0xFFFFFFFFFFFFFFFF DUP2 GT ISZERO PUSH2 0x4B1A JUMPI PUSH2 0x4B19 PUSH2 0x3A8C JUMP JUMPDEST JUMPDEST PUSH2 0x4B24 DUP3 SLOAD PUSH2 0x4934 JUMP JUMPDEST PUSH2 0x4B2F DUP3 DUP3 DUP6 PUSH2 0x4A6F JUMP JUMPDEST PUSH0 PUSH1 0x20 SWAP1 POP PUSH1 0x1F DUP4 GT PUSH1 0x1 DUP2 EQ PUSH2 0x4B60 JUMPI PUSH0 DUP5 ISZERO PUSH2 0x4B4E JUMPI DUP3 DUP8 ADD MLOAD SWAP1 POP JUMPDEST PUSH2 0x4B58 DUP6 DUP3 PUSH2 0x4ADD JUMP JUMPDEST DUP7 SSTORE POP PUSH2 0x4BBF JUMP JUMPDEST PUSH1 0x1F NOT DUP5 AND PUSH2 0x4B6E DUP7 PUSH2 0x4964 JUMP JUMPDEST PUSH0 JUMPDEST DUP3 DUP2 LT ISZERO PUSH2 0x4B95 JUMPI DUP5 DUP10 ADD MLOAD DUP3 SSTORE PUSH1 0x1 DUP3 ADD SWAP2 POP PUSH1 0x20 DUP6 ADD SWAP5 POP PUSH1 0x20 DUP2 ADD SWAP1 POP PUSH2 0x4B70 JUMP JUMPDEST DUP7 DUP4 LT ISZERO PUSH2 0x4BB2 JUMPI DUP5 DUP10 ADD MLOAD PUSH2 0x4BAE PUSH1 0x1F DUP10 AND DUP3 PUSH2 0x4AC1 JUMP JUMPDEST DUP4 SSTORE POP JUMPDEST PUSH1 0x1 PUSH1 0x2 DUP9 MUL ADD DUP9 SSTORE POP POP POP JUMPDEST POP POP POP POP POP POP JUMP JUMPDEST PUSH32 0x4E487B7100000000000000000000000000000000000000000000000000000000 PUSH0 MSTORE PUSH1 0x32 PUSH1 0x4 MSTORE PUSH1 0x24 PUSH0 REVERT JUMPDEST PUSH32 0x4E487B7100000000000000000000000000000000000000000000000000000000 PUSH0 MSTORE PUSH1 0x11 PUSH1 0x4 MSTORE PUSH1 0x24 PUSH0 REVERT JUMPDEST PUSH0 PUSH2 0x4C2B DUP3 PUSH2 0x3CCF JUMP JUMPDEST SWAP2 POP PUSH2 0x4C36 DUP4 PUSH2 0x3CCF JUMP JUMPDEST SWAP3 POP DUP3 DUP3 MUL PUSH2 0x4C44 DUP2 PUSH2 0x3CCF JUMP JUMPDEST SWAP2 POP DUP3 DUP3 DIV DUP5 EQ DUP4 ISZERO OR PUSH2 0x4C5B JUMPI PUSH2 0x4C5A PUSH2 0x4BF4 JUMP JUMPDEST JUMPDEST POP SWAP3 SWAP2 POP POP JUMP JUMPDEST PUSH32 0x54686520746F74616C20737572706C7573206F6620726177206D617465726961 PUSH0 DUP3 ADD MSTORE PUSH32 0x6C7320697320696E73756666696369656E7420666F7220636F6E73756D707469 PUSH1 0x20 DUP3 ADD MSTORE PUSH32 0x6F6E000000000000000000000000000000000000000000000000000000000000 PUSH1 0x40 DUP3 ADD MSTORE POP JUMP JUMPDEST PUSH0 PUSH2 0x4CE2 PUSH1 0x42 DUP4 PUSH2 0x3C3F JUMP JUMPDEST SWAP2 POP PUSH2 0x4CED DUP3 PUSH2 0x4C62 JUMP JUMPDEST PUSH1 0x60 DUP3 ADD SWAP1 POP SWAP2 SWAP1 POP JUMP JUMPDEST PUSH0 PUSH1 0x20 DUP3 ADD SWAP1 POP DUP2 DUP2 SUB PUSH0 DUP4 ADD MSTORE PUSH2 0x4D0F DUP2 PUSH2 0x4CD6 JUMP JUMPDEST SWAP1 POP SWAP2 SWAP1 POP JUMP JUMPDEST PUSH0 DUP2 MLOAD SWAP1 POP PUSH2 0x4D24 DUP2 PUSH2 0x3A4A JUMP JUMPDEST SWAP3 SWAP2 POP POP JUMP JUMPDEST PUSH0 PUSH1 0x20 DUP3 DUP5 SUB SLT ISZERO PUSH2 0x4D3F JUMPI PUSH2 0x4D3E PUSH2 0x3A12 JUMP JUMPDEST JUMPDEST PUSH0 PUSH2 0x4D4C DUP5 DUP3 DUP6 ADD PUSH2 0x4D16 JUMP JUMPDEST SWAP2 POP POP SWAP3 SWAP2 POP POP JUMP JUMPDEST PUSH32 0x546865207573657220646F6573206E6F74206F776E2074686520726177206D61 PUSH0 DUP3 ADD MSTORE PUSH32 0x74657269616C0000000000000000000000000000000000000000000000000000 PUSH1 0x20 DUP3 ADD MSTORE POP JUMP JUMPDEST PUSH0 PUSH2 0x4DAF PUSH1 0x26 DUP4 PUSH2 0x3C3F JUMP JUMPDEST SWAP2 POP PUSH2 0x4DBA DUP3 PUSH2 0x4D55 JUMP JUMPDEST PUSH1 0x40 DUP3 ADD SWAP1 POP SWAP2 SWAP1 POP JUMP JUMPDEST PUSH0 PUSH1 0x20 DUP3 ADD SWAP1 POP DUP2 DUP2 SUB PUSH0 DUP4 ADD MSTORE PUSH2 0x4DDC DUP2 PUSH2 0x4DA3 JUMP JUMPDEST SWAP1 POP SWAP2 SWAP1 POP JUMP JUMPDEST PUSH32 0x7468697320746F6B656E206973206E6F742062656C6F6E672074686973207573 PUSH0 DUP3 ADD MSTORE PUSH32 0x6572000000000000000000000000000000000000000000000000000000000000 PUSH1 0x20 DUP3 ADD MSTORE POP JUMP JUMPDEST PUSH0 PUSH2 0x4E3D PUSH1 0x22 DUP4 PUSH2 0x3C3F JUMP JUMPDEST SWAP2 POP PUSH2 0x4E48 DUP3 PUSH2 0x4DE3 JUMP JUMPDEST PUSH1 0x40 DUP3 ADD SWAP1 POP SWAP2 SWAP1 POP JUMP JUMPDEST PUSH0 PUSH1 0x20 DUP3 ADD SWAP1 POP DUP2 DUP2 SUB PUSH0 DUP4 ADD MSTORE PUSH2 0x4E6A DUP2 PUSH2 0x4E31 JUMP JUMPDEST SWAP1 POP SWAP2 SWAP1 POP JUMP JUMPDEST PUSH0 DUP2 SLOAD SWAP1 POP PUSH2 0x4E7F DUP2 PUSH2 0x4934 JUMP JUMPDEST SWAP1 POP SWAP2 SWAP1 POP JUMP JUMPDEST PUSH0 DUP2 SWAP1 POP DUP2 PUSH0 MSTORE PUSH1 0x20 PUSH0 KECCAK256 SWAP1 POP SWAP2 SWAP1 POP JUMP JUMPDEST DUP2 DUP2 SUB PUSH2 0x4EA6 JUMPI POP POP PUSH2 0x4F7B JUMP JUMPDEST PUSH2 0x4EAF DUP3 PUSH2 0x4E71 JUMP JUMPDEST PUSH8 0xFFFFFFFFFFFFFFFF DUP2 GT ISZERO PUSH2 0x4EC8 JUMPI PUSH2 0x4EC7 PUSH2 0x3A8C JUMP JUMPDEST JUMPDEST PUSH2 0x4ED2 DUP3 SLOAD PUSH2 0x4934 JUMP JUMPDEST PUSH2 0x4EDD DUP3 DUP3 DUP6 PUSH2 0x4A6F JUMP JUMPDEST PUSH0 PUSH1 0x1F DUP4 GT PUSH1 0x1 DUP2 EQ PUSH2 0x4F0A JUMPI PUSH0 DUP5 ISZERO PUSH2 0x4EF8 JUMPI DUP3 DUP8 ADD SLOAD SWAP1 POP JUMPDEST PUSH2 0x4F02 DUP6 DUP3 PUSH2 0x4ADD JUMP JUMPDEST DUP7 SSTORE POP PUSH2 0x4F74 JUMP JUMPDEST PUSH1 0x1F NOT DUP5 AND PUSH2 0x4F18 DUP8 PUSH2 0x4E86 JUMP JUMPDEST SWAP7 POP PUSH2 0x4F23 DUP7 PUSH2 0x4964 JUMP JUMPDEST PUSH0 JUMPDEST DUP3 DUP2 LT ISZERO PUSH2 0x4F4A JUMPI DUP5 DUP10 ADD SLOAD DUP3 SSTORE PUSH1 0x1 DUP3 ADD SWAP2 POP PUSH1 0x1 DUP6 ADD SWAP5 POP PUSH1 0x20 DUP2 ADD SWAP1 POP PUSH2 0x4F25 JUMP JUMPDEST DUP7 DUP4 LT ISZERO PUSH2 0x4F67 JUMPI DUP5 DUP10 ADD SLOAD PUSH2 0x4F63 PUSH1 0x1F DUP10 AND DUP3 PUSH2 0x4AC1 JUMP JUMPDEST DUP4 SSTORE POP JUMPDEST PUSH1 0x1 PUSH1 0x2 DUP9 MUL ADD DUP9 SSTORE POP POP POP JUMPDEST POP POP POP POP POP POP JUMPDEST JUMP JUMPDEST PUSH0 PUSH2 0x4F87 DUP3 PUSH2 0x3CCF JUMP JUMPDEST SWAP2 POP PUSH2 0x4F92 DUP4 PUSH2 0x3CCF JUMP JUMPDEST SWAP3 POP DUP3 DUP3 SUB SWAP1 POP DUP2 DUP2 GT ISZERO PUSH2 0x4FAA JUMPI PUSH2 0x4FA9 PUSH2 0x4BF4 JUMP JUMPDEST JUMPDEST SWAP3 SWAP2 POP POP JUMP JUMPDEST PUSH32 0x4F6E6C7920617574686F72697A65642070726F6475636572732061726520616C PUSH0 DUP3 ADD MSTORE PUSH32 0x6C6F77656420746F2072756E20746869732066756E6374696F6E000000000000 PUSH1 0x20 DUP3 ADD MSTORE POP JUMP JUMPDEST PUSH0 PUSH2 0x500A PUSH1 0x3A DUP4 PUSH2 0x3C3F JUMP JUMPDEST SWAP2 POP PUSH2 0x5015 DUP3 PUSH2 0x4FB0 JUMP JUMPDEST PUSH1 0x40 DUP3 ADD SWAP1 POP SWAP2 SWAP1 POP JUMP JUMPDEST PUSH0 PUSH1 0x20 DUP3 ADD SWAP1 POP DUP2 DUP2 SUB PUSH0 DUP4 ADD MSTORE PUSH2 0x5037 DUP2 PUSH2 0x4FFE JUMP JUMPDEST SWAP1 POP SWAP2 SWAP1 POP JUMP JUMPDEST PUSH32 0x5261774D6174657269616C73206E6F7420657869737400000000000000000000 PUSH0 DUP3 ADD MSTORE POP JUMP JUMPDEST PUSH0 PUSH2 0x5072 PUSH1 0x16 DUP4 PUSH2 0x3C3F JUMP JUMPDEST SWAP2 POP PUSH2 0x507D DUP3 PUSH2 0x503E JUMP JUMPDEST PUSH1 0x20 DUP3 ADD SWAP1 POP SWAP2 SWAP1 POP JUMP JUMPDEST PUSH0 PUSH1 0x20 DUP3 ADD SWAP1 POP DUP2 DUP2 SUB PUSH0 DUP4 ADD MSTORE PUSH2 0x509F DUP2 PUSH2 0x5066 JUMP JUMPDEST SWAP1 POP SWAP2 SWAP1 POP JUMP JUMPDEST PUSH32 0x75736572206973206E6F74206F776E6572000000000000000000000000000000 PUSH0 DUP3 ADD MSTORE POP JUMP JUMPDEST PUSH0 PUSH2 0x50DA PUSH1 0x11 DUP4 PUSH2 0x3C3F JUMP JUMPDEST SWAP2 POP PUSH2 0x50E5 DUP3 PUSH2 0x50A6 JUMP JUMPDEST PUSH1 0x20 DUP3 ADD SWAP1 POP SWAP2 SWAP1 POP JUMP JUMPDEST PUSH0 PUSH1 0x20 DUP3 ADD SWAP1 POP DUP2 DUP2 SUB PUSH0 DUP4 ADD MSTORE PUSH2 0x5107 DUP2 PUSH2 0x50CE JUMP JUMPDEST SWAP1 POP SWAP2 SWAP1 POP JUMP JUMPDEST PUSH32 0x5261774D6174657269616C73206861732062656C6F6E672061206C6F74000000 PUSH0 DUP3 ADD MSTORE POP JUMP JUMPDEST PUSH0 PUSH2 0x5142 PUSH1 0x1D DUP4 PUSH2 0x3C3F JUMP JUMPDEST SWAP2 POP PUSH2 0x514D DUP3 PUSH2 0x510E JUMP JUMPDEST PUSH1 0x20 DUP3 ADD SWAP1 POP SWAP2 SWAP1 POP JUMP JUMPDEST PUSH0 PUSH1 0x20 DUP3 ADD SWAP1 POP DUP2 DUP2 SUB PUSH0 DUP4 ADD MSTORE PUSH2 0x516F DUP2 PUSH2 0x5136 JUMP JUMPDEST SWAP1 POP SWAP2 SWAP1 POP JUMP JUMPDEST PUSH0 PUSH2 0x5188 PUSH2 0x5183 DUP5 PUSH2 0x3B04 JUMP JUMPDEST PUSH2 0x3AEA JUMP JUMPDEST SWAP1 POP DUP3 DUP2 MSTORE PUSH1 0x20 DUP2 ADD DUP5 DUP5 DUP5 ADD GT ISZERO PUSH2 0x51A4 JUMPI PUSH2 0x51A3 PUSH2 0x3A78 JUMP JUMPDEST JUMPDEST PUSH2 0x51AF DUP5 DUP3 DUP6 PUSH2 0x3C4F JUMP JUMPDEST POP SWAP4 SWAP3 POP POP POP JUMP JUMPDEST PUSH0 DUP3 PUSH1 0x1F DUP4 ADD SLT PUSH2 0x51CB JUMPI PUSH2 0x51CA PUSH2 0x3A74 JUMP JUMPDEST JUMPDEST DUP2 MLOAD PUSH2 0x51DB DUP5 DUP3 PUSH1 0x20 DUP7 ADD PUSH2 0x5176 JUMP JUMPDEST SWAP2 POP POP SWAP3 SWAP2 POP POP JUMP JUMPDEST PUSH0 PUSH1 0x20 DUP3 DUP5 SUB SLT ISZERO PUSH2 0x51F9 JUMPI PUSH2 0x51F8 PUSH2 0x3A12 JUMP JUMPDEST JUMPDEST PUSH0 DUP3 ADD MLOAD PUSH8 0xFFFFFFFFFFFFFFFF DUP2 GT ISZERO PUSH2 0x5216 JUMPI PUSH2 0x5215 PUSH2 0x3A16 JUMP JUMPDEST JUMPDEST PUSH2 0x5222 DUP5 DUP3 DUP6 ADD PUSH2 0x51B7 JUMP JUMPDEST SWAP2 POP POP SWAP3 SWAP2 POP POP JUMP JUMPDEST PUSH32 0x4F6E6C7920617574686F72697A656420737570706C696572732061726520616C PUSH0 DUP3 ADD MSTORE PUSH32 0x6C6F77656420746F2072756E20746869732066756E6374696F6E000000000000 PUSH1 0x20 DUP3 ADD MSTORE POP JUMP JUMPDEST PUSH0 PUSH2 0x5285 PUSH1 0x3A DUP4 PUSH2 0x3C3F JUMP JUMPDEST SWAP2 POP PUSH2 0x5290 DUP3 PUSH2 0x522B JUMP JUMPDEST PUSH1 0x40 DUP3 ADD SWAP1 POP SWAP2 SWAP1 POP JUMP JUMPDEST PUSH0 PUSH1 0x20 DUP3 ADD SWAP1 POP DUP2 DUP2 SUB PUSH0 DUP4 ADD MSTORE PUSH2 0x52B2 DUP2 PUSH2 0x5279 JUMP JUMPDEST SWAP1 POP SWAP2 SWAP1 POP JUMP JUMPDEST PUSH32 0x5061636B6167656450726F6475637473206E6F74206578697374000000000000 PUSH0 DUP3 ADD MSTORE POP JUMP JUMPDEST PUSH0 PUSH2 0x52ED PUSH1 0x1A DUP4 PUSH2 0x3C3F JUMP JUMPDEST SWAP2 POP PUSH2 0x52F8 DUP3 PUSH2 0x52B9 JUMP JUMPDEST PUSH1 0x20 DUP3 ADD SWAP1 POP SWAP2 SWAP1 POP JUMP JUMPDEST PUSH0 PUSH1 0x20 DUP3 ADD SWAP1 POP DUP2 DUP2 SUB PUSH0 DUP4 ADD MSTORE PUSH2 0x531A DUP2 PUSH2 0x52E1 JUMP JUMPDEST SWAP1 POP SWAP2 SWAP1 POP JUMP JUMPDEST PUSH32 0x5061636B6167656450726F6475637473206861732062656C6F6E672061206C6F PUSH0 DUP3 ADD MSTORE PUSH32 0x7400000000000000000000000000000000000000000000000000000000000000 PUSH1 0x20 DUP3 ADD MSTORE POP JUMP JUMPDEST PUSH0 PUSH2 0x537B PUSH1 0x21 DUP4 PUSH2 0x3C3F JUMP JUMPDEST SWAP2 POP PUSH2 0x5386 DUP3 PUSH2 0x5321 JUMP JUMPDEST PUSH1 0x40 DUP3 ADD SWAP1 POP SWAP2 SWAP1 POP JUMP JUMPDEST PUSH0 PUSH1 0x20 DUP3 ADD SWAP1 POP DUP2 DUP2 SUB PUSH0 DUP4 ADD MSTORE PUSH2 0x53A8 DUP2 PUSH2 0x536F JUMP JUMPDEST SWAP1 POP SWAP2 SWAP1 POP JUMP JUMPDEST PUSH0 DUP2 SWAP1 POP SWAP3 SWAP2 POP POP JUMP JUMPDEST PUSH0 PUSH2 0x53C3 DUP3 PUSH2 0x3C35 JUMP JUMPDEST PUSH2 0x53CD DUP2 DUP6 PUSH2 0x53AF JUMP JUMPDEST SWAP4 POP PUSH2 0x53DD DUP2 DUP6 PUSH1 0x20 DUP7 ADD PUSH2 0x3C4F JUMP JUMPDEST DUP1 DUP5 ADD SWAP2 POP POP SWAP3 SWAP2 POP POP JUMP JUMPDEST PUSH0 PUSH2 0x53F4 DUP3 DUP5 PUSH2 0x53B9 JUMP JUMPDEST SWAP2 POP DUP2 SWAP1 POP SWAP3 SWAP2 POP POP JUMP INVALID PUSH24 0x61726E696E672C7468697320636F6D6D6F64697479206861 PUSH20 0x206265656E20626F756E64A26469706673582212 KECCAK256 PUSH9 0x787DAF1890C9ECEAD5 DUP2 PUSH21 0xF28B4FEB765241C9932E45346271291DB2CBD12564 PUSH20 0x6F6C634300081600330000000000000000000000 "
		},
		"gasEstimates": {
			"creation": {
				"codeDepositCost": "4318800",
				"executionCost": "53606",
				"totalCost": "4372406"
			},
			"external": {
				"AddWhiteList(address)": "27082",
				"Customer(address)": "infinite",
				"Dealer(address)": "infinite",
				"FoodAuthority()": "2575",
				"InitPackagedProductsNFT(address,uint256,uint256[],uint256[])": "infinite",
				"InitRawMaterialsNFT(address,uint256,uint256)": "infinite",
				"LinkParentNFT2PackagedProducts(uint256,uint256[])": "infinite",
				"LinkParentNFT2RawMaterials(uint256,uint256[])": "infinite",
				"LotCount()": "2559",
				"LotSmartContract()": "infinite",
				"PackagedProductCount()": "2558",
				"PackagedProductsSmartContract()": "infinite",
				"Producer(address)": "infinite",
				"RawMaterialsCount()": "2470",
				"RawMaterialsSmartContract()": "infinite",
				"RegisterCustomer(address,string)": "infinite",
				"RegisterDealer(address,string)": "infinite",
				"RegisterProducer(address,string)": "infinite",
				"RegisterRetailer(address,string)": "infinite",
				"RegisterSupplier(address,string)": "infinite",
				"RegisterWholesaler(address,string)": "infinite",
				"RemoveWhiteList(address)": "27017",
				"Retailer(address)": "infinite",
				"Supplier(address)": "infinite",
				"Wholesaler(address)": "infinite",
				"checkInAndBelongPackagedProductsMapping(address,uint256[])": "infinite",
				"checkInAndBelongRawMaterialsMapping(address,uint256[])": "infinite",
				"checkRawMaterialsOwner(address,uint256[])": "infinite",
				"checkRawMaterialsTotalSum(uint256,uint256[],uint256[])": "infinite",
				"getPackagedProductsByToken(uint256)": "infinite",
				"getPackagedProductsNFT(uint256)": "infinite",
				"getRawMaterialsByToken(uint256)": "infinite",
				"getRawMaterialsNFT(uint256)": "infinite",
				"onlyProducer(address)": "3225",
				"onlySupplier(address)": "3224",
				"recordInnerTransfer(address,address,uint256,string)": "infinite",
				"recordRawMaterialsTransfer(address,address,uint256)": "infinite",
				"setLotContract(address)": "infinite",
				"setPackagedProductsContract(address)": "infinite",
				"setRawMaterialsContract(address)": "infinite"
			},
			"internal": {
				"compareStrings(string memory,string memory)": "infinite",
				"getActorTypeFromString(string memory)": "infinite",
				"isEmptyString(string memory)": "infinite"
			}
		},
		"methodIdentifiers": {
			"AddWhiteList(address)": "f8d5f409",
			"Customer(address)": "3894d0b3",
			"Dealer(address)": "35d9c56a",
			"FoodAuthority()": "47fb6487",
			"InitPackagedProductsNFT(address,uint256,uint256[],uint256[])": "27f206fb",
			"InitRawMaterialsNFT(address,uint256,uint256)": "3943167c",
			"LinkParentNFT2PackagedProducts(uint256,uint256[])": "29c320a4",
			"LinkParentNFT2RawMaterials(uint256,uint256[])": "2801ab58",
			"LotCount()": "9ce31ba9",
			"LotSmartContract()": "ff7601b9",
			"PackagedProductCount()": "519a7b35",
			"PackagedProductsSmartContract()": "e7875f6a",
			"Producer(address)": "0488e486",
			"RawMaterialsCount()": "d8f68b7c",
			"RawMaterialsSmartContract()": "9e0cf098",
			"RegisterCustomer(address,string)": "03945a4b",
			"RegisterDealer(address,string)": "8b778fc6",
			"RegisterProducer(address,string)": "62fed11f",
			"RegisterRetailer(address,string)": "b70b84c6",
			"RegisterSupplier(address,string)": "e01215eb",
			"RegisterWholesaler(address,string)": "7505c046",
			"RemoveWhiteList(address)": "1e17ee05",
			"Retailer(address)": "eb667ae8",
			"Supplier(address)": "4b297269",
			"Wholesaler(address)": "aed84d1f",
			"checkInAndBelongPackagedProductsMapping(address,uint256[])": "dfdedce1",
			"checkInAndBelongRawMaterialsMapping(address,uint256[])": "4c33f142",
			"checkRawMaterialsOwner(address,uint256[])": "12646a42",
			"checkRawMaterialsTotalSum(uint256,uint256[],uint256[])": "0b2ed737",
			"getPackagedProductsByToken(uint256)": "466494a7",
			"getPackagedProductsNFT(uint256)": "e16f2da5",
			"getRawMaterialsByToken(uint256)": "e1a6faba",
			"getRawMaterialsNFT(uint256)": "b121a001",
			"onlyProducer(address)": "2df10a68",
			"onlySupplier(address)": "bfa8eff0",
			"recordInnerTransfer(address,address,uint256,string)": "ed577195",
			"recordRawMaterialsTransfer(address,address,uint256)": "1473eec7",
			"setLotContract(address)": "3379a256",
			"setPackagedProductsContract(address)": "374ccc41",
			"setRawMaterialsContract(address)": "89ab1f9d"
		}
	},
	"abi": [
		{
			"inputs": [],
			"stateMutability": "nonpayable",
			"type": "constructor"
		},
		{
			"inputs": [
				{
					"internalType": "address",
					"name": "_to",
					"type": "address"
				}
			],
			"name": "AddWhiteList",
			"outputs": [],
			"stateMutability": "nonpayable",
			"type": "function"
		},
		{
			"inputs": [
				{
					"internalType": "address",
					"name": "",
					"type": "address"
				}
			],
			"name": "Customer",
			"outputs": [
				{
					"internalType": "string",
					"name": "",
					"type": "string"
				}
			],
			"stateMutability": "view",
			"type": "function"
		},
		{
			"inputs": [
				{
					"internalType": "address",
					"name": "",
					"type": "address"
				}
			],
			"name": "Dealer",
			"outputs": [
				{
					"internalType": "string",
					"name": "",
					"type": "string"
				}
			],
			"stateMutability": "view",
			"type": "function"
		},
		{
			"inputs": [],
			"name": "FoodAuthority",
			"outputs": [
				{
					"internalType": "address",
					"name": "",
					"type": "address"
				}
			],
			"stateMutability": "view",
			"type": "function"
		},
		{
			"inputs": [
				{
					"internalType": "address",
					"name": "from",
					"type": "address"
				},
				{
					"internalType": "uint256",
					"name": "tokenID",
					"type": "uint256"
				},
				{
					"internalType": "uint256[]",
					"name": "_childIDs",
					"type": "uint256[]"
				},
				{
					"internalType": "uint256[]",
					"name": "resumes",
					"type": "uint256[]"
				}
			],
			"name": "InitPackagedProductsNFT",
			"outputs": [],
			"stateMutability": "nonpayable",
			"type": "function"
		},
		{
			"inputs": [
				{
					"internalType": "address",
					"name": "from",
					"type": "address"
				},
				{
					"internalType": "uint256",
					"name": "tokenID",
					"type": "uint256"
				},
				{
					"internalType": "uint256",
					"name": "initSum",
					"type": "uint256"
				}
			],
			"name": "InitRawMaterialsNFT",
			"outputs": [],
			"stateMutability": "nonpayable",
			"type": "function"
		},
		{
			"inputs": [
				{
					"internalType": "uint256",
					"name": "tokenID",
					"type": "uint256"
				},
				{
					"internalType": "uint256[]",
					"name": "_childIDs",
					"type": "uint256[]"
				}
			],
			"name": "LinkParentNFT2PackagedProducts",
			"outputs": [],
			"stateMutability": "nonpayable",
			"type": "function"
		},
		{
			"inputs": [
				{
					"internalType": "uint256",
					"name": "tokenID",
					"type": "uint256"
				},
				{
					"internalType": "uint256[]",
					"name": "_childIDs",
					"type": "uint256[]"
				}
			],
			"name": "LinkParentNFT2RawMaterials",
			"outputs": [],
			"stateMutability": "nonpayable",
			"type": "function"
		},
		{
			"inputs": [],
			"name": "LotCount",
			"outputs": [
				{
					"internalType": "uint256",
					"name": "",
					"type": "uint256"
				}
			],
			"stateMutability": "view",
			"type": "function"
		},
		{
			"inputs": [],
			"name": "LotSmartContract",
			"outputs": [
				{
					"internalType": "contract Lot",
					"name": "",
					"type": "address"
				}
			],
			"stateMutability": "view",
			"type": "function"
		},
		{
			"inputs": [],
			"name": "PackagedProductCount",
			"outputs": [
				{
					"internalType": "uint256",
					"name": "",
					"type": "uint256"
				}
			],
			"stateMutability": "view",
			"type": "function"
		},
		{
			"inputs": [],
			"name": "PackagedProductsSmartContract",
			"outputs": [
				{
					"internalType": "contract PackagedProducts",
					"name": "",
					"type": "address"
				}
			],
			"stateMutability": "view",
			"type": "function"
		},
		{
			"inputs": [
				{
					"internalType": "address",
					"name": "",
					"type": "address"
				}
			],
			"name": "Producer",
			"outputs": [
				{
					"internalType": "string",
					"name": "",
					"type": "string"
				}
			],
			"stateMutability": "view",
			"type": "function"
		},
		{
			"inputs": [],
			"name": "RawMaterialsCount",
			"outputs": [
				{
					"internalType": "uint256",
					"name": "",
					"type": "uint256"
				}
			],
			"stateMutability": "view",
			"type": "function"
		},
		{
			"inputs": [],
			"name": "RawMaterialsSmartContract",
			"outputs": [
				{
					"internalType": "contract RawMaterials",
					"name": "",
					"type": "address"
				}
			],
			"stateMutability": "view",
			"type": "function"
		},
		{
			"inputs": [
				{
					"internalType": "address",
					"name": "_customer",
					"type": "address"
				},
				{
					"internalType": "string",
					"name": "name",
					"type": "string"
				}
			],
			"name": "RegisterCustomer",
			"outputs": [],
			"stateMutability": "nonpayable",
			"type": "function"
		},
		{
			"inputs": [
				{
					"internalType": "address",
					"name": "_dealer",
					"type": "address"
				},
				{
					"internalType": "string",
					"name": "name",
					"type": "string"
				}
			],
			"name": "RegisterDealer",
			"outputs": [],
			"stateMutability": "nonpayable",
			"type": "function"
		},
		{
			"inputs": [
				{
					"internalType": "address",
					"name": "_producer",
					"type": "address"
				},
				{
					"internalType": "string",
					"name": "name",
					"type": "string"
				}
			],
			"name": "RegisterProducer",
			"outputs": [],
			"stateMutability": "nonpayable",
			"type": "function"
		},
		{
			"inputs": [
				{
					"internalType": "address",
					"name": "_retailer",
					"type": "address"
				},
				{
					"internalType": "string",
					"name": "name",
					"type": "string"
				}
			],
			"name": "RegisterRetailer",
			"outputs": [],
			"stateMutability": "nonpayable",
			"type": "function"
		},
		{
			"inputs": [
				{
					"internalType": "address",
					"name": "_supplier",
					"type": "address"
				},
				{
					"internalType": "string",
					"name": "name",
					"type": "string"
				}
			],
			"name": "RegisterSupplier",
			"outputs": [],
			"stateMutability": "nonpayable",
			"type": "function"
		},
		{
			"inputs": [
				{
					"internalType": "address",
					"name": "_wholesaler",
					"type": "address"
				},
				{
					"internalType": "string",
					"name": "name",
					"type": "string"
				}
			],
			"name": "RegisterWholesaler",
			"outputs": [],
			"stateMutability": "nonpayable",
			"type": "function"
		},
		{
			"inputs": [
				{
					"internalType": "address",
					"name": "_to",
					"type": "address"
				}
			],
			"name": "RemoveWhiteList",
			"outputs": [],
			"stateMutability": "nonpayable",
			"type": "function"
		},
		{
			"inputs": [
				{
					"internalType": "address",
					"name": "",
					"type": "address"
				}
			],
			"name": "Retailer",
			"outputs": [
				{
					"internalType": "string",
					"name": "",
					"type": "string"
				}
			],
			"stateMutability": "view",
			"type": "function"
		},
		{
			"inputs": [
				{
					"internalType": "address",
					"name": "",
					"type": "address"
				}
			],
			"name": "Supplier",
			"outputs": [
				{
					"internalType": "string",
					"name": "",
					"type": "string"
				}
			],
			"stateMutability": "view",
			"type": "function"
		},
		{
			"inputs": [
				{
					"internalType": "address",
					"name": "",
					"type": "address"
				}
			],
			"name": "Wholesaler",
			"outputs": [
				{
					"internalType": "string",
					"name": "",
					"type": "string"
				}
			],
			"stateMutability": "view",
			"type": "function"
		},
		{
			"inputs": [
				{
					"internalType": "address",
					"name": "owner",
					"type": "address"
				},
				{
					"internalType": "uint256[]",
					"name": "_childIDs",
					"type": "uint256[]"
				}
			],
			"name": "checkInAndBelongPackagedProductsMapping",
			"outputs": [],
			"stateMutability": "view",
			"type": "function"
		},
		{
			"inputs": [
				{
					"internalType": "address",
					"name": "owner",
					"type": "address"
				},
				{
					"internalType": "uint256[]",
					"name": "_childIDs",
					"type": "uint256[]"
				}
			],
			"name": "checkInAndBelongRawMaterialsMapping",
			"outputs": [],
			"stateMutability": "view",
			"type": "function"
		},
		{
			"inputs": [
				{
					"internalType": "address",
					"name": "sender",
					"type": "address"
				},
				{
					"internalType": "uint256[]",
					"name": "tokenIDs",
					"type": "uint256[]"
				}
			],
			"name": "checkRawMaterialsOwner",
			"outputs": [],
			"stateMutability": "view",
			"type": "function"
		},
		{
			"inputs": [
				{
					"internalType": "uint256",
					"name": "numberOfTokens",
					"type": "uint256"
				},
				{
					"internalType": "uint256[]",
					"name": "tokenIDs",
					"type": "uint256[]"
				},
				{
					"internalType": "uint256[]",
					"name": "resumes",
					"type": "uint256[]"
				}
			],
			"name": "checkRawMaterialsTotalSum",
			"outputs": [],
			"stateMutability": "view",
			"type": "function"
		},
		{
			"inputs": [
				{
					"internalType": "uint256",
					"name": "tokenID",
					"type": "uint256"
				}
			],
			"name": "getPackagedProductsByToken",
			"outputs": [
				{
					"internalType": "uint256[]",
					"name": "",
					"type": "uint256[]"
				}
			],
			"stateMutability": "view",
			"type": "function"
		},
		{
			"inputs": [
				{
					"internalType": "uint256",
					"name": "tokenID",
					"type": "uint256"
				}
			],
			"name": "getPackagedProductsNFT",
			"outputs": [
				{
					"internalType": "bool",
					"name": "",
					"type": "bool"
				},
				{
					"internalType": "string",
					"name": "",
					"type": "string"
				},
				{
					"components": [
						{
							"internalType": "uint256",
							"name": "tokenID",
							"type": "uint256"
						},
						{
							"internalType": "uint256",
							"name": "lotID",
							"type": "uint256"
						},
						{
							"internalType": "uint256",
							"name": "produceTime",
							"type": "uint256"
						},
						{
							"internalType": "string",
							"name": "producerName",
							"type": "string"
						},
						{
							"components": [
								{
									"internalType": "address",
									"name": "owner",
									"type": "address"
								},
								{
									"internalType": "uint256",
									"name": "timestamp",
									"type": "uint256"
								},
								{
									"internalType": "string",
									"name": "name",
									"type": "string"
								},
								{
									"internalType": "enum TradeManagement.ActorType",
									"name": "actor",
									"type": "uint8"
								}
							],
							"internalType": "struct TradeManagement.TradeUser[]",
							"name": "tradeUsers",
							"type": "tuple[]"
						},
						{
							"internalType": "bool",
							"name": "isBinding",
							"type": "bool"
						},
						{
							"internalType": "uint256[]",
							"name": "rawMaterials",
							"type": "uint256[]"
						}
					],
					"internalType": "struct TradeManagement.PackagedProductsNFT",
					"name": "nft",
					"type": "tuple"
				},
				{
					"components": [
						{
							"internalType": "address",
							"name": "owner",
							"type": "address"
						},
						{
							"internalType": "uint256",
							"name": "timestamp",
							"type": "uint256"
						},
						{
							"internalType": "string",
							"name": "name",
							"type": "string"
						},
						{
							"internalType": "enum TradeManagement.ActorType",
							"name": "actor",
							"type": "uint8"
						}
					],
					"internalType": "struct TradeManagement.TradeUser[]",
					"name": "tradeUsers",
					"type": "tuple[]"
				},
				{
					"internalType": "string",
					"name": "tokenURI",
					"type": "string"
				}
			],
			"stateMutability": "view",
			"type": "function"
		},
		{
			"inputs": [
				{
					"internalType": "uint256",
					"name": "tokenID",
					"type": "uint256"
				}
			],
			"name": "getRawMaterialsByToken",
			"outputs": [
				{
					"internalType": "uint256[]",
					"name": "",
					"type": "uint256[]"
				}
			],
			"stateMutability": "view",
			"type": "function"
		},
		{
			"inputs": [
				{
					"internalType": "uint256",
					"name": "tokenID",
					"type": "uint256"
				}
			],
			"name": "getRawMaterialsNFT",
			"outputs": [
				{
					"internalType": "bool",
					"name": "",
					"type": "bool"
				},
				{
					"internalType": "string",
					"name": "",
					"type": "string"
				},
				{
					"components": [
						{
							"internalType": "uint256",
							"name": "tokenID",
							"type": "uint256"
						},
						{
							"internalType": "uint256",
							"name": "lotID",
							"type": "uint256"
						},
						{
							"internalType": "uint256",
							"name": "produceTime",
							"type": "uint256"
						},
						{
							"internalType": "string",
							"name": "supplierName",
							"type": "string"
						},
						{
							"internalType": "uint256",
							"name": "supplierTime",
							"type": "uint256"
						},
						{
							"internalType": "string",
							"name": "producerName",
							"type": "string"
						},
						{
							"internalType": "uint256",
							"name": "totalSum",
							"type": "uint256"
						},
						{
							"internalType": "uint256[]",
							"name": "products",
							"type": "uint256[]"
						},
						{
							"internalType": "uint256[]",
							"name": "resumes",
							"type": "uint256[]"
						}
					],
					"internalType": "struct TradeManagement.RawMaterialsNFT",
					"name": "nft",
					"type": "tuple"
				},
				{
					"internalType": "uint256[]",
					"name": "products",
					"type": "uint256[]"
				},
				{
					"internalType": "uint256[]",
					"name": "resumes",
					"type": "uint256[]"
				},
				{
					"internalType": "string",
					"name": "tokenURI",
					"type": "string"
				}
			],
			"stateMutability": "view",
			"type": "function"
		},
		{
			"inputs": [
				{
					"internalType": "address",
					"name": "user",
					"type": "address"
				}
			],
			"name": "onlyProducer",
			"outputs": [],
			"stateMutability": "view",
			"type": "function"
		},
		{
			"inputs": [
				{
					"internalType": "address",
					"name": "user",
					"type": "address"
				}
			],
			"name": "onlySupplier",
			"outputs": [],
			"stateMutability": "view",
			"type": "function"
		},
		{
			"inputs": [
				{
					"internalType": "address",
					"name": "from",
					"type": "address"
				},
				{
					"internalType": "address",
					"name": "to",
					"type": "address"
				},
				{
					"internalType": "uint256",
					"name": "tokenID",
					"type": "uint256"
				},
				{
					"internalType": "string",
					"name": "actor",
					"type": "string"
				}
			],
			"name": "recordInnerTransfer",
			"outputs": [
				{
					"internalType": "bool",
					"name": "",
					"type": "bool"
				}
			],
			"stateMutability": "nonpayable",
			"type": "function"
		},
		{
			"inputs": [
				{
					"internalType": "address",
					"name": "from",
					"type": "address"
				},
				{
					"internalType": "address",
					"name": "to",
					"type": "address"
				},
				{
					"internalType": "uint256",
					"name": "tokenID",
					"type": "uint256"
				}
			],
			"name": "recordRawMaterialsTransfer",
			"outputs": [],
			"stateMutability": "nonpayable",
			"type": "function"
		},
		{
			"inputs": [
				{
					"internalType": "address",
					"name": "lotAddress",
					"type": "address"
				}
			],
			"name": "setLotContract",
			"outputs": [],
			"stateMutability": "nonpayable",
			"type": "function"
		},
		{
			"inputs": [
				{
					"internalType": "address",
					"name": "packagedProductAddress",
					"type": "address"
				}
			],
			"name": "setPackagedProductsContract",
			"outputs": [],
			"stateMutability": "nonpayable",
			"type": "function"
		},
		{
			"inputs": [
				{
					"internalType": "address",
					"name": "rawMaterialsAddress",
					"type": "address"
				}
			],
			"name": "setRawMaterialsContract",
			"outputs": [],
			"stateMutability": "nonpayable",
			"type": "function"
		}
	]
}